{
	"contracts/Vitals.sol": {
		"PatientRecord": {
			"abi": [
				{
					"anonymous": false,
					"inputs": [
						{
							"indexed": true,
							"internalType": "address",
							"name": "patientAddress",
							"type": "address"
						},
						{
							"indexed": true,
							"internalType": "address",
							"name": "doctorAddress",
							"type": "address"
						}
					],
					"name": "AccessGranted",
					"type": "event"
				},
				{
					"anonymous": false,
					"inputs": [
						{
							"indexed": true,
							"internalType": "address",
							"name": "patientAddress",
							"type": "address"
						},
						{
							"indexed": true,
							"internalType": "address",
							"name": "doctorAddress",
							"type": "address"
						}
					],
					"name": "AccessRevoked",
					"type": "event"
				},
				{
					"anonymous": false,
					"inputs": [
						{
							"indexed": true,
							"internalType": "address",
							"name": "patientAddress",
							"type": "address"
						},
						{
							"indexed": false,
							"internalType": "string",
							"name": "name",
							"type": "string"
						},
						{
							"indexed": true,
							"internalType": "uint256",
							"name": "recordIndex",
							"type": "uint256"
						}
					],
					"name": "PatientRecordAdded",
					"type": "event"
				},
				{
					"anonymous": false,
					"inputs": [
						{
							"indexed": true,
							"internalType": "address",
							"name": "patientAddress",
							"type": "address"
						},
						{
							"indexed": false,
							"internalType": "string",
							"name": "name",
							"type": "string"
						},
						{
							"indexed": true,
							"internalType": "uint256",
							"name": "recordIndex",
							"type": "uint256"
						}
					],
					"name": "PatientRecordUpdated",
					"type": "event"
				},
				{
					"inputs": [
						{
							"internalType": "address",
							"name": "doctorAddress",
							"type": "address"
						}
					],
					"name": "addDoctor",
					"outputs": [],
					"stateMutability": "nonpayable",
					"type": "function"
				},
				{
					"inputs": [
						{
							"internalType": "address",
							"name": "patientAddress",
							"type": "address"
						},
						{
							"internalType": "string[7]",
							"name": "vitalSigns",
							"type": "string[7]"
						},
						{
							"internalType": "string[3]",
							"name": "treatmentDetails",
							"type": "string[3]"
						},
						{
							"internalType": "string[3]",
							"name": "vaccine",
							"type": "string[3]"
						},
						{
							"internalType": "string[3]",
							"name": "prescription",
							"type": "string[3]"
						}
					],
					"name": "addPatientRecord",
					"outputs": [],
					"stateMutability": "nonpayable",
					"type": "function"
				},
				{
					"inputs": [
						{
							"internalType": "address",
							"name": "patientAddress",
							"type": "address"
						}
					],
					"name": "getPatientRecord",
					"outputs": [
						{
							"components": [
								{
									"internalType": "string[7]",
									"name": "vitalSigns",
									"type": "string[7]"
								},
								{
									"internalType": "string[3]",
									"name": "treatmentDetails",
									"type": "string[3]"
								},
								{
									"internalType": "string[3]",
									"name": "vaccine",
									"type": "string[3]"
								},
								{
									"internalType": "string[3]",
									"name": "prescription",
									"type": "string[3]"
								}
							],
							"internalType": "struct PatientRecord.Record[]",
							"name": "",
							"type": "tuple[]"
						}
					],
					"stateMutability": "view",
					"type": "function"
				},
				{
					"inputs": [
						{
							"internalType": "address",
							"name": "grantedAddress",
							"type": "address"
						},
						{
							"internalType": "address",
							"name": "patientAddress",
							"type": "address"
						}
					],
					"name": "grantAccess",
					"outputs": [],
					"stateMutability": "nonpayable",
					"type": "function"
				},
				{
					"inputs": [
						{
							"internalType": "address",
							"name": "account",
							"type": "address"
						}
					],
					"name": "isAdmin",
					"outputs": [
						{
							"internalType": "bool",
							"name": "",
							"type": "bool"
						}
					],
					"stateMutability": "view",
					"type": "function"
				},
				{
					"inputs": [
						{
							"internalType": "address",
							"name": "account",
							"type": "address"
						}
					],
					"name": "isDoctor",
					"outputs": [
						{
							"internalType": "bool",
							"name": "",
							"type": "bool"
						}
					],
					"stateMutability": "view",
					"type": "function"
				},
				{
					"inputs": [
						{
							"internalType": "address",
							"name": "doctorAddress",
							"type": "address"
						}
					],
					"name": "removeDoctor",
					"outputs": [],
					"stateMutability": "nonpayable",
					"type": "function"
				},
				{
					"inputs": [
						{
							"internalType": "address",
							"name": "patientAddress",
							"type": "address"
						}
					],
					"name": "removePatient",
					"outputs": [],
					"stateMutability": "nonpayable",
					"type": "function"
				},
				{
					"inputs": [
						{
							"internalType": "address",
							"name": "grantedAddress",
							"type": "address"
						},
						{
							"internalType": "address",
							"name": "patientAddress",
							"type": "address"
						}
					],
					"name": "revokeAccess",
					"outputs": [],
					"stateMutability": "nonpayable",
					"type": "function"
				},
				{
					"inputs": [
						{
							"internalType": "address",
							"name": "patientAddress",
							"type": "address"
						},
						{
							"internalType": "uint256",
							"name": "recordIndex",
							"type": "uint256"
						},
						{
							"internalType": "string[7]",
							"name": "updatedVitalSigns",
							"type": "string[7]"
						},
						{
							"internalType": "string[3]",
							"name": "updatedTreatmentDetails",
							"type": "string[3]"
						},
						{
							"internalType": "string[3]",
							"name": "updatedVaccine",
							"type": "string[3]"
						},
						{
							"internalType": "string[3]",
							"name": "updatedPrescription",
							"type": "string[3]"
						}
					],
					"name": "updatePatientRecord",
					"outputs": [],
					"stateMutability": "nonpayable",
					"type": "function"
				}
			],
			"devdoc": {
				"kind": "dev",
				"methods": {},
				"version": 1
			},
			"evm": {
				"assembly": "    /* \"contracts/Vitals.sol\":57:5122  contract PatientRecord {... */\n  mstore(0x40, 0x80)\n  callvalue\n  dup1\n  iszero\n  tag_1\n  jumpi\n  0x00\n  dup1\n  revert\ntag_1:\n  pop\n  dataSize(sub_0)\n  dup1\n  dataOffset(sub_0)\n  0x00\n  codecopy\n  0x00\n  return\nstop\n\nsub_0: assembly {\n        /* \"contracts/Vitals.sol\":57:5122  contract PatientRecord {... */\n      mstore(0x40, 0x80)\n      callvalue\n      dup1\n      iszero\n      tag_1\n      jumpi\n      0x00\n      dup1\n      revert\n    tag_1:\n      pop\n      jumpi(tag_2, lt(calldatasize, 0x04))\n      shr(0xe0, calldataload(0x00))\n      dup1\n      0x7d0d6257\n      gt\n      tag_13\n      jumpi\n      dup1\n      0x7d0d6257\n      eq\n      tag_8\n      jumpi\n      dup1\n      0x98fc90e9\n      eq\n      tag_9\n      jumpi\n      dup1\n      0x996440c6\n      eq\n      tag_10\n      jumpi\n      dup1\n      0xc06d0bfa\n      eq\n      tag_11\n      jumpi\n      dup1\n      0xc6a09d95\n      eq\n      tag_12\n      jumpi\n      jump(tag_2)\n    tag_13:\n      dup1\n      0x18607174\n      eq\n      tag_3\n      jumpi\n      dup1\n      0x24d7806c\n      eq\n      tag_4\n      jumpi\n      dup1\n      0x4780468f\n      eq\n      tag_5\n      jumpi\n      dup1\n      0x54028a6d\n      eq\n      tag_6\n      jumpi\n      dup1\n      0x5f6ea340\n      eq\n      tag_7\n      jumpi\n    tag_2:\n      0x00\n      dup1\n      revert\n        /* \"contracts/Vitals.sol\":2940:3238  function getPatientRecord(address patientAddress) public view returns (Record[] memory) {... */\n    tag_3:\n      tag_14\n      0x04\n      dup1\n      calldatasize\n      sub\n      dup2\n      add\n      swap1\n      tag_15\n      swap2\n      swap1\n      tag_16\n      jump\t// in\n    tag_15:\n      tag_17\n      jump\t// in\n    tag_14:\n      mload(0x40)\n      tag_18\n      swap2\n      swap1\n      tag_19\n      jump\t// in\n    tag_18:\n      mload(0x40)\n      dup1\n      swap2\n      sub\n      swap1\n      return\n        /* \"contracts/Vitals.sol\":4911:5011  function isAdmin(address account) public view returns (bool) {... */\n    tag_4:\n      tag_20\n      0x04\n      dup1\n      calldatasize\n      sub\n      dup2\n      add\n      swap1\n      tag_21\n      swap2\n      swap1\n      tag_16\n      jump\t// in\n    tag_21:\n      tag_22\n      jump\t// in\n    tag_20:\n      mload(0x40)\n      tag_23\n      swap2\n      swap1\n      tag_24\n      jump\t// in\n    tag_23:\n      mload(0x40)\n      dup1\n      swap2\n      sub\n      swap1\n      return\n        /* \"contracts/Vitals.sol\":4566:4671  function addDoctor(address doctorAddress) public onlyAdmin {... */\n    tag_5:\n      tag_25\n      0x04\n      dup1\n      calldatasize\n      sub\n      dup2\n      add\n      swap1\n      tag_26\n      swap2\n      swap1\n      tag_16\n      jump\t// in\n    tag_26:\n      tag_27\n      jump\t// in\n    tag_25:\n      stop\n        /* \"contracts/Vitals.sol\":1287:1811  function addPatientRecord(... */\n    tag_6:\n      tag_28\n      0x04\n      dup1\n      calldatasize\n      sub\n      dup2\n      add\n      swap1\n      tag_29\n      swap2\n      swap1\n      tag_30\n      jump\t// in\n    tag_29:\n      tag_31\n      jump\t// in\n    tag_28:\n      stop\n        /* \"contracts/Vitals.sol\":4039:4560  function revokeAccess(address grantedAddress, address patientAddress) public {... */\n    tag_7:\n      tag_32\n      0x04\n      dup1\n      calldatasize\n      sub\n      dup2\n      add\n      swap1\n      tag_33\n      swap2\n      swap1\n      tag_34\n      jump\t// in\n    tag_33:\n      tag_35\n      jump\t// in\n    tag_32:\n      stop\n        /* \"contracts/Vitals.sol\":4792:4905  function removePatient(address patientAddress) public onlyAdmin {... */\n    tag_8:\n      tag_36\n      0x04\n      dup1\n      calldatasize\n      sub\n      dup2\n      add\n      swap1\n      tag_37\n      swap2\n      swap1\n      tag_16\n      jump\t// in\n    tag_37:\n      tag_38\n      jump\t// in\n    tag_36:\n      stop\n        /* \"contracts/Vitals.sol\":4677:4786  function removeDoctor(address doctorAddress) public onlyAdmin {... */\n    tag_9:\n      tag_39\n      0x04\n      dup1\n      calldatasize\n      sub\n      dup2\n      add\n      swap1\n      tag_40\n      swap2\n      swap1\n      tag_16\n      jump\t// in\n    tag_40:\n      tag_41\n      jump\t// in\n    tag_39:\n      stop\n        /* \"contracts/Vitals.sol\":5017:5119  function isDoctor(address account) public view returns (bool) {... */\n    tag_10:\n      tag_42\n      0x04\n      dup1\n      calldatasize\n      sub\n      dup2\n      add\n      swap1\n      tag_43\n      swap2\n      swap1\n      tag_16\n      jump\t// in\n    tag_43:\n      tag_44\n      jump\t// in\n    tag_42:\n      mload(0x40)\n      tag_45\n      swap2\n      swap1\n      tag_24\n      jump\t// in\n    tag_45:\n      mload(0x40)\n      dup1\n      swap2\n      sub\n      swap1\n      return\n        /* \"contracts/Vitals.sol\":1817:2934  function updatePatientRecord(... */\n    tag_11:\n      tag_46\n      0x04\n      dup1\n      calldatasize\n      sub\n      dup2\n      add\n      swap1\n      tag_47\n      swap2\n      swap1\n      tag_48\n      jump\t// in\n    tag_47:\n      tag_49\n      jump\t// in\n    tag_46:\n      stop\n        /* \"contracts/Vitals.sol\":3646:4033  function grantAccess(address grantedAddress, address patientAddress) public {... */\n    tag_12:\n      tag_50\n      0x04\n      dup1\n      calldatasize\n      sub\n      dup2\n      add\n      swap1\n      tag_51\n      swap2\n      swap1\n      tag_34\n      jump\t// in\n    tag_51:\n      tag_52\n      jump\t// in\n    tag_50:\n      stop\n        /* \"contracts/Vitals.sol\":2940:3238  function getPatientRecord(address patientAddress) public view returns (Record[] memory) {... */\n    tag_17:\n        /* \"contracts/Vitals.sol\":3011:3026  Record[] memory */\n      0x60\n        /* \"contracts/Vitals.sol\":3046:3052  admins */\n      0x01\n        /* \"contracts/Vitals.sol\":3046:3064  admins[msg.sender] */\n      0x00\n        /* \"contracts/Vitals.sol\":3053:3063  msg.sender */\n      caller\n        /* \"contracts/Vitals.sol\":3046:3064  admins[msg.sender] */\n      0xffffffffffffffffffffffffffffffffffffffff\n      and\n      0xffffffffffffffffffffffffffffffffffffffff\n      and\n      dup2\n      mstore\n      0x20\n      add\n      swap1\n      dup2\n      mstore\n      0x20\n      add\n      0x00\n      keccak256\n      0x00\n      swap1\n      sload\n      swap1\n      0x0100\n      exp\n      swap1\n      div\n      0xff\n      and\n        /* \"contracts/Vitals.sol\":3046:3087  admins[msg.sender] || doctors[msg.sender] */\n      dup1\n      tag_54\n      jumpi\n      pop\n        /* \"contracts/Vitals.sol\":3068:3075  doctors */\n      0x02\n        /* \"contracts/Vitals.sol\":3068:3087  doctors[msg.sender] */\n      0x00\n        /* \"contracts/Vitals.sol\":3076:3086  msg.sender */\n      caller\n        /* \"contracts/Vitals.sol\":3068:3087  doctors[msg.sender] */\n      0xffffffffffffffffffffffffffffffffffffffff\n      and\n      0xffffffffffffffffffffffffffffffffffffffff\n      and\n      dup2\n      mstore\n      0x20\n      add\n      swap1\n      dup2\n      mstore\n      0x20\n      add\n      0x00\n      keccak256\n      0x00\n      swap1\n      sload\n      swap1\n      0x0100\n      exp\n      swap1\n      div\n      0xff\n      and\n        /* \"contracts/Vitals.sol\":3046:3087  admins[msg.sender] || doctors[msg.sender] */\n    tag_54:\n        /* \"contracts/Vitals.sol\":3046:3119  admins[msg.sender] || doctors[msg.sender] || msg.sender == patientAddress */\n      dup1\n      tag_55\n      jumpi\n      pop\n        /* \"contracts/Vitals.sol\":3105:3119  patientAddress */\n      dup2\n        /* \"contracts/Vitals.sol\":3091:3119  msg.sender == patientAddress */\n      0xffffffffffffffffffffffffffffffffffffffff\n      and\n        /* \"contracts/Vitals.sol\":3091:3101  msg.sender */\n      caller\n        /* \"contracts/Vitals.sol\":3091:3119  msg.sender == patientAddress */\n      0xffffffffffffffffffffffffffffffffffffffff\n      and\n      eq\n        /* \"contracts/Vitals.sol\":3046:3119  admins[msg.sender] || doctors[msg.sender] || msg.sender == patientAddress */\n    tag_55:\n        /* \"contracts/Vitals.sol\":3038:3184  require(admins[msg.sender] || doctors[msg.sender] || msg.sender == patientAddress, \"Only authorized doctors or the patient can access the record\") */\n      tag_56\n      jumpi\n      mload(0x40)\n      0x08c379a000000000000000000000000000000000000000000000000000000000\n      dup2\n      mstore\n      0x04\n      add\n      tag_57\n      swap1\n      tag_58\n      jump\t// in\n    tag_57:\n      mload(0x40)\n      dup1\n      swap2\n      sub\n      swap1\n      revert\n    tag_56:\n        /* \"contracts/Vitals.sol\":3201:3215  patientRecords */\n      0x00\n        /* \"contracts/Vitals.sol\":3201:3231  patientRecords[patientAddress] */\n      dup1\n        /* \"contracts/Vitals.sol\":3216:3230  patientAddress */\n      dup4\n        /* \"contracts/Vitals.sol\":3201:3231  patientRecords[patientAddress] */\n      0xffffffffffffffffffffffffffffffffffffffff\n      and\n      0xffffffffffffffffffffffffffffffffffffffff\n      and\n      dup2\n      mstore\n      0x20\n      add\n      swap1\n      dup2\n      mstore\n      0x20\n      add\n      0x00\n      keccak256\n        /* \"contracts/Vitals.sol\":3194:3231  return patientRecords[patientAddress] */\n      dup1\n      sload\n      dup1\n      0x20\n      mul\n      0x20\n      add\n      mload(0x40)\n      swap1\n      dup2\n      add\n      0x40\n      mstore\n      dup1\n      swap3\n      swap2\n      swap1\n      dup2\n      dup2\n      mstore\n      0x20\n      add\n      0x00\n      swap1\n    tag_59:\n      dup3\n      dup3\n      lt\n      iszero\n      tag_60\n      jumpi\n      dup4\n      dup3\n      swap1\n      0x00\n      mstore\n      keccak256(0x00, 0x20)\n      swap1\n      0x10\n      mul\n      add\n      mload(0x40)\n      dup1\n      0x80\n      add\n      0x40\n      mstore\n      swap1\n      dup2\n      0x00\n      dup3\n      add\n      0x07\n      dup1\n      0x20\n      mul\n      mload(0x40)\n      swap1\n      dup2\n      add\n      0x40\n      mstore\n      dup1\n      swap3\n      swap2\n      swap1\n      0x00\n      swap1\n    tag_62:\n      dup3\n      dup3\n      lt\n      iszero\n      tag_63\n      jumpi\n      dup4\n      dup3\n      add\n      dup1\n      sload\n      tag_65\n      swap1\n      tag_66\n      jump\t// in\n    tag_65:\n      dup1\n      0x1f\n      add\n      0x20\n      dup1\n      swap2\n      div\n      mul\n      0x20\n      add\n      mload(0x40)\n      swap1\n      dup2\n      add\n      0x40\n      mstore\n      dup1\n      swap3\n      swap2\n      swap1\n      dup2\n      dup2\n      mstore\n      0x20\n      add\n      dup3\n      dup1\n      sload\n      tag_67\n      swap1\n      tag_66\n      jump\t// in\n    tag_67:\n      dup1\n      iszero\n      tag_68\n      jumpi\n      dup1\n      0x1f\n      lt\n      tag_69\n      jumpi\n      0x0100\n      dup1\n      dup4\n      sload\n      div\n      mul\n      dup4\n      mstore\n      swap2\n      0x20\n      add\n      swap2\n      jump(tag_68)\n    tag_69:\n      dup3\n      add\n      swap2\n      swap1\n      0x00\n      mstore\n      keccak256(0x00, 0x20)\n      swap1\n    tag_70:\n      dup2\n      sload\n      dup2\n      mstore\n      swap1\n      0x01\n      add\n      swap1\n      0x20\n      add\n      dup1\n      dup4\n      gt\n      tag_70\n      jumpi\n      dup3\n      swap1\n      sub\n      0x1f\n      and\n      dup3\n      add\n      swap2\n    tag_68:\n      pop\n      pop\n      pop\n      pop\n      pop\n      dup2\n      mstore\n      0x20\n      add\n      swap1\n      0x01\n      add\n      swap1\n      jump(tag_62)\n    tag_63:\n      pop\n      pop\n      pop\n      pop\n      dup2\n      mstore\n      0x20\n      add\n      0x07\n      dup3\n      add\n      0x03\n      dup1\n      0x20\n      mul\n      mload(0x40)\n      swap1\n      dup2\n      add\n      0x40\n      mstore\n      dup1\n      swap3\n      swap2\n      swap1\n      0x00\n      swap1\n    tag_71:\n      dup3\n      dup3\n      lt\n      iszero\n      tag_72\n      jumpi\n      dup4\n      dup3\n      add\n      dup1\n      sload\n      tag_74\n      swap1\n      tag_66\n      jump\t// in\n    tag_74:\n      dup1\n      0x1f\n      add\n      0x20\n      dup1\n      swap2\n      div\n      mul\n      0x20\n      add\n      mload(0x40)\n      swap1\n      dup2\n      add\n      0x40\n      mstore\n      dup1\n      swap3\n      swap2\n      swap1\n      dup2\n      dup2\n      mstore\n      0x20\n      add\n      dup3\n      dup1\n      sload\n      tag_75\n      swap1\n      tag_66\n      jump\t// in\n    tag_75:\n      dup1\n      iszero\n      tag_76\n      jumpi\n      dup1\n      0x1f\n      lt\n      tag_77\n      jumpi\n      0x0100\n      dup1\n      dup4\n      sload\n      div\n      mul\n      dup4\n      mstore\n      swap2\n      0x20\n      add\n      swap2\n      jump(tag_76)\n    tag_77:\n      dup3\n      add\n      swap2\n      swap1\n      0x00\n      mstore\n      keccak256(0x00, 0x20)\n      swap1\n    tag_78:\n      dup2\n      sload\n      dup2\n      mstore\n      swap1\n      0x01\n      add\n      swap1\n      0x20\n      add\n      dup1\n      dup4\n      gt\n      tag_78\n      jumpi\n      dup3\n      swap1\n      sub\n      0x1f\n      and\n      dup3\n      add\n      swap2\n    tag_76:\n      pop\n      pop\n      pop\n      pop\n      pop\n      dup2\n      mstore\n      0x20\n      add\n      swap1\n      0x01\n      add\n      swap1\n      jump(tag_71)\n    tag_72:\n      pop\n      pop\n      pop\n      pop\n      dup2\n      mstore\n      0x20\n      add\n      0x0a\n      dup3\n      add\n      0x03\n      dup1\n      0x20\n      mul\n      mload(0x40)\n      swap1\n      dup2\n      add\n      0x40\n      mstore\n      dup1\n      swap3\n      swap2\n      swap1\n      0x00\n      swap1\n    tag_79:\n      dup3\n      dup3\n      lt\n      iszero\n      tag_80\n      jumpi\n      dup4\n      dup3\n      add\n      dup1\n      sload\n      tag_82\n      swap1\n      tag_66\n      jump\t// in\n    tag_82:\n      dup1\n      0x1f\n      add\n      0x20\n      dup1\n      swap2\n      div\n      mul\n      0x20\n      add\n      mload(0x40)\n      swap1\n      dup2\n      add\n      0x40\n      mstore\n      dup1\n      swap3\n      swap2\n      swap1\n      dup2\n      dup2\n      mstore\n      0x20\n      add\n      dup3\n      dup1\n      sload\n      tag_83\n      swap1\n      tag_66\n      jump\t// in\n    tag_83:\n      dup1\n      iszero\n      tag_84\n      jumpi\n      dup1\n      0x1f\n      lt\n      tag_85\n      jumpi\n      0x0100\n      dup1\n      dup4\n      sload\n      div\n      mul\n      dup4\n      mstore\n      swap2\n      0x20\n      add\n      swap2\n      jump(tag_84)\n    tag_85:\n      dup3\n      add\n      swap2\n      swap1\n      0x00\n      mstore\n      keccak256(0x00, 0x20)\n      swap1\n    tag_86:\n      dup2\n      sload\n      dup2\n      mstore\n      swap1\n      0x01\n      add\n      swap1\n      0x20\n      add\n      dup1\n      dup4\n      gt\n      tag_86\n      jumpi\n      dup3\n      swap1\n      sub\n      0x1f\n      and\n      dup3\n      add\n      swap2\n    tag_84:\n      pop\n      pop\n      pop\n      pop\n      pop\n      dup2\n      mstore\n      0x20\n      add\n      swap1\n      0x01\n      add\n      swap1\n      jump(tag_79)\n    tag_80:\n      pop\n      pop\n      pop\n      pop\n      dup2\n      mstore\n      0x20\n      add\n      0x0d\n      dup3\n      add\n      0x03\n      dup1\n      0x20\n      mul\n      mload(0x40)\n      swap1\n      dup2\n      add\n      0x40\n      mstore\n      dup1\n      swap3\n      swap2\n      swap1\n      0x00\n      swap1\n    tag_87:\n      dup3\n      dup3\n      lt\n      iszero\n      tag_88\n      jumpi\n      dup4\n      dup3\n      add\n      dup1\n      sload\n      tag_90\n      swap1\n      tag_66\n      jump\t// in\n    tag_90:\n      dup1\n      0x1f\n      add\n      0x20\n      dup1\n      swap2\n      div\n      mul\n      0x20\n      add\n      mload(0x40)\n      swap1\n      dup2\n      add\n      0x40\n      mstore\n      dup1\n      swap3\n      swap2\n      swap1\n      dup2\n      dup2\n      mstore\n      0x20\n      add\n      dup3\n      dup1\n      sload\n      tag_91\n      swap1\n      tag_66\n      jump\t// in\n    tag_91:\n      dup1\n      iszero\n      tag_92\n      jumpi\n      dup1\n      0x1f\n      lt\n      tag_93\n      jumpi\n      0x0100\n      dup1\n      dup4\n      sload\n      div\n      mul\n      dup4\n      mstore\n      swap2\n      0x20\n      add\n      swap2\n      jump(tag_92)\n    tag_93:\n      dup3\n      add\n      swap2\n      swap1\n      0x00\n      mstore\n      keccak256(0x00, 0x20)\n      swap1\n    tag_94:\n      dup2\n      sload\n      dup2\n      mstore\n      swap1\n      0x01\n      add\n      swap1\n      0x20\n      add\n      dup1\n      dup4\n      gt\n      tag_94\n      jumpi\n      dup3\n      swap1\n      sub\n      0x1f\n      and\n      dup3\n      add\n      swap2\n    tag_92:\n      pop\n      pop\n      pop\n      pop\n      pop\n      dup2\n      mstore\n      0x20\n      add\n      swap1\n      0x01\n      add\n      swap1\n      jump(tag_87)\n    tag_88:\n      pop\n      pop\n      pop\n      pop\n      dup2\n      mstore\n      pop\n      pop\n      dup2\n      mstore\n      0x20\n      add\n      swap1\n      0x01\n      add\n      swap1\n      jump(tag_59)\n    tag_60:\n      pop\n      pop\n      pop\n      pop\n      swap1\n      pop\n        /* \"contracts/Vitals.sol\":2940:3238  function getPatientRecord(address patientAddress) public view returns (Record[] memory) {... */\n      swap2\n      swap1\n      pop\n      jump\t// out\n        /* \"contracts/Vitals.sol\":4911:5011  function isAdmin(address account) public view returns (bool) {... */\n    tag_22:\n        /* \"contracts/Vitals.sol\":4966:4970  bool */\n      0x00\n        /* \"contracts/Vitals.sol\":4989:4995  admins */\n      0x01\n        /* \"contracts/Vitals.sol\":4989:5004  admins[account] */\n      0x00\n        /* \"contracts/Vitals.sol\":4996:5003  account */\n      dup4\n        /* \"contracts/Vitals.sol\":4989:5004  admins[account] */\n      0xffffffffffffffffffffffffffffffffffffffff\n      and\n      0xffffffffffffffffffffffffffffffffffffffff\n      and\n      dup2\n      mstore\n      0x20\n      add\n      swap1\n      dup2\n      mstore\n      0x20\n      add\n      0x00\n      keccak256\n      0x00\n      swap1\n      sload\n      swap1\n      0x0100\n      exp\n      swap1\n      div\n      0xff\n      and\n        /* \"contracts/Vitals.sol\":4982:5004  return admins[account] */\n      swap1\n      pop\n        /* \"contracts/Vitals.sol\":4911:5011  function isAdmin(address account) public view returns (bool) {... */\n      swap2\n      swap1\n      pop\n      jump\t// out\n        /* \"contracts/Vitals.sol\":4566:4671  function addDoctor(address doctorAddress) public onlyAdmin {... */\n    tag_27:\n        /* \"contracts/Vitals.sol\":817:823  admins */\n      0x01\n        /* \"contracts/Vitals.sol\":817:835  admins[msg.sender] */\n      0x00\n        /* \"contracts/Vitals.sol\":824:834  msg.sender */\n      caller\n        /* \"contracts/Vitals.sol\":817:835  admins[msg.sender] */\n      0xffffffffffffffffffffffffffffffffffffffff\n      and\n      0xffffffffffffffffffffffffffffffffffffffff\n      and\n      dup2\n      mstore\n      0x20\n      add\n      swap1\n      dup2\n      mstore\n      0x20\n      add\n      0x00\n      keccak256\n      0x00\n      swap1\n      sload\n      swap1\n      0x0100\n      exp\n      swap1\n      div\n      0xff\n      and\n        /* \"contracts/Vitals.sol\":809:875  require(admins[msg.sender], \"Only admins can perform this action\") */\n      tag_97\n      jumpi\n      mload(0x40)\n      0x08c379a000000000000000000000000000000000000000000000000000000000\n      dup2\n      mstore\n      0x04\n      add\n      tag_98\n      swap1\n      tag_99\n      jump\t// in\n    tag_98:\n      mload(0x40)\n      dup1\n      swap2\n      sub\n      swap1\n      revert\n    tag_97:\n        /* \"contracts/Vitals.sol\":4660:4664  true */\n      0x01\n        /* \"contracts/Vitals.sol\":4635:4642  doctors */\n      0x02\n        /* \"contracts/Vitals.sol\":4635:4657  doctors[doctorAddress] */\n      0x00\n        /* \"contracts/Vitals.sol\":4643:4656  doctorAddress */\n      dup4\n        /* \"contracts/Vitals.sol\":4635:4657  doctors[doctorAddress] */\n      0xffffffffffffffffffffffffffffffffffffffff\n      and\n      0xffffffffffffffffffffffffffffffffffffffff\n      and\n      dup2\n      mstore\n      0x20\n      add\n      swap1\n      dup2\n      mstore\n      0x20\n      add\n      0x00\n      keccak256\n      0x00\n        /* \"contracts/Vitals.sol\":4635:4664  doctors[doctorAddress] = true */\n      0x0100\n      exp\n      dup2\n      sload\n      dup2\n      0xff\n      mul\n      not\n      and\n      swap1\n      dup4\n      iszero\n      iszero\n      mul\n      or\n      swap1\n      sstore\n      pop\n        /* \"contracts/Vitals.sol\":4566:4671  function addDoctor(address doctorAddress) public onlyAdmin {... */\n      pop\n      jump\t// out\n        /* \"contracts/Vitals.sol\":1287:1811  function addPatientRecord(... */\n    tag_31:\n        /* \"contracts/Vitals.sol\":1532:1546  patientAddress */\n      dup5\n        /* \"contracts/Vitals.sol\":642:649  doctors */\n      0x02\n        /* \"contracts/Vitals.sol\":642:661  doctors[msg.sender] */\n      0x00\n        /* \"contracts/Vitals.sol\":650:660  msg.sender */\n      caller\n        /* \"contracts/Vitals.sol\":642:661  doctors[msg.sender] */\n      0xffffffffffffffffffffffffffffffffffffffff\n      and\n      0xffffffffffffffffffffffffffffffffffffffff\n      and\n      dup2\n      mstore\n      0x20\n      add\n      swap1\n      dup2\n      mstore\n      0x20\n      add\n      0x00\n      keccak256\n      0x00\n      swap1\n      sload\n      swap1\n      0x0100\n      exp\n      swap1\n      div\n      0xff\n      and\n        /* \"contracts/Vitals.sol\":642:702  doctors[msg.sender] && hasAccess(msg.sender, patientAddress) */\n      dup1\n      iszero\n      tag_102\n      jumpi\n      pop\n        /* \"contracts/Vitals.sol\":665:702  hasAccess(msg.sender, patientAddress) */\n      tag_103\n        /* \"contracts/Vitals.sol\":675:685  msg.sender */\n      caller\n        /* \"contracts/Vitals.sol\":687:701  patientAddress */\n      dup3\n        /* \"contracts/Vitals.sol\":665:674  hasAccess */\n      tag_104\n        /* \"contracts/Vitals.sol\":665:702  hasAccess(msg.sender, patientAddress) */\n      jump\t// in\n    tag_103:\n        /* \"contracts/Vitals.sol\":642:702  doctors[msg.sender] && hasAccess(msg.sender, patientAddress) */\n    tag_102:\n        /* \"contracts/Vitals.sol\":634:754  require(doctors[msg.sender] && hasAccess(msg.sender, patientAddress), \"Only authorized doctors can perform this action\") */\n      tag_105\n      jumpi\n      mload(0x40)\n      0x08c379a000000000000000000000000000000000000000000000000000000000\n      dup2\n      mstore\n      0x04\n      add\n      tag_106\n      swap1\n      tag_107\n      jump\t// in\n    tag_106:\n      mload(0x40)\n      dup1\n      swap2\n      sub\n      swap1\n      revert\n    tag_105:\n        /* \"contracts/Vitals.sol\":1585:1589  true */\n      0x01\n        /* \"contracts/Vitals.sol\":1558:1566  patients */\n      0x03\n        /* \"contracts/Vitals.sol\":1558:1582  patients[patientAddress] */\n      0x00\n        /* \"contracts/Vitals.sol\":1567:1581  patientAddress */\n      dup9\n        /* \"contracts/Vitals.sol\":1558:1582  patients[patientAddress] */\n      0xffffffffffffffffffffffffffffffffffffffff\n      and\n      0xffffffffffffffffffffffffffffffffffffffff\n      and\n      dup2\n      mstore\n      0x20\n      add\n      swap1\n      dup2\n      mstore\n      0x20\n      add\n      0x00\n      keccak256\n      0x00\n        /* \"contracts/Vitals.sol\":1558:1589  patients[patientAddress] = true */\n      0x0100\n      exp\n      dup2\n      sload\n      dup2\n      0xff\n      mul\n      not\n      and\n      swap1\n      dup4\n      iszero\n      iszero\n      mul\n      or\n      swap1\n      sstore\n      pop\n        /* \"contracts/Vitals.sol\":1599:1613  patientRecords */\n      0x00\n        /* \"contracts/Vitals.sol\":1599:1629  patientRecords[patientAddress] */\n      dup1\n        /* \"contracts/Vitals.sol\":1614:1628  patientAddress */\n      dup8\n        /* \"contracts/Vitals.sol\":1599:1629  patientRecords[patientAddress] */\n      0xffffffffffffffffffffffffffffffffffffffff\n      and\n      0xffffffffffffffffffffffffffffffffffffffff\n      and\n      dup2\n      mstore\n      0x20\n      add\n      swap1\n      dup2\n      mstore\n      0x20\n      add\n      0x00\n      keccak256\n        /* \"contracts/Vitals.sol\":1635:1694  Record(vitalSigns, treatmentDetails, vaccine, prescription) */\n      mload(0x40)\n      dup1\n      0x80\n      add\n      0x40\n      mstore\n      dup1\n        /* \"contracts/Vitals.sol\":1642:1652  vitalSigns */\n      dup8\n        /* \"contracts/Vitals.sol\":1635:1694  Record(vitalSigns, treatmentDetails, vaccine, prescription) */\n      dup2\n      mstore\n      0x20\n      add\n        /* \"contracts/Vitals.sol\":1654:1670  treatmentDetails */\n      dup7\n        /* \"contracts/Vitals.sol\":1635:1694  Record(vitalSigns, treatmentDetails, vaccine, prescription) */\n      dup2\n      mstore\n      0x20\n      add\n        /* \"contracts/Vitals.sol\":1672:1679  vaccine */\n      dup6\n        /* \"contracts/Vitals.sol\":1635:1694  Record(vitalSigns, treatmentDetails, vaccine, prescription) */\n      dup2\n      mstore\n      0x20\n      add\n        /* \"contracts/Vitals.sol\":1681:1693  prescription */\n      dup5\n        /* \"contracts/Vitals.sol\":1635:1694  Record(vitalSigns, treatmentDetails, vaccine, prescription) */\n      dup2\n      mstore\n      pop\n        /* \"contracts/Vitals.sol\":1599:1695  patientRecords[patientAddress].push(Record(vitalSigns, treatmentDetails, vaccine, prescription)) */\n      swap1\n      dup1\n      0x01\n      dup2\n      sload\n      add\n      dup1\n      dup3\n      sstore\n      dup1\n      swap2\n      pop\n      pop\n      0x01\n      swap1\n      sub\n      swap1\n      0x00\n      mstore\n      keccak256(0x00, 0x20)\n      swap1\n      0x10\n      mul\n      add\n      0x00\n      swap1\n      swap2\n      swap1\n      swap2\n      swap1\n      swap2\n      pop\n      0x00\n      dup3\n      add\n      mload\n      dup2\n      0x00\n      add\n      swap1\n      0x07\n      tag_110\n      swap3\n      swap2\n      swap1\n      tag_111\n      jump\t// in\n    tag_110:\n      pop\n      0x20\n      dup3\n      add\n      mload\n      dup2\n      0x07\n      add\n      swap1\n      0x03\n      tag_112\n      swap3\n      swap2\n      swap1\n      tag_113\n      jump\t// in\n    tag_112:\n      pop\n      0x40\n      dup3\n      add\n      mload\n      dup2\n      0x0a\n      add\n      swap1\n      0x03\n      tag_114\n      swap3\n      swap2\n      swap1\n      tag_113\n      jump\t// in\n    tag_114:\n      pop\n      0x60\n      dup3\n      add\n      mload\n      dup2\n      0x0d\n      add\n      swap1\n      0x03\n      tag_115\n      swap3\n      swap2\n      swap1\n      tag_113\n      jump\t// in\n    tag_115:\n      pop\n      pop\n      pop\n        /* \"contracts/Vitals.sol\":1802:1803  1 */\n      0x01\n        /* \"contracts/Vitals.sol\":1762:1776  patientRecords */\n      0x00\n        /* \"contracts/Vitals.sol\":1762:1792  patientRecords[patientAddress] */\n      dup1\n        /* \"contracts/Vitals.sol\":1777:1791  patientAddress */\n      dup9\n        /* \"contracts/Vitals.sol\":1762:1792  patientRecords[patientAddress] */\n      0xffffffffffffffffffffffffffffffffffffffff\n      and\n      0xffffffffffffffffffffffffffffffffffffffff\n      and\n      dup2\n      mstore\n      0x20\n      add\n      swap1\n      dup2\n      mstore\n      0x20\n      add\n      0x00\n      keccak256\n        /* \"contracts/Vitals.sol\":1762:1799  patientRecords[patientAddress].length */\n      dup1\n      sload\n      swap1\n      pop\n        /* \"contracts/Vitals.sol\":1762:1803  patientRecords[patientAddress].length - 1 */\n      tag_116\n      swap2\n      swap1\n      tag_117\n      jump\t// in\n    tag_116:\n        /* \"contracts/Vitals.sol\":1730:1744  patientAddress */\n      dup7\n        /* \"contracts/Vitals.sol\":1711:1804  PatientRecordAdded(patientAddress, \"Record added\", patientRecords[patientAddress].length - 1) */\n      0xffffffffffffffffffffffffffffffffffffffff\n      and\n      0x0180386e98bb122883df00ffe5d0b35357a9144b8a48977ce529d5f6817036e7\n      mload(0x40)\n      tag_118\n      swap1\n      tag_119\n      jump\t// in\n    tag_118:\n      mload(0x40)\n      dup1\n      swap2\n      sub\n      swap1\n      log3\n        /* \"contracts/Vitals.sol\":1287:1811  function addPatientRecord(... */\n      pop\n      pop\n      pop\n      pop\n      pop\n      pop\n      jump\t// out\n        /* \"contracts/Vitals.sol\":4039:4560  function revokeAccess(address grantedAddress, address patientAddress) public {... */\n    tag_35:\n        /* \"contracts/Vitals.sol\":4148:4162  patientAddress */\n      dup1\n        /* \"contracts/Vitals.sol\":4134:4162  msg.sender == patientAddress */\n      0xffffffffffffffffffffffffffffffffffffffff\n      and\n        /* \"contracts/Vitals.sol\":4134:4144  msg.sender */\n      caller\n        /* \"contracts/Vitals.sol\":4134:4162  msg.sender == patientAddress */\n      0xffffffffffffffffffffffffffffffffffffffff\n      and\n      eq\n        /* \"contracts/Vitals.sol\":4126:4201  require(msg.sender == patientAddress, \"Only the patient can revoke access\") */\n      tag_121\n      jumpi\n      mload(0x40)\n      0x08c379a000000000000000000000000000000000000000000000000000000000\n      dup2\n      mstore\n      0x04\n      add\n      tag_122\n      swap1\n      tag_123\n      jump\t// in\n    tag_122:\n      mload(0x40)\n      dup1\n      swap2\n      sub\n      swap1\n      revert\n    tag_121:\n        /* \"contracts/Vitals.sol\":4212:4240  Access[] storage accessArray */\n      0x00\n        /* \"contracts/Vitals.sol\":4243:4253  accessList */\n      0x04\n        /* \"contracts/Vitals.sol\":4243:4269  accessList[patientAddress] */\n      0x00\n        /* \"contracts/Vitals.sol\":4254:4268  patientAddress */\n      dup4\n        /* \"contracts/Vitals.sol\":4243:4269  accessList[patientAddress] */\n      0xffffffffffffffffffffffffffffffffffffffff\n      and\n      0xffffffffffffffffffffffffffffffffffffffff\n      and\n      dup2\n      mstore\n      0x20\n      add\n      swap1\n      dup2\n      mstore\n      0x20\n      add\n      0x00\n      keccak256\n        /* \"contracts/Vitals.sol\":4212:4269  Access[] storage accessArray = accessList[patientAddress] */\n      swap1\n      pop\n        /* \"contracts/Vitals.sol\":4284:4293  uint256 i */\n      0x00\n        /* \"contracts/Vitals.sol\":4279:4493  for (uint256 i = 0; i < accessArray.length; i++) {... */\n    tag_124:\n        /* \"contracts/Vitals.sol\":4303:4314  accessArray */\n      dup2\n        /* \"contracts/Vitals.sol\":4303:4321  accessArray.length */\n      dup1\n      sload\n      swap1\n      pop\n        /* \"contracts/Vitals.sol\":4299:4300  i */\n      dup2\n        /* \"contracts/Vitals.sol\":4299:4321  i < accessArray.length */\n      lt\n        /* \"contracts/Vitals.sol\":4279:4493  for (uint256 i = 0; i < accessArray.length; i++) {... */\n      iszero\n      tag_125\n      jumpi\n        /* \"contracts/Vitals.sol\":4379:4393  grantedAddress */\n      dup4\n        /* \"contracts/Vitals.sol\":4346:4393  accessArray[i].grantedAddress == grantedAddress */\n      0xffffffffffffffffffffffffffffffffffffffff\n      and\n        /* \"contracts/Vitals.sol\":4346:4357  accessArray */\n      dup3\n        /* \"contracts/Vitals.sol\":4358:4359  i */\n      dup3\n        /* \"contracts/Vitals.sol\":4346:4360  accessArray[i] */\n      dup2\n      sload\n      dup2\n      lt\n      tag_127\n      jumpi\n      tag_128\n      tag_129\n      jump\t// in\n    tag_128:\n    tag_127:\n      swap1\n      0x00\n      mstore\n      keccak256(0x00, 0x20)\n      add\n        /* \"contracts/Vitals.sol\":4346:4375  accessArray[i].grantedAddress */\n      0x00\n      add\n      0x00\n      swap1\n      sload\n      swap1\n      0x0100\n      exp\n      swap1\n      div\n      0xffffffffffffffffffffffffffffffffffffffff\n      and\n        /* \"contracts/Vitals.sol\":4346:4393  accessArray[i].grantedAddress == grantedAddress */\n      0xffffffffffffffffffffffffffffffffffffffff\n      and\n      sub\n        /* \"contracts/Vitals.sol\":4342:4483  if (accessArray[i].grantedAddress == grantedAddress) {... */\n      tag_131\n      jumpi\n        /* \"contracts/Vitals.sol\":4440:4445  false */\n      0x00\n        /* \"contracts/Vitals.sol\":4413:4424  accessArray */\n      dup3\n        /* \"contracts/Vitals.sol\":4425:4426  i */\n      dup3\n        /* \"contracts/Vitals.sol\":4413:4427  accessArray[i] */\n      dup2\n      sload\n      dup2\n      lt\n      tag_132\n      jumpi\n      tag_133\n      tag_129\n      jump\t// in\n    tag_133:\n    tag_132:\n      swap1\n      0x00\n      mstore\n      keccak256(0x00, 0x20)\n      add\n        /* \"contracts/Vitals.sol\":4413:4437  accessArray[i].hasAccess */\n      0x00\n      add\n      0x14\n        /* \"contracts/Vitals.sol\":4413:4445  accessArray[i].hasAccess = false */\n      0x0100\n      exp\n      dup2\n      sload\n      dup2\n      0xff\n      mul\n      not\n      and\n      swap1\n      dup4\n      iszero\n      iszero\n      mul\n      or\n      swap1\n      sstore\n      pop\n        /* \"contracts/Vitals.sol\":4463:4468  break */\n      jump(tag_125)\n        /* \"contracts/Vitals.sol\":4342:4483  if (accessArray[i].grantedAddress == grantedAddress) {... */\n    tag_131:\n        /* \"contracts/Vitals.sol\":4323:4326  i++ */\n      dup1\n      dup1\n      tag_135\n      swap1\n      tag_136\n      jump\t// in\n    tag_135:\n      swap2\n      pop\n      pop\n        /* \"contracts/Vitals.sol\":4279:4493  for (uint256 i = 0; i < accessArray.length; i++) {... */\n      jump(tag_124)\n    tag_125:\n      pop\n        /* \"contracts/Vitals.sol\":4538:4552  grantedAddress */\n      dup3\n        /* \"contracts/Vitals.sol\":4508:4553  AccessRevoked(patientAddress, grantedAddress) */\n      0xffffffffffffffffffffffffffffffffffffffff\n      and\n        /* \"contracts/Vitals.sol\":4522:4536  patientAddress */\n      dup3\n        /* \"contracts/Vitals.sol\":4508:4553  AccessRevoked(patientAddress, grantedAddress) */\n      0xffffffffffffffffffffffffffffffffffffffff\n      and\n      0x825c8be24eb0df19500f63e86c29e7d0d951e73056b889b891d85e40938d9b6e\n      mload(0x40)\n      mload(0x40)\n      dup1\n      swap2\n      sub\n      swap1\n      log3\n        /* \"contracts/Vitals.sol\":4116:4560  {... */\n      pop\n        /* \"contracts/Vitals.sol\":4039:4560  function revokeAccess(address grantedAddress, address patientAddress) public {... */\n      pop\n      pop\n      jump\t// out\n        /* \"contracts/Vitals.sol\":4792:4905  function removePatient(address patientAddress) public onlyAdmin {... */\n    tag_38:\n        /* \"contracts/Vitals.sol\":817:823  admins */\n      0x01\n        /* \"contracts/Vitals.sol\":817:835  admins[msg.sender] */\n      0x00\n        /* \"contracts/Vitals.sol\":824:834  msg.sender */\n      caller\n        /* \"contracts/Vitals.sol\":817:835  admins[msg.sender] */\n      0xffffffffffffffffffffffffffffffffffffffff\n      and\n      0xffffffffffffffffffffffffffffffffffffffff\n      and\n      dup2\n      mstore\n      0x20\n      add\n      swap1\n      dup2\n      mstore\n      0x20\n      add\n      0x00\n      keccak256\n      0x00\n      swap1\n      sload\n      swap1\n      0x0100\n      exp\n      swap1\n      div\n      0xff\n      and\n        /* \"contracts/Vitals.sol\":809:875  require(admins[msg.sender], \"Only admins can perform this action\") */\n      tag_138\n      jumpi\n      mload(0x40)\n      0x08c379a000000000000000000000000000000000000000000000000000000000\n      dup2\n      mstore\n      0x04\n      add\n      tag_139\n      swap1\n      tag_99\n      jump\t// in\n    tag_139:\n      mload(0x40)\n      dup1\n      swap2\n      sub\n      swap1\n      revert\n    tag_138:\n        /* \"contracts/Vitals.sol\":4893:4898  false */\n      0x00\n        /* \"contracts/Vitals.sol\":4866:4874  patients */\n      0x03\n        /* \"contracts/Vitals.sol\":4866:4890  patients[patientAddress] */\n      0x00\n        /* \"contracts/Vitals.sol\":4875:4889  patientAddress */\n      dup4\n        /* \"contracts/Vitals.sol\":4866:4890  patients[patientAddress] */\n      0xffffffffffffffffffffffffffffffffffffffff\n      and\n      0xffffffffffffffffffffffffffffffffffffffff\n      and\n      dup2\n      mstore\n      0x20\n      add\n      swap1\n      dup2\n      mstore\n      0x20\n      add\n      0x00\n      keccak256\n      0x00\n        /* \"contracts/Vitals.sol\":4866:4898  patients[patientAddress] = false */\n      0x0100\n      exp\n      dup2\n      sload\n      dup2\n      0xff\n      mul\n      not\n      and\n      swap1\n      dup4\n      iszero\n      iszero\n      mul\n      or\n      swap1\n      sstore\n      pop\n        /* \"contracts/Vitals.sol\":4792:4905  function removePatient(address patientAddress) public onlyAdmin {... */\n      pop\n      jump\t// out\n        /* \"contracts/Vitals.sol\":4677:4786  function removeDoctor(address doctorAddress) public onlyAdmin {... */\n    tag_41:\n        /* \"contracts/Vitals.sol\":817:823  admins */\n      0x01\n        /* \"contracts/Vitals.sol\":817:835  admins[msg.sender] */\n      0x00\n        /* \"contracts/Vitals.sol\":824:834  msg.sender */\n      caller\n        /* \"contracts/Vitals.sol\":817:835  admins[msg.sender] */\n      0xffffffffffffffffffffffffffffffffffffffff\n      and\n      0xffffffffffffffffffffffffffffffffffffffff\n      and\n      dup2\n      mstore\n      0x20\n      add\n      swap1\n      dup2\n      mstore\n      0x20\n      add\n      0x00\n      keccak256\n      0x00\n      swap1\n      sload\n      swap1\n      0x0100\n      exp\n      swap1\n      div\n      0xff\n      and\n        /* \"contracts/Vitals.sol\":809:875  require(admins[msg.sender], \"Only admins can perform this action\") */\n      tag_142\n      jumpi\n      mload(0x40)\n      0x08c379a000000000000000000000000000000000000000000000000000000000\n      dup2\n      mstore\n      0x04\n      add\n      tag_143\n      swap1\n      tag_99\n      jump\t// in\n    tag_143:\n      mload(0x40)\n      dup1\n      swap2\n      sub\n      swap1\n      revert\n    tag_142:\n        /* \"contracts/Vitals.sol\":4774:4779  false */\n      0x00\n        /* \"contracts/Vitals.sol\":4749:4756  doctors */\n      0x02\n        /* \"contracts/Vitals.sol\":4749:4771  doctors[doctorAddress] */\n      0x00\n        /* \"contracts/Vitals.sol\":4757:4770  doctorAddress */\n      dup4\n        /* \"contracts/Vitals.sol\":4749:4771  doctors[doctorAddress] */\n      0xffffffffffffffffffffffffffffffffffffffff\n      and\n      0xffffffffffffffffffffffffffffffffffffffff\n      and\n      dup2\n      mstore\n      0x20\n      add\n      swap1\n      dup2\n      mstore\n      0x20\n      add\n      0x00\n      keccak256\n      0x00\n        /* \"contracts/Vitals.sol\":4749:4779  doctors[doctorAddress] = false */\n      0x0100\n      exp\n      dup2\n      sload\n      dup2\n      0xff\n      mul\n      not\n      and\n      swap1\n      dup4\n      iszero\n      iszero\n      mul\n      or\n      swap1\n      sstore\n      pop\n        /* \"contracts/Vitals.sol\":4677:4786  function removeDoctor(address doctorAddress) public onlyAdmin {... */\n      pop\n      jump\t// out\n        /* \"contracts/Vitals.sol\":5017:5119  function isDoctor(address account) public view returns (bool) {... */\n    tag_44:\n        /* \"contracts/Vitals.sol\":5073:5077  bool */\n      0x00\n        /* \"contracts/Vitals.sol\":5096:5103  doctors */\n      0x02\n        /* \"contracts/Vitals.sol\":5096:5112  doctors[account] */\n      0x00\n        /* \"contracts/Vitals.sol\":5104:5111  account */\n      dup4\n        /* \"contracts/Vitals.sol\":5096:5112  doctors[account] */\n      0xffffffffffffffffffffffffffffffffffffffff\n      and\n      0xffffffffffffffffffffffffffffffffffffffff\n      and\n      dup2\n      mstore\n      0x20\n      add\n      swap1\n      dup2\n      mstore\n      0x20\n      add\n      0x00\n      keccak256\n      0x00\n      swap1\n      sload\n      swap1\n      0x0100\n      exp\n      swap1\n      div\n      0xff\n      and\n        /* \"contracts/Vitals.sol\":5089:5112  return doctors[account] */\n      swap1\n      pop\n        /* \"contracts/Vitals.sol\":5017:5119  function isDoctor(address account) public view returns (bool) {... */\n      swap2\n      swap1\n      pop\n      jump\t// out\n        /* \"contracts/Vitals.sol\":1817:2934  function updatePatientRecord(... */\n    tag_49:\n        /* \"contracts/Vitals.sol\":2122:2136  patientAddress */\n      dup6\n        /* \"contracts/Vitals.sol\":642:649  doctors */\n      0x02\n        /* \"contracts/Vitals.sol\":642:661  doctors[msg.sender] */\n      0x00\n        /* \"contracts/Vitals.sol\":650:660  msg.sender */\n      caller\n        /* \"contracts/Vitals.sol\":642:661  doctors[msg.sender] */\n      0xffffffffffffffffffffffffffffffffffffffff\n      and\n      0xffffffffffffffffffffffffffffffffffffffff\n      and\n      dup2\n      mstore\n      0x20\n      add\n      swap1\n      dup2\n      mstore\n      0x20\n      add\n      0x00\n      keccak256\n      0x00\n      swap1\n      sload\n      swap1\n      0x0100\n      exp\n      swap1\n      div\n      0xff\n      and\n        /* \"contracts/Vitals.sol\":642:702  doctors[msg.sender] && hasAccess(msg.sender, patientAddress) */\n      dup1\n      iszero\n      tag_147\n      jumpi\n      pop\n        /* \"contracts/Vitals.sol\":665:702  hasAccess(msg.sender, patientAddress) */\n      tag_148\n        /* \"contracts/Vitals.sol\":675:685  msg.sender */\n      caller\n        /* \"contracts/Vitals.sol\":687:701  patientAddress */\n      dup3\n        /* \"contracts/Vitals.sol\":665:674  hasAccess */\n      tag_104\n        /* \"contracts/Vitals.sol\":665:702  hasAccess(msg.sender, patientAddress) */\n      jump\t// in\n    tag_148:\n        /* \"contracts/Vitals.sol\":642:702  doctors[msg.sender] && hasAccess(msg.sender, patientAddress) */\n    tag_147:\n        /* \"contracts/Vitals.sol\":634:754  require(doctors[msg.sender] && hasAccess(msg.sender, patientAddress), \"Only authorized doctors can perform this action\") */\n      tag_149\n      jumpi\n      mload(0x40)\n      0x08c379a000000000000000000000000000000000000000000000000000000000\n      dup2\n      mstore\n      0x04\n      add\n      tag_150\n      swap1\n      tag_107\n      jump\t// in\n    tag_150:\n      mload(0x40)\n      dup1\n      swap2\n      sub\n      swap1\n      revert\n    tag_149:\n        /* \"contracts/Vitals.sol\":2170:2184  patientRecords */\n      0x00\n        /* \"contracts/Vitals.sol\":2170:2200  patientRecords[patientAddress] */\n      dup1\n        /* \"contracts/Vitals.sol\":2185:2199  patientAddress */\n      dup9\n        /* \"contracts/Vitals.sol\":2170:2200  patientRecords[patientAddress] */\n      0xffffffffffffffffffffffffffffffffffffffff\n      and\n      0xffffffffffffffffffffffffffffffffffffffff\n      and\n      dup2\n      mstore\n      0x20\n      add\n      swap1\n      dup2\n      mstore\n      0x20\n      add\n      0x00\n      keccak256\n        /* \"contracts/Vitals.sol\":2170:2207  patientRecords[patientAddress].length */\n      dup1\n      sload\n      swap1\n      pop\n        /* \"contracts/Vitals.sol\":2156:2167  recordIndex */\n      dup7\n        /* \"contracts/Vitals.sol\":2156:2207  recordIndex < patientRecords[patientAddress].length */\n      lt\n        /* \"contracts/Vitals.sol\":2148:2232  require(recordIndex < patientRecords[patientAddress].length, \"Invalid record index\") */\n      tag_152\n      jumpi\n      mload(0x40)\n      0x08c379a000000000000000000000000000000000000000000000000000000000\n      dup2\n      mstore\n      0x04\n      add\n      tag_153\n      swap1\n      tag_154\n      jump\t// in\n    tag_153:\n      mload(0x40)\n      dup1\n      swap2\n      sub\n      swap1\n      revert\n    tag_152:\n        /* \"contracts/Vitals.sol\":2243:2271  Record storage patientRecord */\n      0x00\n        /* \"contracts/Vitals.sol\":2274:2288  patientRecords */\n      dup1\n        /* \"contracts/Vitals.sol\":2274:2304  patientRecords[patientAddress] */\n      0x00\n        /* \"contracts/Vitals.sol\":2289:2303  patientAddress */\n      dup10\n        /* \"contracts/Vitals.sol\":2274:2304  patientRecords[patientAddress] */\n      0xffffffffffffffffffffffffffffffffffffffff\n      and\n      0xffffffffffffffffffffffffffffffffffffffff\n      and\n      dup2\n      mstore\n      0x20\n      add\n      swap1\n      dup2\n      mstore\n      0x20\n      add\n      0x00\n      keccak256\n        /* \"contracts/Vitals.sol\":2305:2316  recordIndex */\n      dup8\n        /* \"contracts/Vitals.sol\":2274:2317  patientRecords[patientAddress][recordIndex] */\n      dup2\n      sload\n      dup2\n      lt\n      tag_155\n      jumpi\n      tag_156\n      tag_129\n      jump\t// in\n    tag_156:\n    tag_155:\n      swap1\n      0x00\n      mstore\n      keccak256(0x00, 0x20)\n      swap1\n      0x10\n      mul\n      add\n        /* \"contracts/Vitals.sol\":2243:2317  Record storage patientRecord = patientRecords[patientAddress][recordIndex] */\n      swap1\n      pop\n        /* \"contracts/Vitals.sol\":2394:2395  7 */\n      0x07\n        /* \"contracts/Vitals.sol\":2366:2390  updatedVitalSigns.length */\n      dup1\n        /* \"contracts/Vitals.sol\":2366:2395  updatedVitalSigns.length == 7 */\n      eq\n        /* \"contracts/Vitals.sol\":2358:2429  require(updatedVitalSigns.length == 7, \"Invalid number of vital signs\") */\n      tag_158\n      jumpi\n      mload(0x40)\n      0x08c379a000000000000000000000000000000000000000000000000000000000\n      dup2\n      mstore\n      0x04\n      add\n      tag_159\n      swap1\n      tag_160\n      jump\t// in\n    tag_159:\n      mload(0x40)\n      dup1\n      swap2\n      sub\n      swap1\n      revert\n    tag_158:\n        /* \"contracts/Vitals.sol\":2466:2483  updatedVitalSigns */\n      dup6\n        /* \"contracts/Vitals.sol\":2439:2452  patientRecord */\n      dup2\n        /* \"contracts/Vitals.sol\":2439:2463  patientRecord.vitalSigns */\n      0x00\n      add\n        /* \"contracts/Vitals.sol\":2439:2483  patientRecord.vitalSigns = updatedVitalSigns */\n      swap1\n      0x07\n      tag_161\n      swap3\n      swap2\n      swap1\n      tag_111\n      jump\t// in\n    tag_161:\n      pop\n        /* \"contracts/Vitals.sol\":2572:2573  3 */\n      0x03\n        /* \"contracts/Vitals.sol\":2538:2568  updatedTreatmentDetails.length */\n      dup1\n        /* \"contracts/Vitals.sol\":2538:2573  updatedTreatmentDetails.length == 3 */\n      eq\n        /* \"contracts/Vitals.sol\":2530:2613  require(updatedTreatmentDetails.length == 3, \"Invalid number of treatment details\") */\n      tag_162\n      jumpi\n      mload(0x40)\n      0x08c379a000000000000000000000000000000000000000000000000000000000\n      dup2\n      mstore\n      0x04\n      add\n      tag_163\n      swap1\n      tag_164\n      jump\t// in\n    tag_163:\n      mload(0x40)\n      dup1\n      swap2\n      sub\n      swap1\n      revert\n    tag_162:\n        /* \"contracts/Vitals.sol\":2656:2679  updatedTreatmentDetails */\n      dup5\n        /* \"contracts/Vitals.sol\":2623:2636  patientRecord */\n      dup2\n        /* \"contracts/Vitals.sol\":2623:2653  patientRecord.treatmentDetails */\n      0x07\n      add\n        /* \"contracts/Vitals.sol\":2623:2679  patientRecord.treatmentDetails = updatedTreatmentDetails */\n      swap1\n      0x03\n      tag_165\n      swap3\n      swap2\n      swap1\n      tag_113\n      jump\t// in\n    tag_165:\n      pop\n        /* \"contracts/Vitals.sol\":2740:2754  updatedVaccine */\n      dup4\n        /* \"contracts/Vitals.sol\":2716:2729  patientRecord */\n      dup2\n        /* \"contracts/Vitals.sol\":2716:2737  patientRecord.vaccine */\n      0x0a\n      add\n        /* \"contracts/Vitals.sol\":2716:2754  patientRecord.vaccine = updatedVaccine */\n      swap1\n      0x03\n      tag_166\n      swap3\n      swap2\n      swap1\n      tag_113\n      jump\t// in\n    tag_166:\n      pop\n        /* \"contracts/Vitals.sol\":2825:2844  updatedPrescription */\n      dup3\n        /* \"contracts/Vitals.sol\":2796:2809  patientRecord */\n      dup2\n        /* \"contracts/Vitals.sol\":2796:2822  patientRecord.prescription */\n      0x0d\n      add\n        /* \"contracts/Vitals.sol\":2796:2844  patientRecord.prescription = updatedPrescription */\n      swap1\n      0x03\n      tag_167\n      swap3\n      swap2\n      swap1\n      tag_113\n      jump\t// in\n    tag_167:\n      pop\n        /* \"contracts/Vitals.sol\":2915:2926  recordIndex */\n      dup7\n        /* \"contracts/Vitals.sol\":2881:2895  patientAddress */\n      dup9\n        /* \"contracts/Vitals.sol\":2860:2927  PatientRecordUpdated(patientAddress, \"Record updated\", recordIndex) */\n      0xffffffffffffffffffffffffffffffffffffffff\n      and\n      0x8074b9f2e259489a64e94a47ace8e1817ef88917e8bb45b720ad9cd4c13adcf2\n      mload(0x40)\n      tag_168\n      swap1\n      tag_169\n      jump\t// in\n    tag_168:\n      mload(0x40)\n      dup1\n      swap2\n      sub\n      swap1\n      log3\n        /* \"contracts/Vitals.sol\":2138:2934  {... */\n      pop\n        /* \"contracts/Vitals.sol\":1817:2934  function updatePatientRecord(... */\n      pop\n      pop\n      pop\n      pop\n      pop\n      pop\n      pop\n      jump\t// out\n        /* \"contracts/Vitals.sol\":3646:4033  function grantAccess(address grantedAddress, address patientAddress) public {... */\n    tag_52:\n        /* \"contracts/Vitals.sol\":3754:3768  patientAddress */\n      dup1\n        /* \"contracts/Vitals.sol\":3740:3768  msg.sender == patientAddress */\n      0xffffffffffffffffffffffffffffffffffffffff\n      and\n        /* \"contracts/Vitals.sol\":3740:3750  msg.sender */\n      caller\n        /* \"contracts/Vitals.sol\":3740:3768  msg.sender == patientAddress */\n      0xffffffffffffffffffffffffffffffffffffffff\n      and\n      eq\n        /* \"contracts/Vitals.sol\":3732:3806  require(msg.sender == patientAddress, \"Only the patient can grant access\") */\n      tag_171\n      jumpi\n      mload(0x40)\n      0x08c379a000000000000000000000000000000000000000000000000000000000\n      dup2\n      mstore\n      0x04\n      add\n      tag_172\n      swap1\n      tag_173\n      jump\t// in\n    tag_172:\n      mload(0x40)\n      dup1\n      swap2\n      sub\n      swap1\n      revert\n    tag_171:\n        /* \"contracts/Vitals.sol\":3844:3848  true */\n      0x01\n        /* \"contracts/Vitals.sol\":3817:3825  patients */\n      0x03\n        /* \"contracts/Vitals.sol\":3817:3841  patients[patientAddress] */\n      0x00\n        /* \"contracts/Vitals.sol\":3826:3840  patientAddress */\n      dup4\n        /* \"contracts/Vitals.sol\":3817:3841  patients[patientAddress] */\n      0xffffffffffffffffffffffffffffffffffffffff\n      and\n      0xffffffffffffffffffffffffffffffffffffffff\n      and\n      dup2\n      mstore\n      0x20\n      add\n      swap1\n      dup2\n      mstore\n      0x20\n      add\n      0x00\n      keccak256\n      0x00\n        /* \"contracts/Vitals.sol\":3817:3848  patients[patientAddress] = true */\n      0x0100\n      exp\n      dup2\n      sload\n      dup2\n      0xff\n      mul\n      not\n      and\n      swap1\n      dup4\n      iszero\n      iszero\n      mul\n      or\n      swap1\n      sstore\n      pop\n        /* \"contracts/Vitals.sol\":3859:3882  Access memory newAccess */\n      0x00\n        /* \"contracts/Vitals.sol\":3885:3913  Access(grantedAddress, true) */\n      mload(0x40)\n      dup1\n      0x40\n      add\n      0x40\n      mstore\n      dup1\n        /* \"contracts/Vitals.sol\":3892:3906  grantedAddress */\n      dup5\n        /* \"contracts/Vitals.sol\":3885:3913  Access(grantedAddress, true) */\n      0xffffffffffffffffffffffffffffffffffffffff\n      and\n      dup2\n      mstore\n      0x20\n      add\n        /* \"contracts/Vitals.sol\":3908:3912  true */\n      0x01\n        /* \"contracts/Vitals.sol\":3885:3913  Access(grantedAddress, true) */\n      iszero\n      iszero\n      dup2\n      mstore\n      pop\n        /* \"contracts/Vitals.sol\":3859:3913  Access memory newAccess = Access(grantedAddress, true) */\n      swap1\n      pop\n        /* \"contracts/Vitals.sol\":3923:3933  accessList */\n      0x04\n        /* \"contracts/Vitals.sol\":3923:3949  accessList[patientAddress] */\n      0x00\n        /* \"contracts/Vitals.sol\":3934:3948  patientAddress */\n      dup4\n        /* \"contracts/Vitals.sol\":3923:3949  accessList[patientAddress] */\n      0xffffffffffffffffffffffffffffffffffffffff\n      and\n      0xffffffffffffffffffffffffffffffffffffffff\n      and\n      dup2\n      mstore\n      0x20\n      add\n      swap1\n      dup2\n      mstore\n      0x20\n      add\n      0x00\n      keccak256\n        /* \"contracts/Vitals.sol\":3955:3964  newAccess */\n      dup2\n        /* \"contracts/Vitals.sol\":3923:3965  accessList[patientAddress].push(newAccess) */\n      swap1\n      dup1\n      0x01\n      dup2\n      sload\n      add\n      dup1\n      dup3\n      sstore\n      dup1\n      swap2\n      pop\n      pop\n      0x01\n      swap1\n      sub\n      swap1\n      0x00\n      mstore\n      keccak256(0x00, 0x20)\n      add\n      0x00\n      swap1\n      swap2\n      swap1\n      swap2\n      swap1\n      swap2\n      pop\n      0x00\n      dup3\n      add\n      mload\n      dup2\n      0x00\n      add\n      exp(0x0100, 0x00)\n      dup2\n      sload\n      dup2\n      0xffffffffffffffffffffffffffffffffffffffff\n      mul\n      not\n      and\n      swap1\n      dup4\n      0xffffffffffffffffffffffffffffffffffffffff\n      and\n      mul\n      or\n      swap1\n      sstore\n      pop\n      0x20\n      dup3\n      add\n      mload\n      dup2\n      0x00\n      add\n      exp(0x0100, 0x14)\n      dup2\n      sload\n      dup2\n      0xff\n      mul\n      not\n      and\n      swap1\n      dup4\n      iszero\n      iszero\n      mul\n      or\n      swap1\n      sstore\n      pop\n      pop\n      pop\n        /* \"contracts/Vitals.sol\":4011:4025  grantedAddress */\n      dup3\n        /* \"contracts/Vitals.sol\":3981:4026  AccessGranted(patientAddress, grantedAddress) */\n      0xffffffffffffffffffffffffffffffffffffffff\n      and\n        /* \"contracts/Vitals.sol\":3995:4009  patientAddress */\n      dup3\n        /* \"contracts/Vitals.sol\":3981:4026  AccessGranted(patientAddress, grantedAddress) */\n      0xffffffffffffffffffffffffffffffffffffffff\n      and\n      0x9f520b3bfc56d06f7065d10b4683b3f57ac8895d5026cd176dee95ce1454cb8d\n      mload(0x40)\n      mload(0x40)\n      dup1\n      swap2\n      sub\n      swap1\n      log3\n        /* \"contracts/Vitals.sol\":3722:4033  {... */\n      pop\n        /* \"contracts/Vitals.sol\":3646:4033  function grantAccess(address grantedAddress, address patientAddress) public {... */\n      pop\n      pop\n      jump\t// out\n        /* \"contracts/Vitals.sol\":3244:3640  function hasAccess(address doctorAddress, address patientAddress) private view returns (bool) {... */\n    tag_104:\n        /* \"contracts/Vitals.sol\":3332:3336  bool */\n      0x00\n        /* \"contracts/Vitals.sol\":3348:3376  Access[] storage accessArray */\n      dup1\n        /* \"contracts/Vitals.sol\":3379:3389  accessList */\n      0x04\n        /* \"contracts/Vitals.sol\":3379:3405  accessList[patientAddress] */\n      0x00\n        /* \"contracts/Vitals.sol\":3390:3404  patientAddress */\n      dup5\n        /* \"contracts/Vitals.sol\":3379:3405  accessList[patientAddress] */\n      0xffffffffffffffffffffffffffffffffffffffff\n      and\n      0xffffffffffffffffffffffffffffffffffffffff\n      and\n      dup2\n      mstore\n      0x20\n      add\n      swap1\n      dup2\n      mstore\n      0x20\n      add\n      0x00\n      keccak256\n        /* \"contracts/Vitals.sol\":3348:3405  Access[] storage accessArray = accessList[patientAddress] */\n      swap1\n      pop\n        /* \"contracts/Vitals.sol\":3420:3429  uint256 i */\n      0x00\n        /* \"contracts/Vitals.sol\":3415:3612  for (uint256 i = 0; i < accessArray.length; i++) {... */\n    tag_176:\n        /* \"contracts/Vitals.sol\":3439:3450  accessArray */\n      dup2\n        /* \"contracts/Vitals.sol\":3439:3457  accessArray.length */\n      dup1\n      sload\n      swap1\n      pop\n        /* \"contracts/Vitals.sol\":3435:3436  i */\n      dup2\n        /* \"contracts/Vitals.sol\":3435:3457  i < accessArray.length */\n      lt\n        /* \"contracts/Vitals.sol\":3415:3612  for (uint256 i = 0; i < accessArray.length; i++) {... */\n      iszero\n      tag_177\n      jumpi\n        /* \"contracts/Vitals.sol\":3515:3528  doctorAddress */\n      dup5\n        /* \"contracts/Vitals.sol\":3482:3528  accessArray[i].grantedAddress == doctorAddress */\n      0xffffffffffffffffffffffffffffffffffffffff\n      and\n        /* \"contracts/Vitals.sol\":3482:3493  accessArray */\n      dup3\n        /* \"contracts/Vitals.sol\":3494:3495  i */\n      dup3\n        /* \"contracts/Vitals.sol\":3482:3496  accessArray[i] */\n      dup2\n      sload\n      dup2\n      lt\n      tag_179\n      jumpi\n      tag_180\n      tag_129\n      jump\t// in\n    tag_180:\n    tag_179:\n      swap1\n      0x00\n      mstore\n      keccak256(0x00, 0x20)\n      add\n        /* \"contracts/Vitals.sol\":3482:3511  accessArray[i].grantedAddress */\n      0x00\n      add\n      0x00\n      swap1\n      sload\n      swap1\n      0x0100\n      exp\n      swap1\n      div\n      0xffffffffffffffffffffffffffffffffffffffff\n      and\n        /* \"contracts/Vitals.sol\":3482:3528  accessArray[i].grantedAddress == doctorAddress */\n      0xffffffffffffffffffffffffffffffffffffffff\n      and\n      eq\n        /* \"contracts/Vitals.sol\":3482:3556  accessArray[i].grantedAddress == doctorAddress && accessArray[i].hasAccess */\n      dup1\n      iszero\n      tag_182\n      jumpi\n      pop\n        /* \"contracts/Vitals.sol\":3532:3543  accessArray */\n      dup2\n        /* \"contracts/Vitals.sol\":3544:3545  i */\n      dup2\n        /* \"contracts/Vitals.sol\":3532:3546  accessArray[i] */\n      dup2\n      sload\n      dup2\n      lt\n      tag_183\n      jumpi\n      tag_184\n      tag_129\n      jump\t// in\n    tag_184:\n    tag_183:\n      swap1\n      0x00\n      mstore\n      keccak256(0x00, 0x20)\n      add\n        /* \"contracts/Vitals.sol\":3532:3556  accessArray[i].hasAccess */\n      0x00\n      add\n      0x14\n      swap1\n      sload\n      swap1\n      0x0100\n      exp\n      swap1\n      div\n      0xff\n      and\n        /* \"contracts/Vitals.sol\":3482:3556  accessArray[i].grantedAddress == doctorAddress && accessArray[i].hasAccess */\n    tag_182:\n        /* \"contracts/Vitals.sol\":3478:3602  if (accessArray[i].grantedAddress == doctorAddress && accessArray[i].hasAccess) {... */\n      iszero\n      tag_186\n      jumpi\n        /* \"contracts/Vitals.sol\":3583:3587  true */\n      0x01\n        /* \"contracts/Vitals.sol\":3576:3587  return true */\n      swap3\n      pop\n      pop\n      pop\n      jump(tag_175)\n        /* \"contracts/Vitals.sol\":3478:3602  if (accessArray[i].grantedAddress == doctorAddress && accessArray[i].hasAccess) {... */\n    tag_186:\n        /* \"contracts/Vitals.sol\":3459:3462  i++ */\n      dup1\n      dup1\n      tag_187\n      swap1\n      tag_136\n      jump\t// in\n    tag_187:\n      swap2\n      pop\n      pop\n        /* \"contracts/Vitals.sol\":3415:3612  for (uint256 i = 0; i < accessArray.length; i++) {... */\n      jump(tag_176)\n    tag_177:\n      pop\n        /* \"contracts/Vitals.sol\":3628:3633  false */\n      0x00\n        /* \"contracts/Vitals.sol\":3621:3633  return false */\n      swap2\n      pop\n      pop\n        /* \"contracts/Vitals.sol\":3244:3640  function hasAccess(address doctorAddress, address patientAddress) private view returns (bool) {... */\n    tag_175:\n      swap3\n      swap2\n      pop\n      pop\n      jump\t// out\n    tag_111:\n      dup3\n      0x07\n      dup2\n      add\n      swap3\n      dup3\n      iszero\n      tag_188\n      jumpi\n      swap2\n      0x20\n      mul\n      dup3\n      add\n    tag_189:\n      dup3\n      dup2\n      gt\n      iszero\n      tag_190\n      jumpi\n      dup3\n      mload\n      dup3\n      swap1\n      dup2\n      tag_191\n      swap2\n      swap1\n      tag_192\n      jump\t// in\n    tag_191:\n      pop\n      swap2\n      0x20\n      add\n      swap2\n      swap1\n      0x01\n      add\n      swap1\n      jump(tag_189)\n    tag_190:\n    tag_188:\n      pop\n      swap1\n      pop\n      tag_193\n      swap2\n      swap1\n      tag_194\n      jump\t// in\n    tag_193:\n      pop\n      swap1\n      jump\t// out\n    tag_113:\n      dup3\n      0x03\n      dup2\n      add\n      swap3\n      dup3\n      iszero\n      tag_195\n      jumpi\n      swap2\n      0x20\n      mul\n      dup3\n      add\n    tag_196:\n      dup3\n      dup2\n      gt\n      iszero\n      tag_197\n      jumpi\n      dup3\n      mload\n      dup3\n      swap1\n      dup2\n      tag_198\n      swap2\n      swap1\n      tag_192\n      jump\t// in\n    tag_198:\n      pop\n      swap2\n      0x20\n      add\n      swap2\n      swap1\n      0x01\n      add\n      swap1\n      jump(tag_196)\n    tag_197:\n    tag_195:\n      pop\n      swap1\n      pop\n      tag_199\n      swap2\n      swap1\n      tag_194\n      jump\t// in\n    tag_199:\n      pop\n      swap1\n      jump\t// out\n    tag_194:\n    tag_200:\n      dup1\n      dup3\n      gt\n      iszero\n      tag_201\n      jumpi\n      0x00\n      dup2\n      dup2\n      tag_202\n      swap2\n      swap1\n      tag_203\n      jump\t// in\n    tag_202:\n      pop\n      0x01\n      add\n      jump(tag_200)\n    tag_201:\n      pop\n      swap1\n      jump\t// out\n    tag_203:\n      pop\n      dup1\n      sload\n      tag_204\n      swap1\n      tag_66\n      jump\t// in\n    tag_204:\n      0x00\n      dup3\n      sstore\n      dup1\n      0x1f\n      lt\n      tag_206\n      jumpi\n      pop\n      jump(tag_205)\n    tag_206:\n      0x1f\n      add\n      0x20\n      swap1\n      div\n      swap1\n      0x00\n      mstore\n      keccak256(0x00, 0x20)\n      swap1\n      dup2\n      add\n      swap1\n      tag_207\n      swap2\n      swap1\n      tag_208\n      jump\t// in\n    tag_207:\n    tag_205:\n      pop\n      jump\t// out\n    tag_208:\n    tag_209:\n      dup1\n      dup3\n      gt\n      iszero\n      tag_210\n      jumpi\n      0x00\n      dup2\n      0x00\n      swap1\n      sstore\n      pop\n      0x01\n      add\n      jump(tag_209)\n    tag_210:\n      pop\n      swap1\n      jump\t// out\n        /* \"#utility.yul\":7:82   */\n    tag_211:\n        /* \"#utility.yul\":40:46   */\n      0x00\n        /* \"#utility.yul\":73:75   */\n      0x40\n        /* \"#utility.yul\":67:76   */\n      mload\n        /* \"#utility.yul\":57:76   */\n      swap1\n      pop\n        /* \"#utility.yul\":7:82   */\n      swap1\n      jump\t// out\n        /* \"#utility.yul\":88:205   */\n    tag_212:\n        /* \"#utility.yul\":197:198   */\n      0x00\n        /* \"#utility.yul\":194:195   */\n      dup1\n        /* \"#utility.yul\":187:199   */\n      revert\n        /* \"#utility.yul\":211:328   */\n    tag_213:\n        /* \"#utility.yul\":320:321   */\n      0x00\n        /* \"#utility.yul\":317:318   */\n      dup1\n        /* \"#utility.yul\":310:322   */\n      revert\n        /* \"#utility.yul\":334:460   */\n    tag_214:\n        /* \"#utility.yul\":371:378   */\n      0x00\n        /* \"#utility.yul\":411:453   */\n      0xffffffffffffffffffffffffffffffffffffffff\n        /* \"#utility.yul\":404:409   */\n      dup3\n        /* \"#utility.yul\":400:454   */\n      and\n        /* \"#utility.yul\":389:454   */\n      swap1\n      pop\n        /* \"#utility.yul\":334:460   */\n      swap2\n      swap1\n      pop\n      jump\t// out\n        /* \"#utility.yul\":466:562   */\n    tag_215:\n        /* \"#utility.yul\":503:510   */\n      0x00\n        /* \"#utility.yul\":532:556   */\n      tag_306\n        /* \"#utility.yul\":550:555   */\n      dup3\n        /* \"#utility.yul\":532:556   */\n      tag_214\n      jump\t// in\n    tag_306:\n        /* \"#utility.yul\":521:556   */\n      swap1\n      pop\n        /* \"#utility.yul\":466:562   */\n      swap2\n      swap1\n      pop\n      jump\t// out\n        /* \"#utility.yul\":568:690   */\n    tag_216:\n        /* \"#utility.yul\":641:665   */\n      tag_308\n        /* \"#utility.yul\":659:664   */\n      dup2\n        /* \"#utility.yul\":641:665   */\n      tag_215\n      jump\t// in\n    tag_308:\n        /* \"#utility.yul\":634:639   */\n      dup2\n        /* \"#utility.yul\":631:666   */\n      eq\n        /* \"#utility.yul\":621:684   */\n      tag_309\n      jumpi\n        /* \"#utility.yul\":680:681   */\n      0x00\n        /* \"#utility.yul\":677:678   */\n      dup1\n        /* \"#utility.yul\":670:682   */\n      revert\n        /* \"#utility.yul\":621:684   */\n    tag_309:\n        /* \"#utility.yul\":568:690   */\n      pop\n      jump\t// out\n        /* \"#utility.yul\":696:835   */\n    tag_217:\n        /* \"#utility.yul\":742:747   */\n      0x00\n        /* \"#utility.yul\":780:786   */\n      dup2\n        /* \"#utility.yul\":767:787   */\n      calldataload\n        /* \"#utility.yul\":758:787   */\n      swap1\n      pop\n        /* \"#utility.yul\":796:829   */\n      tag_311\n        /* \"#utility.yul\":823:828   */\n      dup2\n        /* \"#utility.yul\":796:829   */\n      tag_216\n      jump\t// in\n    tag_311:\n        /* \"#utility.yul\":696:835   */\n      swap3\n      swap2\n      pop\n      pop\n      jump\t// out\n        /* \"#utility.yul\":841:1170   */\n    tag_16:\n        /* \"#utility.yul\":900:906   */\n      0x00\n        /* \"#utility.yul\":949:951   */\n      0x20\n        /* \"#utility.yul\":937:946   */\n      dup3\n        /* \"#utility.yul\":928:935   */\n      dup5\n        /* \"#utility.yul\":924:947   */\n      sub\n        /* \"#utility.yul\":920:952   */\n      slt\n        /* \"#utility.yul\":917:1036   */\n      iszero\n      tag_313\n      jumpi\n        /* \"#utility.yul\":955:1034   */\n      tag_314\n      tag_212\n      jump\t// in\n    tag_314:\n        /* \"#utility.yul\":917:1036   */\n    tag_313:\n        /* \"#utility.yul\":1075:1076   */\n      0x00\n        /* \"#utility.yul\":1100:1153   */\n      tag_315\n        /* \"#utility.yul\":1145:1152   */\n      dup5\n        /* \"#utility.yul\":1136:1142   */\n      dup3\n        /* \"#utility.yul\":1125:1134   */\n      dup6\n        /* \"#utility.yul\":1121:1143   */\n      add\n        /* \"#utility.yul\":1100:1153   */\n      tag_217\n      jump\t// in\n    tag_315:\n        /* \"#utility.yul\":1090:1153   */\n      swap2\n      pop\n        /* \"#utility.yul\":1046:1163   */\n      pop\n        /* \"#utility.yul\":841:1170   */\n      swap3\n      swap2\n      pop\n      pop\n      jump\t// out\n        /* \"#utility.yul\":1176:1312   */\n    tag_218:\n        /* \"#utility.yul\":1265:1271   */\n      0x00\n        /* \"#utility.yul\":1299:1304   */\n      dup2\n        /* \"#utility.yul\":1293:1305   */\n      mload\n        /* \"#utility.yul\":1283:1305   */\n      swap1\n      pop\n        /* \"#utility.yul\":1176:1312   */\n      swap2\n      swap1\n      pop\n      jump\t// out\n        /* \"#utility.yul\":1318:1524   */\n    tag_219:\n        /* \"#utility.yul\":1439:1450   */\n      0x00\n        /* \"#utility.yul\":1473:1479   */\n      dup3\n        /* \"#utility.yul\":1468:1471   */\n      dup3\n        /* \"#utility.yul\":1461:1480   */\n      mstore\n        /* \"#utility.yul\":1513:1517   */\n      0x20\n        /* \"#utility.yul\":1508:1511   */\n      dup3\n        /* \"#utility.yul\":1504:1518   */\n      add\n        /* \"#utility.yul\":1489:1518   */\n      swap1\n      pop\n        /* \"#utility.yul\":1318:1524   */\n      swap3\n      swap2\n      pop\n      pop\n      jump\t// out\n        /* \"#utility.yul\":1530:1684   */\n    tag_220:\n        /* \"#utility.yul\":1619:1623   */\n      0x00\n        /* \"#utility.yul\":1642:1645   */\n      dup2\n        /* \"#utility.yul\":1634:1645   */\n      swap1\n      pop\n        /* \"#utility.yul\":1672:1676   */\n      0x20\n        /* \"#utility.yul\":1667:1670   */\n      dup3\n        /* \"#utility.yul\":1663:1677   */\n      add\n        /* \"#utility.yul\":1655:1677   */\n      swap1\n      pop\n        /* \"#utility.yul\":1530:1684   */\n      swap2\n      swap1\n      pop\n      jump\t// out\n        /* \"#utility.yul\":1690:1804   */\n    tag_221:\n        /* \"#utility.yul\":1765:1771   */\n      0x00\n        /* \"#utility.yul\":1793:1797   */\n      0x07\n        /* \"#utility.yul\":1783:1797   */\n      swap1\n      pop\n        /* \"#utility.yul\":1690:1804   */\n      swap2\n      swap1\n      pop\n      jump\t// out\n        /* \"#utility.yul\":1810:1953   */\n    tag_222:\n        /* \"#utility.yul\":1907:1918   */\n      0x00\n        /* \"#utility.yul\":1944:1947   */\n      dup2\n        /* \"#utility.yul\":1929:1947   */\n      swap1\n      pop\n        /* \"#utility.yul\":1810:1953   */\n      swap3\n      swap2\n      pop\n      pop\n      jump\t// out\n        /* \"#utility.yul\":1959:2067   */\n    tag_223:\n        /* \"#utility.yul\":2034:2038   */\n      0x00\n        /* \"#utility.yul\":2057:2060   */\n      dup2\n        /* \"#utility.yul\":2049:2060   */\n      swap1\n      pop\n        /* \"#utility.yul\":1959:2067   */\n      swap2\n      swap1\n      pop\n      jump\t// out\n        /* \"#utility.yul\":2073:2172   */\n    tag_224:\n        /* \"#utility.yul\":2125:2131   */\n      0x00\n        /* \"#utility.yul\":2159:2164   */\n      dup2\n        /* \"#utility.yul\":2153:2165   */\n      mload\n        /* \"#utility.yul\":2143:2165   */\n      swap1\n      pop\n        /* \"#utility.yul\":2073:2172   */\n      swap2\n      swap1\n      pop\n      jump\t// out\n        /* \"#utility.yul\":2178:2337   */\n    tag_225:\n        /* \"#utility.yul\":2252:2263   */\n      0x00\n        /* \"#utility.yul\":2286:2292   */\n      dup3\n        /* \"#utility.yul\":2281:2284   */\n      dup3\n        /* \"#utility.yul\":2274:2293   */\n      mstore\n        /* \"#utility.yul\":2326:2330   */\n      0x20\n        /* \"#utility.yul\":2321:2324   */\n      dup3\n        /* \"#utility.yul\":2317:2331   */\n      add\n        /* \"#utility.yul\":2302:2331   */\n      swap1\n      pop\n        /* \"#utility.yul\":2178:2337   */\n      swap3\n      swap2\n      pop\n      pop\n      jump\t// out\n        /* \"#utility.yul\":2343:2589   */\n    tag_226:\n        /* \"#utility.yul\":2424:2425   */\n      0x00\n        /* \"#utility.yul\":2434:2547   */\n    tag_325:\n        /* \"#utility.yul\":2448:2454   */\n      dup4\n        /* \"#utility.yul\":2445:2446   */\n      dup2\n        /* \"#utility.yul\":2442:2455   */\n      lt\n        /* \"#utility.yul\":2434:2547   */\n      iszero\n      tag_327\n      jumpi\n        /* \"#utility.yul\":2533:2534   */\n      dup1\n        /* \"#utility.yul\":2528:2531   */\n      dup3\n        /* \"#utility.yul\":2524:2535   */\n      add\n        /* \"#utility.yul\":2518:2536   */\n      mload\n        /* \"#utility.yul\":2514:2515   */\n      dup2\n        /* \"#utility.yul\":2509:2512   */\n      dup5\n        /* \"#utility.yul\":2505:2516   */\n      add\n        /* \"#utility.yul\":2498:2537   */\n      mstore\n        /* \"#utility.yul\":2470:2472   */\n      0x20\n        /* \"#utility.yul\":2467:2468   */\n      dup2\n        /* \"#utility.yul\":2463:2473   */\n      add\n        /* \"#utility.yul\":2458:2473   */\n      swap1\n      pop\n        /* \"#utility.yul\":2434:2547   */\n      jump(tag_325)\n    tag_327:\n        /* \"#utility.yul\":2581:2582   */\n      0x00\n        /* \"#utility.yul\":2572:2578   */\n      dup5\n        /* \"#utility.yul\":2567:2570   */\n      dup5\n        /* \"#utility.yul\":2563:2579   */\n      add\n        /* \"#utility.yul\":2556:2583   */\n      mstore\n        /* \"#utility.yul\":2405:2589   */\n      pop\n        /* \"#utility.yul\":2343:2589   */\n      pop\n      pop\n      pop\n      jump\t// out\n        /* \"#utility.yul\":2595:2697   */\n    tag_227:\n        /* \"#utility.yul\":2636:2642   */\n      0x00\n        /* \"#utility.yul\":2687:2689   */\n      0x1f\n        /* \"#utility.yul\":2683:2690   */\n      not\n        /* \"#utility.yul\":2678:2680   */\n      0x1f\n        /* \"#utility.yul\":2671:2676   */\n      dup4\n        /* \"#utility.yul\":2667:2681   */\n      add\n        /* \"#utility.yul\":2663:2691   */\n      and\n        /* \"#utility.yul\":2653:2691   */\n      swap1\n      pop\n        /* \"#utility.yul\":2595:2697   */\n      swap2\n      swap1\n      pop\n      jump\t// out\n        /* \"#utility.yul\":2703:3060   */\n    tag_228:\n        /* \"#utility.yul\":2781:2784   */\n      0x00\n        /* \"#utility.yul\":2809:2848   */\n      tag_330\n        /* \"#utility.yul\":2842:2847   */\n      dup3\n        /* \"#utility.yul\":2809:2848   */\n      tag_224\n      jump\t// in\n    tag_330:\n        /* \"#utility.yul\":2864:2925   */\n      tag_331\n        /* \"#utility.yul\":2918:2924   */\n      dup2\n        /* \"#utility.yul\":2913:2916   */\n      dup6\n        /* \"#utility.yul\":2864:2925   */\n      tag_225\n      jump\t// in\n    tag_331:\n        /* \"#utility.yul\":2857:2925   */\n      swap4\n      pop\n        /* \"#utility.yul\":2934:2999   */\n      tag_332\n        /* \"#utility.yul\":2992:2998   */\n      dup2\n        /* \"#utility.yul\":2987:2990   */\n      dup6\n        /* \"#utility.yul\":2980:2984   */\n      0x20\n        /* \"#utility.yul\":2973:2978   */\n      dup7\n        /* \"#utility.yul\":2969:2985   */\n      add\n        /* \"#utility.yul\":2934:2999   */\n      tag_226\n      jump\t// in\n    tag_332:\n        /* \"#utility.yul\":3024:3053   */\n      tag_333\n        /* \"#utility.yul\":3046:3052   */\n      dup2\n        /* \"#utility.yul\":3024:3053   */\n      tag_227\n      jump\t// in\n    tag_333:\n        /* \"#utility.yul\":3019:3022   */\n      dup5\n        /* \"#utility.yul\":3015:3054   */\n      add\n        /* \"#utility.yul\":3008:3054   */\n      swap2\n      pop\n        /* \"#utility.yul\":2785:3060   */\n      pop\n        /* \"#utility.yul\":2703:3060   */\n      swap3\n      swap2\n      pop\n      pop\n      jump\t// out\n        /* \"#utility.yul\":3066:3262   */\n    tag_229:\n        /* \"#utility.yul\":3155:3165   */\n      0x00\n        /* \"#utility.yul\":3190:3256   */\n      tag_335\n        /* \"#utility.yul\":3252:3255   */\n      dup4\n        /* \"#utility.yul\":3244:3250   */\n      dup4\n        /* \"#utility.yul\":3190:3256   */\n      tag_228\n      jump\t// in\n    tag_335:\n        /* \"#utility.yul\":3176:3256   */\n      swap1\n      pop\n        /* \"#utility.yul\":3066:3262   */\n      swap3\n      swap2\n      pop\n      pop\n      jump\t// out\n        /* \"#utility.yul\":3268:3389   */\n    tag_230:\n        /* \"#utility.yul\":3346:3350   */\n      0x00\n        /* \"#utility.yul\":3378:3382   */\n      0x20\n        /* \"#utility.yul\":3373:3376   */\n      dup3\n        /* \"#utility.yul\":3369:3383   */\n      add\n        /* \"#utility.yul\":3361:3383   */\n      swap1\n      pop\n        /* \"#utility.yul\":3268:3389   */\n      swap2\n      swap1\n      pop\n      jump\t// out\n        /* \"#utility.yul\":3425:4384   */\n    tag_231:\n        /* \"#utility.yul\":3550:3553   */\n      0x00\n        /* \"#utility.yul\":3579:3641   */\n      tag_338\n        /* \"#utility.yul\":3635:3640   */\n      dup3\n        /* \"#utility.yul\":3579:3641   */\n      tag_221\n      jump\t// in\n    tag_338:\n        /* \"#utility.yul\":3657:3741   */\n      tag_339\n        /* \"#utility.yul\":3734:3740   */\n      dup2\n        /* \"#utility.yul\":3729:3732   */\n      dup6\n        /* \"#utility.yul\":3657:3741   */\n      tag_222\n      jump\t// in\n    tag_339:\n        /* \"#utility.yul\":3650:3741   */\n      swap4\n      pop\n        /* \"#utility.yul\":3767:3770   */\n      dup4\n        /* \"#utility.yul\":3812:3816   */\n      0x20\n        /* \"#utility.yul\":3804:3810   */\n      dup3\n        /* \"#utility.yul\":3800:3817   */\n      mul\n        /* \"#utility.yul\":3795:3798   */\n      dup6\n        /* \"#utility.yul\":3791:3818   */\n      add\n        /* \"#utility.yul\":3842:3906   */\n      tag_340\n        /* \"#utility.yul\":3900:3905   */\n      dup6\n        /* \"#utility.yul\":3842:3906   */\n      tag_223\n      jump\t// in\n    tag_340:\n        /* \"#utility.yul\":3929:3936   */\n      dup1\n        /* \"#utility.yul\":3960:3961   */\n      0x00\n        /* \"#utility.yul\":3945:4339   */\n    tag_341:\n        /* \"#utility.yul\":3970:3976   */\n      dup6\n        /* \"#utility.yul\":3967:3968   */\n      dup2\n        /* \"#utility.yul\":3964:3977   */\n      lt\n        /* \"#utility.yul\":3945:4339   */\n      iszero\n      tag_343\n      jumpi\n        /* \"#utility.yul\":4041:4050   */\n      dup5\n        /* \"#utility.yul\":4035:4039   */\n      dup5\n        /* \"#utility.yul\":4031:4051   */\n      sub\n        /* \"#utility.yul\":4026:4029   */\n      dup10\n        /* \"#utility.yul\":4019:4052   */\n      mstore\n        /* \"#utility.yul\":4092:4098   */\n      dup2\n        /* \"#utility.yul\":4086:4099   */\n      mload\n        /* \"#utility.yul\":4120:4204   */\n      tag_344\n        /* \"#utility.yul\":4199:4203   */\n      dup6\n        /* \"#utility.yul\":4184:4197   */\n      dup3\n        /* \"#utility.yul\":4120:4204   */\n      tag_229\n      jump\t// in\n    tag_344:\n        /* \"#utility.yul\":4112:4204   */\n      swap5\n      pop\n        /* \"#utility.yul\":4227:4295   */\n      tag_345\n        /* \"#utility.yul\":4288:4294   */\n      dup4\n        /* \"#utility.yul\":4227:4295   */\n      tag_230\n      jump\t// in\n    tag_345:\n        /* \"#utility.yul\":4217:4295   */\n      swap3\n      pop\n        /* \"#utility.yul\":4324:4328   */\n      0x20\n        /* \"#utility.yul\":4319:4322   */\n      dup11\n        /* \"#utility.yul\":4315:4329   */\n      add\n        /* \"#utility.yul\":4308:4329   */\n      swap10\n      pop\n        /* \"#utility.yul\":4005:4339   */\n      pop\n        /* \"#utility.yul\":3992:3993   */\n      0x01\n        /* \"#utility.yul\":3989:3990   */\n      dup2\n        /* \"#utility.yul\":3985:3994   */\n      add\n        /* \"#utility.yul\":3980:3994   */\n      swap1\n      pop\n        /* \"#utility.yul\":3945:4339   */\n      jump(tag_341)\n    tag_343:\n        /* \"#utility.yul\":3949:3963   */\n      pop\n        /* \"#utility.yul\":4355:4359   */\n      dup3\n        /* \"#utility.yul\":4348:4359   */\n      swap8\n      pop\n        /* \"#utility.yul\":4375:4378   */\n      dup8\n        /* \"#utility.yul\":4368:4378   */\n      swap6\n      pop\n        /* \"#utility.yul\":3555:4384   */\n      pop\n      pop\n      pop\n      pop\n      pop\n        /* \"#utility.yul\":3425:4384   */\n      swap3\n      swap2\n      pop\n      pop\n      jump\t// out\n        /* \"#utility.yul\":4390:4504   */\n    tag_232:\n        /* \"#utility.yul\":4465:4471   */\n      0x00\n        /* \"#utility.yul\":4493:4497   */\n      0x03\n        /* \"#utility.yul\":4483:4497   */\n      swap1\n      pop\n        /* \"#utility.yul\":4390:4504   */\n      swap2\n      swap1\n      pop\n      jump\t// out\n        /* \"#utility.yul\":4510:4653   */\n    tag_233:\n        /* \"#utility.yul\":4607:4618   */\n      0x00\n        /* \"#utility.yul\":4644:4647   */\n      dup2\n        /* \"#utility.yul\":4629:4647   */\n      swap1\n      pop\n        /* \"#utility.yul\":4510:4653   */\n      swap3\n      swap2\n      pop\n      pop\n      jump\t// out\n        /* \"#utility.yul\":4659:4767   */\n    tag_234:\n        /* \"#utility.yul\":4734:4738   */\n      0x00\n        /* \"#utility.yul\":4757:4760   */\n      dup2\n        /* \"#utility.yul\":4749:4760   */\n      swap1\n      pop\n        /* \"#utility.yul\":4659:4767   */\n      swap2\n      swap1\n      pop\n      jump\t// out\n        /* \"#utility.yul\":4773:4894   */\n    tag_235:\n        /* \"#utility.yul\":4851:4855   */\n      0x00\n        /* \"#utility.yul\":4883:4887   */\n      0x20\n        /* \"#utility.yul\":4878:4881   */\n      dup3\n        /* \"#utility.yul\":4874:4888   */\n      add\n        /* \"#utility.yul\":4866:4888   */\n      swap1\n      pop\n        /* \"#utility.yul\":4773:4894   */\n      swap2\n      swap1\n      pop\n      jump\t// out\n        /* \"#utility.yul\":4930:5889   */\n    tag_236:\n        /* \"#utility.yul\":5055:5058   */\n      0x00\n        /* \"#utility.yul\":5084:5146   */\n      tag_351\n        /* \"#utility.yul\":5140:5145   */\n      dup3\n        /* \"#utility.yul\":5084:5146   */\n      tag_232\n      jump\t// in\n    tag_351:\n        /* \"#utility.yul\":5162:5246   */\n      tag_352\n        /* \"#utility.yul\":5239:5245   */\n      dup2\n        /* \"#utility.yul\":5234:5237   */\n      dup6\n        /* \"#utility.yul\":5162:5246   */\n      tag_233\n      jump\t// in\n    tag_352:\n        /* \"#utility.yul\":5155:5246   */\n      swap4\n      pop\n        /* \"#utility.yul\":5272:5275   */\n      dup4\n        /* \"#utility.yul\":5317:5321   */\n      0x20\n        /* \"#utility.yul\":5309:5315   */\n      dup3\n        /* \"#utility.yul\":5305:5322   */\n      mul\n        /* \"#utility.yul\":5300:5303   */\n      dup6\n        /* \"#utility.yul\":5296:5323   */\n      add\n        /* \"#utility.yul\":5347:5411   */\n      tag_353\n        /* \"#utility.yul\":5405:5410   */\n      dup6\n        /* \"#utility.yul\":5347:5411   */\n      tag_234\n      jump\t// in\n    tag_353:\n        /* \"#utility.yul\":5434:5441   */\n      dup1\n        /* \"#utility.yul\":5465:5466   */\n      0x00\n        /* \"#utility.yul\":5450:5844   */\n    tag_354:\n        /* \"#utility.yul\":5475:5481   */\n      dup6\n        /* \"#utility.yul\":5472:5473   */\n      dup2\n        /* \"#utility.yul\":5469:5482   */\n      lt\n        /* \"#utility.yul\":5450:5844   */\n      iszero\n      tag_356\n      jumpi\n        /* \"#utility.yul\":5546:5555   */\n      dup5\n        /* \"#utility.yul\":5540:5544   */\n      dup5\n        /* \"#utility.yul\":5536:5556   */\n      sub\n        /* \"#utility.yul\":5531:5534   */\n      dup10\n        /* \"#utility.yul\":5524:5557   */\n      mstore\n        /* \"#utility.yul\":5597:5603   */\n      dup2\n        /* \"#utility.yul\":5591:5604   */\n      mload\n        /* \"#utility.yul\":5625:5709   */\n      tag_357\n        /* \"#utility.yul\":5704:5708   */\n      dup6\n        /* \"#utility.yul\":5689:5702   */\n      dup3\n        /* \"#utility.yul\":5625:5709   */\n      tag_229\n      jump\t// in\n    tag_357:\n        /* \"#utility.yul\":5617:5709   */\n      swap5\n      pop\n        /* \"#utility.yul\":5732:5800   */\n      tag_358\n        /* \"#utility.yul\":5793:5799   */\n      dup4\n        /* \"#utility.yul\":5732:5800   */\n      tag_235\n      jump\t// in\n    tag_358:\n        /* \"#utility.yul\":5722:5800   */\n      swap3\n      pop\n        /* \"#utility.yul\":5829:5833   */\n      0x20\n        /* \"#utility.yul\":5824:5827   */\n      dup11\n        /* \"#utility.yul\":5820:5834   */\n      add\n        /* \"#utility.yul\":5813:5834   */\n      swap10\n      pop\n        /* \"#utility.yul\":5510:5844   */\n      pop\n        /* \"#utility.yul\":5497:5498   */\n      0x01\n        /* \"#utility.yul\":5494:5495   */\n      dup2\n        /* \"#utility.yul\":5490:5499   */\n      add\n        /* \"#utility.yul\":5485:5499   */\n      swap1\n      pop\n        /* \"#utility.yul\":5450:5844   */\n      jump(tag_354)\n    tag_356:\n        /* \"#utility.yul\":5454:5468   */\n      pop\n        /* \"#utility.yul\":5860:5864   */\n      dup3\n        /* \"#utility.yul\":5853:5864   */\n      swap8\n      pop\n        /* \"#utility.yul\":5880:5883   */\n      dup8\n        /* \"#utility.yul\":5873:5883   */\n      swap6\n      pop\n        /* \"#utility.yul\":5060:5889   */\n      pop\n      pop\n      pop\n      pop\n      pop\n        /* \"#utility.yul\":4930:5889   */\n      swap3\n      swap2\n      pop\n      pop\n      jump\t// out\n        /* \"#utility.yul\":5961:7325   */\n    tag_237:\n        /* \"#utility.yul\":6064:6067   */\n      0x00\n        /* \"#utility.yul\":6100:6104   */\n      0x80\n        /* \"#utility.yul\":6095:6098   */\n      dup4\n        /* \"#utility.yul\":6091:6105   */\n      add\n        /* \"#utility.yul\":6193:6197   */\n      0x00\n        /* \"#utility.yul\":6186:6191   */\n      dup4\n        /* \"#utility.yul\":6182:6198   */\n      add\n        /* \"#utility.yul\":6176:6199   */\n      mload\n        /* \"#utility.yul\":6246:6249   */\n      dup5\n        /* \"#utility.yul\":6240:6244   */\n      dup3\n        /* \"#utility.yul\":6236:6250   */\n      sub\n        /* \"#utility.yul\":6229:6233   */\n      0x00\n        /* \"#utility.yul\":6224:6227   */\n      dup7\n        /* \"#utility.yul\":6220:6234   */\n      add\n        /* \"#utility.yul\":6213:6251   */\n      mstore\n        /* \"#utility.yul\":6272:6391   */\n      tag_360\n        /* \"#utility.yul\":6386:6390   */\n      dup3\n        /* \"#utility.yul\":6372:6384   */\n      dup3\n        /* \"#utility.yul\":6272:6391   */\n      tag_231\n      jump\t// in\n    tag_360:\n        /* \"#utility.yul\":6264:6391   */\n      swap2\n      pop\n        /* \"#utility.yul\":6115:6402   */\n      pop\n        /* \"#utility.yul\":6496:6500   */\n      0x20\n        /* \"#utility.yul\":6489:6494   */\n      dup4\n        /* \"#utility.yul\":6485:6501   */\n      add\n        /* \"#utility.yul\":6479:6502   */\n      mload\n        /* \"#utility.yul\":6549:6552   */\n      dup5\n        /* \"#utility.yul\":6543:6547   */\n      dup3\n        /* \"#utility.yul\":6539:6553   */\n      sub\n        /* \"#utility.yul\":6532:6536   */\n      0x20\n        /* \"#utility.yul\":6527:6530   */\n      dup7\n        /* \"#utility.yul\":6523:6537   */\n      add\n        /* \"#utility.yul\":6516:6554   */\n      mstore\n        /* \"#utility.yul\":6575:6694   */\n      tag_361\n        /* \"#utility.yul\":6689:6693   */\n      dup3\n        /* \"#utility.yul\":6675:6687   */\n      dup3\n        /* \"#utility.yul\":6575:6694   */\n      tag_236\n      jump\t// in\n    tag_361:\n        /* \"#utility.yul\":6567:6694   */\n      swap2\n      pop\n        /* \"#utility.yul\":6412:6705   */\n      pop\n        /* \"#utility.yul\":6790:6794   */\n      0x40\n        /* \"#utility.yul\":6783:6788   */\n      dup4\n        /* \"#utility.yul\":6779:6795   */\n      add\n        /* \"#utility.yul\":6773:6796   */\n      mload\n        /* \"#utility.yul\":6843:6846   */\n      dup5\n        /* \"#utility.yul\":6837:6841   */\n      dup3\n        /* \"#utility.yul\":6833:6847   */\n      sub\n        /* \"#utility.yul\":6826:6830   */\n      0x40\n        /* \"#utility.yul\":6821:6824   */\n      dup7\n        /* \"#utility.yul\":6817:6831   */\n      add\n        /* \"#utility.yul\":6810:6848   */\n      mstore\n        /* \"#utility.yul\":6869:6988   */\n      tag_362\n        /* \"#utility.yul\":6983:6987   */\n      dup3\n        /* \"#utility.yul\":6969:6981   */\n      dup3\n        /* \"#utility.yul\":6869:6988   */\n      tag_236\n      jump\t// in\n    tag_362:\n        /* \"#utility.yul\":6861:6988   */\n      swap2\n      pop\n        /* \"#utility.yul\":6715:6999   */\n      pop\n        /* \"#utility.yul\":7089:7093   */\n      0x60\n        /* \"#utility.yul\":7082:7087   */\n      dup4\n        /* \"#utility.yul\":7078:7094   */\n      add\n        /* \"#utility.yul\":7072:7095   */\n      mload\n        /* \"#utility.yul\":7142:7145   */\n      dup5\n        /* \"#utility.yul\":7136:7140   */\n      dup3\n        /* \"#utility.yul\":7132:7146   */\n      sub\n        /* \"#utility.yul\":7125:7129   */\n      0x60\n        /* \"#utility.yul\":7120:7123   */\n      dup7\n        /* \"#utility.yul\":7116:7130   */\n      add\n        /* \"#utility.yul\":7109:7147   */\n      mstore\n        /* \"#utility.yul\":7168:7287   */\n      tag_363\n        /* \"#utility.yul\":7282:7286   */\n      dup3\n        /* \"#utility.yul\":7268:7280   */\n      dup3\n        /* \"#utility.yul\":7168:7287   */\n      tag_236\n      jump\t// in\n    tag_363:\n        /* \"#utility.yul\":7160:7287   */\n      swap2\n      pop\n        /* \"#utility.yul\":7009:7298   */\n      pop\n        /* \"#utility.yul\":7315:7319   */\n      dup1\n        /* \"#utility.yul\":7308:7319   */\n      swap2\n      pop\n        /* \"#utility.yul\":6069:7325   */\n      pop\n        /* \"#utility.yul\":5961:7325   */\n      swap3\n      swap2\n      pop\n      pop\n      jump\t// out\n        /* \"#utility.yul\":7331:7575   */\n    tag_238:\n        /* \"#utility.yul\":7444:7454   */\n      0x00\n        /* \"#utility.yul\":7479:7569   */\n      tag_365\n        /* \"#utility.yul\":7565:7568   */\n      dup4\n        /* \"#utility.yul\":7557:7563   */\n      dup4\n        /* \"#utility.yul\":7479:7569   */\n      tag_237\n      jump\t// in\n    tag_365:\n        /* \"#utility.yul\":7465:7569   */\n      swap1\n      pop\n        /* \"#utility.yul\":7331:7575   */\n      swap3\n      swap2\n      pop\n      pop\n      jump\t// out\n        /* \"#utility.yul\":7581:7716   */\n    tag_239:\n        /* \"#utility.yul\":7673:7677   */\n      0x00\n        /* \"#utility.yul\":7705:7709   */\n      0x20\n        /* \"#utility.yul\":7700:7703   */\n      dup3\n        /* \"#utility.yul\":7696:7710   */\n      add\n        /* \"#utility.yul\":7688:7710   */\n      swap1\n      pop\n        /* \"#utility.yul\":7581:7716   */\n      swap2\n      swap1\n      pop\n      jump\t// out\n        /* \"#utility.yul\":7792:8879   */\n    tag_240:\n        /* \"#utility.yul\":7955:7958   */\n      0x00\n        /* \"#utility.yul\":7984:8060   */\n      tag_368\n        /* \"#utility.yul\":8054:8059   */\n      dup3\n        /* \"#utility.yul\":7984:8060   */\n      tag_218\n      jump\t// in\n    tag_368:\n        /* \"#utility.yul\":8076:8184   */\n      tag_369\n        /* \"#utility.yul\":8177:8183   */\n      dup2\n        /* \"#utility.yul\":8172:8175   */\n      dup6\n        /* \"#utility.yul\":8076:8184   */\n      tag_219\n      jump\t// in\n    tag_369:\n        /* \"#utility.yul\":8069:8184   */\n      swap4\n      pop\n        /* \"#utility.yul\":8210:8213   */\n      dup4\n        /* \"#utility.yul\":8255:8259   */\n      0x20\n        /* \"#utility.yul\":8247:8253   */\n      dup3\n        /* \"#utility.yul\":8243:8260   */\n      mul\n        /* \"#utility.yul\":8238:8241   */\n      dup6\n        /* \"#utility.yul\":8234:8261   */\n      add\n        /* \"#utility.yul\":8285:8363   */\n      tag_370\n        /* \"#utility.yul\":8357:8362   */\n      dup6\n        /* \"#utility.yul\":8285:8363   */\n      tag_220\n      jump\t// in\n    tag_370:\n        /* \"#utility.yul\":8386:8393   */\n      dup1\n        /* \"#utility.yul\":8417:8418   */\n      0x00\n        /* \"#utility.yul\":8402:8834   */\n    tag_371:\n        /* \"#utility.yul\":8427:8433   */\n      dup6\n        /* \"#utility.yul\":8424:8425   */\n      dup2\n        /* \"#utility.yul\":8421:8434   */\n      lt\n        /* \"#utility.yul\":8402:8834   */\n      iszero\n      tag_373\n      jumpi\n        /* \"#utility.yul\":8498:8507   */\n      dup5\n        /* \"#utility.yul\":8492:8496   */\n      dup5\n        /* \"#utility.yul\":8488:8508   */\n      sub\n        /* \"#utility.yul\":8483:8486   */\n      dup10\n        /* \"#utility.yul\":8476:8509   */\n      mstore\n        /* \"#utility.yul\":8549:8555   */\n      dup2\n        /* \"#utility.yul\":8543:8556   */\n      mload\n        /* \"#utility.yul\":8577:8685   */\n      tag_374\n        /* \"#utility.yul\":8680:8684   */\n      dup6\n        /* \"#utility.yul\":8665:8678   */\n      dup3\n        /* \"#utility.yul\":8577:8685   */\n      tag_238\n      jump\t// in\n    tag_374:\n        /* \"#utility.yul\":8569:8685   */\n      swap5\n      pop\n        /* \"#utility.yul\":8708:8790   */\n      tag_375\n        /* \"#utility.yul\":8783:8789   */\n      dup4\n        /* \"#utility.yul\":8708:8790   */\n      tag_239\n      jump\t// in\n    tag_375:\n        /* \"#utility.yul\":8698:8790   */\n      swap3\n      pop\n        /* \"#utility.yul\":8819:8823   */\n      0x20\n        /* \"#utility.yul\":8814:8817   */\n      dup11\n        /* \"#utility.yul\":8810:8824   */\n      add\n        /* \"#utility.yul\":8803:8824   */\n      swap10\n      pop\n        /* \"#utility.yul\":8462:8834   */\n      pop\n        /* \"#utility.yul\":8449:8450   */\n      0x01\n        /* \"#utility.yul\":8446:8447   */\n      dup2\n        /* \"#utility.yul\":8442:8451   */\n      add\n        /* \"#utility.yul\":8437:8451   */\n      swap1\n      pop\n        /* \"#utility.yul\":8402:8834   */\n      jump(tag_371)\n    tag_373:\n        /* \"#utility.yul\":8406:8420   */\n      pop\n        /* \"#utility.yul\":8850:8854   */\n      dup3\n        /* \"#utility.yul\":8843:8854   */\n      swap8\n      pop\n        /* \"#utility.yul\":8870:8873   */\n      dup8\n        /* \"#utility.yul\":8863:8873   */\n      swap6\n      pop\n        /* \"#utility.yul\":7960:8879   */\n      pop\n      pop\n      pop\n      pop\n      pop\n        /* \"#utility.yul\":7792:8879   */\n      swap3\n      swap2\n      pop\n      pop\n      jump\t// out\n        /* \"#utility.yul\":8885:9346   */\n    tag_19:\n        /* \"#utility.yul\":9072:9076   */\n      0x00\n        /* \"#utility.yul\":9110:9112   */\n      0x20\n        /* \"#utility.yul\":9099:9108   */\n      dup3\n        /* \"#utility.yul\":9095:9113   */\n      add\n        /* \"#utility.yul\":9087:9113   */\n      swap1\n      pop\n        /* \"#utility.yul\":9159:9168   */\n      dup2\n        /* \"#utility.yul\":9153:9157   */\n      dup2\n        /* \"#utility.yul\":9149:9169   */\n      sub\n        /* \"#utility.yul\":9145:9146   */\n      0x00\n        /* \"#utility.yul\":9134:9143   */\n      dup4\n        /* \"#utility.yul\":9130:9147   */\n      add\n        /* \"#utility.yul\":9123:9170   */\n      mstore\n        /* \"#utility.yul\":9187:9339   */\n      tag_377\n        /* \"#utility.yul\":9334:9338   */\n      dup2\n        /* \"#utility.yul\":9325:9331   */\n      dup5\n        /* \"#utility.yul\":9187:9339   */\n      tag_240\n      jump\t// in\n    tag_377:\n        /* \"#utility.yul\":9179:9339   */\n      swap1\n      pop\n        /* \"#utility.yul\":8885:9346   */\n      swap3\n      swap2\n      pop\n      pop\n      jump\t// out\n        /* \"#utility.yul\":9352:9442   */\n    tag_241:\n        /* \"#utility.yul\":9386:9393   */\n      0x00\n        /* \"#utility.yul\":9429:9434   */\n      dup2\n        /* \"#utility.yul\":9422:9435   */\n      iszero\n        /* \"#utility.yul\":9415:9436   */\n      iszero\n        /* \"#utility.yul\":9404:9436   */\n      swap1\n      pop\n        /* \"#utility.yul\":9352:9442   */\n      swap2\n      swap1\n      pop\n      jump\t// out\n        /* \"#utility.yul\":9448:9557   */\n    tag_242:\n        /* \"#utility.yul\":9529:9550   */\n      tag_380\n        /* \"#utility.yul\":9544:9549   */\n      dup2\n        /* \"#utility.yul\":9529:9550   */\n      tag_241\n      jump\t// in\n    tag_380:\n        /* \"#utility.yul\":9524:9527   */\n      dup3\n        /* \"#utility.yul\":9517:9551   */\n      mstore\n        /* \"#utility.yul\":9448:9557   */\n      pop\n      pop\n      jump\t// out\n        /* \"#utility.yul\":9563:9773   */\n    tag_24:\n        /* \"#utility.yul\":9650:9654   */\n      0x00\n        /* \"#utility.yul\":9688:9690   */\n      0x20\n        /* \"#utility.yul\":9677:9686   */\n      dup3\n        /* \"#utility.yul\":9673:9691   */\n      add\n        /* \"#utility.yul\":9665:9691   */\n      swap1\n      pop\n        /* \"#utility.yul\":9701:9766   */\n      tag_382\n        /* \"#utility.yul\":9763:9764   */\n      0x00\n        /* \"#utility.yul\":9752:9761   */\n      dup4\n        /* \"#utility.yul\":9748:9765   */\n      add\n        /* \"#utility.yul\":9739:9745   */\n      dup5\n        /* \"#utility.yul\":9701:9766   */\n      tag_242\n      jump\t// in\n    tag_382:\n        /* \"#utility.yul\":9563:9773   */\n      swap3\n      swap2\n      pop\n      pop\n      jump\t// out\n        /* \"#utility.yul\":9779:9896   */\n    tag_243:\n        /* \"#utility.yul\":9888:9889   */\n      0x00\n        /* \"#utility.yul\":9885:9886   */\n      dup1\n        /* \"#utility.yul\":9878:9890   */\n      revert\n        /* \"#utility.yul\":9902:10082   */\n    tag_244:\n        /* \"#utility.yul\":9950:10027   */\n      0x4e487b7100000000000000000000000000000000000000000000000000000000\n        /* \"#utility.yul\":9947:9948   */\n      0x00\n        /* \"#utility.yul\":9940:10028   */\n      mstore\n        /* \"#utility.yul\":10047:10051   */\n      0x41\n        /* \"#utility.yul\":10044:10045   */\n      0x04\n        /* \"#utility.yul\":10037:10052   */\n      mstore\n        /* \"#utility.yul\":10071:10075   */\n      0x24\n        /* \"#utility.yul\":10068:10069   */\n      0x00\n        /* \"#utility.yul\":10061:10076   */\n      revert\n        /* \"#utility.yul\":10088:10369   */\n    tag_245:\n        /* \"#utility.yul\":10171:10198   */\n      tag_386\n        /* \"#utility.yul\":10193:10197   */\n      dup3\n        /* \"#utility.yul\":10171:10198   */\n      tag_227\n      jump\t// in\n    tag_386:\n        /* \"#utility.yul\":10163:10169   */\n      dup2\n        /* \"#utility.yul\":10159:10199   */\n      add\n        /* \"#utility.yul\":10301:10307   */\n      dup2\n        /* \"#utility.yul\":10289:10299   */\n      dup2\n        /* \"#utility.yul\":10286:10308   */\n      lt\n        /* \"#utility.yul\":10265:10283   */\n      0xffffffffffffffff\n        /* \"#utility.yul\":10253:10263   */\n      dup3\n        /* \"#utility.yul\":10250:10284   */\n      gt\n        /* \"#utility.yul\":10247:10309   */\n      or\n        /* \"#utility.yul\":10244:10332   */\n      iszero\n      tag_387\n      jumpi\n        /* \"#utility.yul\":10312:10330   */\n      tag_388\n      tag_244\n      jump\t// in\n    tag_388:\n        /* \"#utility.yul\":10244:10332   */\n    tag_387:\n        /* \"#utility.yul\":10352:10362   */\n      dup1\n        /* \"#utility.yul\":10348:10350   */\n      0x40\n        /* \"#utility.yul\":10341:10363   */\n      mstore\n        /* \"#utility.yul\":10131:10369   */\n      pop\n        /* \"#utility.yul\":10088:10369   */\n      pop\n      pop\n      jump\t// out\n        /* \"#utility.yul\":10375:10504   */\n    tag_246:\n        /* \"#utility.yul\":10409:10415   */\n      0x00\n        /* \"#utility.yul\":10436:10456   */\n      tag_390\n      tag_211\n      jump\t// in\n    tag_390:\n        /* \"#utility.yul\":10426:10456   */\n      swap1\n      pop\n        /* \"#utility.yul\":10465:10498   */\n      tag_391\n        /* \"#utility.yul\":10493:10497   */\n      dup3\n        /* \"#utility.yul\":10485:10491   */\n      dup3\n        /* \"#utility.yul\":10465:10498   */\n      tag_245\n      jump\t// in\n    tag_391:\n        /* \"#utility.yul\":10375:10504   */\n      swap2\n      swap1\n      pop\n      jump\t// out\n        /* \"#utility.yul\":10510:10769   */\n    tag_247:\n        /* \"#utility.yul\":10595:10599   */\n      0x00\n        /* \"#utility.yul\":10685:10703   */\n      0xffffffffffffffff\n        /* \"#utility.yul\":10677:10683   */\n      dup3\n        /* \"#utility.yul\":10674:10704   */\n      gt\n        /* \"#utility.yul\":10671:10727   */\n      iszero\n      tag_393\n      jumpi\n        /* \"#utility.yul\":10707:10725   */\n      tag_394\n      tag_244\n      jump\t// in\n    tag_394:\n        /* \"#utility.yul\":10671:10727   */\n    tag_393:\n        /* \"#utility.yul\":10757:10761   */\n      0x20\n        /* \"#utility.yul\":10749:10755   */\n      dup3\n        /* \"#utility.yul\":10745:10762   */\n      mul\n        /* \"#utility.yul\":10737:10762   */\n      swap1\n      pop\n        /* \"#utility.yul\":10510:10769   */\n      swap2\n      swap1\n      pop\n      jump\t// out\n        /* \"#utility.yul\":10775:10892   */\n    tag_248:\n        /* \"#utility.yul\":10884:10885   */\n      0x00\n        /* \"#utility.yul\":10881:10882   */\n      dup1\n        /* \"#utility.yul\":10874:10886   */\n      revert\n        /* \"#utility.yul\":10898:11015   */\n    tag_249:\n        /* \"#utility.yul\":11007:11008   */\n      0x00\n        /* \"#utility.yul\":11004:11005   */\n      dup1\n        /* \"#utility.yul\":10997:11009   */\n      revert\n        /* \"#utility.yul\":11021:11329   */\n    tag_250:\n        /* \"#utility.yul\":11083:11087   */\n      0x00\n        /* \"#utility.yul\":11173:11191   */\n      0xffffffffffffffff\n        /* \"#utility.yul\":11165:11171   */\n      dup3\n        /* \"#utility.yul\":11162:11192   */\n      gt\n        /* \"#utility.yul\":11159:11215   */\n      iszero\n      tag_398\n      jumpi\n        /* \"#utility.yul\":11195:11213   */\n      tag_399\n      tag_244\n      jump\t// in\n    tag_399:\n        /* \"#utility.yul\":11159:11215   */\n    tag_398:\n        /* \"#utility.yul\":11233:11262   */\n      tag_400\n        /* \"#utility.yul\":11255:11261   */\n      dup3\n        /* \"#utility.yul\":11233:11262   */\n      tag_227\n      jump\t// in\n    tag_400:\n        /* \"#utility.yul\":11225:11262   */\n      swap1\n      pop\n        /* \"#utility.yul\":11317:11321   */\n      0x20\n        /* \"#utility.yul\":11311:11315   */\n      dup2\n        /* \"#utility.yul\":11307:11322   */\n      add\n        /* \"#utility.yul\":11299:11322   */\n      swap1\n      pop\n        /* \"#utility.yul\":11021:11329   */\n      swap2\n      swap1\n      pop\n      jump\t// out\n        /* \"#utility.yul\":11335:11481   */\n    tag_251:\n        /* \"#utility.yul\":11432:11438   */\n      dup3\n        /* \"#utility.yul\":11427:11430   */\n      dup2\n        /* \"#utility.yul\":11422:11425   */\n      dup4\n        /* \"#utility.yul\":11409:11439   */\n      calldatacopy\n        /* \"#utility.yul\":11473:11474   */\n      0x00\n        /* \"#utility.yul\":11464:11470   */\n      dup4\n        /* \"#utility.yul\":11459:11462   */\n      dup4\n        /* \"#utility.yul\":11455:11471   */\n      add\n        /* \"#utility.yul\":11448:11475   */\n      mstore\n        /* \"#utility.yul\":11335:11481   */\n      pop\n      pop\n      pop\n      jump\t// out\n        /* \"#utility.yul\":11487:11912   */\n    tag_252:\n        /* \"#utility.yul\":11565:11570   */\n      0x00\n        /* \"#utility.yul\":11590:11656   */\n      tag_403\n        /* \"#utility.yul\":11606:11655   */\n      tag_404\n        /* \"#utility.yul\":11648:11654   */\n      dup5\n        /* \"#utility.yul\":11606:11655   */\n      tag_250\n      jump\t// in\n    tag_404:\n        /* \"#utility.yul\":11590:11656   */\n      tag_246\n      jump\t// in\n    tag_403:\n        /* \"#utility.yul\":11581:11656   */\n      swap1\n      pop\n        /* \"#utility.yul\":11679:11685   */\n      dup3\n        /* \"#utility.yul\":11672:11677   */\n      dup2\n        /* \"#utility.yul\":11665:11686   */\n      mstore\n        /* \"#utility.yul\":11717:11721   */\n      0x20\n        /* \"#utility.yul\":11710:11715   */\n      dup2\n        /* \"#utility.yul\":11706:11722   */\n      add\n        /* \"#utility.yul\":11755:11758   */\n      dup5\n        /* \"#utility.yul\":11746:11752   */\n      dup5\n        /* \"#utility.yul\":11741:11744   */\n      dup5\n        /* \"#utility.yul\":11737:11753   */\n      add\n        /* \"#utility.yul\":11734:11759   */\n      gt\n        /* \"#utility.yul\":11731:11843   */\n      iszero\n      tag_405\n      jumpi\n        /* \"#utility.yul\":11762:11841   */\n      tag_406\n      tag_249\n      jump\t// in\n    tag_406:\n        /* \"#utility.yul\":11731:11843   */\n    tag_405:\n        /* \"#utility.yul\":11852:11906   */\n      tag_407\n        /* \"#utility.yul\":11899:11905   */\n      dup5\n        /* \"#utility.yul\":11894:11897   */\n      dup3\n        /* \"#utility.yul\":11889:11892   */\n      dup6\n        /* \"#utility.yul\":11852:11906   */\n      tag_251\n      jump\t// in\n    tag_407:\n        /* \"#utility.yul\":11571:11912   */\n      pop\n        /* \"#utility.yul\":11487:11912   */\n      swap4\n      swap3\n      pop\n      pop\n      pop\n      jump\t// out\n        /* \"#utility.yul\":11932:12272   */\n    tag_253:\n        /* \"#utility.yul\":11988:11993   */\n      0x00\n        /* \"#utility.yul\":12037:12040   */\n      dup3\n        /* \"#utility.yul\":12030:12034   */\n      0x1f\n        /* \"#utility.yul\":12022:12028   */\n      dup4\n        /* \"#utility.yul\":12018:12035   */\n      add\n        /* \"#utility.yul\":12014:12041   */\n      slt\n        /* \"#utility.yul\":12004:12126   */\n      tag_409\n      jumpi\n        /* \"#utility.yul\":12045:12124   */\n      tag_410\n      tag_243\n      jump\t// in\n    tag_410:\n        /* \"#utility.yul\":12004:12126   */\n    tag_409:\n        /* \"#utility.yul\":12162:12168   */\n      dup2\n        /* \"#utility.yul\":12149:12169   */\n      calldataload\n        /* \"#utility.yul\":12187:12266   */\n      tag_411\n        /* \"#utility.yul\":12262:12265   */\n      dup5\n        /* \"#utility.yul\":12254:12260   */\n      dup3\n        /* \"#utility.yul\":12247:12251   */\n      0x20\n        /* \"#utility.yul\":12239:12245   */\n      dup7\n        /* \"#utility.yul\":12235:12252   */\n      add\n        /* \"#utility.yul\":12187:12266   */\n      tag_252\n      jump\t// in\n    tag_411:\n        /* \"#utility.yul\":12178:12266   */\n      swap2\n      pop\n        /* \"#utility.yul\":11994:12272   */\n      pop\n        /* \"#utility.yul\":11932:12272   */\n      swap3\n      swap2\n      pop\n      pop\n      jump\t// out\n        /* \"#utility.yul\":12295:13173   */\n    tag_254:\n        /* \"#utility.yul\":12399:12404   */\n      0x00\n        /* \"#utility.yul\":12424:12513   */\n      tag_413\n        /* \"#utility.yul\":12440:12512   */\n      tag_414\n        /* \"#utility.yul\":12505:12511   */\n      dup5\n        /* \"#utility.yul\":12440:12512   */\n      tag_247\n      jump\t// in\n    tag_414:\n        /* \"#utility.yul\":12424:12513   */\n      tag_246\n      jump\t// in\n    tag_413:\n        /* \"#utility.yul\":12415:12513   */\n      swap1\n      pop\n        /* \"#utility.yul\":12533:12538   */\n      dup1\n        /* \"#utility.yul\":12586:12590   */\n      0x20\n        /* \"#utility.yul\":12578:12584   */\n      dup5\n        /* \"#utility.yul\":12574:12591   */\n      mul\n        /* \"#utility.yul\":12566:12572   */\n      dup4\n        /* \"#utility.yul\":12562:12592   */\n      add\n        /* \"#utility.yul\":12615:12618   */\n      dup6\n        /* \"#utility.yul\":12607:12613   */\n      dup2\n        /* \"#utility.yul\":12604:12619   */\n      gt\n        /* \"#utility.yul\":12601:12723   */\n      iszero\n      tag_415\n      jumpi\n        /* \"#utility.yul\":12634:12713   */\n      tag_416\n      tag_248\n      jump\t// in\n    tag_416:\n        /* \"#utility.yul\":12601:12723   */\n    tag_415:\n        /* \"#utility.yul\":12749:12755   */\n      dup4\n        /* \"#utility.yul\":12732:13167   */\n    tag_417:\n        /* \"#utility.yul\":12766:12772   */\n      dup2\n        /* \"#utility.yul\":12761:12764   */\n      dup2\n        /* \"#utility.yul\":12758:12773   */\n      lt\n        /* \"#utility.yul\":12732:13167   */\n      iszero\n      tag_419\n      jumpi\n        /* \"#utility.yul\":12855:12858   */\n      dup1\n        /* \"#utility.yul\":12842:12859   */\n      calldataload\n        /* \"#utility.yul\":12891:12909   */\n      0xffffffffffffffff\n        /* \"#utility.yul\":12878:12889   */\n      dup2\n        /* \"#utility.yul\":12875:12910   */\n      gt\n        /* \"#utility.yul\":12872:12994   */\n      iszero\n      tag_420\n      jumpi\n        /* \"#utility.yul\":12913:12992   */\n      tag_421\n      tag_243\n      jump\t// in\n    tag_421:\n        /* \"#utility.yul\":12872:12994   */\n    tag_420:\n        /* \"#utility.yul\":13037:13048   */\n      dup1\n        /* \"#utility.yul\":13029:13035   */\n      dup7\n        /* \"#utility.yul\":13025:13049   */\n      add\n        /* \"#utility.yul\":13075:13122   */\n      tag_422\n        /* \"#utility.yul\":13118:13121   */\n      dup10\n        /* \"#utility.yul\":13106:13116   */\n      dup3\n        /* \"#utility.yul\":13075:13122   */\n      tag_253\n      jump\t// in\n    tag_422:\n        /* \"#utility.yul\":13070:13073   */\n      dup6\n        /* \"#utility.yul\":13063:13123   */\n      mstore\n        /* \"#utility.yul\":13152:13156   */\n      0x20\n        /* \"#utility.yul\":13147:13150   */\n      dup6\n        /* \"#utility.yul\":13143:13157   */\n      add\n        /* \"#utility.yul\":13136:13157   */\n      swap5\n      pop\n        /* \"#utility.yul\":12808:13167   */\n      pop\n      pop\n        /* \"#utility.yul\":12792:12796   */\n      0x20\n        /* \"#utility.yul\":12787:12790   */\n      dup2\n        /* \"#utility.yul\":12783:12797   */\n      add\n        /* \"#utility.yul\":12776:12797   */\n      swap1\n      pop\n        /* \"#utility.yul\":12732:13167   */\n      jump(tag_417)\n    tag_419:\n        /* \"#utility.yul\":12736:12757   */\n      pop\n        /* \"#utility.yul\":12405:13173   */\n      pop\n      pop\n        /* \"#utility.yul\":12295:13173   */\n      swap4\n      swap3\n      pop\n      pop\n      pop\n      jump\t// out\n        /* \"#utility.yul\":13196:13555   */\n    tag_255:\n        /* \"#utility.yul\":13275:13280   */\n      0x00\n        /* \"#utility.yul\":13324:13327   */\n      dup3\n        /* \"#utility.yul\":13317:13321   */\n      0x1f\n        /* \"#utility.yul\":13309:13315   */\n      dup4\n        /* \"#utility.yul\":13305:13322   */\n      add\n        /* \"#utility.yul\":13301:13328   */\n      slt\n        /* \"#utility.yul\":13291:13413   */\n      tag_424\n      jumpi\n        /* \"#utility.yul\":13332:13411   */\n      tag_425\n      tag_243\n      jump\t// in\n    tag_425:\n        /* \"#utility.yul\":13291:13413   */\n    tag_424:\n        /* \"#utility.yul\":13436:13440   */\n      0x07\n        /* \"#utility.yul\":13458:13549   */\n      tag_426\n        /* \"#utility.yul\":13545:13548   */\n      dup5\n        /* \"#utility.yul\":13537:13543   */\n      dup3\n        /* \"#utility.yul\":13529:13535   */\n      dup6\n        /* \"#utility.yul\":13458:13549   */\n      tag_254\n      jump\t// in\n    tag_426:\n        /* \"#utility.yul\":13449:13549   */\n      swap2\n      pop\n        /* \"#utility.yul\":13281:13555   */\n      pop\n        /* \"#utility.yul\":13196:13555   */\n      swap3\n      swap2\n      pop\n      pop\n      jump\t// out\n        /* \"#utility.yul\":13561:13820   */\n    tag_256:\n        /* \"#utility.yul\":13646:13650   */\n      0x00\n        /* \"#utility.yul\":13736:13754   */\n      0xffffffffffffffff\n        /* \"#utility.yul\":13728:13734   */\n      dup3\n        /* \"#utility.yul\":13725:13755   */\n      gt\n        /* \"#utility.yul\":13722:13778   */\n      iszero\n      tag_428\n      jumpi\n        /* \"#utility.yul\":13758:13776   */\n      tag_429\n      tag_244\n      jump\t// in\n    tag_429:\n        /* \"#utility.yul\":13722:13778   */\n    tag_428:\n        /* \"#utility.yul\":13808:13812   */\n      0x20\n        /* \"#utility.yul\":13800:13806   */\n      dup3\n        /* \"#utility.yul\":13796:13813   */\n      mul\n        /* \"#utility.yul\":13788:13813   */\n      swap1\n      pop\n        /* \"#utility.yul\":13561:13820   */\n      swap2\n      swap1\n      pop\n      jump\t// out\n        /* \"#utility.yul\":13843:14721   */\n    tag_257:\n        /* \"#utility.yul\":13947:13952   */\n      0x00\n        /* \"#utility.yul\":13972:14061   */\n      tag_431\n        /* \"#utility.yul\":13988:14060   */\n      tag_432\n        /* \"#utility.yul\":14053:14059   */\n      dup5\n        /* \"#utility.yul\":13988:14060   */\n      tag_256\n      jump\t// in\n    tag_432:\n        /* \"#utility.yul\":13972:14061   */\n      tag_246\n      jump\t// in\n    tag_431:\n        /* \"#utility.yul\":13963:14061   */\n      swap1\n      pop\n        /* \"#utility.yul\":14081:14086   */\n      dup1\n        /* \"#utility.yul\":14134:14138   */\n      0x20\n        /* \"#utility.yul\":14126:14132   */\n      dup5\n        /* \"#utility.yul\":14122:14139   */\n      mul\n        /* \"#utility.yul\":14114:14120   */\n      dup4\n        /* \"#utility.yul\":14110:14140   */\n      add\n        /* \"#utility.yul\":14163:14166   */\n      dup6\n        /* \"#utility.yul\":14155:14161   */\n      dup2\n        /* \"#utility.yul\":14152:14167   */\n      gt\n        /* \"#utility.yul\":14149:14271   */\n      iszero\n      tag_433\n      jumpi\n        /* \"#utility.yul\":14182:14261   */\n      tag_434\n      tag_248\n      jump\t// in\n    tag_434:\n        /* \"#utility.yul\":14149:14271   */\n    tag_433:\n        /* \"#utility.yul\":14297:14303   */\n      dup4\n        /* \"#utility.yul\":14280:14715   */\n    tag_435:\n        /* \"#utility.yul\":14314:14320   */\n      dup2\n        /* \"#utility.yul\":14309:14312   */\n      dup2\n        /* \"#utility.yul\":14306:14321   */\n      lt\n        /* \"#utility.yul\":14280:14715   */\n      iszero\n      tag_437\n      jumpi\n        /* \"#utility.yul\":14403:14406   */\n      dup1\n        /* \"#utility.yul\":14390:14407   */\n      calldataload\n        /* \"#utility.yul\":14439:14457   */\n      0xffffffffffffffff\n        /* \"#utility.yul\":14426:14437   */\n      dup2\n        /* \"#utility.yul\":14423:14458   */\n      gt\n        /* \"#utility.yul\":14420:14542   */\n      iszero\n      tag_438\n      jumpi\n        /* \"#utility.yul\":14461:14540   */\n      tag_439\n      tag_243\n      jump\t// in\n    tag_439:\n        /* \"#utility.yul\":14420:14542   */\n    tag_438:\n        /* \"#utility.yul\":14585:14596   */\n      dup1\n        /* \"#utility.yul\":14577:14583   */\n      dup7\n        /* \"#utility.yul\":14573:14597   */\n      add\n        /* \"#utility.yul\":14623:14670   */\n      tag_440\n        /* \"#utility.yul\":14666:14669   */\n      dup10\n        /* \"#utility.yul\":14654:14664   */\n      dup3\n        /* \"#utility.yul\":14623:14670   */\n      tag_253\n      jump\t// in\n    tag_440:\n        /* \"#utility.yul\":14618:14621   */\n      dup6\n        /* \"#utility.yul\":14611:14671   */\n      mstore\n        /* \"#utility.yul\":14700:14704   */\n      0x20\n        /* \"#utility.yul\":14695:14698   */\n      dup6\n        /* \"#utility.yul\":14691:14705   */\n      add\n        /* \"#utility.yul\":14684:14705   */\n      swap5\n      pop\n        /* \"#utility.yul\":14356:14715   */\n      pop\n      pop\n        /* \"#utility.yul\":14340:14344   */\n      0x20\n        /* \"#utility.yul\":14335:14338   */\n      dup2\n        /* \"#utility.yul\":14331:14345   */\n      add\n        /* \"#utility.yul\":14324:14345   */\n      swap1\n      pop\n        /* \"#utility.yul\":14280:14715   */\n      jump(tag_435)\n    tag_437:\n        /* \"#utility.yul\":14284:14305   */\n      pop\n        /* \"#utility.yul\":13953:14721   */\n      pop\n      pop\n        /* \"#utility.yul\":13843:14721   */\n      swap4\n      swap3\n      pop\n      pop\n      pop\n      jump\t// out\n        /* \"#utility.yul\":14744:15103   */\n    tag_258:\n        /* \"#utility.yul\":14823:14828   */\n      0x00\n        /* \"#utility.yul\":14872:14875   */\n      dup3\n        /* \"#utility.yul\":14865:14869   */\n      0x1f\n        /* \"#utility.yul\":14857:14863   */\n      dup4\n        /* \"#utility.yul\":14853:14870   */\n      add\n        /* \"#utility.yul\":14849:14876   */\n      slt\n        /* \"#utility.yul\":14839:14961   */\n      tag_442\n      jumpi\n        /* \"#utility.yul\":14880:14959   */\n      tag_443\n      tag_243\n      jump\t// in\n    tag_443:\n        /* \"#utility.yul\":14839:14961   */\n    tag_442:\n        /* \"#utility.yul\":14984:14988   */\n      0x03\n        /* \"#utility.yul\":15006:15097   */\n      tag_444\n        /* \"#utility.yul\":15093:15096   */\n      dup5\n        /* \"#utility.yul\":15085:15091   */\n      dup3\n        /* \"#utility.yul\":15077:15083   */\n      dup6\n        /* \"#utility.yul\":15006:15097   */\n      tag_257\n      jump\t// in\n    tag_444:\n        /* \"#utility.yul\":14997:15097   */\n      swap2\n      pop\n        /* \"#utility.yul\":14829:15103   */\n      pop\n        /* \"#utility.yul\":14744:15103   */\n      swap3\n      swap2\n      pop\n      pop\n      jump\t// out\n        /* \"#utility.yul\":15109:16924   */\n    tag_30:\n        /* \"#utility.yul\":15336:15342   */\n      0x00\n        /* \"#utility.yul\":15344:15350   */\n      dup1\n        /* \"#utility.yul\":15352:15358   */\n      0x00\n        /* \"#utility.yul\":15360:15366   */\n      dup1\n        /* \"#utility.yul\":15368:15374   */\n      0x00\n        /* \"#utility.yul\":15417:15420   */\n      0xa0\n        /* \"#utility.yul\":15405:15414   */\n      dup7\n        /* \"#utility.yul\":15396:15403   */\n      dup9\n        /* \"#utility.yul\":15392:15415   */\n      sub\n        /* \"#utility.yul\":15388:15421   */\n      slt\n        /* \"#utility.yul\":15385:15505   */\n      iszero\n      tag_446\n      jumpi\n        /* \"#utility.yul\":15424:15503   */\n      tag_447\n      tag_212\n      jump\t// in\n    tag_447:\n        /* \"#utility.yul\":15385:15505   */\n    tag_446:\n        /* \"#utility.yul\":15544:15545   */\n      0x00\n        /* \"#utility.yul\":15569:15622   */\n      tag_448\n        /* \"#utility.yul\":15614:15621   */\n      dup9\n        /* \"#utility.yul\":15605:15611   */\n      dup3\n        /* \"#utility.yul\":15594:15603   */\n      dup10\n        /* \"#utility.yul\":15590:15612   */\n      add\n        /* \"#utility.yul\":15569:15622   */\n      tag_217\n      jump\t// in\n    tag_448:\n        /* \"#utility.yul\":15559:15622   */\n      swap6\n      pop\n        /* \"#utility.yul\":15515:15632   */\n      pop\n        /* \"#utility.yul\":15699:15701   */\n      0x20\n        /* \"#utility.yul\":15688:15697   */\n      dup7\n        /* \"#utility.yul\":15684:15702   */\n      add\n        /* \"#utility.yul\":15671:15703   */\n      calldataload\n        /* \"#utility.yul\":15730:15748   */\n      0xffffffffffffffff\n        /* \"#utility.yul\":15722:15728   */\n      dup2\n        /* \"#utility.yul\":15719:15749   */\n      gt\n        /* \"#utility.yul\":15716:15833   */\n      iszero\n      tag_449\n      jumpi\n        /* \"#utility.yul\":15752:15831   */\n      tag_450\n      tag_213\n      jump\t// in\n    tag_450:\n        /* \"#utility.yul\":15716:15833   */\n    tag_449:\n        /* \"#utility.yul\":15857:15943   */\n      tag_451\n        /* \"#utility.yul\":15935:15942   */\n      dup9\n        /* \"#utility.yul\":15926:15932   */\n      dup3\n        /* \"#utility.yul\":15915:15924   */\n      dup10\n        /* \"#utility.yul\":15911:15933   */\n      add\n        /* \"#utility.yul\":15857:15943   */\n      tag_255\n      jump\t// in\n    tag_451:\n        /* \"#utility.yul\":15847:15943   */\n      swap5\n      pop\n        /* \"#utility.yul\":15642:15953   */\n      pop\n        /* \"#utility.yul\":16020:16022   */\n      0x40\n        /* \"#utility.yul\":16009:16018   */\n      dup7\n        /* \"#utility.yul\":16005:16023   */\n      add\n        /* \"#utility.yul\":15992:16024   */\n      calldataload\n        /* \"#utility.yul\":16051:16069   */\n      0xffffffffffffffff\n        /* \"#utility.yul\":16043:16049   */\n      dup2\n        /* \"#utility.yul\":16040:16070   */\n      gt\n        /* \"#utility.yul\":16037:16154   */\n      iszero\n      tag_452\n      jumpi\n        /* \"#utility.yul\":16073:16152   */\n      tag_453\n      tag_213\n      jump\t// in\n    tag_453:\n        /* \"#utility.yul\":16037:16154   */\n    tag_452:\n        /* \"#utility.yul\":16178:16264   */\n      tag_454\n        /* \"#utility.yul\":16256:16263   */\n      dup9\n        /* \"#utility.yul\":16247:16253   */\n      dup3\n        /* \"#utility.yul\":16236:16245   */\n      dup10\n        /* \"#utility.yul\":16232:16254   */\n      add\n        /* \"#utility.yul\":16178:16264   */\n      tag_258\n      jump\t// in\n    tag_454:\n        /* \"#utility.yul\":16168:16264   */\n      swap4\n      pop\n        /* \"#utility.yul\":15963:16274   */\n      pop\n        /* \"#utility.yul\":16341:16343   */\n      0x60\n        /* \"#utility.yul\":16330:16339   */\n      dup7\n        /* \"#utility.yul\":16326:16344   */\n      add\n        /* \"#utility.yul\":16313:16345   */\n      calldataload\n        /* \"#utility.yul\":16372:16390   */\n      0xffffffffffffffff\n        /* \"#utility.yul\":16364:16370   */\n      dup2\n        /* \"#utility.yul\":16361:16391   */\n      gt\n        /* \"#utility.yul\":16358:16475   */\n      iszero\n      tag_455\n      jumpi\n        /* \"#utility.yul\":16394:16473   */\n      tag_456\n      tag_213\n      jump\t// in\n    tag_456:\n        /* \"#utility.yul\":16358:16475   */\n    tag_455:\n        /* \"#utility.yul\":16499:16585   */\n      tag_457\n        /* \"#utility.yul\":16577:16584   */\n      dup9\n        /* \"#utility.yul\":16568:16574   */\n      dup3\n        /* \"#utility.yul\":16557:16566   */\n      dup10\n        /* \"#utility.yul\":16553:16575   */\n      add\n        /* \"#utility.yul\":16499:16585   */\n      tag_258\n      jump\t// in\n    tag_457:\n        /* \"#utility.yul\":16489:16585   */\n      swap3\n      pop\n        /* \"#utility.yul\":16284:16595   */\n      pop\n        /* \"#utility.yul\":16662:16665   */\n      0x80\n        /* \"#utility.yul\":16651:16660   */\n      dup7\n        /* \"#utility.yul\":16647:16666   */\n      add\n        /* \"#utility.yul\":16634:16667   */\n      calldataload\n        /* \"#utility.yul\":16694:16712   */\n      0xffffffffffffffff\n        /* \"#utility.yul\":16686:16692   */\n      dup2\n        /* \"#utility.yul\":16683:16713   */\n      gt\n        /* \"#utility.yul\":16680:16797   */\n      iszero\n      tag_458\n      jumpi\n        /* \"#utility.yul\":16716:16795   */\n      tag_459\n      tag_213\n      jump\t// in\n    tag_459:\n        /* \"#utility.yul\":16680:16797   */\n    tag_458:\n        /* \"#utility.yul\":16821:16907   */\n      tag_460\n        /* \"#utility.yul\":16899:16906   */\n      dup9\n        /* \"#utility.yul\":16890:16896   */\n      dup3\n        /* \"#utility.yul\":16879:16888   */\n      dup10\n        /* \"#utility.yul\":16875:16897   */\n      add\n        /* \"#utility.yul\":16821:16907   */\n      tag_258\n      jump\t// in\n    tag_460:\n        /* \"#utility.yul\":16811:16907   */\n      swap2\n      pop\n        /* \"#utility.yul\":16605:16917   */\n      pop\n        /* \"#utility.yul\":15109:16924   */\n      swap3\n      swap6\n      pop\n      swap3\n      swap6\n      swap1\n      swap4\n      pop\n      jump\t// out\n        /* \"#utility.yul\":16930:17404   */\n    tag_34:\n        /* \"#utility.yul\":16998:17004   */\n      0x00\n        /* \"#utility.yul\":17006:17012   */\n      dup1\n        /* \"#utility.yul\":17055:17057   */\n      0x40\n        /* \"#utility.yul\":17043:17052   */\n      dup4\n        /* \"#utility.yul\":17034:17041   */\n      dup6\n        /* \"#utility.yul\":17030:17053   */\n      sub\n        /* \"#utility.yul\":17026:17058   */\n      slt\n        /* \"#utility.yul\":17023:17142   */\n      iszero\n      tag_462\n      jumpi\n        /* \"#utility.yul\":17061:17140   */\n      tag_463\n      tag_212\n      jump\t// in\n    tag_463:\n        /* \"#utility.yul\":17023:17142   */\n    tag_462:\n        /* \"#utility.yul\":17181:17182   */\n      0x00\n        /* \"#utility.yul\":17206:17259   */\n      tag_464\n        /* \"#utility.yul\":17251:17258   */\n      dup6\n        /* \"#utility.yul\":17242:17248   */\n      dup3\n        /* \"#utility.yul\":17231:17240   */\n      dup7\n        /* \"#utility.yul\":17227:17249   */\n      add\n        /* \"#utility.yul\":17206:17259   */\n      tag_217\n      jump\t// in\n    tag_464:\n        /* \"#utility.yul\":17196:17259   */\n      swap3\n      pop\n        /* \"#utility.yul\":17152:17269   */\n      pop\n        /* \"#utility.yul\":17308:17310   */\n      0x20\n        /* \"#utility.yul\":17334:17387   */\n      tag_465\n        /* \"#utility.yul\":17379:17386   */\n      dup6\n        /* \"#utility.yul\":17370:17376   */\n      dup3\n        /* \"#utility.yul\":17359:17368   */\n      dup7\n        /* \"#utility.yul\":17355:17377   */\n      add\n        /* \"#utility.yul\":17334:17387   */\n      tag_217\n      jump\t// in\n    tag_465:\n        /* \"#utility.yul\":17324:17387   */\n      swap2\n      pop\n        /* \"#utility.yul\":17279:17397   */\n      pop\n        /* \"#utility.yul\":16930:17404   */\n      swap3\n      pop\n      swap3\n      swap1\n      pop\n      jump\t// out\n        /* \"#utility.yul\":17410:17487   */\n    tag_259:\n        /* \"#utility.yul\":17447:17454   */\n      0x00\n        /* \"#utility.yul\":17476:17481   */\n      dup2\n        /* \"#utility.yul\":17465:17481   */\n      swap1\n      pop\n        /* \"#utility.yul\":17410:17487   */\n      swap2\n      swap1\n      pop\n      jump\t// out\n        /* \"#utility.yul\":17493:17615   */\n    tag_260:\n        /* \"#utility.yul\":17566:17590   */\n      tag_468\n        /* \"#utility.yul\":17584:17589   */\n      dup2\n        /* \"#utility.yul\":17566:17590   */\n      tag_259\n      jump\t// in\n    tag_468:\n        /* \"#utility.yul\":17559:17564   */\n      dup2\n        /* \"#utility.yul\":17556:17591   */\n      eq\n        /* \"#utility.yul\":17546:17609   */\n      tag_469\n      jumpi\n        /* \"#utility.yul\":17605:17606   */\n      0x00\n        /* \"#utility.yul\":17602:17603   */\n      dup1\n        /* \"#utility.yul\":17595:17607   */\n      revert\n        /* \"#utility.yul\":17546:17609   */\n    tag_469:\n        /* \"#utility.yul\":17493:17615   */\n      pop\n      jump\t// out\n        /* \"#utility.yul\":17621:17760   */\n    tag_261:\n        /* \"#utility.yul\":17667:17672   */\n      0x00\n        /* \"#utility.yul\":17705:17711   */\n      dup2\n        /* \"#utility.yul\":17692:17712   */\n      calldataload\n        /* \"#utility.yul\":17683:17712   */\n      swap1\n      pop\n        /* \"#utility.yul\":17721:17754   */\n      tag_471\n        /* \"#utility.yul\":17748:17753   */\n      dup2\n        /* \"#utility.yul\":17721:17754   */\n      tag_260\n      jump\t// in\n    tag_471:\n        /* \"#utility.yul\":17621:17760   */\n      swap3\n      swap2\n      pop\n      pop\n      jump\t// out\n        /* \"#utility.yul\":17766:19727   */\n    tag_48:\n        /* \"#utility.yul\":18002:18008   */\n      0x00\n        /* \"#utility.yul\":18010:18016   */\n      dup1\n        /* \"#utility.yul\":18018:18024   */\n      0x00\n        /* \"#utility.yul\":18026:18032   */\n      dup1\n        /* \"#utility.yul\":18034:18040   */\n      0x00\n        /* \"#utility.yul\":18042:18048   */\n      dup1\n        /* \"#utility.yul\":18091:18094   */\n      0xc0\n        /* \"#utility.yul\":18079:18088   */\n      dup8\n        /* \"#utility.yul\":18070:18077   */\n      dup10\n        /* \"#utility.yul\":18066:18089   */\n      sub\n        /* \"#utility.yul\":18062:18095   */\n      slt\n        /* \"#utility.yul\":18059:18179   */\n      iszero\n      tag_473\n      jumpi\n        /* \"#utility.yul\":18098:18177   */\n      tag_474\n      tag_212\n      jump\t// in\n    tag_474:\n        /* \"#utility.yul\":18059:18179   */\n    tag_473:\n        /* \"#utility.yul\":18218:18219   */\n      0x00\n        /* \"#utility.yul\":18243:18296   */\n      tag_475\n        /* \"#utility.yul\":18288:18295   */\n      dup10\n        /* \"#utility.yul\":18279:18285   */\n      dup3\n        /* \"#utility.yul\":18268:18277   */\n      dup11\n        /* \"#utility.yul\":18264:18286   */\n      add\n        /* \"#utility.yul\":18243:18296   */\n      tag_217\n      jump\t// in\n    tag_475:\n        /* \"#utility.yul\":18233:18296   */\n      swap7\n      pop\n        /* \"#utility.yul\":18189:18306   */\n      pop\n        /* \"#utility.yul\":18345:18347   */\n      0x20\n        /* \"#utility.yul\":18371:18424   */\n      tag_476\n        /* \"#utility.yul\":18416:18423   */\n      dup10\n        /* \"#utility.yul\":18407:18413   */\n      dup3\n        /* \"#utility.yul\":18396:18405   */\n      dup11\n        /* \"#utility.yul\":18392:18414   */\n      add\n        /* \"#utility.yul\":18371:18424   */\n      tag_261\n      jump\t// in\n    tag_476:\n        /* \"#utility.yul\":18361:18424   */\n      swap6\n      pop\n        /* \"#utility.yul\":18316:18434   */\n      pop\n        /* \"#utility.yul\":18501:18503   */\n      0x40\n        /* \"#utility.yul\":18490:18499   */\n      dup8\n        /* \"#utility.yul\":18486:18504   */\n      add\n        /* \"#utility.yul\":18473:18505   */\n      calldataload\n        /* \"#utility.yul\":18532:18550   */\n      0xffffffffffffffff\n        /* \"#utility.yul\":18524:18530   */\n      dup2\n        /* \"#utility.yul\":18521:18551   */\n      gt\n        /* \"#utility.yul\":18518:18635   */\n      iszero\n      tag_477\n      jumpi\n        /* \"#utility.yul\":18554:18633   */\n      tag_478\n      tag_213\n      jump\t// in\n    tag_478:\n        /* \"#utility.yul\":18518:18635   */\n    tag_477:\n        /* \"#utility.yul\":18659:18745   */\n      tag_479\n        /* \"#utility.yul\":18737:18744   */\n      dup10\n        /* \"#utility.yul\":18728:18734   */\n      dup3\n        /* \"#utility.yul\":18717:18726   */\n      dup11\n        /* \"#utility.yul\":18713:18735   */\n      add\n        /* \"#utility.yul\":18659:18745   */\n      tag_255\n      jump\t// in\n    tag_479:\n        /* \"#utility.yul\":18649:18745   */\n      swap5\n      pop\n        /* \"#utility.yul\":18444:18755   */\n      pop\n        /* \"#utility.yul\":18822:18824   */\n      0x60\n        /* \"#utility.yul\":18811:18820   */\n      dup8\n        /* \"#utility.yul\":18807:18825   */\n      add\n        /* \"#utility.yul\":18794:18826   */\n      calldataload\n        /* \"#utility.yul\":18853:18871   */\n      0xffffffffffffffff\n        /* \"#utility.yul\":18845:18851   */\n      dup2\n        /* \"#utility.yul\":18842:18872   */\n      gt\n        /* \"#utility.yul\":18839:18956   */\n      iszero\n      tag_480\n      jumpi\n        /* \"#utility.yul\":18875:18954   */\n      tag_481\n      tag_213\n      jump\t// in\n    tag_481:\n        /* \"#utility.yul\":18839:18956   */\n    tag_480:\n        /* \"#utility.yul\":18980:19066   */\n      tag_482\n        /* \"#utility.yul\":19058:19065   */\n      dup10\n        /* \"#utility.yul\":19049:19055   */\n      dup3\n        /* \"#utility.yul\":19038:19047   */\n      dup11\n        /* \"#utility.yul\":19034:19056   */\n      add\n        /* \"#utility.yul\":18980:19066   */\n      tag_258\n      jump\t// in\n    tag_482:\n        /* \"#utility.yul\":18970:19066   */\n      swap4\n      pop\n        /* \"#utility.yul\":18765:19076   */\n      pop\n        /* \"#utility.yul\":19143:19146   */\n      0x80\n        /* \"#utility.yul\":19132:19141   */\n      dup8\n        /* \"#utility.yul\":19128:19147   */\n      add\n        /* \"#utility.yul\":19115:19148   */\n      calldataload\n        /* \"#utility.yul\":19175:19193   */\n      0xffffffffffffffff\n        /* \"#utility.yul\":19167:19173   */\n      dup2\n        /* \"#utility.yul\":19164:19194   */\n      gt\n        /* \"#utility.yul\":19161:19278   */\n      iszero\n      tag_483\n      jumpi\n        /* \"#utility.yul\":19197:19276   */\n      tag_484\n      tag_213\n      jump\t// in\n    tag_484:\n        /* \"#utility.yul\":19161:19278   */\n    tag_483:\n        /* \"#utility.yul\":19302:19388   */\n      tag_485\n        /* \"#utility.yul\":19380:19387   */\n      dup10\n        /* \"#utility.yul\":19371:19377   */\n      dup3\n        /* \"#utility.yul\":19360:19369   */\n      dup11\n        /* \"#utility.yul\":19356:19378   */\n      add\n        /* \"#utility.yul\":19302:19388   */\n      tag_258\n      jump\t// in\n    tag_485:\n        /* \"#utility.yul\":19292:19388   */\n      swap3\n      pop\n        /* \"#utility.yul\":19086:19398   */\n      pop\n        /* \"#utility.yul\":19465:19468   */\n      0xa0\n        /* \"#utility.yul\":19454:19463   */\n      dup8\n        /* \"#utility.yul\":19450:19469   */\n      add\n        /* \"#utility.yul\":19437:19470   */\n      calldataload\n        /* \"#utility.yul\":19497:19515   */\n      0xffffffffffffffff\n        /* \"#utility.yul\":19489:19495   */\n      dup2\n        /* \"#utility.yul\":19486:19516   */\n      gt\n        /* \"#utility.yul\":19483:19600   */\n      iszero\n      tag_486\n      jumpi\n        /* \"#utility.yul\":19519:19598   */\n      tag_487\n      tag_213\n      jump\t// in\n    tag_487:\n        /* \"#utility.yul\":19483:19600   */\n    tag_486:\n        /* \"#utility.yul\":19624:19710   */\n      tag_488\n        /* \"#utility.yul\":19702:19709   */\n      dup10\n        /* \"#utility.yul\":19693:19699   */\n      dup3\n        /* \"#utility.yul\":19682:19691   */\n      dup11\n        /* \"#utility.yul\":19678:19700   */\n      add\n        /* \"#utility.yul\":19624:19710   */\n      tag_258\n      jump\t// in\n    tag_488:\n        /* \"#utility.yul\":19614:19710   */\n      swap2\n      pop\n        /* \"#utility.yul\":19408:19720   */\n      pop\n        /* \"#utility.yul\":17766:19727   */\n      swap3\n      swap6\n      pop\n      swap3\n      swap6\n      pop\n      swap3\n      swap6\n      jump\t// out\n        /* \"#utility.yul\":19733:19902   */\n    tag_262:\n        /* \"#utility.yul\":19817:19828   */\n      0x00\n        /* \"#utility.yul\":19851:19857   */\n      dup3\n        /* \"#utility.yul\":19846:19849   */\n      dup3\n        /* \"#utility.yul\":19839:19858   */\n      mstore\n        /* \"#utility.yul\":19891:19895   */\n      0x20\n        /* \"#utility.yul\":19886:19889   */\n      dup3\n        /* \"#utility.yul\":19882:19896   */\n      add\n        /* \"#utility.yul\":19867:19896   */\n      swap1\n      pop\n        /* \"#utility.yul\":19733:19902   */\n      swap3\n      swap2\n      pop\n      pop\n      jump\t// out\n        /* \"#utility.yul\":19908:20155   */\n    tag_263:\n        /* \"#utility.yul\":20048:20082   */\n      0x4f6e6c7920617574686f72697a656420646f63746f7273206f72207468652070\n        /* \"#utility.yul\":20044:20045   */\n      0x00\n        /* \"#utility.yul\":20036:20042   */\n      dup3\n        /* \"#utility.yul\":20032:20046   */\n      add\n        /* \"#utility.yul\":20025:20083   */\n      mstore\n        /* \"#utility.yul\":20117:20147   */\n      0x617469656e742063616e2061636365737320746865207265636f726400000000\n        /* \"#utility.yul\":20112:20114   */\n      0x20\n        /* \"#utility.yul\":20104:20110   */\n      dup3\n        /* \"#utility.yul\":20100:20115   */\n      add\n        /* \"#utility.yul\":20093:20148   */\n      mstore\n        /* \"#utility.yul\":19908:20155   */\n      pop\n      jump\t// out\n        /* \"#utility.yul\":20161:20527   */\n    tag_264:\n        /* \"#utility.yul\":20303:20306   */\n      0x00\n        /* \"#utility.yul\":20324:20391   */\n      tag_492\n        /* \"#utility.yul\":20388:20390   */\n      0x3c\n        /* \"#utility.yul\":20383:20386   */\n      dup4\n        /* \"#utility.yul\":20324:20391   */\n      tag_262\n      jump\t// in\n    tag_492:\n        /* \"#utility.yul\":20317:20391   */\n      swap2\n      pop\n        /* \"#utility.yul\":20400:20493   */\n      tag_493\n        /* \"#utility.yul\":20489:20492   */\n      dup3\n        /* \"#utility.yul\":20400:20493   */\n      tag_263\n      jump\t// in\n    tag_493:\n        /* \"#utility.yul\":20518:20520   */\n      0x40\n        /* \"#utility.yul\":20513:20516   */\n      dup3\n        /* \"#utility.yul\":20509:20521   */\n      add\n        /* \"#utility.yul\":20502:20521   */\n      swap1\n      pop\n        /* \"#utility.yul\":20161:20527   */\n      swap2\n      swap1\n      pop\n      jump\t// out\n        /* \"#utility.yul\":20533:20952   */\n    tag_58:\n        /* \"#utility.yul\":20699:20703   */\n      0x00\n        /* \"#utility.yul\":20737:20739   */\n      0x20\n        /* \"#utility.yul\":20726:20735   */\n      dup3\n        /* \"#utility.yul\":20722:20740   */\n      add\n        /* \"#utility.yul\":20714:20740   */\n      swap1\n      pop\n        /* \"#utility.yul\":20786:20795   */\n      dup2\n        /* \"#utility.yul\":20780:20784   */\n      dup2\n        /* \"#utility.yul\":20776:20796   */\n      sub\n        /* \"#utility.yul\":20772:20773   */\n      0x00\n        /* \"#utility.yul\":20761:20770   */\n      dup4\n        /* \"#utility.yul\":20757:20774   */\n      add\n        /* \"#utility.yul\":20750:20797   */\n      mstore\n        /* \"#utility.yul\":20814:20945   */\n      tag_495\n        /* \"#utility.yul\":20940:20944   */\n      dup2\n        /* \"#utility.yul\":20814:20945   */\n      tag_264\n      jump\t// in\n    tag_495:\n        /* \"#utility.yul\":20806:20945   */\n      swap1\n      pop\n        /* \"#utility.yul\":20533:20952   */\n      swap2\n      swap1\n      pop\n      jump\t// out\n        /* \"#utility.yul\":20958:21138   */\n    tag_265:\n        /* \"#utility.yul\":21006:21083   */\n      0x4e487b7100000000000000000000000000000000000000000000000000000000\n        /* \"#utility.yul\":21003:21004   */\n      0x00\n        /* \"#utility.yul\":20996:21084   */\n      mstore\n        /* \"#utility.yul\":21103:21107   */\n      0x22\n        /* \"#utility.yul\":21100:21101   */\n      0x04\n        /* \"#utility.yul\":21093:21108   */\n      mstore\n        /* \"#utility.yul\":21127:21131   */\n      0x24\n        /* \"#utility.yul\":21124:21125   */\n      0x00\n        /* \"#utility.yul\":21117:21132   */\n      revert\n        /* \"#utility.yul\":21144:21464   */\n    tag_66:\n        /* \"#utility.yul\":21188:21194   */\n      0x00\n        /* \"#utility.yul\":21225:21226   */\n      0x02\n        /* \"#utility.yul\":21219:21223   */\n      dup3\n        /* \"#utility.yul\":21215:21227   */\n      div\n        /* \"#utility.yul\":21205:21227   */\n      swap1\n      pop\n        /* \"#utility.yul\":21272:21273   */\n      0x01\n        /* \"#utility.yul\":21266:21270   */\n      dup3\n        /* \"#utility.yul\":21262:21274   */\n      and\n        /* \"#utility.yul\":21293:21311   */\n      dup1\n        /* \"#utility.yul\":21283:21364   */\n      tag_498\n      jumpi\n        /* \"#utility.yul\":21349:21353   */\n      0x7f\n        /* \"#utility.yul\":21341:21347   */\n      dup3\n        /* \"#utility.yul\":21337:21354   */\n      and\n        /* \"#utility.yul\":21327:21354   */\n      swap2\n      pop\n        /* \"#utility.yul\":21283:21364   */\n    tag_498:\n        /* \"#utility.yul\":21411:21413   */\n      0x20\n        /* \"#utility.yul\":21403:21409   */\n      dup3\n        /* \"#utility.yul\":21400:21414   */\n      lt\n        /* \"#utility.yul\":21380:21398   */\n      dup2\n        /* \"#utility.yul\":21377:21415   */\n      sub\n        /* \"#utility.yul\":21374:21458   */\n      tag_499\n      jumpi\n        /* \"#utility.yul\":21430:21448   */\n      tag_500\n      tag_265\n      jump\t// in\n    tag_500:\n        /* \"#utility.yul\":21374:21458   */\n    tag_499:\n        /* \"#utility.yul\":21195:21464   */\n      pop\n        /* \"#utility.yul\":21144:21464   */\n      swap2\n      swap1\n      pop\n      jump\t// out\n        /* \"#utility.yul\":21470:21692   */\n    tag_266:\n        /* \"#utility.yul\":21610:21644   */\n      0x4f6e6c792061646d696e732063616e20706572666f726d207468697320616374\n        /* \"#utility.yul\":21606:21607   */\n      0x00\n        /* \"#utility.yul\":21598:21604   */\n      dup3\n        /* \"#utility.yul\":21594:21608   */\n      add\n        /* \"#utility.yul\":21587:21645   */\n      mstore\n        /* \"#utility.yul\":21679:21684   */\n      0x696f6e0000000000000000000000000000000000000000000000000000000000\n        /* \"#utility.yul\":21674:21676   */\n      0x20\n        /* \"#utility.yul\":21666:21672   */\n      dup3\n        /* \"#utility.yul\":21662:21677   */\n      add\n        /* \"#utility.yul\":21655:21685   */\n      mstore\n        /* \"#utility.yul\":21470:21692   */\n      pop\n      jump\t// out\n        /* \"#utility.yul\":21698:22064   */\n    tag_267:\n        /* \"#utility.yul\":21840:21843   */\n      0x00\n        /* \"#utility.yul\":21861:21928   */\n      tag_503\n        /* \"#utility.yul\":21925:21927   */\n      0x23\n        /* \"#utility.yul\":21920:21923   */\n      dup4\n        /* \"#utility.yul\":21861:21928   */\n      tag_262\n      jump\t// in\n    tag_503:\n        /* \"#utility.yul\":21854:21928   */\n      swap2\n      pop\n        /* \"#utility.yul\":21937:22030   */\n      tag_504\n        /* \"#utility.yul\":22026:22029   */\n      dup3\n        /* \"#utility.yul\":21937:22030   */\n      tag_266\n      jump\t// in\n    tag_504:\n        /* \"#utility.yul\":22055:22057   */\n      0x40\n        /* \"#utility.yul\":22050:22053   */\n      dup3\n        /* \"#utility.yul\":22046:22058   */\n      add\n        /* \"#utility.yul\":22039:22058   */\n      swap1\n      pop\n        /* \"#utility.yul\":21698:22064   */\n      swap2\n      swap1\n      pop\n      jump\t// out\n        /* \"#utility.yul\":22070:22489   */\n    tag_99:\n        /* \"#utility.yul\":22236:22240   */\n      0x00\n        /* \"#utility.yul\":22274:22276   */\n      0x20\n        /* \"#utility.yul\":22263:22272   */\n      dup3\n        /* \"#utility.yul\":22259:22277   */\n      add\n        /* \"#utility.yul\":22251:22277   */\n      swap1\n      pop\n        /* \"#utility.yul\":22323:22332   */\n      dup2\n        /* \"#utility.yul\":22317:22321   */\n      dup2\n        /* \"#utility.yul\":22313:22333   */\n      sub\n        /* \"#utility.yul\":22309:22310   */\n      0x00\n        /* \"#utility.yul\":22298:22307   */\n      dup4\n        /* \"#utility.yul\":22294:22311   */\n      add\n        /* \"#utility.yul\":22287:22334   */\n      mstore\n        /* \"#utility.yul\":22351:22482   */\n      tag_506\n        /* \"#utility.yul\":22477:22481   */\n      dup2\n        /* \"#utility.yul\":22351:22482   */\n      tag_267\n      jump\t// in\n    tag_506:\n        /* \"#utility.yul\":22343:22482   */\n      swap1\n      pop\n        /* \"#utility.yul\":22070:22489   */\n      swap2\n      swap1\n      pop\n      jump\t// out\n        /* \"#utility.yul\":22495:22729   */\n    tag_268:\n        /* \"#utility.yul\":22635:22669   */\n      0x4f6e6c7920617574686f72697a656420646f63746f72732063616e2070657266\n        /* \"#utility.yul\":22631:22632   */\n      0x00\n        /* \"#utility.yul\":22623:22629   */\n      dup3\n        /* \"#utility.yul\":22619:22633   */\n      add\n        /* \"#utility.yul\":22612:22670   */\n      mstore\n        /* \"#utility.yul\":22704:22721   */\n      0x6f726d207468697320616374696f6e0000000000000000000000000000000000\n        /* \"#utility.yul\":22699:22701   */\n      0x20\n        /* \"#utility.yul\":22691:22697   */\n      dup3\n        /* \"#utility.yul\":22687:22702   */\n      add\n        /* \"#utility.yul\":22680:22722   */\n      mstore\n        /* \"#utility.yul\":22495:22729   */\n      pop\n      jump\t// out\n        /* \"#utility.yul\":22735:23101   */\n    tag_269:\n        /* \"#utility.yul\":22877:22880   */\n      0x00\n        /* \"#utility.yul\":22898:22965   */\n      tag_509\n        /* \"#utility.yul\":22962:22964   */\n      0x2f\n        /* \"#utility.yul\":22957:22960   */\n      dup4\n        /* \"#utility.yul\":22898:22965   */\n      tag_262\n      jump\t// in\n    tag_509:\n        /* \"#utility.yul\":22891:22965   */\n      swap2\n      pop\n        /* \"#utility.yul\":22974:23067   */\n      tag_510\n        /* \"#utility.yul\":23063:23066   */\n      dup3\n        /* \"#utility.yul\":22974:23067   */\n      tag_268\n      jump\t// in\n    tag_510:\n        /* \"#utility.yul\":23092:23094   */\n      0x40\n        /* \"#utility.yul\":23087:23090   */\n      dup3\n        /* \"#utility.yul\":23083:23095   */\n      add\n        /* \"#utility.yul\":23076:23095   */\n      swap1\n      pop\n        /* \"#utility.yul\":22735:23101   */\n      swap2\n      swap1\n      pop\n      jump\t// out\n        /* \"#utility.yul\":23107:23526   */\n    tag_107:\n        /* \"#utility.yul\":23273:23277   */\n      0x00\n        /* \"#utility.yul\":23311:23313   */\n      0x20\n        /* \"#utility.yul\":23300:23309   */\n      dup3\n        /* \"#utility.yul\":23296:23314   */\n      add\n        /* \"#utility.yul\":23288:23314   */\n      swap1\n      pop\n        /* \"#utility.yul\":23360:23369   */\n      dup2\n        /* \"#utility.yul\":23354:23358   */\n      dup2\n        /* \"#utility.yul\":23350:23370   */\n      sub\n        /* \"#utility.yul\":23346:23347   */\n      0x00\n        /* \"#utility.yul\":23335:23344   */\n      dup4\n        /* \"#utility.yul\":23331:23348   */\n      add\n        /* \"#utility.yul\":23324:23371   */\n      mstore\n        /* \"#utility.yul\":23388:23519   */\n      tag_512\n        /* \"#utility.yul\":23514:23518   */\n      dup2\n        /* \"#utility.yul\":23388:23519   */\n      tag_269\n      jump\t// in\n    tag_512:\n        /* \"#utility.yul\":23380:23519   */\n      swap1\n      pop\n        /* \"#utility.yul\":23107:23526   */\n      swap2\n      swap1\n      pop\n      jump\t// out\n        /* \"#utility.yul\":23532:23712   */\n    tag_270:\n        /* \"#utility.yul\":23580:23657   */\n      0x4e487b7100000000000000000000000000000000000000000000000000000000\n        /* \"#utility.yul\":23577:23578   */\n      0x00\n        /* \"#utility.yul\":23570:23658   */\n      mstore\n        /* \"#utility.yul\":23677:23681   */\n      0x11\n        /* \"#utility.yul\":23674:23675   */\n      0x04\n        /* \"#utility.yul\":23667:23682   */\n      mstore\n        /* \"#utility.yul\":23701:23705   */\n      0x24\n        /* \"#utility.yul\":23698:23699   */\n      0x00\n        /* \"#utility.yul\":23691:23706   */\n      revert\n        /* \"#utility.yul\":23718:23912   */\n    tag_117:\n        /* \"#utility.yul\":23758:23762   */\n      0x00\n        /* \"#utility.yul\":23778:23798   */\n      tag_515\n        /* \"#utility.yul\":23796:23797   */\n      dup3\n        /* \"#utility.yul\":23778:23798   */\n      tag_259\n      jump\t// in\n    tag_515:\n        /* \"#utility.yul\":23773:23798   */\n      swap2\n      pop\n        /* \"#utility.yul\":23812:23832   */\n      tag_516\n        /* \"#utility.yul\":23830:23831   */\n      dup4\n        /* \"#utility.yul\":23812:23832   */\n      tag_259\n      jump\t// in\n    tag_516:\n        /* \"#utility.yul\":23807:23832   */\n      swap3\n      pop\n        /* \"#utility.yul\":23856:23857   */\n      dup3\n        /* \"#utility.yul\":23853:23854   */\n      dup3\n        /* \"#utility.yul\":23849:23858   */\n      sub\n        /* \"#utility.yul\":23841:23858   */\n      swap1\n      pop\n        /* \"#utility.yul\":23880:23881   */\n      dup2\n        /* \"#utility.yul\":23874:23878   */\n      dup2\n        /* \"#utility.yul\":23871:23882   */\n      gt\n        /* \"#utility.yul\":23868:23905   */\n      iszero\n      tag_517\n      jumpi\n        /* \"#utility.yul\":23885:23903   */\n      tag_518\n      tag_270\n      jump\t// in\n    tag_518:\n        /* \"#utility.yul\":23868:23905   */\n    tag_517:\n        /* \"#utility.yul\":23718:23912   */\n      swap3\n      swap2\n      pop\n      pop\n      jump\t// out\n        /* \"#utility.yul\":23918:24080   */\n    tag_271:\n        /* \"#utility.yul\":24058:24072   */\n      0x5265636f72642061646465640000000000000000000000000000000000000000\n        /* \"#utility.yul\":24054:24055   */\n      0x00\n        /* \"#utility.yul\":24046:24052   */\n      dup3\n        /* \"#utility.yul\":24042:24056   */\n      add\n        /* \"#utility.yul\":24035:24073   */\n      mstore\n        /* \"#utility.yul\":23918:24080   */\n      pop\n      jump\t// out\n        /* \"#utility.yul\":24086:24452   */\n    tag_272:\n        /* \"#utility.yul\":24228:24231   */\n      0x00\n        /* \"#utility.yul\":24249:24316   */\n      tag_521\n        /* \"#utility.yul\":24313:24315   */\n      0x0c\n        /* \"#utility.yul\":24308:24311   */\n      dup4\n        /* \"#utility.yul\":24249:24316   */\n      tag_262\n      jump\t// in\n    tag_521:\n        /* \"#utility.yul\":24242:24316   */\n      swap2\n      pop\n        /* \"#utility.yul\":24325:24418   */\n      tag_522\n        /* \"#utility.yul\":24414:24417   */\n      dup3\n        /* \"#utility.yul\":24325:24418   */\n      tag_271\n      jump\t// in\n    tag_522:\n        /* \"#utility.yul\":24443:24445   */\n      0x20\n        /* \"#utility.yul\":24438:24441   */\n      dup3\n        /* \"#utility.yul\":24434:24446   */\n      add\n        /* \"#utility.yul\":24427:24446   */\n      swap1\n      pop\n        /* \"#utility.yul\":24086:24452   */\n      swap2\n      swap1\n      pop\n      jump\t// out\n        /* \"#utility.yul\":24458:24877   */\n    tag_119:\n        /* \"#utility.yul\":24624:24628   */\n      0x00\n        /* \"#utility.yul\":24662:24664   */\n      0x20\n        /* \"#utility.yul\":24651:24660   */\n      dup3\n        /* \"#utility.yul\":24647:24665   */\n      add\n        /* \"#utility.yul\":24639:24665   */\n      swap1\n      pop\n        /* \"#utility.yul\":24711:24720   */\n      dup2\n        /* \"#utility.yul\":24705:24709   */\n      dup2\n        /* \"#utility.yul\":24701:24721   */\n      sub\n        /* \"#utility.yul\":24697:24698   */\n      0x00\n        /* \"#utility.yul\":24686:24695   */\n      dup4\n        /* \"#utility.yul\":24682:24699   */\n      add\n        /* \"#utility.yul\":24675:24722   */\n      mstore\n        /* \"#utility.yul\":24739:24870   */\n      tag_524\n        /* \"#utility.yul\":24865:24869   */\n      dup2\n        /* \"#utility.yul\":24739:24870   */\n      tag_272\n      jump\t// in\n    tag_524:\n        /* \"#utility.yul\":24731:24870   */\n      swap1\n      pop\n        /* \"#utility.yul\":24458:24877   */\n      swap2\n      swap1\n      pop\n      jump\t// out\n        /* \"#utility.yul\":24883:25104   */\n    tag_273:\n        /* \"#utility.yul\":25023:25057   */\n      0x4f6e6c79207468652070617469656e742063616e207265766f6b652061636365\n        /* \"#utility.yul\":25019:25020   */\n      0x00\n        /* \"#utility.yul\":25011:25017   */\n      dup3\n        /* \"#utility.yul\":25007:25021   */\n      add\n        /* \"#utility.yul\":25000:25058   */\n      mstore\n        /* \"#utility.yul\":25092:25096   */\n      0x7373000000000000000000000000000000000000000000000000000000000000\n        /* \"#utility.yul\":25087:25089   */\n      0x20\n        /* \"#utility.yul\":25079:25085   */\n      dup3\n        /* \"#utility.yul\":25075:25090   */\n      add\n        /* \"#utility.yul\":25068:25097   */\n      mstore\n        /* \"#utility.yul\":24883:25104   */\n      pop\n      jump\t// out\n        /* \"#utility.yul\":25110:25476   */\n    tag_274:\n        /* \"#utility.yul\":25252:25255   */\n      0x00\n        /* \"#utility.yul\":25273:25340   */\n      tag_527\n        /* \"#utility.yul\":25337:25339   */\n      0x22\n        /* \"#utility.yul\":25332:25335   */\n      dup4\n        /* \"#utility.yul\":25273:25340   */\n      tag_262\n      jump\t// in\n    tag_527:\n        /* \"#utility.yul\":25266:25340   */\n      swap2\n      pop\n        /* \"#utility.yul\":25349:25442   */\n      tag_528\n        /* \"#utility.yul\":25438:25441   */\n      dup3\n        /* \"#utility.yul\":25349:25442   */\n      tag_273\n      jump\t// in\n    tag_528:\n        /* \"#utility.yul\":25467:25469   */\n      0x40\n        /* \"#utility.yul\":25462:25465   */\n      dup3\n        /* \"#utility.yul\":25458:25470   */\n      add\n        /* \"#utility.yul\":25451:25470   */\n      swap1\n      pop\n        /* \"#utility.yul\":25110:25476   */\n      swap2\n      swap1\n      pop\n      jump\t// out\n        /* \"#utility.yul\":25482:25901   */\n    tag_123:\n        /* \"#utility.yul\":25648:25652   */\n      0x00\n        /* \"#utility.yul\":25686:25688   */\n      0x20\n        /* \"#utility.yul\":25675:25684   */\n      dup3\n        /* \"#utility.yul\":25671:25689   */\n      add\n        /* \"#utility.yul\":25663:25689   */\n      swap1\n      pop\n        /* \"#utility.yul\":25735:25744   */\n      dup2\n        /* \"#utility.yul\":25729:25733   */\n      dup2\n        /* \"#utility.yul\":25725:25745   */\n      sub\n        /* \"#utility.yul\":25721:25722   */\n      0x00\n        /* \"#utility.yul\":25710:25719   */\n      dup4\n        /* \"#utility.yul\":25706:25723   */\n      add\n        /* \"#utility.yul\":25699:25746   */\n      mstore\n        /* \"#utility.yul\":25763:25894   */\n      tag_530\n        /* \"#utility.yul\":25889:25893   */\n      dup2\n        /* \"#utility.yul\":25763:25894   */\n      tag_274\n      jump\t// in\n    tag_530:\n        /* \"#utility.yul\":25755:25894   */\n      swap1\n      pop\n        /* \"#utility.yul\":25482:25901   */\n      swap2\n      swap1\n      pop\n      jump\t// out\n        /* \"#utility.yul\":25907:26087   */\n    tag_129:\n        /* \"#utility.yul\":25955:26032   */\n      0x4e487b7100000000000000000000000000000000000000000000000000000000\n        /* \"#utility.yul\":25952:25953   */\n      0x00\n        /* \"#utility.yul\":25945:26033   */\n      mstore\n        /* \"#utility.yul\":26052:26056   */\n      0x32\n        /* \"#utility.yul\":26049:26050   */\n      0x04\n        /* \"#utility.yul\":26042:26057   */\n      mstore\n        /* \"#utility.yul\":26076:26080   */\n      0x24\n        /* \"#utility.yul\":26073:26074   */\n      0x00\n        /* \"#utility.yul\":26066:26081   */\n      revert\n        /* \"#utility.yul\":26093:26326   */\n    tag_136:\n        /* \"#utility.yul\":26132:26135   */\n      0x00\n        /* \"#utility.yul\":26155:26179   */\n      tag_533\n        /* \"#utility.yul\":26173:26178   */\n      dup3\n        /* \"#utility.yul\":26155:26179   */\n      tag_259\n      jump\t// in\n    tag_533:\n        /* \"#utility.yul\":26146:26179   */\n      swap2\n      pop\n        /* \"#utility.yul\":26201:26267   */\n      0xffffffffffffffffffffffffffffffffffffffffffffffffffffffffffffffff\n        /* \"#utility.yul\":26194:26199   */\n      dup3\n        /* \"#utility.yul\":26191:26268   */\n      sub\n        /* \"#utility.yul\":26188:26291   */\n      tag_534\n      jumpi\n        /* \"#utility.yul\":26271:26289   */\n      tag_535\n      tag_270\n      jump\t// in\n    tag_535:\n        /* \"#utility.yul\":26188:26291   */\n    tag_534:\n        /* \"#utility.yul\":26318:26319   */\n      0x01\n        /* \"#utility.yul\":26311:26316   */\n      dup3\n        /* \"#utility.yul\":26307:26320   */\n      add\n        /* \"#utility.yul\":26300:26320   */\n      swap1\n      pop\n        /* \"#utility.yul\":26093:26326   */\n      swap2\n      swap1\n      pop\n      jump\t// out\n        /* \"#utility.yul\":26332:26502   */\n    tag_275:\n        /* \"#utility.yul\":26472:26494   */\n      0x496e76616c6964207265636f726420696e646578000000000000000000000000\n        /* \"#utility.yul\":26468:26469   */\n      0x00\n        /* \"#utility.yul\":26460:26466   */\n      dup3\n        /* \"#utility.yul\":26456:26470   */\n      add\n        /* \"#utility.yul\":26449:26495   */\n      mstore\n        /* \"#utility.yul\":26332:26502   */\n      pop\n      jump\t// out\n        /* \"#utility.yul\":26508:26874   */\n    tag_276:\n        /* \"#utility.yul\":26650:26653   */\n      0x00\n        /* \"#utility.yul\":26671:26738   */\n      tag_538\n        /* \"#utility.yul\":26735:26737   */\n      0x14\n        /* \"#utility.yul\":26730:26733   */\n      dup4\n        /* \"#utility.yul\":26671:26738   */\n      tag_262\n      jump\t// in\n    tag_538:\n        /* \"#utility.yul\":26664:26738   */\n      swap2\n      pop\n        /* \"#utility.yul\":26747:26840   */\n      tag_539\n        /* \"#utility.yul\":26836:26839   */\n      dup3\n        /* \"#utility.yul\":26747:26840   */\n      tag_275\n      jump\t// in\n    tag_539:\n        /* \"#utility.yul\":26865:26867   */\n      0x20\n        /* \"#utility.yul\":26860:26863   */\n      dup3\n        /* \"#utility.yul\":26856:26868   */\n      add\n        /* \"#utility.yul\":26849:26868   */\n      swap1\n      pop\n        /* \"#utility.yul\":26508:26874   */\n      swap2\n      swap1\n      pop\n      jump\t// out\n        /* \"#utility.yul\":26880:27299   */\n    tag_154:\n        /* \"#utility.yul\":27046:27050   */\n      0x00\n        /* \"#utility.yul\":27084:27086   */\n      0x20\n        /* \"#utility.yul\":27073:27082   */\n      dup3\n        /* \"#utility.yul\":27069:27087   */\n      add\n        /* \"#utility.yul\":27061:27087   */\n      swap1\n      pop\n        /* \"#utility.yul\":27133:27142   */\n      dup2\n        /* \"#utility.yul\":27127:27131   */\n      dup2\n        /* \"#utility.yul\":27123:27143   */\n      sub\n        /* \"#utility.yul\":27119:27120   */\n      0x00\n        /* \"#utility.yul\":27108:27117   */\n      dup4\n        /* \"#utility.yul\":27104:27121   */\n      add\n        /* \"#utility.yul\":27097:27144   */\n      mstore\n        /* \"#utility.yul\":27161:27292   */\n      tag_541\n        /* \"#utility.yul\":27287:27291   */\n      dup2\n        /* \"#utility.yul\":27161:27292   */\n      tag_276\n      jump\t// in\n    tag_541:\n        /* \"#utility.yul\":27153:27292   */\n      swap1\n      pop\n        /* \"#utility.yul\":26880:27299   */\n      swap2\n      swap1\n      pop\n      jump\t// out\n        /* \"#utility.yul\":27305:27484   */\n    tag_277:\n        /* \"#utility.yul\":27445:27476   */\n      0x496e76616c6964206e756d626572206f6620766974616c207369676e73000000\n        /* \"#utility.yul\":27441:27442   */\n      0x00\n        /* \"#utility.yul\":27433:27439   */\n      dup3\n        /* \"#utility.yul\":27429:27443   */\n      add\n        /* \"#utility.yul\":27422:27477   */\n      mstore\n        /* \"#utility.yul\":27305:27484   */\n      pop\n      jump\t// out\n        /* \"#utility.yul\":27490:27856   */\n    tag_278:\n        /* \"#utility.yul\":27632:27635   */\n      0x00\n        /* \"#utility.yul\":27653:27720   */\n      tag_544\n        /* \"#utility.yul\":27717:27719   */\n      0x1d\n        /* \"#utility.yul\":27712:27715   */\n      dup4\n        /* \"#utility.yul\":27653:27720   */\n      tag_262\n      jump\t// in\n    tag_544:\n        /* \"#utility.yul\":27646:27720   */\n      swap2\n      pop\n        /* \"#utility.yul\":27729:27822   */\n      tag_545\n        /* \"#utility.yul\":27818:27821   */\n      dup3\n        /* \"#utility.yul\":27729:27822   */\n      tag_277\n      jump\t// in\n    tag_545:\n        /* \"#utility.yul\":27847:27849   */\n      0x20\n        /* \"#utility.yul\":27842:27845   */\n      dup3\n        /* \"#utility.yul\":27838:27850   */\n      add\n        /* \"#utility.yul\":27831:27850   */\n      swap1\n      pop\n        /* \"#utility.yul\":27490:27856   */\n      swap2\n      swap1\n      pop\n      jump\t// out\n        /* \"#utility.yul\":27862:28281   */\n    tag_160:\n        /* \"#utility.yul\":28028:28032   */\n      0x00\n        /* \"#utility.yul\":28066:28068   */\n      0x20\n        /* \"#utility.yul\":28055:28064   */\n      dup3\n        /* \"#utility.yul\":28051:28069   */\n      add\n        /* \"#utility.yul\":28043:28069   */\n      swap1\n      pop\n        /* \"#utility.yul\":28115:28124   */\n      dup2\n        /* \"#utility.yul\":28109:28113   */\n      dup2\n        /* \"#utility.yul\":28105:28125   */\n      sub\n        /* \"#utility.yul\":28101:28102   */\n      0x00\n        /* \"#utility.yul\":28090:28099   */\n      dup4\n        /* \"#utility.yul\":28086:28103   */\n      add\n        /* \"#utility.yul\":28079:28126   */\n      mstore\n        /* \"#utility.yul\":28143:28274   */\n      tag_547\n        /* \"#utility.yul\":28269:28273   */\n      dup2\n        /* \"#utility.yul\":28143:28274   */\n      tag_278\n      jump\t// in\n    tag_547:\n        /* \"#utility.yul\":28135:28274   */\n      swap1\n      pop\n        /* \"#utility.yul\":27862:28281   */\n      swap2\n      swap1\n      pop\n      jump\t// out\n        /* \"#utility.yul\":28287:28509   */\n    tag_279:\n        /* \"#utility.yul\":28427:28461   */\n      0x496e76616c6964206e756d626572206f662074726561746d656e742064657461\n        /* \"#utility.yul\":28423:28424   */\n      0x00\n        /* \"#utility.yul\":28415:28421   */\n      dup3\n        /* \"#utility.yul\":28411:28425   */\n      add\n        /* \"#utility.yul\":28404:28462   */\n      mstore\n        /* \"#utility.yul\":28496:28501   */\n      0x696c730000000000000000000000000000000000000000000000000000000000\n        /* \"#utility.yul\":28491:28493   */\n      0x20\n        /* \"#utility.yul\":28483:28489   */\n      dup3\n        /* \"#utility.yul\":28479:28494   */\n      add\n        /* \"#utility.yul\":28472:28502   */\n      mstore\n        /* \"#utility.yul\":28287:28509   */\n      pop\n      jump\t// out\n        /* \"#utility.yul\":28515:28881   */\n    tag_280:\n        /* \"#utility.yul\":28657:28660   */\n      0x00\n        /* \"#utility.yul\":28678:28745   */\n      tag_550\n        /* \"#utility.yul\":28742:28744   */\n      0x23\n        /* \"#utility.yul\":28737:28740   */\n      dup4\n        /* \"#utility.yul\":28678:28745   */\n      tag_262\n      jump\t// in\n    tag_550:\n        /* \"#utility.yul\":28671:28745   */\n      swap2\n      pop\n        /* \"#utility.yul\":28754:28847   */\n      tag_551\n        /* \"#utility.yul\":28843:28846   */\n      dup3\n        /* \"#utility.yul\":28754:28847   */\n      tag_279\n      jump\t// in\n    tag_551:\n        /* \"#utility.yul\":28872:28874   */\n      0x40\n        /* \"#utility.yul\":28867:28870   */\n      dup3\n        /* \"#utility.yul\":28863:28875   */\n      add\n        /* \"#utility.yul\":28856:28875   */\n      swap1\n      pop\n        /* \"#utility.yul\":28515:28881   */\n      swap2\n      swap1\n      pop\n      jump\t// out\n        /* \"#utility.yul\":28887:29306   */\n    tag_164:\n        /* \"#utility.yul\":29053:29057   */\n      0x00\n        /* \"#utility.yul\":29091:29093   */\n      0x20\n        /* \"#utility.yul\":29080:29089   */\n      dup3\n        /* \"#utility.yul\":29076:29094   */\n      add\n        /* \"#utility.yul\":29068:29094   */\n      swap1\n      pop\n        /* \"#utility.yul\":29140:29149   */\n      dup2\n        /* \"#utility.yul\":29134:29138   */\n      dup2\n        /* \"#utility.yul\":29130:29150   */\n      sub\n        /* \"#utility.yul\":29126:29127   */\n      0x00\n        /* \"#utility.yul\":29115:29124   */\n      dup4\n        /* \"#utility.yul\":29111:29128   */\n      add\n        /* \"#utility.yul\":29104:29151   */\n      mstore\n        /* \"#utility.yul\":29168:29299   */\n      tag_553\n        /* \"#utility.yul\":29294:29298   */\n      dup2\n        /* \"#utility.yul\":29168:29299   */\n      tag_280\n      jump\t// in\n    tag_553:\n        /* \"#utility.yul\":29160:29299   */\n      swap1\n      pop\n        /* \"#utility.yul\":28887:29306   */\n      swap2\n      swap1\n      pop\n      jump\t// out\n        /* \"#utility.yul\":29312:29476   */\n    tag_281:\n        /* \"#utility.yul\":29452:29468   */\n      0x5265636f72642075706461746564000000000000000000000000000000000000\n        /* \"#utility.yul\":29448:29449   */\n      0x00\n        /* \"#utility.yul\":29440:29446   */\n      dup3\n        /* \"#utility.yul\":29436:29450   */\n      add\n        /* \"#utility.yul\":29429:29469   */\n      mstore\n        /* \"#utility.yul\":29312:29476   */\n      pop\n      jump\t// out\n        /* \"#utility.yul\":29482:29848   */\n    tag_282:\n        /* \"#utility.yul\":29624:29627   */\n      0x00\n        /* \"#utility.yul\":29645:29712   */\n      tag_556\n        /* \"#utility.yul\":29709:29711   */\n      0x0e\n        /* \"#utility.yul\":29704:29707   */\n      dup4\n        /* \"#utility.yul\":29645:29712   */\n      tag_262\n      jump\t// in\n    tag_556:\n        /* \"#utility.yul\":29638:29712   */\n      swap2\n      pop\n        /* \"#utility.yul\":29721:29814   */\n      tag_557\n        /* \"#utility.yul\":29810:29813   */\n      dup3\n        /* \"#utility.yul\":29721:29814   */\n      tag_281\n      jump\t// in\n    tag_557:\n        /* \"#utility.yul\":29839:29841   */\n      0x20\n        /* \"#utility.yul\":29834:29837   */\n      dup3\n        /* \"#utility.yul\":29830:29842   */\n      add\n        /* \"#utility.yul\":29823:29842   */\n      swap1\n      pop\n        /* \"#utility.yul\":29482:29848   */\n      swap2\n      swap1\n      pop\n      jump\t// out\n        /* \"#utility.yul\":29854:30273   */\n    tag_169:\n        /* \"#utility.yul\":30020:30024   */\n      0x00\n        /* \"#utility.yul\":30058:30060   */\n      0x20\n        /* \"#utility.yul\":30047:30056   */\n      dup3\n        /* \"#utility.yul\":30043:30061   */\n      add\n        /* \"#utility.yul\":30035:30061   */\n      swap1\n      pop\n        /* \"#utility.yul\":30107:30116   */\n      dup2\n        /* \"#utility.yul\":30101:30105   */\n      dup2\n        /* \"#utility.yul\":30097:30117   */\n      sub\n        /* \"#utility.yul\":30093:30094   */\n      0x00\n        /* \"#utility.yul\":30082:30091   */\n      dup4\n        /* \"#utility.yul\":30078:30095   */\n      add\n        /* \"#utility.yul\":30071:30118   */\n      mstore\n        /* \"#utility.yul\":30135:30266   */\n      tag_559\n        /* \"#utility.yul\":30261:30265   */\n      dup2\n        /* \"#utility.yul\":30135:30266   */\n      tag_282\n      jump\t// in\n    tag_559:\n        /* \"#utility.yul\":30127:30266   */\n      swap1\n      pop\n        /* \"#utility.yul\":29854:30273   */\n      swap2\n      swap1\n      pop\n      jump\t// out\n        /* \"#utility.yul\":30279:30499   */\n    tag_283:\n        /* \"#utility.yul\":30419:30453   */\n      0x4f6e6c79207468652070617469656e742063616e206772616e74206163636573\n        /* \"#utility.yul\":30415:30416   */\n      0x00\n        /* \"#utility.yul\":30407:30413   */\n      dup3\n        /* \"#utility.yul\":30403:30417   */\n      add\n        /* \"#utility.yul\":30396:30454   */\n      mstore\n        /* \"#utility.yul\":30488:30491   */\n      0x7300000000000000000000000000000000000000000000000000000000000000\n        /* \"#utility.yul\":30483:30485   */\n      0x20\n        /* \"#utility.yul\":30475:30481   */\n      dup3\n        /* \"#utility.yul\":30471:30486   */\n      add\n        /* \"#utility.yul\":30464:30492   */\n      mstore\n        /* \"#utility.yul\":30279:30499   */\n      pop\n      jump\t// out\n        /* \"#utility.yul\":30505:30871   */\n    tag_284:\n        /* \"#utility.yul\":30647:30650   */\n      0x00\n        /* \"#utility.yul\":30668:30735   */\n      tag_562\n        /* \"#utility.yul\":30732:30734   */\n      0x21\n        /* \"#utility.yul\":30727:30730   */\n      dup4\n        /* \"#utility.yul\":30668:30735   */\n      tag_262\n      jump\t// in\n    tag_562:\n        /* \"#utility.yul\":30661:30735   */\n      swap2\n      pop\n        /* \"#utility.yul\":30744:30837   */\n      tag_563\n        /* \"#utility.yul\":30833:30836   */\n      dup3\n        /* \"#utility.yul\":30744:30837   */\n      tag_283\n      jump\t// in\n    tag_563:\n        /* \"#utility.yul\":30862:30864   */\n      0x40\n        /* \"#utility.yul\":30857:30860   */\n      dup3\n        /* \"#utility.yul\":30853:30865   */\n      add\n        /* \"#utility.yul\":30846:30865   */\n      swap1\n      pop\n        /* \"#utility.yul\":30505:30871   */\n      swap2\n      swap1\n      pop\n      jump\t// out\n        /* \"#utility.yul\":30877:31296   */\n    tag_173:\n        /* \"#utility.yul\":31043:31047   */\n      0x00\n        /* \"#utility.yul\":31081:31083   */\n      0x20\n        /* \"#utility.yul\":31070:31079   */\n      dup3\n        /* \"#utility.yul\":31066:31084   */\n      add\n        /* \"#utility.yul\":31058:31084   */\n      swap1\n      pop\n        /* \"#utility.yul\":31130:31139   */\n      dup2\n        /* \"#utility.yul\":31124:31128   */\n      dup2\n        /* \"#utility.yul\":31120:31140   */\n      sub\n        /* \"#utility.yul\":31116:31117   */\n      0x00\n        /* \"#utility.yul\":31105:31114   */\n      dup4\n        /* \"#utility.yul\":31101:31118   */\n      add\n        /* \"#utility.yul\":31094:31141   */\n      mstore\n        /* \"#utility.yul\":31158:31289   */\n      tag_565\n        /* \"#utility.yul\":31284:31288   */\n      dup2\n        /* \"#utility.yul\":31158:31289   */\n      tag_284\n      jump\t// in\n    tag_565:\n        /* \"#utility.yul\":31150:31289   */\n      swap1\n      pop\n        /* \"#utility.yul\":30877:31296   */\n      swap2\n      swap1\n      pop\n      jump\t// out\n        /* \"#utility.yul\":31302:31443   */\n    tag_285:\n        /* \"#utility.yul\":31351:31355   */\n      0x00\n        /* \"#utility.yul\":31374:31377   */\n      dup2\n        /* \"#utility.yul\":31366:31377   */\n      swap1\n      pop\n        /* \"#utility.yul\":31397:31400   */\n      dup2\n        /* \"#utility.yul\":31394:31395   */\n      0x00\n        /* \"#utility.yul\":31387:31401   */\n      mstore\n        /* \"#utility.yul\":31431:31435   */\n      0x20\n        /* \"#utility.yul\":31428:31429   */\n      0x00\n        /* \"#utility.yul\":31418:31436   */\n      keccak256\n        /* \"#utility.yul\":31410:31436   */\n      swap1\n      pop\n        /* \"#utility.yul\":31302:31443   */\n      swap2\n      swap1\n      pop\n      jump\t// out\n        /* \"#utility.yul\":31449:31542   */\n    tag_286:\n        /* \"#utility.yul\":31486:31492   */\n      0x00\n        /* \"#utility.yul\":31533:31535   */\n      0x20\n        /* \"#utility.yul\":31528:31530   */\n      0x1f\n        /* \"#utility.yul\":31521:31526   */\n      dup4\n        /* \"#utility.yul\":31517:31531   */\n      add\n        /* \"#utility.yul\":31513:31536   */\n      div\n        /* \"#utility.yul\":31503:31536   */\n      swap1\n      pop\n        /* \"#utility.yul\":31449:31542   */\n      swap2\n      swap1\n      pop\n      jump\t// out\n        /* \"#utility.yul\":31548:31655   */\n    tag_287:\n        /* \"#utility.yul\":31592:31600   */\n      0x00\n        /* \"#utility.yul\":31642:31647   */\n      dup3\n        /* \"#utility.yul\":31636:31640   */\n      dup3\n        /* \"#utility.yul\":31632:31648   */\n      shl\n        /* \"#utility.yul\":31611:31648   */\n      swap1\n      pop\n        /* \"#utility.yul\":31548:31655   */\n      swap3\n      swap2\n      pop\n      pop\n      jump\t// out\n        /* \"#utility.yul\":31661:32054   */\n    tag_288:\n        /* \"#utility.yul\":31730:31736   */\n      0x00\n        /* \"#utility.yul\":31780:31781   */\n      0x08\n        /* \"#utility.yul\":31768:31778   */\n      dup4\n        /* \"#utility.yul\":31764:31782   */\n      mul\n        /* \"#utility.yul\":31803:31900   */\n      tag_570\n        /* \"#utility.yul\":31833:31899   */\n      0xffffffffffffffffffffffffffffffffffffffffffffffffffffffffffffffff\n        /* \"#utility.yul\":31822:31831   */\n      dup3\n        /* \"#utility.yul\":31803:31900   */\n      tag_287\n      jump\t// in\n    tag_570:\n        /* \"#utility.yul\":31921:31960   */\n      tag_571\n        /* \"#utility.yul\":31951:31959   */\n      dup7\n        /* \"#utility.yul\":31940:31949   */\n      dup4\n        /* \"#utility.yul\":31921:31960   */\n      tag_287\n      jump\t// in\n    tag_571:\n        /* \"#utility.yul\":31909:31960   */\n      swap6\n      pop\n        /* \"#utility.yul\":31993:31997   */\n      dup1\n        /* \"#utility.yul\":31989:31998   */\n      not\n        /* \"#utility.yul\":31982:31987   */\n      dup5\n        /* \"#utility.yul\":31978:31999   */\n      and\n        /* \"#utility.yul\":31969:31999   */\n      swap4\n      pop\n        /* \"#utility.yul\":32042:32046   */\n      dup1\n        /* \"#utility.yul\":32032:32040   */\n      dup7\n        /* \"#utility.yul\":32028:32047   */\n      and\n        /* \"#utility.yul\":32021:32026   */\n      dup5\n        /* \"#utility.yul\":32018:32048   */\n      or\n        /* \"#utility.yul\":32008:32048   */\n      swap3\n      pop\n        /* \"#utility.yul\":31737:32054   */\n      pop\n      pop\n        /* \"#utility.yul\":31661:32054   */\n      swap4\n      swap3\n      pop\n      pop\n      pop\n      jump\t// out\n        /* \"#utility.yul\":32060:32120   */\n    tag_289:\n        /* \"#utility.yul\":32088:32091   */\n      0x00\n        /* \"#utility.yul\":32109:32114   */\n      dup2\n        /* \"#utility.yul\":32102:32114   */\n      swap1\n      pop\n        /* \"#utility.yul\":32060:32120   */\n      swap2\n      swap1\n      pop\n      jump\t// out\n        /* \"#utility.yul\":32126:32268   */\n    tag_290:\n        /* \"#utility.yul\":32176:32185   */\n      0x00\n        /* \"#utility.yul\":32209:32262   */\n      tag_574\n        /* \"#utility.yul\":32227:32261   */\n      tag_575\n        /* \"#utility.yul\":32236:32260   */\n      tag_576\n        /* \"#utility.yul\":32254:32259   */\n      dup5\n        /* \"#utility.yul\":32236:32260   */\n      tag_259\n      jump\t// in\n    tag_576:\n        /* \"#utility.yul\":32227:32261   */\n      tag_289\n      jump\t// in\n    tag_575:\n        /* \"#utility.yul\":32209:32262   */\n      tag_259\n      jump\t// in\n    tag_574:\n        /* \"#utility.yul\":32196:32262   */\n      swap1\n      pop\n        /* \"#utility.yul\":32126:32268   */\n      swap2\n      swap1\n      pop\n      jump\t// out\n        /* \"#utility.yul\":32274:32349   */\n    tag_291:\n        /* \"#utility.yul\":32317:32320   */\n      0x00\n        /* \"#utility.yul\":32338:32343   */\n      dup2\n        /* \"#utility.yul\":32331:32343   */\n      swap1\n      pop\n        /* \"#utility.yul\":32274:32349   */\n      swap2\n      swap1\n      pop\n      jump\t// out\n        /* \"#utility.yul\":32355:32624   */\n    tag_292:\n        /* \"#utility.yul\":32465:32504   */\n      tag_579\n        /* \"#utility.yul\":32496:32503   */\n      dup4\n        /* \"#utility.yul\":32465:32504   */\n      tag_290\n      jump\t// in\n    tag_579:\n        /* \"#utility.yul\":32526:32617   */\n      tag_580\n        /* \"#utility.yul\":32575:32616   */\n      tag_581\n        /* \"#utility.yul\":32599:32615   */\n      dup3\n        /* \"#utility.yul\":32575:32616   */\n      tag_291\n      jump\t// in\n    tag_581:\n        /* \"#utility.yul\":32567:32573   */\n      dup5\n        /* \"#utility.yul\":32560:32564   */\n      dup5\n        /* \"#utility.yul\":32554:32565   */\n      sload\n        /* \"#utility.yul\":32526:32617   */\n      tag_288\n      jump\t// in\n    tag_580:\n        /* \"#utility.yul\":32520:32524   */\n      dup3\n        /* \"#utility.yul\":32513:32618   */\n      sstore\n        /* \"#utility.yul\":32431:32624   */\n      pop\n        /* \"#utility.yul\":32355:32624   */\n      pop\n      pop\n      pop\n      jump\t// out\n        /* \"#utility.yul\":32630:32703   */\n    tag_293:\n        /* \"#utility.yul\":32675:32678   */\n      0x00\n        /* \"#utility.yul\":32630:32703   */\n      swap1\n      jump\t// out\n        /* \"#utility.yul\":32709:32898   */\n    tag_294:\n        /* \"#utility.yul\":32786:32818   */\n      tag_584\n      tag_293\n      jump\t// in\n    tag_584:\n        /* \"#utility.yul\":32827:32892   */\n      tag_585\n        /* \"#utility.yul\":32885:32891   */\n      dup2\n        /* \"#utility.yul\":32877:32883   */\n      dup5\n        /* \"#utility.yul\":32871:32875   */\n      dup5\n        /* \"#utility.yul\":32827:32892   */\n      tag_292\n      jump\t// in\n    tag_585:\n        /* \"#utility.yul\":32762:32898   */\n      pop\n        /* \"#utility.yul\":32709:32898   */\n      pop\n      pop\n      jump\t// out\n        /* \"#utility.yul\":32904:33090   */\n    tag_295:\n        /* \"#utility.yul\":32964:33084   */\n    tag_587:\n        /* \"#utility.yul\":32981:32984   */\n      dup2\n        /* \"#utility.yul\":32974:32979   */\n      dup2\n        /* \"#utility.yul\":32971:32985   */\n      lt\n        /* \"#utility.yul\":32964:33084   */\n      iszero\n      tag_589\n      jumpi\n        /* \"#utility.yul\":33035:33074   */\n      tag_590\n        /* \"#utility.yul\":33072:33073   */\n      0x00\n        /* \"#utility.yul\":33065:33070   */\n      dup3\n        /* \"#utility.yul\":33035:33074   */\n      tag_294\n      jump\t// in\n    tag_590:\n        /* \"#utility.yul\":33008:33009   */\n      0x01\n        /* \"#utility.yul\":33001:33006   */\n      dup2\n        /* \"#utility.yul\":32997:33010   */\n      add\n        /* \"#utility.yul\":32988:33010   */\n      swap1\n      pop\n        /* \"#utility.yul\":32964:33084   */\n      jump(tag_587)\n    tag_589:\n        /* \"#utility.yul\":32904:33090   */\n      pop\n      pop\n      jump\t// out\n        /* \"#utility.yul\":33096:33639   */\n    tag_296:\n        /* \"#utility.yul\":33197:33199   */\n      0x1f\n        /* \"#utility.yul\":33192:33195   */\n      dup3\n        /* \"#utility.yul\":33189:33200   */\n      gt\n        /* \"#utility.yul\":33186:33632   */\n      iszero\n      tag_592\n      jumpi\n        /* \"#utility.yul\":33231:33269   */\n      tag_593\n        /* \"#utility.yul\":33263:33268   */\n      dup2\n        /* \"#utility.yul\":33231:33269   */\n      tag_285\n      jump\t// in\n    tag_593:\n        /* \"#utility.yul\":33315:33344   */\n      tag_594\n        /* \"#utility.yul\":33333:33343   */\n      dup5\n        /* \"#utility.yul\":33315:33344   */\n      tag_286\n      jump\t// in\n    tag_594:\n        /* \"#utility.yul\":33305:33313   */\n      dup2\n        /* \"#utility.yul\":33301:33345   */\n      add\n        /* \"#utility.yul\":33498:33500   */\n      0x20\n        /* \"#utility.yul\":33486:33496   */\n      dup6\n        /* \"#utility.yul\":33483:33501   */\n      lt\n        /* \"#utility.yul\":33480:33529   */\n      iszero\n      tag_595\n      jumpi\n        /* \"#utility.yul\":33519:33527   */\n      dup2\n        /* \"#utility.yul\":33504:33527   */\n      swap1\n      pop\n        /* \"#utility.yul\":33480:33529   */\n    tag_595:\n        /* \"#utility.yul\":33542:33622   */\n      tag_596\n        /* \"#utility.yul\":33598:33620   */\n      tag_597\n        /* \"#utility.yul\":33616:33619   */\n      dup6\n        /* \"#utility.yul\":33598:33620   */\n      tag_286\n      jump\t// in\n    tag_597:\n        /* \"#utility.yul\":33588:33596   */\n      dup4\n        /* \"#utility.yul\":33584:33621   */\n      add\n        /* \"#utility.yul\":33571:33582   */\n      dup3\n        /* \"#utility.yul\":33542:33622   */\n      tag_295\n      jump\t// in\n    tag_596:\n        /* \"#utility.yul\":33201:33632   */\n      pop\n      pop\n        /* \"#utility.yul\":33186:33632   */\n    tag_592:\n        /* \"#utility.yul\":33096:33639   */\n      pop\n      pop\n      pop\n      jump\t// out\n        /* \"#utility.yul\":33645:33762   */\n    tag_297:\n        /* \"#utility.yul\":33699:33707   */\n      0x00\n        /* \"#utility.yul\":33749:33754   */\n      dup3\n        /* \"#utility.yul\":33743:33747   */\n      dup3\n        /* \"#utility.yul\":33739:33755   */\n      shr\n        /* \"#utility.yul\":33718:33755   */\n      swap1\n      pop\n        /* \"#utility.yul\":33645:33762   */\n      swap3\n      swap2\n      pop\n      pop\n      jump\t// out\n        /* \"#utility.yul\":33768:33937   */\n    tag_298:\n        /* \"#utility.yul\":33812:33818   */\n      0x00\n        /* \"#utility.yul\":33845:33896   */\n      tag_600\n        /* \"#utility.yul\":33893:33894   */\n      0x00\n        /* \"#utility.yul\":33889:33895   */\n      not\n        /* \"#utility.yul\":33881:33886   */\n      dup5\n        /* \"#utility.yul\":33878:33879   */\n      0x08\n        /* \"#utility.yul\":33874:33887   */\n      mul\n        /* \"#utility.yul\":33845:33896   */\n      tag_297\n      jump\t// in\n    tag_600:\n        /* \"#utility.yul\":33841:33897   */\n      not\n        /* \"#utility.yul\":33926:33930   */\n      dup1\n        /* \"#utility.yul\":33920:33924   */\n      dup4\n        /* \"#utility.yul\":33916:33931   */\n      and\n        /* \"#utility.yul\":33906:33931   */\n      swap2\n      pop\n        /* \"#utility.yul\":33819:33937   */\n      pop\n        /* \"#utility.yul\":33768:33937   */\n      swap3\n      swap2\n      pop\n      pop\n      jump\t// out\n        /* \"#utility.yul\":33942:34237   */\n    tag_299:\n        /* \"#utility.yul\":34018:34022   */\n      0x00\n        /* \"#utility.yul\":34164:34193   */\n      tag_602\n        /* \"#utility.yul\":34189:34192   */\n      dup4\n        /* \"#utility.yul\":34183:34187   */\n      dup4\n        /* \"#utility.yul\":34164:34193   */\n      tag_298\n      jump\t// in\n    tag_602:\n        /* \"#utility.yul\":34156:34193   */\n      swap2\n      pop\n        /* \"#utility.yul\":34226:34229   */\n      dup3\n        /* \"#utility.yul\":34223:34224   */\n      0x02\n        /* \"#utility.yul\":34219:34230   */\n      mul\n        /* \"#utility.yul\":34213:34217   */\n      dup3\n        /* \"#utility.yul\":34210:34231   */\n      or\n        /* \"#utility.yul\":34202:34231   */\n      swap1\n      pop\n        /* \"#utility.yul\":33942:34237   */\n      swap3\n      swap2\n      pop\n      pop\n      jump\t// out\n        /* \"#utility.yul\":34242:35637   */\n    tag_192:\n        /* \"#utility.yul\":34359:34396   */\n      tag_604\n        /* \"#utility.yul\":34392:34395   */\n      dup3\n        /* \"#utility.yul\":34359:34396   */\n      tag_224\n      jump\t// in\n    tag_604:\n        /* \"#utility.yul\":34461:34479   */\n      0xffffffffffffffff\n        /* \"#utility.yul\":34453:34459   */\n      dup2\n        /* \"#utility.yul\":34450:34480   */\n      gt\n        /* \"#utility.yul\":34447:34503   */\n      iszero\n      tag_605\n      jumpi\n        /* \"#utility.yul\":34483:34501   */\n      tag_606\n      tag_244\n      jump\t// in\n    tag_606:\n        /* \"#utility.yul\":34447:34503   */\n    tag_605:\n        /* \"#utility.yul\":34527:34565   */\n      tag_607\n        /* \"#utility.yul\":34559:34563   */\n      dup3\n        /* \"#utility.yul\":34553:34564   */\n      sload\n        /* \"#utility.yul\":34527:34565   */\n      tag_66\n      jump\t// in\n    tag_607:\n        /* \"#utility.yul\":34612:34679   */\n      tag_608\n        /* \"#utility.yul\":34672:34678   */\n      dup3\n        /* \"#utility.yul\":34664:34670   */\n      dup3\n        /* \"#utility.yul\":34658:34662   */\n      dup6\n        /* \"#utility.yul\":34612:34679   */\n      tag_296\n      jump\t// in\n    tag_608:\n        /* \"#utility.yul\":34706:34707   */\n      0x00\n        /* \"#utility.yul\":34730:34734   */\n      0x20\n        /* \"#utility.yul\":34717:34734   */\n      swap1\n      pop\n        /* \"#utility.yul\":34762:34764   */\n      0x1f\n        /* \"#utility.yul\":34754:34760   */\n      dup4\n        /* \"#utility.yul\":34751:34765   */\n      gt\n        /* \"#utility.yul\":34779:34780   */\n      0x01\n        /* \"#utility.yul\":34774:35392   */\n      dup2\n      eq\n      tag_610\n      jumpi\n        /* \"#utility.yul\":35436:35437   */\n      0x00\n        /* \"#utility.yul\":35453:35459   */\n      dup5\n        /* \"#utility.yul\":35450:35527   */\n      iszero\n      tag_611\n      jumpi\n        /* \"#utility.yul\":35502:35511   */\n      dup3\n        /* \"#utility.yul\":35497:35500   */\n      dup8\n        /* \"#utility.yul\":35493:35512   */\n      add\n        /* \"#utility.yul\":35487:35513   */\n      mload\n        /* \"#utility.yul\":35478:35513   */\n      swap1\n      pop\n        /* \"#utility.yul\":35450:35527   */\n    tag_611:\n        /* \"#utility.yul\":35553:35620   */\n      tag_612\n        /* \"#utility.yul\":35613:35619   */\n      dup6\n        /* \"#utility.yul\":35606:35611   */\n      dup3\n        /* \"#utility.yul\":35553:35620   */\n      tag_299\n      jump\t// in\n    tag_612:\n        /* \"#utility.yul\":35547:35551   */\n      dup7\n        /* \"#utility.yul\":35540:35621   */\n      sstore\n        /* \"#utility.yul\":35409:35631   */\n      pop\n        /* \"#utility.yul\":34744:35631   */\n      jump(tag_609)\n        /* \"#utility.yul\":34774:35392   */\n    tag_610:\n        /* \"#utility.yul\":34826:34830   */\n      0x1f\n        /* \"#utility.yul\":34822:34831   */\n      not\n        /* \"#utility.yul\":34814:34820   */\n      dup5\n        /* \"#utility.yul\":34810:34832   */\n      and\n        /* \"#utility.yul\":34860:34897   */\n      tag_613\n        /* \"#utility.yul\":34892:34896   */\n      dup7\n        /* \"#utility.yul\":34860:34897   */\n      tag_285\n      jump\t// in\n    tag_613:\n        /* \"#utility.yul\":34919:34920   */\n      0x00\n        /* \"#utility.yul\":34933:35141   */\n    tag_614:\n        /* \"#utility.yul\":34947:34954   */\n      dup3\n        /* \"#utility.yul\":34944:34945   */\n      dup2\n        /* \"#utility.yul\":34941:34955   */\n      lt\n        /* \"#utility.yul\":34933:35141   */\n      iszero\n      tag_616\n      jumpi\n        /* \"#utility.yul\":35026:35035   */\n      dup5\n        /* \"#utility.yul\":35021:35024   */\n      dup10\n        /* \"#utility.yul\":35017:35036   */\n      add\n        /* \"#utility.yul\":35011:35037   */\n      mload\n        /* \"#utility.yul\":35003:35009   */\n      dup3\n        /* \"#utility.yul\":34996:35038   */\n      sstore\n        /* \"#utility.yul\":35077:35078   */\n      0x01\n        /* \"#utility.yul\":35069:35075   */\n      dup3\n        /* \"#utility.yul\":35065:35079   */\n      add\n        /* \"#utility.yul\":35055:35079   */\n      swap2\n      pop\n        /* \"#utility.yul\":35124:35126   */\n      0x20\n        /* \"#utility.yul\":35113:35122   */\n      dup6\n        /* \"#utility.yul\":35109:35127   */\n      add\n        /* \"#utility.yul\":35096:35127   */\n      swap5\n      pop\n        /* \"#utility.yul\":34970:34974   */\n      0x20\n        /* \"#utility.yul\":34967:34968   */\n      dup2\n        /* \"#utility.yul\":34963:34975   */\n      add\n        /* \"#utility.yul\":34958:34975   */\n      swap1\n      pop\n        /* \"#utility.yul\":34933:35141   */\n      jump(tag_614)\n    tag_616:\n        /* \"#utility.yul\":35169:35175   */\n      dup7\n        /* \"#utility.yul\":35160:35167   */\n      dup4\n        /* \"#utility.yul\":35157:35176   */\n      lt\n        /* \"#utility.yul\":35154:35333   */\n      iszero\n      tag_617\n      jumpi\n        /* \"#utility.yul\":35227:35236   */\n      dup5\n        /* \"#utility.yul\":35222:35225   */\n      dup10\n        /* \"#utility.yul\":35218:35237   */\n      add\n        /* \"#utility.yul\":35212:35238   */\n      mload\n        /* \"#utility.yul\":35270:35318   */\n      tag_618\n        /* \"#utility.yul\":35312:35316   */\n      0x1f\n        /* \"#utility.yul\":35304:35310   */\n      dup10\n        /* \"#utility.yul\":35300:35317   */\n      and\n        /* \"#utility.yul\":35289:35298   */\n      dup3\n        /* \"#utility.yul\":35270:35318   */\n      tag_298\n      jump\t// in\n    tag_618:\n        /* \"#utility.yul\":35262:35268   */\n      dup4\n        /* \"#utility.yul\":35255:35319   */\n      sstore\n        /* \"#utility.yul\":35177:35333   */\n      pop\n        /* \"#utility.yul\":35154:35333   */\n    tag_617:\n        /* \"#utility.yul\":35379:35380   */\n      0x01\n        /* \"#utility.yul\":35375:35376   */\n      0x02\n        /* \"#utility.yul\":35367:35373   */\n      dup9\n        /* \"#utility.yul\":35363:35377   */\n      mul\n        /* \"#utility.yul\":35359:35381   */\n      add\n        /* \"#utility.yul\":35353:35357   */\n      dup9\n        /* \"#utility.yul\":35346:35382   */\n      sstore\n        /* \"#utility.yul\":34781:35392   */\n      pop\n      pop\n      pop\n        /* \"#utility.yul\":34744:35631   */\n    tag_609:\n      pop\n        /* \"#utility.yul\":34334:35637   */\n      pop\n      pop\n      pop\n        /* \"#utility.yul\":34242:35637   */\n      pop\n      pop\n      jump\t// out\n\n    auxdata: 0xa264697066735822122057db981628c46b70602ec6cc1d950b9dfc85bda91068269486dd081c43f34e8164736f6c63430008120033\n}\n",
				"bytecode": {
					"linkReferences": {},
					"object": "608060405234801561001057600080fd5b5061280f806100206000396000f3fe608060405234801561001057600080fd5b506004361061009e5760003560e01c80637d0d6257116100665780637d0d62571461015757806398fc90e914610173578063996440c61461018f578063c06d0bfa146101bf578063c6a09d95146101db5761009e565b806318607174146100a357806324d7806c146100d35780634780468f1461010357806354028a6d1461011f5780635f6ea3401461013b575b600080fd5b6100bd60048036038101906100b89190611617565b6101f7565b6040516100ca9190611966565b60405180910390f35b6100ed60048036038101906100e89190611617565b6106c6565b6040516100fa91906119a3565b60405180910390f35b61011d60048036038101906101189190611617565b61071c565b005b61013960048036038101906101349190611c96565b610803565b005b61015560048036038101906101509190611d81565b610a86565b005b610171600480360381019061016c9190611617565b610c6a565b005b61018d60048036038101906101889190611617565b610d51565b005b6101a960048036038101906101a49190611617565b610e38565b6040516101b691906119a3565b60405180910390f35b6101d960048036038101906101d49190611df7565b610e8e565b005b6101f560048036038101906101f09190611d81565b61113f565b005b6060600160003373ffffffffffffffffffffffffffffffffffffffff1673ffffffffffffffffffffffffffffffffffffffff16815260200190815260200160002060009054906101000a900460ff168061029a5750600260003373ffffffffffffffffffffffffffffffffffffffff1673ffffffffffffffffffffffffffffffffffffffff16815260200190815260200160002060009054906101000a900460ff165b806102d057508173ffffffffffffffffffffffffffffffffffffffff163373ffffffffffffffffffffffffffffffffffffffff16145b61030f576040517f08c379a000000000000000000000000000000000000000000000000000000000815260040161030690611f77565b60405180910390fd5b6000808373ffffffffffffffffffffffffffffffffffffffff1673ffffffffffffffffffffffffffffffffffffffff168152602001908152602001600020805480602002602001604051908101604052809291908181526020016000905b828210156106bb578382906000526020600020906010020160405180608001604052908160008201600780602002604051908101604052809291906000905b8282101561044f5783820180546103c290611fc6565b80601f01602080910402602001604051908101604052809291908181526020018280546103ee90611fc6565b801561043b5780601f106104105761010080835404028352916020019161043b565b820191906000526020600020905b81548152906001019060200180831161041e57829003601f168201915b5050505050815260200190600101906103ac565b50505050815260200160078201600380602002604051908101604052809291906000905b8282101561051657838201805461048990611fc6565b80601f01602080910402602001604051908101604052809291908181526020018280546104b590611fc6565b80156105025780601f106104d757610100808354040283529160200191610502565b820191906000526020600020905b8154815290600101906020018083116104e557829003601f168201915b505050505081526020019060010190610473565b505050508152602001600a8201600380602002604051908101604052809291906000905b828210156105dd57838201805461055090611fc6565b80601f016020809104026020016040519081016040528092919081815260200182805461057c90611fc6565b80156105c95780601f1061059e576101008083540402835291602001916105c9565b820191906000526020600020905b8154815290600101906020018083116105ac57829003601f168201915b50505050508152602001906001019061053a565b505050508152602001600d8201600380602002604051908101604052809291906000905b828210156106a457838201805461061790611fc6565b80601f016020809104026020016040519081016040528092919081815260200182805461064390611fc6565b80156106905780601f1061066557610100808354040283529160200191610690565b820191906000526020600020905b81548152906001019060200180831161067357829003601f168201915b505050505081526020019060010190610601565b50505050815250508152602001906001019061036d565b505050509050919050565b6000600160008373ffffffffffffffffffffffffffffffffffffffff1673ffffffffffffffffffffffffffffffffffffffff16815260200190815260200160002060009054906101000a900460ff169050919050565b600160003373ffffffffffffffffffffffffffffffffffffffff1673ffffffffffffffffffffffffffffffffffffffff16815260200190815260200160002060009054906101000a900460ff166107a8576040517f08c379a000000000000000000000000000000000000000000000000000000000815260040161079f90612069565b60405180910390fd5b6001600260008373ffffffffffffffffffffffffffffffffffffffff1673ffffffffffffffffffffffffffffffffffffffff16815260200190815260200160002060006101000a81548160ff02191690831515021790555050565b84600260003373ffffffffffffffffffffffffffffffffffffffff1673ffffffffffffffffffffffffffffffffffffffff16815260200190815260200160002060009054906101000a900460ff16801561086357506108623382611364565b5b6108a2576040517f08c379a0000000000000000000000000000000000000000000000000000000008152600401610899906120fb565b60405180910390fd5b6001600360008873ffffffffffffffffffffffffffffffffffffffff1673ffffffffffffffffffffffffffffffffffffffff16815260200190815260200160002060006101000a81548160ff0219169083151502179055506000808773ffffffffffffffffffffffffffffffffffffffff1673ffffffffffffffffffffffffffffffffffffffff168152602001908152602001600020604051806080016040528087815260200186815260200185815260200184815250908060018154018082558091505060019003906000526020600020906010020160009091909190915060008201518160000190600761099992919061148c565b506020820151816007019060036109b19291906114d8565b50604082015181600a019060036109c99291906114d8565b50606082015181600d019060036109e19291906114d8565b50505060016000808873ffffffffffffffffffffffffffffffffffffffff1673ffffffffffffffffffffffffffffffffffffffff16815260200190815260200160002080549050610a32919061214a565b8673ffffffffffffffffffffffffffffffffffffffff167f0180386e98bb122883df00ffe5d0b35357a9144b8a48977ce529d5f6817036e7604051610a76906121ca565b60405180910390a3505050505050565b8073ffffffffffffffffffffffffffffffffffffffff163373ffffffffffffffffffffffffffffffffffffffff1614610af4576040517f08c379a0000000000000000000000000000000000000000000000000000000008152600401610aeb9061225c565b60405180910390fd5b6000600460008373ffffffffffffffffffffffffffffffffffffffff1673ffffffffffffffffffffffffffffffffffffffff168152602001908152602001600020905060005b8180549050811015610c0a578373ffffffffffffffffffffffffffffffffffffffff16828281548110610b7057610b6f61227c565b5b9060005260206000200160000160009054906101000a900473ffffffffffffffffffffffffffffffffffffffff1673ffffffffffffffffffffffffffffffffffffffff1603610bf7576000828281548110610bce57610bcd61227c565b5b9060005260206000200160000160146101000a81548160ff021916908315150217905550610c0a565b8080610c02906122ab565b915050610b3a565b508273ffffffffffffffffffffffffffffffffffffffff168273ffffffffffffffffffffffffffffffffffffffff167f825c8be24eb0df19500f63e86c29e7d0d951e73056b889b891d85e40938d9b6e60405160405180910390a3505050565b600160003373ffffffffffffffffffffffffffffffffffffffff1673ffffffffffffffffffffffffffffffffffffffff16815260200190815260200160002060009054906101000a900460ff16610cf6576040517f08c379a0000000000000000000000000000000000000000000000000000000008152600401610ced90612069565b60405180910390fd5b6000600360008373ffffffffffffffffffffffffffffffffffffffff1673ffffffffffffffffffffffffffffffffffffffff16815260200190815260200160002060006101000a81548160ff02191690831515021790555050565b600160003373ffffffffffffffffffffffffffffffffffffffff1673ffffffffffffffffffffffffffffffffffffffff16815260200190815260200160002060009054906101000a900460ff16610ddd576040517f08c379a0000000000000000000000000000000000000000000000000000000008152600401610dd490612069565b60405180910390fd5b6000600260008373ffffffffffffffffffffffffffffffffffffffff1673ffffffffffffffffffffffffffffffffffffffff16815260200190815260200160002060006101000a81548160ff02191690831515021790555050565b6000600260008373ffffffffffffffffffffffffffffffffffffffff1673ffffffffffffffffffffffffffffffffffffffff16815260200190815260200160002060009054906101000a900460ff169050919050565b85600260003373ffffffffffffffffffffffffffffffffffffffff1673ffffffffffffffffffffffffffffffffffffffff16815260200190815260200160002060009054906101000a900460ff168015610eee5750610eed3382611364565b5b610f2d576040517f08c379a0000000000000000000000000000000000000000000000000000000008152600401610f24906120fb565b60405180910390fd5b6000808873ffffffffffffffffffffffffffffffffffffffff1673ffffffffffffffffffffffffffffffffffffffff168152602001908152602001600020805490508610610fb0576040517f08c379a0000000000000000000000000000000000000000000000000000000008152600401610fa79061233f565b60405180910390fd5b60008060008973ffffffffffffffffffffffffffffffffffffffff1673ffffffffffffffffffffffffffffffffffffffff16815260200190815260200160002087815481106110025761100161227c565b5b9060005260206000209060100201905060078014611055576040517f08c379a000000000000000000000000000000000000000000000000000000000815260040161104c906123ab565b60405180910390fd5b858160000190600761106892919061148c565b50600380146110ac576040517f08c379a00000000000000000000000000000000000000000000000000000000081526004016110a39061243d565b60405180910390fd5b84816007019060036110bf9291906114d8565b508381600a019060036110d39291906114d8565b508281600d019060036110e79291906114d8565b50868873ffffffffffffffffffffffffffffffffffffffff167f8074b9f2e259489a64e94a47ace8e1817ef88917e8bb45b720ad9cd4c13adcf260405161112d906124a9565b60405180910390a35050505050505050565b8073ffffffffffffffffffffffffffffffffffffffff163373ffffffffffffffffffffffffffffffffffffffff16146111ad576040517f08c379a00000000000000000000000000000000000000000000000000000000081526004016111a49061253b565b60405180910390fd5b6001600360008373ffffffffffffffffffffffffffffffffffffffff1673ffffffffffffffffffffffffffffffffffffffff16815260200190815260200160002060006101000a81548160ff021916908315150217905550600060405180604001604052808473ffffffffffffffffffffffffffffffffffffffff168152602001600115158152509050600460008373ffffffffffffffffffffffffffffffffffffffff1673ffffffffffffffffffffffffffffffffffffffff168152602001908152602001600020819080600181540180825580915050600190039060005260206000200160009091909190915060008201518160000160006101000a81548173ffffffffffffffffffffffffffffffffffffffff021916908373ffffffffffffffffffffffffffffffffffffffff16021790555060208201518160000160146101000a81548160ff02191690831515021790555050508273ffffffffffffffffffffffffffffffffffffffff168273ffffffffffffffffffffffffffffffffffffffff167f9f520b3bfc56d06f7065d10b4683b3f57ac8895d5026cd176dee95ce1454cb8d60405160405180910390a3505050565b600080600460008473ffffffffffffffffffffffffffffffffffffffff1673ffffffffffffffffffffffffffffffffffffffff168152602001908152602001600020905060005b818054905081101561147f578473ffffffffffffffffffffffffffffffffffffffff168282815481106113e1576113e061227c565b5b9060005260206000200160000160009054906101000a900473ffffffffffffffffffffffffffffffffffffffff1673ffffffffffffffffffffffffffffffffffffffff1614801561145c57508181815481106114405761143f61227c565b5b9060005260206000200160000160149054906101000a900460ff165b1561146c57600192505050611486565b8080611477906122ab565b9150506113ab565b5060009150505b92915050565b82600781019282156114c7579160200282015b828111156114c65782518290816114b69190612707565b509160200191906001019061149f565b5b5090506114d49190611524565b5090565b8260038101928215611513579160200282015b828111156115125782518290816115029190612707565b50916020019190600101906114eb565b5b5090506115209190611524565b5090565b5b80821115611544576000818161153b9190611548565b50600101611525565b5090565b50805461155490611fc6565b6000825580601f106115665750611585565b601f0160209004906000526020600020908101906115849190611588565b5b50565b5b808211156115a1576000816000905550600101611589565b5090565b6000604051905090565b600080fd5b600080fd5b600073ffffffffffffffffffffffffffffffffffffffff82169050919050565b60006115e4826115b9565b9050919050565b6115f4816115d9565b81146115ff57600080fd5b50565b600081359050611611816115eb565b92915050565b60006020828403121561162d5761162c6115af565b5b600061163b84828501611602565b91505092915050565b600081519050919050565b600082825260208201905092915050565b6000819050602082019050919050565b600060079050919050565b600081905092915050565b6000819050919050565b600081519050919050565b600082825260208201905092915050565b60005b838110156116ca5780820151818401526020810190506116af565b60008484015250505050565b6000601f19601f8301169050919050565b60006116f282611690565b6116fc818561169b565b935061170c8185602086016116ac565b611715816116d6565b840191505092915050565b600061172c83836116e7565b905092915050565b6000602082019050919050565b600061174c82611670565b611756818561167b565b93508360208202850161176885611686565b8060005b858110156117a457848403895281516117858582611720565b945061179083611734565b925060208a0199505060018101905061176c565b50829750879550505050505092915050565b600060039050919050565b600081905092915050565b6000819050919050565b6000602082019050919050565b60006117ee826117b6565b6117f881856117c1565b93508360208202850161180a856117cc565b8060005b8581101561184657848403895281516118278582611720565b9450611832836117d6565b925060208a0199505060018101905061180e565b50829750879550505050505092915050565b600060808301600083015184820360008601526118758282611741565b9150506020830151848203602086015261188f82826117e3565b915050604083015184820360408601526118a982826117e3565b915050606083015184820360608601526118c382826117e3565b9150508091505092915050565b60006118dc8383611858565b905092915050565b6000602082019050919050565b60006118fc82611644565b611906818561164f565b93508360208202850161191885611660565b8060005b85811015611954578484038952815161193585826118d0565b9450611940836118e4565b925060208a0199505060018101905061191c565b50829750879550505050505092915050565b6000602082019050818103600083015261198081846118f1565b905092915050565b60008115159050919050565b61199d81611988565b82525050565b60006020820190506119b86000830184611994565b92915050565b600080fd5b7f4e487b7100000000000000000000000000000000000000000000000000000000600052604160045260246000fd5b6119fb826116d6565b810181811067ffffffffffffffff82111715611a1a57611a196119c3565b5b80604052505050565b6000611a2d6115a5565b9050611a3982826119f2565b919050565b600067ffffffffffffffff821115611a5957611a586119c3565b5b602082029050919050565b600080fd5b600080fd5b600067ffffffffffffffff821115611a8957611a886119c3565b5b611a92826116d6565b9050602081019050919050565b82818337600083830152505050565b6000611ac1611abc84611a6e565b611a23565b905082815260208101848484011115611add57611adc611a69565b5b611ae8848285611a9f565b509392505050565b600082601f830112611b0557611b046119be565b5b8135611b15848260208601611aae565b91505092915050565b6000611b31611b2c84611a3e565b611a23565b90508060208402830185811115611b4b57611b4a611a64565b5b835b81811015611b9257803567ffffffffffffffff811115611b7057611b6f6119be565b5b808601611b7d8982611af0565b85526020850194505050602081019050611b4d565b5050509392505050565b600082601f830112611bb157611bb06119be565b5b6007611bbe848285611b1e565b91505092915050565b600067ffffffffffffffff821115611be257611be16119c3565b5b602082029050919050565b6000611c00611bfb84611bc7565b611a23565b90508060208402830185811115611c1a57611c19611a64565b5b835b81811015611c6157803567ffffffffffffffff811115611c3f57611c3e6119be565b5b808601611c4c8982611af0565b85526020850194505050602081019050611c1c565b5050509392505050565b600082601f830112611c8057611c7f6119be565b5b6003611c8d848285611bed565b91505092915050565b600080600080600060a08688031215611cb257611cb16115af565b5b6000611cc088828901611602565b955050602086013567ffffffffffffffff811115611ce157611ce06115b4565b5b611ced88828901611b9c565b945050604086013567ffffffffffffffff811115611d0e57611d0d6115b4565b5b611d1a88828901611c6b565b935050606086013567ffffffffffffffff811115611d3b57611d3a6115b4565b5b611d4788828901611c6b565b925050608086013567ffffffffffffffff811115611d6857611d676115b4565b5b611d7488828901611c6b565b9150509295509295909350565b60008060408385031215611d9857611d976115af565b5b6000611da685828601611602565b9250506020611db785828601611602565b9150509250929050565b6000819050919050565b611dd481611dc1565b8114611ddf57600080fd5b50565b600081359050611df181611dcb565b92915050565b60008060008060008060c08789031215611e1457611e136115af565b5b6000611e2289828a01611602565b9650506020611e3389828a01611de2565b955050604087013567ffffffffffffffff811115611e5457611e536115b4565b5b611e6089828a01611b9c565b945050606087013567ffffffffffffffff811115611e8157611e806115b4565b5b611e8d89828a01611c6b565b935050608087013567ffffffffffffffff811115611eae57611ead6115b4565b5b611eba89828a01611c6b565b92505060a087013567ffffffffffffffff811115611edb57611eda6115b4565b5b611ee789828a01611c6b565b9150509295509295509295565b600082825260208201905092915050565b7f4f6e6c7920617574686f72697a656420646f63746f7273206f7220746865207060008201527f617469656e742063616e2061636365737320746865207265636f726400000000602082015250565b6000611f61603c83611ef4565b9150611f6c82611f05565b604082019050919050565b60006020820190508181036000830152611f9081611f54565b9050919050565b7f4e487b7100000000000000000000000000000000000000000000000000000000600052602260045260246000fd5b60006002820490506001821680611fde57607f821691505b602082108103611ff157611ff0611f97565b5b50919050565b7f4f6e6c792061646d696e732063616e20706572666f726d20746869732061637460008201527f696f6e0000000000000000000000000000000000000000000000000000000000602082015250565b6000612053602383611ef4565b915061205e82611ff7565b604082019050919050565b6000602082019050818103600083015261208281612046565b9050919050565b7f4f6e6c7920617574686f72697a656420646f63746f72732063616e207065726660008201527f6f726d207468697320616374696f6e0000000000000000000000000000000000602082015250565b60006120e5602f83611ef4565b91506120f082612089565b604082019050919050565b60006020820190508181036000830152612114816120d8565b9050919050565b7f4e487b7100000000000000000000000000000000000000000000000000000000600052601160045260246000fd5b600061215582611dc1565b915061216083611dc1565b92508282039050818111156121785761217761211b565b5b92915050565b7f5265636f72642061646465640000000000000000000000000000000000000000600082015250565b60006121b4600c83611ef4565b91506121bf8261217e565b602082019050919050565b600060208201905081810360008301526121e3816121a7565b9050919050565b7f4f6e6c79207468652070617469656e742063616e207265766f6b65206163636560008201527f7373000000000000000000000000000000000000000000000000000000000000602082015250565b6000612246602283611ef4565b9150612251826121ea565b604082019050919050565b6000602082019050818103600083015261227581612239565b9050919050565b7f4e487b7100000000000000000000000000000000000000000000000000000000600052603260045260246000fd5b60006122b682611dc1565b91507fffffffffffffffffffffffffffffffffffffffffffffffffffffffffffffffff82036122e8576122e761211b565b5b600182019050919050565b7f496e76616c6964207265636f726420696e646578000000000000000000000000600082015250565b6000612329601483611ef4565b9150612334826122f3565b602082019050919050565b600060208201905081810360008301526123588161231c565b9050919050565b7f496e76616c6964206e756d626572206f6620766974616c207369676e73000000600082015250565b6000612395601d83611ef4565b91506123a08261235f565b602082019050919050565b600060208201905081810360008301526123c481612388565b9050919050565b7f496e76616c6964206e756d626572206f662074726561746d656e74206465746160008201527f696c730000000000000000000000000000000000000000000000000000000000602082015250565b6000612427602383611ef4565b9150612432826123cb565b604082019050919050565b600060208201905081810360008301526124568161241a565b9050919050565b7f5265636f72642075706461746564000000000000000000000000000000000000600082015250565b6000612493600e83611ef4565b915061249e8261245d565b602082019050919050565b600060208201905081810360008301526124c281612486565b9050919050565b7f4f6e6c79207468652070617469656e742063616e206772616e7420616363657360008201527f7300000000000000000000000000000000000000000000000000000000000000602082015250565b6000612525602183611ef4565b9150612530826124c9565b604082019050919050565b6000602082019050818103600083015261255481612518565b9050919050565b60008190508160005260206000209050919050565b60006020601f8301049050919050565b600082821b905092915050565b6000600883026125bd7fffffffffffffffffffffffffffffffffffffffffffffffffffffffffffffffff82612580565b6125c78683612580565b95508019841693508086168417925050509392505050565b6000819050919050565b60006126046125ff6125fa84611dc1565b6125df565b611dc1565b9050919050565b6000819050919050565b61261e836125e9565b61263261262a8261260b565b84845461258d565b825550505050565b600090565b61264761263a565b612652818484612615565b505050565b5b818110156126765761266b60008261263f565b600181019050612658565b5050565b601f8211156126bb5761268c8161255b565b61269584612570565b810160208510156126a4578190505b6126b86126b085612570565b830182612657565b50505b505050565b600082821c905092915050565b60006126de600019846008026126c0565b1980831691505092915050565b60006126f783836126cd565b9150826002028217905092915050565b61271082611690565b67ffffffffffffffff811115612729576127286119c3565b5b6127338254611fc6565b61273e82828561267a565b600060209050601f831160018114612771576000841561275f578287015190505b61276985826126eb565b8655506127d1565b601f19841661277f8661255b565b60005b828110156127a757848901518255600182019150602085019450602081019050612782565b868310156127c457848901516127c0601f8916826126cd565b8355505b6001600288020188555050505b50505050505056fea264697066735822122057db981628c46b70602ec6cc1d950b9dfc85bda91068269486dd081c43f34e8164736f6c63430008120033",
					"opcodes": "PUSH1 0x80 PUSH1 0x40 MSTORE CALLVALUE DUP1 ISZERO PUSH2 0x10 JUMPI PUSH1 0x0 DUP1 REVERT JUMPDEST POP PUSH2 0x280F DUP1 PUSH2 0x20 PUSH1 0x0 CODECOPY PUSH1 0x0 RETURN INVALID PUSH1 0x80 PUSH1 0x40 MSTORE CALLVALUE DUP1 ISZERO PUSH2 0x10 JUMPI PUSH1 0x0 DUP1 REVERT JUMPDEST POP PUSH1 0x4 CALLDATASIZE LT PUSH2 0x9E JUMPI PUSH1 0x0 CALLDATALOAD PUSH1 0xE0 SHR DUP1 PUSH4 0x7D0D6257 GT PUSH2 0x66 JUMPI DUP1 PUSH4 0x7D0D6257 EQ PUSH2 0x157 JUMPI DUP1 PUSH4 0x98FC90E9 EQ PUSH2 0x173 JUMPI DUP1 PUSH4 0x996440C6 EQ PUSH2 0x18F JUMPI DUP1 PUSH4 0xC06D0BFA EQ PUSH2 0x1BF JUMPI DUP1 PUSH4 0xC6A09D95 EQ PUSH2 0x1DB JUMPI PUSH2 0x9E JUMP JUMPDEST DUP1 PUSH4 0x18607174 EQ PUSH2 0xA3 JUMPI DUP1 PUSH4 0x24D7806C EQ PUSH2 0xD3 JUMPI DUP1 PUSH4 0x4780468F EQ PUSH2 0x103 JUMPI DUP1 PUSH4 0x54028A6D EQ PUSH2 0x11F JUMPI DUP1 PUSH4 0x5F6EA340 EQ PUSH2 0x13B JUMPI JUMPDEST PUSH1 0x0 DUP1 REVERT JUMPDEST PUSH2 0xBD PUSH1 0x4 DUP1 CALLDATASIZE SUB DUP2 ADD SWAP1 PUSH2 0xB8 SWAP2 SWAP1 PUSH2 0x1617 JUMP JUMPDEST PUSH2 0x1F7 JUMP JUMPDEST PUSH1 0x40 MLOAD PUSH2 0xCA SWAP2 SWAP1 PUSH2 0x1966 JUMP JUMPDEST PUSH1 0x40 MLOAD DUP1 SWAP2 SUB SWAP1 RETURN JUMPDEST PUSH2 0xED PUSH1 0x4 DUP1 CALLDATASIZE SUB DUP2 ADD SWAP1 PUSH2 0xE8 SWAP2 SWAP1 PUSH2 0x1617 JUMP JUMPDEST PUSH2 0x6C6 JUMP JUMPDEST PUSH1 0x40 MLOAD PUSH2 0xFA SWAP2 SWAP1 PUSH2 0x19A3 JUMP JUMPDEST PUSH1 0x40 MLOAD DUP1 SWAP2 SUB SWAP1 RETURN JUMPDEST PUSH2 0x11D PUSH1 0x4 DUP1 CALLDATASIZE SUB DUP2 ADD SWAP1 PUSH2 0x118 SWAP2 SWAP1 PUSH2 0x1617 JUMP JUMPDEST PUSH2 0x71C JUMP JUMPDEST STOP JUMPDEST PUSH2 0x139 PUSH1 0x4 DUP1 CALLDATASIZE SUB DUP2 ADD SWAP1 PUSH2 0x134 SWAP2 SWAP1 PUSH2 0x1C96 JUMP JUMPDEST PUSH2 0x803 JUMP JUMPDEST STOP JUMPDEST PUSH2 0x155 PUSH1 0x4 DUP1 CALLDATASIZE SUB DUP2 ADD SWAP1 PUSH2 0x150 SWAP2 SWAP1 PUSH2 0x1D81 JUMP JUMPDEST PUSH2 0xA86 JUMP JUMPDEST STOP JUMPDEST PUSH2 0x171 PUSH1 0x4 DUP1 CALLDATASIZE SUB DUP2 ADD SWAP1 PUSH2 0x16C SWAP2 SWAP1 PUSH2 0x1617 JUMP JUMPDEST PUSH2 0xC6A JUMP JUMPDEST STOP JUMPDEST PUSH2 0x18D PUSH1 0x4 DUP1 CALLDATASIZE SUB DUP2 ADD SWAP1 PUSH2 0x188 SWAP2 SWAP1 PUSH2 0x1617 JUMP JUMPDEST PUSH2 0xD51 JUMP JUMPDEST STOP JUMPDEST PUSH2 0x1A9 PUSH1 0x4 DUP1 CALLDATASIZE SUB DUP2 ADD SWAP1 PUSH2 0x1A4 SWAP2 SWAP1 PUSH2 0x1617 JUMP JUMPDEST PUSH2 0xE38 JUMP JUMPDEST PUSH1 0x40 MLOAD PUSH2 0x1B6 SWAP2 SWAP1 PUSH2 0x19A3 JUMP JUMPDEST PUSH1 0x40 MLOAD DUP1 SWAP2 SUB SWAP1 RETURN JUMPDEST PUSH2 0x1D9 PUSH1 0x4 DUP1 CALLDATASIZE SUB DUP2 ADD SWAP1 PUSH2 0x1D4 SWAP2 SWAP1 PUSH2 0x1DF7 JUMP JUMPDEST PUSH2 0xE8E JUMP JUMPDEST STOP JUMPDEST PUSH2 0x1F5 PUSH1 0x4 DUP1 CALLDATASIZE SUB DUP2 ADD SWAP1 PUSH2 0x1F0 SWAP2 SWAP1 PUSH2 0x1D81 JUMP JUMPDEST PUSH2 0x113F JUMP JUMPDEST STOP JUMPDEST PUSH1 0x60 PUSH1 0x1 PUSH1 0x0 CALLER PUSH20 0xFFFFFFFFFFFFFFFFFFFFFFFFFFFFFFFFFFFFFFFF AND PUSH20 0xFFFFFFFFFFFFFFFFFFFFFFFFFFFFFFFFFFFFFFFF AND DUP2 MSTORE PUSH1 0x20 ADD SWAP1 DUP2 MSTORE PUSH1 0x20 ADD PUSH1 0x0 KECCAK256 PUSH1 0x0 SWAP1 SLOAD SWAP1 PUSH2 0x100 EXP SWAP1 DIV PUSH1 0xFF AND DUP1 PUSH2 0x29A JUMPI POP PUSH1 0x2 PUSH1 0x0 CALLER PUSH20 0xFFFFFFFFFFFFFFFFFFFFFFFFFFFFFFFFFFFFFFFF AND PUSH20 0xFFFFFFFFFFFFFFFFFFFFFFFFFFFFFFFFFFFFFFFF AND DUP2 MSTORE PUSH1 0x20 ADD SWAP1 DUP2 MSTORE PUSH1 0x20 ADD PUSH1 0x0 KECCAK256 PUSH1 0x0 SWAP1 SLOAD SWAP1 PUSH2 0x100 EXP SWAP1 DIV PUSH1 0xFF AND JUMPDEST DUP1 PUSH2 0x2D0 JUMPI POP DUP2 PUSH20 0xFFFFFFFFFFFFFFFFFFFFFFFFFFFFFFFFFFFFFFFF AND CALLER PUSH20 0xFFFFFFFFFFFFFFFFFFFFFFFFFFFFFFFFFFFFFFFF AND EQ JUMPDEST PUSH2 0x30F JUMPI PUSH1 0x40 MLOAD PUSH32 0x8C379A000000000000000000000000000000000000000000000000000000000 DUP2 MSTORE PUSH1 0x4 ADD PUSH2 0x306 SWAP1 PUSH2 0x1F77 JUMP JUMPDEST PUSH1 0x40 MLOAD DUP1 SWAP2 SUB SWAP1 REVERT JUMPDEST PUSH1 0x0 DUP1 DUP4 PUSH20 0xFFFFFFFFFFFFFFFFFFFFFFFFFFFFFFFFFFFFFFFF AND PUSH20 0xFFFFFFFFFFFFFFFFFFFFFFFFFFFFFFFFFFFFFFFF AND DUP2 MSTORE PUSH1 0x20 ADD SWAP1 DUP2 MSTORE PUSH1 0x20 ADD PUSH1 0x0 KECCAK256 DUP1 SLOAD DUP1 PUSH1 0x20 MUL PUSH1 0x20 ADD PUSH1 0x40 MLOAD SWAP1 DUP2 ADD PUSH1 0x40 MSTORE DUP1 SWAP3 SWAP2 SWAP1 DUP2 DUP2 MSTORE PUSH1 0x20 ADD PUSH1 0x0 SWAP1 JUMPDEST DUP3 DUP3 LT ISZERO PUSH2 0x6BB JUMPI DUP4 DUP3 SWAP1 PUSH1 0x0 MSTORE PUSH1 0x20 PUSH1 0x0 KECCAK256 SWAP1 PUSH1 0x10 MUL ADD PUSH1 0x40 MLOAD DUP1 PUSH1 0x80 ADD PUSH1 0x40 MSTORE SWAP1 DUP2 PUSH1 0x0 DUP3 ADD PUSH1 0x7 DUP1 PUSH1 0x20 MUL PUSH1 0x40 MLOAD SWAP1 DUP2 ADD PUSH1 0x40 MSTORE DUP1 SWAP3 SWAP2 SWAP1 PUSH1 0x0 SWAP1 JUMPDEST DUP3 DUP3 LT ISZERO PUSH2 0x44F JUMPI DUP4 DUP3 ADD DUP1 SLOAD PUSH2 0x3C2 SWAP1 PUSH2 0x1FC6 JUMP JUMPDEST DUP1 PUSH1 0x1F ADD PUSH1 0x20 DUP1 SWAP2 DIV MUL PUSH1 0x20 ADD PUSH1 0x40 MLOAD SWAP1 DUP2 ADD PUSH1 0x40 MSTORE DUP1 SWAP3 SWAP2 SWAP1 DUP2 DUP2 MSTORE PUSH1 0x20 ADD DUP3 DUP1 SLOAD PUSH2 0x3EE SWAP1 PUSH2 0x1FC6 JUMP JUMPDEST DUP1 ISZERO PUSH2 0x43B JUMPI DUP1 PUSH1 0x1F LT PUSH2 0x410 JUMPI PUSH2 0x100 DUP1 DUP4 SLOAD DIV MUL DUP4 MSTORE SWAP2 PUSH1 0x20 ADD SWAP2 PUSH2 0x43B JUMP JUMPDEST DUP3 ADD SWAP2 SWAP1 PUSH1 0x0 MSTORE PUSH1 0x20 PUSH1 0x0 KECCAK256 SWAP1 JUMPDEST DUP2 SLOAD DUP2 MSTORE SWAP1 PUSH1 0x1 ADD SWAP1 PUSH1 0x20 ADD DUP1 DUP4 GT PUSH2 0x41E JUMPI DUP3 SWAP1 SUB PUSH1 0x1F AND DUP3 ADD SWAP2 JUMPDEST POP POP POP POP POP DUP2 MSTORE PUSH1 0x20 ADD SWAP1 PUSH1 0x1 ADD SWAP1 PUSH2 0x3AC JUMP JUMPDEST POP POP POP POP DUP2 MSTORE PUSH1 0x20 ADD PUSH1 0x7 DUP3 ADD PUSH1 0x3 DUP1 PUSH1 0x20 MUL PUSH1 0x40 MLOAD SWAP1 DUP2 ADD PUSH1 0x40 MSTORE DUP1 SWAP3 SWAP2 SWAP1 PUSH1 0x0 SWAP1 JUMPDEST DUP3 DUP3 LT ISZERO PUSH2 0x516 JUMPI DUP4 DUP3 ADD DUP1 SLOAD PUSH2 0x489 SWAP1 PUSH2 0x1FC6 JUMP JUMPDEST DUP1 PUSH1 0x1F ADD PUSH1 0x20 DUP1 SWAP2 DIV MUL PUSH1 0x20 ADD PUSH1 0x40 MLOAD SWAP1 DUP2 ADD PUSH1 0x40 MSTORE DUP1 SWAP3 SWAP2 SWAP1 DUP2 DUP2 MSTORE PUSH1 0x20 ADD DUP3 DUP1 SLOAD PUSH2 0x4B5 SWAP1 PUSH2 0x1FC6 JUMP JUMPDEST DUP1 ISZERO PUSH2 0x502 JUMPI DUP1 PUSH1 0x1F LT PUSH2 0x4D7 JUMPI PUSH2 0x100 DUP1 DUP4 SLOAD DIV MUL DUP4 MSTORE SWAP2 PUSH1 0x20 ADD SWAP2 PUSH2 0x502 JUMP JUMPDEST DUP3 ADD SWAP2 SWAP1 PUSH1 0x0 MSTORE PUSH1 0x20 PUSH1 0x0 KECCAK256 SWAP1 JUMPDEST DUP2 SLOAD DUP2 MSTORE SWAP1 PUSH1 0x1 ADD SWAP1 PUSH1 0x20 ADD DUP1 DUP4 GT PUSH2 0x4E5 JUMPI DUP3 SWAP1 SUB PUSH1 0x1F AND DUP3 ADD SWAP2 JUMPDEST POP POP POP POP POP DUP2 MSTORE PUSH1 0x20 ADD SWAP1 PUSH1 0x1 ADD SWAP1 PUSH2 0x473 JUMP JUMPDEST POP POP POP POP DUP2 MSTORE PUSH1 0x20 ADD PUSH1 0xA DUP3 ADD PUSH1 0x3 DUP1 PUSH1 0x20 MUL PUSH1 0x40 MLOAD SWAP1 DUP2 ADD PUSH1 0x40 MSTORE DUP1 SWAP3 SWAP2 SWAP1 PUSH1 0x0 SWAP1 JUMPDEST DUP3 DUP3 LT ISZERO PUSH2 0x5DD JUMPI DUP4 DUP3 ADD DUP1 SLOAD PUSH2 0x550 SWAP1 PUSH2 0x1FC6 JUMP JUMPDEST DUP1 PUSH1 0x1F ADD PUSH1 0x20 DUP1 SWAP2 DIV MUL PUSH1 0x20 ADD PUSH1 0x40 MLOAD SWAP1 DUP2 ADD PUSH1 0x40 MSTORE DUP1 SWAP3 SWAP2 SWAP1 DUP2 DUP2 MSTORE PUSH1 0x20 ADD DUP3 DUP1 SLOAD PUSH2 0x57C SWAP1 PUSH2 0x1FC6 JUMP JUMPDEST DUP1 ISZERO PUSH2 0x5C9 JUMPI DUP1 PUSH1 0x1F LT PUSH2 0x59E JUMPI PUSH2 0x100 DUP1 DUP4 SLOAD DIV MUL DUP4 MSTORE SWAP2 PUSH1 0x20 ADD SWAP2 PUSH2 0x5C9 JUMP JUMPDEST DUP3 ADD SWAP2 SWAP1 PUSH1 0x0 MSTORE PUSH1 0x20 PUSH1 0x0 KECCAK256 SWAP1 JUMPDEST DUP2 SLOAD DUP2 MSTORE SWAP1 PUSH1 0x1 ADD SWAP1 PUSH1 0x20 ADD DUP1 DUP4 GT PUSH2 0x5AC JUMPI DUP3 SWAP1 SUB PUSH1 0x1F AND DUP3 ADD SWAP2 JUMPDEST POP POP POP POP POP DUP2 MSTORE PUSH1 0x20 ADD SWAP1 PUSH1 0x1 ADD SWAP1 PUSH2 0x53A JUMP JUMPDEST POP POP POP POP DUP2 MSTORE PUSH1 0x20 ADD PUSH1 0xD DUP3 ADD PUSH1 0x3 DUP1 PUSH1 0x20 MUL PUSH1 0x40 MLOAD SWAP1 DUP2 ADD PUSH1 0x40 MSTORE DUP1 SWAP3 SWAP2 SWAP1 PUSH1 0x0 SWAP1 JUMPDEST DUP3 DUP3 LT ISZERO PUSH2 0x6A4 JUMPI DUP4 DUP3 ADD DUP1 SLOAD PUSH2 0x617 SWAP1 PUSH2 0x1FC6 JUMP JUMPDEST DUP1 PUSH1 0x1F ADD PUSH1 0x20 DUP1 SWAP2 DIV MUL PUSH1 0x20 ADD PUSH1 0x40 MLOAD SWAP1 DUP2 ADD PUSH1 0x40 MSTORE DUP1 SWAP3 SWAP2 SWAP1 DUP2 DUP2 MSTORE PUSH1 0x20 ADD DUP3 DUP1 SLOAD PUSH2 0x643 SWAP1 PUSH2 0x1FC6 JUMP JUMPDEST DUP1 ISZERO PUSH2 0x690 JUMPI DUP1 PUSH1 0x1F LT PUSH2 0x665 JUMPI PUSH2 0x100 DUP1 DUP4 SLOAD DIV MUL DUP4 MSTORE SWAP2 PUSH1 0x20 ADD SWAP2 PUSH2 0x690 JUMP JUMPDEST DUP3 ADD SWAP2 SWAP1 PUSH1 0x0 MSTORE PUSH1 0x20 PUSH1 0x0 KECCAK256 SWAP1 JUMPDEST DUP2 SLOAD DUP2 MSTORE SWAP1 PUSH1 0x1 ADD SWAP1 PUSH1 0x20 ADD DUP1 DUP4 GT PUSH2 0x673 JUMPI DUP3 SWAP1 SUB PUSH1 0x1F AND DUP3 ADD SWAP2 JUMPDEST POP POP POP POP POP DUP2 MSTORE PUSH1 0x20 ADD SWAP1 PUSH1 0x1 ADD SWAP1 PUSH2 0x601 JUMP JUMPDEST POP POP POP POP DUP2 MSTORE POP POP DUP2 MSTORE PUSH1 0x20 ADD SWAP1 PUSH1 0x1 ADD SWAP1 PUSH2 0x36D JUMP JUMPDEST POP POP POP POP SWAP1 POP SWAP2 SWAP1 POP JUMP JUMPDEST PUSH1 0x0 PUSH1 0x1 PUSH1 0x0 DUP4 PUSH20 0xFFFFFFFFFFFFFFFFFFFFFFFFFFFFFFFFFFFFFFFF AND PUSH20 0xFFFFFFFFFFFFFFFFFFFFFFFFFFFFFFFFFFFFFFFF AND DUP2 MSTORE PUSH1 0x20 ADD SWAP1 DUP2 MSTORE PUSH1 0x20 ADD PUSH1 0x0 KECCAK256 PUSH1 0x0 SWAP1 SLOAD SWAP1 PUSH2 0x100 EXP SWAP1 DIV PUSH1 0xFF AND SWAP1 POP SWAP2 SWAP1 POP JUMP JUMPDEST PUSH1 0x1 PUSH1 0x0 CALLER PUSH20 0xFFFFFFFFFFFFFFFFFFFFFFFFFFFFFFFFFFFFFFFF AND PUSH20 0xFFFFFFFFFFFFFFFFFFFFFFFFFFFFFFFFFFFFFFFF AND DUP2 MSTORE PUSH1 0x20 ADD SWAP1 DUP2 MSTORE PUSH1 0x20 ADD PUSH1 0x0 KECCAK256 PUSH1 0x0 SWAP1 SLOAD SWAP1 PUSH2 0x100 EXP SWAP1 DIV PUSH1 0xFF AND PUSH2 0x7A8 JUMPI PUSH1 0x40 MLOAD PUSH32 0x8C379A000000000000000000000000000000000000000000000000000000000 DUP2 MSTORE PUSH1 0x4 ADD PUSH2 0x79F SWAP1 PUSH2 0x2069 JUMP JUMPDEST PUSH1 0x40 MLOAD DUP1 SWAP2 SUB SWAP1 REVERT JUMPDEST PUSH1 0x1 PUSH1 0x2 PUSH1 0x0 DUP4 PUSH20 0xFFFFFFFFFFFFFFFFFFFFFFFFFFFFFFFFFFFFFFFF AND PUSH20 0xFFFFFFFFFFFFFFFFFFFFFFFFFFFFFFFFFFFFFFFF AND DUP2 MSTORE PUSH1 0x20 ADD SWAP1 DUP2 MSTORE PUSH1 0x20 ADD PUSH1 0x0 KECCAK256 PUSH1 0x0 PUSH2 0x100 EXP DUP2 SLOAD DUP2 PUSH1 0xFF MUL NOT AND SWAP1 DUP4 ISZERO ISZERO MUL OR SWAP1 SSTORE POP POP JUMP JUMPDEST DUP5 PUSH1 0x2 PUSH1 0x0 CALLER PUSH20 0xFFFFFFFFFFFFFFFFFFFFFFFFFFFFFFFFFFFFFFFF AND PUSH20 0xFFFFFFFFFFFFFFFFFFFFFFFFFFFFFFFFFFFFFFFF AND DUP2 MSTORE PUSH1 0x20 ADD SWAP1 DUP2 MSTORE PUSH1 0x20 ADD PUSH1 0x0 KECCAK256 PUSH1 0x0 SWAP1 SLOAD SWAP1 PUSH2 0x100 EXP SWAP1 DIV PUSH1 0xFF AND DUP1 ISZERO PUSH2 0x863 JUMPI POP PUSH2 0x862 CALLER DUP3 PUSH2 0x1364 JUMP JUMPDEST JUMPDEST PUSH2 0x8A2 JUMPI PUSH1 0x40 MLOAD PUSH32 0x8C379A000000000000000000000000000000000000000000000000000000000 DUP2 MSTORE PUSH1 0x4 ADD PUSH2 0x899 SWAP1 PUSH2 0x20FB JUMP JUMPDEST PUSH1 0x40 MLOAD DUP1 SWAP2 SUB SWAP1 REVERT JUMPDEST PUSH1 0x1 PUSH1 0x3 PUSH1 0x0 DUP9 PUSH20 0xFFFFFFFFFFFFFFFFFFFFFFFFFFFFFFFFFFFFFFFF AND PUSH20 0xFFFFFFFFFFFFFFFFFFFFFFFFFFFFFFFFFFFFFFFF AND DUP2 MSTORE PUSH1 0x20 ADD SWAP1 DUP2 MSTORE PUSH1 0x20 ADD PUSH1 0x0 KECCAK256 PUSH1 0x0 PUSH2 0x100 EXP DUP2 SLOAD DUP2 PUSH1 0xFF MUL NOT AND SWAP1 DUP4 ISZERO ISZERO MUL OR SWAP1 SSTORE POP PUSH1 0x0 DUP1 DUP8 PUSH20 0xFFFFFFFFFFFFFFFFFFFFFFFFFFFFFFFFFFFFFFFF AND PUSH20 0xFFFFFFFFFFFFFFFFFFFFFFFFFFFFFFFFFFFFFFFF AND DUP2 MSTORE PUSH1 0x20 ADD SWAP1 DUP2 MSTORE PUSH1 0x20 ADD PUSH1 0x0 KECCAK256 PUSH1 0x40 MLOAD DUP1 PUSH1 0x80 ADD PUSH1 0x40 MSTORE DUP1 DUP8 DUP2 MSTORE PUSH1 0x20 ADD DUP7 DUP2 MSTORE PUSH1 0x20 ADD DUP6 DUP2 MSTORE PUSH1 0x20 ADD DUP5 DUP2 MSTORE POP SWAP1 DUP1 PUSH1 0x1 DUP2 SLOAD ADD DUP1 DUP3 SSTORE DUP1 SWAP2 POP POP PUSH1 0x1 SWAP1 SUB SWAP1 PUSH1 0x0 MSTORE PUSH1 0x20 PUSH1 0x0 KECCAK256 SWAP1 PUSH1 0x10 MUL ADD PUSH1 0x0 SWAP1 SWAP2 SWAP1 SWAP2 SWAP1 SWAP2 POP PUSH1 0x0 DUP3 ADD MLOAD DUP2 PUSH1 0x0 ADD SWAP1 PUSH1 0x7 PUSH2 0x999 SWAP3 SWAP2 SWAP1 PUSH2 0x148C JUMP JUMPDEST POP PUSH1 0x20 DUP3 ADD MLOAD DUP2 PUSH1 0x7 ADD SWAP1 PUSH1 0x3 PUSH2 0x9B1 SWAP3 SWAP2 SWAP1 PUSH2 0x14D8 JUMP JUMPDEST POP PUSH1 0x40 DUP3 ADD MLOAD DUP2 PUSH1 0xA ADD SWAP1 PUSH1 0x3 PUSH2 0x9C9 SWAP3 SWAP2 SWAP1 PUSH2 0x14D8 JUMP JUMPDEST POP PUSH1 0x60 DUP3 ADD MLOAD DUP2 PUSH1 0xD ADD SWAP1 PUSH1 0x3 PUSH2 0x9E1 SWAP3 SWAP2 SWAP1 PUSH2 0x14D8 JUMP JUMPDEST POP POP POP PUSH1 0x1 PUSH1 0x0 DUP1 DUP9 PUSH20 0xFFFFFFFFFFFFFFFFFFFFFFFFFFFFFFFFFFFFFFFF AND PUSH20 0xFFFFFFFFFFFFFFFFFFFFFFFFFFFFFFFFFFFFFFFF AND DUP2 MSTORE PUSH1 0x20 ADD SWAP1 DUP2 MSTORE PUSH1 0x20 ADD PUSH1 0x0 KECCAK256 DUP1 SLOAD SWAP1 POP PUSH2 0xA32 SWAP2 SWAP1 PUSH2 0x214A JUMP JUMPDEST DUP7 PUSH20 0xFFFFFFFFFFFFFFFFFFFFFFFFFFFFFFFFFFFFFFFF AND PUSH32 0x180386E98BB122883DF00FFE5D0B35357A9144B8A48977CE529D5F6817036E7 PUSH1 0x40 MLOAD PUSH2 0xA76 SWAP1 PUSH2 0x21CA JUMP JUMPDEST PUSH1 0x40 MLOAD DUP1 SWAP2 SUB SWAP1 LOG3 POP POP POP POP POP POP JUMP JUMPDEST DUP1 PUSH20 0xFFFFFFFFFFFFFFFFFFFFFFFFFFFFFFFFFFFFFFFF AND CALLER PUSH20 0xFFFFFFFFFFFFFFFFFFFFFFFFFFFFFFFFFFFFFFFF AND EQ PUSH2 0xAF4 JUMPI PUSH1 0x40 MLOAD PUSH32 0x8C379A000000000000000000000000000000000000000000000000000000000 DUP2 MSTORE PUSH1 0x4 ADD PUSH2 0xAEB SWAP1 PUSH2 0x225C JUMP JUMPDEST PUSH1 0x40 MLOAD DUP1 SWAP2 SUB SWAP1 REVERT JUMPDEST PUSH1 0x0 PUSH1 0x4 PUSH1 0x0 DUP4 PUSH20 0xFFFFFFFFFFFFFFFFFFFFFFFFFFFFFFFFFFFFFFFF AND PUSH20 0xFFFFFFFFFFFFFFFFFFFFFFFFFFFFFFFFFFFFFFFF AND DUP2 MSTORE PUSH1 0x20 ADD SWAP1 DUP2 MSTORE PUSH1 0x20 ADD PUSH1 0x0 KECCAK256 SWAP1 POP PUSH1 0x0 JUMPDEST DUP2 DUP1 SLOAD SWAP1 POP DUP2 LT ISZERO PUSH2 0xC0A JUMPI DUP4 PUSH20 0xFFFFFFFFFFFFFFFFFFFFFFFFFFFFFFFFFFFFFFFF AND DUP3 DUP3 DUP2 SLOAD DUP2 LT PUSH2 0xB70 JUMPI PUSH2 0xB6F PUSH2 0x227C JUMP JUMPDEST JUMPDEST SWAP1 PUSH1 0x0 MSTORE PUSH1 0x20 PUSH1 0x0 KECCAK256 ADD PUSH1 0x0 ADD PUSH1 0x0 SWAP1 SLOAD SWAP1 PUSH2 0x100 EXP SWAP1 DIV PUSH20 0xFFFFFFFFFFFFFFFFFFFFFFFFFFFFFFFFFFFFFFFF AND PUSH20 0xFFFFFFFFFFFFFFFFFFFFFFFFFFFFFFFFFFFFFFFF AND SUB PUSH2 0xBF7 JUMPI PUSH1 0x0 DUP3 DUP3 DUP2 SLOAD DUP2 LT PUSH2 0xBCE JUMPI PUSH2 0xBCD PUSH2 0x227C JUMP JUMPDEST JUMPDEST SWAP1 PUSH1 0x0 MSTORE PUSH1 0x20 PUSH1 0x0 KECCAK256 ADD PUSH1 0x0 ADD PUSH1 0x14 PUSH2 0x100 EXP DUP2 SLOAD DUP2 PUSH1 0xFF MUL NOT AND SWAP1 DUP4 ISZERO ISZERO MUL OR SWAP1 SSTORE POP PUSH2 0xC0A JUMP JUMPDEST DUP1 DUP1 PUSH2 0xC02 SWAP1 PUSH2 0x22AB JUMP JUMPDEST SWAP2 POP POP PUSH2 0xB3A JUMP JUMPDEST POP DUP3 PUSH20 0xFFFFFFFFFFFFFFFFFFFFFFFFFFFFFFFFFFFFFFFF AND DUP3 PUSH20 0xFFFFFFFFFFFFFFFFFFFFFFFFFFFFFFFFFFFFFFFF AND PUSH32 0x825C8BE24EB0DF19500F63E86C29E7D0D951E73056B889B891D85E40938D9B6E PUSH1 0x40 MLOAD PUSH1 0x40 MLOAD DUP1 SWAP2 SUB SWAP1 LOG3 POP POP POP JUMP JUMPDEST PUSH1 0x1 PUSH1 0x0 CALLER PUSH20 0xFFFFFFFFFFFFFFFFFFFFFFFFFFFFFFFFFFFFFFFF AND PUSH20 0xFFFFFFFFFFFFFFFFFFFFFFFFFFFFFFFFFFFFFFFF AND DUP2 MSTORE PUSH1 0x20 ADD SWAP1 DUP2 MSTORE PUSH1 0x20 ADD PUSH1 0x0 KECCAK256 PUSH1 0x0 SWAP1 SLOAD SWAP1 PUSH2 0x100 EXP SWAP1 DIV PUSH1 0xFF AND PUSH2 0xCF6 JUMPI PUSH1 0x40 MLOAD PUSH32 0x8C379A000000000000000000000000000000000000000000000000000000000 DUP2 MSTORE PUSH1 0x4 ADD PUSH2 0xCED SWAP1 PUSH2 0x2069 JUMP JUMPDEST PUSH1 0x40 MLOAD DUP1 SWAP2 SUB SWAP1 REVERT JUMPDEST PUSH1 0x0 PUSH1 0x3 PUSH1 0x0 DUP4 PUSH20 0xFFFFFFFFFFFFFFFFFFFFFFFFFFFFFFFFFFFFFFFF AND PUSH20 0xFFFFFFFFFFFFFFFFFFFFFFFFFFFFFFFFFFFFFFFF AND DUP2 MSTORE PUSH1 0x20 ADD SWAP1 DUP2 MSTORE PUSH1 0x20 ADD PUSH1 0x0 KECCAK256 PUSH1 0x0 PUSH2 0x100 EXP DUP2 SLOAD DUP2 PUSH1 0xFF MUL NOT AND SWAP1 DUP4 ISZERO ISZERO MUL OR SWAP1 SSTORE POP POP JUMP JUMPDEST PUSH1 0x1 PUSH1 0x0 CALLER PUSH20 0xFFFFFFFFFFFFFFFFFFFFFFFFFFFFFFFFFFFFFFFF AND PUSH20 0xFFFFFFFFFFFFFFFFFFFFFFFFFFFFFFFFFFFFFFFF AND DUP2 MSTORE PUSH1 0x20 ADD SWAP1 DUP2 MSTORE PUSH1 0x20 ADD PUSH1 0x0 KECCAK256 PUSH1 0x0 SWAP1 SLOAD SWAP1 PUSH2 0x100 EXP SWAP1 DIV PUSH1 0xFF AND PUSH2 0xDDD JUMPI PUSH1 0x40 MLOAD PUSH32 0x8C379A000000000000000000000000000000000000000000000000000000000 DUP2 MSTORE PUSH1 0x4 ADD PUSH2 0xDD4 SWAP1 PUSH2 0x2069 JUMP JUMPDEST PUSH1 0x40 MLOAD DUP1 SWAP2 SUB SWAP1 REVERT JUMPDEST PUSH1 0x0 PUSH1 0x2 PUSH1 0x0 DUP4 PUSH20 0xFFFFFFFFFFFFFFFFFFFFFFFFFFFFFFFFFFFFFFFF AND PUSH20 0xFFFFFFFFFFFFFFFFFFFFFFFFFFFFFFFFFFFFFFFF AND DUP2 MSTORE PUSH1 0x20 ADD SWAP1 DUP2 MSTORE PUSH1 0x20 ADD PUSH1 0x0 KECCAK256 PUSH1 0x0 PUSH2 0x100 EXP DUP2 SLOAD DUP2 PUSH1 0xFF MUL NOT AND SWAP1 DUP4 ISZERO ISZERO MUL OR SWAP1 SSTORE POP POP JUMP JUMPDEST PUSH1 0x0 PUSH1 0x2 PUSH1 0x0 DUP4 PUSH20 0xFFFFFFFFFFFFFFFFFFFFFFFFFFFFFFFFFFFFFFFF AND PUSH20 0xFFFFFFFFFFFFFFFFFFFFFFFFFFFFFFFFFFFFFFFF AND DUP2 MSTORE PUSH1 0x20 ADD SWAP1 DUP2 MSTORE PUSH1 0x20 ADD PUSH1 0x0 KECCAK256 PUSH1 0x0 SWAP1 SLOAD SWAP1 PUSH2 0x100 EXP SWAP1 DIV PUSH1 0xFF AND SWAP1 POP SWAP2 SWAP1 POP JUMP JUMPDEST DUP6 PUSH1 0x2 PUSH1 0x0 CALLER PUSH20 0xFFFFFFFFFFFFFFFFFFFFFFFFFFFFFFFFFFFFFFFF AND PUSH20 0xFFFFFFFFFFFFFFFFFFFFFFFFFFFFFFFFFFFFFFFF AND DUP2 MSTORE PUSH1 0x20 ADD SWAP1 DUP2 MSTORE PUSH1 0x20 ADD PUSH1 0x0 KECCAK256 PUSH1 0x0 SWAP1 SLOAD SWAP1 PUSH2 0x100 EXP SWAP1 DIV PUSH1 0xFF AND DUP1 ISZERO PUSH2 0xEEE JUMPI POP PUSH2 0xEED CALLER DUP3 PUSH2 0x1364 JUMP JUMPDEST JUMPDEST PUSH2 0xF2D JUMPI PUSH1 0x40 MLOAD PUSH32 0x8C379A000000000000000000000000000000000000000000000000000000000 DUP2 MSTORE PUSH1 0x4 ADD PUSH2 0xF24 SWAP1 PUSH2 0x20FB JUMP JUMPDEST PUSH1 0x40 MLOAD DUP1 SWAP2 SUB SWAP1 REVERT JUMPDEST PUSH1 0x0 DUP1 DUP9 PUSH20 0xFFFFFFFFFFFFFFFFFFFFFFFFFFFFFFFFFFFFFFFF AND PUSH20 0xFFFFFFFFFFFFFFFFFFFFFFFFFFFFFFFFFFFFFFFF AND DUP2 MSTORE PUSH1 0x20 ADD SWAP1 DUP2 MSTORE PUSH1 0x20 ADD PUSH1 0x0 KECCAK256 DUP1 SLOAD SWAP1 POP DUP7 LT PUSH2 0xFB0 JUMPI PUSH1 0x40 MLOAD PUSH32 0x8C379A000000000000000000000000000000000000000000000000000000000 DUP2 MSTORE PUSH1 0x4 ADD PUSH2 0xFA7 SWAP1 PUSH2 0x233F JUMP JUMPDEST PUSH1 0x40 MLOAD DUP1 SWAP2 SUB SWAP1 REVERT JUMPDEST PUSH1 0x0 DUP1 PUSH1 0x0 DUP10 PUSH20 0xFFFFFFFFFFFFFFFFFFFFFFFFFFFFFFFFFFFFFFFF AND PUSH20 0xFFFFFFFFFFFFFFFFFFFFFFFFFFFFFFFFFFFFFFFF AND DUP2 MSTORE PUSH1 0x20 ADD SWAP1 DUP2 MSTORE PUSH1 0x20 ADD PUSH1 0x0 KECCAK256 DUP8 DUP2 SLOAD DUP2 LT PUSH2 0x1002 JUMPI PUSH2 0x1001 PUSH2 0x227C JUMP JUMPDEST JUMPDEST SWAP1 PUSH1 0x0 MSTORE PUSH1 0x20 PUSH1 0x0 KECCAK256 SWAP1 PUSH1 0x10 MUL ADD SWAP1 POP PUSH1 0x7 DUP1 EQ PUSH2 0x1055 JUMPI PUSH1 0x40 MLOAD PUSH32 0x8C379A000000000000000000000000000000000000000000000000000000000 DUP2 MSTORE PUSH1 0x4 ADD PUSH2 0x104C SWAP1 PUSH2 0x23AB JUMP JUMPDEST PUSH1 0x40 MLOAD DUP1 SWAP2 SUB SWAP1 REVERT JUMPDEST DUP6 DUP2 PUSH1 0x0 ADD SWAP1 PUSH1 0x7 PUSH2 0x1068 SWAP3 SWAP2 SWAP1 PUSH2 0x148C JUMP JUMPDEST POP PUSH1 0x3 DUP1 EQ PUSH2 0x10AC JUMPI PUSH1 0x40 MLOAD PUSH32 0x8C379A000000000000000000000000000000000000000000000000000000000 DUP2 MSTORE PUSH1 0x4 ADD PUSH2 0x10A3 SWAP1 PUSH2 0x243D JUMP JUMPDEST PUSH1 0x40 MLOAD DUP1 SWAP2 SUB SWAP1 REVERT JUMPDEST DUP5 DUP2 PUSH1 0x7 ADD SWAP1 PUSH1 0x3 PUSH2 0x10BF SWAP3 SWAP2 SWAP1 PUSH2 0x14D8 JUMP JUMPDEST POP DUP4 DUP2 PUSH1 0xA ADD SWAP1 PUSH1 0x3 PUSH2 0x10D3 SWAP3 SWAP2 SWAP1 PUSH2 0x14D8 JUMP JUMPDEST POP DUP3 DUP2 PUSH1 0xD ADD SWAP1 PUSH1 0x3 PUSH2 0x10E7 SWAP3 SWAP2 SWAP1 PUSH2 0x14D8 JUMP JUMPDEST POP DUP7 DUP9 PUSH20 0xFFFFFFFFFFFFFFFFFFFFFFFFFFFFFFFFFFFFFFFF AND PUSH32 0x8074B9F2E259489A64E94A47ACE8E1817EF88917E8BB45B720AD9CD4C13ADCF2 PUSH1 0x40 MLOAD PUSH2 0x112D SWAP1 PUSH2 0x24A9 JUMP JUMPDEST PUSH1 0x40 MLOAD DUP1 SWAP2 SUB SWAP1 LOG3 POP POP POP POP POP POP POP POP JUMP JUMPDEST DUP1 PUSH20 0xFFFFFFFFFFFFFFFFFFFFFFFFFFFFFFFFFFFFFFFF AND CALLER PUSH20 0xFFFFFFFFFFFFFFFFFFFFFFFFFFFFFFFFFFFFFFFF AND EQ PUSH2 0x11AD JUMPI PUSH1 0x40 MLOAD PUSH32 0x8C379A000000000000000000000000000000000000000000000000000000000 DUP2 MSTORE PUSH1 0x4 ADD PUSH2 0x11A4 SWAP1 PUSH2 0x253B JUMP JUMPDEST PUSH1 0x40 MLOAD DUP1 SWAP2 SUB SWAP1 REVERT JUMPDEST PUSH1 0x1 PUSH1 0x3 PUSH1 0x0 DUP4 PUSH20 0xFFFFFFFFFFFFFFFFFFFFFFFFFFFFFFFFFFFFFFFF AND PUSH20 0xFFFFFFFFFFFFFFFFFFFFFFFFFFFFFFFFFFFFFFFF AND DUP2 MSTORE PUSH1 0x20 ADD SWAP1 DUP2 MSTORE PUSH1 0x20 ADD PUSH1 0x0 KECCAK256 PUSH1 0x0 PUSH2 0x100 EXP DUP2 SLOAD DUP2 PUSH1 0xFF MUL NOT AND SWAP1 DUP4 ISZERO ISZERO MUL OR SWAP1 SSTORE POP PUSH1 0x0 PUSH1 0x40 MLOAD DUP1 PUSH1 0x40 ADD PUSH1 0x40 MSTORE DUP1 DUP5 PUSH20 0xFFFFFFFFFFFFFFFFFFFFFFFFFFFFFFFFFFFFFFFF AND DUP2 MSTORE PUSH1 0x20 ADD PUSH1 0x1 ISZERO ISZERO DUP2 MSTORE POP SWAP1 POP PUSH1 0x4 PUSH1 0x0 DUP4 PUSH20 0xFFFFFFFFFFFFFFFFFFFFFFFFFFFFFFFFFFFFFFFF AND PUSH20 0xFFFFFFFFFFFFFFFFFFFFFFFFFFFFFFFFFFFFFFFF AND DUP2 MSTORE PUSH1 0x20 ADD SWAP1 DUP2 MSTORE PUSH1 0x20 ADD PUSH1 0x0 KECCAK256 DUP2 SWAP1 DUP1 PUSH1 0x1 DUP2 SLOAD ADD DUP1 DUP3 SSTORE DUP1 SWAP2 POP POP PUSH1 0x1 SWAP1 SUB SWAP1 PUSH1 0x0 MSTORE PUSH1 0x20 PUSH1 0x0 KECCAK256 ADD PUSH1 0x0 SWAP1 SWAP2 SWAP1 SWAP2 SWAP1 SWAP2 POP PUSH1 0x0 DUP3 ADD MLOAD DUP2 PUSH1 0x0 ADD PUSH1 0x0 PUSH2 0x100 EXP DUP2 SLOAD DUP2 PUSH20 0xFFFFFFFFFFFFFFFFFFFFFFFFFFFFFFFFFFFFFFFF MUL NOT AND SWAP1 DUP4 PUSH20 0xFFFFFFFFFFFFFFFFFFFFFFFFFFFFFFFFFFFFFFFF AND MUL OR SWAP1 SSTORE POP PUSH1 0x20 DUP3 ADD MLOAD DUP2 PUSH1 0x0 ADD PUSH1 0x14 PUSH2 0x100 EXP DUP2 SLOAD DUP2 PUSH1 0xFF MUL NOT AND SWAP1 DUP4 ISZERO ISZERO MUL OR SWAP1 SSTORE POP POP POP DUP3 PUSH20 0xFFFFFFFFFFFFFFFFFFFFFFFFFFFFFFFFFFFFFFFF AND DUP3 PUSH20 0xFFFFFFFFFFFFFFFFFFFFFFFFFFFFFFFFFFFFFFFF AND PUSH32 0x9F520B3BFC56D06F7065D10B4683B3F57AC8895D5026CD176DEE95CE1454CB8D PUSH1 0x40 MLOAD PUSH1 0x40 MLOAD DUP1 SWAP2 SUB SWAP1 LOG3 POP POP POP JUMP JUMPDEST PUSH1 0x0 DUP1 PUSH1 0x4 PUSH1 0x0 DUP5 PUSH20 0xFFFFFFFFFFFFFFFFFFFFFFFFFFFFFFFFFFFFFFFF AND PUSH20 0xFFFFFFFFFFFFFFFFFFFFFFFFFFFFFFFFFFFFFFFF AND DUP2 MSTORE PUSH1 0x20 ADD SWAP1 DUP2 MSTORE PUSH1 0x20 ADD PUSH1 0x0 KECCAK256 SWAP1 POP PUSH1 0x0 JUMPDEST DUP2 DUP1 SLOAD SWAP1 POP DUP2 LT ISZERO PUSH2 0x147F JUMPI DUP5 PUSH20 0xFFFFFFFFFFFFFFFFFFFFFFFFFFFFFFFFFFFFFFFF AND DUP3 DUP3 DUP2 SLOAD DUP2 LT PUSH2 0x13E1 JUMPI PUSH2 0x13E0 PUSH2 0x227C JUMP JUMPDEST JUMPDEST SWAP1 PUSH1 0x0 MSTORE PUSH1 0x20 PUSH1 0x0 KECCAK256 ADD PUSH1 0x0 ADD PUSH1 0x0 SWAP1 SLOAD SWAP1 PUSH2 0x100 EXP SWAP1 DIV PUSH20 0xFFFFFFFFFFFFFFFFFFFFFFFFFFFFFFFFFFFFFFFF AND PUSH20 0xFFFFFFFFFFFFFFFFFFFFFFFFFFFFFFFFFFFFFFFF AND EQ DUP1 ISZERO PUSH2 0x145C JUMPI POP DUP2 DUP2 DUP2 SLOAD DUP2 LT PUSH2 0x1440 JUMPI PUSH2 0x143F PUSH2 0x227C JUMP JUMPDEST JUMPDEST SWAP1 PUSH1 0x0 MSTORE PUSH1 0x20 PUSH1 0x0 KECCAK256 ADD PUSH1 0x0 ADD PUSH1 0x14 SWAP1 SLOAD SWAP1 PUSH2 0x100 EXP SWAP1 DIV PUSH1 0xFF AND JUMPDEST ISZERO PUSH2 0x146C JUMPI PUSH1 0x1 SWAP3 POP POP POP PUSH2 0x1486 JUMP JUMPDEST DUP1 DUP1 PUSH2 0x1477 SWAP1 PUSH2 0x22AB JUMP JUMPDEST SWAP2 POP POP PUSH2 0x13AB JUMP JUMPDEST POP PUSH1 0x0 SWAP2 POP POP JUMPDEST SWAP3 SWAP2 POP POP JUMP JUMPDEST DUP3 PUSH1 0x7 DUP2 ADD SWAP3 DUP3 ISZERO PUSH2 0x14C7 JUMPI SWAP2 PUSH1 0x20 MUL DUP3 ADD JUMPDEST DUP3 DUP2 GT ISZERO PUSH2 0x14C6 JUMPI DUP3 MLOAD DUP3 SWAP1 DUP2 PUSH2 0x14B6 SWAP2 SWAP1 PUSH2 0x2707 JUMP JUMPDEST POP SWAP2 PUSH1 0x20 ADD SWAP2 SWAP1 PUSH1 0x1 ADD SWAP1 PUSH2 0x149F JUMP JUMPDEST JUMPDEST POP SWAP1 POP PUSH2 0x14D4 SWAP2 SWAP1 PUSH2 0x1524 JUMP JUMPDEST POP SWAP1 JUMP JUMPDEST DUP3 PUSH1 0x3 DUP2 ADD SWAP3 DUP3 ISZERO PUSH2 0x1513 JUMPI SWAP2 PUSH1 0x20 MUL DUP3 ADD JUMPDEST DUP3 DUP2 GT ISZERO PUSH2 0x1512 JUMPI DUP3 MLOAD DUP3 SWAP1 DUP2 PUSH2 0x1502 SWAP2 SWAP1 PUSH2 0x2707 JUMP JUMPDEST POP SWAP2 PUSH1 0x20 ADD SWAP2 SWAP1 PUSH1 0x1 ADD SWAP1 PUSH2 0x14EB JUMP JUMPDEST JUMPDEST POP SWAP1 POP PUSH2 0x1520 SWAP2 SWAP1 PUSH2 0x1524 JUMP JUMPDEST POP SWAP1 JUMP JUMPDEST JUMPDEST DUP1 DUP3 GT ISZERO PUSH2 0x1544 JUMPI PUSH1 0x0 DUP2 DUP2 PUSH2 0x153B SWAP2 SWAP1 PUSH2 0x1548 JUMP JUMPDEST POP PUSH1 0x1 ADD PUSH2 0x1525 JUMP JUMPDEST POP SWAP1 JUMP JUMPDEST POP DUP1 SLOAD PUSH2 0x1554 SWAP1 PUSH2 0x1FC6 JUMP JUMPDEST PUSH1 0x0 DUP3 SSTORE DUP1 PUSH1 0x1F LT PUSH2 0x1566 JUMPI POP PUSH2 0x1585 JUMP JUMPDEST PUSH1 0x1F ADD PUSH1 0x20 SWAP1 DIV SWAP1 PUSH1 0x0 MSTORE PUSH1 0x20 PUSH1 0x0 KECCAK256 SWAP1 DUP2 ADD SWAP1 PUSH2 0x1584 SWAP2 SWAP1 PUSH2 0x1588 JUMP JUMPDEST JUMPDEST POP JUMP JUMPDEST JUMPDEST DUP1 DUP3 GT ISZERO PUSH2 0x15A1 JUMPI PUSH1 0x0 DUP2 PUSH1 0x0 SWAP1 SSTORE POP PUSH1 0x1 ADD PUSH2 0x1589 JUMP JUMPDEST POP SWAP1 JUMP JUMPDEST PUSH1 0x0 PUSH1 0x40 MLOAD SWAP1 POP SWAP1 JUMP JUMPDEST PUSH1 0x0 DUP1 REVERT JUMPDEST PUSH1 0x0 DUP1 REVERT JUMPDEST PUSH1 0x0 PUSH20 0xFFFFFFFFFFFFFFFFFFFFFFFFFFFFFFFFFFFFFFFF DUP3 AND SWAP1 POP SWAP2 SWAP1 POP JUMP JUMPDEST PUSH1 0x0 PUSH2 0x15E4 DUP3 PUSH2 0x15B9 JUMP JUMPDEST SWAP1 POP SWAP2 SWAP1 POP JUMP JUMPDEST PUSH2 0x15F4 DUP2 PUSH2 0x15D9 JUMP JUMPDEST DUP2 EQ PUSH2 0x15FF JUMPI PUSH1 0x0 DUP1 REVERT JUMPDEST POP JUMP JUMPDEST PUSH1 0x0 DUP2 CALLDATALOAD SWAP1 POP PUSH2 0x1611 DUP2 PUSH2 0x15EB JUMP JUMPDEST SWAP3 SWAP2 POP POP JUMP JUMPDEST PUSH1 0x0 PUSH1 0x20 DUP3 DUP5 SUB SLT ISZERO PUSH2 0x162D JUMPI PUSH2 0x162C PUSH2 0x15AF JUMP JUMPDEST JUMPDEST PUSH1 0x0 PUSH2 0x163B DUP5 DUP3 DUP6 ADD PUSH2 0x1602 JUMP JUMPDEST SWAP2 POP POP SWAP3 SWAP2 POP POP JUMP JUMPDEST PUSH1 0x0 DUP2 MLOAD SWAP1 POP SWAP2 SWAP1 POP JUMP JUMPDEST PUSH1 0x0 DUP3 DUP3 MSTORE PUSH1 0x20 DUP3 ADD SWAP1 POP SWAP3 SWAP2 POP POP JUMP JUMPDEST PUSH1 0x0 DUP2 SWAP1 POP PUSH1 0x20 DUP3 ADD SWAP1 POP SWAP2 SWAP1 POP JUMP JUMPDEST PUSH1 0x0 PUSH1 0x7 SWAP1 POP SWAP2 SWAP1 POP JUMP JUMPDEST PUSH1 0x0 DUP2 SWAP1 POP SWAP3 SWAP2 POP POP JUMP JUMPDEST PUSH1 0x0 DUP2 SWAP1 POP SWAP2 SWAP1 POP JUMP JUMPDEST PUSH1 0x0 DUP2 MLOAD SWAP1 POP SWAP2 SWAP1 POP JUMP JUMPDEST PUSH1 0x0 DUP3 DUP3 MSTORE PUSH1 0x20 DUP3 ADD SWAP1 POP SWAP3 SWAP2 POP POP JUMP JUMPDEST PUSH1 0x0 JUMPDEST DUP4 DUP2 LT ISZERO PUSH2 0x16CA JUMPI DUP1 DUP3 ADD MLOAD DUP2 DUP5 ADD MSTORE PUSH1 0x20 DUP2 ADD SWAP1 POP PUSH2 0x16AF JUMP JUMPDEST PUSH1 0x0 DUP5 DUP5 ADD MSTORE POP POP POP POP JUMP JUMPDEST PUSH1 0x0 PUSH1 0x1F NOT PUSH1 0x1F DUP4 ADD AND SWAP1 POP SWAP2 SWAP1 POP JUMP JUMPDEST PUSH1 0x0 PUSH2 0x16F2 DUP3 PUSH2 0x1690 JUMP JUMPDEST PUSH2 0x16FC DUP2 DUP6 PUSH2 0x169B JUMP JUMPDEST SWAP4 POP PUSH2 0x170C DUP2 DUP6 PUSH1 0x20 DUP7 ADD PUSH2 0x16AC JUMP JUMPDEST PUSH2 0x1715 DUP2 PUSH2 0x16D6 JUMP JUMPDEST DUP5 ADD SWAP2 POP POP SWAP3 SWAP2 POP POP JUMP JUMPDEST PUSH1 0x0 PUSH2 0x172C DUP4 DUP4 PUSH2 0x16E7 JUMP JUMPDEST SWAP1 POP SWAP3 SWAP2 POP POP JUMP JUMPDEST PUSH1 0x0 PUSH1 0x20 DUP3 ADD SWAP1 POP SWAP2 SWAP1 POP JUMP JUMPDEST PUSH1 0x0 PUSH2 0x174C DUP3 PUSH2 0x1670 JUMP JUMPDEST PUSH2 0x1756 DUP2 DUP6 PUSH2 0x167B JUMP JUMPDEST SWAP4 POP DUP4 PUSH1 0x20 DUP3 MUL DUP6 ADD PUSH2 0x1768 DUP6 PUSH2 0x1686 JUMP JUMPDEST DUP1 PUSH1 0x0 JUMPDEST DUP6 DUP2 LT ISZERO PUSH2 0x17A4 JUMPI DUP5 DUP5 SUB DUP10 MSTORE DUP2 MLOAD PUSH2 0x1785 DUP6 DUP3 PUSH2 0x1720 JUMP JUMPDEST SWAP5 POP PUSH2 0x1790 DUP4 PUSH2 0x1734 JUMP JUMPDEST SWAP3 POP PUSH1 0x20 DUP11 ADD SWAP10 POP POP PUSH1 0x1 DUP2 ADD SWAP1 POP PUSH2 0x176C JUMP JUMPDEST POP DUP3 SWAP8 POP DUP8 SWAP6 POP POP POP POP POP POP SWAP3 SWAP2 POP POP JUMP JUMPDEST PUSH1 0x0 PUSH1 0x3 SWAP1 POP SWAP2 SWAP1 POP JUMP JUMPDEST PUSH1 0x0 DUP2 SWAP1 POP SWAP3 SWAP2 POP POP JUMP JUMPDEST PUSH1 0x0 DUP2 SWAP1 POP SWAP2 SWAP1 POP JUMP JUMPDEST PUSH1 0x0 PUSH1 0x20 DUP3 ADD SWAP1 POP SWAP2 SWAP1 POP JUMP JUMPDEST PUSH1 0x0 PUSH2 0x17EE DUP3 PUSH2 0x17B6 JUMP JUMPDEST PUSH2 0x17F8 DUP2 DUP6 PUSH2 0x17C1 JUMP JUMPDEST SWAP4 POP DUP4 PUSH1 0x20 DUP3 MUL DUP6 ADD PUSH2 0x180A DUP6 PUSH2 0x17CC JUMP JUMPDEST DUP1 PUSH1 0x0 JUMPDEST DUP6 DUP2 LT ISZERO PUSH2 0x1846 JUMPI DUP5 DUP5 SUB DUP10 MSTORE DUP2 MLOAD PUSH2 0x1827 DUP6 DUP3 PUSH2 0x1720 JUMP JUMPDEST SWAP5 POP PUSH2 0x1832 DUP4 PUSH2 0x17D6 JUMP JUMPDEST SWAP3 POP PUSH1 0x20 DUP11 ADD SWAP10 POP POP PUSH1 0x1 DUP2 ADD SWAP1 POP PUSH2 0x180E JUMP JUMPDEST POP DUP3 SWAP8 POP DUP8 SWAP6 POP POP POP POP POP POP SWAP3 SWAP2 POP POP JUMP JUMPDEST PUSH1 0x0 PUSH1 0x80 DUP4 ADD PUSH1 0x0 DUP4 ADD MLOAD DUP5 DUP3 SUB PUSH1 0x0 DUP7 ADD MSTORE PUSH2 0x1875 DUP3 DUP3 PUSH2 0x1741 JUMP JUMPDEST SWAP2 POP POP PUSH1 0x20 DUP4 ADD MLOAD DUP5 DUP3 SUB PUSH1 0x20 DUP7 ADD MSTORE PUSH2 0x188F DUP3 DUP3 PUSH2 0x17E3 JUMP JUMPDEST SWAP2 POP POP PUSH1 0x40 DUP4 ADD MLOAD DUP5 DUP3 SUB PUSH1 0x40 DUP7 ADD MSTORE PUSH2 0x18A9 DUP3 DUP3 PUSH2 0x17E3 JUMP JUMPDEST SWAP2 POP POP PUSH1 0x60 DUP4 ADD MLOAD DUP5 DUP3 SUB PUSH1 0x60 DUP7 ADD MSTORE PUSH2 0x18C3 DUP3 DUP3 PUSH2 0x17E3 JUMP JUMPDEST SWAP2 POP POP DUP1 SWAP2 POP POP SWAP3 SWAP2 POP POP JUMP JUMPDEST PUSH1 0x0 PUSH2 0x18DC DUP4 DUP4 PUSH2 0x1858 JUMP JUMPDEST SWAP1 POP SWAP3 SWAP2 POP POP JUMP JUMPDEST PUSH1 0x0 PUSH1 0x20 DUP3 ADD SWAP1 POP SWAP2 SWAP1 POP JUMP JUMPDEST PUSH1 0x0 PUSH2 0x18FC DUP3 PUSH2 0x1644 JUMP JUMPDEST PUSH2 0x1906 DUP2 DUP6 PUSH2 0x164F JUMP JUMPDEST SWAP4 POP DUP4 PUSH1 0x20 DUP3 MUL DUP6 ADD PUSH2 0x1918 DUP6 PUSH2 0x1660 JUMP JUMPDEST DUP1 PUSH1 0x0 JUMPDEST DUP6 DUP2 LT ISZERO PUSH2 0x1954 JUMPI DUP5 DUP5 SUB DUP10 MSTORE DUP2 MLOAD PUSH2 0x1935 DUP6 DUP3 PUSH2 0x18D0 JUMP JUMPDEST SWAP5 POP PUSH2 0x1940 DUP4 PUSH2 0x18E4 JUMP JUMPDEST SWAP3 POP PUSH1 0x20 DUP11 ADD SWAP10 POP POP PUSH1 0x1 DUP2 ADD SWAP1 POP PUSH2 0x191C JUMP JUMPDEST POP DUP3 SWAP8 POP DUP8 SWAP6 POP POP POP POP POP POP SWAP3 SWAP2 POP POP JUMP JUMPDEST PUSH1 0x0 PUSH1 0x20 DUP3 ADD SWAP1 POP DUP2 DUP2 SUB PUSH1 0x0 DUP4 ADD MSTORE PUSH2 0x1980 DUP2 DUP5 PUSH2 0x18F1 JUMP JUMPDEST SWAP1 POP SWAP3 SWAP2 POP POP JUMP JUMPDEST PUSH1 0x0 DUP2 ISZERO ISZERO SWAP1 POP SWAP2 SWAP1 POP JUMP JUMPDEST PUSH2 0x199D DUP2 PUSH2 0x1988 JUMP JUMPDEST DUP3 MSTORE POP POP JUMP JUMPDEST PUSH1 0x0 PUSH1 0x20 DUP3 ADD SWAP1 POP PUSH2 0x19B8 PUSH1 0x0 DUP4 ADD DUP5 PUSH2 0x1994 JUMP JUMPDEST SWAP3 SWAP2 POP POP JUMP JUMPDEST PUSH1 0x0 DUP1 REVERT JUMPDEST PUSH32 0x4E487B7100000000000000000000000000000000000000000000000000000000 PUSH1 0x0 MSTORE PUSH1 0x41 PUSH1 0x4 MSTORE PUSH1 0x24 PUSH1 0x0 REVERT JUMPDEST PUSH2 0x19FB DUP3 PUSH2 0x16D6 JUMP JUMPDEST DUP2 ADD DUP2 DUP2 LT PUSH8 0xFFFFFFFFFFFFFFFF DUP3 GT OR ISZERO PUSH2 0x1A1A JUMPI PUSH2 0x1A19 PUSH2 0x19C3 JUMP JUMPDEST JUMPDEST DUP1 PUSH1 0x40 MSTORE POP POP POP JUMP JUMPDEST PUSH1 0x0 PUSH2 0x1A2D PUSH2 0x15A5 JUMP JUMPDEST SWAP1 POP PUSH2 0x1A39 DUP3 DUP3 PUSH2 0x19F2 JUMP JUMPDEST SWAP2 SWAP1 POP JUMP JUMPDEST PUSH1 0x0 PUSH8 0xFFFFFFFFFFFFFFFF DUP3 GT ISZERO PUSH2 0x1A59 JUMPI PUSH2 0x1A58 PUSH2 0x19C3 JUMP JUMPDEST JUMPDEST PUSH1 0x20 DUP3 MUL SWAP1 POP SWAP2 SWAP1 POP JUMP JUMPDEST PUSH1 0x0 DUP1 REVERT JUMPDEST PUSH1 0x0 DUP1 REVERT JUMPDEST PUSH1 0x0 PUSH8 0xFFFFFFFFFFFFFFFF DUP3 GT ISZERO PUSH2 0x1A89 JUMPI PUSH2 0x1A88 PUSH2 0x19C3 JUMP JUMPDEST JUMPDEST PUSH2 0x1A92 DUP3 PUSH2 0x16D6 JUMP JUMPDEST SWAP1 POP PUSH1 0x20 DUP2 ADD SWAP1 POP SWAP2 SWAP1 POP JUMP JUMPDEST DUP3 DUP2 DUP4 CALLDATACOPY PUSH1 0x0 DUP4 DUP4 ADD MSTORE POP POP POP JUMP JUMPDEST PUSH1 0x0 PUSH2 0x1AC1 PUSH2 0x1ABC DUP5 PUSH2 0x1A6E JUMP JUMPDEST PUSH2 0x1A23 JUMP JUMPDEST SWAP1 POP DUP3 DUP2 MSTORE PUSH1 0x20 DUP2 ADD DUP5 DUP5 DUP5 ADD GT ISZERO PUSH2 0x1ADD JUMPI PUSH2 0x1ADC PUSH2 0x1A69 JUMP JUMPDEST JUMPDEST PUSH2 0x1AE8 DUP5 DUP3 DUP6 PUSH2 0x1A9F JUMP JUMPDEST POP SWAP4 SWAP3 POP POP POP JUMP JUMPDEST PUSH1 0x0 DUP3 PUSH1 0x1F DUP4 ADD SLT PUSH2 0x1B05 JUMPI PUSH2 0x1B04 PUSH2 0x19BE JUMP JUMPDEST JUMPDEST DUP2 CALLDATALOAD PUSH2 0x1B15 DUP5 DUP3 PUSH1 0x20 DUP7 ADD PUSH2 0x1AAE JUMP JUMPDEST SWAP2 POP POP SWAP3 SWAP2 POP POP JUMP JUMPDEST PUSH1 0x0 PUSH2 0x1B31 PUSH2 0x1B2C DUP5 PUSH2 0x1A3E JUMP JUMPDEST PUSH2 0x1A23 JUMP JUMPDEST SWAP1 POP DUP1 PUSH1 0x20 DUP5 MUL DUP4 ADD DUP6 DUP2 GT ISZERO PUSH2 0x1B4B JUMPI PUSH2 0x1B4A PUSH2 0x1A64 JUMP JUMPDEST JUMPDEST DUP4 JUMPDEST DUP2 DUP2 LT ISZERO PUSH2 0x1B92 JUMPI DUP1 CALLDATALOAD PUSH8 0xFFFFFFFFFFFFFFFF DUP2 GT ISZERO PUSH2 0x1B70 JUMPI PUSH2 0x1B6F PUSH2 0x19BE JUMP JUMPDEST JUMPDEST DUP1 DUP7 ADD PUSH2 0x1B7D DUP10 DUP3 PUSH2 0x1AF0 JUMP JUMPDEST DUP6 MSTORE PUSH1 0x20 DUP6 ADD SWAP5 POP POP POP PUSH1 0x20 DUP2 ADD SWAP1 POP PUSH2 0x1B4D JUMP JUMPDEST POP POP POP SWAP4 SWAP3 POP POP POP JUMP JUMPDEST PUSH1 0x0 DUP3 PUSH1 0x1F DUP4 ADD SLT PUSH2 0x1BB1 JUMPI PUSH2 0x1BB0 PUSH2 0x19BE JUMP JUMPDEST JUMPDEST PUSH1 0x7 PUSH2 0x1BBE DUP5 DUP3 DUP6 PUSH2 0x1B1E JUMP JUMPDEST SWAP2 POP POP SWAP3 SWAP2 POP POP JUMP JUMPDEST PUSH1 0x0 PUSH8 0xFFFFFFFFFFFFFFFF DUP3 GT ISZERO PUSH2 0x1BE2 JUMPI PUSH2 0x1BE1 PUSH2 0x19C3 JUMP JUMPDEST JUMPDEST PUSH1 0x20 DUP3 MUL SWAP1 POP SWAP2 SWAP1 POP JUMP JUMPDEST PUSH1 0x0 PUSH2 0x1C00 PUSH2 0x1BFB DUP5 PUSH2 0x1BC7 JUMP JUMPDEST PUSH2 0x1A23 JUMP JUMPDEST SWAP1 POP DUP1 PUSH1 0x20 DUP5 MUL DUP4 ADD DUP6 DUP2 GT ISZERO PUSH2 0x1C1A JUMPI PUSH2 0x1C19 PUSH2 0x1A64 JUMP JUMPDEST JUMPDEST DUP4 JUMPDEST DUP2 DUP2 LT ISZERO PUSH2 0x1C61 JUMPI DUP1 CALLDATALOAD PUSH8 0xFFFFFFFFFFFFFFFF DUP2 GT ISZERO PUSH2 0x1C3F JUMPI PUSH2 0x1C3E PUSH2 0x19BE JUMP JUMPDEST JUMPDEST DUP1 DUP7 ADD PUSH2 0x1C4C DUP10 DUP3 PUSH2 0x1AF0 JUMP JUMPDEST DUP6 MSTORE PUSH1 0x20 DUP6 ADD SWAP5 POP POP POP PUSH1 0x20 DUP2 ADD SWAP1 POP PUSH2 0x1C1C JUMP JUMPDEST POP POP POP SWAP4 SWAP3 POP POP POP JUMP JUMPDEST PUSH1 0x0 DUP3 PUSH1 0x1F DUP4 ADD SLT PUSH2 0x1C80 JUMPI PUSH2 0x1C7F PUSH2 0x19BE JUMP JUMPDEST JUMPDEST PUSH1 0x3 PUSH2 0x1C8D DUP5 DUP3 DUP6 PUSH2 0x1BED JUMP JUMPDEST SWAP2 POP POP SWAP3 SWAP2 POP POP JUMP JUMPDEST PUSH1 0x0 DUP1 PUSH1 0x0 DUP1 PUSH1 0x0 PUSH1 0xA0 DUP7 DUP9 SUB SLT ISZERO PUSH2 0x1CB2 JUMPI PUSH2 0x1CB1 PUSH2 0x15AF JUMP JUMPDEST JUMPDEST PUSH1 0x0 PUSH2 0x1CC0 DUP9 DUP3 DUP10 ADD PUSH2 0x1602 JUMP JUMPDEST SWAP6 POP POP PUSH1 0x20 DUP7 ADD CALLDATALOAD PUSH8 0xFFFFFFFFFFFFFFFF DUP2 GT ISZERO PUSH2 0x1CE1 JUMPI PUSH2 0x1CE0 PUSH2 0x15B4 JUMP JUMPDEST JUMPDEST PUSH2 0x1CED DUP9 DUP3 DUP10 ADD PUSH2 0x1B9C JUMP JUMPDEST SWAP5 POP POP PUSH1 0x40 DUP7 ADD CALLDATALOAD PUSH8 0xFFFFFFFFFFFFFFFF DUP2 GT ISZERO PUSH2 0x1D0E JUMPI PUSH2 0x1D0D PUSH2 0x15B4 JUMP JUMPDEST JUMPDEST PUSH2 0x1D1A DUP9 DUP3 DUP10 ADD PUSH2 0x1C6B JUMP JUMPDEST SWAP4 POP POP PUSH1 0x60 DUP7 ADD CALLDATALOAD PUSH8 0xFFFFFFFFFFFFFFFF DUP2 GT ISZERO PUSH2 0x1D3B JUMPI PUSH2 0x1D3A PUSH2 0x15B4 JUMP JUMPDEST JUMPDEST PUSH2 0x1D47 DUP9 DUP3 DUP10 ADD PUSH2 0x1C6B JUMP JUMPDEST SWAP3 POP POP PUSH1 0x80 DUP7 ADD CALLDATALOAD PUSH8 0xFFFFFFFFFFFFFFFF DUP2 GT ISZERO PUSH2 0x1D68 JUMPI PUSH2 0x1D67 PUSH2 0x15B4 JUMP JUMPDEST JUMPDEST PUSH2 0x1D74 DUP9 DUP3 DUP10 ADD PUSH2 0x1C6B JUMP JUMPDEST SWAP2 POP POP SWAP3 SWAP6 POP SWAP3 SWAP6 SWAP1 SWAP4 POP JUMP JUMPDEST PUSH1 0x0 DUP1 PUSH1 0x40 DUP4 DUP6 SUB SLT ISZERO PUSH2 0x1D98 JUMPI PUSH2 0x1D97 PUSH2 0x15AF JUMP JUMPDEST JUMPDEST PUSH1 0x0 PUSH2 0x1DA6 DUP6 DUP3 DUP7 ADD PUSH2 0x1602 JUMP JUMPDEST SWAP3 POP POP PUSH1 0x20 PUSH2 0x1DB7 DUP6 DUP3 DUP7 ADD PUSH2 0x1602 JUMP JUMPDEST SWAP2 POP POP SWAP3 POP SWAP3 SWAP1 POP JUMP JUMPDEST PUSH1 0x0 DUP2 SWAP1 POP SWAP2 SWAP1 POP JUMP JUMPDEST PUSH2 0x1DD4 DUP2 PUSH2 0x1DC1 JUMP JUMPDEST DUP2 EQ PUSH2 0x1DDF JUMPI PUSH1 0x0 DUP1 REVERT JUMPDEST POP JUMP JUMPDEST PUSH1 0x0 DUP2 CALLDATALOAD SWAP1 POP PUSH2 0x1DF1 DUP2 PUSH2 0x1DCB JUMP JUMPDEST SWAP3 SWAP2 POP POP JUMP JUMPDEST PUSH1 0x0 DUP1 PUSH1 0x0 DUP1 PUSH1 0x0 DUP1 PUSH1 0xC0 DUP8 DUP10 SUB SLT ISZERO PUSH2 0x1E14 JUMPI PUSH2 0x1E13 PUSH2 0x15AF JUMP JUMPDEST JUMPDEST PUSH1 0x0 PUSH2 0x1E22 DUP10 DUP3 DUP11 ADD PUSH2 0x1602 JUMP JUMPDEST SWAP7 POP POP PUSH1 0x20 PUSH2 0x1E33 DUP10 DUP3 DUP11 ADD PUSH2 0x1DE2 JUMP JUMPDEST SWAP6 POP POP PUSH1 0x40 DUP8 ADD CALLDATALOAD PUSH8 0xFFFFFFFFFFFFFFFF DUP2 GT ISZERO PUSH2 0x1E54 JUMPI PUSH2 0x1E53 PUSH2 0x15B4 JUMP JUMPDEST JUMPDEST PUSH2 0x1E60 DUP10 DUP3 DUP11 ADD PUSH2 0x1B9C JUMP JUMPDEST SWAP5 POP POP PUSH1 0x60 DUP8 ADD CALLDATALOAD PUSH8 0xFFFFFFFFFFFFFFFF DUP2 GT ISZERO PUSH2 0x1E81 JUMPI PUSH2 0x1E80 PUSH2 0x15B4 JUMP JUMPDEST JUMPDEST PUSH2 0x1E8D DUP10 DUP3 DUP11 ADD PUSH2 0x1C6B JUMP JUMPDEST SWAP4 POP POP PUSH1 0x80 DUP8 ADD CALLDATALOAD PUSH8 0xFFFFFFFFFFFFFFFF DUP2 GT ISZERO PUSH2 0x1EAE JUMPI PUSH2 0x1EAD PUSH2 0x15B4 JUMP JUMPDEST JUMPDEST PUSH2 0x1EBA DUP10 DUP3 DUP11 ADD PUSH2 0x1C6B JUMP JUMPDEST SWAP3 POP POP PUSH1 0xA0 DUP8 ADD CALLDATALOAD PUSH8 0xFFFFFFFFFFFFFFFF DUP2 GT ISZERO PUSH2 0x1EDB JUMPI PUSH2 0x1EDA PUSH2 0x15B4 JUMP JUMPDEST JUMPDEST PUSH2 0x1EE7 DUP10 DUP3 DUP11 ADD PUSH2 0x1C6B JUMP JUMPDEST SWAP2 POP POP SWAP3 SWAP6 POP SWAP3 SWAP6 POP SWAP3 SWAP6 JUMP JUMPDEST PUSH1 0x0 DUP3 DUP3 MSTORE PUSH1 0x20 DUP3 ADD SWAP1 POP SWAP3 SWAP2 POP POP JUMP JUMPDEST PUSH32 0x4F6E6C7920617574686F72697A656420646F63746F7273206F72207468652070 PUSH1 0x0 DUP3 ADD MSTORE PUSH32 0x617469656E742063616E2061636365737320746865207265636F726400000000 PUSH1 0x20 DUP3 ADD MSTORE POP JUMP JUMPDEST PUSH1 0x0 PUSH2 0x1F61 PUSH1 0x3C DUP4 PUSH2 0x1EF4 JUMP JUMPDEST SWAP2 POP PUSH2 0x1F6C DUP3 PUSH2 0x1F05 JUMP JUMPDEST PUSH1 0x40 DUP3 ADD SWAP1 POP SWAP2 SWAP1 POP JUMP JUMPDEST PUSH1 0x0 PUSH1 0x20 DUP3 ADD SWAP1 POP DUP2 DUP2 SUB PUSH1 0x0 DUP4 ADD MSTORE PUSH2 0x1F90 DUP2 PUSH2 0x1F54 JUMP JUMPDEST SWAP1 POP SWAP2 SWAP1 POP JUMP JUMPDEST PUSH32 0x4E487B7100000000000000000000000000000000000000000000000000000000 PUSH1 0x0 MSTORE PUSH1 0x22 PUSH1 0x4 MSTORE PUSH1 0x24 PUSH1 0x0 REVERT JUMPDEST PUSH1 0x0 PUSH1 0x2 DUP3 DIV SWAP1 POP PUSH1 0x1 DUP3 AND DUP1 PUSH2 0x1FDE JUMPI PUSH1 0x7F DUP3 AND SWAP2 POP JUMPDEST PUSH1 0x20 DUP3 LT DUP2 SUB PUSH2 0x1FF1 JUMPI PUSH2 0x1FF0 PUSH2 0x1F97 JUMP JUMPDEST JUMPDEST POP SWAP2 SWAP1 POP JUMP JUMPDEST PUSH32 0x4F6E6C792061646D696E732063616E20706572666F726D207468697320616374 PUSH1 0x0 DUP3 ADD MSTORE PUSH32 0x696F6E0000000000000000000000000000000000000000000000000000000000 PUSH1 0x20 DUP3 ADD MSTORE POP JUMP JUMPDEST PUSH1 0x0 PUSH2 0x2053 PUSH1 0x23 DUP4 PUSH2 0x1EF4 JUMP JUMPDEST SWAP2 POP PUSH2 0x205E DUP3 PUSH2 0x1FF7 JUMP JUMPDEST PUSH1 0x40 DUP3 ADD SWAP1 POP SWAP2 SWAP1 POP JUMP JUMPDEST PUSH1 0x0 PUSH1 0x20 DUP3 ADD SWAP1 POP DUP2 DUP2 SUB PUSH1 0x0 DUP4 ADD MSTORE PUSH2 0x2082 DUP2 PUSH2 0x2046 JUMP JUMPDEST SWAP1 POP SWAP2 SWAP1 POP JUMP JUMPDEST PUSH32 0x4F6E6C7920617574686F72697A656420646F63746F72732063616E2070657266 PUSH1 0x0 DUP3 ADD MSTORE PUSH32 0x6F726D207468697320616374696F6E0000000000000000000000000000000000 PUSH1 0x20 DUP3 ADD MSTORE POP JUMP JUMPDEST PUSH1 0x0 PUSH2 0x20E5 PUSH1 0x2F DUP4 PUSH2 0x1EF4 JUMP JUMPDEST SWAP2 POP PUSH2 0x20F0 DUP3 PUSH2 0x2089 JUMP JUMPDEST PUSH1 0x40 DUP3 ADD SWAP1 POP SWAP2 SWAP1 POP JUMP JUMPDEST PUSH1 0x0 PUSH1 0x20 DUP3 ADD SWAP1 POP DUP2 DUP2 SUB PUSH1 0x0 DUP4 ADD MSTORE PUSH2 0x2114 DUP2 PUSH2 0x20D8 JUMP JUMPDEST SWAP1 POP SWAP2 SWAP1 POP JUMP JUMPDEST PUSH32 0x4E487B7100000000000000000000000000000000000000000000000000000000 PUSH1 0x0 MSTORE PUSH1 0x11 PUSH1 0x4 MSTORE PUSH1 0x24 PUSH1 0x0 REVERT JUMPDEST PUSH1 0x0 PUSH2 0x2155 DUP3 PUSH2 0x1DC1 JUMP JUMPDEST SWAP2 POP PUSH2 0x2160 DUP4 PUSH2 0x1DC1 JUMP JUMPDEST SWAP3 POP DUP3 DUP3 SUB SWAP1 POP DUP2 DUP2 GT ISZERO PUSH2 0x2178 JUMPI PUSH2 0x2177 PUSH2 0x211B JUMP JUMPDEST JUMPDEST SWAP3 SWAP2 POP POP JUMP JUMPDEST PUSH32 0x5265636F72642061646465640000000000000000000000000000000000000000 PUSH1 0x0 DUP3 ADD MSTORE POP JUMP JUMPDEST PUSH1 0x0 PUSH2 0x21B4 PUSH1 0xC DUP4 PUSH2 0x1EF4 JUMP JUMPDEST SWAP2 POP PUSH2 0x21BF DUP3 PUSH2 0x217E JUMP JUMPDEST PUSH1 0x20 DUP3 ADD SWAP1 POP SWAP2 SWAP1 POP JUMP JUMPDEST PUSH1 0x0 PUSH1 0x20 DUP3 ADD SWAP1 POP DUP2 DUP2 SUB PUSH1 0x0 DUP4 ADD MSTORE PUSH2 0x21E3 DUP2 PUSH2 0x21A7 JUMP JUMPDEST SWAP1 POP SWAP2 SWAP1 POP JUMP JUMPDEST PUSH32 0x4F6E6C79207468652070617469656E742063616E207265766F6B652061636365 PUSH1 0x0 DUP3 ADD MSTORE PUSH32 0x7373000000000000000000000000000000000000000000000000000000000000 PUSH1 0x20 DUP3 ADD MSTORE POP JUMP JUMPDEST PUSH1 0x0 PUSH2 0x2246 PUSH1 0x22 DUP4 PUSH2 0x1EF4 JUMP JUMPDEST SWAP2 POP PUSH2 0x2251 DUP3 PUSH2 0x21EA JUMP JUMPDEST PUSH1 0x40 DUP3 ADD SWAP1 POP SWAP2 SWAP1 POP JUMP JUMPDEST PUSH1 0x0 PUSH1 0x20 DUP3 ADD SWAP1 POP DUP2 DUP2 SUB PUSH1 0x0 DUP4 ADD MSTORE PUSH2 0x2275 DUP2 PUSH2 0x2239 JUMP JUMPDEST SWAP1 POP SWAP2 SWAP1 POP JUMP JUMPDEST PUSH32 0x4E487B7100000000000000000000000000000000000000000000000000000000 PUSH1 0x0 MSTORE PUSH1 0x32 PUSH1 0x4 MSTORE PUSH1 0x24 PUSH1 0x0 REVERT JUMPDEST PUSH1 0x0 PUSH2 0x22B6 DUP3 PUSH2 0x1DC1 JUMP JUMPDEST SWAP2 POP PUSH32 0xFFFFFFFFFFFFFFFFFFFFFFFFFFFFFFFFFFFFFFFFFFFFFFFFFFFFFFFFFFFFFFFF DUP3 SUB PUSH2 0x22E8 JUMPI PUSH2 0x22E7 PUSH2 0x211B JUMP JUMPDEST JUMPDEST PUSH1 0x1 DUP3 ADD SWAP1 POP SWAP2 SWAP1 POP JUMP JUMPDEST PUSH32 0x496E76616C6964207265636F726420696E646578000000000000000000000000 PUSH1 0x0 DUP3 ADD MSTORE POP JUMP JUMPDEST PUSH1 0x0 PUSH2 0x2329 PUSH1 0x14 DUP4 PUSH2 0x1EF4 JUMP JUMPDEST SWAP2 POP PUSH2 0x2334 DUP3 PUSH2 0x22F3 JUMP JUMPDEST PUSH1 0x20 DUP3 ADD SWAP1 POP SWAP2 SWAP1 POP JUMP JUMPDEST PUSH1 0x0 PUSH1 0x20 DUP3 ADD SWAP1 POP DUP2 DUP2 SUB PUSH1 0x0 DUP4 ADD MSTORE PUSH2 0x2358 DUP2 PUSH2 0x231C JUMP JUMPDEST SWAP1 POP SWAP2 SWAP1 POP JUMP JUMPDEST PUSH32 0x496E76616C6964206E756D626572206F6620766974616C207369676E73000000 PUSH1 0x0 DUP3 ADD MSTORE POP JUMP JUMPDEST PUSH1 0x0 PUSH2 0x2395 PUSH1 0x1D DUP4 PUSH2 0x1EF4 JUMP JUMPDEST SWAP2 POP PUSH2 0x23A0 DUP3 PUSH2 0x235F JUMP JUMPDEST PUSH1 0x20 DUP3 ADD SWAP1 POP SWAP2 SWAP1 POP JUMP JUMPDEST PUSH1 0x0 PUSH1 0x20 DUP3 ADD SWAP1 POP DUP2 DUP2 SUB PUSH1 0x0 DUP4 ADD MSTORE PUSH2 0x23C4 DUP2 PUSH2 0x2388 JUMP JUMPDEST SWAP1 POP SWAP2 SWAP1 POP JUMP JUMPDEST PUSH32 0x496E76616C6964206E756D626572206F662074726561746D656E742064657461 PUSH1 0x0 DUP3 ADD MSTORE PUSH32 0x696C730000000000000000000000000000000000000000000000000000000000 PUSH1 0x20 DUP3 ADD MSTORE POP JUMP JUMPDEST PUSH1 0x0 PUSH2 0x2427 PUSH1 0x23 DUP4 PUSH2 0x1EF4 JUMP JUMPDEST SWAP2 POP PUSH2 0x2432 DUP3 PUSH2 0x23CB JUMP JUMPDEST PUSH1 0x40 DUP3 ADD SWAP1 POP SWAP2 SWAP1 POP JUMP JUMPDEST PUSH1 0x0 PUSH1 0x20 DUP3 ADD SWAP1 POP DUP2 DUP2 SUB PUSH1 0x0 DUP4 ADD MSTORE PUSH2 0x2456 DUP2 PUSH2 0x241A JUMP JUMPDEST SWAP1 POP SWAP2 SWAP1 POP JUMP JUMPDEST PUSH32 0x5265636F72642075706461746564000000000000000000000000000000000000 PUSH1 0x0 DUP3 ADD MSTORE POP JUMP JUMPDEST PUSH1 0x0 PUSH2 0x2493 PUSH1 0xE DUP4 PUSH2 0x1EF4 JUMP JUMPDEST SWAP2 POP PUSH2 0x249E DUP3 PUSH2 0x245D JUMP JUMPDEST PUSH1 0x20 DUP3 ADD SWAP1 POP SWAP2 SWAP1 POP JUMP JUMPDEST PUSH1 0x0 PUSH1 0x20 DUP3 ADD SWAP1 POP DUP2 DUP2 SUB PUSH1 0x0 DUP4 ADD MSTORE PUSH2 0x24C2 DUP2 PUSH2 0x2486 JUMP JUMPDEST SWAP1 POP SWAP2 SWAP1 POP JUMP JUMPDEST PUSH32 0x4F6E6C79207468652070617469656E742063616E206772616E74206163636573 PUSH1 0x0 DUP3 ADD MSTORE PUSH32 0x7300000000000000000000000000000000000000000000000000000000000000 PUSH1 0x20 DUP3 ADD MSTORE POP JUMP JUMPDEST PUSH1 0x0 PUSH2 0x2525 PUSH1 0x21 DUP4 PUSH2 0x1EF4 JUMP JUMPDEST SWAP2 POP PUSH2 0x2530 DUP3 PUSH2 0x24C9 JUMP JUMPDEST PUSH1 0x40 DUP3 ADD SWAP1 POP SWAP2 SWAP1 POP JUMP JUMPDEST PUSH1 0x0 PUSH1 0x20 DUP3 ADD SWAP1 POP DUP2 DUP2 SUB PUSH1 0x0 DUP4 ADD MSTORE PUSH2 0x2554 DUP2 PUSH2 0x2518 JUMP JUMPDEST SWAP1 POP SWAP2 SWAP1 POP JUMP JUMPDEST PUSH1 0x0 DUP2 SWAP1 POP DUP2 PUSH1 0x0 MSTORE PUSH1 0x20 PUSH1 0x0 KECCAK256 SWAP1 POP SWAP2 SWAP1 POP JUMP JUMPDEST PUSH1 0x0 PUSH1 0x20 PUSH1 0x1F DUP4 ADD DIV SWAP1 POP SWAP2 SWAP1 POP JUMP JUMPDEST PUSH1 0x0 DUP3 DUP3 SHL SWAP1 POP SWAP3 SWAP2 POP POP JUMP JUMPDEST PUSH1 0x0 PUSH1 0x8 DUP4 MUL PUSH2 0x25BD PUSH32 0xFFFFFFFFFFFFFFFFFFFFFFFFFFFFFFFFFFFFFFFFFFFFFFFFFFFFFFFFFFFFFFFF DUP3 PUSH2 0x2580 JUMP JUMPDEST PUSH2 0x25C7 DUP7 DUP4 PUSH2 0x2580 JUMP JUMPDEST SWAP6 POP DUP1 NOT DUP5 AND SWAP4 POP DUP1 DUP7 AND DUP5 OR SWAP3 POP POP POP SWAP4 SWAP3 POP POP POP JUMP JUMPDEST PUSH1 0x0 DUP2 SWAP1 POP SWAP2 SWAP1 POP JUMP JUMPDEST PUSH1 0x0 PUSH2 0x2604 PUSH2 0x25FF PUSH2 0x25FA DUP5 PUSH2 0x1DC1 JUMP JUMPDEST PUSH2 0x25DF JUMP JUMPDEST PUSH2 0x1DC1 JUMP JUMPDEST SWAP1 POP SWAP2 SWAP1 POP JUMP JUMPDEST PUSH1 0x0 DUP2 SWAP1 POP SWAP2 SWAP1 POP JUMP JUMPDEST PUSH2 0x261E DUP4 PUSH2 0x25E9 JUMP JUMPDEST PUSH2 0x2632 PUSH2 0x262A DUP3 PUSH2 0x260B JUMP JUMPDEST DUP5 DUP5 SLOAD PUSH2 0x258D JUMP JUMPDEST DUP3 SSTORE POP POP POP POP JUMP JUMPDEST PUSH1 0x0 SWAP1 JUMP JUMPDEST PUSH2 0x2647 PUSH2 0x263A JUMP JUMPDEST PUSH2 0x2652 DUP2 DUP5 DUP5 PUSH2 0x2615 JUMP JUMPDEST POP POP POP JUMP JUMPDEST JUMPDEST DUP2 DUP2 LT ISZERO PUSH2 0x2676 JUMPI PUSH2 0x266B PUSH1 0x0 DUP3 PUSH2 0x263F JUMP JUMPDEST PUSH1 0x1 DUP2 ADD SWAP1 POP PUSH2 0x2658 JUMP JUMPDEST POP POP JUMP JUMPDEST PUSH1 0x1F DUP3 GT ISZERO PUSH2 0x26BB JUMPI PUSH2 0x268C DUP2 PUSH2 0x255B JUMP JUMPDEST PUSH2 0x2695 DUP5 PUSH2 0x2570 JUMP JUMPDEST DUP2 ADD PUSH1 0x20 DUP6 LT ISZERO PUSH2 0x26A4 JUMPI DUP2 SWAP1 POP JUMPDEST PUSH2 0x26B8 PUSH2 0x26B0 DUP6 PUSH2 0x2570 JUMP JUMPDEST DUP4 ADD DUP3 PUSH2 0x2657 JUMP JUMPDEST POP POP JUMPDEST POP POP POP JUMP JUMPDEST PUSH1 0x0 DUP3 DUP3 SHR SWAP1 POP SWAP3 SWAP2 POP POP JUMP JUMPDEST PUSH1 0x0 PUSH2 0x26DE PUSH1 0x0 NOT DUP5 PUSH1 0x8 MUL PUSH2 0x26C0 JUMP JUMPDEST NOT DUP1 DUP4 AND SWAP2 POP POP SWAP3 SWAP2 POP POP JUMP JUMPDEST PUSH1 0x0 PUSH2 0x26F7 DUP4 DUP4 PUSH2 0x26CD JUMP JUMPDEST SWAP2 POP DUP3 PUSH1 0x2 MUL DUP3 OR SWAP1 POP SWAP3 SWAP2 POP POP JUMP JUMPDEST PUSH2 0x2710 DUP3 PUSH2 0x1690 JUMP JUMPDEST PUSH8 0xFFFFFFFFFFFFFFFF DUP2 GT ISZERO PUSH2 0x2729 JUMPI PUSH2 0x2728 PUSH2 0x19C3 JUMP JUMPDEST JUMPDEST PUSH2 0x2733 DUP3 SLOAD PUSH2 0x1FC6 JUMP JUMPDEST PUSH2 0x273E DUP3 DUP3 DUP6 PUSH2 0x267A JUMP JUMPDEST PUSH1 0x0 PUSH1 0x20 SWAP1 POP PUSH1 0x1F DUP4 GT PUSH1 0x1 DUP2 EQ PUSH2 0x2771 JUMPI PUSH1 0x0 DUP5 ISZERO PUSH2 0x275F JUMPI DUP3 DUP8 ADD MLOAD SWAP1 POP JUMPDEST PUSH2 0x2769 DUP6 DUP3 PUSH2 0x26EB JUMP JUMPDEST DUP7 SSTORE POP PUSH2 0x27D1 JUMP JUMPDEST PUSH1 0x1F NOT DUP5 AND PUSH2 0x277F DUP7 PUSH2 0x255B JUMP JUMPDEST PUSH1 0x0 JUMPDEST DUP3 DUP2 LT ISZERO PUSH2 0x27A7 JUMPI DUP5 DUP10 ADD MLOAD DUP3 SSTORE PUSH1 0x1 DUP3 ADD SWAP2 POP PUSH1 0x20 DUP6 ADD SWAP5 POP PUSH1 0x20 DUP2 ADD SWAP1 POP PUSH2 0x2782 JUMP JUMPDEST DUP7 DUP4 LT ISZERO PUSH2 0x27C4 JUMPI DUP5 DUP10 ADD MLOAD PUSH2 0x27C0 PUSH1 0x1F DUP10 AND DUP3 PUSH2 0x26CD JUMP JUMPDEST DUP4 SSTORE POP JUMPDEST PUSH1 0x1 PUSH1 0x2 DUP9 MUL ADD DUP9 SSTORE POP POP POP JUMPDEST POP POP POP POP POP POP JUMP INVALID LOG2 PUSH5 0x6970667358 0x22 SLT KECCAK256 JUMPI 0xDB SWAP9 AND 0x28 0xC4 PUSH12 0x70602EC6CC1D950B9DFC85BD 0xA9 LT PUSH9 0x269486DD081C43F34E DUP2 PUSH5 0x736F6C6343 STOP ADDMOD SLT STOP CALLER "
				},
				"gasEstimates": {
					"creation": {
						"codeDepositCost": "2051000",
						"executionCost": "2178",
						"totalCost": "2053178"
					},
					"external": {
						"addDoctor(address)": "27099",
						"addPatientRecord(address,string[7],string[3],string[3],string[3])": "infinite",
						"getPatientRecord(address)": "infinite",
						"grantAccess(address,address)": "infinite",
						"isAdmin(address)": "2906",
						"isDoctor(address)": "2927",
						"removeDoctor(address)": "27076",
						"removePatient(address)": "27054",
						"revokeAccess(address,address)": "infinite",
						"updatePatientRecord(address,uint256,string[7],string[3],string[3],string[3])": "infinite"
					},
					"internal": {
						"hasAccess(address,address)": "infinite"
					}
				},
				"methodIdentifiers": {
					"addDoctor(address)": "4780468f",
					"addPatientRecord(address,string[7],string[3],string[3],string[3])": "54028a6d",
					"getPatientRecord(address)": "18607174",
					"grantAccess(address,address)": "c6a09d95",
					"isAdmin(address)": "24d7806c",
					"isDoctor(address)": "996440c6",
					"removeDoctor(address)": "98fc90e9",
					"removePatient(address)": "7d0d6257",
					"revokeAccess(address,address)": "5f6ea340",
					"updatePatientRecord(address,uint256,string[7],string[3],string[3],string[3])": "c06d0bfa"
				}
			},
			"storageLayout": {
				"storage": [
					{
						"astId": 29,
						"contract": "contracts/Vitals.sol:PatientRecord",
						"label": "patientRecords",
						"offset": 0,
						"slot": "0",
						"type": "t_mapping(t_address,t_array(t_struct(Record)18_storage)dyn_storage)"
					},
					{
						"astId": 33,
						"contract": "contracts/Vitals.sol:PatientRecord",
						"label": "admins",
						"offset": 0,
						"slot": "1",
						"type": "t_mapping(t_address,t_bool)"
					},
					{
						"astId": 37,
						"contract": "contracts/Vitals.sol:PatientRecord",
						"label": "doctors",
						"offset": 0,
						"slot": "2",
						"type": "t_mapping(t_address,t_bool)"
					},
					{
						"astId": 41,
						"contract": "contracts/Vitals.sol:PatientRecord",
						"label": "patients",
						"offset": 0,
						"slot": "3",
						"type": "t_mapping(t_address,t_bool)"
					},
					{
						"astId": 47,
						"contract": "contracts/Vitals.sol:PatientRecord",
						"label": "accessList",
						"offset": 0,
						"slot": "4",
						"type": "t_mapping(t_address,t_array(t_struct(Access)23_storage)dyn_storage)"
					}
				],
				"types": {
					"t_address": {
						"encoding": "inplace",
						"label": "address",
						"numberOfBytes": "20"
					},
					"t_array(t_string_storage)3_storage": {
						"base": "t_string_storage",
						"encoding": "inplace",
						"label": "string[3]",
						"numberOfBytes": "96"
					},
					"t_array(t_string_storage)7_storage": {
						"base": "t_string_storage",
						"encoding": "inplace",
						"label": "string[7]",
						"numberOfBytes": "224"
					},
					"t_array(t_struct(Access)23_storage)dyn_storage": {
						"base": "t_struct(Access)23_storage",
						"encoding": "dynamic_array",
						"label": "struct PatientRecord.Access[]",
						"numberOfBytes": "32"
					},
					"t_array(t_struct(Record)18_storage)dyn_storage": {
						"base": "t_struct(Record)18_storage",
						"encoding": "dynamic_array",
						"label": "struct PatientRecord.Record[]",
						"numberOfBytes": "32"
					},
					"t_bool": {
						"encoding": "inplace",
						"label": "bool",
						"numberOfBytes": "1"
					},
					"t_mapping(t_address,t_array(t_struct(Access)23_storage)dyn_storage)": {
						"encoding": "mapping",
						"key": "t_address",
						"label": "mapping(address => struct PatientRecord.Access[])",
						"numberOfBytes": "32",
						"value": "t_array(t_struct(Access)23_storage)dyn_storage"
					},
					"t_mapping(t_address,t_array(t_struct(Record)18_storage)dyn_storage)": {
						"encoding": "mapping",
						"key": "t_address",
						"label": "mapping(address => struct PatientRecord.Record[])",
						"numberOfBytes": "32",
						"value": "t_array(t_struct(Record)18_storage)dyn_storage"
					},
					"t_mapping(t_address,t_bool)": {
						"encoding": "mapping",
						"key": "t_address",
						"label": "mapping(address => bool)",
						"numberOfBytes": "32",
						"value": "t_bool"
					},
					"t_string_storage": {
						"encoding": "bytes",
						"label": "string",
						"numberOfBytes": "32"
					},
					"t_struct(Access)23_storage": {
						"encoding": "inplace",
						"label": "struct PatientRecord.Access",
						"members": [
							{
								"astId": 20,
								"contract": "contracts/Vitals.sol:PatientRecord",
								"label": "grantedAddress",
								"offset": 0,
								"slot": "0",
								"type": "t_address"
							},
							{
								"astId": 22,
								"contract": "contracts/Vitals.sol:PatientRecord",
								"label": "hasAccess",
								"offset": 20,
								"slot": "0",
								"type": "t_bool"
							}
						],
						"numberOfBytes": "32"
					},
					"t_struct(Record)18_storage": {
						"encoding": "inplace",
						"label": "struct PatientRecord.Record",
						"members": [
							{
								"astId": 5,
								"contract": "contracts/Vitals.sol:PatientRecord",
								"label": "vitalSigns",
								"offset": 0,
								"slot": "0",
								"type": "t_array(t_string_storage)7_storage"
							},
							{
								"astId": 9,
								"contract": "contracts/Vitals.sol:PatientRecord",
								"label": "treatmentDetails",
								"offset": 0,
								"slot": "7",
								"type": "t_array(t_string_storage)3_storage"
							},
							{
								"astId": 13,
								"contract": "contracts/Vitals.sol:PatientRecord",
								"label": "vaccine",
								"offset": 0,
								"slot": "10",
								"type": "t_array(t_string_storage)3_storage"
							},
							{
								"astId": 17,
								"contract": "contracts/Vitals.sol:PatientRecord",
								"label": "prescription",
								"offset": 0,
								"slot": "13",
								"type": "t_array(t_string_storage)3_storage"
							}
						],
						"numberOfBytes": "512"
					}
				}
			},
			"userdoc": {
				"kind": "user",
				"methods": {},
				"version": 1
			}
		}
	}
}