{
	"contracts/Uint.sol": {
		"integers": {
			"abi": [
				{
					"inputs": [],
					"name": "decrease",
					"outputs": [],
					"stateMutability": "nonpayable",
					"type": "function"
				},
				{
					"inputs": [],
					"name": "manipulate",
					"outputs": [],
					"stateMutability": "nonpayable",
					"type": "function"
				},
				{
					"inputs": [],
					"name": "myInt",
					"outputs": [
						{
							"internalType": "int256",
							"name": "",
							"type": "int256"
						}
					],
					"stateMutability": "view",
					"type": "function"
				},
				{
					"inputs": [],
					"name": "myUint",
					"outputs": [
						{
							"internalType": "uint256",
							"name": "",
							"type": "uint256"
						}
					],
					"stateMutability": "view",
					"type": "function"
				},
				{
					"inputs": [
						{
							"internalType": "int256",
							"name": "_intGetter",
							"type": "int256"
						}
					],
					"name": "setMyInt",
					"outputs": [],
					"stateMutability": "nonpayable",
					"type": "function"
				},
				{
					"inputs": [
						{
							"internalType": "uint256",
							"name": "_myUint",
							"type": "uint256"
						}
					],
					"name": "setmyUint",
					"outputs": [],
					"stateMutability": "nonpayable",
					"type": "function"
				}
			],
			"devdoc": {
				"kind": "dev",
				"methods": {},
				"version": 1
			},
			"evm": {
				"assembly": "    /* \"contracts/Uint.sol\":57:412  contract integers{... */\n  mstore(0x40, 0x80)\n    /* \"contracts/Uint.sol\":127:130  200 */\n  0xc8\n    /* \"contracts/Uint.sol\":108:130  int public myInt = 200 */\n  0x01\n  sstore\n    /* \"contracts/Uint.sol\":57:412  contract integers{... */\n  callvalue\n  dup1\n  iszero\n  tag_1\n  jumpi\n  0x00\n  dup1\n  revert\ntag_1:\n  pop\n  dataSize(sub_0)\n  dup1\n  dataOffset(sub_0)\n  0x00\n  codecopy\n  0x00\n  return\nstop\n\nsub_0: assembly {\n        /* \"contracts/Uint.sol\":57:412  contract integers{... */\n      mstore(0x40, 0x80)\n      callvalue\n      dup1\n      iszero\n      tag_1\n      jumpi\n      0x00\n      dup1\n      revert\n    tag_1:\n      pop\n      jumpi(tag_2, lt(calldatasize, 0x04))\n      shr(0xe0, calldataload(0x00))\n      dup1\n      0x06540f7e\n      eq\n      tag_3\n      jumpi\n      dup1\n      0x2cb777a6\n      eq\n      tag_4\n      jumpi\n      dup1\n      0x37e2f60c\n      eq\n      tag_5\n      jumpi\n      dup1\n      0x5f6633bf\n      eq\n      tag_6\n      jumpi\n      dup1\n      0x9753046e\n      eq\n      tag_7\n      jumpi\n      dup1\n      0xd732d955\n      eq\n      tag_8\n      jumpi\n    tag_2:\n      0x00\n      dup1\n      revert\n        /* \"contracts/Uint.sol\":81:102  uint256 public myUint */\n    tag_3:\n      tag_9\n      tag_10\n      jump\t// in\n    tag_9:\n      mload(0x40)\n      tag_11\n      swap2\n      swap1\n      tag_12\n      jump\t// in\n    tag_11:\n      mload(0x40)\n      dup1\n      swap2\n      sub\n      swap1\n      return\n        /* \"contracts/Uint.sol\":108:130  int public myInt = 200 */\n    tag_4:\n      tag_13\n      tag_14\n      jump\t// in\n    tag_13:\n      mload(0x40)\n      tag_15\n      swap2\n      swap1\n      tag_16\n      jump\t// in\n    tag_15:\n      mload(0x40)\n      dup1\n      swap2\n      sub\n      swap1\n      return\n        /* \"contracts/Uint.sol\":137:213  function setmyUint(uint256 _myUint) public {... */\n    tag_5:\n      tag_17\n      0x04\n      dup1\n      calldatasize\n      sub\n      dup2\n      add\n      swap1\n      tag_18\n      swap2\n      swap1\n      tag_19\n      jump\t// in\n    tag_18:\n      tag_20\n      jump\t// in\n    tag_17:\n      stop\n        /* \"contracts/Uint.sol\":334:409  function setMyInt(int _intGetter) public{... */\n    tag_6:\n      tag_21\n      0x04\n      dup1\n      calldatasize\n      sub\n      dup2\n      add\n      swap1\n      tag_22\n      swap2\n      swap1\n      tag_23\n      jump\t// in\n    tag_22:\n      tag_24\n      jump\t// in\n    tag_21:\n      stop\n        /* \"contracts/Uint.sol\":276:328  function manipulate() public{... */\n    tag_7:\n      tag_25\n      tag_26\n      jump\t// in\n    tag_25:\n      stop\n        /* \"contracts/Uint.sol\":219:270  function decrease() public{... */\n    tag_8:\n      tag_27\n      tag_28\n      jump\t// in\n    tag_27:\n      stop\n        /* \"contracts/Uint.sol\":81:102  uint256 public myUint */\n    tag_10:\n      sload(0x00)\n      dup2\n      jump\t// out\n        /* \"contracts/Uint.sol\":108:130  int public myInt = 200 */\n    tag_14:\n      sload(0x01)\n      dup2\n      jump\t// out\n        /* \"contracts/Uint.sol\":137:213  function setmyUint(uint256 _myUint) public {... */\n    tag_20:\n        /* \"contracts/Uint.sol\":199:206  _myUint */\n      dup1\n        /* \"contracts/Uint.sol\":190:196  myUint */\n      0x00\n        /* \"contracts/Uint.sol\":190:206  myUint = _myUint */\n      dup2\n      swap1\n      sstore\n      pop\n        /* \"contracts/Uint.sol\":137:213  function setmyUint(uint256 _myUint) public {... */\n      pop\n      jump\t// out\n        /* \"contracts/Uint.sol\":334:409  function setMyInt(int _intGetter) public{... */\n    tag_24:\n        /* \"contracts/Uint.sol\":392:402  _intGetter */\n      dup1\n        /* \"contracts/Uint.sol\":384:389  myInt */\n      0x01\n        /* \"contracts/Uint.sol\":384:402  myInt = _intGetter */\n      dup2\n      swap1\n      sstore\n      pop\n        /* \"contracts/Uint.sol\":334:409  function setMyInt(int _intGetter) public{... */\n      pop\n      jump\t// out\n        /* \"contracts/Uint.sol\":276:328  function manipulate() public{... */\n    tag_26:\n        /* \"contracts/Uint.sol\":314:319  myInt */\n      0x01\n      0x00\n        /* \"contracts/Uint.sol\":314:321  myInt++ */\n      dup2\n      sload\n      dup1\n      swap3\n      swap2\n      swap1\n      tag_32\n      swap1\n      tag_33\n      jump\t// in\n    tag_32:\n      swap2\n      swap1\n      pop\n      sstore\n      pop\n        /* \"contracts/Uint.sol\":276:328  function manipulate() public{... */\n      jump\t// out\n        /* \"contracts/Uint.sol\":219:270  function decrease() public{... */\n    tag_28:\n        /* \"contracts/Uint.sol\":255:261  myUint */\n      0x00\n      dup1\n        /* \"contracts/Uint.sol\":255:263  myUint-- */\n      dup2\n      sload\n      dup1\n      swap3\n      swap2\n      swap1\n      tag_35\n      swap1\n      tag_36\n      jump\t// in\n    tag_35:\n      swap2\n      swap1\n      pop\n      sstore\n      pop\n        /* \"contracts/Uint.sol\":219:270  function decrease() public{... */\n      jump\t// out\n        /* \"#utility.yul\":7:84   */\n    tag_37:\n        /* \"#utility.yul\":44:51   */\n      0x00\n        /* \"#utility.yul\":73:78   */\n      dup2\n        /* \"#utility.yul\":62:78   */\n      swap1\n      pop\n        /* \"#utility.yul\":7:84   */\n      swap2\n      swap1\n      pop\n      jump\t// out\n        /* \"#utility.yul\":90:208   */\n    tag_38:\n        /* \"#utility.yul\":177:201   */\n      tag_52\n        /* \"#utility.yul\":195:200   */\n      dup2\n        /* \"#utility.yul\":177:201   */\n      tag_37\n      jump\t// in\n    tag_52:\n        /* \"#utility.yul\":172:175   */\n      dup3\n        /* \"#utility.yul\":165:202   */\n      mstore\n        /* \"#utility.yul\":90:208   */\n      pop\n      pop\n      jump\t// out\n        /* \"#utility.yul\":214:436   */\n    tag_12:\n        /* \"#utility.yul\":307:311   */\n      0x00\n        /* \"#utility.yul\":345:347   */\n      0x20\n        /* \"#utility.yul\":334:343   */\n      dup3\n        /* \"#utility.yul\":330:348   */\n      add\n        /* \"#utility.yul\":322:348   */\n      swap1\n      pop\n        /* \"#utility.yul\":358:429   */\n      tag_54\n        /* \"#utility.yul\":426:427   */\n      0x00\n        /* \"#utility.yul\":415:424   */\n      dup4\n        /* \"#utility.yul\":411:428   */\n      add\n        /* \"#utility.yul\":402:408   */\n      dup5\n        /* \"#utility.yul\":358:429   */\n      tag_38\n      jump\t// in\n    tag_54:\n        /* \"#utility.yul\":214:436   */\n      swap3\n      swap2\n      pop\n      pop\n      jump\t// out\n        /* \"#utility.yul\":442:518   */\n    tag_39:\n        /* \"#utility.yul\":478:485   */\n      0x00\n        /* \"#utility.yul\":507:512   */\n      dup2\n        /* \"#utility.yul\":496:512   */\n      swap1\n      pop\n        /* \"#utility.yul\":442:518   */\n      swap2\n      swap1\n      pop\n      jump\t// out\n        /* \"#utility.yul\":524:639   */\n    tag_40:\n        /* \"#utility.yul\":609:632   */\n      tag_57\n        /* \"#utility.yul\":626:631   */\n      dup2\n        /* \"#utility.yul\":609:632   */\n      tag_39\n      jump\t// in\n    tag_57:\n        /* \"#utility.yul\":604:607   */\n      dup3\n        /* \"#utility.yul\":597:633   */\n      mstore\n        /* \"#utility.yul\":524:639   */\n      pop\n      pop\n      jump\t// out\n        /* \"#utility.yul\":645:863   */\n    tag_16:\n        /* \"#utility.yul\":736:740   */\n      0x00\n        /* \"#utility.yul\":774:776   */\n      0x20\n        /* \"#utility.yul\":763:772   */\n      dup3\n        /* \"#utility.yul\":759:777   */\n      add\n        /* \"#utility.yul\":751:777   */\n      swap1\n      pop\n        /* \"#utility.yul\":787:856   */\n      tag_59\n        /* \"#utility.yul\":853:854   */\n      0x00\n        /* \"#utility.yul\":842:851   */\n      dup4\n        /* \"#utility.yul\":838:855   */\n      add\n        /* \"#utility.yul\":829:835   */\n      dup5\n        /* \"#utility.yul\":787:856   */\n      tag_40\n      jump\t// in\n    tag_59:\n        /* \"#utility.yul\":645:863   */\n      swap3\n      swap2\n      pop\n      pop\n      jump\t// out\n        /* \"#utility.yul\":950:1067   */\n    tag_42:\n        /* \"#utility.yul\":1059:1060   */\n      0x00\n        /* \"#utility.yul\":1056:1057   */\n      dup1\n        /* \"#utility.yul\":1049:1061   */\n      revert\n        /* \"#utility.yul\":1196:1318   */\n    tag_44:\n        /* \"#utility.yul\":1269:1293   */\n      tag_64\n        /* \"#utility.yul\":1287:1292   */\n      dup2\n        /* \"#utility.yul\":1269:1293   */\n      tag_37\n      jump\t// in\n    tag_64:\n        /* \"#utility.yul\":1262:1267   */\n      dup2\n        /* \"#utility.yul\":1259:1294   */\n      eq\n        /* \"#utility.yul\":1249:1312   */\n      tag_65\n      jumpi\n        /* \"#utility.yul\":1308:1309   */\n      0x00\n        /* \"#utility.yul\":1305:1306   */\n      dup1\n        /* \"#utility.yul\":1298:1310   */\n      revert\n        /* \"#utility.yul\":1249:1312   */\n    tag_65:\n        /* \"#utility.yul\":1196:1318   */\n      pop\n      jump\t// out\n        /* \"#utility.yul\":1324:1463   */\n    tag_45:\n        /* \"#utility.yul\":1370:1375   */\n      0x00\n        /* \"#utility.yul\":1408:1414   */\n      dup2\n        /* \"#utility.yul\":1395:1415   */\n      calldataload\n        /* \"#utility.yul\":1386:1415   */\n      swap1\n      pop\n        /* \"#utility.yul\":1424:1457   */\n      tag_67\n        /* \"#utility.yul\":1451:1456   */\n      dup2\n        /* \"#utility.yul\":1424:1457   */\n      tag_44\n      jump\t// in\n    tag_67:\n        /* \"#utility.yul\":1324:1463   */\n      swap3\n      swap2\n      pop\n      pop\n      jump\t// out\n        /* \"#utility.yul\":1469:1798   */\n    tag_19:\n        /* \"#utility.yul\":1528:1534   */\n      0x00\n        /* \"#utility.yul\":1577:1579   */\n      0x20\n        /* \"#utility.yul\":1565:1574   */\n      dup3\n        /* \"#utility.yul\":1556:1563   */\n      dup5\n        /* \"#utility.yul\":1552:1575   */\n      sub\n        /* \"#utility.yul\":1548:1580   */\n      slt\n        /* \"#utility.yul\":1545:1664   */\n      iszero\n      tag_69\n      jumpi\n        /* \"#utility.yul\":1583:1662   */\n      tag_70\n      tag_42\n      jump\t// in\n    tag_70:\n        /* \"#utility.yul\":1545:1664   */\n    tag_69:\n        /* \"#utility.yul\":1703:1704   */\n      0x00\n        /* \"#utility.yul\":1728:1781   */\n      tag_71\n        /* \"#utility.yul\":1773:1780   */\n      dup5\n        /* \"#utility.yul\":1764:1770   */\n      dup3\n        /* \"#utility.yul\":1753:1762   */\n      dup6\n        /* \"#utility.yul\":1749:1771   */\n      add\n        /* \"#utility.yul\":1728:1781   */\n      tag_45\n      jump\t// in\n    tag_71:\n        /* \"#utility.yul\":1718:1781   */\n      swap2\n      pop\n        /* \"#utility.yul\":1674:1791   */\n      pop\n        /* \"#utility.yul\":1469:1798   */\n      swap3\n      swap2\n      pop\n      pop\n      jump\t// out\n        /* \"#utility.yul\":1804:1924   */\n    tag_46:\n        /* \"#utility.yul\":1876:1899   */\n      tag_73\n        /* \"#utility.yul\":1893:1898   */\n      dup2\n        /* \"#utility.yul\":1876:1899   */\n      tag_39\n      jump\t// in\n    tag_73:\n        /* \"#utility.yul\":1869:1874   */\n      dup2\n        /* \"#utility.yul\":1866:1900   */\n      eq\n        /* \"#utility.yul\":1856:1918   */\n      tag_74\n      jumpi\n        /* \"#utility.yul\":1914:1915   */\n      0x00\n        /* \"#utility.yul\":1911:1912   */\n      dup1\n        /* \"#utility.yul\":1904:1916   */\n      revert\n        /* \"#utility.yul\":1856:1918   */\n    tag_74:\n        /* \"#utility.yul\":1804:1924   */\n      pop\n      jump\t// out\n        /* \"#utility.yul\":1930:2067   */\n    tag_47:\n        /* \"#utility.yul\":1975:1980   */\n      0x00\n        /* \"#utility.yul\":2013:2019   */\n      dup2\n        /* \"#utility.yul\":2000:2020   */\n      calldataload\n        /* \"#utility.yul\":1991:2020   */\n      swap1\n      pop\n        /* \"#utility.yul\":2029:2061   */\n      tag_76\n        /* \"#utility.yul\":2055:2060   */\n      dup2\n        /* \"#utility.yul\":2029:2061   */\n      tag_46\n      jump\t// in\n    tag_76:\n        /* \"#utility.yul\":1930:2067   */\n      swap3\n      swap2\n      pop\n      pop\n      jump\t// out\n        /* \"#utility.yul\":2073:2400   */\n    tag_23:\n        /* \"#utility.yul\":2131:2137   */\n      0x00\n        /* \"#utility.yul\":2180:2182   */\n      0x20\n        /* \"#utility.yul\":2168:2177   */\n      dup3\n        /* \"#utility.yul\":2159:2166   */\n      dup5\n        /* \"#utility.yul\":2155:2178   */\n      sub\n        /* \"#utility.yul\":2151:2183   */\n      slt\n        /* \"#utility.yul\":2148:2267   */\n      iszero\n      tag_78\n      jumpi\n        /* \"#utility.yul\":2186:2265   */\n      tag_79\n      tag_42\n      jump\t// in\n    tag_79:\n        /* \"#utility.yul\":2148:2267   */\n    tag_78:\n        /* \"#utility.yul\":2306:2307   */\n      0x00\n        /* \"#utility.yul\":2331:2383   */\n      tag_80\n        /* \"#utility.yul\":2375:2382   */\n      dup5\n        /* \"#utility.yul\":2366:2372   */\n      dup3\n        /* \"#utility.yul\":2355:2364   */\n      dup6\n        /* \"#utility.yul\":2351:2373   */\n      add\n        /* \"#utility.yul\":2331:2383   */\n      tag_47\n      jump\t// in\n    tag_80:\n        /* \"#utility.yul\":2321:2383   */\n      swap2\n      pop\n        /* \"#utility.yul\":2277:2393   */\n      pop\n        /* \"#utility.yul\":2073:2400   */\n      swap3\n      swap2\n      pop\n      pop\n      jump\t// out\n        /* \"#utility.yul\":2406:2586   */\n    tag_48:\n        /* \"#utility.yul\":2454:2531   */\n      0x4e487b7100000000000000000000000000000000000000000000000000000000\n        /* \"#utility.yul\":2451:2452   */\n      0x00\n        /* \"#utility.yul\":2444:2532   */\n      mstore\n        /* \"#utility.yul\":2551:2555   */\n      0x11\n        /* \"#utility.yul\":2548:2549   */\n      0x04\n        /* \"#utility.yul\":2541:2556   */\n      mstore\n        /* \"#utility.yul\":2575:2579   */\n      0x24\n        /* \"#utility.yul\":2572:2573   */\n      0x00\n        /* \"#utility.yul\":2565:2580   */\n      revert\n        /* \"#utility.yul\":2592:2823   */\n    tag_33:\n        /* \"#utility.yul\":2630:2633   */\n      0x00\n        /* \"#utility.yul\":2653:2676   */\n      tag_83\n        /* \"#utility.yul\":2670:2675   */\n      dup3\n        /* \"#utility.yul\":2653:2676   */\n      tag_39\n      jump\t// in\n    tag_83:\n        /* \"#utility.yul\":2644:2676   */\n      swap2\n      pop\n        /* \"#utility.yul\":2698:2764   */\n      0x7fffffffffffffffffffffffffffffffffffffffffffffffffffffffffffffff\n        /* \"#utility.yul\":2691:2696   */\n      dup3\n        /* \"#utility.yul\":2688:2765   */\n      sub\n        /* \"#utility.yul\":2685:2788   */\n      tag_84\n      jumpi\n        /* \"#utility.yul\":2768:2786   */\n      tag_85\n      tag_48\n      jump\t// in\n    tag_85:\n        /* \"#utility.yul\":2685:2788   */\n    tag_84:\n        /* \"#utility.yul\":2815:2816   */\n      0x01\n        /* \"#utility.yul\":2808:2813   */\n      dup3\n        /* \"#utility.yul\":2804:2817   */\n      add\n        /* \"#utility.yul\":2797:2817   */\n      swap1\n      pop\n        /* \"#utility.yul\":2592:2823   */\n      swap2\n      swap1\n      pop\n      jump\t// out\n        /* \"#utility.yul\":2829:3000   */\n    tag_36:\n        /* \"#utility.yul\":2868:2871   */\n      0x00\n        /* \"#utility.yul\":2891:2915   */\n      tag_87\n        /* \"#utility.yul\":2909:2914   */\n      dup3\n        /* \"#utility.yul\":2891:2915   */\n      tag_37\n      jump\t// in\n    tag_87:\n        /* \"#utility.yul\":2882:2915   */\n      swap2\n      pop\n        /* \"#utility.yul\":2937:2941   */\n      0x00\n        /* \"#utility.yul\":2930:2935   */\n      dup3\n        /* \"#utility.yul\":2927:2942   */\n      sub\n        /* \"#utility.yul\":2924:2965   */\n      tag_88\n      jumpi\n        /* \"#utility.yul\":2945:2963   */\n      tag_89\n      tag_48\n      jump\t// in\n    tag_89:\n        /* \"#utility.yul\":2924:2965   */\n    tag_88:\n        /* \"#utility.yul\":2992:2993   */\n      0x01\n        /* \"#utility.yul\":2985:2990   */\n      dup3\n        /* \"#utility.yul\":2981:2994   */\n      sub\n        /* \"#utility.yul\":2974:2994   */\n      swap1\n      pop\n        /* \"#utility.yul\":2829:3000   */\n      swap2\n      swap1\n      pop\n      jump\t// out\n\n    auxdata: 0xa2646970667358221220e5619c2f0a3a5e72481567c380a3fd7179f31fd816d9cace0967d1ad4e7ed22464736f6c63430008120033\n}\n",
				"bytecode": {
					"linkReferences": {},
					"object": "608060405260c860015534801561001557600080fd5b50610337806100256000396000f3fe608060405234801561001057600080fd5b50600436106100625760003560e01c806306540f7e146100675780632cb777a61461008557806337e2f60c146100a35780635f6633bf146100bf5780639753046e146100db578063d732d955146100e5575b600080fd5b61006f6100ef565b60405161007c919061015b565b60405180910390f35b61008d6100f5565b60405161009a919061018f565b60405180910390f35b6100bd60048036038101906100b891906101db565b6100fb565b005b6100d960048036038101906100d49190610234565b610105565b005b6100e361010f565b005b6100ed610129565b005b60005481565b60015481565b8060008190555050565b8060018190555050565b6001600081548092919061012290610290565b9190505550565b60008081548092919061013b906102d8565b9190505550565b6000819050919050565b61015581610142565b82525050565b6000602082019050610170600083018461014c565b92915050565b6000819050919050565b61018981610176565b82525050565b60006020820190506101a46000830184610180565b92915050565b600080fd5b6101b881610142565b81146101c357600080fd5b50565b6000813590506101d5816101af565b92915050565b6000602082840312156101f1576101f06101aa565b5b60006101ff848285016101c6565b91505092915050565b61021181610176565b811461021c57600080fd5b50565b60008135905061022e81610208565b92915050565b60006020828403121561024a576102496101aa565b5b60006102588482850161021f565b91505092915050565b7f4e487b7100000000000000000000000000000000000000000000000000000000600052601160045260246000fd5b600061029b82610176565b91507f7fffffffffffffffffffffffffffffffffffffffffffffffffffffffffffffff82036102cd576102cc610261565b5b600182019050919050565b60006102e382610142565b9150600082036102f6576102f5610261565b5b60018203905091905056fea2646970667358221220e5619c2f0a3a5e72481567c380a3fd7179f31fd816d9cace0967d1ad4e7ed22464736f6c63430008120033",
					"opcodes": "PUSH1 0x80 PUSH1 0x40 MSTORE PUSH1 0xC8 PUSH1 0x1 SSTORE CALLVALUE DUP1 ISZERO PUSH2 0x15 JUMPI PUSH1 0x0 DUP1 REVERT JUMPDEST POP PUSH2 0x337 DUP1 PUSH2 0x25 PUSH1 0x0 CODECOPY PUSH1 0x0 RETURN INVALID PUSH1 0x80 PUSH1 0x40 MSTORE CALLVALUE DUP1 ISZERO PUSH2 0x10 JUMPI PUSH1 0x0 DUP1 REVERT JUMPDEST POP PUSH1 0x4 CALLDATASIZE LT PUSH2 0x62 JUMPI PUSH1 0x0 CALLDATALOAD PUSH1 0xE0 SHR DUP1 PUSH4 0x6540F7E EQ PUSH2 0x67 JUMPI DUP1 PUSH4 0x2CB777A6 EQ PUSH2 0x85 JUMPI DUP1 PUSH4 0x37E2F60C EQ PUSH2 0xA3 JUMPI DUP1 PUSH4 0x5F6633BF EQ PUSH2 0xBF JUMPI DUP1 PUSH4 0x9753046E EQ PUSH2 0xDB JUMPI DUP1 PUSH4 0xD732D955 EQ PUSH2 0xE5 JUMPI JUMPDEST PUSH1 0x0 DUP1 REVERT JUMPDEST PUSH2 0x6F PUSH2 0xEF JUMP JUMPDEST PUSH1 0x40 MLOAD PUSH2 0x7C SWAP2 SWAP1 PUSH2 0x15B JUMP JUMPDEST PUSH1 0x40 MLOAD DUP1 SWAP2 SUB SWAP1 RETURN JUMPDEST PUSH2 0x8D PUSH2 0xF5 JUMP JUMPDEST PUSH1 0x40 MLOAD PUSH2 0x9A SWAP2 SWAP1 PUSH2 0x18F JUMP JUMPDEST PUSH1 0x40 MLOAD DUP1 SWAP2 SUB SWAP1 RETURN JUMPDEST PUSH2 0xBD PUSH1 0x4 DUP1 CALLDATASIZE SUB DUP2 ADD SWAP1 PUSH2 0xB8 SWAP2 SWAP1 PUSH2 0x1DB JUMP JUMPDEST PUSH2 0xFB JUMP JUMPDEST STOP JUMPDEST PUSH2 0xD9 PUSH1 0x4 DUP1 CALLDATASIZE SUB DUP2 ADD SWAP1 PUSH2 0xD4 SWAP2 SWAP1 PUSH2 0x234 JUMP JUMPDEST PUSH2 0x105 JUMP JUMPDEST STOP JUMPDEST PUSH2 0xE3 PUSH2 0x10F JUMP JUMPDEST STOP JUMPDEST PUSH2 0xED PUSH2 0x129 JUMP JUMPDEST STOP JUMPDEST PUSH1 0x0 SLOAD DUP2 JUMP JUMPDEST PUSH1 0x1 SLOAD DUP2 JUMP JUMPDEST DUP1 PUSH1 0x0 DUP2 SWAP1 SSTORE POP POP JUMP JUMPDEST DUP1 PUSH1 0x1 DUP2 SWAP1 SSTORE POP POP JUMP JUMPDEST PUSH1 0x1 PUSH1 0x0 DUP2 SLOAD DUP1 SWAP3 SWAP2 SWAP1 PUSH2 0x122 SWAP1 PUSH2 0x290 JUMP JUMPDEST SWAP2 SWAP1 POP SSTORE POP JUMP JUMPDEST PUSH1 0x0 DUP1 DUP2 SLOAD DUP1 SWAP3 SWAP2 SWAP1 PUSH2 0x13B SWAP1 PUSH2 0x2D8 JUMP JUMPDEST SWAP2 SWAP1 POP SSTORE POP JUMP JUMPDEST PUSH1 0x0 DUP2 SWAP1 POP SWAP2 SWAP1 POP JUMP JUMPDEST PUSH2 0x155 DUP2 PUSH2 0x142 JUMP JUMPDEST DUP3 MSTORE POP POP JUMP JUMPDEST PUSH1 0x0 PUSH1 0x20 DUP3 ADD SWAP1 POP PUSH2 0x170 PUSH1 0x0 DUP4 ADD DUP5 PUSH2 0x14C JUMP JUMPDEST SWAP3 SWAP2 POP POP JUMP JUMPDEST PUSH1 0x0 DUP2 SWAP1 POP SWAP2 SWAP1 POP JUMP JUMPDEST PUSH2 0x189 DUP2 PUSH2 0x176 JUMP JUMPDEST DUP3 MSTORE POP POP JUMP JUMPDEST PUSH1 0x0 PUSH1 0x20 DUP3 ADD SWAP1 POP PUSH2 0x1A4 PUSH1 0x0 DUP4 ADD DUP5 PUSH2 0x180 JUMP JUMPDEST SWAP3 SWAP2 POP POP JUMP JUMPDEST PUSH1 0x0 DUP1 REVERT JUMPDEST PUSH2 0x1B8 DUP2 PUSH2 0x142 JUMP JUMPDEST DUP2 EQ PUSH2 0x1C3 JUMPI PUSH1 0x0 DUP1 REVERT JUMPDEST POP JUMP JUMPDEST PUSH1 0x0 DUP2 CALLDATALOAD SWAP1 POP PUSH2 0x1D5 DUP2 PUSH2 0x1AF JUMP JUMPDEST SWAP3 SWAP2 POP POP JUMP JUMPDEST PUSH1 0x0 PUSH1 0x20 DUP3 DUP5 SUB SLT ISZERO PUSH2 0x1F1 JUMPI PUSH2 0x1F0 PUSH2 0x1AA JUMP JUMPDEST JUMPDEST PUSH1 0x0 PUSH2 0x1FF DUP5 DUP3 DUP6 ADD PUSH2 0x1C6 JUMP JUMPDEST SWAP2 POP POP SWAP3 SWAP2 POP POP JUMP JUMPDEST PUSH2 0x211 DUP2 PUSH2 0x176 JUMP JUMPDEST DUP2 EQ PUSH2 0x21C JUMPI PUSH1 0x0 DUP1 REVERT JUMPDEST POP JUMP JUMPDEST PUSH1 0x0 DUP2 CALLDATALOAD SWAP1 POP PUSH2 0x22E DUP2 PUSH2 0x208 JUMP JUMPDEST SWAP3 SWAP2 POP POP JUMP JUMPDEST PUSH1 0x0 PUSH1 0x20 DUP3 DUP5 SUB SLT ISZERO PUSH2 0x24A JUMPI PUSH2 0x249 PUSH2 0x1AA JUMP JUMPDEST JUMPDEST PUSH1 0x0 PUSH2 0x258 DUP5 DUP3 DUP6 ADD PUSH2 0x21F JUMP JUMPDEST SWAP2 POP POP SWAP3 SWAP2 POP POP JUMP JUMPDEST PUSH32 0x4E487B7100000000000000000000000000000000000000000000000000000000 PUSH1 0x0 MSTORE PUSH1 0x11 PUSH1 0x4 MSTORE PUSH1 0x24 PUSH1 0x0 REVERT JUMPDEST PUSH1 0x0 PUSH2 0x29B DUP3 PUSH2 0x176 JUMP JUMPDEST SWAP2 POP PUSH32 0x7FFFFFFFFFFFFFFFFFFFFFFFFFFFFFFFFFFFFFFFFFFFFFFFFFFFFFFFFFFFFFFF DUP3 SUB PUSH2 0x2CD JUMPI PUSH2 0x2CC PUSH2 0x261 JUMP JUMPDEST JUMPDEST PUSH1 0x1 DUP3 ADD SWAP1 POP SWAP2 SWAP1 POP JUMP JUMPDEST PUSH1 0x0 PUSH2 0x2E3 DUP3 PUSH2 0x142 JUMP JUMPDEST SWAP2 POP PUSH1 0x0 DUP3 SUB PUSH2 0x2F6 JUMPI PUSH2 0x2F5 PUSH2 0x261 JUMP JUMPDEST JUMPDEST PUSH1 0x1 DUP3 SUB SWAP1 POP SWAP2 SWAP1 POP JUMP INVALID LOG2 PUSH5 0x6970667358 0x22 SLT KECCAK256 0xE5 PUSH2 0x9C2F EXP GASPRICE 0x5E PUSH19 0x481567C380A3FD7179F31FD816D9CACE0967D1 0xAD 0x4E PUSH31 0xD22464736F6C63430008120033000000000000000000000000000000000000 "
				},
				"gasEstimates": {
					"creation": {
						"codeDepositCost": "164600",
						"executionCost": "22314",
						"totalCost": "186914"
					},
					"external": {
						"decrease()": "24589",
						"manipulate()": "24567",
						"myInt()": "2429",
						"myUint()": "2407",
						"setMyInt(int256)": "22564",
						"setmyUint(uint256)": "22542"
					}
				},
				"methodIdentifiers": {
					"decrease()": "d732d955",
					"manipulate()": "9753046e",
					"myInt()": "2cb777a6",
					"myUint()": "06540f7e",
					"setMyInt(int256)": "5f6633bf",
					"setmyUint(uint256)": "37e2f60c"
				}
			},
			"storageLayout": {
				"storage": [
					{
						"astId": 3,
						"contract": "contracts/Uint.sol:integers",
						"label": "myUint",
						"offset": 0,
						"slot": "0",
						"type": "t_uint256"
					},
					{
						"astId": 6,
						"contract": "contracts/Uint.sol:integers",
						"label": "myInt",
						"offset": 0,
						"slot": "1",
						"type": "t_int256"
					}
				],
				"types": {
					"t_int256": {
						"encoding": "inplace",
						"label": "int256",
						"numberOfBytes": "32"
					},
					"t_uint256": {
						"encoding": "inplace",
						"label": "uint256",
						"numberOfBytes": "32"
					}
				}
			},
			"userdoc": {
				"kind": "user",
				"methods": {},
				"version": 1
			}
		}
	}
}