{
	"contracts/vitalsContract.sol": {
		"PatientRecord": {
			"abi": [
				{
					"inputs": [],
					"stateMutability": "nonpayable",
					"type": "constructor"
				},
				{
					"anonymous": false,
					"inputs": [
						{
							"indexed": true,
							"internalType": "address",
							"name": "patientAddress",
							"type": "address"
						},
						{
							"indexed": false,
							"internalType": "string[6]",
							"name": "diseaseInfo",
							"type": "string[6]"
						}
					],
					"name": "DiseaseInformationUpdated",
					"type": "event"
				},
				{
					"anonymous": false,
					"inputs": [
						{
							"indexed": true,
							"internalType": "address",
							"name": "patientAddress",
							"type": "address"
						},
						{
							"indexed": false,
							"internalType": "string[2]",
							"name": "labResults",
							"type": "string[2]"
						}
					],
					"name": "LabResultsUpdated",
					"type": "event"
				},
				{
					"anonymous": false,
					"inputs": [
						{
							"indexed": true,
							"internalType": "address",
							"name": "patientAddress",
							"type": "address"
						},
						{
							"indexed": false,
							"internalType": "string[2]",
							"name": "labTests",
							"type": "string[2]"
						}
					],
					"name": "LabTestsUpdated",
					"type": "event"
				},
				{
					"anonymous": false,
					"inputs": [
						{
							"indexed": true,
							"internalType": "address",
							"name": "patientAddress",
							"type": "address"
						},
						{
							"indexed": false,
							"internalType": "string[3]",
							"name": "medicationInfo",
							"type": "string[3]"
						}
					],
					"name": "MedicationInformationUpdated",
					"type": "event"
				},
				{
					"anonymous": false,
					"inputs": [
						{
							"indexed": true,
							"internalType": "address",
							"name": "previousOwner",
							"type": "address"
						},
						{
							"indexed": true,
							"internalType": "address",
							"name": "newOwner",
							"type": "address"
						}
					],
					"name": "OwnershipTransferred",
					"type": "event"
				},
				{
					"anonymous": false,
					"inputs": [
						{
							"indexed": true,
							"internalType": "bytes32",
							"name": "role",
							"type": "bytes32"
						},
						{
							"indexed": true,
							"internalType": "bytes32",
							"name": "previousAdminRole",
							"type": "bytes32"
						},
						{
							"indexed": true,
							"internalType": "bytes32",
							"name": "newAdminRole",
							"type": "bytes32"
						}
					],
					"name": "RoleAdminChanged",
					"type": "event"
				},
				{
					"anonymous": false,
					"inputs": [
						{
							"indexed": true,
							"internalType": "bytes32",
							"name": "role",
							"type": "bytes32"
						},
						{
							"indexed": true,
							"internalType": "address",
							"name": "account",
							"type": "address"
						},
						{
							"indexed": true,
							"internalType": "address",
							"name": "sender",
							"type": "address"
						}
					],
					"name": "RoleGranted",
					"type": "event"
				},
				{
					"anonymous": false,
					"inputs": [
						{
							"indexed": true,
							"internalType": "bytes32",
							"name": "role",
							"type": "bytes32"
						},
						{
							"indexed": true,
							"internalType": "address",
							"name": "account",
							"type": "address"
						},
						{
							"indexed": true,
							"internalType": "address",
							"name": "sender",
							"type": "address"
						}
					],
					"name": "RoleRevoked",
					"type": "event"
				},
				{
					"anonymous": false,
					"inputs": [
						{
							"indexed": true,
							"internalType": "address",
							"name": "patientAddress",
							"type": "address"
						},
						{
							"indexed": false,
							"internalType": "string[7]",
							"name": "vitalSigns",
							"type": "string[7]"
						}
					],
					"name": "VitalSignsUpdated",
					"type": "event"
				},
				{
					"inputs": [],
					"name": "DEFAULT_ADMIN_ROLE",
					"outputs": [
						{
							"internalType": "bytes32",
							"name": "",
							"type": "bytes32"
						}
					],
					"stateMutability": "view",
					"type": "function"
				},
				{
					"inputs": [
						{
							"internalType": "address",
							"name": "patientAddress",
							"type": "address"
						}
					],
					"name": "getPatientRecords",
					"outputs": [
						{
							"components": [
								{
									"internalType": "string[6]",
									"name": "diseaseInfo",
									"type": "string[6]"
								},
								{
									"internalType": "string[7]",
									"name": "vitalSigns",
									"type": "string[7]"
								},
								{
									"internalType": "string[3]",
									"name": "medicationInfo",
									"type": "string[3]"
								},
								{
									"internalType": "string[2]",
									"name": "labTests",
									"type": "string[2]"
								},
								{
									"internalType": "string[2]",
									"name": "labResults",
									"type": "string[2]"
								}
							],
							"internalType": "struct PatientRecord.Records",
							"name": "",
							"type": "tuple"
						}
					],
					"stateMutability": "view",
					"type": "function"
				},
				{
					"inputs": [
						{
							"internalType": "bytes32",
							"name": "role",
							"type": "bytes32"
						}
					],
					"name": "getRoleAdmin",
					"outputs": [
						{
							"internalType": "bytes32",
							"name": "",
							"type": "bytes32"
						}
					],
					"stateMutability": "view",
					"type": "function"
				},
				{
					"inputs": [
						{
							"internalType": "bytes32",
							"name": "role",
							"type": "bytes32"
						},
						{
							"internalType": "address",
							"name": "account",
							"type": "address"
						}
					],
					"name": "grantRole",
					"outputs": [],
					"stateMutability": "nonpayable",
					"type": "function"
				},
				{
					"inputs": [
						{
							"internalType": "bytes32",
							"name": "role",
							"type": "bytes32"
						},
						{
							"internalType": "address",
							"name": "account",
							"type": "address"
						}
					],
					"name": "hasRole",
					"outputs": [
						{
							"internalType": "bool",
							"name": "",
							"type": "bool"
						}
					],
					"stateMutability": "view",
					"type": "function"
				},
				{
					"inputs": [],
					"name": "onlyDoctor",
					"outputs": [
						{
							"internalType": "bytes32",
							"name": "",
							"type": "bytes32"
						}
					],
					"stateMutability": "view",
					"type": "function"
				},
				{
					"inputs": [],
					"name": "owner",
					"outputs": [
						{
							"internalType": "address",
							"name": "",
							"type": "address"
						}
					],
					"stateMutability": "view",
					"type": "function"
				},
				{
					"inputs": [],
					"name": "renounceOwnership",
					"outputs": [],
					"stateMutability": "nonpayable",
					"type": "function"
				},
				{
					"inputs": [
						{
							"internalType": "bytes32",
							"name": "role",
							"type": "bytes32"
						},
						{
							"internalType": "address",
							"name": "account",
							"type": "address"
						}
					],
					"name": "renounceRole",
					"outputs": [],
					"stateMutability": "nonpayable",
					"type": "function"
				},
				{
					"inputs": [
						{
							"internalType": "bytes32",
							"name": "role",
							"type": "bytes32"
						},
						{
							"internalType": "address",
							"name": "account",
							"type": "address"
						}
					],
					"name": "revokeRole",
					"outputs": [],
					"stateMutability": "nonpayable",
					"type": "function"
				},
				{
					"inputs": [
						{
							"internalType": "bytes4",
							"name": "interfaceId",
							"type": "bytes4"
						}
					],
					"name": "supportsInterface",
					"outputs": [
						{
							"internalType": "bool",
							"name": "",
							"type": "bool"
						}
					],
					"stateMutability": "view",
					"type": "function"
				},
				{
					"inputs": [
						{
							"internalType": "address",
							"name": "newOwner",
							"type": "address"
						}
					],
					"name": "transferOwnership",
					"outputs": [],
					"stateMutability": "nonpayable",
					"type": "function"
				},
				{
					"inputs": [
						{
							"internalType": "address",
							"name": "patientAddress",
							"type": "address"
						},
						{
							"internalType": "string[6]",
							"name": "_diseaseInfo",
							"type": "string[6]"
						}
					],
					"name": "updateDiseaseInfo",
					"outputs": [],
					"stateMutability": "nonpayable",
					"type": "function"
				},
				{
					"inputs": [
						{
							"internalType": "address",
							"name": "patientAddress",
							"type": "address"
						},
						{
							"internalType": "string[2]",
							"name": "_labResults",
							"type": "string[2]"
						}
					],
					"name": "updateLabResults",
					"outputs": [],
					"stateMutability": "nonpayable",
					"type": "function"
				},
				{
					"inputs": [
						{
							"internalType": "address",
							"name": "patientAddress",
							"type": "address"
						},
						{
							"internalType": "string[2]",
							"name": "_labTests",
							"type": "string[2]"
						}
					],
					"name": "updateLabTests",
					"outputs": [],
					"stateMutability": "nonpayable",
					"type": "function"
				},
				{
					"inputs": [
						{
							"internalType": "address",
							"name": "patientAddress",
							"type": "address"
						},
						{
							"internalType": "string[3]",
							"name": "_medicationInfo",
							"type": "string[3]"
						}
					],
					"name": "updateMedicationInfo",
					"outputs": [],
					"stateMutability": "nonpayable",
					"type": "function"
				},
				{
					"inputs": [
						{
							"internalType": "address",
							"name": "patientAddress",
							"type": "address"
						},
						{
							"internalType": "string[7]",
							"name": "_vitalSigns",
							"type": "string[7]"
						}
					],
					"name": "updateVitalSigns",
					"outputs": [],
					"stateMutability": "nonpayable",
					"type": "function"
				}
			],
			"devdoc": {
				"events": {
					"RoleAdminChanged(bytes32,bytes32,bytes32)": {
						"details": "Emitted when `newAdminRole` is set as ``role``'s admin role, replacing `previousAdminRole` `DEFAULT_ADMIN_ROLE` is the starting admin for all roles, despite {RoleAdminChanged} not being emitted signaling this. _Available since v3.1._"
					},
					"RoleGranted(bytes32,address,address)": {
						"details": "Emitted when `account` is granted `role`. `sender` is the account that originated the contract call, an admin role bearer except when using {AccessControl-_setupRole}."
					},
					"RoleRevoked(bytes32,address,address)": {
						"details": "Emitted when `account` is revoked `role`. `sender` is the account that originated the contract call:   - if using `revokeRole`, it is the admin role bearer   - if using `renounceRole`, it is the role bearer (i.e. `account`)"
					}
				},
				"kind": "dev",
				"methods": {
					"getRoleAdmin(bytes32)": {
						"details": "Returns the admin role that controls `role`. See {grantRole} and {revokeRole}. To change a role's admin, use {_setRoleAdmin}."
					},
					"grantRole(bytes32,address)": {
						"details": "Grants `role` to `account`. If `account` had not been already granted `role`, emits a {RoleGranted} event. Requirements: - the caller must have ``role``'s admin role. May emit a {RoleGranted} event."
					},
					"hasRole(bytes32,address)": {
						"details": "Returns `true` if `account` has been granted `role`."
					},
					"owner()": {
						"details": "Returns the address of the current owner."
					},
					"renounceOwnership()": {
						"details": "Leaves the contract without owner. It will not be possible to call `onlyOwner` functions. Can only be called by the current owner. NOTE: Renouncing ownership will leave the contract without an owner, thereby disabling any functionality that is only available to the owner."
					},
					"renounceRole(bytes32,address)": {
						"details": "Revokes `role` from the calling account. Roles are often managed via {grantRole} and {revokeRole}: this function's purpose is to provide a mechanism for accounts to lose their privileges if they are compromised (such as when a trusted device is misplaced). If the calling account had been revoked `role`, emits a {RoleRevoked} event. Requirements: - the caller must be `account`. May emit a {RoleRevoked} event."
					},
					"revokeRole(bytes32,address)": {
						"details": "Revokes `role` from `account`. If `account` had been granted `role`, emits a {RoleRevoked} event. Requirements: - the caller must have ``role``'s admin role. May emit a {RoleRevoked} event."
					},
					"supportsInterface(bytes4)": {
						"details": "See {IERC165-supportsInterface}."
					},
					"transferOwnership(address)": {
						"details": "Transfers ownership of the contract to a new account (`newOwner`). Can only be called by the current owner."
					}
				},
				"version": 1
			},
			"evm": {
				"assembly": "    /* \"contracts/vitalsContract.sol\":170:3192  contract PatientRecord is Ownable, AccessControl {... */\n  mstore(0x40, 0x80)\n    /* \"contracts/vitalsContract.sol\":535:600  constructor() {... */\n  callvalue\n  dup1\n  iszero\n  tag_1\n  jumpi\n  0x00\n  dup1\n  revert\ntag_1:\n  pop\n    /* \"@openzeppelin/contracts/access/Ownable.sol\":936:968  _transferOwnership(_msgSender()) */\n  tag_5\n    /* \"@openzeppelin/contracts/access/Ownable.sol\":955:967  _msgSender() */\n  tag_6\n    /* \"@openzeppelin/contracts/access/Ownable.sol\":955:965  _msgSender */\n  shl(0x20, tag_7)\n    /* \"@openzeppelin/contracts/access/Ownable.sol\":955:967  _msgSender() */\n  0x20\n  shr\n  jump\t// in\ntag_6:\n    /* \"@openzeppelin/contracts/access/Ownable.sol\":936:954  _transferOwnership */\n  shl(0x20, tag_8)\n    /* \"@openzeppelin/contracts/access/Ownable.sol\":936:968  _transferOwnership(_msgSender()) */\n  0x20\n  shr\n  jump\t// in\ntag_5:\n    /* \"contracts/vitalsContract.sol\":559:593  _setupRole(onlyDoctor, msg.sender) */\n  tag_10\n    /* \"contracts/vitalsContract.sol\":268:291  keccak256(\"onlyDoctor\") */\n  0xff4ed198c18ce05e59ff2bcb2e277f2554623dcb9ab1d05e463e435a930cc469\n    /* \"contracts/vitalsContract.sol\":582:592  msg.sender */\n  caller\n    /* \"contracts/vitalsContract.sol\":559:569  _setupRole */\n  shl(0x20, tag_11)\n    /* \"contracts/vitalsContract.sol\":559:593  _setupRole(onlyDoctor, msg.sender) */\n  0x20\n  shr\n  jump\t// in\ntag_10:\n    /* \"contracts/vitalsContract.sol\":170:3192  contract PatientRecord is Ownable, AccessControl {... */\n  jump(tag_12)\n    /* \"@openzeppelin/contracts/utils/Context.sol\":640:736  function _msgSender() internal view virtual returns (address) {... */\ntag_7:\n    /* \"@openzeppelin/contracts/utils/Context.sol\":693:700  address */\n  0x00\n    /* \"@openzeppelin/contracts/utils/Context.sol\":719:729  msg.sender */\n  caller\n    /* \"@openzeppelin/contracts/utils/Context.sol\":712:729  return msg.sender */\n  swap1\n  pop\n    /* \"@openzeppelin/contracts/utils/Context.sol\":640:736  function _msgSender() internal view virtual returns (address) {... */\n  swap1\n  jump\t// out\n    /* \"@openzeppelin/contracts/access/Ownable.sol\":2426:2613  function _transferOwnership(address newOwner) internal virtual {... */\ntag_8:\n    /* \"@openzeppelin/contracts/access/Ownable.sol\":2499:2515  address oldOwner */\n  0x00\n    /* \"@openzeppelin/contracts/access/Ownable.sol\":2518:2524  _owner */\n  dup1\n  0x00\n  swap1\n  sload\n  swap1\n  0x0100\n  exp\n  swap1\n  div\n  0xffffffffffffffffffffffffffffffffffffffff\n  and\n    /* \"@openzeppelin/contracts/access/Ownable.sol\":2499:2524  address oldOwner = _owner */\n  swap1\n  pop\n    /* \"@openzeppelin/contracts/access/Ownable.sol\":2543:2551  newOwner */\n  dup2\n    /* \"@openzeppelin/contracts/access/Ownable.sol\":2534:2540  _owner */\n  0x00\n  dup1\n    /* \"@openzeppelin/contracts/access/Ownable.sol\":2534:2551  _owner = newOwner */\n  0x0100\n  exp\n  dup2\n  sload\n  dup2\n  0xffffffffffffffffffffffffffffffffffffffff\n  mul\n  not\n  and\n  swap1\n  dup4\n  0xffffffffffffffffffffffffffffffffffffffff\n  and\n  mul\n  or\n  swap1\n  sstore\n  pop\n    /* \"@openzeppelin/contracts/access/Ownable.sol\":2597:2605  newOwner */\n  dup2\n    /* \"@openzeppelin/contracts/access/Ownable.sol\":2566:2606  OwnershipTransferred(oldOwner, newOwner) */\n  0xffffffffffffffffffffffffffffffffffffffff\n  and\n    /* \"@openzeppelin/contracts/access/Ownable.sol\":2587:2595  oldOwner */\n  dup2\n    /* \"@openzeppelin/contracts/access/Ownable.sol\":2566:2606  OwnershipTransferred(oldOwner, newOwner) */\n  0xffffffffffffffffffffffffffffffffffffffff\n  and\n  0x8be0079c531659141344cd1fd0a4f28419497f9722a3daafe3b4186f6b6457e0\n  mload(0x40)\n  mload(0x40)\n  dup1\n  swap2\n  sub\n  swap1\n  log3\n    /* \"@openzeppelin/contracts/access/Ownable.sol\":2489:2613  {... */\n  pop\n    /* \"@openzeppelin/contracts/access/Ownable.sol\":2426:2613  function _transferOwnership(address newOwner) internal virtual {... */\n  pop\n  jump\t// out\n    /* \"@openzeppelin/contracts/access/AccessControl.sol\":6937:7047  function _setupRole(bytes32 role, address account) internal virtual {... */\ntag_11:\n    /* \"@openzeppelin/contracts/access/AccessControl.sol\":7015:7040  _grantRole(role, account) */\n  tag_16\n    /* \"@openzeppelin/contracts/access/AccessControl.sol\":7026:7030  role */\n  dup3\n    /* \"@openzeppelin/contracts/access/AccessControl.sol\":7032:7039  account */\n  dup3\n    /* \"@openzeppelin/contracts/access/AccessControl.sol\":7015:7025  _grantRole */\n  shl(0x20, tag_17)\n    /* \"@openzeppelin/contracts/access/AccessControl.sol\":7015:7040  _grantRole(role, account) */\n  0x20\n  shr\n  jump\t// in\ntag_16:\n    /* \"@openzeppelin/contracts/access/AccessControl.sol\":6937:7047  function _setupRole(bytes32 role, address account) internal virtual {... */\n  pop\n  pop\n  jump\t// out\n    /* \"@openzeppelin/contracts/access/AccessControl.sol\":7587:7820  function _grantRole(bytes32 role, address account) internal virtual {... */\ntag_17:\n    /* \"@openzeppelin/contracts/access/AccessControl.sol\":7670:7692  hasRole(role, account) */\n  tag_19\n    /* \"@openzeppelin/contracts/access/AccessControl.sol\":7678:7682  role */\n  dup3\n    /* \"@openzeppelin/contracts/access/AccessControl.sol\":7684:7691  account */\n  dup3\n    /* \"@openzeppelin/contracts/access/AccessControl.sol\":7670:7677  hasRole */\n  shl(0x20, tag_20)\n    /* \"@openzeppelin/contracts/access/AccessControl.sol\":7670:7692  hasRole(role, account) */\n  0x20\n  shr\n  jump\t// in\ntag_19:\n    /* \"@openzeppelin/contracts/access/AccessControl.sol\":7665:7814  if (!hasRole(role, account)) {... */\n  tag_21\n  jumpi\n    /* \"@openzeppelin/contracts/access/AccessControl.sol\":7740:7744  true */\n  0x01\n    /* \"@openzeppelin/contracts/access/AccessControl.sol\":7708:7714  _roles */\n  dup1\n    /* \"@openzeppelin/contracts/access/AccessControl.sol\":7708:7720  _roles[role] */\n  0x00\n    /* \"@openzeppelin/contracts/access/AccessControl.sol\":7715:7719  role */\n  dup5\n    /* \"@openzeppelin/contracts/access/AccessControl.sol\":7708:7720  _roles[role] */\n  dup2\n  mstore\n  0x20\n  add\n  swap1\n  dup2\n  mstore\n  0x20\n  add\n  0x00\n  keccak256\n    /* \"@openzeppelin/contracts/access/AccessControl.sol\":7708:7728  _roles[role].members */\n  0x00\n  add\n    /* \"@openzeppelin/contracts/access/AccessControl.sol\":7708:7737  _roles[role].members[account] */\n  0x00\n    /* \"@openzeppelin/contracts/access/AccessControl.sol\":7729:7736  account */\n  dup4\n    /* \"@openzeppelin/contracts/access/AccessControl.sol\":7708:7737  _roles[role].members[account] */\n  0xffffffffffffffffffffffffffffffffffffffff\n  and\n  0xffffffffffffffffffffffffffffffffffffffff\n  and\n  dup2\n  mstore\n  0x20\n  add\n  swap1\n  dup2\n  mstore\n  0x20\n  add\n  0x00\n  keccak256\n  0x00\n    /* \"@openzeppelin/contracts/access/AccessControl.sol\":7708:7744  _roles[role].members[account] = true */\n  0x0100\n  exp\n  dup2\n  sload\n  dup2\n  0xff\n  mul\n  not\n  and\n  swap1\n  dup4\n  iszero\n  iszero\n  mul\n  or\n  swap1\n  sstore\n  pop\n    /* \"@openzeppelin/contracts/access/AccessControl.sol\":7790:7802  _msgSender() */\n  tag_22\n    /* \"@openzeppelin/contracts/access/AccessControl.sol\":7790:7800  _msgSender */\n  shl(0x20, tag_7)\n    /* \"@openzeppelin/contracts/access/AccessControl.sol\":7790:7802  _msgSender() */\n  0x20\n  shr\n  jump\t// in\ntag_22:\n    /* \"@openzeppelin/contracts/access/AccessControl.sol\":7763:7803  RoleGranted(role, account, _msgSender()) */\n  0xffffffffffffffffffffffffffffffffffffffff\n  and\n    /* \"@openzeppelin/contracts/access/AccessControl.sol\":7781:7788  account */\n  dup2\n    /* \"@openzeppelin/contracts/access/AccessControl.sol\":7763:7803  RoleGranted(role, account, _msgSender()) */\n  0xffffffffffffffffffffffffffffffffffffffff\n  and\n    /* \"@openzeppelin/contracts/access/AccessControl.sol\":7775:7779  role */\n  dup4\n    /* \"@openzeppelin/contracts/access/AccessControl.sol\":7763:7803  RoleGranted(role, account, _msgSender()) */\n  0x2f8788117e7eff1d82e926ec794901d17c78024a50270940304540a733656f0d\n  mload(0x40)\n  mload(0x40)\n  dup1\n  swap2\n  sub\n  swap1\n  log4\n    /* \"@openzeppelin/contracts/access/AccessControl.sol\":7665:7814  if (!hasRole(role, account)) {... */\ntag_21:\n    /* \"@openzeppelin/contracts/access/AccessControl.sol\":7587:7820  function _grantRole(bytes32 role, address account) internal virtual {... */\n  pop\n  pop\n  jump\t// out\n    /* \"@openzeppelin/contracts/access/AccessControl.sol\":3021:3166  function hasRole(bytes32 role, address account) public view virtual override returns (bool) {... */\ntag_20:\n    /* \"@openzeppelin/contracts/access/AccessControl.sol\":3107:3111  bool */\n  0x00\n    /* \"@openzeppelin/contracts/access/AccessControl.sol\":3130:3136  _roles */\n  0x01\n    /* \"@openzeppelin/contracts/access/AccessControl.sol\":3130:3142  _roles[role] */\n  0x00\n    /* \"@openzeppelin/contracts/access/AccessControl.sol\":3137:3141  role */\n  dup5\n    /* \"@openzeppelin/contracts/access/AccessControl.sol\":3130:3142  _roles[role] */\n  dup2\n  mstore\n  0x20\n  add\n  swap1\n  dup2\n  mstore\n  0x20\n  add\n  0x00\n  keccak256\n    /* \"@openzeppelin/contracts/access/AccessControl.sol\":3130:3150  _roles[role].members */\n  0x00\n  add\n    /* \"@openzeppelin/contracts/access/AccessControl.sol\":3130:3159  _roles[role].members[account] */\n  0x00\n    /* \"@openzeppelin/contracts/access/AccessControl.sol\":3151:3158  account */\n  dup4\n    /* \"@openzeppelin/contracts/access/AccessControl.sol\":3130:3159  _roles[role].members[account] */\n  0xffffffffffffffffffffffffffffffffffffffff\n  and\n  0xffffffffffffffffffffffffffffffffffffffff\n  and\n  dup2\n  mstore\n  0x20\n  add\n  swap1\n  dup2\n  mstore\n  0x20\n  add\n  0x00\n  keccak256\n  0x00\n  swap1\n  sload\n  swap1\n  0x0100\n  exp\n  swap1\n  div\n  0xff\n  and\n    /* \"@openzeppelin/contracts/access/AccessControl.sol\":3123:3159  return _roles[role].members[account] */\n  swap1\n  pop\n    /* \"@openzeppelin/contracts/access/AccessControl.sol\":3021:3166  function hasRole(bytes32 role, address account) public view virtual override returns (bool) {... */\n  swap3\n  swap2\n  pop\n  pop\n  jump\t// out\n    /* \"contracts/vitalsContract.sol\":170:3192  contract PatientRecord is Ownable, AccessControl {... */\ntag_12:\n  dataSize(sub_0)\n  dup1\n  dataOffset(sub_0)\n  0x00\n  codecopy\n  0x00\n  return\nstop\n\nsub_0: assembly {\n        /* \"contracts/vitalsContract.sol\":170:3192  contract PatientRecord is Ownable, AccessControl {... */\n      mstore(0x40, 0x80)\n      callvalue\n      dup1\n      iszero\n      tag_1\n      jumpi\n      0x00\n      dup1\n      revert\n    tag_1:\n      pop\n      jumpi(tag_2, lt(calldatasize, 0x04))\n      shr(0xe0, calldataload(0x00))\n      dup1\n      0x715018a6\n      gt\n      tag_20\n      jumpi\n      dup1\n      0x942af88a\n      gt\n      tag_21\n      jumpi\n      dup1\n      0x942af88a\n      eq\n      tag_15\n      jumpi\n      dup1\n      0x94b31219\n      eq\n      tag_16\n      jumpi\n      dup1\n      0xa217fddf\n      eq\n      tag_17\n      jumpi\n      dup1\n      0xd547741f\n      eq\n      tag_18\n      jumpi\n      dup1\n      0xf2fde38b\n      eq\n      tag_19\n      jumpi\n      jump(tag_2)\n    tag_21:\n      dup1\n      0x715018a6\n      eq\n      tag_11\n      jumpi\n      dup1\n      0x79abb058\n      eq\n      tag_12\n      jumpi\n      dup1\n      0x8da5cb5b\n      eq\n      tag_13\n      jumpi\n      dup1\n      0x91d14854\n      eq\n      tag_14\n      jumpi\n      jump(tag_2)\n    tag_20:\n      dup1\n      0x2f2ff15d\n      gt\n      tag_22\n      jumpi\n      dup1\n      0x2f2ff15d\n      eq\n      tag_7\n      jumpi\n      dup1\n      0x33a300e5\n      eq\n      tag_8\n      jumpi\n      dup1\n      0x36568abe\n      eq\n      tag_9\n      jumpi\n      dup1\n      0x47453643\n      eq\n      tag_10\n      jumpi\n      jump(tag_2)\n    tag_22:\n      dup1\n      0x01ffc9a7\n      eq\n      tag_3\n      jumpi\n      dup1\n      0x18bd4847\n      eq\n      tag_4\n      jumpi\n      dup1\n      0x1dbb5545\n      eq\n      tag_5\n      jumpi\n      dup1\n      0x248a9ca3\n      eq\n      tag_6\n      jumpi\n    tag_2:\n      0x00\n      dup1\n      revert\n        /* \"@openzeppelin/contracts/access/AccessControl.sol\":2732:2934  function supportsInterface(bytes4 interfaceId) public view virtual override returns (bool) {... */\n    tag_3:\n      tag_23\n      0x04\n      dup1\n      calldatasize\n      sub\n      dup2\n      add\n      swap1\n      tag_24\n      swap2\n      swap1\n      tag_25\n      jump\t// in\n    tag_24:\n      tag_26\n      jump\t// in\n    tag_23:\n      mload(0x40)\n      tag_27\n      swap2\n      swap1\n      tag_28\n      jump\t// in\n    tag_27:\n      mload(0x40)\n      dup1\n      swap2\n      sub\n      swap1\n      return\n        /* \"contracts/vitalsContract.sol\":2958:3190  function getPatientRecords (address patientAddress) public view returns(Records memory) {... */\n    tag_4:\n      tag_29\n      0x04\n      dup1\n      calldatasize\n      sub\n      dup2\n      add\n      swap1\n      tag_30\n      swap2\n      swap1\n      tag_31\n      jump\t// in\n    tag_30:\n      tag_32\n      jump\t// in\n    tag_29:\n      mload(0x40)\n      tag_33\n      swap2\n      swap1\n      tag_34\n      jump\t// in\n    tag_33:\n      mload(0x40)\n      dup1\n      swap2\n      sub\n      swap1\n      return\n        /* \"contracts/vitalsContract.sol\":2611:2917  function updateLabResults(... */\n    tag_5:\n      tag_35\n      0x04\n      dup1\n      calldatasize\n      sub\n      dup2\n      add\n      swap1\n      tag_36\n      swap2\n      swap1\n      tag_37\n      jump\t// in\n    tag_36:\n      tag_38\n      jump\t// in\n    tag_35:\n      stop\n        /* \"@openzeppelin/contracts/access/AccessControl.sol\":4504:4633  function getRoleAdmin(bytes32 role) public view virtual override returns (bytes32) {... */\n    tag_6:\n      tag_39\n      0x04\n      dup1\n      calldatasize\n      sub\n      dup2\n      add\n      swap1\n      tag_40\n      swap2\n      swap1\n      tag_41\n      jump\t// in\n    tag_40:\n      tag_42\n      jump\t// in\n    tag_39:\n      mload(0x40)\n      tag_43\n      swap2\n      swap1\n      tag_44\n      jump\t// in\n    tag_43:\n      mload(0x40)\n      dup1\n      swap2\n      sub\n      swap1\n      return\n        /* \"@openzeppelin/contracts/access/AccessControl.sol\":4929:5074  function grantRole(bytes32 role, address account) public virtual override onlyRole(getRoleAdmin(role)) {... */\n    tag_7:\n      tag_45\n      0x04\n      dup1\n      calldatasize\n      sub\n      dup2\n      add\n      swap1\n      tag_46\n      swap2\n      swap1\n      tag_47\n      jump\t// in\n    tag_46:\n      tag_48\n      jump\t// in\n    tag_45:\n      stop\n        /* \"contracts/vitalsContract.sol\":231:291  bytes32 public constant onlyDoctor = keccak256(\"onlyDoctor\") */\n    tag_8:\n      tag_49\n      tag_50\n      jump\t// in\n    tag_49:\n      mload(0x40)\n      tag_51\n      swap2\n      swap1\n      tag_44\n      jump\t// in\n    tag_51:\n      mload(0x40)\n      dup1\n      swap2\n      sub\n      swap1\n      return\n        /* \"@openzeppelin/contracts/access/AccessControl.sol\":6038:6252  function renounceRole(bytes32 role, address account) public virtual override {... */\n    tag_9:\n      tag_52\n      0x04\n      dup1\n      calldatasize\n      sub\n      dup2\n      add\n      swap1\n      tag_53\n      swap2\n      swap1\n      tag_47\n      jump\t// in\n    tag_53:\n      tag_54\n      jump\t// in\n    tag_52:\n      stop\n        /* \"contracts/vitalsContract.sol\":1192:1511  function updateDiseaseInfo(... */\n    tag_10:\n      tag_55\n      0x04\n      dup1\n      calldatasize\n      sub\n      dup2\n      add\n      swap1\n      tag_56\n      swap2\n      swap1\n      tag_57\n      jump\t// in\n    tag_56:\n      tag_58\n      jump\t// in\n    tag_55:\n      stop\n        /* \"@openzeppelin/contracts/access/Ownable.sol\":1824:1925  function renounceOwnership() public virtual onlyOwner {... */\n    tag_11:\n      tag_59\n      tag_60\n      jump\t// in\n    tag_59:\n      stop\n        /* \"contracts/vitalsContract.sol\":1548:1855  function updateVitalSigns(... */\n    tag_12:\n      tag_61\n      0x04\n      dup1\n      calldatasize\n      sub\n      dup2\n      add\n      swap1\n      tag_62\n      swap2\n      swap1\n      tag_63\n      jump\t// in\n    tag_62:\n      tag_64\n      jump\t// in\n    tag_61:\n      stop\n        /* \"@openzeppelin/contracts/access/Ownable.sol\":1201:1286  function owner() public view virtual returns (address) {... */\n    tag_13:\n      tag_65\n      tag_66\n      jump\t// in\n    tag_65:\n      mload(0x40)\n      tag_67\n      swap2\n      swap1\n      tag_68\n      jump\t// in\n    tag_67:\n      mload(0x40)\n      dup1\n      swap2\n      sub\n      swap1\n      return\n        /* \"@openzeppelin/contracts/access/AccessControl.sol\":3021:3166  function hasRole(bytes32 role, address account) public view virtual override returns (bool) {... */\n    tag_14:\n      tag_69\n      0x04\n      dup1\n      calldatasize\n      sub\n      dup2\n      add\n      swap1\n      tag_70\n      swap2\n      swap1\n      tag_47\n      jump\t// in\n    tag_70:\n      tag_71\n      jump\t// in\n    tag_69:\n      mload(0x40)\n      tag_72\n      swap2\n      swap1\n      tag_28\n      jump\t// in\n    tag_72:\n      mload(0x40)\n      dup1\n      swap2\n      sub\n      swap1\n      return\n        /* \"contracts/vitalsContract.sol\":1902:2239  function updateMedicationInfo(... */\n    tag_15:\n      tag_73\n      0x04\n      dup1\n      calldatasize\n      sub\n      dup2\n      add\n      swap1\n      tag_74\n      swap2\n      swap1\n      tag_75\n      jump\t// in\n    tag_74:\n      tag_76\n      jump\t// in\n    tag_73:\n      stop\n        /* \"contracts/vitalsContract.sol\":2280:2574  function updateLabTests(... */\n    tag_16:\n      tag_77\n      0x04\n      dup1\n      calldatasize\n      sub\n      dup2\n      add\n      swap1\n      tag_78\n      swap2\n      swap1\n      tag_37\n      jump\t// in\n    tag_78:\n      tag_79\n      jump\t// in\n    tag_77:\n      stop\n        /* \"@openzeppelin/contracts/access/AccessControl.sol\":2153:2202  bytes32 public constant DEFAULT_ADMIN_ROLE = 0x00 */\n    tag_17:\n      tag_80\n      tag_81\n      jump\t// in\n    tag_80:\n      mload(0x40)\n      tag_82\n      swap2\n      swap1\n      tag_44\n      jump\t// in\n    tag_82:\n      mload(0x40)\n      dup1\n      swap2\n      sub\n      swap1\n      return\n        /* \"@openzeppelin/contracts/access/AccessControl.sol\":5354:5501  function revokeRole(bytes32 role, address account) public virtual override onlyRole(getRoleAdmin(role)) {... */\n    tag_18:\n      tag_83\n      0x04\n      dup1\n      calldatasize\n      sub\n      dup2\n      add\n      swap1\n      tag_84\n      swap2\n      swap1\n      tag_47\n      jump\t// in\n    tag_84:\n      tag_85\n      jump\t// in\n    tag_83:\n      stop\n        /* \"@openzeppelin/contracts/access/Ownable.sol\":2074:2272  function transferOwnership(address newOwner) public virtual onlyOwner {... */\n    tag_19:\n      tag_86\n      0x04\n      dup1\n      calldatasize\n      sub\n      dup2\n      add\n      swap1\n      tag_87\n      swap2\n      swap1\n      tag_31\n      jump\t// in\n    tag_87:\n      tag_88\n      jump\t// in\n    tag_86:\n      stop\n        /* \"@openzeppelin/contracts/access/AccessControl.sol\":2732:2934  function supportsInterface(bytes4 interfaceId) public view virtual override returns (bool) {... */\n    tag_26:\n        /* \"@openzeppelin/contracts/access/AccessControl.sol\":2817:2821  bool */\n      0x00\n        /* \"@openzeppelin/contracts/access/AccessControl.sol\":2855:2887  type(IAccessControl).interfaceId */\n      0x7965db0b00000000000000000000000000000000000000000000000000000000\n        /* \"@openzeppelin/contracts/access/AccessControl.sol\":2840:2887  interfaceId == type(IAccessControl).interfaceId */\n      not(0xffffffffffffffffffffffffffffffffffffffffffffffffffffffff)\n      and\n        /* \"@openzeppelin/contracts/access/AccessControl.sol\":2840:2851  interfaceId */\n      dup3\n        /* \"@openzeppelin/contracts/access/AccessControl.sol\":2840:2887  interfaceId == type(IAccessControl).interfaceId */\n      not(0xffffffffffffffffffffffffffffffffffffffffffffffffffffffff)\n      and\n      eq\n        /* \"@openzeppelin/contracts/access/AccessControl.sol\":2840:2927  interfaceId == type(IAccessControl).interfaceId || super.supportsInterface(interfaceId) */\n      dup1\n      tag_90\n      jumpi\n      pop\n        /* \"@openzeppelin/contracts/access/AccessControl.sol\":2891:2927  super.supportsInterface(interfaceId) */\n      tag_91\n        /* \"@openzeppelin/contracts/access/AccessControl.sol\":2915:2926  interfaceId */\n      dup3\n        /* \"@openzeppelin/contracts/access/AccessControl.sol\":2891:2914  super.supportsInterface */\n      tag_92\n        /* \"@openzeppelin/contracts/access/AccessControl.sol\":2891:2927  super.supportsInterface(interfaceId) */\n      jump\t// in\n    tag_91:\n        /* \"@openzeppelin/contracts/access/AccessControl.sol\":2840:2927  interfaceId == type(IAccessControl).interfaceId || super.supportsInterface(interfaceId) */\n    tag_90:\n        /* \"@openzeppelin/contracts/access/AccessControl.sol\":2833:2927  return interfaceId == type(IAccessControl).interfaceId || super.supportsInterface(interfaceId) */\n      swap1\n      pop\n        /* \"@openzeppelin/contracts/access/AccessControl.sol\":2732:2934  function supportsInterface(bytes4 interfaceId) public view virtual override returns (bool) {... */\n      swap2\n      swap1\n      pop\n      jump\t// out\n        /* \"contracts/vitalsContract.sol\":2958:3190  function getPatientRecords (address patientAddress) public view returns(Records memory) {... */\n    tag_32:\n        /* \"contracts/vitalsContract.sol\":3030:3044  Records memory */\n      tag_93\n      tag_94\n      jump\t// in\n    tag_93:\n        /* \"contracts/vitalsContract.sol\":3078:3092  patientAddress */\n      dup2\n        /* \"contracts/vitalsContract.sol\":3064:3092  msg.sender == patientAddress */\n      0xffffffffffffffffffffffffffffffffffffffff\n      and\n        /* \"contracts/vitalsContract.sol\":3064:3074  msg.sender */\n      caller\n        /* \"contracts/vitalsContract.sol\":3064:3092  msg.sender == patientAddress */\n      0xffffffffffffffffffffffffffffffffffffffff\n      and\n      eq\n        /* \"contracts/vitalsContract.sol\":3064:3117  msg.sender == patientAddress || msg.sender == owner() */\n      dup1\n      tag_96\n      jumpi\n      pop\n        /* \"contracts/vitalsContract.sol\":3110:3117  owner() */\n      tag_97\n        /* \"contracts/vitalsContract.sol\":3110:3115  owner */\n      tag_66\n        /* \"contracts/vitalsContract.sol\":3110:3117  owner() */\n      jump\t// in\n    tag_97:\n        /* \"contracts/vitalsContract.sol\":3096:3117  msg.sender == owner() */\n      0xffffffffffffffffffffffffffffffffffffffff\n      and\n        /* \"contracts/vitalsContract.sol\":3096:3106  msg.sender */\n      caller\n        /* \"contracts/vitalsContract.sol\":3096:3117  msg.sender == owner() */\n      0xffffffffffffffffffffffffffffffffffffffff\n      and\n      eq\n        /* \"contracts/vitalsContract.sol\":3064:3117  msg.sender == patientAddress || msg.sender == owner() */\n    tag_96:\n        /* \"contracts/vitalsContract.sol\":3056:3135  require(msg.sender == patientAddress || msg.sender == owner(), \"Access Denied\") */\n      tag_98\n      jumpi\n      mload(0x40)\n      0x08c379a000000000000000000000000000000000000000000000000000000000\n      dup2\n      mstore\n      0x04\n      add\n      tag_99\n      swap1\n      tag_100\n      jump\t// in\n    tag_99:\n      mload(0x40)\n      dup1\n      swap2\n      sub\n      swap1\n      revert\n    tag_98:\n        /* \"contracts/vitalsContract.sol\":3152:3166  patientRecords */\n      0x02\n        /* \"contracts/vitalsContract.sol\":3152:3182  patientRecords[patientAddress] */\n      0x00\n        /* \"contracts/vitalsContract.sol\":3167:3181  patientAddress */\n      dup4\n        /* \"contracts/vitalsContract.sol\":3152:3182  patientRecords[patientAddress] */\n      0xffffffffffffffffffffffffffffffffffffffff\n      and\n      0xffffffffffffffffffffffffffffffffffffffff\n      and\n      dup2\n      mstore\n      0x20\n      add\n      swap1\n      dup2\n      mstore\n      0x20\n      add\n      0x00\n      keccak256\n        /* \"contracts/vitalsContract.sol\":3145:3182  return patientRecords[patientAddress] */\n      mload(0x40)\n      dup1\n      0xa0\n      add\n      0x40\n      mstore\n      swap1\n      dup2\n      0x00\n      dup3\n      add\n      0x06\n      dup1\n      0x20\n      mul\n      mload(0x40)\n      swap1\n      dup2\n      add\n      0x40\n      mstore\n      dup1\n      swap3\n      swap2\n      swap1\n      0x00\n      swap1\n    tag_101:\n      dup3\n      dup3\n      lt\n      iszero\n      tag_102\n      jumpi\n      dup4\n      dup3\n      add\n      dup1\n      sload\n      tag_104\n      swap1\n      tag_105\n      jump\t// in\n    tag_104:\n      dup1\n      0x1f\n      add\n      0x20\n      dup1\n      swap2\n      div\n      mul\n      0x20\n      add\n      mload(0x40)\n      swap1\n      dup2\n      add\n      0x40\n      mstore\n      dup1\n      swap3\n      swap2\n      swap1\n      dup2\n      dup2\n      mstore\n      0x20\n      add\n      dup3\n      dup1\n      sload\n      tag_106\n      swap1\n      tag_105\n      jump\t// in\n    tag_106:\n      dup1\n      iszero\n      tag_107\n      jumpi\n      dup1\n      0x1f\n      lt\n      tag_108\n      jumpi\n      0x0100\n      dup1\n      dup4\n      sload\n      div\n      mul\n      dup4\n      mstore\n      swap2\n      0x20\n      add\n      swap2\n      jump(tag_107)\n    tag_108:\n      dup3\n      add\n      swap2\n      swap1\n      0x00\n      mstore\n      keccak256(0x00, 0x20)\n      swap1\n    tag_109:\n      dup2\n      sload\n      dup2\n      mstore\n      swap1\n      0x01\n      add\n      swap1\n      0x20\n      add\n      dup1\n      dup4\n      gt\n      tag_109\n      jumpi\n      dup3\n      swap1\n      sub\n      0x1f\n      and\n      dup3\n      add\n      swap2\n    tag_107:\n      pop\n      pop\n      pop\n      pop\n      pop\n      dup2\n      mstore\n      0x20\n      add\n      swap1\n      0x01\n      add\n      swap1\n      jump(tag_101)\n    tag_102:\n      pop\n      pop\n      pop\n      pop\n      dup2\n      mstore\n      0x20\n      add\n      0x06\n      dup3\n      add\n      0x07\n      dup1\n      0x20\n      mul\n      mload(0x40)\n      swap1\n      dup2\n      add\n      0x40\n      mstore\n      dup1\n      swap3\n      swap2\n      swap1\n      0x00\n      swap1\n    tag_110:\n      dup3\n      dup3\n      lt\n      iszero\n      tag_111\n      jumpi\n      dup4\n      dup3\n      add\n      dup1\n      sload\n      tag_113\n      swap1\n      tag_105\n      jump\t// in\n    tag_113:\n      dup1\n      0x1f\n      add\n      0x20\n      dup1\n      swap2\n      div\n      mul\n      0x20\n      add\n      mload(0x40)\n      swap1\n      dup2\n      add\n      0x40\n      mstore\n      dup1\n      swap3\n      swap2\n      swap1\n      dup2\n      dup2\n      mstore\n      0x20\n      add\n      dup3\n      dup1\n      sload\n      tag_114\n      swap1\n      tag_105\n      jump\t// in\n    tag_114:\n      dup1\n      iszero\n      tag_115\n      jumpi\n      dup1\n      0x1f\n      lt\n      tag_116\n      jumpi\n      0x0100\n      dup1\n      dup4\n      sload\n      div\n      mul\n      dup4\n      mstore\n      swap2\n      0x20\n      add\n      swap2\n      jump(tag_115)\n    tag_116:\n      dup3\n      add\n      swap2\n      swap1\n      0x00\n      mstore\n      keccak256(0x00, 0x20)\n      swap1\n    tag_117:\n      dup2\n      sload\n      dup2\n      mstore\n      swap1\n      0x01\n      add\n      swap1\n      0x20\n      add\n      dup1\n      dup4\n      gt\n      tag_117\n      jumpi\n      dup3\n      swap1\n      sub\n      0x1f\n      and\n      dup3\n      add\n      swap2\n    tag_115:\n      pop\n      pop\n      pop\n      pop\n      pop\n      dup2\n      mstore\n      0x20\n      add\n      swap1\n      0x01\n      add\n      swap1\n      jump(tag_110)\n    tag_111:\n      pop\n      pop\n      pop\n      pop\n      dup2\n      mstore\n      0x20\n      add\n      0x0d\n      dup3\n      add\n      0x03\n      dup1\n      0x20\n      mul\n      mload(0x40)\n      swap1\n      dup2\n      add\n      0x40\n      mstore\n      dup1\n      swap3\n      swap2\n      swap1\n      0x00\n      swap1\n    tag_118:\n      dup3\n      dup3\n      lt\n      iszero\n      tag_119\n      jumpi\n      dup4\n      dup3\n      add\n      dup1\n      sload\n      tag_121\n      swap1\n      tag_105\n      jump\t// in\n    tag_121:\n      dup1\n      0x1f\n      add\n      0x20\n      dup1\n      swap2\n      div\n      mul\n      0x20\n      add\n      mload(0x40)\n      swap1\n      dup2\n      add\n      0x40\n      mstore\n      dup1\n      swap3\n      swap2\n      swap1\n      dup2\n      dup2\n      mstore\n      0x20\n      add\n      dup3\n      dup1\n      sload\n      tag_122\n      swap1\n      tag_105\n      jump\t// in\n    tag_122:\n      dup1\n      iszero\n      tag_123\n      jumpi\n      dup1\n      0x1f\n      lt\n      tag_124\n      jumpi\n      0x0100\n      dup1\n      dup4\n      sload\n      div\n      mul\n      dup4\n      mstore\n      swap2\n      0x20\n      add\n      swap2\n      jump(tag_123)\n    tag_124:\n      dup3\n      add\n      swap2\n      swap1\n      0x00\n      mstore\n      keccak256(0x00, 0x20)\n      swap1\n    tag_125:\n      dup2\n      sload\n      dup2\n      mstore\n      swap1\n      0x01\n      add\n      swap1\n      0x20\n      add\n      dup1\n      dup4\n      gt\n      tag_125\n      jumpi\n      dup3\n      swap1\n      sub\n      0x1f\n      and\n      dup3\n      add\n      swap2\n    tag_123:\n      pop\n      pop\n      pop\n      pop\n      pop\n      dup2\n      mstore\n      0x20\n      add\n      swap1\n      0x01\n      add\n      swap1\n      jump(tag_118)\n    tag_119:\n      pop\n      pop\n      pop\n      pop\n      dup2\n      mstore\n      0x20\n      add\n      0x10\n      dup3\n      add\n      0x02\n      dup1\n      0x20\n      mul\n      mload(0x40)\n      swap1\n      dup2\n      add\n      0x40\n      mstore\n      dup1\n      swap3\n      swap2\n      swap1\n      0x00\n      swap1\n    tag_126:\n      dup3\n      dup3\n      lt\n      iszero\n      tag_127\n      jumpi\n      dup4\n      dup3\n      add\n      dup1\n      sload\n      tag_129\n      swap1\n      tag_105\n      jump\t// in\n    tag_129:\n      dup1\n      0x1f\n      add\n      0x20\n      dup1\n      swap2\n      div\n      mul\n      0x20\n      add\n      mload(0x40)\n      swap1\n      dup2\n      add\n      0x40\n      mstore\n      dup1\n      swap3\n      swap2\n      swap1\n      dup2\n      dup2\n      mstore\n      0x20\n      add\n      dup3\n      dup1\n      sload\n      tag_130\n      swap1\n      tag_105\n      jump\t// in\n    tag_130:\n      dup1\n      iszero\n      tag_131\n      jumpi\n      dup1\n      0x1f\n      lt\n      tag_132\n      jumpi\n      0x0100\n      dup1\n      dup4\n      sload\n      div\n      mul\n      dup4\n      mstore\n      swap2\n      0x20\n      add\n      swap2\n      jump(tag_131)\n    tag_132:\n      dup3\n      add\n      swap2\n      swap1\n      0x00\n      mstore\n      keccak256(0x00, 0x20)\n      swap1\n    tag_133:\n      dup2\n      sload\n      dup2\n      mstore\n      swap1\n      0x01\n      add\n      swap1\n      0x20\n      add\n      dup1\n      dup4\n      gt\n      tag_133\n      jumpi\n      dup3\n      swap1\n      sub\n      0x1f\n      and\n      dup3\n      add\n      swap2\n    tag_131:\n      pop\n      pop\n      pop\n      pop\n      pop\n      dup2\n      mstore\n      0x20\n      add\n      swap1\n      0x01\n      add\n      swap1\n      jump(tag_126)\n    tag_127:\n      pop\n      pop\n      pop\n      pop\n      dup2\n      mstore\n      0x20\n      add\n      0x12\n      dup3\n      add\n      0x02\n      dup1\n      0x20\n      mul\n      mload(0x40)\n      swap1\n      dup2\n      add\n      0x40\n      mstore\n      dup1\n      swap3\n      swap2\n      swap1\n      0x00\n      swap1\n    tag_134:\n      dup3\n      dup3\n      lt\n      iszero\n      tag_135\n      jumpi\n      dup4\n      dup3\n      add\n      dup1\n      sload\n      tag_137\n      swap1\n      tag_105\n      jump\t// in\n    tag_137:\n      dup1\n      0x1f\n      add\n      0x20\n      dup1\n      swap2\n      div\n      mul\n      0x20\n      add\n      mload(0x40)\n      swap1\n      dup2\n      add\n      0x40\n      mstore\n      dup1\n      swap3\n      swap2\n      swap1\n      dup2\n      dup2\n      mstore\n      0x20\n      add\n      dup3\n      dup1\n      sload\n      tag_138\n      swap1\n      tag_105\n      jump\t// in\n    tag_138:\n      dup1\n      iszero\n      tag_139\n      jumpi\n      dup1\n      0x1f\n      lt\n      tag_140\n      jumpi\n      0x0100\n      dup1\n      dup4\n      sload\n      div\n      mul\n      dup4\n      mstore\n      swap2\n      0x20\n      add\n      swap2\n      jump(tag_139)\n    tag_140:\n      dup3\n      add\n      swap2\n      swap1\n      0x00\n      mstore\n      keccak256(0x00, 0x20)\n      swap1\n    tag_141:\n      dup2\n      sload\n      dup2\n      mstore\n      swap1\n      0x01\n      add\n      swap1\n      0x20\n      add\n      dup1\n      dup4\n      gt\n      tag_141\n      jumpi\n      dup3\n      swap1\n      sub\n      0x1f\n      and\n      dup3\n      add\n      swap2\n    tag_139:\n      pop\n      pop\n      pop\n      pop\n      pop\n      dup2\n      mstore\n      0x20\n      add\n      swap1\n      0x01\n      add\n      swap1\n      jump(tag_134)\n    tag_135:\n      pop\n      pop\n      pop\n      pop\n      dup2\n      mstore\n      pop\n      pop\n      swap1\n      pop\n        /* \"contracts/vitalsContract.sol\":2958:3190  function getPatientRecords (address patientAddress) public view returns(Records memory) {... */\n      swap2\n      swap1\n      pop\n      jump\t// out\n        /* \"contracts/vitalsContract.sol\":2611:2917  function updateLabResults(... */\n    tag_38:\n        /* \"contracts/vitalsContract.sol\":268:291  keccak256(\"onlyDoctor\") */\n      0xff4ed198c18ce05e59ff2bcb2e277f2554623dcb9ab1d05e463e435a930cc469\n        /* \"@openzeppelin/contracts/access/AccessControl.sol\":2631:2647  _checkRole(role) */\n      tag_143\n        /* \"@openzeppelin/contracts/access/AccessControl.sol\":2642:2646  role */\n      dup2\n        /* \"@openzeppelin/contracts/access/AccessControl.sol\":2631:2641  _checkRole */\n      tag_144\n        /* \"@openzeppelin/contracts/access/AccessControl.sol\":2631:2647  _checkRole(role) */\n      jump\t// in\n    tag_143:\n        /* \"contracts/vitalsContract.sol\":2751:2774  Records storage records */\n      0x00\n        /* \"contracts/vitalsContract.sol\":2777:2791  patientRecords */\n      0x02\n        /* \"contracts/vitalsContract.sol\":2777:2807  patientRecords[patientAddress] */\n      0x00\n        /* \"contracts/vitalsContract.sol\":2792:2806  patientAddress */\n      dup6\n        /* \"contracts/vitalsContract.sol\":2777:2807  patientRecords[patientAddress] */\n      0xffffffffffffffffffffffffffffffffffffffff\n      and\n      0xffffffffffffffffffffffffffffffffffffffff\n      and\n      dup2\n      mstore\n      0x20\n      add\n      swap1\n      dup2\n      mstore\n      0x20\n      add\n      0x00\n      keccak256\n        /* \"contracts/vitalsContract.sol\":2751:2807  Records storage records = patientRecords[patientAddress] */\n      swap1\n      pop\n        /* \"contracts/vitalsContract.sol\":2838:2849  _labResults */\n      dup3\n        /* \"contracts/vitalsContract.sol\":2817:2824  records */\n      dup2\n        /* \"contracts/vitalsContract.sol\":2817:2835  records.labResults */\n      0x12\n      add\n        /* \"contracts/vitalsContract.sol\":2817:2849  records.labResults = _labResults */\n      swap1\n      0x02\n      tag_146\n      swap3\n      swap2\n      swap1\n      tag_147\n      jump\t// in\n    tag_146:\n      pop\n        /* \"contracts/vitalsContract.sol\":2882:2896  patientAddress */\n      dup4\n        /* \"contracts/vitalsContract.sol\":2864:2910  LabResultsUpdated(patientAddress, _labResults) */\n      0xffffffffffffffffffffffffffffffffffffffff\n      and\n      0xf82228d2fccbf51a6865c7ec1126d175433bfb90f6b576906c867f35a715d27b\n        /* \"contracts/vitalsContract.sol\":2898:2909  _labResults */\n      dup5\n        /* \"contracts/vitalsContract.sol\":2864:2910  LabResultsUpdated(patientAddress, _labResults) */\n      mload(0x40)\n      tag_148\n      swap2\n      swap1\n      tag_149\n      jump\t// in\n    tag_148:\n      mload(0x40)\n      dup1\n      swap2\n      sub\n      swap1\n      log2\n        /* \"contracts/vitalsContract.sol\":2741:2917  {... */\n      pop\n        /* \"contracts/vitalsContract.sol\":2611:2917  function updateLabResults(... */\n      pop\n      pop\n      pop\n      jump\t// out\n        /* \"@openzeppelin/contracts/access/AccessControl.sol\":4504:4633  function getRoleAdmin(bytes32 role) public view virtual override returns (bytes32) {... */\n    tag_42:\n        /* \"@openzeppelin/contracts/access/AccessControl.sol\":4578:4585  bytes32 */\n      0x00\n        /* \"@openzeppelin/contracts/access/AccessControl.sol\":4604:4610  _roles */\n      0x01\n        /* \"@openzeppelin/contracts/access/AccessControl.sol\":4604:4616  _roles[role] */\n      0x00\n        /* \"@openzeppelin/contracts/access/AccessControl.sol\":4611:4615  role */\n      dup4\n        /* \"@openzeppelin/contracts/access/AccessControl.sol\":4604:4616  _roles[role] */\n      dup2\n      mstore\n      0x20\n      add\n      swap1\n      dup2\n      mstore\n      0x20\n      add\n      0x00\n      keccak256\n        /* \"@openzeppelin/contracts/access/AccessControl.sol\":4604:4626  _roles[role].adminRole */\n      0x01\n      add\n      sload\n        /* \"@openzeppelin/contracts/access/AccessControl.sol\":4597:4626  return _roles[role].adminRole */\n      swap1\n      pop\n        /* \"@openzeppelin/contracts/access/AccessControl.sol\":4504:4633  function getRoleAdmin(bytes32 role) public view virtual override returns (bytes32) {... */\n      swap2\n      swap1\n      pop\n      jump\t// out\n        /* \"@openzeppelin/contracts/access/AccessControl.sol\":4929:5074  function grantRole(bytes32 role, address account) public virtual override onlyRole(getRoleAdmin(role)) {... */\n    tag_48:\n        /* \"@openzeppelin/contracts/access/AccessControl.sol\":5012:5030  getRoleAdmin(role) */\n      tag_151\n        /* \"@openzeppelin/contracts/access/AccessControl.sol\":5025:5029  role */\n      dup3\n        /* \"@openzeppelin/contracts/access/AccessControl.sol\":5012:5024  getRoleAdmin */\n      tag_42\n        /* \"@openzeppelin/contracts/access/AccessControl.sol\":5012:5030  getRoleAdmin(role) */\n      jump\t// in\n    tag_151:\n        /* \"@openzeppelin/contracts/access/AccessControl.sol\":2631:2647  _checkRole(role) */\n      tag_153\n        /* \"@openzeppelin/contracts/access/AccessControl.sol\":2642:2646  role */\n      dup2\n        /* \"@openzeppelin/contracts/access/AccessControl.sol\":2631:2641  _checkRole */\n      tag_144\n        /* \"@openzeppelin/contracts/access/AccessControl.sol\":2631:2647  _checkRole(role) */\n      jump\t// in\n    tag_153:\n        /* \"@openzeppelin/contracts/access/AccessControl.sol\":5042:5067  _grantRole(role, account) */\n      tag_155\n        /* \"@openzeppelin/contracts/access/AccessControl.sol\":5053:5057  role */\n      dup4\n        /* \"@openzeppelin/contracts/access/AccessControl.sol\":5059:5066  account */\n      dup4\n        /* \"@openzeppelin/contracts/access/AccessControl.sol\":5042:5052  _grantRole */\n      tag_156\n        /* \"@openzeppelin/contracts/access/AccessControl.sol\":5042:5067  _grantRole(role, account) */\n      jump\t// in\n    tag_155:\n        /* \"@openzeppelin/contracts/access/AccessControl.sol\":4929:5074  function grantRole(bytes32 role, address account) public virtual override onlyRole(getRoleAdmin(role)) {... */\n      pop\n      pop\n      pop\n      jump\t// out\n        /* \"contracts/vitalsContract.sol\":231:291  bytes32 public constant onlyDoctor = keccak256(\"onlyDoctor\") */\n    tag_50:\n        /* \"contracts/vitalsContract.sol\":268:291  keccak256(\"onlyDoctor\") */\n      0xff4ed198c18ce05e59ff2bcb2e277f2554623dcb9ab1d05e463e435a930cc469\n        /* \"contracts/vitalsContract.sol\":231:291  bytes32 public constant onlyDoctor = keccak256(\"onlyDoctor\") */\n      dup2\n      jump\t// out\n        /* \"@openzeppelin/contracts/access/AccessControl.sol\":6038:6252  function renounceRole(bytes32 role, address account) public virtual override {... */\n    tag_54:\n        /* \"@openzeppelin/contracts/access/AccessControl.sol\":6144:6156  _msgSender() */\n      tag_158\n        /* \"@openzeppelin/contracts/access/AccessControl.sol\":6144:6154  _msgSender */\n      tag_159\n        /* \"@openzeppelin/contracts/access/AccessControl.sol\":6144:6156  _msgSender() */\n      jump\t// in\n    tag_158:\n        /* \"@openzeppelin/contracts/access/AccessControl.sol\":6133:6156  account == _msgSender() */\n      0xffffffffffffffffffffffffffffffffffffffff\n      and\n        /* \"@openzeppelin/contracts/access/AccessControl.sol\":6133:6140  account */\n      dup2\n        /* \"@openzeppelin/contracts/access/AccessControl.sol\":6133:6156  account == _msgSender() */\n      0xffffffffffffffffffffffffffffffffffffffff\n      and\n      eq\n        /* \"@openzeppelin/contracts/access/AccessControl.sol\":6125:6208  require(account == _msgSender(), \"AccessControl: can only renounce roles for self\") */\n      tag_160\n      jumpi\n      mload(0x40)\n      0x08c379a000000000000000000000000000000000000000000000000000000000\n      dup2\n      mstore\n      0x04\n      add\n      tag_161\n      swap1\n      tag_162\n      jump\t// in\n    tag_161:\n      mload(0x40)\n      dup1\n      swap2\n      sub\n      swap1\n      revert\n    tag_160:\n        /* \"@openzeppelin/contracts/access/AccessControl.sol\":6219:6245  _revokeRole(role, account) */\n      tag_163\n        /* \"@openzeppelin/contracts/access/AccessControl.sol\":6231:6235  role */\n      dup3\n        /* \"@openzeppelin/contracts/access/AccessControl.sol\":6237:6244  account */\n      dup3\n        /* \"@openzeppelin/contracts/access/AccessControl.sol\":6219:6230  _revokeRole */\n      tag_164\n        /* \"@openzeppelin/contracts/access/AccessControl.sol\":6219:6245  _revokeRole(role, account) */\n      jump\t// in\n    tag_163:\n        /* \"@openzeppelin/contracts/access/AccessControl.sol\":6038:6252  function renounceRole(bytes32 role, address account) public virtual override {... */\n      pop\n      pop\n      jump\t// out\n        /* \"contracts/vitalsContract.sol\":1192:1511  function updateDiseaseInfo(... */\n    tag_58:\n        /* \"contracts/vitalsContract.sol\":268:291  keccak256(\"onlyDoctor\") */\n      0xff4ed198c18ce05e59ff2bcb2e277f2554623dcb9ab1d05e463e435a930cc469\n        /* \"@openzeppelin/contracts/access/AccessControl.sol\":2631:2647  _checkRole(role) */\n      tag_166\n        /* \"@openzeppelin/contracts/access/AccessControl.sol\":2642:2646  role */\n      dup2\n        /* \"@openzeppelin/contracts/access/AccessControl.sol\":2631:2641  _checkRole */\n      tag_144\n        /* \"@openzeppelin/contracts/access/AccessControl.sol\":2631:2647  _checkRole(role) */\n      jump\t// in\n    tag_166:\n        /* \"contracts/vitalsContract.sol\":1334:1357  Records storage records */\n      0x00\n        /* \"contracts/vitalsContract.sol\":1360:1374  patientRecords */\n      0x02\n        /* \"contracts/vitalsContract.sol\":1360:1390  patientRecords[patientAddress] */\n      0x00\n        /* \"contracts/vitalsContract.sol\":1375:1389  patientAddress */\n      dup6\n        /* \"contracts/vitalsContract.sol\":1360:1390  patientRecords[patientAddress] */\n      0xffffffffffffffffffffffffffffffffffffffff\n      and\n      0xffffffffffffffffffffffffffffffffffffffff\n      and\n      dup2\n      mstore\n      0x20\n      add\n      swap1\n      dup2\n      mstore\n      0x20\n      add\n      0x00\n      keccak256\n        /* \"contracts/vitalsContract.sol\":1334:1390  Records storage records = patientRecords[patientAddress] */\n      swap1\n      pop\n        /* \"contracts/vitalsContract.sol\":1422:1434  _diseaseInfo */\n      dup3\n        /* \"contracts/vitalsContract.sol\":1400:1407  records */\n      dup2\n        /* \"contracts/vitalsContract.sol\":1400:1419  records.diseaseInfo */\n      0x00\n      add\n        /* \"contracts/vitalsContract.sol\":1400:1434  records.diseaseInfo = _diseaseInfo */\n      swap1\n      0x06\n      tag_168\n      swap3\n      swap2\n      swap1\n      tag_169\n      jump\t// in\n    tag_168:\n      pop\n        /* \"contracts/vitalsContract.sol\":1475:1489  patientAddress */\n      dup4\n        /* \"contracts/vitalsContract.sol\":1449:1504  DiseaseInformationUpdated(patientAddress, _diseaseInfo) */\n      0xffffffffffffffffffffffffffffffffffffffff\n      and\n      0x12acbe46024a8132d84ea43e496a038ec0f837db140c6ce73470800455432d41\n        /* \"contracts/vitalsContract.sol\":1491:1503  _diseaseInfo */\n      dup5\n        /* \"contracts/vitalsContract.sol\":1449:1504  DiseaseInformationUpdated(patientAddress, _diseaseInfo) */\n      mload(0x40)\n      tag_170\n      swap2\n      swap1\n      tag_171\n      jump\t// in\n    tag_170:\n      mload(0x40)\n      dup1\n      swap2\n      sub\n      swap1\n      log2\n        /* \"contracts/vitalsContract.sol\":1324:1511  {... */\n      pop\n        /* \"contracts/vitalsContract.sol\":1192:1511  function updateDiseaseInfo(... */\n      pop\n      pop\n      pop\n      jump\t// out\n        /* \"@openzeppelin/contracts/access/Ownable.sol\":1824:1925  function renounceOwnership() public virtual onlyOwner {... */\n    tag_60:\n        /* \"@openzeppelin/contracts/access/Ownable.sol\":1094:1107  _checkOwner() */\n      tag_173\n        /* \"@openzeppelin/contracts/access/Ownable.sol\":1094:1105  _checkOwner */\n      tag_174\n        /* \"@openzeppelin/contracts/access/Ownable.sol\":1094:1107  _checkOwner() */\n      jump\t// in\n    tag_173:\n        /* \"@openzeppelin/contracts/access/Ownable.sol\":1888:1918  _transferOwnership(address(0)) */\n      tag_176\n        /* \"@openzeppelin/contracts/access/Ownable.sol\":1915:1916  0 */\n      0x00\n        /* \"@openzeppelin/contracts/access/Ownable.sol\":1888:1906  _transferOwnership */\n      tag_177\n        /* \"@openzeppelin/contracts/access/Ownable.sol\":1888:1918  _transferOwnership(address(0)) */\n      jump\t// in\n    tag_176:\n        /* \"@openzeppelin/contracts/access/Ownable.sol\":1824:1925  function renounceOwnership() public virtual onlyOwner {... */\n      jump\t// out\n        /* \"contracts/vitalsContract.sol\":1548:1855  function updateVitalSigns(... */\n    tag_64:\n        /* \"contracts/vitalsContract.sol\":268:291  keccak256(\"onlyDoctor\") */\n      0xff4ed198c18ce05e59ff2bcb2e277f2554623dcb9ab1d05e463e435a930cc469\n        /* \"@openzeppelin/contracts/access/AccessControl.sol\":2631:2647  _checkRole(role) */\n      tag_179\n        /* \"@openzeppelin/contracts/access/AccessControl.sol\":2642:2646  role */\n      dup2\n        /* \"@openzeppelin/contracts/access/AccessControl.sol\":2631:2641  _checkRole */\n      tag_144\n        /* \"@openzeppelin/contracts/access/AccessControl.sol\":2631:2647  _checkRole(role) */\n      jump\t// in\n    tag_179:\n        /* \"contracts/vitalsContract.sol\":1688:1711  Records storage records */\n      0x00\n        /* \"contracts/vitalsContract.sol\":1714:1728  patientRecords */\n      0x02\n        /* \"contracts/vitalsContract.sol\":1714:1744  patientRecords[patientAddress] */\n      0x00\n        /* \"contracts/vitalsContract.sol\":1729:1743  patientAddress */\n      dup6\n        /* \"contracts/vitalsContract.sol\":1714:1744  patientRecords[patientAddress] */\n      0xffffffffffffffffffffffffffffffffffffffff\n      and\n      0xffffffffffffffffffffffffffffffffffffffff\n      and\n      dup2\n      mstore\n      0x20\n      add\n      swap1\n      dup2\n      mstore\n      0x20\n      add\n      0x00\n      keccak256\n        /* \"contracts/vitalsContract.sol\":1688:1744  Records storage records = patientRecords[patientAddress] */\n      swap1\n      pop\n        /* \"contracts/vitalsContract.sol\":1775:1786  _vitalSigns */\n      dup3\n        /* \"contracts/vitalsContract.sol\":1754:1761  records */\n      dup2\n        /* \"contracts/vitalsContract.sol\":1754:1772  records.vitalSigns */\n      0x06\n      add\n        /* \"contracts/vitalsContract.sol\":1754:1786  records.vitalSigns = _vitalSigns */\n      swap1\n      0x07\n      tag_181\n      swap3\n      swap2\n      swap1\n      tag_182\n      jump\t// in\n    tag_181:\n      pop\n        /* \"contracts/vitalsContract.sol\":1820:1834  patientAddress */\n      dup4\n        /* \"contracts/vitalsContract.sol\":1802:1848  VitalSignsUpdated(patientAddress, _vitalSigns) */\n      0xffffffffffffffffffffffffffffffffffffffff\n      and\n      0xb8ea6d593dbf23af71cbf2ff48cf51834c051fa257185e2ba78199b004491cc8\n        /* \"contracts/vitalsContract.sol\":1836:1847  _vitalSigns */\n      dup5\n        /* \"contracts/vitalsContract.sol\":1802:1848  VitalSignsUpdated(patientAddress, _vitalSigns) */\n      mload(0x40)\n      tag_183\n      swap2\n      swap1\n      tag_184\n      jump\t// in\n    tag_183:\n      mload(0x40)\n      dup1\n      swap2\n      sub\n      swap1\n      log2\n        /* \"contracts/vitalsContract.sol\":1678:1855  {... */\n      pop\n        /* \"contracts/vitalsContract.sol\":1548:1855  function updateVitalSigns(... */\n      pop\n      pop\n      pop\n      jump\t// out\n        /* \"@openzeppelin/contracts/access/Ownable.sol\":1201:1286  function owner() public view virtual returns (address) {... */\n    tag_66:\n        /* \"@openzeppelin/contracts/access/Ownable.sol\":1247:1254  address */\n      0x00\n        /* \"@openzeppelin/contracts/access/Ownable.sol\":1273:1279  _owner */\n      dup1\n      0x00\n      swap1\n      sload\n      swap1\n      0x0100\n      exp\n      swap1\n      div\n      0xffffffffffffffffffffffffffffffffffffffff\n      and\n        /* \"@openzeppelin/contracts/access/Ownable.sol\":1266:1279  return _owner */\n      swap1\n      pop\n        /* \"@openzeppelin/contracts/access/Ownable.sol\":1201:1286  function owner() public view virtual returns (address) {... */\n      swap1\n      jump\t// out\n        /* \"@openzeppelin/contracts/access/AccessControl.sol\":3021:3166  function hasRole(bytes32 role, address account) public view virtual override returns (bool) {... */\n    tag_71:\n        /* \"@openzeppelin/contracts/access/AccessControl.sol\":3107:3111  bool */\n      0x00\n        /* \"@openzeppelin/contracts/access/AccessControl.sol\":3130:3136  _roles */\n      0x01\n        /* \"@openzeppelin/contracts/access/AccessControl.sol\":3130:3142  _roles[role] */\n      0x00\n        /* \"@openzeppelin/contracts/access/AccessControl.sol\":3137:3141  role */\n      dup5\n        /* \"@openzeppelin/contracts/access/AccessControl.sol\":3130:3142  _roles[role] */\n      dup2\n      mstore\n      0x20\n      add\n      swap1\n      dup2\n      mstore\n      0x20\n      add\n      0x00\n      keccak256\n        /* \"@openzeppelin/contracts/access/AccessControl.sol\":3130:3150  _roles[role].members */\n      0x00\n      add\n        /* \"@openzeppelin/contracts/access/AccessControl.sol\":3130:3159  _roles[role].members[account] */\n      0x00\n        /* \"@openzeppelin/contracts/access/AccessControl.sol\":3151:3158  account */\n      dup4\n        /* \"@openzeppelin/contracts/access/AccessControl.sol\":3130:3159  _roles[role].members[account] */\n      0xffffffffffffffffffffffffffffffffffffffff\n      and\n      0xffffffffffffffffffffffffffffffffffffffff\n      and\n      dup2\n      mstore\n      0x20\n      add\n      swap1\n      dup2\n      mstore\n      0x20\n      add\n      0x00\n      keccak256\n      0x00\n      swap1\n      sload\n      swap1\n      0x0100\n      exp\n      swap1\n      div\n      0xff\n      and\n        /* \"@openzeppelin/contracts/access/AccessControl.sol\":3123:3159  return _roles[role].members[account] */\n      swap1\n      pop\n        /* \"@openzeppelin/contracts/access/AccessControl.sol\":3021:3166  function hasRole(bytes32 role, address account) public view virtual override returns (bool) {... */\n      swap3\n      swap2\n      pop\n      pop\n      jump\t// out\n        /* \"contracts/vitalsContract.sol\":1902:2239  function updateMedicationInfo(... */\n    tag_76:\n        /* \"contracts/vitalsContract.sol\":268:291  keccak256(\"onlyDoctor\") */\n      0xff4ed198c18ce05e59ff2bcb2e277f2554623dcb9ab1d05e463e435a930cc469\n        /* \"@openzeppelin/contracts/access/AccessControl.sol\":2631:2647  _checkRole(role) */\n      tag_188\n        /* \"@openzeppelin/contracts/access/AccessControl.sol\":2642:2646  role */\n      dup2\n        /* \"@openzeppelin/contracts/access/AccessControl.sol\":2631:2641  _checkRole */\n      tag_144\n        /* \"@openzeppelin/contracts/access/AccessControl.sol\":2631:2647  _checkRole(role) */\n      jump\t// in\n    tag_188:\n        /* \"contracts/vitalsContract.sol\":2050:2073  Records storage records */\n      0x00\n        /* \"contracts/vitalsContract.sol\":2076:2090  patientRecords */\n      0x02\n        /* \"contracts/vitalsContract.sol\":2076:2106  patientRecords[patientAddress] */\n      0x00\n        /* \"contracts/vitalsContract.sol\":2091:2105  patientAddress */\n      dup6\n        /* \"contracts/vitalsContract.sol\":2076:2106  patientRecords[patientAddress] */\n      0xffffffffffffffffffffffffffffffffffffffff\n      and\n      0xffffffffffffffffffffffffffffffffffffffff\n      and\n      dup2\n      mstore\n      0x20\n      add\n      swap1\n      dup2\n      mstore\n      0x20\n      add\n      0x00\n      keccak256\n        /* \"contracts/vitalsContract.sol\":2050:2106  Records storage records = patientRecords[patientAddress] */\n      swap1\n      pop\n        /* \"contracts/vitalsContract.sol\":2141:2156  _medicationInfo */\n      dup3\n        /* \"contracts/vitalsContract.sol\":2116:2123  records */\n      dup2\n        /* \"contracts/vitalsContract.sol\":2116:2138  records.medicationInfo */\n      0x0d\n      add\n        /* \"contracts/vitalsContract.sol\":2116:2156  records.medicationInfo = _medicationInfo */\n      swap1\n      0x03\n      tag_190\n      swap3\n      swap2\n      swap1\n      tag_191\n      jump\t// in\n    tag_190:\n      pop\n        /* \"contracts/vitalsContract.sol\":2200:2214  patientAddress */\n      dup4\n        /* \"contracts/vitalsContract.sol\":2171:2232  MedicationInformationUpdated(patientAddress, _medicationInfo) */\n      0xffffffffffffffffffffffffffffffffffffffff\n      and\n      0xd6134f67b184a56f52cf6cc3429f33dc966b42c82cf5e243dac53b4366aa01ae\n        /* \"contracts/vitalsContract.sol\":2216:2231  _medicationInfo */\n      dup5\n        /* \"contracts/vitalsContract.sol\":2171:2232  MedicationInformationUpdated(patientAddress, _medicationInfo) */\n      mload(0x40)\n      tag_192\n      swap2\n      swap1\n      tag_193\n      jump\t// in\n    tag_192:\n      mload(0x40)\n      dup1\n      swap2\n      sub\n      swap1\n      log2\n        /* \"contracts/vitalsContract.sol\":2040:2239  {... */\n      pop\n        /* \"contracts/vitalsContract.sol\":1902:2239  function updateMedicationInfo(... */\n      pop\n      pop\n      pop\n      jump\t// out\n        /* \"contracts/vitalsContract.sol\":2280:2574  function updateLabTests(... */\n    tag_79:\n        /* \"contracts/vitalsContract.sol\":268:291  keccak256(\"onlyDoctor\") */\n      0xff4ed198c18ce05e59ff2bcb2e277f2554623dcb9ab1d05e463e435a930cc469\n        /* \"@openzeppelin/contracts/access/AccessControl.sol\":2631:2647  _checkRole(role) */\n      tag_195\n        /* \"@openzeppelin/contracts/access/AccessControl.sol\":2642:2646  role */\n      dup2\n        /* \"@openzeppelin/contracts/access/AccessControl.sol\":2631:2641  _checkRole */\n      tag_144\n        /* \"@openzeppelin/contracts/access/AccessControl.sol\":2631:2647  _checkRole(role) */\n      jump\t// in\n    tag_195:\n        /* \"contracts/vitalsContract.sol\":2416:2439  Records storage records */\n      0x00\n        /* \"contracts/vitalsContract.sol\":2442:2456  patientRecords */\n      0x02\n        /* \"contracts/vitalsContract.sol\":2442:2472  patientRecords[patientAddress] */\n      0x00\n        /* \"contracts/vitalsContract.sol\":2457:2471  patientAddress */\n      dup6\n        /* \"contracts/vitalsContract.sol\":2442:2472  patientRecords[patientAddress] */\n      0xffffffffffffffffffffffffffffffffffffffff\n      and\n      0xffffffffffffffffffffffffffffffffffffffff\n      and\n      dup2\n      mstore\n      0x20\n      add\n      swap1\n      dup2\n      mstore\n      0x20\n      add\n      0x00\n      keccak256\n        /* \"contracts/vitalsContract.sol\":2416:2472  Records storage records = patientRecords[patientAddress] */\n      swap1\n      pop\n        /* \"contracts/vitalsContract.sol\":2501:2510  _labTests */\n      dup3\n        /* \"contracts/vitalsContract.sol\":2482:2489  records */\n      dup2\n        /* \"contracts/vitalsContract.sol\":2482:2498  records.labTests */\n      0x10\n      add\n        /* \"contracts/vitalsContract.sol\":2482:2510  records.labTests = _labTests */\n      swap1\n      0x02\n      tag_197\n      swap3\n      swap2\n      swap1\n      tag_147\n      jump\t// in\n    tag_197:\n      pop\n        /* \"contracts/vitalsContract.sol\":2541:2555  patientAddress */\n      dup4\n        /* \"contracts/vitalsContract.sol\":2525:2567  LabTestsUpdated(patientAddress, _labTests) */\n      0xffffffffffffffffffffffffffffffffffffffff\n      and\n      0x541fd1a482c02c88b030e41f82afe680097ef4daabd80879eab1a9ff9c3b8776\n        /* \"contracts/vitalsContract.sol\":2557:2566  _labTests */\n      dup5\n        /* \"contracts/vitalsContract.sol\":2525:2567  LabTestsUpdated(patientAddress, _labTests) */\n      mload(0x40)\n      tag_198\n      swap2\n      swap1\n      tag_149\n      jump\t// in\n    tag_198:\n      mload(0x40)\n      dup1\n      swap2\n      sub\n      swap1\n      log2\n        /* \"contracts/vitalsContract.sol\":2406:2574  {... */\n      pop\n        /* \"contracts/vitalsContract.sol\":2280:2574  function updateLabTests(... */\n      pop\n      pop\n      pop\n      jump\t// out\n        /* \"@openzeppelin/contracts/access/AccessControl.sol\":2153:2202  bytes32 public constant DEFAULT_ADMIN_ROLE = 0x00 */\n    tag_81:\n        /* \"@openzeppelin/contracts/access/AccessControl.sol\":2198:2202  0x00 */\n      0x00\n        /* \"@openzeppelin/contracts/access/AccessControl.sol\":2153:2202  bytes32 public constant DEFAULT_ADMIN_ROLE = 0x00 */\n      dup1\n      shl\n      dup2\n      jump\t// out\n        /* \"@openzeppelin/contracts/access/AccessControl.sol\":5354:5501  function revokeRole(bytes32 role, address account) public virtual override onlyRole(getRoleAdmin(role)) {... */\n    tag_85:\n        /* \"@openzeppelin/contracts/access/AccessControl.sol\":5438:5456  getRoleAdmin(role) */\n      tag_199\n        /* \"@openzeppelin/contracts/access/AccessControl.sol\":5451:5455  role */\n      dup3\n        /* \"@openzeppelin/contracts/access/AccessControl.sol\":5438:5450  getRoleAdmin */\n      tag_42\n        /* \"@openzeppelin/contracts/access/AccessControl.sol\":5438:5456  getRoleAdmin(role) */\n      jump\t// in\n    tag_199:\n        /* \"@openzeppelin/contracts/access/AccessControl.sol\":2631:2647  _checkRole(role) */\n      tag_201\n        /* \"@openzeppelin/contracts/access/AccessControl.sol\":2642:2646  role */\n      dup2\n        /* \"@openzeppelin/contracts/access/AccessControl.sol\":2631:2641  _checkRole */\n      tag_144\n        /* \"@openzeppelin/contracts/access/AccessControl.sol\":2631:2647  _checkRole(role) */\n      jump\t// in\n    tag_201:\n        /* \"@openzeppelin/contracts/access/AccessControl.sol\":5468:5494  _revokeRole(role, account) */\n      tag_203\n        /* \"@openzeppelin/contracts/access/AccessControl.sol\":5480:5484  role */\n      dup4\n        /* \"@openzeppelin/contracts/access/AccessControl.sol\":5486:5493  account */\n      dup4\n        /* \"@openzeppelin/contracts/access/AccessControl.sol\":5468:5479  _revokeRole */\n      tag_164\n        /* \"@openzeppelin/contracts/access/AccessControl.sol\":5468:5494  _revokeRole(role, account) */\n      jump\t// in\n    tag_203:\n        /* \"@openzeppelin/contracts/access/AccessControl.sol\":5354:5501  function revokeRole(bytes32 role, address account) public virtual override onlyRole(getRoleAdmin(role)) {... */\n      pop\n      pop\n      pop\n      jump\t// out\n        /* \"@openzeppelin/contracts/access/Ownable.sol\":2074:2272  function transferOwnership(address newOwner) public virtual onlyOwner {... */\n    tag_88:\n        /* \"@openzeppelin/contracts/access/Ownable.sol\":1094:1107  _checkOwner() */\n      tag_205\n        /* \"@openzeppelin/contracts/access/Ownable.sol\":1094:1105  _checkOwner */\n      tag_174\n        /* \"@openzeppelin/contracts/access/Ownable.sol\":1094:1107  _checkOwner() */\n      jump\t// in\n    tag_205:\n        /* \"@openzeppelin/contracts/access/Ownable.sol\":2182:2183  0 */\n      0x00\n        /* \"@openzeppelin/contracts/access/Ownable.sol\":2162:2184  newOwner != address(0) */\n      0xffffffffffffffffffffffffffffffffffffffff\n      and\n        /* \"@openzeppelin/contracts/access/Ownable.sol\":2162:2170  newOwner */\n      dup2\n        /* \"@openzeppelin/contracts/access/Ownable.sol\":2162:2184  newOwner != address(0) */\n      0xffffffffffffffffffffffffffffffffffffffff\n      and\n      sub\n        /* \"@openzeppelin/contracts/access/Ownable.sol\":2154:2227  require(newOwner != address(0), \"Ownable: new owner is the zero address\") */\n      tag_207\n      jumpi\n      mload(0x40)\n      0x08c379a000000000000000000000000000000000000000000000000000000000\n      dup2\n      mstore\n      0x04\n      add\n      tag_208\n      swap1\n      tag_209\n      jump\t// in\n    tag_208:\n      mload(0x40)\n      dup1\n      swap2\n      sub\n      swap1\n      revert\n    tag_207:\n        /* \"@openzeppelin/contracts/access/Ownable.sol\":2237:2265  _transferOwnership(newOwner) */\n      tag_210\n        /* \"@openzeppelin/contracts/access/Ownable.sol\":2256:2264  newOwner */\n      dup2\n        /* \"@openzeppelin/contracts/access/Ownable.sol\":2237:2255  _transferOwnership */\n      tag_177\n        /* \"@openzeppelin/contracts/access/Ownable.sol\":2237:2265  _transferOwnership(newOwner) */\n      jump\t// in\n    tag_210:\n        /* \"@openzeppelin/contracts/access/Ownable.sol\":2074:2272  function transferOwnership(address newOwner) public virtual onlyOwner {... */\n      pop\n      jump\t// out\n        /* \"@openzeppelin/contracts/utils/introspection/ERC165.sol\":829:984  function supportsInterface(bytes4 interfaceId) public view virtual override returns (bool) {... */\n    tag_92:\n        /* \"@openzeppelin/contracts/utils/introspection/ERC165.sol\":914:918  bool */\n      0x00\n        /* \"@openzeppelin/contracts/utils/introspection/ERC165.sol\":952:977  type(IERC165).interfaceId */\n      0x01ffc9a700000000000000000000000000000000000000000000000000000000\n        /* \"@openzeppelin/contracts/utils/introspection/ERC165.sol\":937:977  interfaceId == type(IERC165).interfaceId */\n      not(0xffffffffffffffffffffffffffffffffffffffffffffffffffffffff)\n      and\n        /* \"@openzeppelin/contracts/utils/introspection/ERC165.sol\":937:948  interfaceId */\n      dup3\n        /* \"@openzeppelin/contracts/utils/introspection/ERC165.sol\":937:977  interfaceId == type(IERC165).interfaceId */\n      not(0xffffffffffffffffffffffffffffffffffffffffffffffffffffffff)\n      and\n      eq\n        /* \"@openzeppelin/contracts/utils/introspection/ERC165.sol\":930:977  return interfaceId == type(IERC165).interfaceId */\n      swap1\n      pop\n        /* \"@openzeppelin/contracts/utils/introspection/ERC165.sol\":829:984  function supportsInterface(bytes4 interfaceId) public view virtual override returns (bool) {... */\n      swap2\n      swap1\n      pop\n      jump\t// out\n        /* \"@openzeppelin/contracts/access/AccessControl.sol\":3460:3563  function _checkRole(bytes32 role) internal view virtual {... */\n    tag_144:\n        /* \"@openzeppelin/contracts/access/AccessControl.sol\":3526:3556  _checkRole(role, _msgSender()) */\n      tag_213\n        /* \"@openzeppelin/contracts/access/AccessControl.sol\":3537:3541  role */\n      dup2\n        /* \"@openzeppelin/contracts/access/AccessControl.sol\":3543:3555  _msgSender() */\n      tag_214\n        /* \"@openzeppelin/contracts/access/AccessControl.sol\":3543:3553  _msgSender */\n      tag_159\n        /* \"@openzeppelin/contracts/access/AccessControl.sol\":3543:3555  _msgSender() */\n      jump\t// in\n    tag_214:\n        /* \"@openzeppelin/contracts/access/AccessControl.sol\":3526:3536  _checkRole */\n      tag_215\n        /* \"@openzeppelin/contracts/access/AccessControl.sol\":3526:3556  _checkRole(role, _msgSender()) */\n      jump\t// in\n    tag_213:\n        /* \"@openzeppelin/contracts/access/AccessControl.sol\":3460:3563  function _checkRole(bytes32 role) internal view virtual {... */\n      pop\n      jump\t// out\n        /* \"@openzeppelin/contracts/access/AccessControl.sol\":7587:7820  function _grantRole(bytes32 role, address account) internal virtual {... */\n    tag_156:\n        /* \"@openzeppelin/contracts/access/AccessControl.sol\":7670:7692  hasRole(role, account) */\n      tag_217\n        /* \"@openzeppelin/contracts/access/AccessControl.sol\":7678:7682  role */\n      dup3\n        /* \"@openzeppelin/contracts/access/AccessControl.sol\":7684:7691  account */\n      dup3\n        /* \"@openzeppelin/contracts/access/AccessControl.sol\":7670:7677  hasRole */\n      tag_71\n        /* \"@openzeppelin/contracts/access/AccessControl.sol\":7670:7692  hasRole(role, account) */\n      jump\t// in\n    tag_217:\n        /* \"@openzeppelin/contracts/access/AccessControl.sol\":7665:7814  if (!hasRole(role, account)) {... */\n      tag_218\n      jumpi\n        /* \"@openzeppelin/contracts/access/AccessControl.sol\":7740:7744  true */\n      0x01\n        /* \"@openzeppelin/contracts/access/AccessControl.sol\":7708:7714  _roles */\n      dup1\n        /* \"@openzeppelin/contracts/access/AccessControl.sol\":7708:7720  _roles[role] */\n      0x00\n        /* \"@openzeppelin/contracts/access/AccessControl.sol\":7715:7719  role */\n      dup5\n        /* \"@openzeppelin/contracts/access/AccessControl.sol\":7708:7720  _roles[role] */\n      dup2\n      mstore\n      0x20\n      add\n      swap1\n      dup2\n      mstore\n      0x20\n      add\n      0x00\n      keccak256\n        /* \"@openzeppelin/contracts/access/AccessControl.sol\":7708:7728  _roles[role].members */\n      0x00\n      add\n        /* \"@openzeppelin/contracts/access/AccessControl.sol\":7708:7737  _roles[role].members[account] */\n      0x00\n        /* \"@openzeppelin/contracts/access/AccessControl.sol\":7729:7736  account */\n      dup4\n        /* \"@openzeppelin/contracts/access/AccessControl.sol\":7708:7737  _roles[role].members[account] */\n      0xffffffffffffffffffffffffffffffffffffffff\n      and\n      0xffffffffffffffffffffffffffffffffffffffff\n      and\n      dup2\n      mstore\n      0x20\n      add\n      swap1\n      dup2\n      mstore\n      0x20\n      add\n      0x00\n      keccak256\n      0x00\n        /* \"@openzeppelin/contracts/access/AccessControl.sol\":7708:7744  _roles[role].members[account] = true */\n      0x0100\n      exp\n      dup2\n      sload\n      dup2\n      0xff\n      mul\n      not\n      and\n      swap1\n      dup4\n      iszero\n      iszero\n      mul\n      or\n      swap1\n      sstore\n      pop\n        /* \"@openzeppelin/contracts/access/AccessControl.sol\":7790:7802  _msgSender() */\n      tag_219\n        /* \"@openzeppelin/contracts/access/AccessControl.sol\":7790:7800  _msgSender */\n      tag_159\n        /* \"@openzeppelin/contracts/access/AccessControl.sol\":7790:7802  _msgSender() */\n      jump\t// in\n    tag_219:\n        /* \"@openzeppelin/contracts/access/AccessControl.sol\":7763:7803  RoleGranted(role, account, _msgSender()) */\n      0xffffffffffffffffffffffffffffffffffffffff\n      and\n        /* \"@openzeppelin/contracts/access/AccessControl.sol\":7781:7788  account */\n      dup2\n        /* \"@openzeppelin/contracts/access/AccessControl.sol\":7763:7803  RoleGranted(role, account, _msgSender()) */\n      0xffffffffffffffffffffffffffffffffffffffff\n      and\n        /* \"@openzeppelin/contracts/access/AccessControl.sol\":7775:7779  role */\n      dup4\n        /* \"@openzeppelin/contracts/access/AccessControl.sol\":7763:7803  RoleGranted(role, account, _msgSender()) */\n      0x2f8788117e7eff1d82e926ec794901d17c78024a50270940304540a733656f0d\n      mload(0x40)\n      mload(0x40)\n      dup1\n      swap2\n      sub\n      swap1\n      log4\n        /* \"@openzeppelin/contracts/access/AccessControl.sol\":7665:7814  if (!hasRole(role, account)) {... */\n    tag_218:\n        /* \"@openzeppelin/contracts/access/AccessControl.sol\":7587:7820  function _grantRole(bytes32 role, address account) internal virtual {... */\n      pop\n      pop\n      jump\t// out\n        /* \"@openzeppelin/contracts/utils/Context.sol\":640:736  function _msgSender() internal view virtual returns (address) {... */\n    tag_159:\n        /* \"@openzeppelin/contracts/utils/Context.sol\":693:700  address */\n      0x00\n        /* \"@openzeppelin/contracts/utils/Context.sol\":719:729  msg.sender */\n      caller\n        /* \"@openzeppelin/contracts/utils/Context.sol\":712:729  return msg.sender */\n      swap1\n      pop\n        /* \"@openzeppelin/contracts/utils/Context.sol\":640:736  function _msgSender() internal view virtual returns (address) {... */\n      swap1\n      jump\t// out\n        /* \"@openzeppelin/contracts/access/AccessControl.sol\":7991:8225  function _revokeRole(bytes32 role, address account) internal virtual {... */\n    tag_164:\n        /* \"@openzeppelin/contracts/access/AccessControl.sol\":8074:8096  hasRole(role, account) */\n      tag_222\n        /* \"@openzeppelin/contracts/access/AccessControl.sol\":8082:8086  role */\n      dup3\n        /* \"@openzeppelin/contracts/access/AccessControl.sol\":8088:8095  account */\n      dup3\n        /* \"@openzeppelin/contracts/access/AccessControl.sol\":8074:8081  hasRole */\n      tag_71\n        /* \"@openzeppelin/contracts/access/AccessControl.sol\":8074:8096  hasRole(role, account) */\n      jump\t// in\n    tag_222:\n        /* \"@openzeppelin/contracts/access/AccessControl.sol\":8070:8219  if (hasRole(role, account)) {... */\n      iszero\n      tag_223\n      jumpi\n        /* \"@openzeppelin/contracts/access/AccessControl.sol\":8144:8149  false */\n      0x00\n        /* \"@openzeppelin/contracts/access/AccessControl.sol\":8112:8118  _roles */\n      0x01\n        /* \"@openzeppelin/contracts/access/AccessControl.sol\":8112:8124  _roles[role] */\n      0x00\n        /* \"@openzeppelin/contracts/access/AccessControl.sol\":8119:8123  role */\n      dup5\n        /* \"@openzeppelin/contracts/access/AccessControl.sol\":8112:8124  _roles[role] */\n      dup2\n      mstore\n      0x20\n      add\n      swap1\n      dup2\n      mstore\n      0x20\n      add\n      0x00\n      keccak256\n        /* \"@openzeppelin/contracts/access/AccessControl.sol\":8112:8132  _roles[role].members */\n      0x00\n      add\n        /* \"@openzeppelin/contracts/access/AccessControl.sol\":8112:8141  _roles[role].members[account] */\n      0x00\n        /* \"@openzeppelin/contracts/access/AccessControl.sol\":8133:8140  account */\n      dup4\n        /* \"@openzeppelin/contracts/access/AccessControl.sol\":8112:8141  _roles[role].members[account] */\n      0xffffffffffffffffffffffffffffffffffffffff\n      and\n      0xffffffffffffffffffffffffffffffffffffffff\n      and\n      dup2\n      mstore\n      0x20\n      add\n      swap1\n      dup2\n      mstore\n      0x20\n      add\n      0x00\n      keccak256\n      0x00\n        /* \"@openzeppelin/contracts/access/AccessControl.sol\":8112:8149  _roles[role].members[account] = false */\n      0x0100\n      exp\n      dup2\n      sload\n      dup2\n      0xff\n      mul\n      not\n      and\n      swap1\n      dup4\n      iszero\n      iszero\n      mul\n      or\n      swap1\n      sstore\n      pop\n        /* \"@openzeppelin/contracts/access/AccessControl.sol\":8195:8207  _msgSender() */\n      tag_224\n        /* \"@openzeppelin/contracts/access/AccessControl.sol\":8195:8205  _msgSender */\n      tag_159\n        /* \"@openzeppelin/contracts/access/AccessControl.sol\":8195:8207  _msgSender() */\n      jump\t// in\n    tag_224:\n        /* \"@openzeppelin/contracts/access/AccessControl.sol\":8168:8208  RoleRevoked(role, account, _msgSender()) */\n      0xffffffffffffffffffffffffffffffffffffffff\n      and\n        /* \"@openzeppelin/contracts/access/AccessControl.sol\":8186:8193  account */\n      dup2\n        /* \"@openzeppelin/contracts/access/AccessControl.sol\":8168:8208  RoleRevoked(role, account, _msgSender()) */\n      0xffffffffffffffffffffffffffffffffffffffff\n      and\n        /* \"@openzeppelin/contracts/access/AccessControl.sol\":8180:8184  role */\n      dup4\n        /* \"@openzeppelin/contracts/access/AccessControl.sol\":8168:8208  RoleRevoked(role, account, _msgSender()) */\n      0xf6391f5c32d9c69d2a47ea670b442974b53935d1edc7fd64eb21e047a839171b\n      mload(0x40)\n      mload(0x40)\n      dup1\n      swap2\n      sub\n      swap1\n      log4\n        /* \"@openzeppelin/contracts/access/AccessControl.sol\":8070:8219  if (hasRole(role, account)) {... */\n    tag_223:\n        /* \"@openzeppelin/contracts/access/AccessControl.sol\":7991:8225  function _revokeRole(bytes32 role, address account) internal virtual {... */\n      pop\n      pop\n      jump\t// out\n        /* \"@openzeppelin/contracts/access/Ownable.sol\":1359:1489  function _checkOwner() internal view virtual {... */\n    tag_174:\n        /* \"@openzeppelin/contracts/access/Ownable.sol\":1433:1445  _msgSender() */\n      tag_226\n        /* \"@openzeppelin/contracts/access/Ownable.sol\":1433:1443  _msgSender */\n      tag_159\n        /* \"@openzeppelin/contracts/access/Ownable.sol\":1433:1445  _msgSender() */\n      jump\t// in\n    tag_226:\n        /* \"@openzeppelin/contracts/access/Ownable.sol\":1422:1445  owner() == _msgSender() */\n      0xffffffffffffffffffffffffffffffffffffffff\n      and\n        /* \"@openzeppelin/contracts/access/Ownable.sol\":1422:1429  owner() */\n      tag_227\n        /* \"@openzeppelin/contracts/access/Ownable.sol\":1422:1427  owner */\n      tag_66\n        /* \"@openzeppelin/contracts/access/Ownable.sol\":1422:1429  owner() */\n      jump\t// in\n    tag_227:\n        /* \"@openzeppelin/contracts/access/Ownable.sol\":1422:1445  owner() == _msgSender() */\n      0xffffffffffffffffffffffffffffffffffffffff\n      and\n      eq\n        /* \"@openzeppelin/contracts/access/Ownable.sol\":1414:1482  require(owner() == _msgSender(), \"Ownable: caller is not the owner\") */\n      tag_228\n      jumpi\n      mload(0x40)\n      0x08c379a000000000000000000000000000000000000000000000000000000000\n      dup2\n      mstore\n      0x04\n      add\n      tag_229\n      swap1\n      tag_230\n      jump\t// in\n    tag_229:\n      mload(0x40)\n      dup1\n      swap2\n      sub\n      swap1\n      revert\n    tag_228:\n        /* \"@openzeppelin/contracts/access/Ownable.sol\":1359:1489  function _checkOwner() internal view virtual {... */\n      jump\t// out\n        /* \"@openzeppelin/contracts/access/Ownable.sol\":2426:2613  function _transferOwnership(address newOwner) internal virtual {... */\n    tag_177:\n        /* \"@openzeppelin/contracts/access/Ownable.sol\":2499:2515  address oldOwner */\n      0x00\n        /* \"@openzeppelin/contracts/access/Ownable.sol\":2518:2524  _owner */\n      dup1\n      0x00\n      swap1\n      sload\n      swap1\n      0x0100\n      exp\n      swap1\n      div\n      0xffffffffffffffffffffffffffffffffffffffff\n      and\n        /* \"@openzeppelin/contracts/access/Ownable.sol\":2499:2524  address oldOwner = _owner */\n      swap1\n      pop\n        /* \"@openzeppelin/contracts/access/Ownable.sol\":2543:2551  newOwner */\n      dup2\n        /* \"@openzeppelin/contracts/access/Ownable.sol\":2534:2540  _owner */\n      0x00\n      dup1\n        /* \"@openzeppelin/contracts/access/Ownable.sol\":2534:2551  _owner = newOwner */\n      0x0100\n      exp\n      dup2\n      sload\n      dup2\n      0xffffffffffffffffffffffffffffffffffffffff\n      mul\n      not\n      and\n      swap1\n      dup4\n      0xffffffffffffffffffffffffffffffffffffffff\n      and\n      mul\n      or\n      swap1\n      sstore\n      pop\n        /* \"@openzeppelin/contracts/access/Ownable.sol\":2597:2605  newOwner */\n      dup2\n        /* \"@openzeppelin/contracts/access/Ownable.sol\":2566:2606  OwnershipTransferred(oldOwner, newOwner) */\n      0xffffffffffffffffffffffffffffffffffffffff\n      and\n        /* \"@openzeppelin/contracts/access/Ownable.sol\":2587:2595  oldOwner */\n      dup2\n        /* \"@openzeppelin/contracts/access/Ownable.sol\":2566:2606  OwnershipTransferred(oldOwner, newOwner) */\n      0xffffffffffffffffffffffffffffffffffffffff\n      and\n      0x8be0079c531659141344cd1fd0a4f28419497f9722a3daafe3b4186f6b6457e0\n      mload(0x40)\n      mload(0x40)\n      dup1\n      swap2\n      sub\n      swap1\n      log3\n        /* \"@openzeppelin/contracts/access/Ownable.sol\":2489:2613  {... */\n      pop\n        /* \"@openzeppelin/contracts/access/Ownable.sol\":2426:2613  function _transferOwnership(address newOwner) internal virtual {... */\n      pop\n      jump\t// out\n        /* \"@openzeppelin/contracts/access/AccessControl.sol\":3844:4323  function _checkRole(bytes32 role, address account) internal view virtual {... */\n    tag_215:\n        /* \"@openzeppelin/contracts/access/AccessControl.sol\":3932:3954  hasRole(role, account) */\n      tag_233\n        /* \"@openzeppelin/contracts/access/AccessControl.sol\":3940:3944  role */\n      dup3\n        /* \"@openzeppelin/contracts/access/AccessControl.sol\":3946:3953  account */\n      dup3\n        /* \"@openzeppelin/contracts/access/AccessControl.sol\":3932:3939  hasRole */\n      tag_71\n        /* \"@openzeppelin/contracts/access/AccessControl.sol\":3932:3954  hasRole(role, account) */\n      jump\t// in\n    tag_233:\n        /* \"@openzeppelin/contracts/access/AccessControl.sol\":3927:4317  if (!hasRole(role, account)) {... */\n      tag_234\n      jumpi\n        /* \"@openzeppelin/contracts/access/AccessControl.sol\":4115:4143  Strings.toHexString(account) */\n      tag_235\n        /* \"@openzeppelin/contracts/access/AccessControl.sol\":4135:4142  account */\n      dup2\n        /* \"@openzeppelin/contracts/access/AccessControl.sol\":4115:4134  Strings.toHexString */\n      tag_236\n        /* \"@openzeppelin/contracts/access/AccessControl.sol\":4115:4143  Strings.toHexString(account) */\n      jump\t// in\n    tag_235:\n        /* \"@openzeppelin/contracts/access/AccessControl.sol\":4214:4252  Strings.toHexString(uint256(role), 32) */\n      tag_237\n        /* \"@openzeppelin/contracts/access/AccessControl.sol\":4242:4246  role */\n      dup4\n        /* \"@openzeppelin/contracts/access/AccessControl.sol\":4234:4247  uint256(role) */\n      0x00\n      shr\n        /* \"@openzeppelin/contracts/access/AccessControl.sol\":4249:4251  32 */\n      0x20\n        /* \"@openzeppelin/contracts/access/AccessControl.sol\":4214:4233  Strings.toHexString */\n      tag_238\n        /* \"@openzeppelin/contracts/access/AccessControl.sol\":4214:4252  Strings.toHexString(uint256(role), 32) */\n      jump\t// in\n    tag_237:\n        /* \"@openzeppelin/contracts/access/AccessControl.sol\":4022:4274  abi.encodePacked(... */\n      add(0x20, mload(0x40))\n      tag_239\n      swap3\n      swap2\n      swap1\n      tag_240\n      jump\t// in\n    tag_239:\n      mload(0x40)\n      0x20\n      dup2\n      dup4\n      sub\n      sub\n      dup2\n      mstore\n      swap1\n      0x40\n      mstore\n        /* \"@openzeppelin/contracts/access/AccessControl.sol\":3970:4306  revert(... */\n      mload(0x40)\n      0x08c379a000000000000000000000000000000000000000000000000000000000\n      dup2\n      mstore\n      0x04\n      add\n      tag_241\n      swap2\n      swap1\n      tag_242\n      jump\t// in\n    tag_241:\n      mload(0x40)\n      dup1\n      swap2\n      sub\n      swap1\n      revert\n        /* \"@openzeppelin/contracts/access/AccessControl.sol\":3927:4317  if (!hasRole(role, account)) {... */\n    tag_234:\n        /* \"@openzeppelin/contracts/access/AccessControl.sol\":3844:4323  function _checkRole(bytes32 role, address account) internal view virtual {... */\n      pop\n      pop\n      jump\t// out\n        /* \"@openzeppelin/contracts/utils/Strings.sol\":2407:2556  function toHexString(address addr) internal pure returns (string memory) {... */\n    tag_236:\n        /* \"@openzeppelin/contracts/utils/Strings.sol\":2465:2478  string memory */\n      0x60\n        /* \"@openzeppelin/contracts/utils/Strings.sol\":2497:2549  toHexString(uint256(uint160(addr)), _ADDRESS_LENGTH) */\n      tag_244\n        /* \"@openzeppelin/contracts/utils/Strings.sol\":2525:2529  addr */\n      dup3\n        /* \"@openzeppelin/contracts/utils/Strings.sol\":2509:2531  uint256(uint160(addr)) */\n      0xffffffffffffffffffffffffffffffffffffffff\n      and\n        /* \"@openzeppelin/contracts/utils/Strings.sol\":343:345  20 */\n      0x14\n        /* \"@openzeppelin/contracts/utils/Strings.sol\":2497:2549  toHexString(uint256(uint160(addr)), _ADDRESS_LENGTH) */\n      0xff\n      and\n        /* \"@openzeppelin/contracts/utils/Strings.sol\":2497:2508  toHexString */\n      tag_238\n        /* \"@openzeppelin/contracts/utils/Strings.sol\":2497:2549  toHexString(uint256(uint160(addr)), _ADDRESS_LENGTH) */\n      jump\t// in\n    tag_244:\n        /* \"@openzeppelin/contracts/utils/Strings.sol\":2490:2549  return toHexString(uint256(uint160(addr)), _ADDRESS_LENGTH) */\n      swap1\n      pop\n        /* \"@openzeppelin/contracts/utils/Strings.sol\":2407:2556  function toHexString(address addr) internal pure returns (string memory) {... */\n      swap2\n      swap1\n      pop\n      jump\t// out\n        /* \"@openzeppelin/contracts/utils/Strings.sol\":1818:2255  function toHexString(uint256 value, uint256 length) internal pure returns (string memory) {... */\n    tag_238:\n        /* \"@openzeppelin/contracts/utils/Strings.sol\":1893:1906  string memory */\n      0x60\n        /* \"@openzeppelin/contracts/utils/Strings.sol\":1918:1937  bytes memory buffer */\n      0x00\n        /* \"@openzeppelin/contracts/utils/Strings.sol\":1963:1964  2 */\n      0x02\n        /* \"@openzeppelin/contracts/utils/Strings.sol\":1954:1960  length */\n      dup4\n        /* \"@openzeppelin/contracts/utils/Strings.sol\":1950:1951  2 */\n      0x02\n        /* \"@openzeppelin/contracts/utils/Strings.sol\":1950:1960  2 * length */\n      tag_246\n      swap2\n      swap1\n      tag_247\n      jump\t// in\n    tag_246:\n        /* \"@openzeppelin/contracts/utils/Strings.sol\":1950:1964  2 * length + 2 */\n      tag_248\n      swap2\n      swap1\n      tag_249\n      jump\t// in\n    tag_248:\n        /* \"@openzeppelin/contracts/utils/Strings.sol\":1940:1965  new bytes(2 * length + 2) */\n      0xffffffffffffffff\n      dup2\n      gt\n      iszero\n      tag_250\n      jumpi\n      tag_251\n      tag_252\n      jump\t// in\n    tag_251:\n    tag_250:\n      mload(0x40)\n      swap1\n      dup1\n      dup3\n      mstore\n      dup1\n      0x1f\n      add\n      not(0x1f)\n      and\n      0x20\n      add\n      dup3\n      add\n      0x40\n      mstore\n      dup1\n      iszero\n      tag_253\n      jumpi\n      dup2\n      0x20\n      add\n      0x01\n      dup3\n      mul\n      dup1\n      calldatasize\n      dup4\n      calldatacopy\n      dup1\n      dup3\n      add\n      swap2\n      pop\n      pop\n      swap1\n      pop\n    tag_253:\n      pop\n        /* \"@openzeppelin/contracts/utils/Strings.sol\":1918:1965  bytes memory buffer = new bytes(2 * length + 2) */\n      swap1\n      pop\n        /* \"@openzeppelin/contracts/utils/Strings.sol\":1975:1990  buffer[0] = \"0\" */\n      0x3000000000000000000000000000000000000000000000000000000000000000\n        /* \"@openzeppelin/contracts/utils/Strings.sol\":1975:1981  buffer */\n      dup2\n        /* \"@openzeppelin/contracts/utils/Strings.sol\":1982:1983  0 */\n      0x00\n        /* \"@openzeppelin/contracts/utils/Strings.sol\":1975:1984  buffer[0] */\n      dup2\n      mload\n      dup2\n      lt\n      tag_254\n      jumpi\n      tag_255\n      tag_256\n      jump\t// in\n    tag_255:\n    tag_254:\n      0x20\n      add\n      add\n        /* \"@openzeppelin/contracts/utils/Strings.sol\":1975:1990  buffer[0] = \"0\" */\n      swap1\n      not(0xffffffffffffffffffffffffffffffffffffffffffffffffffffffffffffff)\n      and\n      swap1\n      dup2\n      0x00\n      byte\n      swap1\n      mstore8\n      pop\n        /* \"@openzeppelin/contracts/utils/Strings.sol\":2000:2015  buffer[1] = \"x\" */\n      0x7800000000000000000000000000000000000000000000000000000000000000\n        /* \"@openzeppelin/contracts/utils/Strings.sol\":2000:2006  buffer */\n      dup2\n        /* \"@openzeppelin/contracts/utils/Strings.sol\":2007:2008  1 */\n      0x01\n        /* \"@openzeppelin/contracts/utils/Strings.sol\":2000:2009  buffer[1] */\n      dup2\n      mload\n      dup2\n      lt\n      tag_257\n      jumpi\n      tag_258\n      tag_256\n      jump\t// in\n    tag_258:\n    tag_257:\n      0x20\n      add\n      add\n        /* \"@openzeppelin/contracts/utils/Strings.sol\":2000:2015  buffer[1] = \"x\" */\n      swap1\n      not(0xffffffffffffffffffffffffffffffffffffffffffffffffffffffffffffff)\n      and\n      swap1\n      dup2\n      0x00\n      byte\n      swap1\n      mstore8\n      pop\n        /* \"@openzeppelin/contracts/utils/Strings.sol\":2030:2039  uint256 i */\n      0x00\n        /* \"@openzeppelin/contracts/utils/Strings.sol\":2055:2056  1 */\n      0x01\n        /* \"@openzeppelin/contracts/utils/Strings.sol\":2046:2052  length */\n      dup5\n        /* \"@openzeppelin/contracts/utils/Strings.sol\":2042:2043  2 */\n      0x02\n        /* \"@openzeppelin/contracts/utils/Strings.sol\":2042:2052  2 * length */\n      tag_262\n      swap2\n      swap1\n      tag_247\n      jump\t// in\n    tag_262:\n        /* \"@openzeppelin/contracts/utils/Strings.sol\":2042:2056  2 * length + 1 */\n      tag_263\n      swap2\n      swap1\n      tag_249\n      jump\t// in\n    tag_263:\n        /* \"@openzeppelin/contracts/utils/Strings.sol\":2030:2056  uint256 i = 2 * length + 1 */\n      swap1\n      pop\n        /* \"@openzeppelin/contracts/utils/Strings.sol\":2025:2153  for (uint256 i = 2 * length + 1; i > 1; --i) {... */\n    tag_259:\n        /* \"@openzeppelin/contracts/utils/Strings.sol\":2062:2063  1 */\n      0x01\n        /* \"@openzeppelin/contracts/utils/Strings.sol\":2058:2059  i */\n      dup2\n        /* \"@openzeppelin/contracts/utils/Strings.sol\":2058:2063  i > 1 */\n      gt\n        /* \"@openzeppelin/contracts/utils/Strings.sol\":2025:2153  for (uint256 i = 2 * length + 1; i > 1; --i) {... */\n      iszero\n      tag_260\n      jumpi\n        /* \"@openzeppelin/contracts/utils/Strings.sol\":2096:2104  _SYMBOLS */\n      0x3031323334353637383961626364656600000000000000000000000000000000\n        /* \"@openzeppelin/contracts/utils/Strings.sol\":2113:2116  0xf */\n      0x0f\n        /* \"@openzeppelin/contracts/utils/Strings.sol\":2105:2110  value */\n      dup7\n        /* \"@openzeppelin/contracts/utils/Strings.sol\":2105:2116  value & 0xf */\n      and\n        /* \"@openzeppelin/contracts/utils/Strings.sol\":2096:2117  _SYMBOLS[value & 0xf] */\n      0x10\n      dup2\n      lt\n      tag_264\n      jumpi\n      tag_265\n      tag_256\n      jump\t// in\n    tag_265:\n    tag_264:\n      byte\n      0xf8\n      shl\n        /* \"@openzeppelin/contracts/utils/Strings.sol\":2084:2090  buffer */\n      dup3\n        /* \"@openzeppelin/contracts/utils/Strings.sol\":2091:2092  i */\n      dup3\n        /* \"@openzeppelin/contracts/utils/Strings.sol\":2084:2093  buffer[i] */\n      dup2\n      mload\n      dup2\n      lt\n      tag_266\n      jumpi\n      tag_267\n      tag_256\n      jump\t// in\n    tag_267:\n    tag_266:\n      0x20\n      add\n      add\n        /* \"@openzeppelin/contracts/utils/Strings.sol\":2084:2117  buffer[i] = _SYMBOLS[value & 0xf] */\n      swap1\n      not(0xffffffffffffffffffffffffffffffffffffffffffffffffffffffffffffff)\n      and\n      swap1\n      dup2\n      0x00\n      byte\n      swap1\n      mstore8\n      pop\n        /* \"@openzeppelin/contracts/utils/Strings.sol\":2141:2142  4 */\n      0x04\n        /* \"@openzeppelin/contracts/utils/Strings.sol\":2131:2142  value >>= 4 */\n      dup6\n      swap1\n      shr\n      swap5\n      pop\n        /* \"@openzeppelin/contracts/utils/Strings.sol\":2065:2068  --i */\n      dup1\n      tag_268\n      swap1\n      tag_269\n      jump\t// in\n    tag_268:\n      swap1\n      pop\n        /* \"@openzeppelin/contracts/utils/Strings.sol\":2025:2153  for (uint256 i = 2 * length + 1; i > 1; --i) {... */\n      jump(tag_259)\n    tag_260:\n      pop\n        /* \"@openzeppelin/contracts/utils/Strings.sol\":2179:2180  0 */\n      0x00\n        /* \"@openzeppelin/contracts/utils/Strings.sol\":2170:2175  value */\n      dup5\n        /* \"@openzeppelin/contracts/utils/Strings.sol\":2170:2180  value == 0 */\n      eq\n        /* \"@openzeppelin/contracts/utils/Strings.sol\":2162:2217  require(value == 0, \"Strings: hex length insufficient\") */\n      tag_270\n      jumpi\n      mload(0x40)\n      0x08c379a000000000000000000000000000000000000000000000000000000000\n      dup2\n      mstore\n      0x04\n      add\n      tag_271\n      swap1\n      tag_272\n      jump\t// in\n    tag_271:\n      mload(0x40)\n      dup1\n      swap2\n      sub\n      swap1\n      revert\n    tag_270:\n        /* \"@openzeppelin/contracts/utils/Strings.sol\":2241:2247  buffer */\n      dup1\n        /* \"@openzeppelin/contracts/utils/Strings.sol\":2227:2248  return string(buffer) */\n      swap2\n      pop\n      pop\n        /* \"@openzeppelin/contracts/utils/Strings.sol\":1818:2255  function toHexString(uint256 value, uint256 length) internal pure returns (string memory) {... */\n      swap3\n      swap2\n      pop\n      pop\n      jump\t// out\n    tag_94:\n      mload(0x40)\n      dup1\n      0xa0\n      add\n      0x40\n      mstore\n      dup1\n      tag_273\n      tag_274\n      jump\t// in\n    tag_273:\n      dup2\n      mstore\n      0x20\n      add\n      tag_275\n      tag_276\n      jump\t// in\n    tag_275:\n      dup2\n      mstore\n      0x20\n      add\n      tag_277\n      tag_278\n      jump\t// in\n    tag_277:\n      dup2\n      mstore\n      0x20\n      add\n      tag_279\n      tag_280\n      jump\t// in\n    tag_279:\n      dup2\n      mstore\n      0x20\n      add\n      tag_281\n      tag_280\n      jump\t// in\n    tag_281:\n      dup2\n      mstore\n      pop\n      swap1\n      jump\t// out\n    tag_147:\n      dup3\n      0x02\n      dup2\n      add\n      swap3\n      dup3\n      iszero\n      tag_282\n      jumpi\n      swap2\n      0x20\n      mul\n      dup3\n      add\n    tag_283:\n      dup3\n      dup2\n      gt\n      iszero\n      tag_284\n      jumpi\n      dup3\n      mload\n      dup3\n      swap1\n      dup2\n      tag_285\n      swap2\n      swap1\n      tag_286\n      jump\t// in\n    tag_285:\n      pop\n      swap2\n      0x20\n      add\n      swap2\n      swap1\n      0x01\n      add\n      swap1\n      jump(tag_283)\n    tag_284:\n    tag_282:\n      pop\n      swap1\n      pop\n      tag_287\n      swap2\n      swap1\n      tag_288\n      jump\t// in\n    tag_287:\n      pop\n      swap1\n      jump\t// out\n    tag_169:\n      dup3\n      0x06\n      dup2\n      add\n      swap3\n      dup3\n      iszero\n      tag_289\n      jumpi\n      swap2\n      0x20\n      mul\n      dup3\n      add\n    tag_290:\n      dup3\n      dup2\n      gt\n      iszero\n      tag_291\n      jumpi\n      dup3\n      mload\n      dup3\n      swap1\n      dup2\n      tag_292\n      swap2\n      swap1\n      tag_286\n      jump\t// in\n    tag_292:\n      pop\n      swap2\n      0x20\n      add\n      swap2\n      swap1\n      0x01\n      add\n      swap1\n      jump(tag_290)\n    tag_291:\n    tag_289:\n      pop\n      swap1\n      pop\n      tag_293\n      swap2\n      swap1\n      tag_288\n      jump\t// in\n    tag_293:\n      pop\n      swap1\n      jump\t// out\n    tag_182:\n      dup3\n      0x07\n      dup2\n      add\n      swap3\n      dup3\n      iszero\n      tag_294\n      jumpi\n      swap2\n      0x20\n      mul\n      dup3\n      add\n    tag_295:\n      dup3\n      dup2\n      gt\n      iszero\n      tag_296\n      jumpi\n      dup3\n      mload\n      dup3\n      swap1\n      dup2\n      tag_297\n      swap2\n      swap1\n      tag_286\n      jump\t// in\n    tag_297:\n      pop\n      swap2\n      0x20\n      add\n      swap2\n      swap1\n      0x01\n      add\n      swap1\n      jump(tag_295)\n    tag_296:\n    tag_294:\n      pop\n      swap1\n      pop\n      tag_298\n      swap2\n      swap1\n      tag_288\n      jump\t// in\n    tag_298:\n      pop\n      swap1\n      jump\t// out\n    tag_191:\n      dup3\n      0x03\n      dup2\n      add\n      swap3\n      dup3\n      iszero\n      tag_299\n      jumpi\n      swap2\n      0x20\n      mul\n      dup3\n      add\n    tag_300:\n      dup3\n      dup2\n      gt\n      iszero\n      tag_301\n      jumpi\n      dup3\n      mload\n      dup3\n      swap1\n      dup2\n      tag_302\n      swap2\n      swap1\n      tag_286\n      jump\t// in\n    tag_302:\n      pop\n      swap2\n      0x20\n      add\n      swap2\n      swap1\n      0x01\n      add\n      swap1\n      jump(tag_300)\n    tag_301:\n    tag_299:\n      pop\n      swap1\n      pop\n      tag_303\n      swap2\n      swap1\n      tag_288\n      jump\t// in\n    tag_303:\n      pop\n      swap1\n      jump\t// out\n    tag_274:\n      mload(0x40)\n      dup1\n      0xc0\n      add\n      0x40\n      mstore\n      dup1\n      0x06\n      swap1\n    tag_304:\n      0x60\n      dup2\n      mstore\n      0x20\n      add\n      swap1\n      0x01\n      swap1\n      sub\n      swap1\n      dup2\n      tag_304\n      jumpi\n      swap1\n      pop\n      pop\n      swap1\n      jump\t// out\n    tag_276:\n      mload(0x40)\n      dup1\n      0xe0\n      add\n      0x40\n      mstore\n      dup1\n      0x07\n      swap1\n    tag_305:\n      0x60\n      dup2\n      mstore\n      0x20\n      add\n      swap1\n      0x01\n      swap1\n      sub\n      swap1\n      dup2\n      tag_305\n      jumpi\n      swap1\n      pop\n      pop\n      swap1\n      jump\t// out\n    tag_278:\n      mload(0x40)\n      dup1\n      0x60\n      add\n      0x40\n      mstore\n      dup1\n      0x03\n      swap1\n    tag_306:\n      0x60\n      dup2\n      mstore\n      0x20\n      add\n      swap1\n      0x01\n      swap1\n      sub\n      swap1\n      dup2\n      tag_306\n      jumpi\n      swap1\n      pop\n      pop\n      swap1\n      jump\t// out\n    tag_280:\n      mload(0x40)\n      dup1\n      0x40\n      add\n      0x40\n      mstore\n      dup1\n      0x02\n      swap1\n    tag_307:\n      0x60\n      dup2\n      mstore\n      0x20\n      add\n      swap1\n      0x01\n      swap1\n      sub\n      swap1\n      dup2\n      tag_307\n      jumpi\n      swap1\n      pop\n      pop\n      swap1\n      jump\t// out\n    tag_288:\n    tag_308:\n      dup1\n      dup3\n      gt\n      iszero\n      tag_309\n      jumpi\n      0x00\n      dup2\n      dup2\n      tag_310\n      swap2\n      swap1\n      tag_311\n      jump\t// in\n    tag_310:\n      pop\n      0x01\n      add\n      jump(tag_308)\n    tag_309:\n      pop\n      swap1\n      jump\t// out\n    tag_311:\n      pop\n      dup1\n      sload\n      tag_312\n      swap1\n      tag_105\n      jump\t// in\n    tag_312:\n      0x00\n      dup3\n      sstore\n      dup1\n      0x1f\n      lt\n      tag_314\n      jumpi\n      pop\n      jump(tag_313)\n    tag_314:\n      0x1f\n      add\n      0x20\n      swap1\n      div\n      swap1\n      0x00\n      mstore\n      keccak256(0x00, 0x20)\n      swap1\n      dup2\n      add\n      swap1\n      tag_315\n      swap2\n      swap1\n      tag_316\n      jump\t// in\n    tag_315:\n    tag_313:\n      pop\n      jump\t// out\n    tag_316:\n    tag_317:\n      dup1\n      dup3\n      gt\n      iszero\n      tag_318\n      jumpi\n      0x00\n      dup2\n      0x00\n      swap1\n      sstore\n      pop\n      0x01\n      add\n      jump(tag_317)\n    tag_318:\n      pop\n      swap1\n      jump\t// out\n        /* \"#utility.yul\":7:82   */\n    tag_319:\n        /* \"#utility.yul\":40:46   */\n      0x00\n        /* \"#utility.yul\":73:75   */\n      0x40\n        /* \"#utility.yul\":67:76   */\n      mload\n        /* \"#utility.yul\":57:76   */\n      swap1\n      pop\n        /* \"#utility.yul\":7:82   */\n      swap1\n      jump\t// out\n        /* \"#utility.yul\":88:205   */\n    tag_320:\n        /* \"#utility.yul\":197:198   */\n      0x00\n        /* \"#utility.yul\":194:195   */\n      dup1\n        /* \"#utility.yul\":187:199   */\n      revert\n        /* \"#utility.yul\":211:328   */\n    tag_321:\n        /* \"#utility.yul\":320:321   */\n      0x00\n        /* \"#utility.yul\":317:318   */\n      dup1\n        /* \"#utility.yul\":310:322   */\n      revert\n        /* \"#utility.yul\":334:483   */\n    tag_322:\n        /* \"#utility.yul\":370:377   */\n      0x00\n        /* \"#utility.yul\":410:476   */\n      0xffffffff00000000000000000000000000000000000000000000000000000000\n        /* \"#utility.yul\":403:408   */\n      dup3\n        /* \"#utility.yul\":399:477   */\n      and\n        /* \"#utility.yul\":388:477   */\n      swap1\n      pop\n        /* \"#utility.yul\":334:483   */\n      swap2\n      swap1\n      pop\n      jump\t// out\n        /* \"#utility.yul\":489:609   */\n    tag_323:\n        /* \"#utility.yul\":561:584   */\n      tag_434\n        /* \"#utility.yul\":578:583   */\n      dup2\n        /* \"#utility.yul\":561:584   */\n      tag_322\n      jump\t// in\n    tag_434:\n        /* \"#utility.yul\":554:559   */\n      dup2\n        /* \"#utility.yul\":551:585   */\n      eq\n        /* \"#utility.yul\":541:603   */\n      tag_435\n      jumpi\n        /* \"#utility.yul\":599:600   */\n      0x00\n        /* \"#utility.yul\":596:597   */\n      dup1\n        /* \"#utility.yul\":589:601   */\n      revert\n        /* \"#utility.yul\":541:603   */\n    tag_435:\n        /* \"#utility.yul\":489:609   */\n      pop\n      jump\t// out\n        /* \"#utility.yul\":615:752   */\n    tag_324:\n        /* \"#utility.yul\":660:665   */\n      0x00\n        /* \"#utility.yul\":698:704   */\n      dup2\n        /* \"#utility.yul\":685:705   */\n      calldataload\n        /* \"#utility.yul\":676:705   */\n      swap1\n      pop\n        /* \"#utility.yul\":714:746   */\n      tag_437\n        /* \"#utility.yul\":740:745   */\n      dup2\n        /* \"#utility.yul\":714:746   */\n      tag_323\n      jump\t// in\n    tag_437:\n        /* \"#utility.yul\":615:752   */\n      swap3\n      swap2\n      pop\n      pop\n      jump\t// out\n        /* \"#utility.yul\":758:1085   */\n    tag_25:\n        /* \"#utility.yul\":816:822   */\n      0x00\n        /* \"#utility.yul\":865:867   */\n      0x20\n        /* \"#utility.yul\":853:862   */\n      dup3\n        /* \"#utility.yul\":844:851   */\n      dup5\n        /* \"#utility.yul\":840:863   */\n      sub\n        /* \"#utility.yul\":836:868   */\n      slt\n        /* \"#utility.yul\":833:952   */\n      iszero\n      tag_439\n      jumpi\n        /* \"#utility.yul\":871:950   */\n      tag_440\n      tag_320\n      jump\t// in\n    tag_440:\n        /* \"#utility.yul\":833:952   */\n    tag_439:\n        /* \"#utility.yul\":991:992   */\n      0x00\n        /* \"#utility.yul\":1016:1068   */\n      tag_441\n        /* \"#utility.yul\":1060:1067   */\n      dup5\n        /* \"#utility.yul\":1051:1057   */\n      dup3\n        /* \"#utility.yul\":1040:1049   */\n      dup6\n        /* \"#utility.yul\":1036:1058   */\n      add\n        /* \"#utility.yul\":1016:1068   */\n      tag_324\n      jump\t// in\n    tag_441:\n        /* \"#utility.yul\":1006:1068   */\n      swap2\n      pop\n        /* \"#utility.yul\":962:1078   */\n      pop\n        /* \"#utility.yul\":758:1085   */\n      swap3\n      swap2\n      pop\n      pop\n      jump\t// out\n        /* \"#utility.yul\":1091:1181   */\n    tag_325:\n        /* \"#utility.yul\":1125:1132   */\n      0x00\n        /* \"#utility.yul\":1168:1173   */\n      dup2\n        /* \"#utility.yul\":1161:1174   */\n      iszero\n        /* \"#utility.yul\":1154:1175   */\n      iszero\n        /* \"#utility.yul\":1143:1175   */\n      swap1\n      pop\n        /* \"#utility.yul\":1091:1181   */\n      swap2\n      swap1\n      pop\n      jump\t// out\n        /* \"#utility.yul\":1187:1296   */\n    tag_326:\n        /* \"#utility.yul\":1268:1289   */\n      tag_444\n        /* \"#utility.yul\":1283:1288   */\n      dup2\n        /* \"#utility.yul\":1268:1289   */\n      tag_325\n      jump\t// in\n    tag_444:\n        /* \"#utility.yul\":1263:1266   */\n      dup3\n        /* \"#utility.yul\":1256:1290   */\n      mstore\n        /* \"#utility.yul\":1187:1296   */\n      pop\n      pop\n      jump\t// out\n        /* \"#utility.yul\":1302:1512   */\n    tag_28:\n        /* \"#utility.yul\":1389:1393   */\n      0x00\n        /* \"#utility.yul\":1427:1429   */\n      0x20\n        /* \"#utility.yul\":1416:1425   */\n      dup3\n        /* \"#utility.yul\":1412:1430   */\n      add\n        /* \"#utility.yul\":1404:1430   */\n      swap1\n      pop\n        /* \"#utility.yul\":1440:1505   */\n      tag_446\n        /* \"#utility.yul\":1502:1503   */\n      0x00\n        /* \"#utility.yul\":1491:1500   */\n      dup4\n        /* \"#utility.yul\":1487:1504   */\n      add\n        /* \"#utility.yul\":1478:1484   */\n      dup5\n        /* \"#utility.yul\":1440:1505   */\n      tag_326\n      jump\t// in\n    tag_446:\n        /* \"#utility.yul\":1302:1512   */\n      swap3\n      swap2\n      pop\n      pop\n      jump\t// out\n        /* \"#utility.yul\":1518:1644   */\n    tag_327:\n        /* \"#utility.yul\":1555:1562   */\n      0x00\n        /* \"#utility.yul\":1595:1637   */\n      0xffffffffffffffffffffffffffffffffffffffff\n        /* \"#utility.yul\":1588:1593   */\n      dup3\n        /* \"#utility.yul\":1584:1638   */\n      and\n        /* \"#utility.yul\":1573:1638   */\n      swap1\n      pop\n        /* \"#utility.yul\":1518:1644   */\n      swap2\n      swap1\n      pop\n      jump\t// out\n        /* \"#utility.yul\":1650:1746   */\n    tag_328:\n        /* \"#utility.yul\":1687:1694   */\n      0x00\n        /* \"#utility.yul\":1716:1740   */\n      tag_449\n        /* \"#utility.yul\":1734:1739   */\n      dup3\n        /* \"#utility.yul\":1716:1740   */\n      tag_327\n      jump\t// in\n    tag_449:\n        /* \"#utility.yul\":1705:1740   */\n      swap1\n      pop\n        /* \"#utility.yul\":1650:1746   */\n      swap2\n      swap1\n      pop\n      jump\t// out\n        /* \"#utility.yul\":1752:1874   */\n    tag_329:\n        /* \"#utility.yul\":1825:1849   */\n      tag_451\n        /* \"#utility.yul\":1843:1848   */\n      dup2\n        /* \"#utility.yul\":1825:1849   */\n      tag_328\n      jump\t// in\n    tag_451:\n        /* \"#utility.yul\":1818:1823   */\n      dup2\n        /* \"#utility.yul\":1815:1850   */\n      eq\n        /* \"#utility.yul\":1805:1868   */\n      tag_452\n      jumpi\n        /* \"#utility.yul\":1864:1865   */\n      0x00\n        /* \"#utility.yul\":1861:1862   */\n      dup1\n        /* \"#utility.yul\":1854:1866   */\n      revert\n        /* \"#utility.yul\":1805:1868   */\n    tag_452:\n        /* \"#utility.yul\":1752:1874   */\n      pop\n      jump\t// out\n        /* \"#utility.yul\":1880:2019   */\n    tag_330:\n        /* \"#utility.yul\":1926:1931   */\n      0x00\n        /* \"#utility.yul\":1964:1970   */\n      dup2\n        /* \"#utility.yul\":1951:1971   */\n      calldataload\n        /* \"#utility.yul\":1942:1971   */\n      swap1\n      pop\n        /* \"#utility.yul\":1980:2013   */\n      tag_454\n        /* \"#utility.yul\":2007:2012   */\n      dup2\n        /* \"#utility.yul\":1980:2013   */\n      tag_329\n      jump\t// in\n    tag_454:\n        /* \"#utility.yul\":1880:2019   */\n      swap3\n      swap2\n      pop\n      pop\n      jump\t// out\n        /* \"#utility.yul\":2025:2354   */\n    tag_31:\n        /* \"#utility.yul\":2084:2090   */\n      0x00\n        /* \"#utility.yul\":2133:2135   */\n      0x20\n        /* \"#utility.yul\":2121:2130   */\n      dup3\n        /* \"#utility.yul\":2112:2119   */\n      dup5\n        /* \"#utility.yul\":2108:2131   */\n      sub\n        /* \"#utility.yul\":2104:2136   */\n      slt\n        /* \"#utility.yul\":2101:2220   */\n      iszero\n      tag_456\n      jumpi\n        /* \"#utility.yul\":2139:2218   */\n      tag_457\n      tag_320\n      jump\t// in\n    tag_457:\n        /* \"#utility.yul\":2101:2220   */\n    tag_456:\n        /* \"#utility.yul\":2259:2260   */\n      0x00\n        /* \"#utility.yul\":2284:2337   */\n      tag_458\n        /* \"#utility.yul\":2329:2336   */\n      dup5\n        /* \"#utility.yul\":2320:2326   */\n      dup3\n        /* \"#utility.yul\":2309:2318   */\n      dup6\n        /* \"#utility.yul\":2305:2327   */\n      add\n        /* \"#utility.yul\":2284:2337   */\n      tag_330\n      jump\t// in\n    tag_458:\n        /* \"#utility.yul\":2274:2337   */\n      swap2\n      pop\n        /* \"#utility.yul\":2230:2347   */\n      pop\n        /* \"#utility.yul\":2025:2354   */\n      swap3\n      swap2\n      pop\n      pop\n      jump\t// out\n        /* \"#utility.yul\":2360:2474   */\n    tag_331:\n        /* \"#utility.yul\":2435:2441   */\n      0x00\n        /* \"#utility.yul\":2463:2467   */\n      0x06\n        /* \"#utility.yul\":2453:2467   */\n      swap1\n      pop\n        /* \"#utility.yul\":2360:2474   */\n      swap2\n      swap1\n      pop\n      jump\t// out\n        /* \"#utility.yul\":2480:2623   */\n    tag_332:\n        /* \"#utility.yul\":2577:2588   */\n      0x00\n        /* \"#utility.yul\":2614:2617   */\n      dup2\n        /* \"#utility.yul\":2599:2617   */\n      swap1\n      pop\n        /* \"#utility.yul\":2480:2623   */\n      swap3\n      swap2\n      pop\n      pop\n      jump\t// out\n        /* \"#utility.yul\":2629:2737   */\n    tag_333:\n        /* \"#utility.yul\":2704:2708   */\n      0x00\n        /* \"#utility.yul\":2727:2730   */\n      dup2\n        /* \"#utility.yul\":2719:2730   */\n      swap1\n      pop\n        /* \"#utility.yul\":2629:2737   */\n      swap2\n      swap1\n      pop\n      jump\t// out\n        /* \"#utility.yul\":2743:2842   */\n    tag_334:\n        /* \"#utility.yul\":2795:2801   */\n      0x00\n        /* \"#utility.yul\":2829:2834   */\n      dup2\n        /* \"#utility.yul\":2823:2835   */\n      mload\n        /* \"#utility.yul\":2813:2835   */\n      swap1\n      pop\n        /* \"#utility.yul\":2743:2842   */\n      swap2\n      swap1\n      pop\n      jump\t// out\n        /* \"#utility.yul\":2848:3007   */\n    tag_335:\n        /* \"#utility.yul\":2922:2933   */\n      0x00\n        /* \"#utility.yul\":2956:2962   */\n      dup3\n        /* \"#utility.yul\":2951:2954   */\n      dup3\n        /* \"#utility.yul\":2944:2963   */\n      mstore\n        /* \"#utility.yul\":2996:3000   */\n      0x20\n        /* \"#utility.yul\":2991:2994   */\n      dup3\n        /* \"#utility.yul\":2987:3001   */\n      add\n        /* \"#utility.yul\":2972:3001   */\n      swap1\n      pop\n        /* \"#utility.yul\":2848:3007   */\n      swap3\n      swap2\n      pop\n      pop\n      jump\t// out\n        /* \"#utility.yul\":3013:3259   */\n    tag_336:\n        /* \"#utility.yul\":3094:3095   */\n      0x00\n        /* \"#utility.yul\":3104:3217   */\n    tag_465:\n        /* \"#utility.yul\":3118:3124   */\n      dup4\n        /* \"#utility.yul\":3115:3116   */\n      dup2\n        /* \"#utility.yul\":3112:3125   */\n      lt\n        /* \"#utility.yul\":3104:3217   */\n      iszero\n      tag_467\n      jumpi\n        /* \"#utility.yul\":3203:3204   */\n      dup1\n        /* \"#utility.yul\":3198:3201   */\n      dup3\n        /* \"#utility.yul\":3194:3205   */\n      add\n        /* \"#utility.yul\":3188:3206   */\n      mload\n        /* \"#utility.yul\":3184:3185   */\n      dup2\n        /* \"#utility.yul\":3179:3182   */\n      dup5\n        /* \"#utility.yul\":3175:3186   */\n      add\n        /* \"#utility.yul\":3168:3207   */\n      mstore\n        /* \"#utility.yul\":3140:3142   */\n      0x20\n        /* \"#utility.yul\":3137:3138   */\n      dup2\n        /* \"#utility.yul\":3133:3143   */\n      add\n        /* \"#utility.yul\":3128:3143   */\n      swap1\n      pop\n        /* \"#utility.yul\":3104:3217   */\n      jump(tag_465)\n    tag_467:\n        /* \"#utility.yul\":3251:3252   */\n      0x00\n        /* \"#utility.yul\":3242:3248   */\n      dup5\n        /* \"#utility.yul\":3237:3240   */\n      dup5\n        /* \"#utility.yul\":3233:3249   */\n      add\n        /* \"#utility.yul\":3226:3253   */\n      mstore\n        /* \"#utility.yul\":3075:3259   */\n      pop\n        /* \"#utility.yul\":3013:3259   */\n      pop\n      pop\n      pop\n      jump\t// out\n        /* \"#utility.yul\":3265:3367   */\n    tag_337:\n        /* \"#utility.yul\":3306:3312   */\n      0x00\n        /* \"#utility.yul\":3357:3359   */\n      0x1f\n        /* \"#utility.yul\":3353:3360   */\n      not\n        /* \"#utility.yul\":3348:3350   */\n      0x1f\n        /* \"#utility.yul\":3341:3346   */\n      dup4\n        /* \"#utility.yul\":3337:3351   */\n      add\n        /* \"#utility.yul\":3333:3361   */\n      and\n        /* \"#utility.yul\":3323:3361   */\n      swap1\n      pop\n        /* \"#utility.yul\":3265:3367   */\n      swap2\n      swap1\n      pop\n      jump\t// out\n        /* \"#utility.yul\":3373:3730   */\n    tag_338:\n        /* \"#utility.yul\":3451:3454   */\n      0x00\n        /* \"#utility.yul\":3479:3518   */\n      tag_470\n        /* \"#utility.yul\":3512:3517   */\n      dup3\n        /* \"#utility.yul\":3479:3518   */\n      tag_334\n      jump\t// in\n    tag_470:\n        /* \"#utility.yul\":3534:3595   */\n      tag_471\n        /* \"#utility.yul\":3588:3594   */\n      dup2\n        /* \"#utility.yul\":3583:3586   */\n      dup6\n        /* \"#utility.yul\":3534:3595   */\n      tag_335\n      jump\t// in\n    tag_471:\n        /* \"#utility.yul\":3527:3595   */\n      swap4\n      pop\n        /* \"#utility.yul\":3604:3669   */\n      tag_472\n        /* \"#utility.yul\":3662:3668   */\n      dup2\n        /* \"#utility.yul\":3657:3660   */\n      dup6\n        /* \"#utility.yul\":3650:3654   */\n      0x20\n        /* \"#utility.yul\":3643:3648   */\n      dup7\n        /* \"#utility.yul\":3639:3655   */\n      add\n        /* \"#utility.yul\":3604:3669   */\n      tag_336\n      jump\t// in\n    tag_472:\n        /* \"#utility.yul\":3694:3723   */\n      tag_473\n        /* \"#utility.yul\":3716:3722   */\n      dup2\n        /* \"#utility.yul\":3694:3723   */\n      tag_337\n      jump\t// in\n    tag_473:\n        /* \"#utility.yul\":3689:3692   */\n      dup5\n        /* \"#utility.yul\":3685:3724   */\n      add\n        /* \"#utility.yul\":3678:3724   */\n      swap2\n      pop\n        /* \"#utility.yul\":3455:3730   */\n      pop\n        /* \"#utility.yul\":3373:3730   */\n      swap3\n      swap2\n      pop\n      pop\n      jump\t// out\n        /* \"#utility.yul\":3736:3932   */\n    tag_339:\n        /* \"#utility.yul\":3825:3835   */\n      0x00\n        /* \"#utility.yul\":3860:3926   */\n      tag_475\n        /* \"#utility.yul\":3922:3925   */\n      dup4\n        /* \"#utility.yul\":3914:3920   */\n      dup4\n        /* \"#utility.yul\":3860:3926   */\n      tag_338\n      jump\t// in\n    tag_475:\n        /* \"#utility.yul\":3846:3926   */\n      swap1\n      pop\n        /* \"#utility.yul\":3736:3932   */\n      swap3\n      swap2\n      pop\n      pop\n      jump\t// out\n        /* \"#utility.yul\":3938:4059   */\n    tag_340:\n        /* \"#utility.yul\":4016:4020   */\n      0x00\n        /* \"#utility.yul\":4048:4052   */\n      0x20\n        /* \"#utility.yul\":4043:4046   */\n      dup3\n        /* \"#utility.yul\":4039:4053   */\n      add\n        /* \"#utility.yul\":4031:4053   */\n      swap1\n      pop\n        /* \"#utility.yul\":3938:4059   */\n      swap2\n      swap1\n      pop\n      jump\t// out\n        /* \"#utility.yul\":4095:5054   */\n    tag_341:\n        /* \"#utility.yul\":4220:4223   */\n      0x00\n        /* \"#utility.yul\":4249:4311   */\n      tag_478\n        /* \"#utility.yul\":4305:4310   */\n      dup3\n        /* \"#utility.yul\":4249:4311   */\n      tag_331\n      jump\t// in\n    tag_478:\n        /* \"#utility.yul\":4327:4411   */\n      tag_479\n        /* \"#utility.yul\":4404:4410   */\n      dup2\n        /* \"#utility.yul\":4399:4402   */\n      dup6\n        /* \"#utility.yul\":4327:4411   */\n      tag_332\n      jump\t// in\n    tag_479:\n        /* \"#utility.yul\":4320:4411   */\n      swap4\n      pop\n        /* \"#utility.yul\":4437:4440   */\n      dup4\n        /* \"#utility.yul\":4482:4486   */\n      0x20\n        /* \"#utility.yul\":4474:4480   */\n      dup3\n        /* \"#utility.yul\":4470:4487   */\n      mul\n        /* \"#utility.yul\":4465:4468   */\n      dup6\n        /* \"#utility.yul\":4461:4488   */\n      add\n        /* \"#utility.yul\":4512:4576   */\n      tag_480\n        /* \"#utility.yul\":4570:4575   */\n      dup6\n        /* \"#utility.yul\":4512:4576   */\n      tag_333\n      jump\t// in\n    tag_480:\n        /* \"#utility.yul\":4599:4606   */\n      dup1\n        /* \"#utility.yul\":4630:4631   */\n      0x00\n        /* \"#utility.yul\":4615:5009   */\n    tag_481:\n        /* \"#utility.yul\":4640:4646   */\n      dup6\n        /* \"#utility.yul\":4637:4638   */\n      dup2\n        /* \"#utility.yul\":4634:4647   */\n      lt\n        /* \"#utility.yul\":4615:5009   */\n      iszero\n      tag_483\n      jumpi\n        /* \"#utility.yul\":4711:4720   */\n      dup5\n        /* \"#utility.yul\":4705:4709   */\n      dup5\n        /* \"#utility.yul\":4701:4721   */\n      sub\n        /* \"#utility.yul\":4696:4699   */\n      dup10\n        /* \"#utility.yul\":4689:4722   */\n      mstore\n        /* \"#utility.yul\":4762:4768   */\n      dup2\n        /* \"#utility.yul\":4756:4769   */\n      mload\n        /* \"#utility.yul\":4790:4874   */\n      tag_484\n        /* \"#utility.yul\":4869:4873   */\n      dup6\n        /* \"#utility.yul\":4854:4867   */\n      dup3\n        /* \"#utility.yul\":4790:4874   */\n      tag_339\n      jump\t// in\n    tag_484:\n        /* \"#utility.yul\":4782:4874   */\n      swap5\n      pop\n        /* \"#utility.yul\":4897:4965   */\n      tag_485\n        /* \"#utility.yul\":4958:4964   */\n      dup4\n        /* \"#utility.yul\":4897:4965   */\n      tag_340\n      jump\t// in\n    tag_485:\n        /* \"#utility.yul\":4887:4965   */\n      swap3\n      pop\n        /* \"#utility.yul\":4994:4998   */\n      0x20\n        /* \"#utility.yul\":4989:4992   */\n      dup11\n        /* \"#utility.yul\":4985:4999   */\n      add\n        /* \"#utility.yul\":4978:4999   */\n      swap10\n      pop\n        /* \"#utility.yul\":4675:5009   */\n      pop\n        /* \"#utility.yul\":4662:4663   */\n      0x01\n        /* \"#utility.yul\":4659:4660   */\n      dup2\n        /* \"#utility.yul\":4655:4664   */\n      add\n        /* \"#utility.yul\":4650:4664   */\n      swap1\n      pop\n        /* \"#utility.yul\":4615:5009   */\n      jump(tag_481)\n    tag_483:\n        /* \"#utility.yul\":4619:4633   */\n      pop\n        /* \"#utility.yul\":5025:5029   */\n      dup3\n        /* \"#utility.yul\":5018:5029   */\n      swap8\n      pop\n        /* \"#utility.yul\":5045:5048   */\n      dup8\n        /* \"#utility.yul\":5038:5048   */\n      swap6\n      pop\n        /* \"#utility.yul\":4225:5054   */\n      pop\n      pop\n      pop\n      pop\n      pop\n        /* \"#utility.yul\":4095:5054   */\n      swap3\n      swap2\n      pop\n      pop\n      jump\t// out\n        /* \"#utility.yul\":5060:5174   */\n    tag_342:\n        /* \"#utility.yul\":5135:5141   */\n      0x00\n        /* \"#utility.yul\":5163:5167   */\n      0x07\n        /* \"#utility.yul\":5153:5167   */\n      swap1\n      pop\n        /* \"#utility.yul\":5060:5174   */\n      swap2\n      swap1\n      pop\n      jump\t// out\n        /* \"#utility.yul\":5180:5323   */\n    tag_343:\n        /* \"#utility.yul\":5277:5288   */\n      0x00\n        /* \"#utility.yul\":5314:5317   */\n      dup2\n        /* \"#utility.yul\":5299:5317   */\n      swap1\n      pop\n        /* \"#utility.yul\":5180:5323   */\n      swap3\n      swap2\n      pop\n      pop\n      jump\t// out\n        /* \"#utility.yul\":5329:5437   */\n    tag_344:\n        /* \"#utility.yul\":5404:5408   */\n      0x00\n        /* \"#utility.yul\":5427:5430   */\n      dup2\n        /* \"#utility.yul\":5419:5430   */\n      swap1\n      pop\n        /* \"#utility.yul\":5329:5437   */\n      swap2\n      swap1\n      pop\n      jump\t// out\n        /* \"#utility.yul\":5443:5564   */\n    tag_345:\n        /* \"#utility.yul\":5521:5525   */\n      0x00\n        /* \"#utility.yul\":5553:5557   */\n      0x20\n        /* \"#utility.yul\":5548:5551   */\n      dup3\n        /* \"#utility.yul\":5544:5558   */\n      add\n        /* \"#utility.yul\":5536:5558   */\n      swap1\n      pop\n        /* \"#utility.yul\":5443:5564   */\n      swap2\n      swap1\n      pop\n      jump\t// out\n        /* \"#utility.yul\":5600:6559   */\n    tag_346:\n        /* \"#utility.yul\":5725:5728   */\n      0x00\n        /* \"#utility.yul\":5754:5816   */\n      tag_491\n        /* \"#utility.yul\":5810:5815   */\n      dup3\n        /* \"#utility.yul\":5754:5816   */\n      tag_342\n      jump\t// in\n    tag_491:\n        /* \"#utility.yul\":5832:5916   */\n      tag_492\n        /* \"#utility.yul\":5909:5915   */\n      dup2\n        /* \"#utility.yul\":5904:5907   */\n      dup6\n        /* \"#utility.yul\":5832:5916   */\n      tag_343\n      jump\t// in\n    tag_492:\n        /* \"#utility.yul\":5825:5916   */\n      swap4\n      pop\n        /* \"#utility.yul\":5942:5945   */\n      dup4\n        /* \"#utility.yul\":5987:5991   */\n      0x20\n        /* \"#utility.yul\":5979:5985   */\n      dup3\n        /* \"#utility.yul\":5975:5992   */\n      mul\n        /* \"#utility.yul\":5970:5973   */\n      dup6\n        /* \"#utility.yul\":5966:5993   */\n      add\n        /* \"#utility.yul\":6017:6081   */\n      tag_493\n        /* \"#utility.yul\":6075:6080   */\n      dup6\n        /* \"#utility.yul\":6017:6081   */\n      tag_344\n      jump\t// in\n    tag_493:\n        /* \"#utility.yul\":6104:6111   */\n      dup1\n        /* \"#utility.yul\":6135:6136   */\n      0x00\n        /* \"#utility.yul\":6120:6514   */\n    tag_494:\n        /* \"#utility.yul\":6145:6151   */\n      dup6\n        /* \"#utility.yul\":6142:6143   */\n      dup2\n        /* \"#utility.yul\":6139:6152   */\n      lt\n        /* \"#utility.yul\":6120:6514   */\n      iszero\n      tag_496\n      jumpi\n        /* \"#utility.yul\":6216:6225   */\n      dup5\n        /* \"#utility.yul\":6210:6214   */\n      dup5\n        /* \"#utility.yul\":6206:6226   */\n      sub\n        /* \"#utility.yul\":6201:6204   */\n      dup10\n        /* \"#utility.yul\":6194:6227   */\n      mstore\n        /* \"#utility.yul\":6267:6273   */\n      dup2\n        /* \"#utility.yul\":6261:6274   */\n      mload\n        /* \"#utility.yul\":6295:6379   */\n      tag_497\n        /* \"#utility.yul\":6374:6378   */\n      dup6\n        /* \"#utility.yul\":6359:6372   */\n      dup3\n        /* \"#utility.yul\":6295:6379   */\n      tag_339\n      jump\t// in\n    tag_497:\n        /* \"#utility.yul\":6287:6379   */\n      swap5\n      pop\n        /* \"#utility.yul\":6402:6470   */\n      tag_498\n        /* \"#utility.yul\":6463:6469   */\n      dup4\n        /* \"#utility.yul\":6402:6470   */\n      tag_345\n      jump\t// in\n    tag_498:\n        /* \"#utility.yul\":6392:6470   */\n      swap3\n      pop\n        /* \"#utility.yul\":6499:6503   */\n      0x20\n        /* \"#utility.yul\":6494:6497   */\n      dup11\n        /* \"#utility.yul\":6490:6504   */\n      add\n        /* \"#utility.yul\":6483:6504   */\n      swap10\n      pop\n        /* \"#utility.yul\":6180:6514   */\n      pop\n        /* \"#utility.yul\":6167:6168   */\n      0x01\n        /* \"#utility.yul\":6164:6165   */\n      dup2\n        /* \"#utility.yul\":6160:6169   */\n      add\n        /* \"#utility.yul\":6155:6169   */\n      swap1\n      pop\n        /* \"#utility.yul\":6120:6514   */\n      jump(tag_494)\n    tag_496:\n        /* \"#utility.yul\":6124:6138   */\n      pop\n        /* \"#utility.yul\":6530:6534   */\n      dup3\n        /* \"#utility.yul\":6523:6534   */\n      swap8\n      pop\n        /* \"#utility.yul\":6550:6553   */\n      dup8\n        /* \"#utility.yul\":6543:6553   */\n      swap6\n      pop\n        /* \"#utility.yul\":5730:6559   */\n      pop\n      pop\n      pop\n      pop\n      pop\n        /* \"#utility.yul\":5600:6559   */\n      swap3\n      swap2\n      pop\n      pop\n      jump\t// out\n        /* \"#utility.yul\":6565:6679   */\n    tag_347:\n        /* \"#utility.yul\":6640:6646   */\n      0x00\n        /* \"#utility.yul\":6668:6672   */\n      0x03\n        /* \"#utility.yul\":6658:6672   */\n      swap1\n      pop\n        /* \"#utility.yul\":6565:6679   */\n      swap2\n      swap1\n      pop\n      jump\t// out\n        /* \"#utility.yul\":6685:6828   */\n    tag_348:\n        /* \"#utility.yul\":6782:6793   */\n      0x00\n        /* \"#utility.yul\":6819:6822   */\n      dup2\n        /* \"#utility.yul\":6804:6822   */\n      swap1\n      pop\n        /* \"#utility.yul\":6685:6828   */\n      swap3\n      swap2\n      pop\n      pop\n      jump\t// out\n        /* \"#utility.yul\":6834:6942   */\n    tag_349:\n        /* \"#utility.yul\":6909:6913   */\n      0x00\n        /* \"#utility.yul\":6932:6935   */\n      dup2\n        /* \"#utility.yul\":6924:6935   */\n      swap1\n      pop\n        /* \"#utility.yul\":6834:6942   */\n      swap2\n      swap1\n      pop\n      jump\t// out\n        /* \"#utility.yul\":6948:7069   */\n    tag_350:\n        /* \"#utility.yul\":7026:7030   */\n      0x00\n        /* \"#utility.yul\":7058:7062   */\n      0x20\n        /* \"#utility.yul\":7053:7056   */\n      dup3\n        /* \"#utility.yul\":7049:7063   */\n      add\n        /* \"#utility.yul\":7041:7063   */\n      swap1\n      pop\n        /* \"#utility.yul\":6948:7069   */\n      swap2\n      swap1\n      pop\n      jump\t// out\n        /* \"#utility.yul\":7105:8064   */\n    tag_351:\n        /* \"#utility.yul\":7230:7233   */\n      0x00\n        /* \"#utility.yul\":7259:7321   */\n      tag_504\n        /* \"#utility.yul\":7315:7320   */\n      dup3\n        /* \"#utility.yul\":7259:7321   */\n      tag_347\n      jump\t// in\n    tag_504:\n        /* \"#utility.yul\":7337:7421   */\n      tag_505\n        /* \"#utility.yul\":7414:7420   */\n      dup2\n        /* \"#utility.yul\":7409:7412   */\n      dup6\n        /* \"#utility.yul\":7337:7421   */\n      tag_348\n      jump\t// in\n    tag_505:\n        /* \"#utility.yul\":7330:7421   */\n      swap4\n      pop\n        /* \"#utility.yul\":7447:7450   */\n      dup4\n        /* \"#utility.yul\":7492:7496   */\n      0x20\n        /* \"#utility.yul\":7484:7490   */\n      dup3\n        /* \"#utility.yul\":7480:7497   */\n      mul\n        /* \"#utility.yul\":7475:7478   */\n      dup6\n        /* \"#utility.yul\":7471:7498   */\n      add\n        /* \"#utility.yul\":7522:7586   */\n      tag_506\n        /* \"#utility.yul\":7580:7585   */\n      dup6\n        /* \"#utility.yul\":7522:7586   */\n      tag_349\n      jump\t// in\n    tag_506:\n        /* \"#utility.yul\":7609:7616   */\n      dup1\n        /* \"#utility.yul\":7640:7641   */\n      0x00\n        /* \"#utility.yul\":7625:8019   */\n    tag_507:\n        /* \"#utility.yul\":7650:7656   */\n      dup6\n        /* \"#utility.yul\":7647:7648   */\n      dup2\n        /* \"#utility.yul\":7644:7657   */\n      lt\n        /* \"#utility.yul\":7625:8019   */\n      iszero\n      tag_509\n      jumpi\n        /* \"#utility.yul\":7721:7730   */\n      dup5\n        /* \"#utility.yul\":7715:7719   */\n      dup5\n        /* \"#utility.yul\":7711:7731   */\n      sub\n        /* \"#utility.yul\":7706:7709   */\n      dup10\n        /* \"#utility.yul\":7699:7732   */\n      mstore\n        /* \"#utility.yul\":7772:7778   */\n      dup2\n        /* \"#utility.yul\":7766:7779   */\n      mload\n        /* \"#utility.yul\":7800:7884   */\n      tag_510\n        /* \"#utility.yul\":7879:7883   */\n      dup6\n        /* \"#utility.yul\":7864:7877   */\n      dup3\n        /* \"#utility.yul\":7800:7884   */\n      tag_339\n      jump\t// in\n    tag_510:\n        /* \"#utility.yul\":7792:7884   */\n      swap5\n      pop\n        /* \"#utility.yul\":7907:7975   */\n      tag_511\n        /* \"#utility.yul\":7968:7974   */\n      dup4\n        /* \"#utility.yul\":7907:7975   */\n      tag_350\n      jump\t// in\n    tag_511:\n        /* \"#utility.yul\":7897:7975   */\n      swap3\n      pop\n        /* \"#utility.yul\":8004:8008   */\n      0x20\n        /* \"#utility.yul\":7999:8002   */\n      dup11\n        /* \"#utility.yul\":7995:8009   */\n      add\n        /* \"#utility.yul\":7988:8009   */\n      swap10\n      pop\n        /* \"#utility.yul\":7685:8019   */\n      pop\n        /* \"#utility.yul\":7672:7673   */\n      0x01\n        /* \"#utility.yul\":7669:7670   */\n      dup2\n        /* \"#utility.yul\":7665:7674   */\n      add\n        /* \"#utility.yul\":7660:7674   */\n      swap1\n      pop\n        /* \"#utility.yul\":7625:8019   */\n      jump(tag_507)\n    tag_509:\n        /* \"#utility.yul\":7629:7643   */\n      pop\n        /* \"#utility.yul\":8035:8039   */\n      dup3\n        /* \"#utility.yul\":8028:8039   */\n      swap8\n      pop\n        /* \"#utility.yul\":8055:8058   */\n      dup8\n        /* \"#utility.yul\":8048:8058   */\n      swap6\n      pop\n        /* \"#utility.yul\":7235:8064   */\n      pop\n      pop\n      pop\n      pop\n      pop\n        /* \"#utility.yul\":7105:8064   */\n      swap3\n      swap2\n      pop\n      pop\n      jump\t// out\n        /* \"#utility.yul\":8070:8184   */\n    tag_352:\n        /* \"#utility.yul\":8145:8151   */\n      0x00\n        /* \"#utility.yul\":8173:8177   */\n      0x02\n        /* \"#utility.yul\":8163:8177   */\n      swap1\n      pop\n        /* \"#utility.yul\":8070:8184   */\n      swap2\n      swap1\n      pop\n      jump\t// out\n        /* \"#utility.yul\":8190:8333   */\n    tag_353:\n        /* \"#utility.yul\":8287:8298   */\n      0x00\n        /* \"#utility.yul\":8324:8327   */\n      dup2\n        /* \"#utility.yul\":8309:8327   */\n      swap1\n      pop\n        /* \"#utility.yul\":8190:8333   */\n      swap3\n      swap2\n      pop\n      pop\n      jump\t// out\n        /* \"#utility.yul\":8339:8447   */\n    tag_354:\n        /* \"#utility.yul\":8414:8418   */\n      0x00\n        /* \"#utility.yul\":8437:8440   */\n      dup2\n        /* \"#utility.yul\":8429:8440   */\n      swap1\n      pop\n        /* \"#utility.yul\":8339:8447   */\n      swap2\n      swap1\n      pop\n      jump\t// out\n        /* \"#utility.yul\":8453:8574   */\n    tag_355:\n        /* \"#utility.yul\":8531:8535   */\n      0x00\n        /* \"#utility.yul\":8563:8567   */\n      0x20\n        /* \"#utility.yul\":8558:8561   */\n      dup3\n        /* \"#utility.yul\":8554:8568   */\n      add\n        /* \"#utility.yul\":8546:8568   */\n      swap1\n      pop\n        /* \"#utility.yul\":8453:8574   */\n      swap2\n      swap1\n      pop\n      jump\t// out\n        /* \"#utility.yul\":8610:9569   */\n    tag_356:\n        /* \"#utility.yul\":8735:8738   */\n      0x00\n        /* \"#utility.yul\":8764:8826   */\n      tag_517\n        /* \"#utility.yul\":8820:8825   */\n      dup3\n        /* \"#utility.yul\":8764:8826   */\n      tag_352\n      jump\t// in\n    tag_517:\n        /* \"#utility.yul\":8842:8926   */\n      tag_518\n        /* \"#utility.yul\":8919:8925   */\n      dup2\n        /* \"#utility.yul\":8914:8917   */\n      dup6\n        /* \"#utility.yul\":8842:8926   */\n      tag_353\n      jump\t// in\n    tag_518:\n        /* \"#utility.yul\":8835:8926   */\n      swap4\n      pop\n        /* \"#utility.yul\":8952:8955   */\n      dup4\n        /* \"#utility.yul\":8997:9001   */\n      0x20\n        /* \"#utility.yul\":8989:8995   */\n      dup3\n        /* \"#utility.yul\":8985:9002   */\n      mul\n        /* \"#utility.yul\":8980:8983   */\n      dup6\n        /* \"#utility.yul\":8976:9003   */\n      add\n        /* \"#utility.yul\":9027:9091   */\n      tag_519\n        /* \"#utility.yul\":9085:9090   */\n      dup6\n        /* \"#utility.yul\":9027:9091   */\n      tag_354\n      jump\t// in\n    tag_519:\n        /* \"#utility.yul\":9114:9121   */\n      dup1\n        /* \"#utility.yul\":9145:9146   */\n      0x00\n        /* \"#utility.yul\":9130:9524   */\n    tag_520:\n        /* \"#utility.yul\":9155:9161   */\n      dup6\n        /* \"#utility.yul\":9152:9153   */\n      dup2\n        /* \"#utility.yul\":9149:9162   */\n      lt\n        /* \"#utility.yul\":9130:9524   */\n      iszero\n      tag_522\n      jumpi\n        /* \"#utility.yul\":9226:9235   */\n      dup5\n        /* \"#utility.yul\":9220:9224   */\n      dup5\n        /* \"#utility.yul\":9216:9236   */\n      sub\n        /* \"#utility.yul\":9211:9214   */\n      dup10\n        /* \"#utility.yul\":9204:9237   */\n      mstore\n        /* \"#utility.yul\":9277:9283   */\n      dup2\n        /* \"#utility.yul\":9271:9284   */\n      mload\n        /* \"#utility.yul\":9305:9389   */\n      tag_523\n        /* \"#utility.yul\":9384:9388   */\n      dup6\n        /* \"#utility.yul\":9369:9382   */\n      dup3\n        /* \"#utility.yul\":9305:9389   */\n      tag_339\n      jump\t// in\n    tag_523:\n        /* \"#utility.yul\":9297:9389   */\n      swap5\n      pop\n        /* \"#utility.yul\":9412:9480   */\n      tag_524\n        /* \"#utility.yul\":9473:9479   */\n      dup4\n        /* \"#utility.yul\":9412:9480   */\n      tag_355\n      jump\t// in\n    tag_524:\n        /* \"#utility.yul\":9402:9480   */\n      swap3\n      pop\n        /* \"#utility.yul\":9509:9513   */\n      0x20\n        /* \"#utility.yul\":9504:9507   */\n      dup11\n        /* \"#utility.yul\":9500:9514   */\n      add\n        /* \"#utility.yul\":9493:9514   */\n      swap10\n      pop\n        /* \"#utility.yul\":9190:9524   */\n      pop\n        /* \"#utility.yul\":9177:9178   */\n      0x01\n        /* \"#utility.yul\":9174:9175   */\n      dup2\n        /* \"#utility.yul\":9170:9179   */\n      add\n        /* \"#utility.yul\":9165:9179   */\n      swap1\n      pop\n        /* \"#utility.yul\":9130:9524   */\n      jump(tag_520)\n    tag_522:\n        /* \"#utility.yul\":9134:9148   */\n      pop\n        /* \"#utility.yul\":9540:9544   */\n      dup3\n        /* \"#utility.yul\":9533:9544   */\n      swap8\n      pop\n        /* \"#utility.yul\":9560:9563   */\n      dup8\n        /* \"#utility.yul\":9553:9563   */\n      swap6\n      pop\n        /* \"#utility.yul\":8740:9569   */\n      pop\n      pop\n      pop\n      pop\n      pop\n        /* \"#utility.yul\":8610:9569   */\n      swap3\n      swap2\n      pop\n      pop\n      jump\t// out\n        /* \"#utility.yul\":9643:11318   */\n    tag_357:\n        /* \"#utility.yul\":9762:9765   */\n      0x00\n        /* \"#utility.yul\":9798:9802   */\n      0xa0\n        /* \"#utility.yul\":9793:9796   */\n      dup4\n        /* \"#utility.yul\":9789:9803   */\n      add\n        /* \"#utility.yul\":9892:9896   */\n      0x00\n        /* \"#utility.yul\":9885:9890   */\n      dup4\n        /* \"#utility.yul\":9881:9897   */\n      add\n        /* \"#utility.yul\":9875:9898   */\n      mload\n        /* \"#utility.yul\":9945:9948   */\n      dup5\n        /* \"#utility.yul\":9939:9943   */\n      dup3\n        /* \"#utility.yul\":9935:9949   */\n      sub\n        /* \"#utility.yul\":9928:9932   */\n      0x00\n        /* \"#utility.yul\":9923:9926   */\n      dup7\n        /* \"#utility.yul\":9919:9933   */\n      add\n        /* \"#utility.yul\":9912:9950   */\n      mstore\n        /* \"#utility.yul\":9971:10090   */\n      tag_526\n        /* \"#utility.yul\":10085:10089   */\n      dup3\n        /* \"#utility.yul\":10071:10083   */\n      dup3\n        /* \"#utility.yul\":9971:10090   */\n      tag_341\n      jump\t// in\n    tag_526:\n        /* \"#utility.yul\":9963:10090   */\n      swap2\n      pop\n        /* \"#utility.yul\":9813:10101   */\n      pop\n        /* \"#utility.yul\":10189:10193   */\n      0x20\n        /* \"#utility.yul\":10182:10187   */\n      dup4\n        /* \"#utility.yul\":10178:10194   */\n      add\n        /* \"#utility.yul\":10172:10195   */\n      mload\n        /* \"#utility.yul\":10242:10245   */\n      dup5\n        /* \"#utility.yul\":10236:10240   */\n      dup3\n        /* \"#utility.yul\":10232:10246   */\n      sub\n        /* \"#utility.yul\":10225:10229   */\n      0x20\n        /* \"#utility.yul\":10220:10223   */\n      dup7\n        /* \"#utility.yul\":10216:10230   */\n      add\n        /* \"#utility.yul\":10209:10247   */\n      mstore\n        /* \"#utility.yul\":10268:10387   */\n      tag_527\n        /* \"#utility.yul\":10382:10386   */\n      dup3\n        /* \"#utility.yul\":10368:10380   */\n      dup3\n        /* \"#utility.yul\":10268:10387   */\n      tag_346\n      jump\t// in\n    tag_527:\n        /* \"#utility.yul\":10260:10387   */\n      swap2\n      pop\n        /* \"#utility.yul\":10111:10398   */\n      pop\n        /* \"#utility.yul\":10490:10494   */\n      0x40\n        /* \"#utility.yul\":10483:10488   */\n      dup4\n        /* \"#utility.yul\":10479:10495   */\n      add\n        /* \"#utility.yul\":10473:10496   */\n      mload\n        /* \"#utility.yul\":10543:10546   */\n      dup5\n        /* \"#utility.yul\":10537:10541   */\n      dup3\n        /* \"#utility.yul\":10533:10547   */\n      sub\n        /* \"#utility.yul\":10526:10530   */\n      0x40\n        /* \"#utility.yul\":10521:10524   */\n      dup7\n        /* \"#utility.yul\":10517:10531   */\n      add\n        /* \"#utility.yul\":10510:10548   */\n      mstore\n        /* \"#utility.yul\":10569:10688   */\n      tag_528\n        /* \"#utility.yul\":10683:10687   */\n      dup3\n        /* \"#utility.yul\":10669:10681   */\n      dup3\n        /* \"#utility.yul\":10569:10688   */\n      tag_351\n      jump\t// in\n    tag_528:\n        /* \"#utility.yul\":10561:10688   */\n      swap2\n      pop\n        /* \"#utility.yul\":10408:10699   */\n      pop\n        /* \"#utility.yul\":10785:10789   */\n      0x60\n        /* \"#utility.yul\":10778:10783   */\n      dup4\n        /* \"#utility.yul\":10774:10790   */\n      add\n        /* \"#utility.yul\":10768:10791   */\n      mload\n        /* \"#utility.yul\":10838:10841   */\n      dup5\n        /* \"#utility.yul\":10832:10836   */\n      dup3\n        /* \"#utility.yul\":10828:10842   */\n      sub\n        /* \"#utility.yul\":10821:10825   */\n      0x60\n        /* \"#utility.yul\":10816:10819   */\n      dup7\n        /* \"#utility.yul\":10812:10826   */\n      add\n        /* \"#utility.yul\":10805:10843   */\n      mstore\n        /* \"#utility.yul\":10864:10983   */\n      tag_529\n        /* \"#utility.yul\":10978:10982   */\n      dup3\n        /* \"#utility.yul\":10964:10976   */\n      dup3\n        /* \"#utility.yul\":10864:10983   */\n      tag_356\n      jump\t// in\n    tag_529:\n        /* \"#utility.yul\":10856:10983   */\n      swap2\n      pop\n        /* \"#utility.yul\":10709:10994   */\n      pop\n        /* \"#utility.yul\":11082:11086   */\n      0x80\n        /* \"#utility.yul\":11075:11080   */\n      dup4\n        /* \"#utility.yul\":11071:11087   */\n      add\n        /* \"#utility.yul\":11065:11088   */\n      mload\n        /* \"#utility.yul\":11135:11138   */\n      dup5\n        /* \"#utility.yul\":11129:11133   */\n      dup3\n        /* \"#utility.yul\":11125:11139   */\n      sub\n        /* \"#utility.yul\":11118:11122   */\n      0x80\n        /* \"#utility.yul\":11113:11116   */\n      dup7\n        /* \"#utility.yul\":11109:11123   */\n      add\n        /* \"#utility.yul\":11102:11140   */\n      mstore\n        /* \"#utility.yul\":11161:11280   */\n      tag_530\n        /* \"#utility.yul\":11275:11279   */\n      dup3\n        /* \"#utility.yul\":11261:11273   */\n      dup3\n        /* \"#utility.yul\":11161:11280   */\n      tag_356\n      jump\t// in\n    tag_530:\n        /* \"#utility.yul\":11153:11280   */\n      swap2\n      pop\n        /* \"#utility.yul\":11004:11291   */\n      pop\n        /* \"#utility.yul\":11308:11312   */\n      dup1\n        /* \"#utility.yul\":11301:11312   */\n      swap2\n      pop\n        /* \"#utility.yul\":9767:11318   */\n      pop\n        /* \"#utility.yul\":9643:11318   */\n      swap3\n      swap2\n      pop\n      pop\n      jump\t// out\n        /* \"#utility.yul\":11324:11697   */\n    tag_34:\n        /* \"#utility.yul\":11467:11471   */\n      0x00\n        /* \"#utility.yul\":11505:11507   */\n      0x20\n        /* \"#utility.yul\":11494:11503   */\n      dup3\n        /* \"#utility.yul\":11490:11508   */\n      add\n        /* \"#utility.yul\":11482:11508   */\n      swap1\n      pop\n        /* \"#utility.yul\":11554:11563   */\n      dup2\n        /* \"#utility.yul\":11548:11552   */\n      dup2\n        /* \"#utility.yul\":11544:11564   */\n      sub\n        /* \"#utility.yul\":11540:11541   */\n      0x00\n        /* \"#utility.yul\":11529:11538   */\n      dup4\n        /* \"#utility.yul\":11525:11542   */\n      add\n        /* \"#utility.yul\":11518:11565   */\n      mstore\n        /* \"#utility.yul\":11582:11690   */\n      tag_532\n        /* \"#utility.yul\":11685:11689   */\n      dup2\n        /* \"#utility.yul\":11676:11682   */\n      dup5\n        /* \"#utility.yul\":11582:11690   */\n      tag_357\n      jump\t// in\n    tag_532:\n        /* \"#utility.yul\":11574:11690   */\n      swap1\n      pop\n        /* \"#utility.yul\":11324:11697   */\n      swap3\n      swap2\n      pop\n      pop\n      jump\t// out\n        /* \"#utility.yul\":11703:11820   */\n    tag_358:\n        /* \"#utility.yul\":11812:11813   */\n      0x00\n        /* \"#utility.yul\":11809:11810   */\n      dup1\n        /* \"#utility.yul\":11802:11814   */\n      revert\n        /* \"#utility.yul\":11826:12006   */\n    tag_252:\n        /* \"#utility.yul\":11874:11951   */\n      0x4e487b7100000000000000000000000000000000000000000000000000000000\n        /* \"#utility.yul\":11871:11872   */\n      0x00\n        /* \"#utility.yul\":11864:11952   */\n      mstore\n        /* \"#utility.yul\":11971:11975   */\n      0x41\n        /* \"#utility.yul\":11968:11969   */\n      0x04\n        /* \"#utility.yul\":11961:11976   */\n      mstore\n        /* \"#utility.yul\":11995:11999   */\n      0x24\n        /* \"#utility.yul\":11992:11993   */\n      0x00\n        /* \"#utility.yul\":11985:12000   */\n      revert\n        /* \"#utility.yul\":12012:12293   */\n    tag_359:\n        /* \"#utility.yul\":12095:12122   */\n      tag_536\n        /* \"#utility.yul\":12117:12121   */\n      dup3\n        /* \"#utility.yul\":12095:12122   */\n      tag_337\n      jump\t// in\n    tag_536:\n        /* \"#utility.yul\":12087:12093   */\n      dup2\n        /* \"#utility.yul\":12083:12123   */\n      add\n        /* \"#utility.yul\":12225:12231   */\n      dup2\n        /* \"#utility.yul\":12213:12223   */\n      dup2\n        /* \"#utility.yul\":12210:12232   */\n      lt\n        /* \"#utility.yul\":12189:12207   */\n      0xffffffffffffffff\n        /* \"#utility.yul\":12177:12187   */\n      dup3\n        /* \"#utility.yul\":12174:12208   */\n      gt\n        /* \"#utility.yul\":12171:12233   */\n      or\n        /* \"#utility.yul\":12168:12256   */\n      iszero\n      tag_537\n      jumpi\n        /* \"#utility.yul\":12236:12254   */\n      tag_538\n      tag_252\n      jump\t// in\n    tag_538:\n        /* \"#utility.yul\":12168:12256   */\n    tag_537:\n        /* \"#utility.yul\":12276:12286   */\n      dup1\n        /* \"#utility.yul\":12272:12274   */\n      0x40\n        /* \"#utility.yul\":12265:12287   */\n      mstore\n        /* \"#utility.yul\":12055:12293   */\n      pop\n        /* \"#utility.yul\":12012:12293   */\n      pop\n      pop\n      jump\t// out\n        /* \"#utility.yul\":12299:12428   */\n    tag_360:\n        /* \"#utility.yul\":12333:12339   */\n      0x00\n        /* \"#utility.yul\":12360:12380   */\n      tag_540\n      tag_319\n      jump\t// in\n    tag_540:\n        /* \"#utility.yul\":12350:12380   */\n      swap1\n      pop\n        /* \"#utility.yul\":12389:12422   */\n      tag_541\n        /* \"#utility.yul\":12417:12421   */\n      dup3\n        /* \"#utility.yul\":12409:12415   */\n      dup3\n        /* \"#utility.yul\":12389:12422   */\n      tag_359\n      jump\t// in\n    tag_541:\n        /* \"#utility.yul\":12299:12428   */\n      swap2\n      swap1\n      pop\n      jump\t// out\n        /* \"#utility.yul\":12434:12693   */\n    tag_361:\n        /* \"#utility.yul\":12519:12523   */\n      0x00\n        /* \"#utility.yul\":12609:12627   */\n      0xffffffffffffffff\n        /* \"#utility.yul\":12601:12607   */\n      dup3\n        /* \"#utility.yul\":12598:12628   */\n      gt\n        /* \"#utility.yul\":12595:12651   */\n      iszero\n      tag_543\n      jumpi\n        /* \"#utility.yul\":12631:12649   */\n      tag_544\n      tag_252\n      jump\t// in\n    tag_544:\n        /* \"#utility.yul\":12595:12651   */\n    tag_543:\n        /* \"#utility.yul\":12681:12685   */\n      0x20\n        /* \"#utility.yul\":12673:12679   */\n      dup3\n        /* \"#utility.yul\":12669:12686   */\n      mul\n        /* \"#utility.yul\":12661:12686   */\n      swap1\n      pop\n        /* \"#utility.yul\":12434:12693   */\n      swap2\n      swap1\n      pop\n      jump\t// out\n        /* \"#utility.yul\":12699:12816   */\n    tag_362:\n        /* \"#utility.yul\":12808:12809   */\n      0x00\n        /* \"#utility.yul\":12805:12806   */\n      dup1\n        /* \"#utility.yul\":12798:12810   */\n      revert\n        /* \"#utility.yul\":12822:12939   */\n    tag_363:\n        /* \"#utility.yul\":12931:12932   */\n      0x00\n        /* \"#utility.yul\":12928:12929   */\n      dup1\n        /* \"#utility.yul\":12921:12933   */\n      revert\n        /* \"#utility.yul\":12945:13253   */\n    tag_364:\n        /* \"#utility.yul\":13007:13011   */\n      0x00\n        /* \"#utility.yul\":13097:13115   */\n      0xffffffffffffffff\n        /* \"#utility.yul\":13089:13095   */\n      dup3\n        /* \"#utility.yul\":13086:13116   */\n      gt\n        /* \"#utility.yul\":13083:13139   */\n      iszero\n      tag_548\n      jumpi\n        /* \"#utility.yul\":13119:13137   */\n      tag_549\n      tag_252\n      jump\t// in\n    tag_549:\n        /* \"#utility.yul\":13083:13139   */\n    tag_548:\n        /* \"#utility.yul\":13157:13186   */\n      tag_550\n        /* \"#utility.yul\":13179:13185   */\n      dup3\n        /* \"#utility.yul\":13157:13186   */\n      tag_337\n      jump\t// in\n    tag_550:\n        /* \"#utility.yul\":13149:13186   */\n      swap1\n      pop\n        /* \"#utility.yul\":13241:13245   */\n      0x20\n        /* \"#utility.yul\":13235:13239   */\n      dup2\n        /* \"#utility.yul\":13231:13246   */\n      add\n        /* \"#utility.yul\":13223:13246   */\n      swap1\n      pop\n        /* \"#utility.yul\":12945:13253   */\n      swap2\n      swap1\n      pop\n      jump\t// out\n        /* \"#utility.yul\":13259:13405   */\n    tag_365:\n        /* \"#utility.yul\":13356:13362   */\n      dup3\n        /* \"#utility.yul\":13351:13354   */\n      dup2\n        /* \"#utility.yul\":13346:13349   */\n      dup4\n        /* \"#utility.yul\":13333:13363   */\n      calldatacopy\n        /* \"#utility.yul\":13397:13398   */\n      0x00\n        /* \"#utility.yul\":13388:13394   */\n      dup4\n        /* \"#utility.yul\":13383:13386   */\n      dup4\n        /* \"#utility.yul\":13379:13395   */\n      add\n        /* \"#utility.yul\":13372:13399   */\n      mstore\n        /* \"#utility.yul\":13259:13405   */\n      pop\n      pop\n      pop\n      jump\t// out\n        /* \"#utility.yul\":13411:13836   */\n    tag_366:\n        /* \"#utility.yul\":13489:13494   */\n      0x00\n        /* \"#utility.yul\":13514:13580   */\n      tag_553\n        /* \"#utility.yul\":13530:13579   */\n      tag_554\n        /* \"#utility.yul\":13572:13578   */\n      dup5\n        /* \"#utility.yul\":13530:13579   */\n      tag_364\n      jump\t// in\n    tag_554:\n        /* \"#utility.yul\":13514:13580   */\n      tag_360\n      jump\t// in\n    tag_553:\n        /* \"#utility.yul\":13505:13580   */\n      swap1\n      pop\n        /* \"#utility.yul\":13603:13609   */\n      dup3\n        /* \"#utility.yul\":13596:13601   */\n      dup2\n        /* \"#utility.yul\":13589:13610   */\n      mstore\n        /* \"#utility.yul\":13641:13645   */\n      0x20\n        /* \"#utility.yul\":13634:13639   */\n      dup2\n        /* \"#utility.yul\":13630:13646   */\n      add\n        /* \"#utility.yul\":13679:13682   */\n      dup5\n        /* \"#utility.yul\":13670:13676   */\n      dup5\n        /* \"#utility.yul\":13665:13668   */\n      dup5\n        /* \"#utility.yul\":13661:13677   */\n      add\n        /* \"#utility.yul\":13658:13683   */\n      gt\n        /* \"#utility.yul\":13655:13767   */\n      iszero\n      tag_555\n      jumpi\n        /* \"#utility.yul\":13686:13765   */\n      tag_556\n      tag_363\n      jump\t// in\n    tag_556:\n        /* \"#utility.yul\":13655:13767   */\n    tag_555:\n        /* \"#utility.yul\":13776:13830   */\n      tag_557\n        /* \"#utility.yul\":13823:13829   */\n      dup5\n        /* \"#utility.yul\":13818:13821   */\n      dup3\n        /* \"#utility.yul\":13813:13816   */\n      dup6\n        /* \"#utility.yul\":13776:13830   */\n      tag_365\n      jump\t// in\n    tag_557:\n        /* \"#utility.yul\":13495:13836   */\n      pop\n        /* \"#utility.yul\":13411:13836   */\n      swap4\n      swap3\n      pop\n      pop\n      pop\n      jump\t// out\n        /* \"#utility.yul\":13856:14196   */\n    tag_367:\n        /* \"#utility.yul\":13912:13917   */\n      0x00\n        /* \"#utility.yul\":13961:13964   */\n      dup3\n        /* \"#utility.yul\":13954:13958   */\n      0x1f\n        /* \"#utility.yul\":13946:13952   */\n      dup4\n        /* \"#utility.yul\":13942:13959   */\n      add\n        /* \"#utility.yul\":13938:13965   */\n      slt\n        /* \"#utility.yul\":13928:14050   */\n      tag_559\n      jumpi\n        /* \"#utility.yul\":13969:14048   */\n      tag_560\n      tag_358\n      jump\t// in\n    tag_560:\n        /* \"#utility.yul\":13928:14050   */\n    tag_559:\n        /* \"#utility.yul\":14086:14092   */\n      dup2\n        /* \"#utility.yul\":14073:14093   */\n      calldataload\n        /* \"#utility.yul\":14111:14190   */\n      tag_561\n        /* \"#utility.yul\":14186:14189   */\n      dup5\n        /* \"#utility.yul\":14178:14184   */\n      dup3\n        /* \"#utility.yul\":14171:14175   */\n      0x20\n        /* \"#utility.yul\":14163:14169   */\n      dup7\n        /* \"#utility.yul\":14159:14176   */\n      add\n        /* \"#utility.yul\":14111:14190   */\n      tag_366\n      jump\t// in\n    tag_561:\n        /* \"#utility.yul\":14102:14190   */\n      swap2\n      pop\n        /* \"#utility.yul\":13918:14196   */\n      pop\n        /* \"#utility.yul\":13856:14196   */\n      swap3\n      swap2\n      pop\n      pop\n      jump\t// out\n        /* \"#utility.yul\":14219:15097   */\n    tag_368:\n        /* \"#utility.yul\":14323:14328   */\n      0x00\n        /* \"#utility.yul\":14348:14437   */\n      tag_563\n        /* \"#utility.yul\":14364:14436   */\n      tag_564\n        /* \"#utility.yul\":14429:14435   */\n      dup5\n        /* \"#utility.yul\":14364:14436   */\n      tag_361\n      jump\t// in\n    tag_564:\n        /* \"#utility.yul\":14348:14437   */\n      tag_360\n      jump\t// in\n    tag_563:\n        /* \"#utility.yul\":14339:14437   */\n      swap1\n      pop\n        /* \"#utility.yul\":14457:14462   */\n      dup1\n        /* \"#utility.yul\":14510:14514   */\n      0x20\n        /* \"#utility.yul\":14502:14508   */\n      dup5\n        /* \"#utility.yul\":14498:14515   */\n      mul\n        /* \"#utility.yul\":14490:14496   */\n      dup4\n        /* \"#utility.yul\":14486:14516   */\n      add\n        /* \"#utility.yul\":14539:14542   */\n      dup6\n        /* \"#utility.yul\":14531:14537   */\n      dup2\n        /* \"#utility.yul\":14528:14543   */\n      gt\n        /* \"#utility.yul\":14525:14647   */\n      iszero\n      tag_565\n      jumpi\n        /* \"#utility.yul\":14558:14637   */\n      tag_566\n      tag_362\n      jump\t// in\n    tag_566:\n        /* \"#utility.yul\":14525:14647   */\n    tag_565:\n        /* \"#utility.yul\":14673:14679   */\n      dup4\n        /* \"#utility.yul\":14656:15091   */\n    tag_567:\n        /* \"#utility.yul\":14690:14696   */\n      dup2\n        /* \"#utility.yul\":14685:14688   */\n      dup2\n        /* \"#utility.yul\":14682:14697   */\n      lt\n        /* \"#utility.yul\":14656:15091   */\n      iszero\n      tag_569\n      jumpi\n        /* \"#utility.yul\":14779:14782   */\n      dup1\n        /* \"#utility.yul\":14766:14783   */\n      calldataload\n        /* \"#utility.yul\":14815:14833   */\n      0xffffffffffffffff\n        /* \"#utility.yul\":14802:14813   */\n      dup2\n        /* \"#utility.yul\":14799:14834   */\n      gt\n        /* \"#utility.yul\":14796:14918   */\n      iszero\n      tag_570\n      jumpi\n        /* \"#utility.yul\":14837:14916   */\n      tag_571\n      tag_358\n      jump\t// in\n    tag_571:\n        /* \"#utility.yul\":14796:14918   */\n    tag_570:\n        /* \"#utility.yul\":14961:14972   */\n      dup1\n        /* \"#utility.yul\":14953:14959   */\n      dup7\n        /* \"#utility.yul\":14949:14973   */\n      add\n        /* \"#utility.yul\":14999:15046   */\n      tag_572\n        /* \"#utility.yul\":15042:15045   */\n      dup10\n        /* \"#utility.yul\":15030:15040   */\n      dup3\n        /* \"#utility.yul\":14999:15046   */\n      tag_367\n      jump\t// in\n    tag_572:\n        /* \"#utility.yul\":14994:14997   */\n      dup6\n        /* \"#utility.yul\":14987:15047   */\n      mstore\n        /* \"#utility.yul\":15076:15080   */\n      0x20\n        /* \"#utility.yul\":15071:15074   */\n      dup6\n        /* \"#utility.yul\":15067:15081   */\n      add\n        /* \"#utility.yul\":15060:15081   */\n      swap5\n      pop\n        /* \"#utility.yul\":14732:15091   */\n      pop\n      pop\n        /* \"#utility.yul\":14716:14720   */\n      0x20\n        /* \"#utility.yul\":14711:14714   */\n      dup2\n        /* \"#utility.yul\":14707:14721   */\n      add\n        /* \"#utility.yul\":14700:14721   */\n      swap1\n      pop\n        /* \"#utility.yul\":14656:15091   */\n      jump(tag_567)\n    tag_569:\n        /* \"#utility.yul\":14660:14681   */\n      pop\n        /* \"#utility.yul\":14329:15097   */\n      pop\n      pop\n        /* \"#utility.yul\":14219:15097   */\n      swap4\n      swap3\n      pop\n      pop\n      pop\n      jump\t// out\n        /* \"#utility.yul\":15120:15479   */\n    tag_369:\n        /* \"#utility.yul\":15199:15204   */\n      0x00\n        /* \"#utility.yul\":15248:15251   */\n      dup3\n        /* \"#utility.yul\":15241:15245   */\n      0x1f\n        /* \"#utility.yul\":15233:15239   */\n      dup4\n        /* \"#utility.yul\":15229:15246   */\n      add\n        /* \"#utility.yul\":15225:15252   */\n      slt\n        /* \"#utility.yul\":15215:15337   */\n      tag_574\n      jumpi\n        /* \"#utility.yul\":15256:15335   */\n      tag_575\n      tag_358\n      jump\t// in\n    tag_575:\n        /* \"#utility.yul\":15215:15337   */\n    tag_574:\n        /* \"#utility.yul\":15360:15364   */\n      0x02\n        /* \"#utility.yul\":15382:15473   */\n      tag_576\n        /* \"#utility.yul\":15469:15472   */\n      dup5\n        /* \"#utility.yul\":15461:15467   */\n      dup3\n        /* \"#utility.yul\":15453:15459   */\n      dup6\n        /* \"#utility.yul\":15382:15473   */\n      tag_368\n      jump\t// in\n    tag_576:\n        /* \"#utility.yul\":15373:15473   */\n      swap2\n      pop\n        /* \"#utility.yul\":15205:15479   */\n      pop\n        /* \"#utility.yul\":15120:15479   */\n      swap3\n      swap2\n      pop\n      pop\n      jump\t// out\n        /* \"#utility.yul\":15485:16185   */\n    tag_37:\n        /* \"#utility.yul\":15586:15592   */\n      0x00\n        /* \"#utility.yul\":15594:15600   */\n      dup1\n        /* \"#utility.yul\":15643:15645   */\n      0x40\n        /* \"#utility.yul\":15631:15640   */\n      dup4\n        /* \"#utility.yul\":15622:15629   */\n      dup6\n        /* \"#utility.yul\":15618:15641   */\n      sub\n        /* \"#utility.yul\":15614:15646   */\n      slt\n        /* \"#utility.yul\":15611:15730   */\n      iszero\n      tag_578\n      jumpi\n        /* \"#utility.yul\":15649:15728   */\n      tag_579\n      tag_320\n      jump\t// in\n    tag_579:\n        /* \"#utility.yul\":15611:15730   */\n    tag_578:\n        /* \"#utility.yul\":15769:15770   */\n      0x00\n        /* \"#utility.yul\":15794:15847   */\n      tag_580\n        /* \"#utility.yul\":15839:15846   */\n      dup6\n        /* \"#utility.yul\":15830:15836   */\n      dup3\n        /* \"#utility.yul\":15819:15828   */\n      dup7\n        /* \"#utility.yul\":15815:15837   */\n      add\n        /* \"#utility.yul\":15794:15847   */\n      tag_330\n      jump\t// in\n    tag_580:\n        /* \"#utility.yul\":15784:15847   */\n      swap3\n      pop\n        /* \"#utility.yul\":15740:15857   */\n      pop\n        /* \"#utility.yul\":15924:15926   */\n      0x20\n        /* \"#utility.yul\":15913:15922   */\n      dup4\n        /* \"#utility.yul\":15909:15927   */\n      add\n        /* \"#utility.yul\":15896:15928   */\n      calldataload\n        /* \"#utility.yul\":15955:15973   */\n      0xffffffffffffffff\n        /* \"#utility.yul\":15947:15953   */\n      dup2\n        /* \"#utility.yul\":15944:15974   */\n      gt\n        /* \"#utility.yul\":15941:16058   */\n      iszero\n      tag_581\n      jumpi\n        /* \"#utility.yul\":15977:16056   */\n      tag_582\n      tag_321\n      jump\t// in\n    tag_582:\n        /* \"#utility.yul\":15941:16058   */\n    tag_581:\n        /* \"#utility.yul\":16082:16168   */\n      tag_583\n        /* \"#utility.yul\":16160:16167   */\n      dup6\n        /* \"#utility.yul\":16151:16157   */\n      dup3\n        /* \"#utility.yul\":16140:16149   */\n      dup7\n        /* \"#utility.yul\":16136:16158   */\n      add\n        /* \"#utility.yul\":16082:16168   */\n      tag_369\n      jump\t// in\n    tag_583:\n        /* \"#utility.yul\":16072:16168   */\n      swap2\n      pop\n        /* \"#utility.yul\":15867:16178   */\n      pop\n        /* \"#utility.yul\":15485:16185   */\n      swap3\n      pop\n      swap3\n      swap1\n      pop\n      jump\t// out\n        /* \"#utility.yul\":16191:16268   */\n    tag_370:\n        /* \"#utility.yul\":16228:16235   */\n      0x00\n        /* \"#utility.yul\":16257:16262   */\n      dup2\n        /* \"#utility.yul\":16246:16262   */\n      swap1\n      pop\n        /* \"#utility.yul\":16191:16268   */\n      swap2\n      swap1\n      pop\n      jump\t// out\n        /* \"#utility.yul\":16274:16396   */\n    tag_371:\n        /* \"#utility.yul\":16347:16371   */\n      tag_586\n        /* \"#utility.yul\":16365:16370   */\n      dup2\n        /* \"#utility.yul\":16347:16371   */\n      tag_370\n      jump\t// in\n    tag_586:\n        /* \"#utility.yul\":16340:16345   */\n      dup2\n        /* \"#utility.yul\":16337:16372   */\n      eq\n        /* \"#utility.yul\":16327:16390   */\n      tag_587\n      jumpi\n        /* \"#utility.yul\":16386:16387   */\n      0x00\n        /* \"#utility.yul\":16383:16384   */\n      dup1\n        /* \"#utility.yul\":16376:16388   */\n      revert\n        /* \"#utility.yul\":16327:16390   */\n    tag_587:\n        /* \"#utility.yul\":16274:16396   */\n      pop\n      jump\t// out\n        /* \"#utility.yul\":16402:16541   */\n    tag_372:\n        /* \"#utility.yul\":16448:16453   */\n      0x00\n        /* \"#utility.yul\":16486:16492   */\n      dup2\n        /* \"#utility.yul\":16473:16493   */\n      calldataload\n        /* \"#utility.yul\":16464:16493   */\n      swap1\n      pop\n        /* \"#utility.yul\":16502:16535   */\n      tag_589\n        /* \"#utility.yul\":16529:16534   */\n      dup2\n        /* \"#utility.yul\":16502:16535   */\n      tag_371\n      jump\t// in\n    tag_589:\n        /* \"#utility.yul\":16402:16541   */\n      swap3\n      swap2\n      pop\n      pop\n      jump\t// out\n        /* \"#utility.yul\":16547:16876   */\n    tag_41:\n        /* \"#utility.yul\":16606:16612   */\n      0x00\n        /* \"#utility.yul\":16655:16657   */\n      0x20\n        /* \"#utility.yul\":16643:16652   */\n      dup3\n        /* \"#utility.yul\":16634:16641   */\n      dup5\n        /* \"#utility.yul\":16630:16653   */\n      sub\n        /* \"#utility.yul\":16626:16658   */\n      slt\n        /* \"#utility.yul\":16623:16742   */\n      iszero\n      tag_591\n      jumpi\n        /* \"#utility.yul\":16661:16740   */\n      tag_592\n      tag_320\n      jump\t// in\n    tag_592:\n        /* \"#utility.yul\":16623:16742   */\n    tag_591:\n        /* \"#utility.yul\":16781:16782   */\n      0x00\n        /* \"#utility.yul\":16806:16859   */\n      tag_593\n        /* \"#utility.yul\":16851:16858   */\n      dup5\n        /* \"#utility.yul\":16842:16848   */\n      dup3\n        /* \"#utility.yul\":16831:16840   */\n      dup6\n        /* \"#utility.yul\":16827:16849   */\n      add\n        /* \"#utility.yul\":16806:16859   */\n      tag_372\n      jump\t// in\n    tag_593:\n        /* \"#utility.yul\":16796:16859   */\n      swap2\n      pop\n        /* \"#utility.yul\":16752:16869   */\n      pop\n        /* \"#utility.yul\":16547:16876   */\n      swap3\n      swap2\n      pop\n      pop\n      jump\t// out\n        /* \"#utility.yul\":16882:17000   */\n    tag_373:\n        /* \"#utility.yul\":16969:16993   */\n      tag_595\n        /* \"#utility.yul\":16987:16992   */\n      dup2\n        /* \"#utility.yul\":16969:16993   */\n      tag_370\n      jump\t// in\n    tag_595:\n        /* \"#utility.yul\":16964:16967   */\n      dup3\n        /* \"#utility.yul\":16957:16994   */\n      mstore\n        /* \"#utility.yul\":16882:17000   */\n      pop\n      pop\n      jump\t// out\n        /* \"#utility.yul\":17006:17228   */\n    tag_44:\n        /* \"#utility.yul\":17099:17103   */\n      0x00\n        /* \"#utility.yul\":17137:17139   */\n      0x20\n        /* \"#utility.yul\":17126:17135   */\n      dup3\n        /* \"#utility.yul\":17122:17140   */\n      add\n        /* \"#utility.yul\":17114:17140   */\n      swap1\n      pop\n        /* \"#utility.yul\":17150:17221   */\n      tag_597\n        /* \"#utility.yul\":17218:17219   */\n      0x00\n        /* \"#utility.yul\":17207:17216   */\n      dup4\n        /* \"#utility.yul\":17203:17220   */\n      add\n        /* \"#utility.yul\":17194:17200   */\n      dup5\n        /* \"#utility.yul\":17150:17221   */\n      tag_373\n      jump\t// in\n    tag_597:\n        /* \"#utility.yul\":17006:17228   */\n      swap3\n      swap2\n      pop\n      pop\n      jump\t// out\n        /* \"#utility.yul\":17234:17708   */\n    tag_47:\n        /* \"#utility.yul\":17302:17308   */\n      0x00\n        /* \"#utility.yul\":17310:17316   */\n      dup1\n        /* \"#utility.yul\":17359:17361   */\n      0x40\n        /* \"#utility.yul\":17347:17356   */\n      dup4\n        /* \"#utility.yul\":17338:17345   */\n      dup6\n        /* \"#utility.yul\":17334:17357   */\n      sub\n        /* \"#utility.yul\":17330:17362   */\n      slt\n        /* \"#utility.yul\":17327:17446   */\n      iszero\n      tag_599\n      jumpi\n        /* \"#utility.yul\":17365:17444   */\n      tag_600\n      tag_320\n      jump\t// in\n    tag_600:\n        /* \"#utility.yul\":17327:17446   */\n    tag_599:\n        /* \"#utility.yul\":17485:17486   */\n      0x00\n        /* \"#utility.yul\":17510:17563   */\n      tag_601\n        /* \"#utility.yul\":17555:17562   */\n      dup6\n        /* \"#utility.yul\":17546:17552   */\n      dup3\n        /* \"#utility.yul\":17535:17544   */\n      dup7\n        /* \"#utility.yul\":17531:17553   */\n      add\n        /* \"#utility.yul\":17510:17563   */\n      tag_372\n      jump\t// in\n    tag_601:\n        /* \"#utility.yul\":17500:17563   */\n      swap3\n      pop\n        /* \"#utility.yul\":17456:17573   */\n      pop\n        /* \"#utility.yul\":17612:17614   */\n      0x20\n        /* \"#utility.yul\":17638:17691   */\n      tag_602\n        /* \"#utility.yul\":17683:17690   */\n      dup6\n        /* \"#utility.yul\":17674:17680   */\n      dup3\n        /* \"#utility.yul\":17663:17672   */\n      dup7\n        /* \"#utility.yul\":17659:17681   */\n      add\n        /* \"#utility.yul\":17638:17691   */\n      tag_330\n      jump\t// in\n    tag_602:\n        /* \"#utility.yul\":17628:17691   */\n      swap2\n      pop\n        /* \"#utility.yul\":17583:17701   */\n      pop\n        /* \"#utility.yul\":17234:17708   */\n      swap3\n      pop\n      swap3\n      swap1\n      pop\n      jump\t// out\n        /* \"#utility.yul\":17714:17973   */\n    tag_374:\n        /* \"#utility.yul\":17799:17803   */\n      0x00\n        /* \"#utility.yul\":17889:17907   */\n      0xffffffffffffffff\n        /* \"#utility.yul\":17881:17887   */\n      dup3\n        /* \"#utility.yul\":17878:17908   */\n      gt\n        /* \"#utility.yul\":17875:17931   */\n      iszero\n      tag_604\n      jumpi\n        /* \"#utility.yul\":17911:17929   */\n      tag_605\n      tag_252\n      jump\t// in\n    tag_605:\n        /* \"#utility.yul\":17875:17931   */\n    tag_604:\n        /* \"#utility.yul\":17961:17965   */\n      0x20\n        /* \"#utility.yul\":17953:17959   */\n      dup3\n        /* \"#utility.yul\":17949:17966   */\n      mul\n        /* \"#utility.yul\":17941:17966   */\n      swap1\n      pop\n        /* \"#utility.yul\":17714:17973   */\n      swap2\n      swap1\n      pop\n      jump\t// out\n        /* \"#utility.yul\":17996:18874   */\n    tag_375:\n        /* \"#utility.yul\":18100:18105   */\n      0x00\n        /* \"#utility.yul\":18125:18214   */\n      tag_607\n        /* \"#utility.yul\":18141:18213   */\n      tag_608\n        /* \"#utility.yul\":18206:18212   */\n      dup5\n        /* \"#utility.yul\":18141:18213   */\n      tag_374\n      jump\t// in\n    tag_608:\n        /* \"#utility.yul\":18125:18214   */\n      tag_360\n      jump\t// in\n    tag_607:\n        /* \"#utility.yul\":18116:18214   */\n      swap1\n      pop\n        /* \"#utility.yul\":18234:18239   */\n      dup1\n        /* \"#utility.yul\":18287:18291   */\n      0x20\n        /* \"#utility.yul\":18279:18285   */\n      dup5\n        /* \"#utility.yul\":18275:18292   */\n      mul\n        /* \"#utility.yul\":18267:18273   */\n      dup4\n        /* \"#utility.yul\":18263:18293   */\n      add\n        /* \"#utility.yul\":18316:18319   */\n      dup6\n        /* \"#utility.yul\":18308:18314   */\n      dup2\n        /* \"#utility.yul\":18305:18320   */\n      gt\n        /* \"#utility.yul\":18302:18424   */\n      iszero\n      tag_609\n      jumpi\n        /* \"#utility.yul\":18335:18414   */\n      tag_610\n      tag_362\n      jump\t// in\n    tag_610:\n        /* \"#utility.yul\":18302:18424   */\n    tag_609:\n        /* \"#utility.yul\":18450:18456   */\n      dup4\n        /* \"#utility.yul\":18433:18868   */\n    tag_611:\n        /* \"#utility.yul\":18467:18473   */\n      dup2\n        /* \"#utility.yul\":18462:18465   */\n      dup2\n        /* \"#utility.yul\":18459:18474   */\n      lt\n        /* \"#utility.yul\":18433:18868   */\n      iszero\n      tag_613\n      jumpi\n        /* \"#utility.yul\":18556:18559   */\n      dup1\n        /* \"#utility.yul\":18543:18560   */\n      calldataload\n        /* \"#utility.yul\":18592:18610   */\n      0xffffffffffffffff\n        /* \"#utility.yul\":18579:18590   */\n      dup2\n        /* \"#utility.yul\":18576:18611   */\n      gt\n        /* \"#utility.yul\":18573:18695   */\n      iszero\n      tag_614\n      jumpi\n        /* \"#utility.yul\":18614:18693   */\n      tag_615\n      tag_358\n      jump\t// in\n    tag_615:\n        /* \"#utility.yul\":18573:18695   */\n    tag_614:\n        /* \"#utility.yul\":18738:18749   */\n      dup1\n        /* \"#utility.yul\":18730:18736   */\n      dup7\n        /* \"#utility.yul\":18726:18750   */\n      add\n        /* \"#utility.yul\":18776:18823   */\n      tag_616\n        /* \"#utility.yul\":18819:18822   */\n      dup10\n        /* \"#utility.yul\":18807:18817   */\n      dup3\n        /* \"#utility.yul\":18776:18823   */\n      tag_367\n      jump\t// in\n    tag_616:\n        /* \"#utility.yul\":18771:18774   */\n      dup6\n        /* \"#utility.yul\":18764:18824   */\n      mstore\n        /* \"#utility.yul\":18853:18857   */\n      0x20\n        /* \"#utility.yul\":18848:18851   */\n      dup6\n        /* \"#utility.yul\":18844:18858   */\n      add\n        /* \"#utility.yul\":18837:18858   */\n      swap5\n      pop\n        /* \"#utility.yul\":18509:18868   */\n      pop\n      pop\n        /* \"#utility.yul\":18493:18497   */\n      0x20\n        /* \"#utility.yul\":18488:18491   */\n      dup2\n        /* \"#utility.yul\":18484:18498   */\n      add\n        /* \"#utility.yul\":18477:18498   */\n      swap1\n      pop\n        /* \"#utility.yul\":18433:18868   */\n      jump(tag_611)\n    tag_613:\n        /* \"#utility.yul\":18437:18458   */\n      pop\n        /* \"#utility.yul\":18106:18874   */\n      pop\n      pop\n        /* \"#utility.yul\":17996:18874   */\n      swap4\n      swap3\n      pop\n      pop\n      pop\n      jump\t// out\n        /* \"#utility.yul\":18897:19256   */\n    tag_376:\n        /* \"#utility.yul\":18976:18981   */\n      0x00\n        /* \"#utility.yul\":19025:19028   */\n      dup3\n        /* \"#utility.yul\":19018:19022   */\n      0x1f\n        /* \"#utility.yul\":19010:19016   */\n      dup4\n        /* \"#utility.yul\":19006:19023   */\n      add\n        /* \"#utility.yul\":19002:19029   */\n      slt\n        /* \"#utility.yul\":18992:19114   */\n      tag_618\n      jumpi\n        /* \"#utility.yul\":19033:19112   */\n      tag_619\n      tag_358\n      jump\t// in\n    tag_619:\n        /* \"#utility.yul\":18992:19114   */\n    tag_618:\n        /* \"#utility.yul\":19137:19141   */\n      0x06\n        /* \"#utility.yul\":19159:19250   */\n      tag_620\n        /* \"#utility.yul\":19246:19249   */\n      dup5\n        /* \"#utility.yul\":19238:19244   */\n      dup3\n        /* \"#utility.yul\":19230:19236   */\n      dup6\n        /* \"#utility.yul\":19159:19250   */\n      tag_375\n      jump\t// in\n    tag_620:\n        /* \"#utility.yul\":19150:19250   */\n      swap2\n      pop\n        /* \"#utility.yul\":18982:19256   */\n      pop\n        /* \"#utility.yul\":18897:19256   */\n      swap3\n      swap2\n      pop\n      pop\n      jump\t// out\n        /* \"#utility.yul\":19262:19962   */\n    tag_57:\n        /* \"#utility.yul\":19363:19369   */\n      0x00\n        /* \"#utility.yul\":19371:19377   */\n      dup1\n        /* \"#utility.yul\":19420:19422   */\n      0x40\n        /* \"#utility.yul\":19408:19417   */\n      dup4\n        /* \"#utility.yul\":19399:19406   */\n      dup6\n        /* \"#utility.yul\":19395:19418   */\n      sub\n        /* \"#utility.yul\":19391:19423   */\n      slt\n        /* \"#utility.yul\":19388:19507   */\n      iszero\n      tag_622\n      jumpi\n        /* \"#utility.yul\":19426:19505   */\n      tag_623\n      tag_320\n      jump\t// in\n    tag_623:\n        /* \"#utility.yul\":19388:19507   */\n    tag_622:\n        /* \"#utility.yul\":19546:19547   */\n      0x00\n        /* \"#utility.yul\":19571:19624   */\n      tag_624\n        /* \"#utility.yul\":19616:19623   */\n      dup6\n        /* \"#utility.yul\":19607:19613   */\n      dup3\n        /* \"#utility.yul\":19596:19605   */\n      dup7\n        /* \"#utility.yul\":19592:19614   */\n      add\n        /* \"#utility.yul\":19571:19624   */\n      tag_330\n      jump\t// in\n    tag_624:\n        /* \"#utility.yul\":19561:19624   */\n      swap3\n      pop\n        /* \"#utility.yul\":19517:19634   */\n      pop\n        /* \"#utility.yul\":19701:19703   */\n      0x20\n        /* \"#utility.yul\":19690:19699   */\n      dup4\n        /* \"#utility.yul\":19686:19704   */\n      add\n        /* \"#utility.yul\":19673:19705   */\n      calldataload\n        /* \"#utility.yul\":19732:19750   */\n      0xffffffffffffffff\n        /* \"#utility.yul\":19724:19730   */\n      dup2\n        /* \"#utility.yul\":19721:19751   */\n      gt\n        /* \"#utility.yul\":19718:19835   */\n      iszero\n      tag_625\n      jumpi\n        /* \"#utility.yul\":19754:19833   */\n      tag_626\n      tag_321\n      jump\t// in\n    tag_626:\n        /* \"#utility.yul\":19718:19835   */\n    tag_625:\n        /* \"#utility.yul\":19859:19945   */\n      tag_627\n        /* \"#utility.yul\":19937:19944   */\n      dup6\n        /* \"#utility.yul\":19928:19934   */\n      dup3\n        /* \"#utility.yul\":19917:19926   */\n      dup7\n        /* \"#utility.yul\":19913:19935   */\n      add\n        /* \"#utility.yul\":19859:19945   */\n      tag_376\n      jump\t// in\n    tag_627:\n        /* \"#utility.yul\":19849:19945   */\n      swap2\n      pop\n        /* \"#utility.yul\":19644:19955   */\n      pop\n        /* \"#utility.yul\":19262:19962   */\n      swap3\n      pop\n      swap3\n      swap1\n      pop\n      jump\t// out\n        /* \"#utility.yul\":19968:20227   */\n    tag_377:\n        /* \"#utility.yul\":20053:20057   */\n      0x00\n        /* \"#utility.yul\":20143:20161   */\n      0xffffffffffffffff\n        /* \"#utility.yul\":20135:20141   */\n      dup3\n        /* \"#utility.yul\":20132:20162   */\n      gt\n        /* \"#utility.yul\":20129:20185   */\n      iszero\n      tag_629\n      jumpi\n        /* \"#utility.yul\":20165:20183   */\n      tag_630\n      tag_252\n      jump\t// in\n    tag_630:\n        /* \"#utility.yul\":20129:20185   */\n    tag_629:\n        /* \"#utility.yul\":20215:20219   */\n      0x20\n        /* \"#utility.yul\":20207:20213   */\n      dup3\n        /* \"#utility.yul\":20203:20220   */\n      mul\n        /* \"#utility.yul\":20195:20220   */\n      swap1\n      pop\n        /* \"#utility.yul\":19968:20227   */\n      swap2\n      swap1\n      pop\n      jump\t// out\n        /* \"#utility.yul\":20250:21128   */\n    tag_378:\n        /* \"#utility.yul\":20354:20359   */\n      0x00\n        /* \"#utility.yul\":20379:20468   */\n      tag_632\n        /* \"#utility.yul\":20395:20467   */\n      tag_633\n        /* \"#utility.yul\":20460:20466   */\n      dup5\n        /* \"#utility.yul\":20395:20467   */\n      tag_377\n      jump\t// in\n    tag_633:\n        /* \"#utility.yul\":20379:20468   */\n      tag_360\n      jump\t// in\n    tag_632:\n        /* \"#utility.yul\":20370:20468   */\n      swap1\n      pop\n        /* \"#utility.yul\":20488:20493   */\n      dup1\n        /* \"#utility.yul\":20541:20545   */\n      0x20\n        /* \"#utility.yul\":20533:20539   */\n      dup5\n        /* \"#utility.yul\":20529:20546   */\n      mul\n        /* \"#utility.yul\":20521:20527   */\n      dup4\n        /* \"#utility.yul\":20517:20547   */\n      add\n        /* \"#utility.yul\":20570:20573   */\n      dup6\n        /* \"#utility.yul\":20562:20568   */\n      dup2\n        /* \"#utility.yul\":20559:20574   */\n      gt\n        /* \"#utility.yul\":20556:20678   */\n      iszero\n      tag_634\n      jumpi\n        /* \"#utility.yul\":20589:20668   */\n      tag_635\n      tag_362\n      jump\t// in\n    tag_635:\n        /* \"#utility.yul\":20556:20678   */\n    tag_634:\n        /* \"#utility.yul\":20704:20710   */\n      dup4\n        /* \"#utility.yul\":20687:21122   */\n    tag_636:\n        /* \"#utility.yul\":20721:20727   */\n      dup2\n        /* \"#utility.yul\":20716:20719   */\n      dup2\n        /* \"#utility.yul\":20713:20728   */\n      lt\n        /* \"#utility.yul\":20687:21122   */\n      iszero\n      tag_638\n      jumpi\n        /* \"#utility.yul\":20810:20813   */\n      dup1\n        /* \"#utility.yul\":20797:20814   */\n      calldataload\n        /* \"#utility.yul\":20846:20864   */\n      0xffffffffffffffff\n        /* \"#utility.yul\":20833:20844   */\n      dup2\n        /* \"#utility.yul\":20830:20865   */\n      gt\n        /* \"#utility.yul\":20827:20949   */\n      iszero\n      tag_639\n      jumpi\n        /* \"#utility.yul\":20868:20947   */\n      tag_640\n      tag_358\n      jump\t// in\n    tag_640:\n        /* \"#utility.yul\":20827:20949   */\n    tag_639:\n        /* \"#utility.yul\":20992:21003   */\n      dup1\n        /* \"#utility.yul\":20984:20990   */\n      dup7\n        /* \"#utility.yul\":20980:21004   */\n      add\n        /* \"#utility.yul\":21030:21077   */\n      tag_641\n        /* \"#utility.yul\":21073:21076   */\n      dup10\n        /* \"#utility.yul\":21061:21071   */\n      dup3\n        /* \"#utility.yul\":21030:21077   */\n      tag_367\n      jump\t// in\n    tag_641:\n        /* \"#utility.yul\":21025:21028   */\n      dup6\n        /* \"#utility.yul\":21018:21078   */\n      mstore\n        /* \"#utility.yul\":21107:21111   */\n      0x20\n        /* \"#utility.yul\":21102:21105   */\n      dup6\n        /* \"#utility.yul\":21098:21112   */\n      add\n        /* \"#utility.yul\":21091:21112   */\n      swap5\n      pop\n        /* \"#utility.yul\":20763:21122   */\n      pop\n      pop\n        /* \"#utility.yul\":20747:20751   */\n      0x20\n        /* \"#utility.yul\":20742:20745   */\n      dup2\n        /* \"#utility.yul\":20738:20752   */\n      add\n        /* \"#utility.yul\":20731:20752   */\n      swap1\n      pop\n        /* \"#utility.yul\":20687:21122   */\n      jump(tag_636)\n    tag_638:\n        /* \"#utility.yul\":20691:20712   */\n      pop\n        /* \"#utility.yul\":20360:21128   */\n      pop\n      pop\n        /* \"#utility.yul\":20250:21128   */\n      swap4\n      swap3\n      pop\n      pop\n      pop\n      jump\t// out\n        /* \"#utility.yul\":21151:21510   */\n    tag_379:\n        /* \"#utility.yul\":21230:21235   */\n      0x00\n        /* \"#utility.yul\":21279:21282   */\n      dup3\n        /* \"#utility.yul\":21272:21276   */\n      0x1f\n        /* \"#utility.yul\":21264:21270   */\n      dup4\n        /* \"#utility.yul\":21260:21277   */\n      add\n        /* \"#utility.yul\":21256:21283   */\n      slt\n        /* \"#utility.yul\":21246:21368   */\n      tag_643\n      jumpi\n        /* \"#utility.yul\":21287:21366   */\n      tag_644\n      tag_358\n      jump\t// in\n    tag_644:\n        /* \"#utility.yul\":21246:21368   */\n    tag_643:\n        /* \"#utility.yul\":21391:21395   */\n      0x07\n        /* \"#utility.yul\":21413:21504   */\n      tag_645\n        /* \"#utility.yul\":21500:21503   */\n      dup5\n        /* \"#utility.yul\":21492:21498   */\n      dup3\n        /* \"#utility.yul\":21484:21490   */\n      dup6\n        /* \"#utility.yul\":21413:21504   */\n      tag_378\n      jump\t// in\n    tag_645:\n        /* \"#utility.yul\":21404:21504   */\n      swap2\n      pop\n        /* \"#utility.yul\":21236:21510   */\n      pop\n        /* \"#utility.yul\":21151:21510   */\n      swap3\n      swap2\n      pop\n      pop\n      jump\t// out\n        /* \"#utility.yul\":21516:22216   */\n    tag_63:\n        /* \"#utility.yul\":21617:21623   */\n      0x00\n        /* \"#utility.yul\":21625:21631   */\n      dup1\n        /* \"#utility.yul\":21674:21676   */\n      0x40\n        /* \"#utility.yul\":21662:21671   */\n      dup4\n        /* \"#utility.yul\":21653:21660   */\n      dup6\n        /* \"#utility.yul\":21649:21672   */\n      sub\n        /* \"#utility.yul\":21645:21677   */\n      slt\n        /* \"#utility.yul\":21642:21761   */\n      iszero\n      tag_647\n      jumpi\n        /* \"#utility.yul\":21680:21759   */\n      tag_648\n      tag_320\n      jump\t// in\n    tag_648:\n        /* \"#utility.yul\":21642:21761   */\n    tag_647:\n        /* \"#utility.yul\":21800:21801   */\n      0x00\n        /* \"#utility.yul\":21825:21878   */\n      tag_649\n        /* \"#utility.yul\":21870:21877   */\n      dup6\n        /* \"#utility.yul\":21861:21867   */\n      dup3\n        /* \"#utility.yul\":21850:21859   */\n      dup7\n        /* \"#utility.yul\":21846:21868   */\n      add\n        /* \"#utility.yul\":21825:21878   */\n      tag_330\n      jump\t// in\n    tag_649:\n        /* \"#utility.yul\":21815:21878   */\n      swap3\n      pop\n        /* \"#utility.yul\":21771:21888   */\n      pop\n        /* \"#utility.yul\":21955:21957   */\n      0x20\n        /* \"#utility.yul\":21944:21953   */\n      dup4\n        /* \"#utility.yul\":21940:21958   */\n      add\n        /* \"#utility.yul\":21927:21959   */\n      calldataload\n        /* \"#utility.yul\":21986:22004   */\n      0xffffffffffffffff\n        /* \"#utility.yul\":21978:21984   */\n      dup2\n        /* \"#utility.yul\":21975:22005   */\n      gt\n        /* \"#utility.yul\":21972:22089   */\n      iszero\n      tag_650\n      jumpi\n        /* \"#utility.yul\":22008:22087   */\n      tag_651\n      tag_321\n      jump\t// in\n    tag_651:\n        /* \"#utility.yul\":21972:22089   */\n    tag_650:\n        /* \"#utility.yul\":22113:22199   */\n      tag_652\n        /* \"#utility.yul\":22191:22198   */\n      dup6\n        /* \"#utility.yul\":22182:22188   */\n      dup3\n        /* \"#utility.yul\":22171:22180   */\n      dup7\n        /* \"#utility.yul\":22167:22189   */\n      add\n        /* \"#utility.yul\":22113:22199   */\n      tag_379\n      jump\t// in\n    tag_652:\n        /* \"#utility.yul\":22103:22199   */\n      swap2\n      pop\n        /* \"#utility.yul\":21898:22209   */\n      pop\n        /* \"#utility.yul\":21516:22216   */\n      swap3\n      pop\n      swap3\n      swap1\n      pop\n      jump\t// out\n        /* \"#utility.yul\":22222:22340   */\n    tag_380:\n        /* \"#utility.yul\":22309:22333   */\n      tag_654\n        /* \"#utility.yul\":22327:22332   */\n      dup2\n        /* \"#utility.yul\":22309:22333   */\n      tag_328\n      jump\t// in\n    tag_654:\n        /* \"#utility.yul\":22304:22307   */\n      dup3\n        /* \"#utility.yul\":22297:22334   */\n      mstore\n        /* \"#utility.yul\":22222:22340   */\n      pop\n      pop\n      jump\t// out\n        /* \"#utility.yul\":22346:22568   */\n    tag_68:\n        /* \"#utility.yul\":22439:22443   */\n      0x00\n        /* \"#utility.yul\":22477:22479   */\n      0x20\n        /* \"#utility.yul\":22466:22475   */\n      dup3\n        /* \"#utility.yul\":22462:22480   */\n      add\n        /* \"#utility.yul\":22454:22480   */\n      swap1\n      pop\n        /* \"#utility.yul\":22490:22561   */\n      tag_656\n        /* \"#utility.yul\":22558:22559   */\n      0x00\n        /* \"#utility.yul\":22547:22556   */\n      dup4\n        /* \"#utility.yul\":22543:22560   */\n      add\n        /* \"#utility.yul\":22534:22540   */\n      dup5\n        /* \"#utility.yul\":22490:22561   */\n      tag_380\n      jump\t// in\n    tag_656:\n        /* \"#utility.yul\":22346:22568   */\n      swap3\n      swap2\n      pop\n      pop\n      jump\t// out\n        /* \"#utility.yul\":22574:22833   */\n    tag_381:\n        /* \"#utility.yul\":22659:22663   */\n      0x00\n        /* \"#utility.yul\":22749:22767   */\n      0xffffffffffffffff\n        /* \"#utility.yul\":22741:22747   */\n      dup3\n        /* \"#utility.yul\":22738:22768   */\n      gt\n        /* \"#utility.yul\":22735:22791   */\n      iszero\n      tag_658\n      jumpi\n        /* \"#utility.yul\":22771:22789   */\n      tag_659\n      tag_252\n      jump\t// in\n    tag_659:\n        /* \"#utility.yul\":22735:22791   */\n    tag_658:\n        /* \"#utility.yul\":22821:22825   */\n      0x20\n        /* \"#utility.yul\":22813:22819   */\n      dup3\n        /* \"#utility.yul\":22809:22826   */\n      mul\n        /* \"#utility.yul\":22801:22826   */\n      swap1\n      pop\n        /* \"#utility.yul\":22574:22833   */\n      swap2\n      swap1\n      pop\n      jump\t// out\n        /* \"#utility.yul\":22856:23734   */\n    tag_382:\n        /* \"#utility.yul\":22960:22965   */\n      0x00\n        /* \"#utility.yul\":22985:23074   */\n      tag_661\n        /* \"#utility.yul\":23001:23073   */\n      tag_662\n        /* \"#utility.yul\":23066:23072   */\n      dup5\n        /* \"#utility.yul\":23001:23073   */\n      tag_381\n      jump\t// in\n    tag_662:\n        /* \"#utility.yul\":22985:23074   */\n      tag_360\n      jump\t// in\n    tag_661:\n        /* \"#utility.yul\":22976:23074   */\n      swap1\n      pop\n        /* \"#utility.yul\":23094:23099   */\n      dup1\n        /* \"#utility.yul\":23147:23151   */\n      0x20\n        /* \"#utility.yul\":23139:23145   */\n      dup5\n        /* \"#utility.yul\":23135:23152   */\n      mul\n        /* \"#utility.yul\":23127:23133   */\n      dup4\n        /* \"#utility.yul\":23123:23153   */\n      add\n        /* \"#utility.yul\":23176:23179   */\n      dup6\n        /* \"#utility.yul\":23168:23174   */\n      dup2\n        /* \"#utility.yul\":23165:23180   */\n      gt\n        /* \"#utility.yul\":23162:23284   */\n      iszero\n      tag_663\n      jumpi\n        /* \"#utility.yul\":23195:23274   */\n      tag_664\n      tag_362\n      jump\t// in\n    tag_664:\n        /* \"#utility.yul\":23162:23284   */\n    tag_663:\n        /* \"#utility.yul\":23310:23316   */\n      dup4\n        /* \"#utility.yul\":23293:23728   */\n    tag_665:\n        /* \"#utility.yul\":23327:23333   */\n      dup2\n        /* \"#utility.yul\":23322:23325   */\n      dup2\n        /* \"#utility.yul\":23319:23334   */\n      lt\n        /* \"#utility.yul\":23293:23728   */\n      iszero\n      tag_667\n      jumpi\n        /* \"#utility.yul\":23416:23419   */\n      dup1\n        /* \"#utility.yul\":23403:23420   */\n      calldataload\n        /* \"#utility.yul\":23452:23470   */\n      0xffffffffffffffff\n        /* \"#utility.yul\":23439:23450   */\n      dup2\n        /* \"#utility.yul\":23436:23471   */\n      gt\n        /* \"#utility.yul\":23433:23555   */\n      iszero\n      tag_668\n      jumpi\n        /* \"#utility.yul\":23474:23553   */\n      tag_669\n      tag_358\n      jump\t// in\n    tag_669:\n        /* \"#utility.yul\":23433:23555   */\n    tag_668:\n        /* \"#utility.yul\":23598:23609   */\n      dup1\n        /* \"#utility.yul\":23590:23596   */\n      dup7\n        /* \"#utility.yul\":23586:23610   */\n      add\n        /* \"#utility.yul\":23636:23683   */\n      tag_670\n        /* \"#utility.yul\":23679:23682   */\n      dup10\n        /* \"#utility.yul\":23667:23677   */\n      dup3\n        /* \"#utility.yul\":23636:23683   */\n      tag_367\n      jump\t// in\n    tag_670:\n        /* \"#utility.yul\":23631:23634   */\n      dup6\n        /* \"#utility.yul\":23624:23684   */\n      mstore\n        /* \"#utility.yul\":23713:23717   */\n      0x20\n        /* \"#utility.yul\":23708:23711   */\n      dup6\n        /* \"#utility.yul\":23704:23718   */\n      add\n        /* \"#utility.yul\":23697:23718   */\n      swap5\n      pop\n        /* \"#utility.yul\":23369:23728   */\n      pop\n      pop\n        /* \"#utility.yul\":23353:23357   */\n      0x20\n        /* \"#utility.yul\":23348:23351   */\n      dup2\n        /* \"#utility.yul\":23344:23358   */\n      add\n        /* \"#utility.yul\":23337:23358   */\n      swap1\n      pop\n        /* \"#utility.yul\":23293:23728   */\n      jump(tag_665)\n    tag_667:\n        /* \"#utility.yul\":23297:23318   */\n      pop\n        /* \"#utility.yul\":22966:23734   */\n      pop\n      pop\n        /* \"#utility.yul\":22856:23734   */\n      swap4\n      swap3\n      pop\n      pop\n      pop\n      jump\t// out\n        /* \"#utility.yul\":23757:24116   */\n    tag_383:\n        /* \"#utility.yul\":23836:23841   */\n      0x00\n        /* \"#utility.yul\":23885:23888   */\n      dup3\n        /* \"#utility.yul\":23878:23882   */\n      0x1f\n        /* \"#utility.yul\":23870:23876   */\n      dup4\n        /* \"#utility.yul\":23866:23883   */\n      add\n        /* \"#utility.yul\":23862:23889   */\n      slt\n        /* \"#utility.yul\":23852:23974   */\n      tag_672\n      jumpi\n        /* \"#utility.yul\":23893:23972   */\n      tag_673\n      tag_358\n      jump\t// in\n    tag_673:\n        /* \"#utility.yul\":23852:23974   */\n    tag_672:\n        /* \"#utility.yul\":23997:24001   */\n      0x03\n        /* \"#utility.yul\":24019:24110   */\n      tag_674\n        /* \"#utility.yul\":24106:24109   */\n      dup5\n        /* \"#utility.yul\":24098:24104   */\n      dup3\n        /* \"#utility.yul\":24090:24096   */\n      dup6\n        /* \"#utility.yul\":24019:24110   */\n      tag_382\n      jump\t// in\n    tag_674:\n        /* \"#utility.yul\":24010:24110   */\n      swap2\n      pop\n        /* \"#utility.yul\":23842:24116   */\n      pop\n        /* \"#utility.yul\":23757:24116   */\n      swap3\n      swap2\n      pop\n      pop\n      jump\t// out\n        /* \"#utility.yul\":24122:24822   */\n    tag_75:\n        /* \"#utility.yul\":24223:24229   */\n      0x00\n        /* \"#utility.yul\":24231:24237   */\n      dup1\n        /* \"#utility.yul\":24280:24282   */\n      0x40\n        /* \"#utility.yul\":24268:24277   */\n      dup4\n        /* \"#utility.yul\":24259:24266   */\n      dup6\n        /* \"#utility.yul\":24255:24278   */\n      sub\n        /* \"#utility.yul\":24251:24283   */\n      slt\n        /* \"#utility.yul\":24248:24367   */\n      iszero\n      tag_676\n      jumpi\n        /* \"#utility.yul\":24286:24365   */\n      tag_677\n      tag_320\n      jump\t// in\n    tag_677:\n        /* \"#utility.yul\":24248:24367   */\n    tag_676:\n        /* \"#utility.yul\":24406:24407   */\n      0x00\n        /* \"#utility.yul\":24431:24484   */\n      tag_678\n        /* \"#utility.yul\":24476:24483   */\n      dup6\n        /* \"#utility.yul\":24467:24473   */\n      dup3\n        /* \"#utility.yul\":24456:24465   */\n      dup7\n        /* \"#utility.yul\":24452:24474   */\n      add\n        /* \"#utility.yul\":24431:24484   */\n      tag_330\n      jump\t// in\n    tag_678:\n        /* \"#utility.yul\":24421:24484   */\n      swap3\n      pop\n        /* \"#utility.yul\":24377:24494   */\n      pop\n        /* \"#utility.yul\":24561:24563   */\n      0x20\n        /* \"#utility.yul\":24550:24559   */\n      dup4\n        /* \"#utility.yul\":24546:24564   */\n      add\n        /* \"#utility.yul\":24533:24565   */\n      calldataload\n        /* \"#utility.yul\":24592:24610   */\n      0xffffffffffffffff\n        /* \"#utility.yul\":24584:24590   */\n      dup2\n        /* \"#utility.yul\":24581:24611   */\n      gt\n        /* \"#utility.yul\":24578:24695   */\n      iszero\n      tag_679\n      jumpi\n        /* \"#utility.yul\":24614:24693   */\n      tag_680\n      tag_321\n      jump\t// in\n    tag_680:\n        /* \"#utility.yul\":24578:24695   */\n    tag_679:\n        /* \"#utility.yul\":24719:24805   */\n      tag_681\n        /* \"#utility.yul\":24797:24804   */\n      dup6\n        /* \"#utility.yul\":24788:24794   */\n      dup3\n        /* \"#utility.yul\":24777:24786   */\n      dup7\n        /* \"#utility.yul\":24773:24795   */\n      add\n        /* \"#utility.yul\":24719:24805   */\n      tag_383\n      jump\t// in\n    tag_681:\n        /* \"#utility.yul\":24709:24805   */\n      swap2\n      pop\n        /* \"#utility.yul\":24504:24815   */\n      pop\n        /* \"#utility.yul\":24122:24822   */\n      swap3\n      pop\n      swap3\n      swap1\n      pop\n      jump\t// out\n        /* \"#utility.yul\":24828:24997   */\n    tag_384:\n        /* \"#utility.yul\":24912:24923   */\n      0x00\n        /* \"#utility.yul\":24946:24952   */\n      dup3\n        /* \"#utility.yul\":24941:24944   */\n      dup3\n        /* \"#utility.yul\":24934:24953   */\n      mstore\n        /* \"#utility.yul\":24986:24990   */\n      0x20\n        /* \"#utility.yul\":24981:24984   */\n      dup3\n        /* \"#utility.yul\":24977:24991   */\n      add\n        /* \"#utility.yul\":24962:24991   */\n      swap1\n      pop\n        /* \"#utility.yul\":24828:24997   */\n      swap3\n      swap2\n      pop\n      pop\n      jump\t// out\n        /* \"#utility.yul\":25003:25166   */\n    tag_385:\n        /* \"#utility.yul\":25143:25158   */\n      0x4163636573732044656e69656400000000000000000000000000000000000000\n        /* \"#utility.yul\":25139:25140   */\n      0x00\n        /* \"#utility.yul\":25131:25137   */\n      dup3\n        /* \"#utility.yul\":25127:25141   */\n      add\n        /* \"#utility.yul\":25120:25159   */\n      mstore\n        /* \"#utility.yul\":25003:25166   */\n      pop\n      jump\t// out\n        /* \"#utility.yul\":25172:25538   */\n    tag_386:\n        /* \"#utility.yul\":25314:25317   */\n      0x00\n        /* \"#utility.yul\":25335:25402   */\n      tag_685\n        /* \"#utility.yul\":25399:25401   */\n      0x0d\n        /* \"#utility.yul\":25394:25397   */\n      dup4\n        /* \"#utility.yul\":25335:25402   */\n      tag_384\n      jump\t// in\n    tag_685:\n        /* \"#utility.yul\":25328:25402   */\n      swap2\n      pop\n        /* \"#utility.yul\":25411:25504   */\n      tag_686\n        /* \"#utility.yul\":25500:25503   */\n      dup3\n        /* \"#utility.yul\":25411:25504   */\n      tag_385\n      jump\t// in\n    tag_686:\n        /* \"#utility.yul\":25529:25531   */\n      0x20\n        /* \"#utility.yul\":25524:25527   */\n      dup3\n        /* \"#utility.yul\":25520:25532   */\n      add\n        /* \"#utility.yul\":25513:25532   */\n      swap1\n      pop\n        /* \"#utility.yul\":25172:25538   */\n      swap2\n      swap1\n      pop\n      jump\t// out\n        /* \"#utility.yul\":25544:25963   */\n    tag_100:\n        /* \"#utility.yul\":25710:25714   */\n      0x00\n        /* \"#utility.yul\":25748:25750   */\n      0x20\n        /* \"#utility.yul\":25737:25746   */\n      dup3\n        /* \"#utility.yul\":25733:25751   */\n      add\n        /* \"#utility.yul\":25725:25751   */\n      swap1\n      pop\n        /* \"#utility.yul\":25797:25806   */\n      dup2\n        /* \"#utility.yul\":25791:25795   */\n      dup2\n        /* \"#utility.yul\":25787:25807   */\n      sub\n        /* \"#utility.yul\":25783:25784   */\n      0x00\n        /* \"#utility.yul\":25772:25781   */\n      dup4\n        /* \"#utility.yul\":25768:25785   */\n      add\n        /* \"#utility.yul\":25761:25808   */\n      mstore\n        /* \"#utility.yul\":25825:25956   */\n      tag_688\n        /* \"#utility.yul\":25951:25955   */\n      dup2\n        /* \"#utility.yul\":25825:25956   */\n      tag_386\n      jump\t// in\n    tag_688:\n        /* \"#utility.yul\":25817:25956   */\n      swap1\n      pop\n        /* \"#utility.yul\":25544:25963   */\n      swap2\n      swap1\n      pop\n      jump\t// out\n        /* \"#utility.yul\":25969:26149   */\n    tag_387:\n        /* \"#utility.yul\":26017:26094   */\n      0x4e487b7100000000000000000000000000000000000000000000000000000000\n        /* \"#utility.yul\":26014:26015   */\n      0x00\n        /* \"#utility.yul\":26007:26095   */\n      mstore\n        /* \"#utility.yul\":26114:26118   */\n      0x22\n        /* \"#utility.yul\":26111:26112   */\n      0x04\n        /* \"#utility.yul\":26104:26119   */\n      mstore\n        /* \"#utility.yul\":26138:26142   */\n      0x24\n        /* \"#utility.yul\":26135:26136   */\n      0x00\n        /* \"#utility.yul\":26128:26143   */\n      revert\n        /* \"#utility.yul\":26155:26475   */\n    tag_105:\n        /* \"#utility.yul\":26199:26205   */\n      0x00\n        /* \"#utility.yul\":26236:26237   */\n      0x02\n        /* \"#utility.yul\":26230:26234   */\n      dup3\n        /* \"#utility.yul\":26226:26238   */\n      div\n        /* \"#utility.yul\":26216:26238   */\n      swap1\n      pop\n        /* \"#utility.yul\":26283:26284   */\n      0x01\n        /* \"#utility.yul\":26277:26281   */\n      dup3\n        /* \"#utility.yul\":26273:26285   */\n      and\n        /* \"#utility.yul\":26304:26322   */\n      dup1\n        /* \"#utility.yul\":26294:26375   */\n      tag_691\n      jumpi\n        /* \"#utility.yul\":26360:26364   */\n      0x7f\n        /* \"#utility.yul\":26352:26358   */\n      dup3\n        /* \"#utility.yul\":26348:26365   */\n      and\n        /* \"#utility.yul\":26338:26365   */\n      swap2\n      pop\n        /* \"#utility.yul\":26294:26375   */\n    tag_691:\n        /* \"#utility.yul\":26422:26424   */\n      0x20\n        /* \"#utility.yul\":26414:26420   */\n      dup3\n        /* \"#utility.yul\":26411:26425   */\n      lt\n        /* \"#utility.yul\":26391:26409   */\n      dup2\n        /* \"#utility.yul\":26388:26426   */\n      sub\n        /* \"#utility.yul\":26385:26469   */\n      tag_692\n      jumpi\n        /* \"#utility.yul\":26441:26459   */\n      tag_693\n      tag_387\n      jump\t// in\n    tag_693:\n        /* \"#utility.yul\":26385:26469   */\n    tag_692:\n        /* \"#utility.yul\":26206:26475   */\n      pop\n        /* \"#utility.yul\":26155:26475   */\n      swap2\n      swap1\n      pop\n      jump\t// out\n        /* \"#utility.yul\":26481:26634   */\n    tag_388:\n        /* \"#utility.yul\":26588:26599   */\n      0x00\n        /* \"#utility.yul\":26625:26628   */\n      dup2\n        /* \"#utility.yul\":26610:26628   */\n      swap1\n      pop\n        /* \"#utility.yul\":26481:26634   */\n      swap3\n      swap2\n      pop\n      pop\n      jump\t// out\n        /* \"#utility.yul\":26670:27649   */\n    tag_389:\n        /* \"#utility.yul\":26805:26808   */\n      0x00\n        /* \"#utility.yul\":26834:26896   */\n      tag_696\n        /* \"#utility.yul\":26890:26895   */\n      dup3\n        /* \"#utility.yul\":26834:26896   */\n      tag_352\n      jump\t// in\n    tag_696:\n        /* \"#utility.yul\":26912:27006   */\n      tag_697\n        /* \"#utility.yul\":26999:27005   */\n      dup2\n        /* \"#utility.yul\":26994:26997   */\n      dup6\n        /* \"#utility.yul\":26912:27006   */\n      tag_388\n      jump\t// in\n    tag_697:\n        /* \"#utility.yul\":26905:27006   */\n      swap4\n      pop\n        /* \"#utility.yul\":27032:27035   */\n      dup4\n        /* \"#utility.yul\":27077:27081   */\n      0x20\n        /* \"#utility.yul\":27069:27075   */\n      dup3\n        /* \"#utility.yul\":27065:27082   */\n      mul\n        /* \"#utility.yul\":27060:27063   */\n      dup6\n        /* \"#utility.yul\":27056:27083   */\n      add\n        /* \"#utility.yul\":27107:27171   */\n      tag_698\n        /* \"#utility.yul\":27165:27170   */\n      dup6\n        /* \"#utility.yul\":27107:27171   */\n      tag_354\n      jump\t// in\n    tag_698:\n        /* \"#utility.yul\":27194:27201   */\n      dup1\n        /* \"#utility.yul\":27225:27226   */\n      0x00\n        /* \"#utility.yul\":27210:27604   */\n    tag_699:\n        /* \"#utility.yul\":27235:27241   */\n      dup6\n        /* \"#utility.yul\":27232:27233   */\n      dup2\n        /* \"#utility.yul\":27229:27242   */\n      lt\n        /* \"#utility.yul\":27210:27604   */\n      iszero\n      tag_701\n      jumpi\n        /* \"#utility.yul\":27306:27315   */\n      dup5\n        /* \"#utility.yul\":27300:27304   */\n      dup5\n        /* \"#utility.yul\":27296:27316   */\n      sub\n        /* \"#utility.yul\":27291:27294   */\n      dup10\n        /* \"#utility.yul\":27284:27317   */\n      mstore\n        /* \"#utility.yul\":27357:27363   */\n      dup2\n        /* \"#utility.yul\":27351:27364   */\n      mload\n        /* \"#utility.yul\":27385:27469   */\n      tag_702\n        /* \"#utility.yul\":27464:27468   */\n      dup6\n        /* \"#utility.yul\":27449:27462   */\n      dup3\n        /* \"#utility.yul\":27385:27469   */\n      tag_339\n      jump\t// in\n    tag_702:\n        /* \"#utility.yul\":27377:27469   */\n      swap5\n      pop\n        /* \"#utility.yul\":27492:27560   */\n      tag_703\n        /* \"#utility.yul\":27553:27559   */\n      dup4\n        /* \"#utility.yul\":27492:27560   */\n      tag_355\n      jump\t// in\n    tag_703:\n        /* \"#utility.yul\":27482:27560   */\n      swap3\n      pop\n        /* \"#utility.yul\":27589:27593   */\n      0x20\n        /* \"#utility.yul\":27584:27587   */\n      dup11\n        /* \"#utility.yul\":27580:27594   */\n      add\n        /* \"#utility.yul\":27573:27594   */\n      swap10\n      pop\n        /* \"#utility.yul\":27270:27604   */\n      pop\n        /* \"#utility.yul\":27257:27258   */\n      0x01\n        /* \"#utility.yul\":27254:27255   */\n      dup2\n        /* \"#utility.yul\":27250:27259   */\n      add\n        /* \"#utility.yul\":27245:27259   */\n      swap1\n      pop\n        /* \"#utility.yul\":27210:27604   */\n      jump(tag_699)\n    tag_701:\n        /* \"#utility.yul\":27214:27228   */\n      pop\n        /* \"#utility.yul\":27620:27624   */\n      dup3\n        /* \"#utility.yul\":27613:27624   */\n      swap8\n      pop\n        /* \"#utility.yul\":27640:27643   */\n      dup8\n        /* \"#utility.yul\":27633:27643   */\n      swap6\n      pop\n        /* \"#utility.yul\":26810:27649   */\n      pop\n      pop\n      pop\n      pop\n      pop\n        /* \"#utility.yul\":26670:27649   */\n      swap3\n      swap2\n      pop\n      pop\n      jump\t// out\n        /* \"#utility.yul\":27655:28060   */\n    tag_149:\n        /* \"#utility.yul\":27814:27818   */\n      0x00\n        /* \"#utility.yul\":27852:27854   */\n      0x20\n        /* \"#utility.yul\":27841:27850   */\n      dup3\n        /* \"#utility.yul\":27837:27855   */\n      add\n        /* \"#utility.yul\":27829:27855   */\n      swap1\n      pop\n        /* \"#utility.yul\":27901:27910   */\n      dup2\n        /* \"#utility.yul\":27895:27899   */\n      dup2\n        /* \"#utility.yul\":27891:27911   */\n      sub\n        /* \"#utility.yul\":27887:27888   */\n      0x00\n        /* \"#utility.yul\":27876:27885   */\n      dup4\n        /* \"#utility.yul\":27872:27889   */\n      add\n        /* \"#utility.yul\":27865:27912   */\n      mstore\n        /* \"#utility.yul\":27929:28053   */\n      tag_705\n        /* \"#utility.yul\":28048:28052   */\n      dup2\n        /* \"#utility.yul\":28039:28045   */\n      dup5\n        /* \"#utility.yul\":27929:28053   */\n      tag_389\n      jump\t// in\n    tag_705:\n        /* \"#utility.yul\":27921:28053   */\n      swap1\n      pop\n        /* \"#utility.yul\":27655:28060   */\n      swap3\n      swap2\n      pop\n      pop\n      jump\t// out\n        /* \"#utility.yul\":28066:28300   */\n    tag_390:\n        /* \"#utility.yul\":28206:28240   */\n      0x416363657373436f6e74726f6c3a2063616e206f6e6c792072656e6f756e6365\n        /* \"#utility.yul\":28202:28203   */\n      0x00\n        /* \"#utility.yul\":28194:28200   */\n      dup3\n        /* \"#utility.yul\":28190:28204   */\n      add\n        /* \"#utility.yul\":28183:28241   */\n      mstore\n        /* \"#utility.yul\":28275:28292   */\n      0x20726f6c657320666f722073656c660000000000000000000000000000000000\n        /* \"#utility.yul\":28270:28272   */\n      0x20\n        /* \"#utility.yul\":28262:28268   */\n      dup3\n        /* \"#utility.yul\":28258:28273   */\n      add\n        /* \"#utility.yul\":28251:28293   */\n      mstore\n        /* \"#utility.yul\":28066:28300   */\n      pop\n      jump\t// out\n        /* \"#utility.yul\":28306:28672   */\n    tag_391:\n        /* \"#utility.yul\":28448:28451   */\n      0x00\n        /* \"#utility.yul\":28469:28536   */\n      tag_708\n        /* \"#utility.yul\":28533:28535   */\n      0x2f\n        /* \"#utility.yul\":28528:28531   */\n      dup4\n        /* \"#utility.yul\":28469:28536   */\n      tag_384\n      jump\t// in\n    tag_708:\n        /* \"#utility.yul\":28462:28536   */\n      swap2\n      pop\n        /* \"#utility.yul\":28545:28638   */\n      tag_709\n        /* \"#utility.yul\":28634:28637   */\n      dup3\n        /* \"#utility.yul\":28545:28638   */\n      tag_390\n      jump\t// in\n    tag_709:\n        /* \"#utility.yul\":28663:28665   */\n      0x40\n        /* \"#utility.yul\":28658:28661   */\n      dup3\n        /* \"#utility.yul\":28654:28666   */\n      add\n        /* \"#utility.yul\":28647:28666   */\n      swap1\n      pop\n        /* \"#utility.yul\":28306:28672   */\n      swap2\n      swap1\n      pop\n      jump\t// out\n        /* \"#utility.yul\":28678:29097   */\n    tag_162:\n        /* \"#utility.yul\":28844:28848   */\n      0x00\n        /* \"#utility.yul\":28882:28884   */\n      0x20\n        /* \"#utility.yul\":28871:28880   */\n      dup3\n        /* \"#utility.yul\":28867:28885   */\n      add\n        /* \"#utility.yul\":28859:28885   */\n      swap1\n      pop\n        /* \"#utility.yul\":28931:28940   */\n      dup2\n        /* \"#utility.yul\":28925:28929   */\n      dup2\n        /* \"#utility.yul\":28921:28941   */\n      sub\n        /* \"#utility.yul\":28917:28918   */\n      0x00\n        /* \"#utility.yul\":28906:28915   */\n      dup4\n        /* \"#utility.yul\":28902:28919   */\n      add\n        /* \"#utility.yul\":28895:28942   */\n      mstore\n        /* \"#utility.yul\":28959:29090   */\n      tag_711\n        /* \"#utility.yul\":29085:29089   */\n      dup2\n        /* \"#utility.yul\":28959:29090   */\n      tag_391\n      jump\t// in\n    tag_711:\n        /* \"#utility.yul\":28951:29090   */\n      swap1\n      pop\n        /* \"#utility.yul\":28678:29097   */\n      swap2\n      swap1\n      pop\n      jump\t// out\n        /* \"#utility.yul\":29103:29256   */\n    tag_392:\n        /* \"#utility.yul\":29210:29221   */\n      0x00\n        /* \"#utility.yul\":29247:29250   */\n      dup2\n        /* \"#utility.yul\":29232:29250   */\n      swap1\n      pop\n        /* \"#utility.yul\":29103:29256   */\n      swap3\n      swap2\n      pop\n      pop\n      jump\t// out\n        /* \"#utility.yul\":29292:30271   */\n    tag_393:\n        /* \"#utility.yul\":29427:29430   */\n      0x00\n        /* \"#utility.yul\":29456:29518   */\n      tag_714\n        /* \"#utility.yul\":29512:29517   */\n      dup3\n        /* \"#utility.yul\":29456:29518   */\n      tag_331\n      jump\t// in\n    tag_714:\n        /* \"#utility.yul\":29534:29628   */\n      tag_715\n        /* \"#utility.yul\":29621:29627   */\n      dup2\n        /* \"#utility.yul\":29616:29619   */\n      dup6\n        /* \"#utility.yul\":29534:29628   */\n      tag_392\n      jump\t// in\n    tag_715:\n        /* \"#utility.yul\":29527:29628   */\n      swap4\n      pop\n        /* \"#utility.yul\":29654:29657   */\n      dup4\n        /* \"#utility.yul\":29699:29703   */\n      0x20\n        /* \"#utility.yul\":29691:29697   */\n      dup3\n        /* \"#utility.yul\":29687:29704   */\n      mul\n        /* \"#utility.yul\":29682:29685   */\n      dup6\n        /* \"#utility.yul\":29678:29705   */\n      add\n        /* \"#utility.yul\":29729:29793   */\n      tag_716\n        /* \"#utility.yul\":29787:29792   */\n      dup6\n        /* \"#utility.yul\":29729:29793   */\n      tag_333\n      jump\t// in\n    tag_716:\n        /* \"#utility.yul\":29816:29823   */\n      dup1\n        /* \"#utility.yul\":29847:29848   */\n      0x00\n        /* \"#utility.yul\":29832:30226   */\n    tag_717:\n        /* \"#utility.yul\":29857:29863   */\n      dup6\n        /* \"#utility.yul\":29854:29855   */\n      dup2\n        /* \"#utility.yul\":29851:29864   */\n      lt\n        /* \"#utility.yul\":29832:30226   */\n      iszero\n      tag_719\n      jumpi\n        /* \"#utility.yul\":29928:29937   */\n      dup5\n        /* \"#utility.yul\":29922:29926   */\n      dup5\n        /* \"#utility.yul\":29918:29938   */\n      sub\n        /* \"#utility.yul\":29913:29916   */\n      dup10\n        /* \"#utility.yul\":29906:29939   */\n      mstore\n        /* \"#utility.yul\":29979:29985   */\n      dup2\n        /* \"#utility.yul\":29973:29986   */\n      mload\n        /* \"#utility.yul\":30007:30091   */\n      tag_720\n        /* \"#utility.yul\":30086:30090   */\n      dup6\n        /* \"#utility.yul\":30071:30084   */\n      dup3\n        /* \"#utility.yul\":30007:30091   */\n      tag_339\n      jump\t// in\n    tag_720:\n        /* \"#utility.yul\":29999:30091   */\n      swap5\n      pop\n        /* \"#utility.yul\":30114:30182   */\n      tag_721\n        /* \"#utility.yul\":30175:30181   */\n      dup4\n        /* \"#utility.yul\":30114:30182   */\n      tag_340\n      jump\t// in\n    tag_721:\n        /* \"#utility.yul\":30104:30182   */\n      swap3\n      pop\n        /* \"#utility.yul\":30211:30215   */\n      0x20\n        /* \"#utility.yul\":30206:30209   */\n      dup11\n        /* \"#utility.yul\":30202:30216   */\n      add\n        /* \"#utility.yul\":30195:30216   */\n      swap10\n      pop\n        /* \"#utility.yul\":29892:30226   */\n      pop\n        /* \"#utility.yul\":29879:29880   */\n      0x01\n        /* \"#utility.yul\":29876:29877   */\n      dup2\n        /* \"#utility.yul\":29872:29881   */\n      add\n        /* \"#utility.yul\":29867:29881   */\n      swap1\n      pop\n        /* \"#utility.yul\":29832:30226   */\n      jump(tag_717)\n    tag_719:\n        /* \"#utility.yul\":29836:29850   */\n      pop\n        /* \"#utility.yul\":30242:30246   */\n      dup3\n        /* \"#utility.yul\":30235:30246   */\n      swap8\n      pop\n        /* \"#utility.yul\":30262:30265   */\n      dup8\n        /* \"#utility.yul\":30255:30265   */\n      swap6\n      pop\n        /* \"#utility.yul\":29432:30271   */\n      pop\n      pop\n      pop\n      pop\n      pop\n        /* \"#utility.yul\":29292:30271   */\n      swap3\n      swap2\n      pop\n      pop\n      jump\t// out\n        /* \"#utility.yul\":30277:30682   */\n    tag_171:\n        /* \"#utility.yul\":30436:30440   */\n      0x00\n        /* \"#utility.yul\":30474:30476   */\n      0x20\n        /* \"#utility.yul\":30463:30472   */\n      dup3\n        /* \"#utility.yul\":30459:30477   */\n      add\n        /* \"#utility.yul\":30451:30477   */\n      swap1\n      pop\n        /* \"#utility.yul\":30523:30532   */\n      dup2\n        /* \"#utility.yul\":30517:30521   */\n      dup2\n        /* \"#utility.yul\":30513:30533   */\n      sub\n        /* \"#utility.yul\":30509:30510   */\n      0x00\n        /* \"#utility.yul\":30498:30507   */\n      dup4\n        /* \"#utility.yul\":30494:30511   */\n      add\n        /* \"#utility.yul\":30487:30534   */\n      mstore\n        /* \"#utility.yul\":30551:30675   */\n      tag_723\n        /* \"#utility.yul\":30670:30674   */\n      dup2\n        /* \"#utility.yul\":30661:30667   */\n      dup5\n        /* \"#utility.yul\":30551:30675   */\n      tag_393\n      jump\t// in\n    tag_723:\n        /* \"#utility.yul\":30543:30675   */\n      swap1\n      pop\n        /* \"#utility.yul\":30277:30682   */\n      swap3\n      swap2\n      pop\n      pop\n      jump\t// out\n        /* \"#utility.yul\":30688:30841   */\n    tag_394:\n        /* \"#utility.yul\":30795:30806   */\n      0x00\n        /* \"#utility.yul\":30832:30835   */\n      dup2\n        /* \"#utility.yul\":30817:30835   */\n      swap1\n      pop\n        /* \"#utility.yul\":30688:30841   */\n      swap3\n      swap2\n      pop\n      pop\n      jump\t// out\n        /* \"#utility.yul\":30877:31856   */\n    tag_395:\n        /* \"#utility.yul\":31012:31015   */\n      0x00\n        /* \"#utility.yul\":31041:31103   */\n      tag_726\n        /* \"#utility.yul\":31097:31102   */\n      dup3\n        /* \"#utility.yul\":31041:31103   */\n      tag_342\n      jump\t// in\n    tag_726:\n        /* \"#utility.yul\":31119:31213   */\n      tag_727\n        /* \"#utility.yul\":31206:31212   */\n      dup2\n        /* \"#utility.yul\":31201:31204   */\n      dup6\n        /* \"#utility.yul\":31119:31213   */\n      tag_394\n      jump\t// in\n    tag_727:\n        /* \"#utility.yul\":31112:31213   */\n      swap4\n      pop\n        /* \"#utility.yul\":31239:31242   */\n      dup4\n        /* \"#utility.yul\":31284:31288   */\n      0x20\n        /* \"#utility.yul\":31276:31282   */\n      dup3\n        /* \"#utility.yul\":31272:31289   */\n      mul\n        /* \"#utility.yul\":31267:31270   */\n      dup6\n        /* \"#utility.yul\":31263:31290   */\n      add\n        /* \"#utility.yul\":31314:31378   */\n      tag_728\n        /* \"#utility.yul\":31372:31377   */\n      dup6\n        /* \"#utility.yul\":31314:31378   */\n      tag_344\n      jump\t// in\n    tag_728:\n        /* \"#utility.yul\":31401:31408   */\n      dup1\n        /* \"#utility.yul\":31432:31433   */\n      0x00\n        /* \"#utility.yul\":31417:31811   */\n    tag_729:\n        /* \"#utility.yul\":31442:31448   */\n      dup6\n        /* \"#utility.yul\":31439:31440   */\n      dup2\n        /* \"#utility.yul\":31436:31449   */\n      lt\n        /* \"#utility.yul\":31417:31811   */\n      iszero\n      tag_731\n      jumpi\n        /* \"#utility.yul\":31513:31522   */\n      dup5\n        /* \"#utility.yul\":31507:31511   */\n      dup5\n        /* \"#utility.yul\":31503:31523   */\n      sub\n        /* \"#utility.yul\":31498:31501   */\n      dup10\n        /* \"#utility.yul\":31491:31524   */\n      mstore\n        /* \"#utility.yul\":31564:31570   */\n      dup2\n        /* \"#utility.yul\":31558:31571   */\n      mload\n        /* \"#utility.yul\":31592:31676   */\n      tag_732\n        /* \"#utility.yul\":31671:31675   */\n      dup6\n        /* \"#utility.yul\":31656:31669   */\n      dup3\n        /* \"#utility.yul\":31592:31676   */\n      tag_339\n      jump\t// in\n    tag_732:\n        /* \"#utility.yul\":31584:31676   */\n      swap5\n      pop\n        /* \"#utility.yul\":31699:31767   */\n      tag_733\n        /* \"#utility.yul\":31760:31766   */\n      dup4\n        /* \"#utility.yul\":31699:31767   */\n      tag_345\n      jump\t// in\n    tag_733:\n        /* \"#utility.yul\":31689:31767   */\n      swap3\n      pop\n        /* \"#utility.yul\":31796:31800   */\n      0x20\n        /* \"#utility.yul\":31791:31794   */\n      dup11\n        /* \"#utility.yul\":31787:31801   */\n      add\n        /* \"#utility.yul\":31780:31801   */\n      swap10\n      pop\n        /* \"#utility.yul\":31477:31811   */\n      pop\n        /* \"#utility.yul\":31464:31465   */\n      0x01\n        /* \"#utility.yul\":31461:31462   */\n      dup2\n        /* \"#utility.yul\":31457:31466   */\n      add\n        /* \"#utility.yul\":31452:31466   */\n      swap1\n      pop\n        /* \"#utility.yul\":31417:31811   */\n      jump(tag_729)\n    tag_731:\n        /* \"#utility.yul\":31421:31435   */\n      pop\n        /* \"#utility.yul\":31827:31831   */\n      dup3\n        /* \"#utility.yul\":31820:31831   */\n      swap8\n      pop\n        /* \"#utility.yul\":31847:31850   */\n      dup8\n        /* \"#utility.yul\":31840:31850   */\n      swap6\n      pop\n        /* \"#utility.yul\":31017:31856   */\n      pop\n      pop\n      pop\n      pop\n      pop\n        /* \"#utility.yul\":30877:31856   */\n      swap3\n      swap2\n      pop\n      pop\n      jump\t// out\n        /* \"#utility.yul\":31862:32267   */\n    tag_184:\n        /* \"#utility.yul\":32021:32025   */\n      0x00\n        /* \"#utility.yul\":32059:32061   */\n      0x20\n        /* \"#utility.yul\":32048:32057   */\n      dup3\n        /* \"#utility.yul\":32044:32062   */\n      add\n        /* \"#utility.yul\":32036:32062   */\n      swap1\n      pop\n        /* \"#utility.yul\":32108:32117   */\n      dup2\n        /* \"#utility.yul\":32102:32106   */\n      dup2\n        /* \"#utility.yul\":32098:32118   */\n      sub\n        /* \"#utility.yul\":32094:32095   */\n      0x00\n        /* \"#utility.yul\":32083:32092   */\n      dup4\n        /* \"#utility.yul\":32079:32096   */\n      add\n        /* \"#utility.yul\":32072:32119   */\n      mstore\n        /* \"#utility.yul\":32136:32260   */\n      tag_735\n        /* \"#utility.yul\":32255:32259   */\n      dup2\n        /* \"#utility.yul\":32246:32252   */\n      dup5\n        /* \"#utility.yul\":32136:32260   */\n      tag_395\n      jump\t// in\n    tag_735:\n        /* \"#utility.yul\":32128:32260   */\n      swap1\n      pop\n        /* \"#utility.yul\":31862:32267   */\n      swap3\n      swap2\n      pop\n      pop\n      jump\t// out\n        /* \"#utility.yul\":32273:32426   */\n    tag_396:\n        /* \"#utility.yul\":32380:32391   */\n      0x00\n        /* \"#utility.yul\":32417:32420   */\n      dup2\n        /* \"#utility.yul\":32402:32420   */\n      swap1\n      pop\n        /* \"#utility.yul\":32273:32426   */\n      swap3\n      swap2\n      pop\n      pop\n      jump\t// out\n        /* \"#utility.yul\":32462:33441   */\n    tag_397:\n        /* \"#utility.yul\":32597:32600   */\n      0x00\n        /* \"#utility.yul\":32626:32688   */\n      tag_738\n        /* \"#utility.yul\":32682:32687   */\n      dup3\n        /* \"#utility.yul\":32626:32688   */\n      tag_347\n      jump\t// in\n    tag_738:\n        /* \"#utility.yul\":32704:32798   */\n      tag_739\n        /* \"#utility.yul\":32791:32797   */\n      dup2\n        /* \"#utility.yul\":32786:32789   */\n      dup6\n        /* \"#utility.yul\":32704:32798   */\n      tag_396\n      jump\t// in\n    tag_739:\n        /* \"#utility.yul\":32697:32798   */\n      swap4\n      pop\n        /* \"#utility.yul\":32824:32827   */\n      dup4\n        /* \"#utility.yul\":32869:32873   */\n      0x20\n        /* \"#utility.yul\":32861:32867   */\n      dup3\n        /* \"#utility.yul\":32857:32874   */\n      mul\n        /* \"#utility.yul\":32852:32855   */\n      dup6\n        /* \"#utility.yul\":32848:32875   */\n      add\n        /* \"#utility.yul\":32899:32963   */\n      tag_740\n        /* \"#utility.yul\":32957:32962   */\n      dup6\n        /* \"#utility.yul\":32899:32963   */\n      tag_349\n      jump\t// in\n    tag_740:\n        /* \"#utility.yul\":32986:32993   */\n      dup1\n        /* \"#utility.yul\":33017:33018   */\n      0x00\n        /* \"#utility.yul\":33002:33396   */\n    tag_741:\n        /* \"#utility.yul\":33027:33033   */\n      dup6\n        /* \"#utility.yul\":33024:33025   */\n      dup2\n        /* \"#utility.yul\":33021:33034   */\n      lt\n        /* \"#utility.yul\":33002:33396   */\n      iszero\n      tag_743\n      jumpi\n        /* \"#utility.yul\":33098:33107   */\n      dup5\n        /* \"#utility.yul\":33092:33096   */\n      dup5\n        /* \"#utility.yul\":33088:33108   */\n      sub\n        /* \"#utility.yul\":33083:33086   */\n      dup10\n        /* \"#utility.yul\":33076:33109   */\n      mstore\n        /* \"#utility.yul\":33149:33155   */\n      dup2\n        /* \"#utility.yul\":33143:33156   */\n      mload\n        /* \"#utility.yul\":33177:33261   */\n      tag_744\n        /* \"#utility.yul\":33256:33260   */\n      dup6\n        /* \"#utility.yul\":33241:33254   */\n      dup3\n        /* \"#utility.yul\":33177:33261   */\n      tag_339\n      jump\t// in\n    tag_744:\n        /* \"#utility.yul\":33169:33261   */\n      swap5\n      pop\n        /* \"#utility.yul\":33284:33352   */\n      tag_745\n        /* \"#utility.yul\":33345:33351   */\n      dup4\n        /* \"#utility.yul\":33284:33352   */\n      tag_350\n      jump\t// in\n    tag_745:\n        /* \"#utility.yul\":33274:33352   */\n      swap3\n      pop\n        /* \"#utility.yul\":33381:33385   */\n      0x20\n        /* \"#utility.yul\":33376:33379   */\n      dup11\n        /* \"#utility.yul\":33372:33386   */\n      add\n        /* \"#utility.yul\":33365:33386   */\n      swap10\n      pop\n        /* \"#utility.yul\":33062:33396   */\n      pop\n        /* \"#utility.yul\":33049:33050   */\n      0x01\n        /* \"#utility.yul\":33046:33047   */\n      dup2\n        /* \"#utility.yul\":33042:33051   */\n      add\n        /* \"#utility.yul\":33037:33051   */\n      swap1\n      pop\n        /* \"#utility.yul\":33002:33396   */\n      jump(tag_741)\n    tag_743:\n        /* \"#utility.yul\":33006:33020   */\n      pop\n        /* \"#utility.yul\":33412:33416   */\n      dup3\n        /* \"#utility.yul\":33405:33416   */\n      swap8\n      pop\n        /* \"#utility.yul\":33432:33435   */\n      dup8\n        /* \"#utility.yul\":33425:33435   */\n      swap6\n      pop\n        /* \"#utility.yul\":32602:33441   */\n      pop\n      pop\n      pop\n      pop\n      pop\n        /* \"#utility.yul\":32462:33441   */\n      swap3\n      swap2\n      pop\n      pop\n      jump\t// out\n        /* \"#utility.yul\":33447:33852   */\n    tag_193:\n        /* \"#utility.yul\":33606:33610   */\n      0x00\n        /* \"#utility.yul\":33644:33646   */\n      0x20\n        /* \"#utility.yul\":33633:33642   */\n      dup3\n        /* \"#utility.yul\":33629:33647   */\n      add\n        /* \"#utility.yul\":33621:33647   */\n      swap1\n      pop\n        /* \"#utility.yul\":33693:33702   */\n      dup2\n        /* \"#utility.yul\":33687:33691   */\n      dup2\n        /* \"#utility.yul\":33683:33703   */\n      sub\n        /* \"#utility.yul\":33679:33680   */\n      0x00\n        /* \"#utility.yul\":33668:33677   */\n      dup4\n        /* \"#utility.yul\":33664:33681   */\n      add\n        /* \"#utility.yul\":33657:33704   */\n      mstore\n        /* \"#utility.yul\":33721:33845   */\n      tag_747\n        /* \"#utility.yul\":33840:33844   */\n      dup2\n        /* \"#utility.yul\":33831:33837   */\n      dup5\n        /* \"#utility.yul\":33721:33845   */\n      tag_397\n      jump\t// in\n    tag_747:\n        /* \"#utility.yul\":33713:33845   */\n      swap1\n      pop\n        /* \"#utility.yul\":33447:33852   */\n      swap3\n      swap2\n      pop\n      pop\n      jump\t// out\n        /* \"#utility.yul\":33858:34083   */\n    tag_398:\n        /* \"#utility.yul\":33998:34032   */\n      0x4f776e61626c653a206e6577206f776e657220697320746865207a65726f2061\n        /* \"#utility.yul\":33994:33995   */\n      0x00\n        /* \"#utility.yul\":33986:33992   */\n      dup3\n        /* \"#utility.yul\":33982:33996   */\n      add\n        /* \"#utility.yul\":33975:34033   */\n      mstore\n        /* \"#utility.yul\":34067:34075   */\n      0x6464726573730000000000000000000000000000000000000000000000000000\n        /* \"#utility.yul\":34062:34064   */\n      0x20\n        /* \"#utility.yul\":34054:34060   */\n      dup3\n        /* \"#utility.yul\":34050:34065   */\n      add\n        /* \"#utility.yul\":34043:34076   */\n      mstore\n        /* \"#utility.yul\":33858:34083   */\n      pop\n      jump\t// out\n        /* \"#utility.yul\":34089:34455   */\n    tag_399:\n        /* \"#utility.yul\":34231:34234   */\n      0x00\n        /* \"#utility.yul\":34252:34319   */\n      tag_750\n        /* \"#utility.yul\":34316:34318   */\n      0x26\n        /* \"#utility.yul\":34311:34314   */\n      dup4\n        /* \"#utility.yul\":34252:34319   */\n      tag_384\n      jump\t// in\n    tag_750:\n        /* \"#utility.yul\":34245:34319   */\n      swap2\n      pop\n        /* \"#utility.yul\":34328:34421   */\n      tag_751\n        /* \"#utility.yul\":34417:34420   */\n      dup3\n        /* \"#utility.yul\":34328:34421   */\n      tag_398\n      jump\t// in\n    tag_751:\n        /* \"#utility.yul\":34446:34448   */\n      0x40\n        /* \"#utility.yul\":34441:34444   */\n      dup3\n        /* \"#utility.yul\":34437:34449   */\n      add\n        /* \"#utility.yul\":34430:34449   */\n      swap1\n      pop\n        /* \"#utility.yul\":34089:34455   */\n      swap2\n      swap1\n      pop\n      jump\t// out\n        /* \"#utility.yul\":34461:34880   */\n    tag_209:\n        /* \"#utility.yul\":34627:34631   */\n      0x00\n        /* \"#utility.yul\":34665:34667   */\n      0x20\n        /* \"#utility.yul\":34654:34663   */\n      dup3\n        /* \"#utility.yul\":34650:34668   */\n      add\n        /* \"#utility.yul\":34642:34668   */\n      swap1\n      pop\n        /* \"#utility.yul\":34714:34723   */\n      dup2\n        /* \"#utility.yul\":34708:34712   */\n      dup2\n        /* \"#utility.yul\":34704:34724   */\n      sub\n        /* \"#utility.yul\":34700:34701   */\n      0x00\n        /* \"#utility.yul\":34689:34698   */\n      dup4\n        /* \"#utility.yul\":34685:34702   */\n      add\n        /* \"#utility.yul\":34678:34725   */\n      mstore\n        /* \"#utility.yul\":34742:34873   */\n      tag_753\n        /* \"#utility.yul\":34868:34872   */\n      dup2\n        /* \"#utility.yul\":34742:34873   */\n      tag_399\n      jump\t// in\n    tag_753:\n        /* \"#utility.yul\":34734:34873   */\n      swap1\n      pop\n        /* \"#utility.yul\":34461:34880   */\n      swap2\n      swap1\n      pop\n      jump\t// out\n        /* \"#utility.yul\":34886:35068   */\n    tag_400:\n        /* \"#utility.yul\":35026:35060   */\n      0x4f776e61626c653a2063616c6c6572206973206e6f7420746865206f776e6572\n        /* \"#utility.yul\":35022:35023   */\n      0x00\n        /* \"#utility.yul\":35014:35020   */\n      dup3\n        /* \"#utility.yul\":35010:35024   */\n      add\n        /* \"#utility.yul\":35003:35061   */\n      mstore\n        /* \"#utility.yul\":34886:35068   */\n      pop\n      jump\t// out\n        /* \"#utility.yul\":35074:35440   */\n    tag_401:\n        /* \"#utility.yul\":35216:35219   */\n      0x00\n        /* \"#utility.yul\":35237:35304   */\n      tag_756\n        /* \"#utility.yul\":35301:35303   */\n      0x20\n        /* \"#utility.yul\":35296:35299   */\n      dup4\n        /* \"#utility.yul\":35237:35304   */\n      tag_384\n      jump\t// in\n    tag_756:\n        /* \"#utility.yul\":35230:35304   */\n      swap2\n      pop\n        /* \"#utility.yul\":35313:35406   */\n      tag_757\n        /* \"#utility.yul\":35402:35405   */\n      dup3\n        /* \"#utility.yul\":35313:35406   */\n      tag_400\n      jump\t// in\n    tag_757:\n        /* \"#utility.yul\":35431:35433   */\n      0x20\n        /* \"#utility.yul\":35426:35429   */\n      dup3\n        /* \"#utility.yul\":35422:35434   */\n      add\n        /* \"#utility.yul\":35415:35434   */\n      swap1\n      pop\n        /* \"#utility.yul\":35074:35440   */\n      swap2\n      swap1\n      pop\n      jump\t// out\n        /* \"#utility.yul\":35446:35865   */\n    tag_230:\n        /* \"#utility.yul\":35612:35616   */\n      0x00\n        /* \"#utility.yul\":35650:35652   */\n      0x20\n        /* \"#utility.yul\":35639:35648   */\n      dup3\n        /* \"#utility.yul\":35635:35653   */\n      add\n        /* \"#utility.yul\":35627:35653   */\n      swap1\n      pop\n        /* \"#utility.yul\":35699:35708   */\n      dup2\n        /* \"#utility.yul\":35693:35697   */\n      dup2\n        /* \"#utility.yul\":35689:35709   */\n      sub\n        /* \"#utility.yul\":35685:35686   */\n      0x00\n        /* \"#utility.yul\":35674:35683   */\n      dup4\n        /* \"#utility.yul\":35670:35687   */\n      add\n        /* \"#utility.yul\":35663:35710   */\n      mstore\n        /* \"#utility.yul\":35727:35858   */\n      tag_759\n        /* \"#utility.yul\":35853:35857   */\n      dup2\n        /* \"#utility.yul\":35727:35858   */\n      tag_401\n      jump\t// in\n    tag_759:\n        /* \"#utility.yul\":35719:35858   */\n      swap1\n      pop\n        /* \"#utility.yul\":35446:35865   */\n      swap2\n      swap1\n      pop\n      jump\t// out\n        /* \"#utility.yul\":35871:36019   */\n    tag_402:\n        /* \"#utility.yul\":35973:35984   */\n      0x00\n        /* \"#utility.yul\":36010:36013   */\n      dup2\n        /* \"#utility.yul\":35995:36013   */\n      swap1\n      pop\n        /* \"#utility.yul\":35871:36019   */\n      swap3\n      swap2\n      pop\n      pop\n      jump\t// out\n        /* \"#utility.yul\":36025:36198   */\n    tag_403:\n        /* \"#utility.yul\":36165:36190   */\n      0x416363657373436f6e74726f6c3a206163636f756e7420000000000000000000\n        /* \"#utility.yul\":36161:36162   */\n      0x00\n        /* \"#utility.yul\":36153:36159   */\n      dup3\n        /* \"#utility.yul\":36149:36163   */\n      add\n        /* \"#utility.yul\":36142:36191   */\n      mstore\n        /* \"#utility.yul\":36025:36198   */\n      pop\n      jump\t// out\n        /* \"#utility.yul\":36204:36606   */\n    tag_404:\n        /* \"#utility.yul\":36364:36367   */\n      0x00\n        /* \"#utility.yul\":36385:36470   */\n      tag_763\n        /* \"#utility.yul\":36467:36469   */\n      0x17\n        /* \"#utility.yul\":36462:36465   */\n      dup4\n        /* \"#utility.yul\":36385:36470   */\n      tag_402\n      jump\t// in\n    tag_763:\n        /* \"#utility.yul\":36378:36470   */\n      swap2\n      pop\n        /* \"#utility.yul\":36479:36572   */\n      tag_764\n        /* \"#utility.yul\":36568:36571   */\n      dup3\n        /* \"#utility.yul\":36479:36572   */\n      tag_403\n      jump\t// in\n    tag_764:\n        /* \"#utility.yul\":36597:36599   */\n      0x17\n        /* \"#utility.yul\":36592:36595   */\n      dup3\n        /* \"#utility.yul\":36588:36600   */\n      add\n        /* \"#utility.yul\":36581:36600   */\n      swap1\n      pop\n        /* \"#utility.yul\":36204:36606   */\n      swap2\n      swap1\n      pop\n      jump\t// out\n        /* \"#utility.yul\":36612:37002   */\n    tag_405:\n        /* \"#utility.yul\":36718:36721   */\n      0x00\n        /* \"#utility.yul\":36746:36785   */\n      tag_766\n        /* \"#utility.yul\":36779:36784   */\n      dup3\n        /* \"#utility.yul\":36746:36785   */\n      tag_334\n      jump\t// in\n    tag_766:\n        /* \"#utility.yul\":36801:36890   */\n      tag_767\n        /* \"#utility.yul\":36883:36889   */\n      dup2\n        /* \"#utility.yul\":36878:36881   */\n      dup6\n        /* \"#utility.yul\":36801:36890   */\n      tag_402\n      jump\t// in\n    tag_767:\n        /* \"#utility.yul\":36794:36890   */\n      swap4\n      pop\n        /* \"#utility.yul\":36899:36964   */\n      tag_768\n        /* \"#utility.yul\":36957:36963   */\n      dup2\n        /* \"#utility.yul\":36952:36955   */\n      dup6\n        /* \"#utility.yul\":36945:36949   */\n      0x20\n        /* \"#utility.yul\":36938:36943   */\n      dup7\n        /* \"#utility.yul\":36934:36950   */\n      add\n        /* \"#utility.yul\":36899:36964   */\n      tag_336\n      jump\t// in\n    tag_768:\n        /* \"#utility.yul\":36989:36995   */\n      dup1\n        /* \"#utility.yul\":36984:36987   */\n      dup5\n        /* \"#utility.yul\":36980:36996   */\n      add\n        /* \"#utility.yul\":36973:36996   */\n      swap2\n      pop\n        /* \"#utility.yul\":36722:37002   */\n      pop\n        /* \"#utility.yul\":36612:37002   */\n      swap3\n      swap2\n      pop\n      pop\n      jump\t// out\n        /* \"#utility.yul\":37008:37175   */\n    tag_406:\n        /* \"#utility.yul\":37148:37167   */\n      0x206973206d697373696e6720726f6c6520000000000000000000000000000000\n        /* \"#utility.yul\":37144:37145   */\n      0x00\n        /* \"#utility.yul\":37136:37142   */\n      dup3\n        /* \"#utility.yul\":37132:37146   */\n      add\n        /* \"#utility.yul\":37125:37168   */\n      mstore\n        /* \"#utility.yul\":37008:37175   */\n      pop\n      jump\t// out\n        /* \"#utility.yul\":37181:37583   */\n    tag_407:\n        /* \"#utility.yul\":37341:37344   */\n      0x00\n        /* \"#utility.yul\":37362:37447   */\n      tag_771\n        /* \"#utility.yul\":37444:37446   */\n      0x11\n        /* \"#utility.yul\":37439:37442   */\n      dup4\n        /* \"#utility.yul\":37362:37447   */\n      tag_402\n      jump\t// in\n    tag_771:\n        /* \"#utility.yul\":37355:37447   */\n      swap2\n      pop\n        /* \"#utility.yul\":37456:37549   */\n      tag_772\n        /* \"#utility.yul\":37545:37548   */\n      dup3\n        /* \"#utility.yul\":37456:37549   */\n      tag_406\n      jump\t// in\n    tag_772:\n        /* \"#utility.yul\":37574:37576   */\n      0x11\n        /* \"#utility.yul\":37569:37572   */\n      dup3\n        /* \"#utility.yul\":37565:37577   */\n      add\n        /* \"#utility.yul\":37558:37577   */\n      swap1\n      pop\n        /* \"#utility.yul\":37181:37583   */\n      swap2\n      swap1\n      pop\n      jump\t// out\n        /* \"#utility.yul\":37589:38556   */\n    tag_240:\n        /* \"#utility.yul\":37971:37974   */\n      0x00\n        /* \"#utility.yul\":37993:38141   */\n      tag_774\n        /* \"#utility.yul\":38137:38140   */\n      dup3\n        /* \"#utility.yul\":37993:38141   */\n      tag_404\n      jump\t// in\n    tag_774:\n        /* \"#utility.yul\":37986:38141   */\n      swap2\n      pop\n        /* \"#utility.yul\":38158:38253   */\n      tag_775\n        /* \"#utility.yul\":38249:38252   */\n      dup3\n        /* \"#utility.yul\":38240:38246   */\n      dup6\n        /* \"#utility.yul\":38158:38253   */\n      tag_405\n      jump\t// in\n    tag_775:\n        /* \"#utility.yul\":38151:38253   */\n      swap2\n      pop\n        /* \"#utility.yul\":38270:38418   */\n      tag_776\n        /* \"#utility.yul\":38414:38417   */\n      dup3\n        /* \"#utility.yul\":38270:38418   */\n      tag_407\n      jump\t// in\n    tag_776:\n        /* \"#utility.yul\":38263:38418   */\n      swap2\n      pop\n        /* \"#utility.yul\":38435:38530   */\n      tag_777\n        /* \"#utility.yul\":38526:38529   */\n      dup3\n        /* \"#utility.yul\":38517:38523   */\n      dup5\n        /* \"#utility.yul\":38435:38530   */\n      tag_405\n      jump\t// in\n    tag_777:\n        /* \"#utility.yul\":38428:38530   */\n      swap2\n      pop\n        /* \"#utility.yul\":38547:38550   */\n      dup2\n        /* \"#utility.yul\":38540:38550   */\n      swap1\n      pop\n        /* \"#utility.yul\":37589:38556   */\n      swap4\n      swap3\n      pop\n      pop\n      pop\n      jump\t// out\n        /* \"#utility.yul\":38562:38939   */\n    tag_408:\n        /* \"#utility.yul\":38650:38653   */\n      0x00\n        /* \"#utility.yul\":38678:38717   */\n      tag_779\n        /* \"#utility.yul\":38711:38716   */\n      dup3\n        /* \"#utility.yul\":38678:38717   */\n      tag_334\n      jump\t// in\n    tag_779:\n        /* \"#utility.yul\":38733:38804   */\n      tag_780\n        /* \"#utility.yul\":38797:38803   */\n      dup2\n        /* \"#utility.yul\":38792:38795   */\n      dup6\n        /* \"#utility.yul\":38733:38804   */\n      tag_384\n      jump\t// in\n    tag_780:\n        /* \"#utility.yul\":38726:38804   */\n      swap4\n      pop\n        /* \"#utility.yul\":38813:38878   */\n      tag_781\n        /* \"#utility.yul\":38871:38877   */\n      dup2\n        /* \"#utility.yul\":38866:38869   */\n      dup6\n        /* \"#utility.yul\":38859:38863   */\n      0x20\n        /* \"#utility.yul\":38852:38857   */\n      dup7\n        /* \"#utility.yul\":38848:38864   */\n      add\n        /* \"#utility.yul\":38813:38878   */\n      tag_336\n      jump\t// in\n    tag_781:\n        /* \"#utility.yul\":38903:38932   */\n      tag_782\n        /* \"#utility.yul\":38925:38931   */\n      dup2\n        /* \"#utility.yul\":38903:38932   */\n      tag_337\n      jump\t// in\n    tag_782:\n        /* \"#utility.yul\":38898:38901   */\n      dup5\n        /* \"#utility.yul\":38894:38933   */\n      add\n        /* \"#utility.yul\":38887:38933   */\n      swap2\n      pop\n        /* \"#utility.yul\":38654:38939   */\n      pop\n        /* \"#utility.yul\":38562:38939   */\n      swap3\n      swap2\n      pop\n      pop\n      jump\t// out\n        /* \"#utility.yul\":38945:39258   */\n    tag_242:\n        /* \"#utility.yul\":39058:39062   */\n      0x00\n        /* \"#utility.yul\":39096:39098   */\n      0x20\n        /* \"#utility.yul\":39085:39094   */\n      dup3\n        /* \"#utility.yul\":39081:39099   */\n      add\n        /* \"#utility.yul\":39073:39099   */\n      swap1\n      pop\n        /* \"#utility.yul\":39145:39154   */\n      dup2\n        /* \"#utility.yul\":39139:39143   */\n      dup2\n        /* \"#utility.yul\":39135:39155   */\n      sub\n        /* \"#utility.yul\":39131:39132   */\n      0x00\n        /* \"#utility.yul\":39120:39129   */\n      dup4\n        /* \"#utility.yul\":39116:39133   */\n      add\n        /* \"#utility.yul\":39109:39156   */\n      mstore\n        /* \"#utility.yul\":39173:39251   */\n      tag_784\n        /* \"#utility.yul\":39246:39250   */\n      dup2\n        /* \"#utility.yul\":39237:39243   */\n      dup5\n        /* \"#utility.yul\":39173:39251   */\n      tag_408\n      jump\t// in\n    tag_784:\n        /* \"#utility.yul\":39165:39251   */\n      swap1\n      pop\n        /* \"#utility.yul\":38945:39258   */\n      swap3\n      swap2\n      pop\n      pop\n      jump\t// out\n        /* \"#utility.yul\":39264:39341   */\n    tag_409:\n        /* \"#utility.yul\":39301:39308   */\n      0x00\n        /* \"#utility.yul\":39330:39335   */\n      dup2\n        /* \"#utility.yul\":39319:39335   */\n      swap1\n      pop\n        /* \"#utility.yul\":39264:39341   */\n      swap2\n      swap1\n      pop\n      jump\t// out\n        /* \"#utility.yul\":39347:39527   */\n    tag_410:\n        /* \"#utility.yul\":39395:39472   */\n      0x4e487b7100000000000000000000000000000000000000000000000000000000\n        /* \"#utility.yul\":39392:39393   */\n      0x00\n        /* \"#utility.yul\":39385:39473   */\n      mstore\n        /* \"#utility.yul\":39492:39496   */\n      0x11\n        /* \"#utility.yul\":39489:39490   */\n      0x04\n        /* \"#utility.yul\":39482:39497   */\n      mstore\n        /* \"#utility.yul\":39516:39520   */\n      0x24\n        /* \"#utility.yul\":39513:39514   */\n      0x00\n        /* \"#utility.yul\":39506:39521   */\n      revert\n        /* \"#utility.yul\":39533:39943   */\n    tag_247:\n        /* \"#utility.yul\":39573:39580   */\n      0x00\n        /* \"#utility.yul\":39596:39616   */\n      tag_788\n        /* \"#utility.yul\":39614:39615   */\n      dup3\n        /* \"#utility.yul\":39596:39616   */\n      tag_409\n      jump\t// in\n    tag_788:\n        /* \"#utility.yul\":39591:39616   */\n      swap2\n      pop\n        /* \"#utility.yul\":39630:39650   */\n      tag_789\n        /* \"#utility.yul\":39648:39649   */\n      dup4\n        /* \"#utility.yul\":39630:39650   */\n      tag_409\n      jump\t// in\n    tag_789:\n        /* \"#utility.yul\":39625:39650   */\n      swap3\n      pop\n        /* \"#utility.yul\":39685:39686   */\n      dup3\n        /* \"#utility.yul\":39682:39683   */\n      dup3\n        /* \"#utility.yul\":39678:39687   */\n      mul\n        /* \"#utility.yul\":39707:39737   */\n      tag_790\n        /* \"#utility.yul\":39725:39736   */\n      dup2\n        /* \"#utility.yul\":39707:39737   */\n      tag_409\n      jump\t// in\n    tag_790:\n        /* \"#utility.yul\":39696:39737   */\n      swap2\n      pop\n        /* \"#utility.yul\":39886:39887   */\n      dup3\n        /* \"#utility.yul\":39877:39884   */\n      dup3\n        /* \"#utility.yul\":39873:39888   */\n      div\n        /* \"#utility.yul\":39870:39871   */\n      dup5\n        /* \"#utility.yul\":39867:39889   */\n      eq\n        /* \"#utility.yul\":39847:39848   */\n      dup4\n        /* \"#utility.yul\":39840:39849   */\n      iszero\n        /* \"#utility.yul\":39820:39903   */\n      or\n        /* \"#utility.yul\":39797:39936   */\n      tag_791\n      jumpi\n        /* \"#utility.yul\":39916:39934   */\n      tag_792\n      tag_410\n      jump\t// in\n    tag_792:\n        /* \"#utility.yul\":39797:39936   */\n    tag_791:\n        /* \"#utility.yul\":39581:39943   */\n      pop\n        /* \"#utility.yul\":39533:39943   */\n      swap3\n      swap2\n      pop\n      pop\n      jump\t// out\n        /* \"#utility.yul\":39949:40140   */\n    tag_249:\n        /* \"#utility.yul\":39989:39992   */\n      0x00\n        /* \"#utility.yul\":40008:40028   */\n      tag_794\n        /* \"#utility.yul\":40026:40027   */\n      dup3\n        /* \"#utility.yul\":40008:40028   */\n      tag_409\n      jump\t// in\n    tag_794:\n        /* \"#utility.yul\":40003:40028   */\n      swap2\n      pop\n        /* \"#utility.yul\":40042:40062   */\n      tag_795\n        /* \"#utility.yul\":40060:40061   */\n      dup4\n        /* \"#utility.yul\":40042:40062   */\n      tag_409\n      jump\t// in\n    tag_795:\n        /* \"#utility.yul\":40037:40062   */\n      swap3\n      pop\n        /* \"#utility.yul\":40085:40086   */\n      dup3\n        /* \"#utility.yul\":40082:40083   */\n      dup3\n        /* \"#utility.yul\":40078:40087   */\n      add\n        /* \"#utility.yul\":40071:40087   */\n      swap1\n      pop\n        /* \"#utility.yul\":40106:40109   */\n      dup1\n        /* \"#utility.yul\":40103:40104   */\n      dup3\n        /* \"#utility.yul\":40100:40110   */\n      gt\n        /* \"#utility.yul\":40097:40133   */\n      iszero\n      tag_796\n      jumpi\n        /* \"#utility.yul\":40113:40131   */\n      tag_797\n      tag_410\n      jump\t// in\n    tag_797:\n        /* \"#utility.yul\":40097:40133   */\n    tag_796:\n        /* \"#utility.yul\":39949:40140   */\n      swap3\n      swap2\n      pop\n      pop\n      jump\t// out\n        /* \"#utility.yul\":40146:40326   */\n    tag_256:\n        /* \"#utility.yul\":40194:40271   */\n      0x4e487b7100000000000000000000000000000000000000000000000000000000\n        /* \"#utility.yul\":40191:40192   */\n      0x00\n        /* \"#utility.yul\":40184:40272   */\n      mstore\n        /* \"#utility.yul\":40291:40295   */\n      0x32\n        /* \"#utility.yul\":40288:40289   */\n      0x04\n        /* \"#utility.yul\":40281:40296   */\n      mstore\n        /* \"#utility.yul\":40315:40319   */\n      0x24\n        /* \"#utility.yul\":40312:40313   */\n      0x00\n        /* \"#utility.yul\":40305:40320   */\n      revert\n        /* \"#utility.yul\":40332:40503   */\n    tag_269:\n        /* \"#utility.yul\":40371:40374   */\n      0x00\n        /* \"#utility.yul\":40394:40418   */\n      tag_800\n        /* \"#utility.yul\":40412:40417   */\n      dup3\n        /* \"#utility.yul\":40394:40418   */\n      tag_409\n      jump\t// in\n    tag_800:\n        /* \"#utility.yul\":40385:40418   */\n      swap2\n      pop\n        /* \"#utility.yul\":40440:40444   */\n      0x00\n        /* \"#utility.yul\":40433:40438   */\n      dup3\n        /* \"#utility.yul\":40430:40445   */\n      sub\n        /* \"#utility.yul\":40427:40468   */\n      tag_801\n      jumpi\n        /* \"#utility.yul\":40448:40466   */\n      tag_802\n      tag_410\n      jump\t// in\n    tag_802:\n        /* \"#utility.yul\":40427:40468   */\n    tag_801:\n        /* \"#utility.yul\":40495:40496   */\n      0x01\n        /* \"#utility.yul\":40488:40493   */\n      dup3\n        /* \"#utility.yul\":40484:40497   */\n      sub\n        /* \"#utility.yul\":40477:40497   */\n      swap1\n      pop\n        /* \"#utility.yul\":40332:40503   */\n      swap2\n      swap1\n      pop\n      jump\t// out\n        /* \"#utility.yul\":40509:40691   */\n    tag_411:\n        /* \"#utility.yul\":40649:40683   */\n      0x537472696e67733a20686578206c656e67746820696e73756666696369656e74\n        /* \"#utility.yul\":40645:40646   */\n      0x00\n        /* \"#utility.yul\":40637:40643   */\n      dup3\n        /* \"#utility.yul\":40633:40647   */\n      add\n        /* \"#utility.yul\":40626:40684   */\n      mstore\n        /* \"#utility.yul\":40509:40691   */\n      pop\n      jump\t// out\n        /* \"#utility.yul\":40697:41063   */\n    tag_412:\n        /* \"#utility.yul\":40839:40842   */\n      0x00\n        /* \"#utility.yul\":40860:40927   */\n      tag_805\n        /* \"#utility.yul\":40924:40926   */\n      0x20\n        /* \"#utility.yul\":40919:40922   */\n      dup4\n        /* \"#utility.yul\":40860:40927   */\n      tag_384\n      jump\t// in\n    tag_805:\n        /* \"#utility.yul\":40853:40927   */\n      swap2\n      pop\n        /* \"#utility.yul\":40936:41029   */\n      tag_806\n        /* \"#utility.yul\":41025:41028   */\n      dup3\n        /* \"#utility.yul\":40936:41029   */\n      tag_411\n      jump\t// in\n    tag_806:\n        /* \"#utility.yul\":41054:41056   */\n      0x20\n        /* \"#utility.yul\":41049:41052   */\n      dup3\n        /* \"#utility.yul\":41045:41057   */\n      add\n        /* \"#utility.yul\":41038:41057   */\n      swap1\n      pop\n        /* \"#utility.yul\":40697:41063   */\n      swap2\n      swap1\n      pop\n      jump\t// out\n        /* \"#utility.yul\":41069:41488   */\n    tag_272:\n        /* \"#utility.yul\":41235:41239   */\n      0x00\n        /* \"#utility.yul\":41273:41275   */\n      0x20\n        /* \"#utility.yul\":41262:41271   */\n      dup3\n        /* \"#utility.yul\":41258:41276   */\n      add\n        /* \"#utility.yul\":41250:41276   */\n      swap1\n      pop\n        /* \"#utility.yul\":41322:41331   */\n      dup2\n        /* \"#utility.yul\":41316:41320   */\n      dup2\n        /* \"#utility.yul\":41312:41332   */\n      sub\n        /* \"#utility.yul\":41308:41309   */\n      0x00\n        /* \"#utility.yul\":41297:41306   */\n      dup4\n        /* \"#utility.yul\":41293:41310   */\n      add\n        /* \"#utility.yul\":41286:41333   */\n      mstore\n        /* \"#utility.yul\":41350:41481   */\n      tag_808\n        /* \"#utility.yul\":41476:41480   */\n      dup2\n        /* \"#utility.yul\":41350:41481   */\n      tag_412\n      jump\t// in\n    tag_808:\n        /* \"#utility.yul\":41342:41481   */\n      swap1\n      pop\n        /* \"#utility.yul\":41069:41488   */\n      swap2\n      swap1\n      pop\n      jump\t// out\n        /* \"#utility.yul\":41494:41635   */\n    tag_413:\n        /* \"#utility.yul\":41543:41547   */\n      0x00\n        /* \"#utility.yul\":41566:41569   */\n      dup2\n        /* \"#utility.yul\":41558:41569   */\n      swap1\n      pop\n        /* \"#utility.yul\":41589:41592   */\n      dup2\n        /* \"#utility.yul\":41586:41587   */\n      0x00\n        /* \"#utility.yul\":41579:41593   */\n      mstore\n        /* \"#utility.yul\":41623:41627   */\n      0x20\n        /* \"#utility.yul\":41620:41621   */\n      0x00\n        /* \"#utility.yul\":41610:41628   */\n      keccak256\n        /* \"#utility.yul\":41602:41628   */\n      swap1\n      pop\n        /* \"#utility.yul\":41494:41635   */\n      swap2\n      swap1\n      pop\n      jump\t// out\n        /* \"#utility.yul\":41641:41734   */\n    tag_414:\n        /* \"#utility.yul\":41678:41684   */\n      0x00\n        /* \"#utility.yul\":41725:41727   */\n      0x20\n        /* \"#utility.yul\":41720:41722   */\n      0x1f\n        /* \"#utility.yul\":41713:41718   */\n      dup4\n        /* \"#utility.yul\":41709:41723   */\n      add\n        /* \"#utility.yul\":41705:41728   */\n      div\n        /* \"#utility.yul\":41695:41728   */\n      swap1\n      pop\n        /* \"#utility.yul\":41641:41734   */\n      swap2\n      swap1\n      pop\n      jump\t// out\n        /* \"#utility.yul\":41740:41847   */\n    tag_415:\n        /* \"#utility.yul\":41784:41792   */\n      0x00\n        /* \"#utility.yul\":41834:41839   */\n      dup3\n        /* \"#utility.yul\":41828:41832   */\n      dup3\n        /* \"#utility.yul\":41824:41840   */\n      shl\n        /* \"#utility.yul\":41803:41840   */\n      swap1\n      pop\n        /* \"#utility.yul\":41740:41847   */\n      swap3\n      swap2\n      pop\n      pop\n      jump\t// out\n        /* \"#utility.yul\":41853:42246   */\n    tag_416:\n        /* \"#utility.yul\":41922:41928   */\n      0x00\n        /* \"#utility.yul\":41972:41973   */\n      0x08\n        /* \"#utility.yul\":41960:41970   */\n      dup4\n        /* \"#utility.yul\":41956:41974   */\n      mul\n        /* \"#utility.yul\":41995:42092   */\n      tag_813\n        /* \"#utility.yul\":42025:42091   */\n      0xffffffffffffffffffffffffffffffffffffffffffffffffffffffffffffffff\n        /* \"#utility.yul\":42014:42023   */\n      dup3\n        /* \"#utility.yul\":41995:42092   */\n      tag_415\n      jump\t// in\n    tag_813:\n        /* \"#utility.yul\":42113:42152   */\n      tag_814\n        /* \"#utility.yul\":42143:42151   */\n      dup7\n        /* \"#utility.yul\":42132:42141   */\n      dup4\n        /* \"#utility.yul\":42113:42152   */\n      tag_415\n      jump\t// in\n    tag_814:\n        /* \"#utility.yul\":42101:42152   */\n      swap6\n      pop\n        /* \"#utility.yul\":42185:42189   */\n      dup1\n        /* \"#utility.yul\":42181:42190   */\n      not\n        /* \"#utility.yul\":42174:42179   */\n      dup5\n        /* \"#utility.yul\":42170:42191   */\n      and\n        /* \"#utility.yul\":42161:42191   */\n      swap4\n      pop\n        /* \"#utility.yul\":42234:42238   */\n      dup1\n        /* \"#utility.yul\":42224:42232   */\n      dup7\n        /* \"#utility.yul\":42220:42239   */\n      and\n        /* \"#utility.yul\":42213:42218   */\n      dup5\n        /* \"#utility.yul\":42210:42240   */\n      or\n        /* \"#utility.yul\":42200:42240   */\n      swap3\n      pop\n        /* \"#utility.yul\":41929:42246   */\n      pop\n      pop\n        /* \"#utility.yul\":41853:42246   */\n      swap4\n      swap3\n      pop\n      pop\n      pop\n      jump\t// out\n        /* \"#utility.yul\":42252:42312   */\n    tag_417:\n        /* \"#utility.yul\":42280:42283   */\n      0x00\n        /* \"#utility.yul\":42301:42306   */\n      dup2\n        /* \"#utility.yul\":42294:42306   */\n      swap1\n      pop\n        /* \"#utility.yul\":42252:42312   */\n      swap2\n      swap1\n      pop\n      jump\t// out\n        /* \"#utility.yul\":42318:42460   */\n    tag_418:\n        /* \"#utility.yul\":42368:42377   */\n      0x00\n        /* \"#utility.yul\":42401:42454   */\n      tag_817\n        /* \"#utility.yul\":42419:42453   */\n      tag_818\n        /* \"#utility.yul\":42428:42452   */\n      tag_819\n        /* \"#utility.yul\":42446:42451   */\n      dup5\n        /* \"#utility.yul\":42428:42452   */\n      tag_409\n      jump\t// in\n    tag_819:\n        /* \"#utility.yul\":42419:42453   */\n      tag_417\n      jump\t// in\n    tag_818:\n        /* \"#utility.yul\":42401:42454   */\n      tag_409\n      jump\t// in\n    tag_817:\n        /* \"#utility.yul\":42388:42454   */\n      swap1\n      pop\n        /* \"#utility.yul\":42318:42460   */\n      swap2\n      swap1\n      pop\n      jump\t// out\n        /* \"#utility.yul\":42466:42541   */\n    tag_419:\n        /* \"#utility.yul\":42509:42512   */\n      0x00\n        /* \"#utility.yul\":42530:42535   */\n      dup2\n        /* \"#utility.yul\":42523:42535   */\n      swap1\n      pop\n        /* \"#utility.yul\":42466:42541   */\n      swap2\n      swap1\n      pop\n      jump\t// out\n        /* \"#utility.yul\":42547:42816   */\n    tag_420:\n        /* \"#utility.yul\":42657:42696   */\n      tag_822\n        /* \"#utility.yul\":42688:42695   */\n      dup4\n        /* \"#utility.yul\":42657:42696   */\n      tag_418\n      jump\t// in\n    tag_822:\n        /* \"#utility.yul\":42718:42809   */\n      tag_823\n        /* \"#utility.yul\":42767:42808   */\n      tag_824\n        /* \"#utility.yul\":42791:42807   */\n      dup3\n        /* \"#utility.yul\":42767:42808   */\n      tag_419\n      jump\t// in\n    tag_824:\n        /* \"#utility.yul\":42759:42765   */\n      dup5\n        /* \"#utility.yul\":42752:42756   */\n      dup5\n        /* \"#utility.yul\":42746:42757   */\n      sload\n        /* \"#utility.yul\":42718:42809   */\n      tag_416\n      jump\t// in\n    tag_823:\n        /* \"#utility.yul\":42712:42716   */\n      dup3\n        /* \"#utility.yul\":42705:42810   */\n      sstore\n        /* \"#utility.yul\":42623:42816   */\n      pop\n        /* \"#utility.yul\":42547:42816   */\n      pop\n      pop\n      pop\n      jump\t// out\n        /* \"#utility.yul\":42822:42895   */\n    tag_421:\n        /* \"#utility.yul\":42867:42870   */\n      0x00\n        /* \"#utility.yul\":42822:42895   */\n      swap1\n      jump\t// out\n        /* \"#utility.yul\":42901:43090   */\n    tag_422:\n        /* \"#utility.yul\":42978:43010   */\n      tag_827\n      tag_421\n      jump\t// in\n    tag_827:\n        /* \"#utility.yul\":43019:43084   */\n      tag_828\n        /* \"#utility.yul\":43077:43083   */\n      dup2\n        /* \"#utility.yul\":43069:43075   */\n      dup5\n        /* \"#utility.yul\":43063:43067   */\n      dup5\n        /* \"#utility.yul\":43019:43084   */\n      tag_420\n      jump\t// in\n    tag_828:\n        /* \"#utility.yul\":42954:43090   */\n      pop\n        /* \"#utility.yul\":42901:43090   */\n      pop\n      pop\n      jump\t// out\n        /* \"#utility.yul\":43096:43282   */\n    tag_423:\n        /* \"#utility.yul\":43156:43276   */\n    tag_830:\n        /* \"#utility.yul\":43173:43176   */\n      dup2\n        /* \"#utility.yul\":43166:43171   */\n      dup2\n        /* \"#utility.yul\":43163:43177   */\n      lt\n        /* \"#utility.yul\":43156:43276   */\n      iszero\n      tag_832\n      jumpi\n        /* \"#utility.yul\":43227:43266   */\n      tag_833\n        /* \"#utility.yul\":43264:43265   */\n      0x00\n        /* \"#utility.yul\":43257:43262   */\n      dup3\n        /* \"#utility.yul\":43227:43266   */\n      tag_422\n      jump\t// in\n    tag_833:\n        /* \"#utility.yul\":43200:43201   */\n      0x01\n        /* \"#utility.yul\":43193:43198   */\n      dup2\n        /* \"#utility.yul\":43189:43202   */\n      add\n        /* \"#utility.yul\":43180:43202   */\n      swap1\n      pop\n        /* \"#utility.yul\":43156:43276   */\n      jump(tag_830)\n    tag_832:\n        /* \"#utility.yul\":43096:43282   */\n      pop\n      pop\n      jump\t// out\n        /* \"#utility.yul\":43288:43831   */\n    tag_424:\n        /* \"#utility.yul\":43389:43391   */\n      0x1f\n        /* \"#utility.yul\":43384:43387   */\n      dup3\n        /* \"#utility.yul\":43381:43392   */\n      gt\n        /* \"#utility.yul\":43378:43824   */\n      iszero\n      tag_835\n      jumpi\n        /* \"#utility.yul\":43423:43461   */\n      tag_836\n        /* \"#utility.yul\":43455:43460   */\n      dup2\n        /* \"#utility.yul\":43423:43461   */\n      tag_413\n      jump\t// in\n    tag_836:\n        /* \"#utility.yul\":43507:43536   */\n      tag_837\n        /* \"#utility.yul\":43525:43535   */\n      dup5\n        /* \"#utility.yul\":43507:43536   */\n      tag_414\n      jump\t// in\n    tag_837:\n        /* \"#utility.yul\":43497:43505   */\n      dup2\n        /* \"#utility.yul\":43493:43537   */\n      add\n        /* \"#utility.yul\":43690:43692   */\n      0x20\n        /* \"#utility.yul\":43678:43688   */\n      dup6\n        /* \"#utility.yul\":43675:43693   */\n      lt\n        /* \"#utility.yul\":43672:43721   */\n      iszero\n      tag_838\n      jumpi\n        /* \"#utility.yul\":43711:43719   */\n      dup2\n        /* \"#utility.yul\":43696:43719   */\n      swap1\n      pop\n        /* \"#utility.yul\":43672:43721   */\n    tag_838:\n        /* \"#utility.yul\":43734:43814   */\n      tag_839\n        /* \"#utility.yul\":43790:43812   */\n      tag_840\n        /* \"#utility.yul\":43808:43811   */\n      dup6\n        /* \"#utility.yul\":43790:43812   */\n      tag_414\n      jump\t// in\n    tag_840:\n        /* \"#utility.yul\":43780:43788   */\n      dup4\n        /* \"#utility.yul\":43776:43813   */\n      add\n        /* \"#utility.yul\":43763:43774   */\n      dup3\n        /* \"#utility.yul\":43734:43814   */\n      tag_423\n      jump\t// in\n    tag_839:\n        /* \"#utility.yul\":43393:43824   */\n      pop\n      pop\n        /* \"#utility.yul\":43378:43824   */\n    tag_835:\n        /* \"#utility.yul\":43288:43831   */\n      pop\n      pop\n      pop\n      jump\t// out\n        /* \"#utility.yul\":43837:43954   */\n    tag_425:\n        /* \"#utility.yul\":43891:43899   */\n      0x00\n        /* \"#utility.yul\":43941:43946   */\n      dup3\n        /* \"#utility.yul\":43935:43939   */\n      dup3\n        /* \"#utility.yul\":43931:43947   */\n      shr\n        /* \"#utility.yul\":43910:43947   */\n      swap1\n      pop\n        /* \"#utility.yul\":43837:43954   */\n      swap3\n      swap2\n      pop\n      pop\n      jump\t// out\n        /* \"#utility.yul\":43960:44129   */\n    tag_426:\n        /* \"#utility.yul\":44004:44010   */\n      0x00\n        /* \"#utility.yul\":44037:44088   */\n      tag_843\n        /* \"#utility.yul\":44085:44086   */\n      0x00\n        /* \"#utility.yul\":44081:44087   */\n      not\n        /* \"#utility.yul\":44073:44078   */\n      dup5\n        /* \"#utility.yul\":44070:44071   */\n      0x08\n        /* \"#utility.yul\":44066:44079   */\n      mul\n        /* \"#utility.yul\":44037:44088   */\n      tag_425\n      jump\t// in\n    tag_843:\n        /* \"#utility.yul\":44033:44089   */\n      not\n        /* \"#utility.yul\":44118:44122   */\n      dup1\n        /* \"#utility.yul\":44112:44116   */\n      dup4\n        /* \"#utility.yul\":44108:44123   */\n      and\n        /* \"#utility.yul\":44098:44123   */\n      swap2\n      pop\n        /* \"#utility.yul\":44011:44129   */\n      pop\n        /* \"#utility.yul\":43960:44129   */\n      swap3\n      swap2\n      pop\n      pop\n      jump\t// out\n        /* \"#utility.yul\":44134:44429   */\n    tag_427:\n        /* \"#utility.yul\":44210:44214   */\n      0x00\n        /* \"#utility.yul\":44356:44385   */\n      tag_845\n        /* \"#utility.yul\":44381:44384   */\n      dup4\n        /* \"#utility.yul\":44375:44379   */\n      dup4\n        /* \"#utility.yul\":44356:44385   */\n      tag_426\n      jump\t// in\n    tag_845:\n        /* \"#utility.yul\":44348:44385   */\n      swap2\n      pop\n        /* \"#utility.yul\":44418:44421   */\n      dup3\n        /* \"#utility.yul\":44415:44416   */\n      0x02\n        /* \"#utility.yul\":44411:44422   */\n      mul\n        /* \"#utility.yul\":44405:44409   */\n      dup3\n        /* \"#utility.yul\":44402:44423   */\n      or\n        /* \"#utility.yul\":44394:44423   */\n      swap1\n      pop\n        /* \"#utility.yul\":44134:44429   */\n      swap3\n      swap2\n      pop\n      pop\n      jump\t// out\n        /* \"#utility.yul\":44434:45829   */\n    tag_286:\n        /* \"#utility.yul\":44551:44588   */\n      tag_847\n        /* \"#utility.yul\":44584:44587   */\n      dup3\n        /* \"#utility.yul\":44551:44588   */\n      tag_334\n      jump\t// in\n    tag_847:\n        /* \"#utility.yul\":44653:44671   */\n      0xffffffffffffffff\n        /* \"#utility.yul\":44645:44651   */\n      dup2\n        /* \"#utility.yul\":44642:44672   */\n      gt\n        /* \"#utility.yul\":44639:44695   */\n      iszero\n      tag_848\n      jumpi\n        /* \"#utility.yul\":44675:44693   */\n      tag_849\n      tag_252\n      jump\t// in\n    tag_849:\n        /* \"#utility.yul\":44639:44695   */\n    tag_848:\n        /* \"#utility.yul\":44719:44757   */\n      tag_850\n        /* \"#utility.yul\":44751:44755   */\n      dup3\n        /* \"#utility.yul\":44745:44756   */\n      sload\n        /* \"#utility.yul\":44719:44757   */\n      tag_105\n      jump\t// in\n    tag_850:\n        /* \"#utility.yul\":44804:44871   */\n      tag_851\n        /* \"#utility.yul\":44864:44870   */\n      dup3\n        /* \"#utility.yul\":44856:44862   */\n      dup3\n        /* \"#utility.yul\":44850:44854   */\n      dup6\n        /* \"#utility.yul\":44804:44871   */\n      tag_424\n      jump\t// in\n    tag_851:\n        /* \"#utility.yul\":44898:44899   */\n      0x00\n        /* \"#utility.yul\":44922:44926   */\n      0x20\n        /* \"#utility.yul\":44909:44926   */\n      swap1\n      pop\n        /* \"#utility.yul\":44954:44956   */\n      0x1f\n        /* \"#utility.yul\":44946:44952   */\n      dup4\n        /* \"#utility.yul\":44943:44957   */\n      gt\n        /* \"#utility.yul\":44971:44972   */\n      0x01\n        /* \"#utility.yul\":44966:45584   */\n      dup2\n      eq\n      tag_853\n      jumpi\n        /* \"#utility.yul\":45628:45629   */\n      0x00\n        /* \"#utility.yul\":45645:45651   */\n      dup5\n        /* \"#utility.yul\":45642:45719   */\n      iszero\n      tag_854\n      jumpi\n        /* \"#utility.yul\":45694:45703   */\n      dup3\n        /* \"#utility.yul\":45689:45692   */\n      dup8\n        /* \"#utility.yul\":45685:45704   */\n      add\n        /* \"#utility.yul\":45679:45705   */\n      mload\n        /* \"#utility.yul\":45670:45705   */\n      swap1\n      pop\n        /* \"#utility.yul\":45642:45719   */\n    tag_854:\n        /* \"#utility.yul\":45745:45812   */\n      tag_855\n        /* \"#utility.yul\":45805:45811   */\n      dup6\n        /* \"#utility.yul\":45798:45803   */\n      dup3\n        /* \"#utility.yul\":45745:45812   */\n      tag_427\n      jump\t// in\n    tag_855:\n        /* \"#utility.yul\":45739:45743   */\n      dup7\n        /* \"#utility.yul\":45732:45813   */\n      sstore\n        /* \"#utility.yul\":45601:45823   */\n      pop\n        /* \"#utility.yul\":44936:45823   */\n      jump(tag_852)\n        /* \"#utility.yul\":44966:45584   */\n    tag_853:\n        /* \"#utility.yul\":45018:45022   */\n      0x1f\n        /* \"#utility.yul\":45014:45023   */\n      not\n        /* \"#utility.yul\":45006:45012   */\n      dup5\n        /* \"#utility.yul\":45002:45024   */\n      and\n        /* \"#utility.yul\":45052:45089   */\n      tag_856\n        /* \"#utility.yul\":45084:45088   */\n      dup7\n        /* \"#utility.yul\":45052:45089   */\n      tag_413\n      jump\t// in\n    tag_856:\n        /* \"#utility.yul\":45111:45112   */\n      0x00\n        /* \"#utility.yul\":45125:45333   */\n    tag_857:\n        /* \"#utility.yul\":45139:45146   */\n      dup3\n        /* \"#utility.yul\":45136:45137   */\n      dup2\n        /* \"#utility.yul\":45133:45147   */\n      lt\n        /* \"#utility.yul\":45125:45333   */\n      iszero\n      tag_859\n      jumpi\n        /* \"#utility.yul\":45218:45227   */\n      dup5\n        /* \"#utility.yul\":45213:45216   */\n      dup10\n        /* \"#utility.yul\":45209:45228   */\n      add\n        /* \"#utility.yul\":45203:45229   */\n      mload\n        /* \"#utility.yul\":45195:45201   */\n      dup3\n        /* \"#utility.yul\":45188:45230   */\n      sstore\n        /* \"#utility.yul\":45269:45270   */\n      0x01\n        /* \"#utility.yul\":45261:45267   */\n      dup3\n        /* \"#utility.yul\":45257:45271   */\n      add\n        /* \"#utility.yul\":45247:45271   */\n      swap2\n      pop\n        /* \"#utility.yul\":45316:45318   */\n      0x20\n        /* \"#utility.yul\":45305:45314   */\n      dup6\n        /* \"#utility.yul\":45301:45319   */\n      add\n        /* \"#utility.yul\":45288:45319   */\n      swap5\n      pop\n        /* \"#utility.yul\":45162:45166   */\n      0x20\n        /* \"#utility.yul\":45159:45160   */\n      dup2\n        /* \"#utility.yul\":45155:45167   */\n      add\n        /* \"#utility.yul\":45150:45167   */\n      swap1\n      pop\n        /* \"#utility.yul\":45125:45333   */\n      jump(tag_857)\n    tag_859:\n        /* \"#utility.yul\":45361:45367   */\n      dup7\n        /* \"#utility.yul\":45352:45359   */\n      dup4\n        /* \"#utility.yul\":45349:45368   */\n      lt\n        /* \"#utility.yul\":45346:45525   */\n      iszero\n      tag_860\n      jumpi\n        /* \"#utility.yul\":45419:45428   */\n      dup5\n        /* \"#utility.yul\":45414:45417   */\n      dup10\n        /* \"#utility.yul\":45410:45429   */\n      add\n        /* \"#utility.yul\":45404:45430   */\n      mload\n        /* \"#utility.yul\":45462:45510   */\n      tag_861\n        /* \"#utility.yul\":45504:45508   */\n      0x1f\n        /* \"#utility.yul\":45496:45502   */\n      dup10\n        /* \"#utility.yul\":45492:45509   */\n      and\n        /* \"#utility.yul\":45481:45490   */\n      dup3\n        /* \"#utility.yul\":45462:45510   */\n      tag_426\n      jump\t// in\n    tag_861:\n        /* \"#utility.yul\":45454:45460   */\n      dup4\n        /* \"#utility.yul\":45447:45511   */\n      sstore\n        /* \"#utility.yul\":45369:45525   */\n      pop\n        /* \"#utility.yul\":45346:45525   */\n    tag_860:\n        /* \"#utility.yul\":45571:45572   */\n      0x01\n        /* \"#utility.yul\":45567:45568   */\n      0x02\n        /* \"#utility.yul\":45559:45565   */\n      dup9\n        /* \"#utility.yul\":45555:45569   */\n      mul\n        /* \"#utility.yul\":45551:45573   */\n      add\n        /* \"#utility.yul\":45545:45549   */\n      dup9\n        /* \"#utility.yul\":45538:45574   */\n      sstore\n        /* \"#utility.yul\":44973:45584   */\n      pop\n      pop\n      pop\n        /* \"#utility.yul\":44936:45823   */\n    tag_852:\n      pop\n        /* \"#utility.yul\":44526:45829   */\n      pop\n      pop\n      pop\n        /* \"#utility.yul\":44434:45829   */\n      pop\n      pop\n      jump\t// out\n\n    auxdata: 0xa2646970667358221220171cb940c931f5827a574ac485e52ddac4e147af360d3158729aea7ab094095664736f6c63430008120033\n}\n",
				"bytecode": {
					"linkReferences": {},
					"object": "60806040523480156200001157600080fd5b5062000032620000266200006a60201b60201c565b6200007260201b60201c565b620000647fff4ed198c18ce05e59ff2bcb2e277f2554623dcb9ab1d05e463e435a930cc469336200013660201b60201c565b620002a8565b600033905090565b60008060009054906101000a900473ffffffffffffffffffffffffffffffffffffffff169050816000806101000a81548173ffffffffffffffffffffffffffffffffffffffff021916908373ffffffffffffffffffffffffffffffffffffffff1602179055508173ffffffffffffffffffffffffffffffffffffffff168173ffffffffffffffffffffffffffffffffffffffff167f8be0079c531659141344cd1fd0a4f28419497f9722a3daafe3b4186f6b6457e060405160405180910390a35050565b6200014882826200014c60201b60201c565b5050565b6200015e82826200023d60201b60201c565b6200023957600180600084815260200190815260200160002060000160008373ffffffffffffffffffffffffffffffffffffffff1673ffffffffffffffffffffffffffffffffffffffff16815260200190815260200160002060006101000a81548160ff021916908315150217905550620001de6200006a60201b60201c565b73ffffffffffffffffffffffffffffffffffffffff168173ffffffffffffffffffffffffffffffffffffffff16837f2f8788117e7eff1d82e926ec794901d17c78024a50270940304540a733656f0d60405160405180910390a45b5050565b60006001600084815260200190815260200160002060000160008373ffffffffffffffffffffffffffffffffffffffff1673ffffffffffffffffffffffffffffffffffffffff16815260200190815260200160002060009054906101000a900460ff16905092915050565b612ea380620002b86000396000f3fe608060405234801561001057600080fd5b506004361061010b5760003560e01c8063715018a6116100a2578063942af88a11610071578063942af88a146102a257806394b31219146102be578063a217fddf146102da578063d547741f146102f8578063f2fde38b146103145761010b565b8063715018a61461022e57806379abb058146102385780638da5cb5b1461025457806391d14854146102725761010b565b80632f2ff15d116100de5780632f2ff15d146101bc57806333a300e5146101d857806336568abe146101f657806347453643146102125761010b565b806301ffc9a71461011057806318bd4847146101405780631dbb554514610170578063248a9ca31461018c575b600080fd5b61012a60048036038101906101259190611873565b610330565b60405161013791906118bb565b60405180910390f35b61015a60048036038101906101559190611934565b6103aa565b6040516101679190611d1f565b60405180910390f35b61018a60048036038101906101859190611f4a565b610891565b005b6101a660048036038101906101a19190611fdc565b610966565b6040516101b39190612018565b60405180910390f35b6101d660048036038101906101d19190612033565b610986565b005b6101e06109a7565b6040516101ed9190612018565b60405180910390f35b610210600480360381019061020b9190612033565b6109cb565b005b61022c60048036038101906102279190612142565b610a4e565b005b610236610b23565b005b610252600480360381019061024d919061226d565b610b37565b005b61025c610c0c565b60405161026991906122d8565b60405180910390f35b61028c60048036038101906102879190612033565b610c35565b60405161029991906118bb565b60405180910390f35b6102bc60048036038101906102b791906123c2565b610ca0565b005b6102d860048036038101906102d39190611f4a565b610d75565b005b6102e2610e4a565b6040516102ef9190612018565b60405180910390f35b610312600480360381019061030d9190612033565b610e51565b005b61032e60048036038101906103299190611934565b610e72565b005b60007f7965db0b000000000000000000000000000000000000000000000000000000007bffffffffffffffffffffffffffffffffffffffffffffffffffffffff1916827bffffffffffffffffffffffffffffffffffffffffffffffffffffffff191614806103a357506103a282610ef5565b5b9050919050565b6103b261156d565b8173ffffffffffffffffffffffffffffffffffffffff163373ffffffffffffffffffffffffffffffffffffffff16148061041e57506103ef610c0c565b73ffffffffffffffffffffffffffffffffffffffff163373ffffffffffffffffffffffffffffffffffffffff16145b61045d576040517f08c379a00000000000000000000000000000000000000000000000000000000081526004016104549061247b565b60405180910390fd5b600260008373ffffffffffffffffffffffffffffffffffffffff1673ffffffffffffffffffffffffffffffffffffffff1681526020019081526020016000206040518060a001604052908160008201600680602002604051908101604052809291906000905b828210156105665783820180546104d9906124ca565b80601f0160208091040260200160405190810160405280929190818152602001828054610505906124ca565b80156105525780601f1061052757610100808354040283529160200191610552565b820191906000526020600020905b81548152906001019060200180831161053557829003601f168201915b5050505050815260200190600101906104c3565b50505050815260200160068201600780602002604051908101604052809291906000905b8282101561062d5783820180546105a0906124ca565b80601f01602080910402602001604051908101604052809291908181526020018280546105cc906124ca565b80156106195780601f106105ee57610100808354040283529160200191610619565b820191906000526020600020905b8154815290600101906020018083116105fc57829003601f168201915b50505050508152602001906001019061058a565b505050508152602001600d8201600380602002604051908101604052809291906000905b828210156106f4578382018054610667906124ca565b80601f0160208091040260200160405190810160405280929190818152602001828054610693906124ca565b80156106e05780601f106106b5576101008083540402835291602001916106e0565b820191906000526020600020905b8154815290600101906020018083116106c357829003601f168201915b505050505081526020019060010190610651565b50505050815260200160108201600280602002604051908101604052809291906000905b828210156107bb57838201805461072e906124ca565b80601f016020809104026020016040519081016040528092919081815260200182805461075a906124ca565b80156107a75780601f1061077c576101008083540402835291602001916107a7565b820191906000526020600020905b81548152906001019060200180831161078a57829003601f168201915b505050505081526020019060010190610718565b50505050815260200160128201600280602002604051908101604052809291906000905b828210156108825783820180546107f5906124ca565b80601f0160208091040260200160405190810160405280929190818152602001828054610821906124ca565b801561086e5780601f106108435761010080835404028352916020019161086e565b820191906000526020600020905b81548152906001019060200180831161085157829003601f168201915b5050505050815260200190600101906107df565b50505050815250509050919050565b7fff4ed198c18ce05e59ff2bcb2e277f2554623dcb9ab1d05e463e435a930cc4696108bb81610f5f565b6000600260008573ffffffffffffffffffffffffffffffffffffffff1673ffffffffffffffffffffffffffffffffffffffff168152602001908152602001600020905082816012019060026109119291906115ba565b508373ffffffffffffffffffffffffffffffffffffffff167ff82228d2fccbf51a6865c7ec1126d175433bfb90f6b576906c867f35a715d27b84604051610958919061257b565b60405180910390a250505050565b600060016000838152602001908152602001600020600101549050919050565b61098f82610966565b61099881610f5f565b6109a28383610f73565b505050565b7fff4ed198c18ce05e59ff2bcb2e277f2554623dcb9ab1d05e463e435a930cc46981565b6109d3611053565b73ffffffffffffffffffffffffffffffffffffffff168173ffffffffffffffffffffffffffffffffffffffff1614610a40576040517f08c379a0000000000000000000000000000000000000000000000000000000008152600401610a379061260f565b60405180910390fd5b610a4a828261105b565b5050565b7fff4ed198c18ce05e59ff2bcb2e277f2554623dcb9ab1d05e463e435a930cc469610a7881610f5f565b6000600260008573ffffffffffffffffffffffffffffffffffffffff1673ffffffffffffffffffffffffffffffffffffffff16815260200190815260200160002090508281600001906006610ace929190611606565b508373ffffffffffffffffffffffffffffffffffffffff167f12acbe46024a8132d84ea43e496a038ec0f837db140c6ce73470800455432d4184604051610b1591906126af565b60405180910390a250505050565b610b2b61113d565b610b3560006111bb565b565b7fff4ed198c18ce05e59ff2bcb2e277f2554623dcb9ab1d05e463e435a930cc469610b6181610f5f565b6000600260008573ffffffffffffffffffffffffffffffffffffffff1673ffffffffffffffffffffffffffffffffffffffff16815260200190815260200160002090508281600601906007610bb7929190611652565b508373ffffffffffffffffffffffffffffffffffffffff167fb8ea6d593dbf23af71cbf2ff48cf51834c051fa257185e2ba78199b004491cc884604051610bfe9190612751565b60405180910390a250505050565b60008060009054906101000a900473ffffffffffffffffffffffffffffffffffffffff16905090565b60006001600084815260200190815260200160002060000160008373ffffffffffffffffffffffffffffffffffffffff1673ffffffffffffffffffffffffffffffffffffffff16815260200190815260200160002060009054906101000a900460ff16905092915050565b7fff4ed198c18ce05e59ff2bcb2e277f2554623dcb9ab1d05e463e435a930cc469610cca81610f5f565b6000600260008573ffffffffffffffffffffffffffffffffffffffff1673ffffffffffffffffffffffffffffffffffffffff16815260200190815260200160002090508281600d01906003610d2092919061169e565b508373ffffffffffffffffffffffffffffffffffffffff167fd6134f67b184a56f52cf6cc3429f33dc966b42c82cf5e243dac53b4366aa01ae84604051610d6791906127f3565b60405180910390a250505050565b7fff4ed198c18ce05e59ff2bcb2e277f2554623dcb9ab1d05e463e435a930cc469610d9f81610f5f565b6000600260008573ffffffffffffffffffffffffffffffffffffffff1673ffffffffffffffffffffffffffffffffffffffff16815260200190815260200160002090508281601001906002610df59291906115ba565b508373ffffffffffffffffffffffffffffffffffffffff167f541fd1a482c02c88b030e41f82afe680097ef4daabd80879eab1a9ff9c3b877684604051610e3c919061257b565b60405180910390a250505050565b6000801b81565b610e5a82610966565b610e6381610f5f565b610e6d838361105b565b505050565b610e7a61113d565b600073ffffffffffffffffffffffffffffffffffffffff168173ffffffffffffffffffffffffffffffffffffffff1603610ee9576040517f08c379a0000000000000000000000000000000000000000000000000000000008152600401610ee090612887565b60405180910390fd5b610ef2816111bb565b50565b60007f01ffc9a7000000000000000000000000000000000000000000000000000000007bffffffffffffffffffffffffffffffffffffffffffffffffffffffff1916827bffffffffffffffffffffffffffffffffffffffffffffffffffffffff1916149050919050565b610f7081610f6b611053565b61127f565b50565b610f7d8282610c35565b61104f57600180600084815260200190815260200160002060000160008373ffffffffffffffffffffffffffffffffffffffff1673ffffffffffffffffffffffffffffffffffffffff16815260200190815260200160002060006101000a81548160ff021916908315150217905550610ff4611053565b73ffffffffffffffffffffffffffffffffffffffff168173ffffffffffffffffffffffffffffffffffffffff16837f2f8788117e7eff1d82e926ec794901d17c78024a50270940304540a733656f0d60405160405180910390a45b5050565b600033905090565b6110658282610c35565b156111395760006001600084815260200190815260200160002060000160008373ffffffffffffffffffffffffffffffffffffffff1673ffffffffffffffffffffffffffffffffffffffff16815260200190815260200160002060006101000a81548160ff0219169083151502179055506110de611053565b73ffffffffffffffffffffffffffffffffffffffff168173ffffffffffffffffffffffffffffffffffffffff16837ff6391f5c32d9c69d2a47ea670b442974b53935d1edc7fd64eb21e047a839171b60405160405180910390a45b5050565b611145611053565b73ffffffffffffffffffffffffffffffffffffffff16611163610c0c565b73ffffffffffffffffffffffffffffffffffffffff16146111b9576040517f08c379a00000000000000000000000000000000000000000000000000000000081526004016111b0906128f3565b60405180910390fd5b565b60008060009054906101000a900473ffffffffffffffffffffffffffffffffffffffff169050816000806101000a81548173ffffffffffffffffffffffffffffffffffffffff021916908373ffffffffffffffffffffffffffffffffffffffff1602179055508173ffffffffffffffffffffffffffffffffffffffff168173ffffffffffffffffffffffffffffffffffffffff167f8be0079c531659141344cd1fd0a4f28419497f9722a3daafe3b4186f6b6457e060405160405180910390a35050565b6112898282610c35565b6113005761129681611304565b6112a48360001c6020611331565b6040516020016112b59291906129e7565b6040516020818303038152906040526040517f08c379a00000000000000000000000000000000000000000000000000000000081526004016112f79190612a5a565b60405180910390fd5b5050565b606061132a8273ffffffffffffffffffffffffffffffffffffffff16601460ff16611331565b9050919050565b6060600060028360026113449190612ab5565b61134e9190612af7565b67ffffffffffffffff81111561136757611366611d46565b5b6040519080825280601f01601f1916602001820160405280156113995781602001600182028036833780820191505090505b5090507f3000000000000000000000000000000000000000000000000000000000000000816000815181106113d1576113d0612b2b565b5b60200101907effffffffffffffffffffffffffffffffffffffffffffffffffffffffffffff1916908160001a9053507f78000000000000000000000000000000000000000000000000000000000000008160018151811061143557611434612b2b565b5b60200101907effffffffffffffffffffffffffffffffffffffffffffffffffffffffffffff1916908160001a905350600060018460026114759190612ab5565b61147f9190612af7565b90505b600181111561151f577f3031323334353637383961626364656600000000000000000000000000000000600f8616601081106114c1576114c0612b2b565b5b1a60f81b8282815181106114d8576114d7612b2b565b5b60200101907effffffffffffffffffffffffffffffffffffffffffffffffffffffffffffff1916908160001a905350600485901c94508061151890612b5a565b9050611482565b5060008414611563576040517f08c379a000000000000000000000000000000000000000000000000000000000815260040161155a90612bcf565b60405180910390fd5b8091505092915050565b6040518060a001604052806115806116ea565b815260200161158d611711565b815260200161159a611738565b81526020016115a761175f565b81526020016115b461175f565b81525090565b82600281019282156115f5579160200282015b828111156115f45782518290816115e49190612d9b565b50916020019190600101906115cd565b5b5090506116029190611786565b5090565b8260068101928215611641579160200282015b828111156116405782518290816116309190612d9b565b5091602001919060010190611619565b5b50905061164e9190611786565b5090565b826007810192821561168d579160200282015b8281111561168c57825182908161167c9190612d9b565b5091602001919060010190611665565b5b50905061169a9190611786565b5090565b82600381019282156116d9579160200282015b828111156116d85782518290816116c89190612d9b565b50916020019190600101906116b1565b5b5090506116e69190611786565b5090565b6040518060c001604052806006905b60608152602001906001900390816116f95790505090565b6040518060e001604052806007905b60608152602001906001900390816117205790505090565b60405180606001604052806003905b60608152602001906001900390816117475790505090565b60405180604001604052806002905b606081526020019060019003908161176e5790505090565b5b808211156117a6576000818161179d91906117aa565b50600101611787565b5090565b5080546117b6906124ca565b6000825580601f106117c857506117e7565b601f0160209004906000526020600020908101906117e691906117ea565b5b50565b5b808211156118035760008160009055506001016117eb565b5090565b6000604051905090565b600080fd5b600080fd5b60007fffffffff0000000000000000000000000000000000000000000000000000000082169050919050565b6118508161181b565b811461185b57600080fd5b50565b60008135905061186d81611847565b92915050565b60006020828403121561188957611888611811565b5b60006118978482850161185e565b91505092915050565b60008115159050919050565b6118b5816118a0565b82525050565b60006020820190506118d060008301846118ac565b92915050565b600073ffffffffffffffffffffffffffffffffffffffff82169050919050565b6000611901826118d6565b9050919050565b611911816118f6565b811461191c57600080fd5b50565b60008135905061192e81611908565b92915050565b60006020828403121561194a57611949611811565b5b60006119588482850161191f565b91505092915050565b600060069050919050565b600081905092915050565b6000819050919050565b600081519050919050565b600082825260208201905092915050565b60005b838110156119bb5780820151818401526020810190506119a0565b60008484015250505050565b6000601f19601f8301169050919050565b60006119e382611981565b6119ed818561198c565b93506119fd81856020860161199d565b611a06816119c7565b840191505092915050565b6000611a1d83836119d8565b905092915050565b6000602082019050919050565b6000611a3d82611961565b611a47818561196c565b935083602082028501611a5985611977565b8060005b85811015611a955784840389528151611a768582611a11565b9450611a8183611a25565b925060208a01995050600181019050611a5d565b50829750879550505050505092915050565b600060079050919050565b600081905092915050565b6000819050919050565b6000602082019050919050565b6000611adf82611aa7565b611ae98185611ab2565b935083602082028501611afb85611abd565b8060005b85811015611b375784840389528151611b188582611a11565b9450611b2383611ac7565b925060208a01995050600181019050611aff565b50829750879550505050505092915050565b600060039050919050565b600081905092915050565b6000819050919050565b6000602082019050919050565b6000611b8182611b49565b611b8b8185611b54565b935083602082028501611b9d85611b5f565b8060005b85811015611bd95784840389528151611bba8582611a11565b9450611bc583611b69565b925060208a01995050600181019050611ba1565b50829750879550505050505092915050565b600060029050919050565b600081905092915050565b6000819050919050565b6000602082019050919050565b6000611c2382611beb565b611c2d8185611bf6565b935083602082028501611c3f85611c01565b8060005b85811015611c7b5784840389528151611c5c8582611a11565b9450611c6783611c0b565b925060208a01995050600181019050611c43565b50829750879550505050505092915050565b600060a0830160008301518482036000860152611caa8282611a32565b91505060208301518482036020860152611cc48282611ad4565b91505060408301518482036040860152611cde8282611b76565b91505060608301518482036060860152611cf88282611c18565b91505060808301518482036080860152611d128282611c18565b9150508091505092915050565b60006020820190508181036000830152611d398184611c8d565b905092915050565b600080fd5b7f4e487b7100000000000000000000000000000000000000000000000000000000600052604160045260246000fd5b611d7e826119c7565b810181811067ffffffffffffffff82111715611d9d57611d9c611d46565b5b80604052505050565b6000611db0611807565b9050611dbc8282611d75565b919050565b600067ffffffffffffffff821115611ddc57611ddb611d46565b5b602082029050919050565b600080fd5b600080fd5b600067ffffffffffffffff821115611e0c57611e0b611d46565b5b611e15826119c7565b9050602081019050919050565b82818337600083830152505050565b6000611e44611e3f84611df1565b611da6565b905082815260208101848484011115611e6057611e5f611dec565b5b611e6b848285611e22565b509392505050565b600082601f830112611e8857611e87611d41565b5b8135611e98848260208601611e31565b91505092915050565b6000611eb4611eaf84611dc1565b611da6565b90508060208402830185811115611ece57611ecd611de7565b5b835b81811015611f1557803567ffffffffffffffff811115611ef357611ef2611d41565b5b808601611f008982611e73565b85526020850194505050602081019050611ed0565b5050509392505050565b600082601f830112611f3457611f33611d41565b5b6002611f41848285611ea1565b91505092915050565b60008060408385031215611f6157611f60611811565b5b6000611f6f8582860161191f565b925050602083013567ffffffffffffffff811115611f9057611f8f611816565b5b611f9c85828601611f1f565b9150509250929050565b6000819050919050565b611fb981611fa6565b8114611fc457600080fd5b50565b600081359050611fd681611fb0565b92915050565b600060208284031215611ff257611ff1611811565b5b600061200084828501611fc7565b91505092915050565b61201281611fa6565b82525050565b600060208201905061202d6000830184612009565b92915050565b6000806040838503121561204a57612049611811565b5b600061205885828601611fc7565b92505060206120698582860161191f565b9150509250929050565b600067ffffffffffffffff82111561208e5761208d611d46565b5b602082029050919050565b60006120ac6120a784612073565b611da6565b905080602084028301858111156120c6576120c5611de7565b5b835b8181101561210d57803567ffffffffffffffff8111156120eb576120ea611d41565b5b8086016120f88982611e73565b855260208501945050506020810190506120c8565b5050509392505050565b600082601f83011261212c5761212b611d41565b5b6006612139848285612099565b91505092915050565b6000806040838503121561215957612158611811565b5b60006121678582860161191f565b925050602083013567ffffffffffffffff81111561218857612187611816565b5b61219485828601612117565b9150509250929050565b600067ffffffffffffffff8211156121b9576121b8611d46565b5b602082029050919050565b60006121d76121d28461219e565b611da6565b905080602084028301858111156121f1576121f0611de7565b5b835b8181101561223857803567ffffffffffffffff81111561221657612215611d41565b5b8086016122238982611e73565b855260208501945050506020810190506121f3565b5050509392505050565b600082601f83011261225757612256611d41565b5b60076122648482856121c4565b91505092915050565b6000806040838503121561228457612283611811565b5b60006122928582860161191f565b925050602083013567ffffffffffffffff8111156122b3576122b2611816565b5b6122bf85828601612242565b9150509250929050565b6122d2816118f6565b82525050565b60006020820190506122ed60008301846122c9565b92915050565b600067ffffffffffffffff82111561230e5761230d611d46565b5b602082029050919050565b600061232c612327846122f3565b611da6565b9050806020840283018581111561234657612345611de7565b5b835b8181101561238d57803567ffffffffffffffff81111561236b5761236a611d41565b5b8086016123788982611e73565b85526020850194505050602081019050612348565b5050509392505050565b600082601f8301126123ac576123ab611d41565b5b60036123b9848285612319565b91505092915050565b600080604083850312156123d9576123d8611811565b5b60006123e78582860161191f565b925050602083013567ffffffffffffffff81111561240857612407611816565b5b61241485828601612397565b9150509250929050565b600082825260208201905092915050565b7f4163636573732044656e69656400000000000000000000000000000000000000600082015250565b6000612465600d8361241e565b91506124708261242f565b602082019050919050565b6000602082019050818103600083015261249481612458565b9050919050565b7f4e487b7100000000000000000000000000000000000000000000000000000000600052602260045260246000fd5b600060028204905060018216806124e257607f821691505b6020821081036124f5576124f461249b565b5b50919050565b600081905092915050565b600061251182611beb565b61251b81856124fb565b93508360208202850161252d85611c01565b8060005b85811015612569578484038952815161254a8582611a11565b945061255583611c0b565b925060208a01995050600181019050612531565b50829750879550505050505092915050565b600060208201905081810360008301526125958184612506565b905092915050565b7f416363657373436f6e74726f6c3a2063616e206f6e6c792072656e6f756e636560008201527f20726f6c657320666f722073656c660000000000000000000000000000000000602082015250565b60006125f9602f8361241e565b91506126048261259d565b604082019050919050565b60006020820190508181036000830152612628816125ec565b9050919050565b600081905092915050565b600061264582611961565b61264f818561262f565b93508360208202850161266185611977565b8060005b8581101561269d578484038952815161267e8582611a11565b945061268983611a25565b925060208a01995050600181019050612665565b50829750879550505050505092915050565b600060208201905081810360008301526126c9818461263a565b905092915050565b600081905092915050565b60006126e782611aa7565b6126f181856126d1565b93508360208202850161270385611abd565b8060005b8581101561273f57848403895281516127208582611a11565b945061272b83611ac7565b925060208a01995050600181019050612707565b50829750879550505050505092915050565b6000602082019050818103600083015261276b81846126dc565b905092915050565b600081905092915050565b600061278982611b49565b6127938185612773565b9350836020820285016127a585611b5f565b8060005b858110156127e157848403895281516127c28582611a11565b94506127cd83611b69565b925060208a019950506001810190506127a9565b50829750879550505050505092915050565b6000602082019050818103600083015261280d818461277e565b905092915050565b7f4f776e61626c653a206e6577206f776e657220697320746865207a65726f206160008201527f6464726573730000000000000000000000000000000000000000000000000000602082015250565b600061287160268361241e565b915061287c82612815565b604082019050919050565b600060208201905081810360008301526128a081612864565b9050919050565b7f4f776e61626c653a2063616c6c6572206973206e6f7420746865206f776e6572600082015250565b60006128dd60208361241e565b91506128e8826128a7565b602082019050919050565b6000602082019050818103600083015261290c816128d0565b9050919050565b600081905092915050565b7f416363657373436f6e74726f6c3a206163636f756e7420000000000000000000600082015250565b6000612954601783612913565b915061295f8261291e565b601782019050919050565b600061297582611981565b61297f8185612913565b935061298f81856020860161199d565b80840191505092915050565b7f206973206d697373696e6720726f6c6520000000000000000000000000000000600082015250565b60006129d1601183612913565b91506129dc8261299b565b601182019050919050565b60006129f282612947565b91506129fe828561296a565b9150612a09826129c4565b9150612a15828461296a565b91508190509392505050565b6000612a2c82611981565b612a36818561241e565b9350612a4681856020860161199d565b612a4f816119c7565b840191505092915050565b60006020820190508181036000830152612a748184612a21565b905092915050565b6000819050919050565b7f4e487b7100000000000000000000000000000000000000000000000000000000600052601160045260246000fd5b6000612ac082612a7c565b9150612acb83612a7c565b9250828202612ad981612a7c565b91508282048414831517612af057612aef612a86565b5b5092915050565b6000612b0282612a7c565b9150612b0d83612a7c565b9250828201905080821115612b2557612b24612a86565b5b92915050565b7f4e487b7100000000000000000000000000000000000000000000000000000000600052603260045260246000fd5b6000612b6582612a7c565b915060008203612b7857612b77612a86565b5b600182039050919050565b7f537472696e67733a20686578206c656e67746820696e73756666696369656e74600082015250565b6000612bb960208361241e565b9150612bc482612b83565b602082019050919050565b60006020820190508181036000830152612be881612bac565b9050919050565b60008190508160005260206000209050919050565b60006020601f8301049050919050565b600082821b905092915050565b600060088302612c517fffffffffffffffffffffffffffffffffffffffffffffffffffffffffffffffff82612c14565b612c5b8683612c14565b95508019841693508086168417925050509392505050565b6000819050919050565b6000612c98612c93612c8e84612a7c565b612c73565b612a7c565b9050919050565b6000819050919050565b612cb283612c7d565b612cc6612cbe82612c9f565b848454612c21565b825550505050565b600090565b612cdb612cce565b612ce6818484612ca9565b505050565b5b81811015612d0a57612cff600082612cd3565b600181019050612cec565b5050565b601f821115612d4f57612d2081612bef565b612d2984612c04565b81016020851015612d38578190505b612d4c612d4485612c04565b830182612ceb565b50505b505050565b600082821c905092915050565b6000612d7260001984600802612d54565b1980831691505092915050565b6000612d8b8383612d61565b9150826002028217905092915050565b612da482611981565b67ffffffffffffffff811115612dbd57612dbc611d46565b5b612dc782546124ca565b612dd2828285612d0e565b600060209050601f831160018114612e055760008415612df3578287015190505b612dfd8582612d7f565b865550612e65565b601f198416612e1386612bef565b60005b82811015612e3b57848901518255600182019150602085019450602081019050612e16565b86831015612e585784890151612e54601f891682612d61565b8355505b6001600288020188555050505b50505050505056fea2646970667358221220171cb940c931f5827a574ac485e52ddac4e147af360d3158729aea7ab094095664736f6c63430008120033",
					"opcodes": "PUSH1 0x80 PUSH1 0x40 MSTORE CALLVALUE DUP1 ISZERO PUSH3 0x11 JUMPI PUSH1 0x0 DUP1 REVERT JUMPDEST POP PUSH3 0x32 PUSH3 0x26 PUSH3 0x6A PUSH1 0x20 SHL PUSH1 0x20 SHR JUMP JUMPDEST PUSH3 0x72 PUSH1 0x20 SHL PUSH1 0x20 SHR JUMP JUMPDEST PUSH3 0x64 PUSH32 0xFF4ED198C18CE05E59FF2BCB2E277F2554623DCB9AB1D05E463E435A930CC469 CALLER PUSH3 0x136 PUSH1 0x20 SHL PUSH1 0x20 SHR JUMP JUMPDEST PUSH3 0x2A8 JUMP JUMPDEST PUSH1 0x0 CALLER SWAP1 POP SWAP1 JUMP JUMPDEST PUSH1 0x0 DUP1 PUSH1 0x0 SWAP1 SLOAD SWAP1 PUSH2 0x100 EXP SWAP1 DIV PUSH20 0xFFFFFFFFFFFFFFFFFFFFFFFFFFFFFFFFFFFFFFFF AND SWAP1 POP DUP2 PUSH1 0x0 DUP1 PUSH2 0x100 EXP DUP2 SLOAD DUP2 PUSH20 0xFFFFFFFFFFFFFFFFFFFFFFFFFFFFFFFFFFFFFFFF MUL NOT AND SWAP1 DUP4 PUSH20 0xFFFFFFFFFFFFFFFFFFFFFFFFFFFFFFFFFFFFFFFF AND MUL OR SWAP1 SSTORE POP DUP2 PUSH20 0xFFFFFFFFFFFFFFFFFFFFFFFFFFFFFFFFFFFFFFFF AND DUP2 PUSH20 0xFFFFFFFFFFFFFFFFFFFFFFFFFFFFFFFFFFFFFFFF AND PUSH32 0x8BE0079C531659141344CD1FD0A4F28419497F9722A3DAAFE3B4186F6B6457E0 PUSH1 0x40 MLOAD PUSH1 0x40 MLOAD DUP1 SWAP2 SUB SWAP1 LOG3 POP POP JUMP JUMPDEST PUSH3 0x148 DUP3 DUP3 PUSH3 0x14C PUSH1 0x20 SHL PUSH1 0x20 SHR JUMP JUMPDEST POP POP JUMP JUMPDEST PUSH3 0x15E DUP3 DUP3 PUSH3 0x23D PUSH1 0x20 SHL PUSH1 0x20 SHR JUMP JUMPDEST PUSH3 0x239 JUMPI PUSH1 0x1 DUP1 PUSH1 0x0 DUP5 DUP2 MSTORE PUSH1 0x20 ADD SWAP1 DUP2 MSTORE PUSH1 0x20 ADD PUSH1 0x0 KECCAK256 PUSH1 0x0 ADD PUSH1 0x0 DUP4 PUSH20 0xFFFFFFFFFFFFFFFFFFFFFFFFFFFFFFFFFFFFFFFF AND PUSH20 0xFFFFFFFFFFFFFFFFFFFFFFFFFFFFFFFFFFFFFFFF AND DUP2 MSTORE PUSH1 0x20 ADD SWAP1 DUP2 MSTORE PUSH1 0x20 ADD PUSH1 0x0 KECCAK256 PUSH1 0x0 PUSH2 0x100 EXP DUP2 SLOAD DUP2 PUSH1 0xFF MUL NOT AND SWAP1 DUP4 ISZERO ISZERO MUL OR SWAP1 SSTORE POP PUSH3 0x1DE PUSH3 0x6A PUSH1 0x20 SHL PUSH1 0x20 SHR JUMP JUMPDEST PUSH20 0xFFFFFFFFFFFFFFFFFFFFFFFFFFFFFFFFFFFFFFFF AND DUP2 PUSH20 0xFFFFFFFFFFFFFFFFFFFFFFFFFFFFFFFFFFFFFFFF AND DUP4 PUSH32 0x2F8788117E7EFF1D82E926EC794901D17C78024A50270940304540A733656F0D PUSH1 0x40 MLOAD PUSH1 0x40 MLOAD DUP1 SWAP2 SUB SWAP1 LOG4 JUMPDEST POP POP JUMP JUMPDEST PUSH1 0x0 PUSH1 0x1 PUSH1 0x0 DUP5 DUP2 MSTORE PUSH1 0x20 ADD SWAP1 DUP2 MSTORE PUSH1 0x20 ADD PUSH1 0x0 KECCAK256 PUSH1 0x0 ADD PUSH1 0x0 DUP4 PUSH20 0xFFFFFFFFFFFFFFFFFFFFFFFFFFFFFFFFFFFFFFFF AND PUSH20 0xFFFFFFFFFFFFFFFFFFFFFFFFFFFFFFFFFFFFFFFF AND DUP2 MSTORE PUSH1 0x20 ADD SWAP1 DUP2 MSTORE PUSH1 0x20 ADD PUSH1 0x0 KECCAK256 PUSH1 0x0 SWAP1 SLOAD SWAP1 PUSH2 0x100 EXP SWAP1 DIV PUSH1 0xFF AND SWAP1 POP SWAP3 SWAP2 POP POP JUMP JUMPDEST PUSH2 0x2EA3 DUP1 PUSH3 0x2B8 PUSH1 0x0 CODECOPY PUSH1 0x0 RETURN INVALID PUSH1 0x80 PUSH1 0x40 MSTORE CALLVALUE DUP1 ISZERO PUSH2 0x10 JUMPI PUSH1 0x0 DUP1 REVERT JUMPDEST POP PUSH1 0x4 CALLDATASIZE LT PUSH2 0x10B JUMPI PUSH1 0x0 CALLDATALOAD PUSH1 0xE0 SHR DUP1 PUSH4 0x715018A6 GT PUSH2 0xA2 JUMPI DUP1 PUSH4 0x942AF88A GT PUSH2 0x71 JUMPI DUP1 PUSH4 0x942AF88A EQ PUSH2 0x2A2 JUMPI DUP1 PUSH4 0x94B31219 EQ PUSH2 0x2BE JUMPI DUP1 PUSH4 0xA217FDDF EQ PUSH2 0x2DA JUMPI DUP1 PUSH4 0xD547741F EQ PUSH2 0x2F8 JUMPI DUP1 PUSH4 0xF2FDE38B EQ PUSH2 0x314 JUMPI PUSH2 0x10B JUMP JUMPDEST DUP1 PUSH4 0x715018A6 EQ PUSH2 0x22E JUMPI DUP1 PUSH4 0x79ABB058 EQ PUSH2 0x238 JUMPI DUP1 PUSH4 0x8DA5CB5B EQ PUSH2 0x254 JUMPI DUP1 PUSH4 0x91D14854 EQ PUSH2 0x272 JUMPI PUSH2 0x10B JUMP JUMPDEST DUP1 PUSH4 0x2F2FF15D GT PUSH2 0xDE JUMPI DUP1 PUSH4 0x2F2FF15D EQ PUSH2 0x1BC JUMPI DUP1 PUSH4 0x33A300E5 EQ PUSH2 0x1D8 JUMPI DUP1 PUSH4 0x36568ABE EQ PUSH2 0x1F6 JUMPI DUP1 PUSH4 0x47453643 EQ PUSH2 0x212 JUMPI PUSH2 0x10B JUMP JUMPDEST DUP1 PUSH4 0x1FFC9A7 EQ PUSH2 0x110 JUMPI DUP1 PUSH4 0x18BD4847 EQ PUSH2 0x140 JUMPI DUP1 PUSH4 0x1DBB5545 EQ PUSH2 0x170 JUMPI DUP1 PUSH4 0x248A9CA3 EQ PUSH2 0x18C JUMPI JUMPDEST PUSH1 0x0 DUP1 REVERT JUMPDEST PUSH2 0x12A PUSH1 0x4 DUP1 CALLDATASIZE SUB DUP2 ADD SWAP1 PUSH2 0x125 SWAP2 SWAP1 PUSH2 0x1873 JUMP JUMPDEST PUSH2 0x330 JUMP JUMPDEST PUSH1 0x40 MLOAD PUSH2 0x137 SWAP2 SWAP1 PUSH2 0x18BB JUMP JUMPDEST PUSH1 0x40 MLOAD DUP1 SWAP2 SUB SWAP1 RETURN JUMPDEST PUSH2 0x15A PUSH1 0x4 DUP1 CALLDATASIZE SUB DUP2 ADD SWAP1 PUSH2 0x155 SWAP2 SWAP1 PUSH2 0x1934 JUMP JUMPDEST PUSH2 0x3AA JUMP JUMPDEST PUSH1 0x40 MLOAD PUSH2 0x167 SWAP2 SWAP1 PUSH2 0x1D1F JUMP JUMPDEST PUSH1 0x40 MLOAD DUP1 SWAP2 SUB SWAP1 RETURN JUMPDEST PUSH2 0x18A PUSH1 0x4 DUP1 CALLDATASIZE SUB DUP2 ADD SWAP1 PUSH2 0x185 SWAP2 SWAP1 PUSH2 0x1F4A JUMP JUMPDEST PUSH2 0x891 JUMP JUMPDEST STOP JUMPDEST PUSH2 0x1A6 PUSH1 0x4 DUP1 CALLDATASIZE SUB DUP2 ADD SWAP1 PUSH2 0x1A1 SWAP2 SWAP1 PUSH2 0x1FDC JUMP JUMPDEST PUSH2 0x966 JUMP JUMPDEST PUSH1 0x40 MLOAD PUSH2 0x1B3 SWAP2 SWAP1 PUSH2 0x2018 JUMP JUMPDEST PUSH1 0x40 MLOAD DUP1 SWAP2 SUB SWAP1 RETURN JUMPDEST PUSH2 0x1D6 PUSH1 0x4 DUP1 CALLDATASIZE SUB DUP2 ADD SWAP1 PUSH2 0x1D1 SWAP2 SWAP1 PUSH2 0x2033 JUMP JUMPDEST PUSH2 0x986 JUMP JUMPDEST STOP JUMPDEST PUSH2 0x1E0 PUSH2 0x9A7 JUMP JUMPDEST PUSH1 0x40 MLOAD PUSH2 0x1ED SWAP2 SWAP1 PUSH2 0x2018 JUMP JUMPDEST PUSH1 0x40 MLOAD DUP1 SWAP2 SUB SWAP1 RETURN JUMPDEST PUSH2 0x210 PUSH1 0x4 DUP1 CALLDATASIZE SUB DUP2 ADD SWAP1 PUSH2 0x20B SWAP2 SWAP1 PUSH2 0x2033 JUMP JUMPDEST PUSH2 0x9CB JUMP JUMPDEST STOP JUMPDEST PUSH2 0x22C PUSH1 0x4 DUP1 CALLDATASIZE SUB DUP2 ADD SWAP1 PUSH2 0x227 SWAP2 SWAP1 PUSH2 0x2142 JUMP JUMPDEST PUSH2 0xA4E JUMP JUMPDEST STOP JUMPDEST PUSH2 0x236 PUSH2 0xB23 JUMP JUMPDEST STOP JUMPDEST PUSH2 0x252 PUSH1 0x4 DUP1 CALLDATASIZE SUB DUP2 ADD SWAP1 PUSH2 0x24D SWAP2 SWAP1 PUSH2 0x226D JUMP JUMPDEST PUSH2 0xB37 JUMP JUMPDEST STOP JUMPDEST PUSH2 0x25C PUSH2 0xC0C JUMP JUMPDEST PUSH1 0x40 MLOAD PUSH2 0x269 SWAP2 SWAP1 PUSH2 0x22D8 JUMP JUMPDEST PUSH1 0x40 MLOAD DUP1 SWAP2 SUB SWAP1 RETURN JUMPDEST PUSH2 0x28C PUSH1 0x4 DUP1 CALLDATASIZE SUB DUP2 ADD SWAP1 PUSH2 0x287 SWAP2 SWAP1 PUSH2 0x2033 JUMP JUMPDEST PUSH2 0xC35 JUMP JUMPDEST PUSH1 0x40 MLOAD PUSH2 0x299 SWAP2 SWAP1 PUSH2 0x18BB JUMP JUMPDEST PUSH1 0x40 MLOAD DUP1 SWAP2 SUB SWAP1 RETURN JUMPDEST PUSH2 0x2BC PUSH1 0x4 DUP1 CALLDATASIZE SUB DUP2 ADD SWAP1 PUSH2 0x2B7 SWAP2 SWAP1 PUSH2 0x23C2 JUMP JUMPDEST PUSH2 0xCA0 JUMP JUMPDEST STOP JUMPDEST PUSH2 0x2D8 PUSH1 0x4 DUP1 CALLDATASIZE SUB DUP2 ADD SWAP1 PUSH2 0x2D3 SWAP2 SWAP1 PUSH2 0x1F4A JUMP JUMPDEST PUSH2 0xD75 JUMP JUMPDEST STOP JUMPDEST PUSH2 0x2E2 PUSH2 0xE4A JUMP JUMPDEST PUSH1 0x40 MLOAD PUSH2 0x2EF SWAP2 SWAP1 PUSH2 0x2018 JUMP JUMPDEST PUSH1 0x40 MLOAD DUP1 SWAP2 SUB SWAP1 RETURN JUMPDEST PUSH2 0x312 PUSH1 0x4 DUP1 CALLDATASIZE SUB DUP2 ADD SWAP1 PUSH2 0x30D SWAP2 SWAP1 PUSH2 0x2033 JUMP JUMPDEST PUSH2 0xE51 JUMP JUMPDEST STOP JUMPDEST PUSH2 0x32E PUSH1 0x4 DUP1 CALLDATASIZE SUB DUP2 ADD SWAP1 PUSH2 0x329 SWAP2 SWAP1 PUSH2 0x1934 JUMP JUMPDEST PUSH2 0xE72 JUMP JUMPDEST STOP JUMPDEST PUSH1 0x0 PUSH32 0x7965DB0B00000000000000000000000000000000000000000000000000000000 PUSH28 0xFFFFFFFFFFFFFFFFFFFFFFFFFFFFFFFFFFFFFFFFFFFFFFFFFFFFFFFF NOT AND DUP3 PUSH28 0xFFFFFFFFFFFFFFFFFFFFFFFFFFFFFFFFFFFFFFFFFFFFFFFFFFFFFFFF NOT AND EQ DUP1 PUSH2 0x3A3 JUMPI POP PUSH2 0x3A2 DUP3 PUSH2 0xEF5 JUMP JUMPDEST JUMPDEST SWAP1 POP SWAP2 SWAP1 POP JUMP JUMPDEST PUSH2 0x3B2 PUSH2 0x156D JUMP JUMPDEST DUP2 PUSH20 0xFFFFFFFFFFFFFFFFFFFFFFFFFFFFFFFFFFFFFFFF AND CALLER PUSH20 0xFFFFFFFFFFFFFFFFFFFFFFFFFFFFFFFFFFFFFFFF AND EQ DUP1 PUSH2 0x41E JUMPI POP PUSH2 0x3EF PUSH2 0xC0C JUMP JUMPDEST PUSH20 0xFFFFFFFFFFFFFFFFFFFFFFFFFFFFFFFFFFFFFFFF AND CALLER PUSH20 0xFFFFFFFFFFFFFFFFFFFFFFFFFFFFFFFFFFFFFFFF AND EQ JUMPDEST PUSH2 0x45D JUMPI PUSH1 0x40 MLOAD PUSH32 0x8C379A000000000000000000000000000000000000000000000000000000000 DUP2 MSTORE PUSH1 0x4 ADD PUSH2 0x454 SWAP1 PUSH2 0x247B JUMP JUMPDEST PUSH1 0x40 MLOAD DUP1 SWAP2 SUB SWAP1 REVERT JUMPDEST PUSH1 0x2 PUSH1 0x0 DUP4 PUSH20 0xFFFFFFFFFFFFFFFFFFFFFFFFFFFFFFFFFFFFFFFF AND PUSH20 0xFFFFFFFFFFFFFFFFFFFFFFFFFFFFFFFFFFFFFFFF AND DUP2 MSTORE PUSH1 0x20 ADD SWAP1 DUP2 MSTORE PUSH1 0x20 ADD PUSH1 0x0 KECCAK256 PUSH1 0x40 MLOAD DUP1 PUSH1 0xA0 ADD PUSH1 0x40 MSTORE SWAP1 DUP2 PUSH1 0x0 DUP3 ADD PUSH1 0x6 DUP1 PUSH1 0x20 MUL PUSH1 0x40 MLOAD SWAP1 DUP2 ADD PUSH1 0x40 MSTORE DUP1 SWAP3 SWAP2 SWAP1 PUSH1 0x0 SWAP1 JUMPDEST DUP3 DUP3 LT ISZERO PUSH2 0x566 JUMPI DUP4 DUP3 ADD DUP1 SLOAD PUSH2 0x4D9 SWAP1 PUSH2 0x24CA JUMP JUMPDEST DUP1 PUSH1 0x1F ADD PUSH1 0x20 DUP1 SWAP2 DIV MUL PUSH1 0x20 ADD PUSH1 0x40 MLOAD SWAP1 DUP2 ADD PUSH1 0x40 MSTORE DUP1 SWAP3 SWAP2 SWAP1 DUP2 DUP2 MSTORE PUSH1 0x20 ADD DUP3 DUP1 SLOAD PUSH2 0x505 SWAP1 PUSH2 0x24CA JUMP JUMPDEST DUP1 ISZERO PUSH2 0x552 JUMPI DUP1 PUSH1 0x1F LT PUSH2 0x527 JUMPI PUSH2 0x100 DUP1 DUP4 SLOAD DIV MUL DUP4 MSTORE SWAP2 PUSH1 0x20 ADD SWAP2 PUSH2 0x552 JUMP JUMPDEST DUP3 ADD SWAP2 SWAP1 PUSH1 0x0 MSTORE PUSH1 0x20 PUSH1 0x0 KECCAK256 SWAP1 JUMPDEST DUP2 SLOAD DUP2 MSTORE SWAP1 PUSH1 0x1 ADD SWAP1 PUSH1 0x20 ADD DUP1 DUP4 GT PUSH2 0x535 JUMPI DUP3 SWAP1 SUB PUSH1 0x1F AND DUP3 ADD SWAP2 JUMPDEST POP POP POP POP POP DUP2 MSTORE PUSH1 0x20 ADD SWAP1 PUSH1 0x1 ADD SWAP1 PUSH2 0x4C3 JUMP JUMPDEST POP POP POP POP DUP2 MSTORE PUSH1 0x20 ADD PUSH1 0x6 DUP3 ADD PUSH1 0x7 DUP1 PUSH1 0x20 MUL PUSH1 0x40 MLOAD SWAP1 DUP2 ADD PUSH1 0x40 MSTORE DUP1 SWAP3 SWAP2 SWAP1 PUSH1 0x0 SWAP1 JUMPDEST DUP3 DUP3 LT ISZERO PUSH2 0x62D JUMPI DUP4 DUP3 ADD DUP1 SLOAD PUSH2 0x5A0 SWAP1 PUSH2 0x24CA JUMP JUMPDEST DUP1 PUSH1 0x1F ADD PUSH1 0x20 DUP1 SWAP2 DIV MUL PUSH1 0x20 ADD PUSH1 0x40 MLOAD SWAP1 DUP2 ADD PUSH1 0x40 MSTORE DUP1 SWAP3 SWAP2 SWAP1 DUP2 DUP2 MSTORE PUSH1 0x20 ADD DUP3 DUP1 SLOAD PUSH2 0x5CC SWAP1 PUSH2 0x24CA JUMP JUMPDEST DUP1 ISZERO PUSH2 0x619 JUMPI DUP1 PUSH1 0x1F LT PUSH2 0x5EE JUMPI PUSH2 0x100 DUP1 DUP4 SLOAD DIV MUL DUP4 MSTORE SWAP2 PUSH1 0x20 ADD SWAP2 PUSH2 0x619 JUMP JUMPDEST DUP3 ADD SWAP2 SWAP1 PUSH1 0x0 MSTORE PUSH1 0x20 PUSH1 0x0 KECCAK256 SWAP1 JUMPDEST DUP2 SLOAD DUP2 MSTORE SWAP1 PUSH1 0x1 ADD SWAP1 PUSH1 0x20 ADD DUP1 DUP4 GT PUSH2 0x5FC JUMPI DUP3 SWAP1 SUB PUSH1 0x1F AND DUP3 ADD SWAP2 JUMPDEST POP POP POP POP POP DUP2 MSTORE PUSH1 0x20 ADD SWAP1 PUSH1 0x1 ADD SWAP1 PUSH2 0x58A JUMP JUMPDEST POP POP POP POP DUP2 MSTORE PUSH1 0x20 ADD PUSH1 0xD DUP3 ADD PUSH1 0x3 DUP1 PUSH1 0x20 MUL PUSH1 0x40 MLOAD SWAP1 DUP2 ADD PUSH1 0x40 MSTORE DUP1 SWAP3 SWAP2 SWAP1 PUSH1 0x0 SWAP1 JUMPDEST DUP3 DUP3 LT ISZERO PUSH2 0x6F4 JUMPI DUP4 DUP3 ADD DUP1 SLOAD PUSH2 0x667 SWAP1 PUSH2 0x24CA JUMP JUMPDEST DUP1 PUSH1 0x1F ADD PUSH1 0x20 DUP1 SWAP2 DIV MUL PUSH1 0x20 ADD PUSH1 0x40 MLOAD SWAP1 DUP2 ADD PUSH1 0x40 MSTORE DUP1 SWAP3 SWAP2 SWAP1 DUP2 DUP2 MSTORE PUSH1 0x20 ADD DUP3 DUP1 SLOAD PUSH2 0x693 SWAP1 PUSH2 0x24CA JUMP JUMPDEST DUP1 ISZERO PUSH2 0x6E0 JUMPI DUP1 PUSH1 0x1F LT PUSH2 0x6B5 JUMPI PUSH2 0x100 DUP1 DUP4 SLOAD DIV MUL DUP4 MSTORE SWAP2 PUSH1 0x20 ADD SWAP2 PUSH2 0x6E0 JUMP JUMPDEST DUP3 ADD SWAP2 SWAP1 PUSH1 0x0 MSTORE PUSH1 0x20 PUSH1 0x0 KECCAK256 SWAP1 JUMPDEST DUP2 SLOAD DUP2 MSTORE SWAP1 PUSH1 0x1 ADD SWAP1 PUSH1 0x20 ADD DUP1 DUP4 GT PUSH2 0x6C3 JUMPI DUP3 SWAP1 SUB PUSH1 0x1F AND DUP3 ADD SWAP2 JUMPDEST POP POP POP POP POP DUP2 MSTORE PUSH1 0x20 ADD SWAP1 PUSH1 0x1 ADD SWAP1 PUSH2 0x651 JUMP JUMPDEST POP POP POP POP DUP2 MSTORE PUSH1 0x20 ADD PUSH1 0x10 DUP3 ADD PUSH1 0x2 DUP1 PUSH1 0x20 MUL PUSH1 0x40 MLOAD SWAP1 DUP2 ADD PUSH1 0x40 MSTORE DUP1 SWAP3 SWAP2 SWAP1 PUSH1 0x0 SWAP1 JUMPDEST DUP3 DUP3 LT ISZERO PUSH2 0x7BB JUMPI DUP4 DUP3 ADD DUP1 SLOAD PUSH2 0x72E SWAP1 PUSH2 0x24CA JUMP JUMPDEST DUP1 PUSH1 0x1F ADD PUSH1 0x20 DUP1 SWAP2 DIV MUL PUSH1 0x20 ADD PUSH1 0x40 MLOAD SWAP1 DUP2 ADD PUSH1 0x40 MSTORE DUP1 SWAP3 SWAP2 SWAP1 DUP2 DUP2 MSTORE PUSH1 0x20 ADD DUP3 DUP1 SLOAD PUSH2 0x75A SWAP1 PUSH2 0x24CA JUMP JUMPDEST DUP1 ISZERO PUSH2 0x7A7 JUMPI DUP1 PUSH1 0x1F LT PUSH2 0x77C JUMPI PUSH2 0x100 DUP1 DUP4 SLOAD DIV MUL DUP4 MSTORE SWAP2 PUSH1 0x20 ADD SWAP2 PUSH2 0x7A7 JUMP JUMPDEST DUP3 ADD SWAP2 SWAP1 PUSH1 0x0 MSTORE PUSH1 0x20 PUSH1 0x0 KECCAK256 SWAP1 JUMPDEST DUP2 SLOAD DUP2 MSTORE SWAP1 PUSH1 0x1 ADD SWAP1 PUSH1 0x20 ADD DUP1 DUP4 GT PUSH2 0x78A JUMPI DUP3 SWAP1 SUB PUSH1 0x1F AND DUP3 ADD SWAP2 JUMPDEST POP POP POP POP POP DUP2 MSTORE PUSH1 0x20 ADD SWAP1 PUSH1 0x1 ADD SWAP1 PUSH2 0x718 JUMP JUMPDEST POP POP POP POP DUP2 MSTORE PUSH1 0x20 ADD PUSH1 0x12 DUP3 ADD PUSH1 0x2 DUP1 PUSH1 0x20 MUL PUSH1 0x40 MLOAD SWAP1 DUP2 ADD PUSH1 0x40 MSTORE DUP1 SWAP3 SWAP2 SWAP1 PUSH1 0x0 SWAP1 JUMPDEST DUP3 DUP3 LT ISZERO PUSH2 0x882 JUMPI DUP4 DUP3 ADD DUP1 SLOAD PUSH2 0x7F5 SWAP1 PUSH2 0x24CA JUMP JUMPDEST DUP1 PUSH1 0x1F ADD PUSH1 0x20 DUP1 SWAP2 DIV MUL PUSH1 0x20 ADD PUSH1 0x40 MLOAD SWAP1 DUP2 ADD PUSH1 0x40 MSTORE DUP1 SWAP3 SWAP2 SWAP1 DUP2 DUP2 MSTORE PUSH1 0x20 ADD DUP3 DUP1 SLOAD PUSH2 0x821 SWAP1 PUSH2 0x24CA JUMP JUMPDEST DUP1 ISZERO PUSH2 0x86E JUMPI DUP1 PUSH1 0x1F LT PUSH2 0x843 JUMPI PUSH2 0x100 DUP1 DUP4 SLOAD DIV MUL DUP4 MSTORE SWAP2 PUSH1 0x20 ADD SWAP2 PUSH2 0x86E JUMP JUMPDEST DUP3 ADD SWAP2 SWAP1 PUSH1 0x0 MSTORE PUSH1 0x20 PUSH1 0x0 KECCAK256 SWAP1 JUMPDEST DUP2 SLOAD DUP2 MSTORE SWAP1 PUSH1 0x1 ADD SWAP1 PUSH1 0x20 ADD DUP1 DUP4 GT PUSH2 0x851 JUMPI DUP3 SWAP1 SUB PUSH1 0x1F AND DUP3 ADD SWAP2 JUMPDEST POP POP POP POP POP DUP2 MSTORE PUSH1 0x20 ADD SWAP1 PUSH1 0x1 ADD SWAP1 PUSH2 0x7DF JUMP JUMPDEST POP POP POP POP DUP2 MSTORE POP POP SWAP1 POP SWAP2 SWAP1 POP JUMP JUMPDEST PUSH32 0xFF4ED198C18CE05E59FF2BCB2E277F2554623DCB9AB1D05E463E435A930CC469 PUSH2 0x8BB DUP2 PUSH2 0xF5F JUMP JUMPDEST PUSH1 0x0 PUSH1 0x2 PUSH1 0x0 DUP6 PUSH20 0xFFFFFFFFFFFFFFFFFFFFFFFFFFFFFFFFFFFFFFFF AND PUSH20 0xFFFFFFFFFFFFFFFFFFFFFFFFFFFFFFFFFFFFFFFF AND DUP2 MSTORE PUSH1 0x20 ADD SWAP1 DUP2 MSTORE PUSH1 0x20 ADD PUSH1 0x0 KECCAK256 SWAP1 POP DUP3 DUP2 PUSH1 0x12 ADD SWAP1 PUSH1 0x2 PUSH2 0x911 SWAP3 SWAP2 SWAP1 PUSH2 0x15BA JUMP JUMPDEST POP DUP4 PUSH20 0xFFFFFFFFFFFFFFFFFFFFFFFFFFFFFFFFFFFFFFFF AND PUSH32 0xF82228D2FCCBF51A6865C7EC1126D175433BFB90F6B576906C867F35A715D27B DUP5 PUSH1 0x40 MLOAD PUSH2 0x958 SWAP2 SWAP1 PUSH2 0x257B JUMP JUMPDEST PUSH1 0x40 MLOAD DUP1 SWAP2 SUB SWAP1 LOG2 POP POP POP POP JUMP JUMPDEST PUSH1 0x0 PUSH1 0x1 PUSH1 0x0 DUP4 DUP2 MSTORE PUSH1 0x20 ADD SWAP1 DUP2 MSTORE PUSH1 0x20 ADD PUSH1 0x0 KECCAK256 PUSH1 0x1 ADD SLOAD SWAP1 POP SWAP2 SWAP1 POP JUMP JUMPDEST PUSH2 0x98F DUP3 PUSH2 0x966 JUMP JUMPDEST PUSH2 0x998 DUP2 PUSH2 0xF5F JUMP JUMPDEST PUSH2 0x9A2 DUP4 DUP4 PUSH2 0xF73 JUMP JUMPDEST POP POP POP JUMP JUMPDEST PUSH32 0xFF4ED198C18CE05E59FF2BCB2E277F2554623DCB9AB1D05E463E435A930CC469 DUP2 JUMP JUMPDEST PUSH2 0x9D3 PUSH2 0x1053 JUMP JUMPDEST PUSH20 0xFFFFFFFFFFFFFFFFFFFFFFFFFFFFFFFFFFFFFFFF AND DUP2 PUSH20 0xFFFFFFFFFFFFFFFFFFFFFFFFFFFFFFFFFFFFFFFF AND EQ PUSH2 0xA40 JUMPI PUSH1 0x40 MLOAD PUSH32 0x8C379A000000000000000000000000000000000000000000000000000000000 DUP2 MSTORE PUSH1 0x4 ADD PUSH2 0xA37 SWAP1 PUSH2 0x260F JUMP JUMPDEST PUSH1 0x40 MLOAD DUP1 SWAP2 SUB SWAP1 REVERT JUMPDEST PUSH2 0xA4A DUP3 DUP3 PUSH2 0x105B JUMP JUMPDEST POP POP JUMP JUMPDEST PUSH32 0xFF4ED198C18CE05E59FF2BCB2E277F2554623DCB9AB1D05E463E435A930CC469 PUSH2 0xA78 DUP2 PUSH2 0xF5F JUMP JUMPDEST PUSH1 0x0 PUSH1 0x2 PUSH1 0x0 DUP6 PUSH20 0xFFFFFFFFFFFFFFFFFFFFFFFFFFFFFFFFFFFFFFFF AND PUSH20 0xFFFFFFFFFFFFFFFFFFFFFFFFFFFFFFFFFFFFFFFF AND DUP2 MSTORE PUSH1 0x20 ADD SWAP1 DUP2 MSTORE PUSH1 0x20 ADD PUSH1 0x0 KECCAK256 SWAP1 POP DUP3 DUP2 PUSH1 0x0 ADD SWAP1 PUSH1 0x6 PUSH2 0xACE SWAP3 SWAP2 SWAP1 PUSH2 0x1606 JUMP JUMPDEST POP DUP4 PUSH20 0xFFFFFFFFFFFFFFFFFFFFFFFFFFFFFFFFFFFFFFFF AND PUSH32 0x12ACBE46024A8132D84EA43E496A038EC0F837DB140C6CE73470800455432D41 DUP5 PUSH1 0x40 MLOAD PUSH2 0xB15 SWAP2 SWAP1 PUSH2 0x26AF JUMP JUMPDEST PUSH1 0x40 MLOAD DUP1 SWAP2 SUB SWAP1 LOG2 POP POP POP POP JUMP JUMPDEST PUSH2 0xB2B PUSH2 0x113D JUMP JUMPDEST PUSH2 0xB35 PUSH1 0x0 PUSH2 0x11BB JUMP JUMPDEST JUMP JUMPDEST PUSH32 0xFF4ED198C18CE05E59FF2BCB2E277F2554623DCB9AB1D05E463E435A930CC469 PUSH2 0xB61 DUP2 PUSH2 0xF5F JUMP JUMPDEST PUSH1 0x0 PUSH1 0x2 PUSH1 0x0 DUP6 PUSH20 0xFFFFFFFFFFFFFFFFFFFFFFFFFFFFFFFFFFFFFFFF AND PUSH20 0xFFFFFFFFFFFFFFFFFFFFFFFFFFFFFFFFFFFFFFFF AND DUP2 MSTORE PUSH1 0x20 ADD SWAP1 DUP2 MSTORE PUSH1 0x20 ADD PUSH1 0x0 KECCAK256 SWAP1 POP DUP3 DUP2 PUSH1 0x6 ADD SWAP1 PUSH1 0x7 PUSH2 0xBB7 SWAP3 SWAP2 SWAP1 PUSH2 0x1652 JUMP JUMPDEST POP DUP4 PUSH20 0xFFFFFFFFFFFFFFFFFFFFFFFFFFFFFFFFFFFFFFFF AND PUSH32 0xB8EA6D593DBF23AF71CBF2FF48CF51834C051FA257185E2BA78199B004491CC8 DUP5 PUSH1 0x40 MLOAD PUSH2 0xBFE SWAP2 SWAP1 PUSH2 0x2751 JUMP JUMPDEST PUSH1 0x40 MLOAD DUP1 SWAP2 SUB SWAP1 LOG2 POP POP POP POP JUMP JUMPDEST PUSH1 0x0 DUP1 PUSH1 0x0 SWAP1 SLOAD SWAP1 PUSH2 0x100 EXP SWAP1 DIV PUSH20 0xFFFFFFFFFFFFFFFFFFFFFFFFFFFFFFFFFFFFFFFF AND SWAP1 POP SWAP1 JUMP JUMPDEST PUSH1 0x0 PUSH1 0x1 PUSH1 0x0 DUP5 DUP2 MSTORE PUSH1 0x20 ADD SWAP1 DUP2 MSTORE PUSH1 0x20 ADD PUSH1 0x0 KECCAK256 PUSH1 0x0 ADD PUSH1 0x0 DUP4 PUSH20 0xFFFFFFFFFFFFFFFFFFFFFFFFFFFFFFFFFFFFFFFF AND PUSH20 0xFFFFFFFFFFFFFFFFFFFFFFFFFFFFFFFFFFFFFFFF AND DUP2 MSTORE PUSH1 0x20 ADD SWAP1 DUP2 MSTORE PUSH1 0x20 ADD PUSH1 0x0 KECCAK256 PUSH1 0x0 SWAP1 SLOAD SWAP1 PUSH2 0x100 EXP SWAP1 DIV PUSH1 0xFF AND SWAP1 POP SWAP3 SWAP2 POP POP JUMP JUMPDEST PUSH32 0xFF4ED198C18CE05E59FF2BCB2E277F2554623DCB9AB1D05E463E435A930CC469 PUSH2 0xCCA DUP2 PUSH2 0xF5F JUMP JUMPDEST PUSH1 0x0 PUSH1 0x2 PUSH1 0x0 DUP6 PUSH20 0xFFFFFFFFFFFFFFFFFFFFFFFFFFFFFFFFFFFFFFFF AND PUSH20 0xFFFFFFFFFFFFFFFFFFFFFFFFFFFFFFFFFFFFFFFF AND DUP2 MSTORE PUSH1 0x20 ADD SWAP1 DUP2 MSTORE PUSH1 0x20 ADD PUSH1 0x0 KECCAK256 SWAP1 POP DUP3 DUP2 PUSH1 0xD ADD SWAP1 PUSH1 0x3 PUSH2 0xD20 SWAP3 SWAP2 SWAP1 PUSH2 0x169E JUMP JUMPDEST POP DUP4 PUSH20 0xFFFFFFFFFFFFFFFFFFFFFFFFFFFFFFFFFFFFFFFF AND PUSH32 0xD6134F67B184A56F52CF6CC3429F33DC966B42C82CF5E243DAC53B4366AA01AE DUP5 PUSH1 0x40 MLOAD PUSH2 0xD67 SWAP2 SWAP1 PUSH2 0x27F3 JUMP JUMPDEST PUSH1 0x40 MLOAD DUP1 SWAP2 SUB SWAP1 LOG2 POP POP POP POP JUMP JUMPDEST PUSH32 0xFF4ED198C18CE05E59FF2BCB2E277F2554623DCB9AB1D05E463E435A930CC469 PUSH2 0xD9F DUP2 PUSH2 0xF5F JUMP JUMPDEST PUSH1 0x0 PUSH1 0x2 PUSH1 0x0 DUP6 PUSH20 0xFFFFFFFFFFFFFFFFFFFFFFFFFFFFFFFFFFFFFFFF AND PUSH20 0xFFFFFFFFFFFFFFFFFFFFFFFFFFFFFFFFFFFFFFFF AND DUP2 MSTORE PUSH1 0x20 ADD SWAP1 DUP2 MSTORE PUSH1 0x20 ADD PUSH1 0x0 KECCAK256 SWAP1 POP DUP3 DUP2 PUSH1 0x10 ADD SWAP1 PUSH1 0x2 PUSH2 0xDF5 SWAP3 SWAP2 SWAP1 PUSH2 0x15BA JUMP JUMPDEST POP DUP4 PUSH20 0xFFFFFFFFFFFFFFFFFFFFFFFFFFFFFFFFFFFFFFFF AND PUSH32 0x541FD1A482C02C88B030E41F82AFE680097EF4DAABD80879EAB1A9FF9C3B8776 DUP5 PUSH1 0x40 MLOAD PUSH2 0xE3C SWAP2 SWAP1 PUSH2 0x257B JUMP JUMPDEST PUSH1 0x40 MLOAD DUP1 SWAP2 SUB SWAP1 LOG2 POP POP POP POP JUMP JUMPDEST PUSH1 0x0 DUP1 SHL DUP2 JUMP JUMPDEST PUSH2 0xE5A DUP3 PUSH2 0x966 JUMP JUMPDEST PUSH2 0xE63 DUP2 PUSH2 0xF5F JUMP JUMPDEST PUSH2 0xE6D DUP4 DUP4 PUSH2 0x105B JUMP JUMPDEST POP POP POP JUMP JUMPDEST PUSH2 0xE7A PUSH2 0x113D JUMP JUMPDEST PUSH1 0x0 PUSH20 0xFFFFFFFFFFFFFFFFFFFFFFFFFFFFFFFFFFFFFFFF AND DUP2 PUSH20 0xFFFFFFFFFFFFFFFFFFFFFFFFFFFFFFFFFFFFFFFF AND SUB PUSH2 0xEE9 JUMPI PUSH1 0x40 MLOAD PUSH32 0x8C379A000000000000000000000000000000000000000000000000000000000 DUP2 MSTORE PUSH1 0x4 ADD PUSH2 0xEE0 SWAP1 PUSH2 0x2887 JUMP JUMPDEST PUSH1 0x40 MLOAD DUP1 SWAP2 SUB SWAP1 REVERT JUMPDEST PUSH2 0xEF2 DUP2 PUSH2 0x11BB JUMP JUMPDEST POP JUMP JUMPDEST PUSH1 0x0 PUSH32 0x1FFC9A700000000000000000000000000000000000000000000000000000000 PUSH28 0xFFFFFFFFFFFFFFFFFFFFFFFFFFFFFFFFFFFFFFFFFFFFFFFFFFFFFFFF NOT AND DUP3 PUSH28 0xFFFFFFFFFFFFFFFFFFFFFFFFFFFFFFFFFFFFFFFFFFFFFFFFFFFFFFFF NOT AND EQ SWAP1 POP SWAP2 SWAP1 POP JUMP JUMPDEST PUSH2 0xF70 DUP2 PUSH2 0xF6B PUSH2 0x1053 JUMP JUMPDEST PUSH2 0x127F JUMP JUMPDEST POP JUMP JUMPDEST PUSH2 0xF7D DUP3 DUP3 PUSH2 0xC35 JUMP JUMPDEST PUSH2 0x104F JUMPI PUSH1 0x1 DUP1 PUSH1 0x0 DUP5 DUP2 MSTORE PUSH1 0x20 ADD SWAP1 DUP2 MSTORE PUSH1 0x20 ADD PUSH1 0x0 KECCAK256 PUSH1 0x0 ADD PUSH1 0x0 DUP4 PUSH20 0xFFFFFFFFFFFFFFFFFFFFFFFFFFFFFFFFFFFFFFFF AND PUSH20 0xFFFFFFFFFFFFFFFFFFFFFFFFFFFFFFFFFFFFFFFF AND DUP2 MSTORE PUSH1 0x20 ADD SWAP1 DUP2 MSTORE PUSH1 0x20 ADD PUSH1 0x0 KECCAK256 PUSH1 0x0 PUSH2 0x100 EXP DUP2 SLOAD DUP2 PUSH1 0xFF MUL NOT AND SWAP1 DUP4 ISZERO ISZERO MUL OR SWAP1 SSTORE POP PUSH2 0xFF4 PUSH2 0x1053 JUMP JUMPDEST PUSH20 0xFFFFFFFFFFFFFFFFFFFFFFFFFFFFFFFFFFFFFFFF AND DUP2 PUSH20 0xFFFFFFFFFFFFFFFFFFFFFFFFFFFFFFFFFFFFFFFF AND DUP4 PUSH32 0x2F8788117E7EFF1D82E926EC794901D17C78024A50270940304540A733656F0D PUSH1 0x40 MLOAD PUSH1 0x40 MLOAD DUP1 SWAP2 SUB SWAP1 LOG4 JUMPDEST POP POP JUMP JUMPDEST PUSH1 0x0 CALLER SWAP1 POP SWAP1 JUMP JUMPDEST PUSH2 0x1065 DUP3 DUP3 PUSH2 0xC35 JUMP JUMPDEST ISZERO PUSH2 0x1139 JUMPI PUSH1 0x0 PUSH1 0x1 PUSH1 0x0 DUP5 DUP2 MSTORE PUSH1 0x20 ADD SWAP1 DUP2 MSTORE PUSH1 0x20 ADD PUSH1 0x0 KECCAK256 PUSH1 0x0 ADD PUSH1 0x0 DUP4 PUSH20 0xFFFFFFFFFFFFFFFFFFFFFFFFFFFFFFFFFFFFFFFF AND PUSH20 0xFFFFFFFFFFFFFFFFFFFFFFFFFFFFFFFFFFFFFFFF AND DUP2 MSTORE PUSH1 0x20 ADD SWAP1 DUP2 MSTORE PUSH1 0x20 ADD PUSH1 0x0 KECCAK256 PUSH1 0x0 PUSH2 0x100 EXP DUP2 SLOAD DUP2 PUSH1 0xFF MUL NOT AND SWAP1 DUP4 ISZERO ISZERO MUL OR SWAP1 SSTORE POP PUSH2 0x10DE PUSH2 0x1053 JUMP JUMPDEST PUSH20 0xFFFFFFFFFFFFFFFFFFFFFFFFFFFFFFFFFFFFFFFF AND DUP2 PUSH20 0xFFFFFFFFFFFFFFFFFFFFFFFFFFFFFFFFFFFFFFFF AND DUP4 PUSH32 0xF6391F5C32D9C69D2A47EA670B442974B53935D1EDC7FD64EB21E047A839171B PUSH1 0x40 MLOAD PUSH1 0x40 MLOAD DUP1 SWAP2 SUB SWAP1 LOG4 JUMPDEST POP POP JUMP JUMPDEST PUSH2 0x1145 PUSH2 0x1053 JUMP JUMPDEST PUSH20 0xFFFFFFFFFFFFFFFFFFFFFFFFFFFFFFFFFFFFFFFF AND PUSH2 0x1163 PUSH2 0xC0C JUMP JUMPDEST PUSH20 0xFFFFFFFFFFFFFFFFFFFFFFFFFFFFFFFFFFFFFFFF AND EQ PUSH2 0x11B9 JUMPI PUSH1 0x40 MLOAD PUSH32 0x8C379A000000000000000000000000000000000000000000000000000000000 DUP2 MSTORE PUSH1 0x4 ADD PUSH2 0x11B0 SWAP1 PUSH2 0x28F3 JUMP JUMPDEST PUSH1 0x40 MLOAD DUP1 SWAP2 SUB SWAP1 REVERT JUMPDEST JUMP JUMPDEST PUSH1 0x0 DUP1 PUSH1 0x0 SWAP1 SLOAD SWAP1 PUSH2 0x100 EXP SWAP1 DIV PUSH20 0xFFFFFFFFFFFFFFFFFFFFFFFFFFFFFFFFFFFFFFFF AND SWAP1 POP DUP2 PUSH1 0x0 DUP1 PUSH2 0x100 EXP DUP2 SLOAD DUP2 PUSH20 0xFFFFFFFFFFFFFFFFFFFFFFFFFFFFFFFFFFFFFFFF MUL NOT AND SWAP1 DUP4 PUSH20 0xFFFFFFFFFFFFFFFFFFFFFFFFFFFFFFFFFFFFFFFF AND MUL OR SWAP1 SSTORE POP DUP2 PUSH20 0xFFFFFFFFFFFFFFFFFFFFFFFFFFFFFFFFFFFFFFFF AND DUP2 PUSH20 0xFFFFFFFFFFFFFFFFFFFFFFFFFFFFFFFFFFFFFFFF AND PUSH32 0x8BE0079C531659141344CD1FD0A4F28419497F9722A3DAAFE3B4186F6B6457E0 PUSH1 0x40 MLOAD PUSH1 0x40 MLOAD DUP1 SWAP2 SUB SWAP1 LOG3 POP POP JUMP JUMPDEST PUSH2 0x1289 DUP3 DUP3 PUSH2 0xC35 JUMP JUMPDEST PUSH2 0x1300 JUMPI PUSH2 0x1296 DUP2 PUSH2 0x1304 JUMP JUMPDEST PUSH2 0x12A4 DUP4 PUSH1 0x0 SHR PUSH1 0x20 PUSH2 0x1331 JUMP JUMPDEST PUSH1 0x40 MLOAD PUSH1 0x20 ADD PUSH2 0x12B5 SWAP3 SWAP2 SWAP1 PUSH2 0x29E7 JUMP JUMPDEST PUSH1 0x40 MLOAD PUSH1 0x20 DUP2 DUP4 SUB SUB DUP2 MSTORE SWAP1 PUSH1 0x40 MSTORE PUSH1 0x40 MLOAD PUSH32 0x8C379A000000000000000000000000000000000000000000000000000000000 DUP2 MSTORE PUSH1 0x4 ADD PUSH2 0x12F7 SWAP2 SWAP1 PUSH2 0x2A5A JUMP JUMPDEST PUSH1 0x40 MLOAD DUP1 SWAP2 SUB SWAP1 REVERT JUMPDEST POP POP JUMP JUMPDEST PUSH1 0x60 PUSH2 0x132A DUP3 PUSH20 0xFFFFFFFFFFFFFFFFFFFFFFFFFFFFFFFFFFFFFFFF AND PUSH1 0x14 PUSH1 0xFF AND PUSH2 0x1331 JUMP JUMPDEST SWAP1 POP SWAP2 SWAP1 POP JUMP JUMPDEST PUSH1 0x60 PUSH1 0x0 PUSH1 0x2 DUP4 PUSH1 0x2 PUSH2 0x1344 SWAP2 SWAP1 PUSH2 0x2AB5 JUMP JUMPDEST PUSH2 0x134E SWAP2 SWAP1 PUSH2 0x2AF7 JUMP JUMPDEST PUSH8 0xFFFFFFFFFFFFFFFF DUP2 GT ISZERO PUSH2 0x1367 JUMPI PUSH2 0x1366 PUSH2 0x1D46 JUMP JUMPDEST JUMPDEST PUSH1 0x40 MLOAD SWAP1 DUP1 DUP3 MSTORE DUP1 PUSH1 0x1F ADD PUSH1 0x1F NOT AND PUSH1 0x20 ADD DUP3 ADD PUSH1 0x40 MSTORE DUP1 ISZERO PUSH2 0x1399 JUMPI DUP2 PUSH1 0x20 ADD PUSH1 0x1 DUP3 MUL DUP1 CALLDATASIZE DUP4 CALLDATACOPY DUP1 DUP3 ADD SWAP2 POP POP SWAP1 POP JUMPDEST POP SWAP1 POP PUSH32 0x3000000000000000000000000000000000000000000000000000000000000000 DUP2 PUSH1 0x0 DUP2 MLOAD DUP2 LT PUSH2 0x13D1 JUMPI PUSH2 0x13D0 PUSH2 0x2B2B JUMP JUMPDEST JUMPDEST PUSH1 0x20 ADD ADD SWAP1 PUSH31 0xFFFFFFFFFFFFFFFFFFFFFFFFFFFFFFFFFFFFFFFFFFFFFFFFFFFFFFFFFFFFFF NOT AND SWAP1 DUP2 PUSH1 0x0 BYTE SWAP1 MSTORE8 POP PUSH32 0x7800000000000000000000000000000000000000000000000000000000000000 DUP2 PUSH1 0x1 DUP2 MLOAD DUP2 LT PUSH2 0x1435 JUMPI PUSH2 0x1434 PUSH2 0x2B2B JUMP JUMPDEST JUMPDEST PUSH1 0x20 ADD ADD SWAP1 PUSH31 0xFFFFFFFFFFFFFFFFFFFFFFFFFFFFFFFFFFFFFFFFFFFFFFFFFFFFFFFFFFFFFF NOT AND SWAP1 DUP2 PUSH1 0x0 BYTE SWAP1 MSTORE8 POP PUSH1 0x0 PUSH1 0x1 DUP5 PUSH1 0x2 PUSH2 0x1475 SWAP2 SWAP1 PUSH2 0x2AB5 JUMP JUMPDEST PUSH2 0x147F SWAP2 SWAP1 PUSH2 0x2AF7 JUMP JUMPDEST SWAP1 POP JUMPDEST PUSH1 0x1 DUP2 GT ISZERO PUSH2 0x151F JUMPI PUSH32 0x3031323334353637383961626364656600000000000000000000000000000000 PUSH1 0xF DUP7 AND PUSH1 0x10 DUP2 LT PUSH2 0x14C1 JUMPI PUSH2 0x14C0 PUSH2 0x2B2B JUMP JUMPDEST JUMPDEST BYTE PUSH1 0xF8 SHL DUP3 DUP3 DUP2 MLOAD DUP2 LT PUSH2 0x14D8 JUMPI PUSH2 0x14D7 PUSH2 0x2B2B JUMP JUMPDEST JUMPDEST PUSH1 0x20 ADD ADD SWAP1 PUSH31 0xFFFFFFFFFFFFFFFFFFFFFFFFFFFFFFFFFFFFFFFFFFFFFFFFFFFFFFFFFFFFFF NOT AND SWAP1 DUP2 PUSH1 0x0 BYTE SWAP1 MSTORE8 POP PUSH1 0x4 DUP6 SWAP1 SHR SWAP5 POP DUP1 PUSH2 0x1518 SWAP1 PUSH2 0x2B5A JUMP JUMPDEST SWAP1 POP PUSH2 0x1482 JUMP JUMPDEST POP PUSH1 0x0 DUP5 EQ PUSH2 0x1563 JUMPI PUSH1 0x40 MLOAD PUSH32 0x8C379A000000000000000000000000000000000000000000000000000000000 DUP2 MSTORE PUSH1 0x4 ADD PUSH2 0x155A SWAP1 PUSH2 0x2BCF JUMP JUMPDEST PUSH1 0x40 MLOAD DUP1 SWAP2 SUB SWAP1 REVERT JUMPDEST DUP1 SWAP2 POP POP SWAP3 SWAP2 POP POP JUMP JUMPDEST PUSH1 0x40 MLOAD DUP1 PUSH1 0xA0 ADD PUSH1 0x40 MSTORE DUP1 PUSH2 0x1580 PUSH2 0x16EA JUMP JUMPDEST DUP2 MSTORE PUSH1 0x20 ADD PUSH2 0x158D PUSH2 0x1711 JUMP JUMPDEST DUP2 MSTORE PUSH1 0x20 ADD PUSH2 0x159A PUSH2 0x1738 JUMP JUMPDEST DUP2 MSTORE PUSH1 0x20 ADD PUSH2 0x15A7 PUSH2 0x175F JUMP JUMPDEST DUP2 MSTORE PUSH1 0x20 ADD PUSH2 0x15B4 PUSH2 0x175F JUMP JUMPDEST DUP2 MSTORE POP SWAP1 JUMP JUMPDEST DUP3 PUSH1 0x2 DUP2 ADD SWAP3 DUP3 ISZERO PUSH2 0x15F5 JUMPI SWAP2 PUSH1 0x20 MUL DUP3 ADD JUMPDEST DUP3 DUP2 GT ISZERO PUSH2 0x15F4 JUMPI DUP3 MLOAD DUP3 SWAP1 DUP2 PUSH2 0x15E4 SWAP2 SWAP1 PUSH2 0x2D9B JUMP JUMPDEST POP SWAP2 PUSH1 0x20 ADD SWAP2 SWAP1 PUSH1 0x1 ADD SWAP1 PUSH2 0x15CD JUMP JUMPDEST JUMPDEST POP SWAP1 POP PUSH2 0x1602 SWAP2 SWAP1 PUSH2 0x1786 JUMP JUMPDEST POP SWAP1 JUMP JUMPDEST DUP3 PUSH1 0x6 DUP2 ADD SWAP3 DUP3 ISZERO PUSH2 0x1641 JUMPI SWAP2 PUSH1 0x20 MUL DUP3 ADD JUMPDEST DUP3 DUP2 GT ISZERO PUSH2 0x1640 JUMPI DUP3 MLOAD DUP3 SWAP1 DUP2 PUSH2 0x1630 SWAP2 SWAP1 PUSH2 0x2D9B JUMP JUMPDEST POP SWAP2 PUSH1 0x20 ADD SWAP2 SWAP1 PUSH1 0x1 ADD SWAP1 PUSH2 0x1619 JUMP JUMPDEST JUMPDEST POP SWAP1 POP PUSH2 0x164E SWAP2 SWAP1 PUSH2 0x1786 JUMP JUMPDEST POP SWAP1 JUMP JUMPDEST DUP3 PUSH1 0x7 DUP2 ADD SWAP3 DUP3 ISZERO PUSH2 0x168D JUMPI SWAP2 PUSH1 0x20 MUL DUP3 ADD JUMPDEST DUP3 DUP2 GT ISZERO PUSH2 0x168C JUMPI DUP3 MLOAD DUP3 SWAP1 DUP2 PUSH2 0x167C SWAP2 SWAP1 PUSH2 0x2D9B JUMP JUMPDEST POP SWAP2 PUSH1 0x20 ADD SWAP2 SWAP1 PUSH1 0x1 ADD SWAP1 PUSH2 0x1665 JUMP JUMPDEST JUMPDEST POP SWAP1 POP PUSH2 0x169A SWAP2 SWAP1 PUSH2 0x1786 JUMP JUMPDEST POP SWAP1 JUMP JUMPDEST DUP3 PUSH1 0x3 DUP2 ADD SWAP3 DUP3 ISZERO PUSH2 0x16D9 JUMPI SWAP2 PUSH1 0x20 MUL DUP3 ADD JUMPDEST DUP3 DUP2 GT ISZERO PUSH2 0x16D8 JUMPI DUP3 MLOAD DUP3 SWAP1 DUP2 PUSH2 0x16C8 SWAP2 SWAP1 PUSH2 0x2D9B JUMP JUMPDEST POP SWAP2 PUSH1 0x20 ADD SWAP2 SWAP1 PUSH1 0x1 ADD SWAP1 PUSH2 0x16B1 JUMP JUMPDEST JUMPDEST POP SWAP1 POP PUSH2 0x16E6 SWAP2 SWAP1 PUSH2 0x1786 JUMP JUMPDEST POP SWAP1 JUMP JUMPDEST PUSH1 0x40 MLOAD DUP1 PUSH1 0xC0 ADD PUSH1 0x40 MSTORE DUP1 PUSH1 0x6 SWAP1 JUMPDEST PUSH1 0x60 DUP2 MSTORE PUSH1 0x20 ADD SWAP1 PUSH1 0x1 SWAP1 SUB SWAP1 DUP2 PUSH2 0x16F9 JUMPI SWAP1 POP POP SWAP1 JUMP JUMPDEST PUSH1 0x40 MLOAD DUP1 PUSH1 0xE0 ADD PUSH1 0x40 MSTORE DUP1 PUSH1 0x7 SWAP1 JUMPDEST PUSH1 0x60 DUP2 MSTORE PUSH1 0x20 ADD SWAP1 PUSH1 0x1 SWAP1 SUB SWAP1 DUP2 PUSH2 0x1720 JUMPI SWAP1 POP POP SWAP1 JUMP JUMPDEST PUSH1 0x40 MLOAD DUP1 PUSH1 0x60 ADD PUSH1 0x40 MSTORE DUP1 PUSH1 0x3 SWAP1 JUMPDEST PUSH1 0x60 DUP2 MSTORE PUSH1 0x20 ADD SWAP1 PUSH1 0x1 SWAP1 SUB SWAP1 DUP2 PUSH2 0x1747 JUMPI SWAP1 POP POP SWAP1 JUMP JUMPDEST PUSH1 0x40 MLOAD DUP1 PUSH1 0x40 ADD PUSH1 0x40 MSTORE DUP1 PUSH1 0x2 SWAP1 JUMPDEST PUSH1 0x60 DUP2 MSTORE PUSH1 0x20 ADD SWAP1 PUSH1 0x1 SWAP1 SUB SWAP1 DUP2 PUSH2 0x176E JUMPI SWAP1 POP POP SWAP1 JUMP JUMPDEST JUMPDEST DUP1 DUP3 GT ISZERO PUSH2 0x17A6 JUMPI PUSH1 0x0 DUP2 DUP2 PUSH2 0x179D SWAP2 SWAP1 PUSH2 0x17AA JUMP JUMPDEST POP PUSH1 0x1 ADD PUSH2 0x1787 JUMP JUMPDEST POP SWAP1 JUMP JUMPDEST POP DUP1 SLOAD PUSH2 0x17B6 SWAP1 PUSH2 0x24CA JUMP JUMPDEST PUSH1 0x0 DUP3 SSTORE DUP1 PUSH1 0x1F LT PUSH2 0x17C8 JUMPI POP PUSH2 0x17E7 JUMP JUMPDEST PUSH1 0x1F ADD PUSH1 0x20 SWAP1 DIV SWAP1 PUSH1 0x0 MSTORE PUSH1 0x20 PUSH1 0x0 KECCAK256 SWAP1 DUP2 ADD SWAP1 PUSH2 0x17E6 SWAP2 SWAP1 PUSH2 0x17EA JUMP JUMPDEST JUMPDEST POP JUMP JUMPDEST JUMPDEST DUP1 DUP3 GT ISZERO PUSH2 0x1803 JUMPI PUSH1 0x0 DUP2 PUSH1 0x0 SWAP1 SSTORE POP PUSH1 0x1 ADD PUSH2 0x17EB JUMP JUMPDEST POP SWAP1 JUMP JUMPDEST PUSH1 0x0 PUSH1 0x40 MLOAD SWAP1 POP SWAP1 JUMP JUMPDEST PUSH1 0x0 DUP1 REVERT JUMPDEST PUSH1 0x0 DUP1 REVERT JUMPDEST PUSH1 0x0 PUSH32 0xFFFFFFFF00000000000000000000000000000000000000000000000000000000 DUP3 AND SWAP1 POP SWAP2 SWAP1 POP JUMP JUMPDEST PUSH2 0x1850 DUP2 PUSH2 0x181B JUMP JUMPDEST DUP2 EQ PUSH2 0x185B JUMPI PUSH1 0x0 DUP1 REVERT JUMPDEST POP JUMP JUMPDEST PUSH1 0x0 DUP2 CALLDATALOAD SWAP1 POP PUSH2 0x186D DUP2 PUSH2 0x1847 JUMP JUMPDEST SWAP3 SWAP2 POP POP JUMP JUMPDEST PUSH1 0x0 PUSH1 0x20 DUP3 DUP5 SUB SLT ISZERO PUSH2 0x1889 JUMPI PUSH2 0x1888 PUSH2 0x1811 JUMP JUMPDEST JUMPDEST PUSH1 0x0 PUSH2 0x1897 DUP5 DUP3 DUP6 ADD PUSH2 0x185E JUMP JUMPDEST SWAP2 POP POP SWAP3 SWAP2 POP POP JUMP JUMPDEST PUSH1 0x0 DUP2 ISZERO ISZERO SWAP1 POP SWAP2 SWAP1 POP JUMP JUMPDEST PUSH2 0x18B5 DUP2 PUSH2 0x18A0 JUMP JUMPDEST DUP3 MSTORE POP POP JUMP JUMPDEST PUSH1 0x0 PUSH1 0x20 DUP3 ADD SWAP1 POP PUSH2 0x18D0 PUSH1 0x0 DUP4 ADD DUP5 PUSH2 0x18AC JUMP JUMPDEST SWAP3 SWAP2 POP POP JUMP JUMPDEST PUSH1 0x0 PUSH20 0xFFFFFFFFFFFFFFFFFFFFFFFFFFFFFFFFFFFFFFFF DUP3 AND SWAP1 POP SWAP2 SWAP1 POP JUMP JUMPDEST PUSH1 0x0 PUSH2 0x1901 DUP3 PUSH2 0x18D6 JUMP JUMPDEST SWAP1 POP SWAP2 SWAP1 POP JUMP JUMPDEST PUSH2 0x1911 DUP2 PUSH2 0x18F6 JUMP JUMPDEST DUP2 EQ PUSH2 0x191C JUMPI PUSH1 0x0 DUP1 REVERT JUMPDEST POP JUMP JUMPDEST PUSH1 0x0 DUP2 CALLDATALOAD SWAP1 POP PUSH2 0x192E DUP2 PUSH2 0x1908 JUMP JUMPDEST SWAP3 SWAP2 POP POP JUMP JUMPDEST PUSH1 0x0 PUSH1 0x20 DUP3 DUP5 SUB SLT ISZERO PUSH2 0x194A JUMPI PUSH2 0x1949 PUSH2 0x1811 JUMP JUMPDEST JUMPDEST PUSH1 0x0 PUSH2 0x1958 DUP5 DUP3 DUP6 ADD PUSH2 0x191F JUMP JUMPDEST SWAP2 POP POP SWAP3 SWAP2 POP POP JUMP JUMPDEST PUSH1 0x0 PUSH1 0x6 SWAP1 POP SWAP2 SWAP1 POP JUMP JUMPDEST PUSH1 0x0 DUP2 SWAP1 POP SWAP3 SWAP2 POP POP JUMP JUMPDEST PUSH1 0x0 DUP2 SWAP1 POP SWAP2 SWAP1 POP JUMP JUMPDEST PUSH1 0x0 DUP2 MLOAD SWAP1 POP SWAP2 SWAP1 POP JUMP JUMPDEST PUSH1 0x0 DUP3 DUP3 MSTORE PUSH1 0x20 DUP3 ADD SWAP1 POP SWAP3 SWAP2 POP POP JUMP JUMPDEST PUSH1 0x0 JUMPDEST DUP4 DUP2 LT ISZERO PUSH2 0x19BB JUMPI DUP1 DUP3 ADD MLOAD DUP2 DUP5 ADD MSTORE PUSH1 0x20 DUP2 ADD SWAP1 POP PUSH2 0x19A0 JUMP JUMPDEST PUSH1 0x0 DUP5 DUP5 ADD MSTORE POP POP POP POP JUMP JUMPDEST PUSH1 0x0 PUSH1 0x1F NOT PUSH1 0x1F DUP4 ADD AND SWAP1 POP SWAP2 SWAP1 POP JUMP JUMPDEST PUSH1 0x0 PUSH2 0x19E3 DUP3 PUSH2 0x1981 JUMP JUMPDEST PUSH2 0x19ED DUP2 DUP6 PUSH2 0x198C JUMP JUMPDEST SWAP4 POP PUSH2 0x19FD DUP2 DUP6 PUSH1 0x20 DUP7 ADD PUSH2 0x199D JUMP JUMPDEST PUSH2 0x1A06 DUP2 PUSH2 0x19C7 JUMP JUMPDEST DUP5 ADD SWAP2 POP POP SWAP3 SWAP2 POP POP JUMP JUMPDEST PUSH1 0x0 PUSH2 0x1A1D DUP4 DUP4 PUSH2 0x19D8 JUMP JUMPDEST SWAP1 POP SWAP3 SWAP2 POP POP JUMP JUMPDEST PUSH1 0x0 PUSH1 0x20 DUP3 ADD SWAP1 POP SWAP2 SWAP1 POP JUMP JUMPDEST PUSH1 0x0 PUSH2 0x1A3D DUP3 PUSH2 0x1961 JUMP JUMPDEST PUSH2 0x1A47 DUP2 DUP6 PUSH2 0x196C JUMP JUMPDEST SWAP4 POP DUP4 PUSH1 0x20 DUP3 MUL DUP6 ADD PUSH2 0x1A59 DUP6 PUSH2 0x1977 JUMP JUMPDEST DUP1 PUSH1 0x0 JUMPDEST DUP6 DUP2 LT ISZERO PUSH2 0x1A95 JUMPI DUP5 DUP5 SUB DUP10 MSTORE DUP2 MLOAD PUSH2 0x1A76 DUP6 DUP3 PUSH2 0x1A11 JUMP JUMPDEST SWAP5 POP PUSH2 0x1A81 DUP4 PUSH2 0x1A25 JUMP JUMPDEST SWAP3 POP PUSH1 0x20 DUP11 ADD SWAP10 POP POP PUSH1 0x1 DUP2 ADD SWAP1 POP PUSH2 0x1A5D JUMP JUMPDEST POP DUP3 SWAP8 POP DUP8 SWAP6 POP POP POP POP POP POP SWAP3 SWAP2 POP POP JUMP JUMPDEST PUSH1 0x0 PUSH1 0x7 SWAP1 POP SWAP2 SWAP1 POP JUMP JUMPDEST PUSH1 0x0 DUP2 SWAP1 POP SWAP3 SWAP2 POP POP JUMP JUMPDEST PUSH1 0x0 DUP2 SWAP1 POP SWAP2 SWAP1 POP JUMP JUMPDEST PUSH1 0x0 PUSH1 0x20 DUP3 ADD SWAP1 POP SWAP2 SWAP1 POP JUMP JUMPDEST PUSH1 0x0 PUSH2 0x1ADF DUP3 PUSH2 0x1AA7 JUMP JUMPDEST PUSH2 0x1AE9 DUP2 DUP6 PUSH2 0x1AB2 JUMP JUMPDEST SWAP4 POP DUP4 PUSH1 0x20 DUP3 MUL DUP6 ADD PUSH2 0x1AFB DUP6 PUSH2 0x1ABD JUMP JUMPDEST DUP1 PUSH1 0x0 JUMPDEST DUP6 DUP2 LT ISZERO PUSH2 0x1B37 JUMPI DUP5 DUP5 SUB DUP10 MSTORE DUP2 MLOAD PUSH2 0x1B18 DUP6 DUP3 PUSH2 0x1A11 JUMP JUMPDEST SWAP5 POP PUSH2 0x1B23 DUP4 PUSH2 0x1AC7 JUMP JUMPDEST SWAP3 POP PUSH1 0x20 DUP11 ADD SWAP10 POP POP PUSH1 0x1 DUP2 ADD SWAP1 POP PUSH2 0x1AFF JUMP JUMPDEST POP DUP3 SWAP8 POP DUP8 SWAP6 POP POP POP POP POP POP SWAP3 SWAP2 POP POP JUMP JUMPDEST PUSH1 0x0 PUSH1 0x3 SWAP1 POP SWAP2 SWAP1 POP JUMP JUMPDEST PUSH1 0x0 DUP2 SWAP1 POP SWAP3 SWAP2 POP POP JUMP JUMPDEST PUSH1 0x0 DUP2 SWAP1 POP SWAP2 SWAP1 POP JUMP JUMPDEST PUSH1 0x0 PUSH1 0x20 DUP3 ADD SWAP1 POP SWAP2 SWAP1 POP JUMP JUMPDEST PUSH1 0x0 PUSH2 0x1B81 DUP3 PUSH2 0x1B49 JUMP JUMPDEST PUSH2 0x1B8B DUP2 DUP6 PUSH2 0x1B54 JUMP JUMPDEST SWAP4 POP DUP4 PUSH1 0x20 DUP3 MUL DUP6 ADD PUSH2 0x1B9D DUP6 PUSH2 0x1B5F JUMP JUMPDEST DUP1 PUSH1 0x0 JUMPDEST DUP6 DUP2 LT ISZERO PUSH2 0x1BD9 JUMPI DUP5 DUP5 SUB DUP10 MSTORE DUP2 MLOAD PUSH2 0x1BBA DUP6 DUP3 PUSH2 0x1A11 JUMP JUMPDEST SWAP5 POP PUSH2 0x1BC5 DUP4 PUSH2 0x1B69 JUMP JUMPDEST SWAP3 POP PUSH1 0x20 DUP11 ADD SWAP10 POP POP PUSH1 0x1 DUP2 ADD SWAP1 POP PUSH2 0x1BA1 JUMP JUMPDEST POP DUP3 SWAP8 POP DUP8 SWAP6 POP POP POP POP POP POP SWAP3 SWAP2 POP POP JUMP JUMPDEST PUSH1 0x0 PUSH1 0x2 SWAP1 POP SWAP2 SWAP1 POP JUMP JUMPDEST PUSH1 0x0 DUP2 SWAP1 POP SWAP3 SWAP2 POP POP JUMP JUMPDEST PUSH1 0x0 DUP2 SWAP1 POP SWAP2 SWAP1 POP JUMP JUMPDEST PUSH1 0x0 PUSH1 0x20 DUP3 ADD SWAP1 POP SWAP2 SWAP1 POP JUMP JUMPDEST PUSH1 0x0 PUSH2 0x1C23 DUP3 PUSH2 0x1BEB JUMP JUMPDEST PUSH2 0x1C2D DUP2 DUP6 PUSH2 0x1BF6 JUMP JUMPDEST SWAP4 POP DUP4 PUSH1 0x20 DUP3 MUL DUP6 ADD PUSH2 0x1C3F DUP6 PUSH2 0x1C01 JUMP JUMPDEST DUP1 PUSH1 0x0 JUMPDEST DUP6 DUP2 LT ISZERO PUSH2 0x1C7B JUMPI DUP5 DUP5 SUB DUP10 MSTORE DUP2 MLOAD PUSH2 0x1C5C DUP6 DUP3 PUSH2 0x1A11 JUMP JUMPDEST SWAP5 POP PUSH2 0x1C67 DUP4 PUSH2 0x1C0B JUMP JUMPDEST SWAP3 POP PUSH1 0x20 DUP11 ADD SWAP10 POP POP PUSH1 0x1 DUP2 ADD SWAP1 POP PUSH2 0x1C43 JUMP JUMPDEST POP DUP3 SWAP8 POP DUP8 SWAP6 POP POP POP POP POP POP SWAP3 SWAP2 POP POP JUMP JUMPDEST PUSH1 0x0 PUSH1 0xA0 DUP4 ADD PUSH1 0x0 DUP4 ADD MLOAD DUP5 DUP3 SUB PUSH1 0x0 DUP7 ADD MSTORE PUSH2 0x1CAA DUP3 DUP3 PUSH2 0x1A32 JUMP JUMPDEST SWAP2 POP POP PUSH1 0x20 DUP4 ADD MLOAD DUP5 DUP3 SUB PUSH1 0x20 DUP7 ADD MSTORE PUSH2 0x1CC4 DUP3 DUP3 PUSH2 0x1AD4 JUMP JUMPDEST SWAP2 POP POP PUSH1 0x40 DUP4 ADD MLOAD DUP5 DUP3 SUB PUSH1 0x40 DUP7 ADD MSTORE PUSH2 0x1CDE DUP3 DUP3 PUSH2 0x1B76 JUMP JUMPDEST SWAP2 POP POP PUSH1 0x60 DUP4 ADD MLOAD DUP5 DUP3 SUB PUSH1 0x60 DUP7 ADD MSTORE PUSH2 0x1CF8 DUP3 DUP3 PUSH2 0x1C18 JUMP JUMPDEST SWAP2 POP POP PUSH1 0x80 DUP4 ADD MLOAD DUP5 DUP3 SUB PUSH1 0x80 DUP7 ADD MSTORE PUSH2 0x1D12 DUP3 DUP3 PUSH2 0x1C18 JUMP JUMPDEST SWAP2 POP POP DUP1 SWAP2 POP POP SWAP3 SWAP2 POP POP JUMP JUMPDEST PUSH1 0x0 PUSH1 0x20 DUP3 ADD SWAP1 POP DUP2 DUP2 SUB PUSH1 0x0 DUP4 ADD MSTORE PUSH2 0x1D39 DUP2 DUP5 PUSH2 0x1C8D JUMP JUMPDEST SWAP1 POP SWAP3 SWAP2 POP POP JUMP JUMPDEST PUSH1 0x0 DUP1 REVERT JUMPDEST PUSH32 0x4E487B7100000000000000000000000000000000000000000000000000000000 PUSH1 0x0 MSTORE PUSH1 0x41 PUSH1 0x4 MSTORE PUSH1 0x24 PUSH1 0x0 REVERT JUMPDEST PUSH2 0x1D7E DUP3 PUSH2 0x19C7 JUMP JUMPDEST DUP2 ADD DUP2 DUP2 LT PUSH8 0xFFFFFFFFFFFFFFFF DUP3 GT OR ISZERO PUSH2 0x1D9D JUMPI PUSH2 0x1D9C PUSH2 0x1D46 JUMP JUMPDEST JUMPDEST DUP1 PUSH1 0x40 MSTORE POP POP POP JUMP JUMPDEST PUSH1 0x0 PUSH2 0x1DB0 PUSH2 0x1807 JUMP JUMPDEST SWAP1 POP PUSH2 0x1DBC DUP3 DUP3 PUSH2 0x1D75 JUMP JUMPDEST SWAP2 SWAP1 POP JUMP JUMPDEST PUSH1 0x0 PUSH8 0xFFFFFFFFFFFFFFFF DUP3 GT ISZERO PUSH2 0x1DDC JUMPI PUSH2 0x1DDB PUSH2 0x1D46 JUMP JUMPDEST JUMPDEST PUSH1 0x20 DUP3 MUL SWAP1 POP SWAP2 SWAP1 POP JUMP JUMPDEST PUSH1 0x0 DUP1 REVERT JUMPDEST PUSH1 0x0 DUP1 REVERT JUMPDEST PUSH1 0x0 PUSH8 0xFFFFFFFFFFFFFFFF DUP3 GT ISZERO PUSH2 0x1E0C JUMPI PUSH2 0x1E0B PUSH2 0x1D46 JUMP JUMPDEST JUMPDEST PUSH2 0x1E15 DUP3 PUSH2 0x19C7 JUMP JUMPDEST SWAP1 POP PUSH1 0x20 DUP2 ADD SWAP1 POP SWAP2 SWAP1 POP JUMP JUMPDEST DUP3 DUP2 DUP4 CALLDATACOPY PUSH1 0x0 DUP4 DUP4 ADD MSTORE POP POP POP JUMP JUMPDEST PUSH1 0x0 PUSH2 0x1E44 PUSH2 0x1E3F DUP5 PUSH2 0x1DF1 JUMP JUMPDEST PUSH2 0x1DA6 JUMP JUMPDEST SWAP1 POP DUP3 DUP2 MSTORE PUSH1 0x20 DUP2 ADD DUP5 DUP5 DUP5 ADD GT ISZERO PUSH2 0x1E60 JUMPI PUSH2 0x1E5F PUSH2 0x1DEC JUMP JUMPDEST JUMPDEST PUSH2 0x1E6B DUP5 DUP3 DUP6 PUSH2 0x1E22 JUMP JUMPDEST POP SWAP4 SWAP3 POP POP POP JUMP JUMPDEST PUSH1 0x0 DUP3 PUSH1 0x1F DUP4 ADD SLT PUSH2 0x1E88 JUMPI PUSH2 0x1E87 PUSH2 0x1D41 JUMP JUMPDEST JUMPDEST DUP2 CALLDATALOAD PUSH2 0x1E98 DUP5 DUP3 PUSH1 0x20 DUP7 ADD PUSH2 0x1E31 JUMP JUMPDEST SWAP2 POP POP SWAP3 SWAP2 POP POP JUMP JUMPDEST PUSH1 0x0 PUSH2 0x1EB4 PUSH2 0x1EAF DUP5 PUSH2 0x1DC1 JUMP JUMPDEST PUSH2 0x1DA6 JUMP JUMPDEST SWAP1 POP DUP1 PUSH1 0x20 DUP5 MUL DUP4 ADD DUP6 DUP2 GT ISZERO PUSH2 0x1ECE JUMPI PUSH2 0x1ECD PUSH2 0x1DE7 JUMP JUMPDEST JUMPDEST DUP4 JUMPDEST DUP2 DUP2 LT ISZERO PUSH2 0x1F15 JUMPI DUP1 CALLDATALOAD PUSH8 0xFFFFFFFFFFFFFFFF DUP2 GT ISZERO PUSH2 0x1EF3 JUMPI PUSH2 0x1EF2 PUSH2 0x1D41 JUMP JUMPDEST JUMPDEST DUP1 DUP7 ADD PUSH2 0x1F00 DUP10 DUP3 PUSH2 0x1E73 JUMP JUMPDEST DUP6 MSTORE PUSH1 0x20 DUP6 ADD SWAP5 POP POP POP PUSH1 0x20 DUP2 ADD SWAP1 POP PUSH2 0x1ED0 JUMP JUMPDEST POP POP POP SWAP4 SWAP3 POP POP POP JUMP JUMPDEST PUSH1 0x0 DUP3 PUSH1 0x1F DUP4 ADD SLT PUSH2 0x1F34 JUMPI PUSH2 0x1F33 PUSH2 0x1D41 JUMP JUMPDEST JUMPDEST PUSH1 0x2 PUSH2 0x1F41 DUP5 DUP3 DUP6 PUSH2 0x1EA1 JUMP JUMPDEST SWAP2 POP POP SWAP3 SWAP2 POP POP JUMP JUMPDEST PUSH1 0x0 DUP1 PUSH1 0x40 DUP4 DUP6 SUB SLT ISZERO PUSH2 0x1F61 JUMPI PUSH2 0x1F60 PUSH2 0x1811 JUMP JUMPDEST JUMPDEST PUSH1 0x0 PUSH2 0x1F6F DUP6 DUP3 DUP7 ADD PUSH2 0x191F JUMP JUMPDEST SWAP3 POP POP PUSH1 0x20 DUP4 ADD CALLDATALOAD PUSH8 0xFFFFFFFFFFFFFFFF DUP2 GT ISZERO PUSH2 0x1F90 JUMPI PUSH2 0x1F8F PUSH2 0x1816 JUMP JUMPDEST JUMPDEST PUSH2 0x1F9C DUP6 DUP3 DUP7 ADD PUSH2 0x1F1F JUMP JUMPDEST SWAP2 POP POP SWAP3 POP SWAP3 SWAP1 POP JUMP JUMPDEST PUSH1 0x0 DUP2 SWAP1 POP SWAP2 SWAP1 POP JUMP JUMPDEST PUSH2 0x1FB9 DUP2 PUSH2 0x1FA6 JUMP JUMPDEST DUP2 EQ PUSH2 0x1FC4 JUMPI PUSH1 0x0 DUP1 REVERT JUMPDEST POP JUMP JUMPDEST PUSH1 0x0 DUP2 CALLDATALOAD SWAP1 POP PUSH2 0x1FD6 DUP2 PUSH2 0x1FB0 JUMP JUMPDEST SWAP3 SWAP2 POP POP JUMP JUMPDEST PUSH1 0x0 PUSH1 0x20 DUP3 DUP5 SUB SLT ISZERO PUSH2 0x1FF2 JUMPI PUSH2 0x1FF1 PUSH2 0x1811 JUMP JUMPDEST JUMPDEST PUSH1 0x0 PUSH2 0x2000 DUP5 DUP3 DUP6 ADD PUSH2 0x1FC7 JUMP JUMPDEST SWAP2 POP POP SWAP3 SWAP2 POP POP JUMP JUMPDEST PUSH2 0x2012 DUP2 PUSH2 0x1FA6 JUMP JUMPDEST DUP3 MSTORE POP POP JUMP JUMPDEST PUSH1 0x0 PUSH1 0x20 DUP3 ADD SWAP1 POP PUSH2 0x202D PUSH1 0x0 DUP4 ADD DUP5 PUSH2 0x2009 JUMP JUMPDEST SWAP3 SWAP2 POP POP JUMP JUMPDEST PUSH1 0x0 DUP1 PUSH1 0x40 DUP4 DUP6 SUB SLT ISZERO PUSH2 0x204A JUMPI PUSH2 0x2049 PUSH2 0x1811 JUMP JUMPDEST JUMPDEST PUSH1 0x0 PUSH2 0x2058 DUP6 DUP3 DUP7 ADD PUSH2 0x1FC7 JUMP JUMPDEST SWAP3 POP POP PUSH1 0x20 PUSH2 0x2069 DUP6 DUP3 DUP7 ADD PUSH2 0x191F JUMP JUMPDEST SWAP2 POP POP SWAP3 POP SWAP3 SWAP1 POP JUMP JUMPDEST PUSH1 0x0 PUSH8 0xFFFFFFFFFFFFFFFF DUP3 GT ISZERO PUSH2 0x208E JUMPI PUSH2 0x208D PUSH2 0x1D46 JUMP JUMPDEST JUMPDEST PUSH1 0x20 DUP3 MUL SWAP1 POP SWAP2 SWAP1 POP JUMP JUMPDEST PUSH1 0x0 PUSH2 0x20AC PUSH2 0x20A7 DUP5 PUSH2 0x2073 JUMP JUMPDEST PUSH2 0x1DA6 JUMP JUMPDEST SWAP1 POP DUP1 PUSH1 0x20 DUP5 MUL DUP4 ADD DUP6 DUP2 GT ISZERO PUSH2 0x20C6 JUMPI PUSH2 0x20C5 PUSH2 0x1DE7 JUMP JUMPDEST JUMPDEST DUP4 JUMPDEST DUP2 DUP2 LT ISZERO PUSH2 0x210D JUMPI DUP1 CALLDATALOAD PUSH8 0xFFFFFFFFFFFFFFFF DUP2 GT ISZERO PUSH2 0x20EB JUMPI PUSH2 0x20EA PUSH2 0x1D41 JUMP JUMPDEST JUMPDEST DUP1 DUP7 ADD PUSH2 0x20F8 DUP10 DUP3 PUSH2 0x1E73 JUMP JUMPDEST DUP6 MSTORE PUSH1 0x20 DUP6 ADD SWAP5 POP POP POP PUSH1 0x20 DUP2 ADD SWAP1 POP PUSH2 0x20C8 JUMP JUMPDEST POP POP POP SWAP4 SWAP3 POP POP POP JUMP JUMPDEST PUSH1 0x0 DUP3 PUSH1 0x1F DUP4 ADD SLT PUSH2 0x212C JUMPI PUSH2 0x212B PUSH2 0x1D41 JUMP JUMPDEST JUMPDEST PUSH1 0x6 PUSH2 0x2139 DUP5 DUP3 DUP6 PUSH2 0x2099 JUMP JUMPDEST SWAP2 POP POP SWAP3 SWAP2 POP POP JUMP JUMPDEST PUSH1 0x0 DUP1 PUSH1 0x40 DUP4 DUP6 SUB SLT ISZERO PUSH2 0x2159 JUMPI PUSH2 0x2158 PUSH2 0x1811 JUMP JUMPDEST JUMPDEST PUSH1 0x0 PUSH2 0x2167 DUP6 DUP3 DUP7 ADD PUSH2 0x191F JUMP JUMPDEST SWAP3 POP POP PUSH1 0x20 DUP4 ADD CALLDATALOAD PUSH8 0xFFFFFFFFFFFFFFFF DUP2 GT ISZERO PUSH2 0x2188 JUMPI PUSH2 0x2187 PUSH2 0x1816 JUMP JUMPDEST JUMPDEST PUSH2 0x2194 DUP6 DUP3 DUP7 ADD PUSH2 0x2117 JUMP JUMPDEST SWAP2 POP POP SWAP3 POP SWAP3 SWAP1 POP JUMP JUMPDEST PUSH1 0x0 PUSH8 0xFFFFFFFFFFFFFFFF DUP3 GT ISZERO PUSH2 0x21B9 JUMPI PUSH2 0x21B8 PUSH2 0x1D46 JUMP JUMPDEST JUMPDEST PUSH1 0x20 DUP3 MUL SWAP1 POP SWAP2 SWAP1 POP JUMP JUMPDEST PUSH1 0x0 PUSH2 0x21D7 PUSH2 0x21D2 DUP5 PUSH2 0x219E JUMP JUMPDEST PUSH2 0x1DA6 JUMP JUMPDEST SWAP1 POP DUP1 PUSH1 0x20 DUP5 MUL DUP4 ADD DUP6 DUP2 GT ISZERO PUSH2 0x21F1 JUMPI PUSH2 0x21F0 PUSH2 0x1DE7 JUMP JUMPDEST JUMPDEST DUP4 JUMPDEST DUP2 DUP2 LT ISZERO PUSH2 0x2238 JUMPI DUP1 CALLDATALOAD PUSH8 0xFFFFFFFFFFFFFFFF DUP2 GT ISZERO PUSH2 0x2216 JUMPI PUSH2 0x2215 PUSH2 0x1D41 JUMP JUMPDEST JUMPDEST DUP1 DUP7 ADD PUSH2 0x2223 DUP10 DUP3 PUSH2 0x1E73 JUMP JUMPDEST DUP6 MSTORE PUSH1 0x20 DUP6 ADD SWAP5 POP POP POP PUSH1 0x20 DUP2 ADD SWAP1 POP PUSH2 0x21F3 JUMP JUMPDEST POP POP POP SWAP4 SWAP3 POP POP POP JUMP JUMPDEST PUSH1 0x0 DUP3 PUSH1 0x1F DUP4 ADD SLT PUSH2 0x2257 JUMPI PUSH2 0x2256 PUSH2 0x1D41 JUMP JUMPDEST JUMPDEST PUSH1 0x7 PUSH2 0x2264 DUP5 DUP3 DUP6 PUSH2 0x21C4 JUMP JUMPDEST SWAP2 POP POP SWAP3 SWAP2 POP POP JUMP JUMPDEST PUSH1 0x0 DUP1 PUSH1 0x40 DUP4 DUP6 SUB SLT ISZERO PUSH2 0x2284 JUMPI PUSH2 0x2283 PUSH2 0x1811 JUMP JUMPDEST JUMPDEST PUSH1 0x0 PUSH2 0x2292 DUP6 DUP3 DUP7 ADD PUSH2 0x191F JUMP JUMPDEST SWAP3 POP POP PUSH1 0x20 DUP4 ADD CALLDATALOAD PUSH8 0xFFFFFFFFFFFFFFFF DUP2 GT ISZERO PUSH2 0x22B3 JUMPI PUSH2 0x22B2 PUSH2 0x1816 JUMP JUMPDEST JUMPDEST PUSH2 0x22BF DUP6 DUP3 DUP7 ADD PUSH2 0x2242 JUMP JUMPDEST SWAP2 POP POP SWAP3 POP SWAP3 SWAP1 POP JUMP JUMPDEST PUSH2 0x22D2 DUP2 PUSH2 0x18F6 JUMP JUMPDEST DUP3 MSTORE POP POP JUMP JUMPDEST PUSH1 0x0 PUSH1 0x20 DUP3 ADD SWAP1 POP PUSH2 0x22ED PUSH1 0x0 DUP4 ADD DUP5 PUSH2 0x22C9 JUMP JUMPDEST SWAP3 SWAP2 POP POP JUMP JUMPDEST PUSH1 0x0 PUSH8 0xFFFFFFFFFFFFFFFF DUP3 GT ISZERO PUSH2 0x230E JUMPI PUSH2 0x230D PUSH2 0x1D46 JUMP JUMPDEST JUMPDEST PUSH1 0x20 DUP3 MUL SWAP1 POP SWAP2 SWAP1 POP JUMP JUMPDEST PUSH1 0x0 PUSH2 0x232C PUSH2 0x2327 DUP5 PUSH2 0x22F3 JUMP JUMPDEST PUSH2 0x1DA6 JUMP JUMPDEST SWAP1 POP DUP1 PUSH1 0x20 DUP5 MUL DUP4 ADD DUP6 DUP2 GT ISZERO PUSH2 0x2346 JUMPI PUSH2 0x2345 PUSH2 0x1DE7 JUMP JUMPDEST JUMPDEST DUP4 JUMPDEST DUP2 DUP2 LT ISZERO PUSH2 0x238D JUMPI DUP1 CALLDATALOAD PUSH8 0xFFFFFFFFFFFFFFFF DUP2 GT ISZERO PUSH2 0x236B JUMPI PUSH2 0x236A PUSH2 0x1D41 JUMP JUMPDEST JUMPDEST DUP1 DUP7 ADD PUSH2 0x2378 DUP10 DUP3 PUSH2 0x1E73 JUMP JUMPDEST DUP6 MSTORE PUSH1 0x20 DUP6 ADD SWAP5 POP POP POP PUSH1 0x20 DUP2 ADD SWAP1 POP PUSH2 0x2348 JUMP JUMPDEST POP POP POP SWAP4 SWAP3 POP POP POP JUMP JUMPDEST PUSH1 0x0 DUP3 PUSH1 0x1F DUP4 ADD SLT PUSH2 0x23AC JUMPI PUSH2 0x23AB PUSH2 0x1D41 JUMP JUMPDEST JUMPDEST PUSH1 0x3 PUSH2 0x23B9 DUP5 DUP3 DUP6 PUSH2 0x2319 JUMP JUMPDEST SWAP2 POP POP SWAP3 SWAP2 POP POP JUMP JUMPDEST PUSH1 0x0 DUP1 PUSH1 0x40 DUP4 DUP6 SUB SLT ISZERO PUSH2 0x23D9 JUMPI PUSH2 0x23D8 PUSH2 0x1811 JUMP JUMPDEST JUMPDEST PUSH1 0x0 PUSH2 0x23E7 DUP6 DUP3 DUP7 ADD PUSH2 0x191F JUMP JUMPDEST SWAP3 POP POP PUSH1 0x20 DUP4 ADD CALLDATALOAD PUSH8 0xFFFFFFFFFFFFFFFF DUP2 GT ISZERO PUSH2 0x2408 JUMPI PUSH2 0x2407 PUSH2 0x1816 JUMP JUMPDEST JUMPDEST PUSH2 0x2414 DUP6 DUP3 DUP7 ADD PUSH2 0x2397 JUMP JUMPDEST SWAP2 POP POP SWAP3 POP SWAP3 SWAP1 POP JUMP JUMPDEST PUSH1 0x0 DUP3 DUP3 MSTORE PUSH1 0x20 DUP3 ADD SWAP1 POP SWAP3 SWAP2 POP POP JUMP JUMPDEST PUSH32 0x4163636573732044656E69656400000000000000000000000000000000000000 PUSH1 0x0 DUP3 ADD MSTORE POP JUMP JUMPDEST PUSH1 0x0 PUSH2 0x2465 PUSH1 0xD DUP4 PUSH2 0x241E JUMP JUMPDEST SWAP2 POP PUSH2 0x2470 DUP3 PUSH2 0x242F JUMP JUMPDEST PUSH1 0x20 DUP3 ADD SWAP1 POP SWAP2 SWAP1 POP JUMP JUMPDEST PUSH1 0x0 PUSH1 0x20 DUP3 ADD SWAP1 POP DUP2 DUP2 SUB PUSH1 0x0 DUP4 ADD MSTORE PUSH2 0x2494 DUP2 PUSH2 0x2458 JUMP JUMPDEST SWAP1 POP SWAP2 SWAP1 POP JUMP JUMPDEST PUSH32 0x4E487B7100000000000000000000000000000000000000000000000000000000 PUSH1 0x0 MSTORE PUSH1 0x22 PUSH1 0x4 MSTORE PUSH1 0x24 PUSH1 0x0 REVERT JUMPDEST PUSH1 0x0 PUSH1 0x2 DUP3 DIV SWAP1 POP PUSH1 0x1 DUP3 AND DUP1 PUSH2 0x24E2 JUMPI PUSH1 0x7F DUP3 AND SWAP2 POP JUMPDEST PUSH1 0x20 DUP3 LT DUP2 SUB PUSH2 0x24F5 JUMPI PUSH2 0x24F4 PUSH2 0x249B JUMP JUMPDEST JUMPDEST POP SWAP2 SWAP1 POP JUMP JUMPDEST PUSH1 0x0 DUP2 SWAP1 POP SWAP3 SWAP2 POP POP JUMP JUMPDEST PUSH1 0x0 PUSH2 0x2511 DUP3 PUSH2 0x1BEB JUMP JUMPDEST PUSH2 0x251B DUP2 DUP6 PUSH2 0x24FB JUMP JUMPDEST SWAP4 POP DUP4 PUSH1 0x20 DUP3 MUL DUP6 ADD PUSH2 0x252D DUP6 PUSH2 0x1C01 JUMP JUMPDEST DUP1 PUSH1 0x0 JUMPDEST DUP6 DUP2 LT ISZERO PUSH2 0x2569 JUMPI DUP5 DUP5 SUB DUP10 MSTORE DUP2 MLOAD PUSH2 0x254A DUP6 DUP3 PUSH2 0x1A11 JUMP JUMPDEST SWAP5 POP PUSH2 0x2555 DUP4 PUSH2 0x1C0B JUMP JUMPDEST SWAP3 POP PUSH1 0x20 DUP11 ADD SWAP10 POP POP PUSH1 0x1 DUP2 ADD SWAP1 POP PUSH2 0x2531 JUMP JUMPDEST POP DUP3 SWAP8 POP DUP8 SWAP6 POP POP POP POP POP POP SWAP3 SWAP2 POP POP JUMP JUMPDEST PUSH1 0x0 PUSH1 0x20 DUP3 ADD SWAP1 POP DUP2 DUP2 SUB PUSH1 0x0 DUP4 ADD MSTORE PUSH2 0x2595 DUP2 DUP5 PUSH2 0x2506 JUMP JUMPDEST SWAP1 POP SWAP3 SWAP2 POP POP JUMP JUMPDEST PUSH32 0x416363657373436F6E74726F6C3A2063616E206F6E6C792072656E6F756E6365 PUSH1 0x0 DUP3 ADD MSTORE PUSH32 0x20726F6C657320666F722073656C660000000000000000000000000000000000 PUSH1 0x20 DUP3 ADD MSTORE POP JUMP JUMPDEST PUSH1 0x0 PUSH2 0x25F9 PUSH1 0x2F DUP4 PUSH2 0x241E JUMP JUMPDEST SWAP2 POP PUSH2 0x2604 DUP3 PUSH2 0x259D JUMP JUMPDEST PUSH1 0x40 DUP3 ADD SWAP1 POP SWAP2 SWAP1 POP JUMP JUMPDEST PUSH1 0x0 PUSH1 0x20 DUP3 ADD SWAP1 POP DUP2 DUP2 SUB PUSH1 0x0 DUP4 ADD MSTORE PUSH2 0x2628 DUP2 PUSH2 0x25EC JUMP JUMPDEST SWAP1 POP SWAP2 SWAP1 POP JUMP JUMPDEST PUSH1 0x0 DUP2 SWAP1 POP SWAP3 SWAP2 POP POP JUMP JUMPDEST PUSH1 0x0 PUSH2 0x2645 DUP3 PUSH2 0x1961 JUMP JUMPDEST PUSH2 0x264F DUP2 DUP6 PUSH2 0x262F JUMP JUMPDEST SWAP4 POP DUP4 PUSH1 0x20 DUP3 MUL DUP6 ADD PUSH2 0x2661 DUP6 PUSH2 0x1977 JUMP JUMPDEST DUP1 PUSH1 0x0 JUMPDEST DUP6 DUP2 LT ISZERO PUSH2 0x269D JUMPI DUP5 DUP5 SUB DUP10 MSTORE DUP2 MLOAD PUSH2 0x267E DUP6 DUP3 PUSH2 0x1A11 JUMP JUMPDEST SWAP5 POP PUSH2 0x2689 DUP4 PUSH2 0x1A25 JUMP JUMPDEST SWAP3 POP PUSH1 0x20 DUP11 ADD SWAP10 POP POP PUSH1 0x1 DUP2 ADD SWAP1 POP PUSH2 0x2665 JUMP JUMPDEST POP DUP3 SWAP8 POP DUP8 SWAP6 POP POP POP POP POP POP SWAP3 SWAP2 POP POP JUMP JUMPDEST PUSH1 0x0 PUSH1 0x20 DUP3 ADD SWAP1 POP DUP2 DUP2 SUB PUSH1 0x0 DUP4 ADD MSTORE PUSH2 0x26C9 DUP2 DUP5 PUSH2 0x263A JUMP JUMPDEST SWAP1 POP SWAP3 SWAP2 POP POP JUMP JUMPDEST PUSH1 0x0 DUP2 SWAP1 POP SWAP3 SWAP2 POP POP JUMP JUMPDEST PUSH1 0x0 PUSH2 0x26E7 DUP3 PUSH2 0x1AA7 JUMP JUMPDEST PUSH2 0x26F1 DUP2 DUP6 PUSH2 0x26D1 JUMP JUMPDEST SWAP4 POP DUP4 PUSH1 0x20 DUP3 MUL DUP6 ADD PUSH2 0x2703 DUP6 PUSH2 0x1ABD JUMP JUMPDEST DUP1 PUSH1 0x0 JUMPDEST DUP6 DUP2 LT ISZERO PUSH2 0x273F JUMPI DUP5 DUP5 SUB DUP10 MSTORE DUP2 MLOAD PUSH2 0x2720 DUP6 DUP3 PUSH2 0x1A11 JUMP JUMPDEST SWAP5 POP PUSH2 0x272B DUP4 PUSH2 0x1AC7 JUMP JUMPDEST SWAP3 POP PUSH1 0x20 DUP11 ADD SWAP10 POP POP PUSH1 0x1 DUP2 ADD SWAP1 POP PUSH2 0x2707 JUMP JUMPDEST POP DUP3 SWAP8 POP DUP8 SWAP6 POP POP POP POP POP POP SWAP3 SWAP2 POP POP JUMP JUMPDEST PUSH1 0x0 PUSH1 0x20 DUP3 ADD SWAP1 POP DUP2 DUP2 SUB PUSH1 0x0 DUP4 ADD MSTORE PUSH2 0x276B DUP2 DUP5 PUSH2 0x26DC JUMP JUMPDEST SWAP1 POP SWAP3 SWAP2 POP POP JUMP JUMPDEST PUSH1 0x0 DUP2 SWAP1 POP SWAP3 SWAP2 POP POP JUMP JUMPDEST PUSH1 0x0 PUSH2 0x2789 DUP3 PUSH2 0x1B49 JUMP JUMPDEST PUSH2 0x2793 DUP2 DUP6 PUSH2 0x2773 JUMP JUMPDEST SWAP4 POP DUP4 PUSH1 0x20 DUP3 MUL DUP6 ADD PUSH2 0x27A5 DUP6 PUSH2 0x1B5F JUMP JUMPDEST DUP1 PUSH1 0x0 JUMPDEST DUP6 DUP2 LT ISZERO PUSH2 0x27E1 JUMPI DUP5 DUP5 SUB DUP10 MSTORE DUP2 MLOAD PUSH2 0x27C2 DUP6 DUP3 PUSH2 0x1A11 JUMP JUMPDEST SWAP5 POP PUSH2 0x27CD DUP4 PUSH2 0x1B69 JUMP JUMPDEST SWAP3 POP PUSH1 0x20 DUP11 ADD SWAP10 POP POP PUSH1 0x1 DUP2 ADD SWAP1 POP PUSH2 0x27A9 JUMP JUMPDEST POP DUP3 SWAP8 POP DUP8 SWAP6 POP POP POP POP POP POP SWAP3 SWAP2 POP POP JUMP JUMPDEST PUSH1 0x0 PUSH1 0x20 DUP3 ADD SWAP1 POP DUP2 DUP2 SUB PUSH1 0x0 DUP4 ADD MSTORE PUSH2 0x280D DUP2 DUP5 PUSH2 0x277E JUMP JUMPDEST SWAP1 POP SWAP3 SWAP2 POP POP JUMP JUMPDEST PUSH32 0x4F776E61626C653A206E6577206F776E657220697320746865207A65726F2061 PUSH1 0x0 DUP3 ADD MSTORE PUSH32 0x6464726573730000000000000000000000000000000000000000000000000000 PUSH1 0x20 DUP3 ADD MSTORE POP JUMP JUMPDEST PUSH1 0x0 PUSH2 0x2871 PUSH1 0x26 DUP4 PUSH2 0x241E JUMP JUMPDEST SWAP2 POP PUSH2 0x287C DUP3 PUSH2 0x2815 JUMP JUMPDEST PUSH1 0x40 DUP3 ADD SWAP1 POP SWAP2 SWAP1 POP JUMP JUMPDEST PUSH1 0x0 PUSH1 0x20 DUP3 ADD SWAP1 POP DUP2 DUP2 SUB PUSH1 0x0 DUP4 ADD MSTORE PUSH2 0x28A0 DUP2 PUSH2 0x2864 JUMP JUMPDEST SWAP1 POP SWAP2 SWAP1 POP JUMP JUMPDEST PUSH32 0x4F776E61626C653A2063616C6C6572206973206E6F7420746865206F776E6572 PUSH1 0x0 DUP3 ADD MSTORE POP JUMP JUMPDEST PUSH1 0x0 PUSH2 0x28DD PUSH1 0x20 DUP4 PUSH2 0x241E JUMP JUMPDEST SWAP2 POP PUSH2 0x28E8 DUP3 PUSH2 0x28A7 JUMP JUMPDEST PUSH1 0x20 DUP3 ADD SWAP1 POP SWAP2 SWAP1 POP JUMP JUMPDEST PUSH1 0x0 PUSH1 0x20 DUP3 ADD SWAP1 POP DUP2 DUP2 SUB PUSH1 0x0 DUP4 ADD MSTORE PUSH2 0x290C DUP2 PUSH2 0x28D0 JUMP JUMPDEST SWAP1 POP SWAP2 SWAP1 POP JUMP JUMPDEST PUSH1 0x0 DUP2 SWAP1 POP SWAP3 SWAP2 POP POP JUMP JUMPDEST PUSH32 0x416363657373436F6E74726F6C3A206163636F756E7420000000000000000000 PUSH1 0x0 DUP3 ADD MSTORE POP JUMP JUMPDEST PUSH1 0x0 PUSH2 0x2954 PUSH1 0x17 DUP4 PUSH2 0x2913 JUMP JUMPDEST SWAP2 POP PUSH2 0x295F DUP3 PUSH2 0x291E JUMP JUMPDEST PUSH1 0x17 DUP3 ADD SWAP1 POP SWAP2 SWAP1 POP JUMP JUMPDEST PUSH1 0x0 PUSH2 0x2975 DUP3 PUSH2 0x1981 JUMP JUMPDEST PUSH2 0x297F DUP2 DUP6 PUSH2 0x2913 JUMP JUMPDEST SWAP4 POP PUSH2 0x298F DUP2 DUP6 PUSH1 0x20 DUP7 ADD PUSH2 0x199D JUMP JUMPDEST DUP1 DUP5 ADD SWAP2 POP POP SWAP3 SWAP2 POP POP JUMP JUMPDEST PUSH32 0x206973206D697373696E6720726F6C6520000000000000000000000000000000 PUSH1 0x0 DUP3 ADD MSTORE POP JUMP JUMPDEST PUSH1 0x0 PUSH2 0x29D1 PUSH1 0x11 DUP4 PUSH2 0x2913 JUMP JUMPDEST SWAP2 POP PUSH2 0x29DC DUP3 PUSH2 0x299B JUMP JUMPDEST PUSH1 0x11 DUP3 ADD SWAP1 POP SWAP2 SWAP1 POP JUMP JUMPDEST PUSH1 0x0 PUSH2 0x29F2 DUP3 PUSH2 0x2947 JUMP JUMPDEST SWAP2 POP PUSH2 0x29FE DUP3 DUP6 PUSH2 0x296A JUMP JUMPDEST SWAP2 POP PUSH2 0x2A09 DUP3 PUSH2 0x29C4 JUMP JUMPDEST SWAP2 POP PUSH2 0x2A15 DUP3 DUP5 PUSH2 0x296A JUMP JUMPDEST SWAP2 POP DUP2 SWAP1 POP SWAP4 SWAP3 POP POP POP JUMP JUMPDEST PUSH1 0x0 PUSH2 0x2A2C DUP3 PUSH2 0x1981 JUMP JUMPDEST PUSH2 0x2A36 DUP2 DUP6 PUSH2 0x241E JUMP JUMPDEST SWAP4 POP PUSH2 0x2A46 DUP2 DUP6 PUSH1 0x20 DUP7 ADD PUSH2 0x199D JUMP JUMPDEST PUSH2 0x2A4F DUP2 PUSH2 0x19C7 JUMP JUMPDEST DUP5 ADD SWAP2 POP POP SWAP3 SWAP2 POP POP JUMP JUMPDEST PUSH1 0x0 PUSH1 0x20 DUP3 ADD SWAP1 POP DUP2 DUP2 SUB PUSH1 0x0 DUP4 ADD MSTORE PUSH2 0x2A74 DUP2 DUP5 PUSH2 0x2A21 JUMP JUMPDEST SWAP1 POP SWAP3 SWAP2 POP POP JUMP JUMPDEST PUSH1 0x0 DUP2 SWAP1 POP SWAP2 SWAP1 POP JUMP JUMPDEST PUSH32 0x4E487B7100000000000000000000000000000000000000000000000000000000 PUSH1 0x0 MSTORE PUSH1 0x11 PUSH1 0x4 MSTORE PUSH1 0x24 PUSH1 0x0 REVERT JUMPDEST PUSH1 0x0 PUSH2 0x2AC0 DUP3 PUSH2 0x2A7C JUMP JUMPDEST SWAP2 POP PUSH2 0x2ACB DUP4 PUSH2 0x2A7C JUMP JUMPDEST SWAP3 POP DUP3 DUP3 MUL PUSH2 0x2AD9 DUP2 PUSH2 0x2A7C JUMP JUMPDEST SWAP2 POP DUP3 DUP3 DIV DUP5 EQ DUP4 ISZERO OR PUSH2 0x2AF0 JUMPI PUSH2 0x2AEF PUSH2 0x2A86 JUMP JUMPDEST JUMPDEST POP SWAP3 SWAP2 POP POP JUMP JUMPDEST PUSH1 0x0 PUSH2 0x2B02 DUP3 PUSH2 0x2A7C JUMP JUMPDEST SWAP2 POP PUSH2 0x2B0D DUP4 PUSH2 0x2A7C JUMP JUMPDEST SWAP3 POP DUP3 DUP3 ADD SWAP1 POP DUP1 DUP3 GT ISZERO PUSH2 0x2B25 JUMPI PUSH2 0x2B24 PUSH2 0x2A86 JUMP JUMPDEST JUMPDEST SWAP3 SWAP2 POP POP JUMP JUMPDEST PUSH32 0x4E487B7100000000000000000000000000000000000000000000000000000000 PUSH1 0x0 MSTORE PUSH1 0x32 PUSH1 0x4 MSTORE PUSH1 0x24 PUSH1 0x0 REVERT JUMPDEST PUSH1 0x0 PUSH2 0x2B65 DUP3 PUSH2 0x2A7C JUMP JUMPDEST SWAP2 POP PUSH1 0x0 DUP3 SUB PUSH2 0x2B78 JUMPI PUSH2 0x2B77 PUSH2 0x2A86 JUMP JUMPDEST JUMPDEST PUSH1 0x1 DUP3 SUB SWAP1 POP SWAP2 SWAP1 POP JUMP JUMPDEST PUSH32 0x537472696E67733A20686578206C656E67746820696E73756666696369656E74 PUSH1 0x0 DUP3 ADD MSTORE POP JUMP JUMPDEST PUSH1 0x0 PUSH2 0x2BB9 PUSH1 0x20 DUP4 PUSH2 0x241E JUMP JUMPDEST SWAP2 POP PUSH2 0x2BC4 DUP3 PUSH2 0x2B83 JUMP JUMPDEST PUSH1 0x20 DUP3 ADD SWAP1 POP SWAP2 SWAP1 POP JUMP JUMPDEST PUSH1 0x0 PUSH1 0x20 DUP3 ADD SWAP1 POP DUP2 DUP2 SUB PUSH1 0x0 DUP4 ADD MSTORE PUSH2 0x2BE8 DUP2 PUSH2 0x2BAC JUMP JUMPDEST SWAP1 POP SWAP2 SWAP1 POP JUMP JUMPDEST PUSH1 0x0 DUP2 SWAP1 POP DUP2 PUSH1 0x0 MSTORE PUSH1 0x20 PUSH1 0x0 KECCAK256 SWAP1 POP SWAP2 SWAP1 POP JUMP JUMPDEST PUSH1 0x0 PUSH1 0x20 PUSH1 0x1F DUP4 ADD DIV SWAP1 POP SWAP2 SWAP1 POP JUMP JUMPDEST PUSH1 0x0 DUP3 DUP3 SHL SWAP1 POP SWAP3 SWAP2 POP POP JUMP JUMPDEST PUSH1 0x0 PUSH1 0x8 DUP4 MUL PUSH2 0x2C51 PUSH32 0xFFFFFFFFFFFFFFFFFFFFFFFFFFFFFFFFFFFFFFFFFFFFFFFFFFFFFFFFFFFFFFFF DUP3 PUSH2 0x2C14 JUMP JUMPDEST PUSH2 0x2C5B DUP7 DUP4 PUSH2 0x2C14 JUMP JUMPDEST SWAP6 POP DUP1 NOT DUP5 AND SWAP4 POP DUP1 DUP7 AND DUP5 OR SWAP3 POP POP POP SWAP4 SWAP3 POP POP POP JUMP JUMPDEST PUSH1 0x0 DUP2 SWAP1 POP SWAP2 SWAP1 POP JUMP JUMPDEST PUSH1 0x0 PUSH2 0x2C98 PUSH2 0x2C93 PUSH2 0x2C8E DUP5 PUSH2 0x2A7C JUMP JUMPDEST PUSH2 0x2C73 JUMP JUMPDEST PUSH2 0x2A7C JUMP JUMPDEST SWAP1 POP SWAP2 SWAP1 POP JUMP JUMPDEST PUSH1 0x0 DUP2 SWAP1 POP SWAP2 SWAP1 POP JUMP JUMPDEST PUSH2 0x2CB2 DUP4 PUSH2 0x2C7D JUMP JUMPDEST PUSH2 0x2CC6 PUSH2 0x2CBE DUP3 PUSH2 0x2C9F JUMP JUMPDEST DUP5 DUP5 SLOAD PUSH2 0x2C21 JUMP JUMPDEST DUP3 SSTORE POP POP POP POP JUMP JUMPDEST PUSH1 0x0 SWAP1 JUMP JUMPDEST PUSH2 0x2CDB PUSH2 0x2CCE JUMP JUMPDEST PUSH2 0x2CE6 DUP2 DUP5 DUP5 PUSH2 0x2CA9 JUMP JUMPDEST POP POP POP JUMP JUMPDEST JUMPDEST DUP2 DUP2 LT ISZERO PUSH2 0x2D0A JUMPI PUSH2 0x2CFF PUSH1 0x0 DUP3 PUSH2 0x2CD3 JUMP JUMPDEST PUSH1 0x1 DUP2 ADD SWAP1 POP PUSH2 0x2CEC JUMP JUMPDEST POP POP JUMP JUMPDEST PUSH1 0x1F DUP3 GT ISZERO PUSH2 0x2D4F JUMPI PUSH2 0x2D20 DUP2 PUSH2 0x2BEF JUMP JUMPDEST PUSH2 0x2D29 DUP5 PUSH2 0x2C04 JUMP JUMPDEST DUP2 ADD PUSH1 0x20 DUP6 LT ISZERO PUSH2 0x2D38 JUMPI DUP2 SWAP1 POP JUMPDEST PUSH2 0x2D4C PUSH2 0x2D44 DUP6 PUSH2 0x2C04 JUMP JUMPDEST DUP4 ADD DUP3 PUSH2 0x2CEB JUMP JUMPDEST POP POP JUMPDEST POP POP POP JUMP JUMPDEST PUSH1 0x0 DUP3 DUP3 SHR SWAP1 POP SWAP3 SWAP2 POP POP JUMP JUMPDEST PUSH1 0x0 PUSH2 0x2D72 PUSH1 0x0 NOT DUP5 PUSH1 0x8 MUL PUSH2 0x2D54 JUMP JUMPDEST NOT DUP1 DUP4 AND SWAP2 POP POP SWAP3 SWAP2 POP POP JUMP JUMPDEST PUSH1 0x0 PUSH2 0x2D8B DUP4 DUP4 PUSH2 0x2D61 JUMP JUMPDEST SWAP2 POP DUP3 PUSH1 0x2 MUL DUP3 OR SWAP1 POP SWAP3 SWAP2 POP POP JUMP JUMPDEST PUSH2 0x2DA4 DUP3 PUSH2 0x1981 JUMP JUMPDEST PUSH8 0xFFFFFFFFFFFFFFFF DUP2 GT ISZERO PUSH2 0x2DBD JUMPI PUSH2 0x2DBC PUSH2 0x1D46 JUMP JUMPDEST JUMPDEST PUSH2 0x2DC7 DUP3 SLOAD PUSH2 0x24CA JUMP JUMPDEST PUSH2 0x2DD2 DUP3 DUP3 DUP6 PUSH2 0x2D0E JUMP JUMPDEST PUSH1 0x0 PUSH1 0x20 SWAP1 POP PUSH1 0x1F DUP4 GT PUSH1 0x1 DUP2 EQ PUSH2 0x2E05 JUMPI PUSH1 0x0 DUP5 ISZERO PUSH2 0x2DF3 JUMPI DUP3 DUP8 ADD MLOAD SWAP1 POP JUMPDEST PUSH2 0x2DFD DUP6 DUP3 PUSH2 0x2D7F JUMP JUMPDEST DUP7 SSTORE POP PUSH2 0x2E65 JUMP JUMPDEST PUSH1 0x1F NOT DUP5 AND PUSH2 0x2E13 DUP7 PUSH2 0x2BEF JUMP JUMPDEST PUSH1 0x0 JUMPDEST DUP3 DUP2 LT ISZERO PUSH2 0x2E3B JUMPI DUP5 DUP10 ADD MLOAD DUP3 SSTORE PUSH1 0x1 DUP3 ADD SWAP2 POP PUSH1 0x20 DUP6 ADD SWAP5 POP PUSH1 0x20 DUP2 ADD SWAP1 POP PUSH2 0x2E16 JUMP JUMPDEST DUP7 DUP4 LT ISZERO PUSH2 0x2E58 JUMPI DUP5 DUP10 ADD MLOAD PUSH2 0x2E54 PUSH1 0x1F DUP10 AND DUP3 PUSH2 0x2D61 JUMP JUMPDEST DUP4 SSTORE POP JUMPDEST PUSH1 0x1 PUSH1 0x2 DUP9 MUL ADD DUP9 SSTORE POP POP POP JUMPDEST POP POP POP POP POP POP JUMP INVALID LOG2 PUSH5 0x6970667358 0x22 SLT KECCAK256 OR SHR 0xB9 BLOCKHASH 0xC9 BALANCE CREATE2 DUP3 PUSH27 0x574AC485E52DDAC4E147AF360D3158729AEA7AB094095664736F6C PUSH4 0x43000812 STOP CALLER "
				},
				"gasEstimates": {
					"creation": {
						"codeDepositCost": "2387800",
						"executionCost": "infinite",
						"totalCost": "infinite"
					},
					"external": {
						"DEFAULT_ADMIN_ROLE()": "401",
						"getPatientRecords(address)": "infinite",
						"getRoleAdmin(bytes32)": "infinite",
						"grantRole(bytes32,address)": "infinite",
						"hasRole(bytes32,address)": "3229",
						"onlyDoctor()": "374",
						"owner()": "2589",
						"renounceOwnership()": "30421",
						"renounceRole(bytes32,address)": "infinite",
						"revokeRole(bytes32,address)": "infinite",
						"supportsInterface(bytes4)": "751",
						"transferOwnership(address)": "30854",
						"updateDiseaseInfo(address,string[6])": "infinite",
						"updateLabResults(address,string[2])": "infinite",
						"updateLabTests(address,string[2])": "infinite",
						"updateMedicationInfo(address,string[3])": "infinite",
						"updateVitalSigns(address,string[7])": "infinite"
					}
				},
				"methodIdentifiers": {
					"DEFAULT_ADMIN_ROLE()": "a217fddf",
					"getPatientRecords(address)": "18bd4847",
					"getRoleAdmin(bytes32)": "248a9ca3",
					"grantRole(bytes32,address)": "2f2ff15d",
					"hasRole(bytes32,address)": "91d14854",
					"onlyDoctor()": "33a300e5",
					"owner()": "8da5cb5b",
					"renounceOwnership()": "715018a6",
					"renounceRole(bytes32,address)": "36568abe",
					"revokeRole(bytes32,address)": "d547741f",
					"supportsInterface(bytes4)": "01ffc9a7",
					"transferOwnership(address)": "f2fde38b",
					"updateDiseaseInfo(address,string[6])": "47453643",
					"updateLabResults(address,string[2])": "1dbb5545",
					"updateLabTests(address,string[2])": "94b31219",
					"updateMedicationInfo(address,string[3])": "942af88a",
					"updateVitalSigns(address,string[7])": "79abb058"
				}
			},
			"storageLayout": {
				"storage": [
					{
						"astId": 396,
						"contract": "contracts/vitalsContract.sol:PatientRecord",
						"label": "_owner",
						"offset": 0,
						"slot": "0",
						"type": "t_address"
					},
					{
						"astId": 24,
						"contract": "contracts/vitalsContract.sol:PatientRecord",
						"label": "_roles",
						"offset": 0,
						"slot": "1",
						"type": "t_mapping(t_bytes32,t_struct(RoleData)19_storage)"
					},
					{
						"astId": 1777,
						"contract": "contracts/vitalsContract.sol:PatientRecord",
						"label": "patientRecords",
						"offset": 0,
						"slot": "2",
						"type": "t_mapping(t_address,t_struct(Records)1798_storage)"
					}
				],
				"types": {
					"t_address": {
						"encoding": "inplace",
						"label": "address",
						"numberOfBytes": "20"
					},
					"t_array(t_string_storage)2_storage": {
						"base": "t_string_storage",
						"encoding": "inplace",
						"label": "string[2]",
						"numberOfBytes": "64"
					},
					"t_array(t_string_storage)3_storage": {
						"base": "t_string_storage",
						"encoding": "inplace",
						"label": "string[3]",
						"numberOfBytes": "96"
					},
					"t_array(t_string_storage)6_storage": {
						"base": "t_string_storage",
						"encoding": "inplace",
						"label": "string[6]",
						"numberOfBytes": "192"
					},
					"t_array(t_string_storage)7_storage": {
						"base": "t_string_storage",
						"encoding": "inplace",
						"label": "string[7]",
						"numberOfBytes": "224"
					},
					"t_bool": {
						"encoding": "inplace",
						"label": "bool",
						"numberOfBytes": "1"
					},
					"t_bytes32": {
						"encoding": "inplace",
						"label": "bytes32",
						"numberOfBytes": "32"
					},
					"t_mapping(t_address,t_bool)": {
						"encoding": "mapping",
						"key": "t_address",
						"label": "mapping(address => bool)",
						"numberOfBytes": "32",
						"value": "t_bool"
					},
					"t_mapping(t_address,t_struct(Records)1798_storage)": {
						"encoding": "mapping",
						"key": "t_address",
						"label": "mapping(address => struct PatientRecord.Records)",
						"numberOfBytes": "32",
						"value": "t_struct(Records)1798_storage"
					},
					"t_mapping(t_bytes32,t_struct(RoleData)19_storage)": {
						"encoding": "mapping",
						"key": "t_bytes32",
						"label": "mapping(bytes32 => struct AccessControl.RoleData)",
						"numberOfBytes": "32",
						"value": "t_struct(RoleData)19_storage"
					},
					"t_string_storage": {
						"encoding": "bytes",
						"label": "string",
						"numberOfBytes": "32"
					},
					"t_struct(Records)1798_storage": {
						"encoding": "inplace",
						"label": "struct PatientRecord.Records",
						"members": [
							{
								"astId": 1781,
								"contract": "contracts/vitalsContract.sol:PatientRecord",
								"label": "diseaseInfo",
								"offset": 0,
								"slot": "0",
								"type": "t_array(t_string_storage)6_storage"
							},
							{
								"astId": 1785,
								"contract": "contracts/vitalsContract.sol:PatientRecord",
								"label": "vitalSigns",
								"offset": 0,
								"slot": "6",
								"type": "t_array(t_string_storage)7_storage"
							},
							{
								"astId": 1789,
								"contract": "contracts/vitalsContract.sol:PatientRecord",
								"label": "medicationInfo",
								"offset": 0,
								"slot": "13",
								"type": "t_array(t_string_storage)3_storage"
							},
							{
								"astId": 1793,
								"contract": "contracts/vitalsContract.sol:PatientRecord",
								"label": "labTests",
								"offset": 0,
								"slot": "16",
								"type": "t_array(t_string_storage)2_storage"
							},
							{
								"astId": 1797,
								"contract": "contracts/vitalsContract.sol:PatientRecord",
								"label": "labResults",
								"offset": 0,
								"slot": "18",
								"type": "t_array(t_string_storage)2_storage"
							}
						],
						"numberOfBytes": "640"
					},
					"t_struct(RoleData)19_storage": {
						"encoding": "inplace",
						"label": "struct AccessControl.RoleData",
						"members": [
							{
								"astId": 16,
								"contract": "contracts/vitalsContract.sol:PatientRecord",
								"label": "members",
								"offset": 0,
								"slot": "0",
								"type": "t_mapping(t_address,t_bool)"
							},
							{
								"astId": 18,
								"contract": "contracts/vitalsContract.sol:PatientRecord",
								"label": "adminRole",
								"offset": 0,
								"slot": "1",
								"type": "t_bytes32"
							}
						],
						"numberOfBytes": "64"
					}
				}
			},
			"userdoc": {
				"kind": "user",
				"methods": {},
				"version": 1
			}
		}
	}
}