{
	"contracts/vitalsContract_flattened.sol": {
		"PatientRecord": {
			"abi": [
				{
					"inputs": [],
					"stateMutability": "nonpayable",
					"type": "constructor"
				},
				{
					"anonymous": false,
					"inputs": [
						{
							"indexed": true,
							"internalType": "address",
							"name": "patientAddress",
							"type": "address"
						},
						{
							"indexed": false,
							"internalType": "string[6]",
							"name": "diseaseInfo",
							"type": "string[6]"
						}
					],
					"name": "DiseaseInformationUpdated",
					"type": "event"
				},
				{
					"anonymous": false,
					"inputs": [
						{
							"indexed": true,
							"internalType": "address",
							"name": "patientAddress",
							"type": "address"
						},
						{
							"indexed": false,
							"internalType": "string[2]",
							"name": "labResults",
							"type": "string[2]"
						}
					],
					"name": "LabResultsUpdated",
					"type": "event"
				},
				{
					"anonymous": false,
					"inputs": [
						{
							"indexed": true,
							"internalType": "address",
							"name": "patientAddress",
							"type": "address"
						},
						{
							"indexed": false,
							"internalType": "string[2]",
							"name": "labTests",
							"type": "string[2]"
						}
					],
					"name": "LabTestsUpdated",
					"type": "event"
				},
				{
					"anonymous": false,
					"inputs": [
						{
							"indexed": true,
							"internalType": "address",
							"name": "patientAddress",
							"type": "address"
						},
						{
							"indexed": false,
							"internalType": "string[3]",
							"name": "medicationInfo",
							"type": "string[3]"
						}
					],
					"name": "MedicationInformationUpdated",
					"type": "event"
				},
				{
					"anonymous": false,
					"inputs": [
						{
							"indexed": true,
							"internalType": "address",
							"name": "previousOwner",
							"type": "address"
						},
						{
							"indexed": true,
							"internalType": "address",
							"name": "newOwner",
							"type": "address"
						}
					],
					"name": "OwnershipTransferred",
					"type": "event"
				},
				{
					"anonymous": false,
					"inputs": [
						{
							"indexed": true,
							"internalType": "bytes32",
							"name": "role",
							"type": "bytes32"
						},
						{
							"indexed": true,
							"internalType": "bytes32",
							"name": "previousAdminRole",
							"type": "bytes32"
						},
						{
							"indexed": true,
							"internalType": "bytes32",
							"name": "newAdminRole",
							"type": "bytes32"
						}
					],
					"name": "RoleAdminChanged",
					"type": "event"
				},
				{
					"anonymous": false,
					"inputs": [
						{
							"indexed": true,
							"internalType": "bytes32",
							"name": "role",
							"type": "bytes32"
						},
						{
							"indexed": true,
							"internalType": "address",
							"name": "account",
							"type": "address"
						},
						{
							"indexed": true,
							"internalType": "address",
							"name": "sender",
							"type": "address"
						}
					],
					"name": "RoleGranted",
					"type": "event"
				},
				{
					"anonymous": false,
					"inputs": [
						{
							"indexed": true,
							"internalType": "bytes32",
							"name": "role",
							"type": "bytes32"
						},
						{
							"indexed": true,
							"internalType": "address",
							"name": "account",
							"type": "address"
						},
						{
							"indexed": true,
							"internalType": "address",
							"name": "sender",
							"type": "address"
						}
					],
					"name": "RoleRevoked",
					"type": "event"
				},
				{
					"anonymous": false,
					"inputs": [
						{
							"indexed": true,
							"internalType": "address",
							"name": "patientAddress",
							"type": "address"
						},
						{
							"indexed": false,
							"internalType": "string[7]",
							"name": "vitalSigns",
							"type": "string[7]"
						}
					],
					"name": "VitalSignsUpdated",
					"type": "event"
				},
				{
					"inputs": [],
					"name": "DEFAULT_ADMIN_ROLE",
					"outputs": [
						{
							"internalType": "bytes32",
							"name": "",
							"type": "bytes32"
						}
					],
					"stateMutability": "view",
					"type": "function"
				},
				{
					"inputs": [
						{
							"internalType": "address",
							"name": "patientAddress",
							"type": "address"
						}
					],
					"name": "getPatientRecords",
					"outputs": [
						{
							"components": [
								{
									"internalType": "string[6]",
									"name": "diseaseInfo",
									"type": "string[6]"
								},
								{
									"internalType": "string[7]",
									"name": "vitalSigns",
									"type": "string[7]"
								},
								{
									"internalType": "string[3]",
									"name": "medicationInfo",
									"type": "string[3]"
								},
								{
									"internalType": "string[2]",
									"name": "labTests",
									"type": "string[2]"
								},
								{
									"internalType": "string[2]",
									"name": "labResults",
									"type": "string[2]"
								}
							],
							"internalType": "struct PatientRecord.Records",
							"name": "",
							"type": "tuple"
						}
					],
					"stateMutability": "view",
					"type": "function"
				},
				{
					"inputs": [
						{
							"internalType": "bytes32",
							"name": "role",
							"type": "bytes32"
						}
					],
					"name": "getRoleAdmin",
					"outputs": [
						{
							"internalType": "bytes32",
							"name": "",
							"type": "bytes32"
						}
					],
					"stateMutability": "view",
					"type": "function"
				},
				{
					"inputs": [
						{
							"internalType": "bytes32",
							"name": "role",
							"type": "bytes32"
						},
						{
							"internalType": "address",
							"name": "account",
							"type": "address"
						}
					],
					"name": "grantRole",
					"outputs": [],
					"stateMutability": "nonpayable",
					"type": "function"
				},
				{
					"inputs": [
						{
							"internalType": "bytes32",
							"name": "role",
							"type": "bytes32"
						},
						{
							"internalType": "address",
							"name": "account",
							"type": "address"
						}
					],
					"name": "hasRole",
					"outputs": [
						{
							"internalType": "bool",
							"name": "",
							"type": "bool"
						}
					],
					"stateMutability": "view",
					"type": "function"
				},
				{
					"inputs": [],
					"name": "onlyDoctor",
					"outputs": [
						{
							"internalType": "bytes32",
							"name": "",
							"type": "bytes32"
						}
					],
					"stateMutability": "view",
					"type": "function"
				},
				{
					"inputs": [],
					"name": "owner",
					"outputs": [
						{
							"internalType": "address",
							"name": "",
							"type": "address"
						}
					],
					"stateMutability": "view",
					"type": "function"
				},
				{
					"inputs": [],
					"name": "renounceOwnership",
					"outputs": [],
					"stateMutability": "nonpayable",
					"type": "function"
				},
				{
					"inputs": [
						{
							"internalType": "bytes32",
							"name": "role",
							"type": "bytes32"
						},
						{
							"internalType": "address",
							"name": "account",
							"type": "address"
						}
					],
					"name": "renounceRole",
					"outputs": [],
					"stateMutability": "nonpayable",
					"type": "function"
				},
				{
					"inputs": [
						{
							"internalType": "bytes32",
							"name": "role",
							"type": "bytes32"
						},
						{
							"internalType": "address",
							"name": "account",
							"type": "address"
						}
					],
					"name": "revokeRole",
					"outputs": [],
					"stateMutability": "nonpayable",
					"type": "function"
				},
				{
					"inputs": [
						{
							"internalType": "bytes4",
							"name": "interfaceId",
							"type": "bytes4"
						}
					],
					"name": "supportsInterface",
					"outputs": [
						{
							"internalType": "bool",
							"name": "",
							"type": "bool"
						}
					],
					"stateMutability": "view",
					"type": "function"
				},
				{
					"inputs": [
						{
							"internalType": "address",
							"name": "newOwner",
							"type": "address"
						}
					],
					"name": "transferOwnership",
					"outputs": [],
					"stateMutability": "nonpayable",
					"type": "function"
				},
				{
					"inputs": [
						{
							"internalType": "address",
							"name": "patientAddress",
							"type": "address"
						},
						{
							"internalType": "string[6]",
							"name": "_diseaseInfo",
							"type": "string[6]"
						}
					],
					"name": "updateDiseaseInfo",
					"outputs": [],
					"stateMutability": "nonpayable",
					"type": "function"
				},
				{
					"inputs": [
						{
							"internalType": "address",
							"name": "patientAddress",
							"type": "address"
						},
						{
							"internalType": "string[2]",
							"name": "_labResults",
							"type": "string[2]"
						}
					],
					"name": "updateLabResults",
					"outputs": [],
					"stateMutability": "nonpayable",
					"type": "function"
				},
				{
					"inputs": [
						{
							"internalType": "address",
							"name": "patientAddress",
							"type": "address"
						},
						{
							"internalType": "string[2]",
							"name": "_labTests",
							"type": "string[2]"
						}
					],
					"name": "updateLabTests",
					"outputs": [],
					"stateMutability": "nonpayable",
					"type": "function"
				},
				{
					"inputs": [
						{
							"internalType": "address",
							"name": "patientAddress",
							"type": "address"
						},
						{
							"internalType": "string[3]",
							"name": "_medicationInfo",
							"type": "string[3]"
						}
					],
					"name": "updateMedicationInfo",
					"outputs": [],
					"stateMutability": "nonpayable",
					"type": "function"
				},
				{
					"inputs": [
						{
							"internalType": "address",
							"name": "patientAddress",
							"type": "address"
						},
						{
							"internalType": "string[7]",
							"name": "_vitalSigns",
							"type": "string[7]"
						}
					],
					"name": "updateVitalSigns",
					"outputs": [],
					"stateMutability": "nonpayable",
					"type": "function"
				}
			],
			"devdoc": {
				"kind": "dev",
				"methods": {
					"getRoleAdmin(bytes32)": {
						"details": "Returns the admin role that controls `role`. See {grantRole} and {revokeRole}. To change a role's admin, use {_setRoleAdmin}."
					},
					"grantRole(bytes32,address)": {
						"details": "Grants `role` to `account`. If `account` had not been already granted `role`, emits a {RoleGranted} event. Requirements: - the caller must have ``role``'s admin role. May emit a {RoleGranted} event."
					},
					"hasRole(bytes32,address)": {
						"details": "Returns `true` if `account` has been granted `role`."
					},
					"owner()": {
						"details": "Returns the address of the current owner."
					},
					"renounceOwnership()": {
						"details": "Leaves the contract without owner. It will not be possible to call `onlyOwner` functions. Can only be called by the current owner. NOTE: Renouncing ownership will leave the contract without an owner, thereby disabling any functionality that is only available to the owner."
					},
					"renounceRole(bytes32,address)": {
						"details": "Revokes `role` from the calling account. Roles are often managed via {grantRole} and {revokeRole}: this function's purpose is to provide a mechanism for accounts to lose their privileges if they are compromised (such as when a trusted device is misplaced). If the calling account had been revoked `role`, emits a {RoleRevoked} event. Requirements: - the caller must be `account`. May emit a {RoleRevoked} event."
					},
					"revokeRole(bytes32,address)": {
						"details": "Revokes `role` from `account`. If `account` had been granted `role`, emits a {RoleRevoked} event. Requirements: - the caller must have ``role``'s admin role. May emit a {RoleRevoked} event."
					},
					"supportsInterface(bytes4)": {
						"details": "See {IERC165-supportsInterface}."
					},
					"transferOwnership(address)": {
						"details": "Transfers ownership of the contract to a new account (`newOwner`). Can only be called by the current owner."
					}
				},
				"version": 1
			},
			"evm": {
				"assembly": "    /* \"contracts/vitalsContract_flattened.sol\":33349:36371  contract PatientRecord is Ownable, AccessControl {... */\n  mstore(0x40, 0x80)\n    /* \"contracts/vitalsContract_flattened.sol\":33714:33779  constructor() {... */\n  callvalue\n  dup1\n  iszero\n  tag_1\n  jumpi\n  0x00\n  dup1\n  revert\ntag_1:\n  pop\n    /* \"contracts/vitalsContract_flattened.sol\":31601:31633  _transferOwnership(_msgSender()) */\n  tag_5\n    /* \"contracts/vitalsContract_flattened.sol\":31620:31632  _msgSender() */\n  tag_6\n    /* \"contracts/vitalsContract_flattened.sol\":31620:31630  _msgSender */\n  shl(0x20, tag_7)\n    /* \"contracts/vitalsContract_flattened.sol\":31620:31632  _msgSender() */\n  0x20\n  shr\n  jump\t// in\ntag_6:\n    /* \"contracts/vitalsContract_flattened.sol\":31601:31619  _transferOwnership */\n  shl(0x20, tag_8)\n    /* \"contracts/vitalsContract_flattened.sol\":31601:31633  _transferOwnership(_msgSender()) */\n  0x20\n  shr\n  jump\t// in\ntag_5:\n    /* \"contracts/vitalsContract_flattened.sol\":33738:33772  _setupRole(onlyDoctor, msg.sender) */\n  tag_10\n    /* \"contracts/vitalsContract_flattened.sol\":33447:33470  keccak256(\"onlyDoctor\") */\n  0xff4ed198c18ce05e59ff2bcb2e277f2554623dcb9ab1d05e463e435a930cc469\n    /* \"contracts/vitalsContract_flattened.sol\":33761:33771  msg.sender */\n  caller\n    /* \"contracts/vitalsContract_flattened.sol\":33738:33748  _setupRole */\n  shl(0x20, tag_11)\n    /* \"contracts/vitalsContract_flattened.sol\":33738:33772  _setupRole(onlyDoctor, msg.sender) */\n  0x20\n  shr\n  jump\t// in\ntag_10:\n    /* \"contracts/vitalsContract_flattened.sol\":33349:36371  contract PatientRecord is Ownable, AccessControl {... */\n  jump(tag_12)\n    /* \"contracts/vitalsContract_flattened.sol\":22346:22442  function _msgSender() internal view virtual returns (address) {... */\ntag_7:\n    /* \"contracts/vitalsContract_flattened.sol\":22399:22406  address */\n  0x00\n    /* \"contracts/vitalsContract_flattened.sol\":22425:22435  msg.sender */\n  caller\n    /* \"contracts/vitalsContract_flattened.sol\":22418:22435  return msg.sender */\n  swap1\n  pop\n    /* \"contracts/vitalsContract_flattened.sol\":22346:22442  function _msgSender() internal view virtual returns (address) {... */\n  swap1\n  jump\t// out\n    /* \"contracts/vitalsContract_flattened.sol\":33091:33278  function _transferOwnership(address newOwner) internal virtual {... */\ntag_8:\n    /* \"contracts/vitalsContract_flattened.sol\":33164:33180  address oldOwner */\n  0x00\n    /* \"contracts/vitalsContract_flattened.sol\":33183:33189  _owner */\n  dup1\n  0x00\n  swap1\n  sload\n  swap1\n  0x0100\n  exp\n  swap1\n  div\n  0xffffffffffffffffffffffffffffffffffffffff\n  and\n    /* \"contracts/vitalsContract_flattened.sol\":33164:33189  address oldOwner = _owner */\n  swap1\n  pop\n    /* \"contracts/vitalsContract_flattened.sol\":33208:33216  newOwner */\n  dup2\n    /* \"contracts/vitalsContract_flattened.sol\":33199:33205  _owner */\n  0x00\n  dup1\n    /* \"contracts/vitalsContract_flattened.sol\":33199:33216  _owner = newOwner */\n  0x0100\n  exp\n  dup2\n  sload\n  dup2\n  0xffffffffffffffffffffffffffffffffffffffff\n  mul\n  not\n  and\n  swap1\n  dup4\n  0xffffffffffffffffffffffffffffffffffffffff\n  and\n  mul\n  or\n  swap1\n  sstore\n  pop\n    /* \"contracts/vitalsContract_flattened.sol\":33262:33270  newOwner */\n  dup2\n    /* \"contracts/vitalsContract_flattened.sol\":33231:33271  OwnershipTransferred(oldOwner, newOwner) */\n  0xffffffffffffffffffffffffffffffffffffffff\n  and\n    /* \"contracts/vitalsContract_flattened.sol\":33252:33260  oldOwner */\n  dup2\n    /* \"contracts/vitalsContract_flattened.sol\":33231:33271  OwnershipTransferred(oldOwner, newOwner) */\n  0xffffffffffffffffffffffffffffffffffffffff\n  and\n  0x8be0079c531659141344cd1fd0a4f28419497f9722a3daafe3b4186f6b6457e0\n  mload(0x40)\n  mload(0x40)\n  dup1\n  swap2\n  sub\n  swap1\n  log3\n    /* \"contracts/vitalsContract_flattened.sol\":33154:33278  {... */\n  pop\n    /* \"contracts/vitalsContract_flattened.sol\":33091:33278  function _transferOwnership(address newOwner) internal virtual {... */\n  pop\n  jump\t// out\n    /* \"contracts/vitalsContract_flattened.sol\":29382:29492  function _setupRole(bytes32 role, address account) internal virtual {... */\ntag_11:\n    /* \"contracts/vitalsContract_flattened.sol\":29460:29485  _grantRole(role, account) */\n  tag_16\n    /* \"contracts/vitalsContract_flattened.sol\":29471:29475  role */\n  dup3\n    /* \"contracts/vitalsContract_flattened.sol\":29477:29484  account */\n  dup3\n    /* \"contracts/vitalsContract_flattened.sol\":29460:29470  _grantRole */\n  shl(0x20, tag_17)\n    /* \"contracts/vitalsContract_flattened.sol\":29460:29485  _grantRole(role, account) */\n  0x20\n  shr\n  jump\t// in\ntag_16:\n    /* \"contracts/vitalsContract_flattened.sol\":29382:29492  function _setupRole(bytes32 role, address account) internal virtual {... */\n  pop\n  pop\n  jump\t// out\n    /* \"contracts/vitalsContract_flattened.sol\":30032:30265  function _grantRole(bytes32 role, address account) internal virtual {... */\ntag_17:\n    /* \"contracts/vitalsContract_flattened.sol\":30115:30137  hasRole(role, account) */\n  tag_19\n    /* \"contracts/vitalsContract_flattened.sol\":30123:30127  role */\n  dup3\n    /* \"contracts/vitalsContract_flattened.sol\":30129:30136  account */\n  dup3\n    /* \"contracts/vitalsContract_flattened.sol\":30115:30122  hasRole */\n  shl(0x20, tag_20)\n    /* \"contracts/vitalsContract_flattened.sol\":30115:30137  hasRole(role, account) */\n  0x20\n  shr\n  jump\t// in\ntag_19:\n    /* \"contracts/vitalsContract_flattened.sol\":30110:30259  if (!hasRole(role, account)) {... */\n  tag_21\n  jumpi\n    /* \"contracts/vitalsContract_flattened.sol\":30185:30189  true */\n  0x01\n    /* \"contracts/vitalsContract_flattened.sol\":30153:30159  _roles */\n  dup1\n    /* \"contracts/vitalsContract_flattened.sol\":30153:30165  _roles[role] */\n  0x00\n    /* \"contracts/vitalsContract_flattened.sol\":30160:30164  role */\n  dup5\n    /* \"contracts/vitalsContract_flattened.sol\":30153:30165  _roles[role] */\n  dup2\n  mstore\n  0x20\n  add\n  swap1\n  dup2\n  mstore\n  0x20\n  add\n  0x00\n  keccak256\n    /* \"contracts/vitalsContract_flattened.sol\":30153:30173  _roles[role].members */\n  0x00\n  add\n    /* \"contracts/vitalsContract_flattened.sol\":30153:30182  _roles[role].members[account] */\n  0x00\n    /* \"contracts/vitalsContract_flattened.sol\":30174:30181  account */\n  dup4\n    /* \"contracts/vitalsContract_flattened.sol\":30153:30182  _roles[role].members[account] */\n  0xffffffffffffffffffffffffffffffffffffffff\n  and\n  0xffffffffffffffffffffffffffffffffffffffff\n  and\n  dup2\n  mstore\n  0x20\n  add\n  swap1\n  dup2\n  mstore\n  0x20\n  add\n  0x00\n  keccak256\n  0x00\n    /* \"contracts/vitalsContract_flattened.sol\":30153:30189  _roles[role].members[account] = true */\n  0x0100\n  exp\n  dup2\n  sload\n  dup2\n  0xff\n  mul\n  not\n  and\n  swap1\n  dup4\n  iszero\n  iszero\n  mul\n  or\n  swap1\n  sstore\n  pop\n    /* \"contracts/vitalsContract_flattened.sol\":30235:30247  _msgSender() */\n  tag_22\n    /* \"contracts/vitalsContract_flattened.sol\":30235:30245  _msgSender */\n  shl(0x20, tag_7)\n    /* \"contracts/vitalsContract_flattened.sol\":30235:30247  _msgSender() */\n  0x20\n  shr\n  jump\t// in\ntag_22:\n    /* \"contracts/vitalsContract_flattened.sol\":30208:30248  RoleGranted(role, account, _msgSender()) */\n  0xffffffffffffffffffffffffffffffffffffffff\n  and\n    /* \"contracts/vitalsContract_flattened.sol\":30226:30233  account */\n  dup2\n    /* \"contracts/vitalsContract_flattened.sol\":30208:30248  RoleGranted(role, account, _msgSender()) */\n  0xffffffffffffffffffffffffffffffffffffffff\n  and\n    /* \"contracts/vitalsContract_flattened.sol\":30220:30224  role */\n  dup4\n    /* \"contracts/vitalsContract_flattened.sol\":30208:30248  RoleGranted(role, account, _msgSender()) */\n  0x2f8788117e7eff1d82e926ec794901d17c78024a50270940304540a733656f0d\n  mload(0x40)\n  mload(0x40)\n  dup1\n  swap2\n  sub\n  swap1\n  log4\n    /* \"contracts/vitalsContract_flattened.sol\":30110:30259  if (!hasRole(role, account)) {... */\ntag_21:\n    /* \"contracts/vitalsContract_flattened.sol\":30032:30265  function _grantRole(bytes32 role, address account) internal virtual {... */\n  pop\n  pop\n  jump\t// out\n    /* \"contracts/vitalsContract_flattened.sol\":25466:25611  function hasRole(bytes32 role, address account) public view virtual override returns (bool) {... */\ntag_20:\n    /* \"contracts/vitalsContract_flattened.sol\":25552:25556  bool */\n  0x00\n    /* \"contracts/vitalsContract_flattened.sol\":25575:25581  _roles */\n  0x01\n    /* \"contracts/vitalsContract_flattened.sol\":25575:25587  _roles[role] */\n  0x00\n    /* \"contracts/vitalsContract_flattened.sol\":25582:25586  role */\n  dup5\n    /* \"contracts/vitalsContract_flattened.sol\":25575:25587  _roles[role] */\n  dup2\n  mstore\n  0x20\n  add\n  swap1\n  dup2\n  mstore\n  0x20\n  add\n  0x00\n  keccak256\n    /* \"contracts/vitalsContract_flattened.sol\":25575:25595  _roles[role].members */\n  0x00\n  add\n    /* \"contracts/vitalsContract_flattened.sol\":25575:25604  _roles[role].members[account] */\n  0x00\n    /* \"contracts/vitalsContract_flattened.sol\":25596:25603  account */\n  dup4\n    /* \"contracts/vitalsContract_flattened.sol\":25575:25604  _roles[role].members[account] */\n  0xffffffffffffffffffffffffffffffffffffffff\n  and\n  0xffffffffffffffffffffffffffffffffffffffff\n  and\n  dup2\n  mstore\n  0x20\n  add\n  swap1\n  dup2\n  mstore\n  0x20\n  add\n  0x00\n  keccak256\n  0x00\n  swap1\n  sload\n  swap1\n  0x0100\n  exp\n  swap1\n  div\n  0xff\n  and\n    /* \"contracts/vitalsContract_flattened.sol\":25568:25604  return _roles[role].members[account] */\n  swap1\n  pop\n    /* \"contracts/vitalsContract_flattened.sol\":25466:25611  function hasRole(bytes32 role, address account) public view virtual override returns (bool) {... */\n  swap3\n  swap2\n  pop\n  pop\n  jump\t// out\n    /* \"contracts/vitalsContract_flattened.sol\":33349:36371  contract PatientRecord is Ownable, AccessControl {... */\ntag_12:\n  dataSize(sub_0)\n  dup1\n  dataOffset(sub_0)\n  0x00\n  codecopy\n  0x00\n  return\nstop\n\nsub_0: assembly {\n        /* \"contracts/vitalsContract_flattened.sol\":33349:36371  contract PatientRecord is Ownable, AccessControl {... */\n      mstore(0x40, 0x80)\n      callvalue\n      dup1\n      iszero\n      tag_1\n      jumpi\n      0x00\n      dup1\n      revert\n    tag_1:\n      pop\n      jumpi(tag_2, lt(calldatasize, 0x04))\n      shr(0xe0, calldataload(0x00))\n      dup1\n      0x715018a6\n      gt\n      tag_20\n      jumpi\n      dup1\n      0x942af88a\n      gt\n      tag_21\n      jumpi\n      dup1\n      0x942af88a\n      eq\n      tag_15\n      jumpi\n      dup1\n      0x94b31219\n      eq\n      tag_16\n      jumpi\n      dup1\n      0xa217fddf\n      eq\n      tag_17\n      jumpi\n      dup1\n      0xd547741f\n      eq\n      tag_18\n      jumpi\n      dup1\n      0xf2fde38b\n      eq\n      tag_19\n      jumpi\n      jump(tag_2)\n    tag_21:\n      dup1\n      0x715018a6\n      eq\n      tag_11\n      jumpi\n      dup1\n      0x79abb058\n      eq\n      tag_12\n      jumpi\n      dup1\n      0x8da5cb5b\n      eq\n      tag_13\n      jumpi\n      dup1\n      0x91d14854\n      eq\n      tag_14\n      jumpi\n      jump(tag_2)\n    tag_20:\n      dup1\n      0x2f2ff15d\n      gt\n      tag_22\n      jumpi\n      dup1\n      0x2f2ff15d\n      eq\n      tag_7\n      jumpi\n      dup1\n      0x33a300e5\n      eq\n      tag_8\n      jumpi\n      dup1\n      0x36568abe\n      eq\n      tag_9\n      jumpi\n      dup1\n      0x47453643\n      eq\n      tag_10\n      jumpi\n      jump(tag_2)\n    tag_22:\n      dup1\n      0x01ffc9a7\n      eq\n      tag_3\n      jumpi\n      dup1\n      0x18bd4847\n      eq\n      tag_4\n      jumpi\n      dup1\n      0x1dbb5545\n      eq\n      tag_5\n      jumpi\n      dup1\n      0x248a9ca3\n      eq\n      tag_6\n      jumpi\n    tag_2:\n      0x00\n      dup1\n      revert\n        /* \"contracts/vitalsContract_flattened.sol\":25177:25379  function supportsInterface(bytes4 interfaceId) public view virtual override returns (bool) {... */\n    tag_3:\n      tag_23\n      0x04\n      dup1\n      calldatasize\n      sub\n      dup2\n      add\n      swap1\n      tag_24\n      swap2\n      swap1\n      tag_25\n      jump\t// in\n    tag_24:\n      tag_26\n      jump\t// in\n    tag_23:\n      mload(0x40)\n      tag_27\n      swap2\n      swap1\n      tag_28\n      jump\t// in\n    tag_27:\n      mload(0x40)\n      dup1\n      swap2\n      sub\n      swap1\n      return\n        /* \"contracts/vitalsContract_flattened.sol\":36137:36369  function getPatientRecords (address patientAddress) public view returns(Records memory) {... */\n    tag_4:\n      tag_29\n      0x04\n      dup1\n      calldatasize\n      sub\n      dup2\n      add\n      swap1\n      tag_30\n      swap2\n      swap1\n      tag_31\n      jump\t// in\n    tag_30:\n      tag_32\n      jump\t// in\n    tag_29:\n      mload(0x40)\n      tag_33\n      swap2\n      swap1\n      tag_34\n      jump\t// in\n    tag_33:\n      mload(0x40)\n      dup1\n      swap2\n      sub\n      swap1\n      return\n        /* \"contracts/vitalsContract_flattened.sol\":35790:36096  function updateLabResults(... */\n    tag_5:\n      tag_35\n      0x04\n      dup1\n      calldatasize\n      sub\n      dup2\n      add\n      swap1\n      tag_36\n      swap2\n      swap1\n      tag_37\n      jump\t// in\n    tag_36:\n      tag_38\n      jump\t// in\n    tag_35:\n      stop\n        /* \"contracts/vitalsContract_flattened.sol\":26949:27078  function getRoleAdmin(bytes32 role) public view virtual override returns (bytes32) {... */\n    tag_6:\n      tag_39\n      0x04\n      dup1\n      calldatasize\n      sub\n      dup2\n      add\n      swap1\n      tag_40\n      swap2\n      swap1\n      tag_41\n      jump\t// in\n    tag_40:\n      tag_42\n      jump\t// in\n    tag_39:\n      mload(0x40)\n      tag_43\n      swap2\n      swap1\n      tag_44\n      jump\t// in\n    tag_43:\n      mload(0x40)\n      dup1\n      swap2\n      sub\n      swap1\n      return\n        /* \"contracts/vitalsContract_flattened.sol\":27374:27519  function grantRole(bytes32 role, address account) public virtual override onlyRole(getRoleAdmin(role)) {... */\n    tag_7:\n      tag_45\n      0x04\n      dup1\n      calldatasize\n      sub\n      dup2\n      add\n      swap1\n      tag_46\n      swap2\n      swap1\n      tag_47\n      jump\t// in\n    tag_46:\n      tag_48\n      jump\t// in\n    tag_45:\n      stop\n        /* \"contracts/vitalsContract_flattened.sol\":33410:33470  bytes32 public constant onlyDoctor = keccak256(\"onlyDoctor\") */\n    tag_8:\n      tag_49\n      tag_50\n      jump\t// in\n    tag_49:\n      mload(0x40)\n      tag_51\n      swap2\n      swap1\n      tag_44\n      jump\t// in\n    tag_51:\n      mload(0x40)\n      dup1\n      swap2\n      sub\n      swap1\n      return\n        /* \"contracts/vitalsContract_flattened.sol\":28483:28697  function renounceRole(bytes32 role, address account) public virtual override {... */\n    tag_9:\n      tag_52\n      0x04\n      dup1\n      calldatasize\n      sub\n      dup2\n      add\n      swap1\n      tag_53\n      swap2\n      swap1\n      tag_47\n      jump\t// in\n    tag_53:\n      tag_54\n      jump\t// in\n    tag_52:\n      stop\n        /* \"contracts/vitalsContract_flattened.sol\":34371:34690  function updateDiseaseInfo(... */\n    tag_10:\n      tag_55\n      0x04\n      dup1\n      calldatasize\n      sub\n      dup2\n      add\n      swap1\n      tag_56\n      swap2\n      swap1\n      tag_57\n      jump\t// in\n    tag_56:\n      tag_58\n      jump\t// in\n    tag_55:\n      stop\n        /* \"contracts/vitalsContract_flattened.sol\":32489:32590  function renounceOwnership() public virtual onlyOwner {... */\n    tag_11:\n      tag_59\n      tag_60\n      jump\t// in\n    tag_59:\n      stop\n        /* \"contracts/vitalsContract_flattened.sol\":34727:35034  function updateVitalSigns(... */\n    tag_12:\n      tag_61\n      0x04\n      dup1\n      calldatasize\n      sub\n      dup2\n      add\n      swap1\n      tag_62\n      swap2\n      swap1\n      tag_63\n      jump\t// in\n    tag_62:\n      tag_64\n      jump\t// in\n    tag_61:\n      stop\n        /* \"contracts/vitalsContract_flattened.sol\":31866:31951  function owner() public view virtual returns (address) {... */\n    tag_13:\n      tag_65\n      tag_66\n      jump\t// in\n    tag_65:\n      mload(0x40)\n      tag_67\n      swap2\n      swap1\n      tag_68\n      jump\t// in\n    tag_67:\n      mload(0x40)\n      dup1\n      swap2\n      sub\n      swap1\n      return\n        /* \"contracts/vitalsContract_flattened.sol\":25466:25611  function hasRole(bytes32 role, address account) public view virtual override returns (bool) {... */\n    tag_14:\n      tag_69\n      0x04\n      dup1\n      calldatasize\n      sub\n      dup2\n      add\n      swap1\n      tag_70\n      swap2\n      swap1\n      tag_47\n      jump\t// in\n    tag_70:\n      tag_71\n      jump\t// in\n    tag_69:\n      mload(0x40)\n      tag_72\n      swap2\n      swap1\n      tag_28\n      jump\t// in\n    tag_72:\n      mload(0x40)\n      dup1\n      swap2\n      sub\n      swap1\n      return\n        /* \"contracts/vitalsContract_flattened.sol\":35081:35418  function updateMedicationInfo(... */\n    tag_15:\n      tag_73\n      0x04\n      dup1\n      calldatasize\n      sub\n      dup2\n      add\n      swap1\n      tag_74\n      swap2\n      swap1\n      tag_75\n      jump\t// in\n    tag_74:\n      tag_76\n      jump\t// in\n    tag_73:\n      stop\n        /* \"contracts/vitalsContract_flattened.sol\":35459:35753  function updateLabTests(... */\n    tag_16:\n      tag_77\n      0x04\n      dup1\n      calldatasize\n      sub\n      dup2\n      add\n      swap1\n      tag_78\n      swap2\n      swap1\n      tag_37\n      jump\t// in\n    tag_78:\n      tag_79\n      jump\t// in\n    tag_77:\n      stop\n        /* \"contracts/vitalsContract_flattened.sol\":24598:24647  bytes32 public constant DEFAULT_ADMIN_ROLE = 0x00 */\n    tag_17:\n      tag_80\n      tag_81\n      jump\t// in\n    tag_80:\n      mload(0x40)\n      tag_82\n      swap2\n      swap1\n      tag_44\n      jump\t// in\n    tag_82:\n      mload(0x40)\n      dup1\n      swap2\n      sub\n      swap1\n      return\n        /* \"contracts/vitalsContract_flattened.sol\":27799:27946  function revokeRole(bytes32 role, address account) public virtual override onlyRole(getRoleAdmin(role)) {... */\n    tag_18:\n      tag_83\n      0x04\n      dup1\n      calldatasize\n      sub\n      dup2\n      add\n      swap1\n      tag_84\n      swap2\n      swap1\n      tag_47\n      jump\t// in\n    tag_84:\n      tag_85\n      jump\t// in\n    tag_83:\n      stop\n        /* \"contracts/vitalsContract_flattened.sol\":32739:32937  function transferOwnership(address newOwner) public virtual onlyOwner {... */\n    tag_19:\n      tag_86\n      0x04\n      dup1\n      calldatasize\n      sub\n      dup2\n      add\n      swap1\n      tag_87\n      swap2\n      swap1\n      tag_31\n      jump\t// in\n    tag_87:\n      tag_88\n      jump\t// in\n    tag_86:\n      stop\n        /* \"contracts/vitalsContract_flattened.sol\":25177:25379  function supportsInterface(bytes4 interfaceId) public view virtual override returns (bool) {... */\n    tag_26:\n        /* \"contracts/vitalsContract_flattened.sol\":25262:25266  bool */\n      0x00\n        /* \"contracts/vitalsContract_flattened.sol\":25300:25332  type(IAccessControl).interfaceId */\n      0x7965db0b00000000000000000000000000000000000000000000000000000000\n        /* \"contracts/vitalsContract_flattened.sol\":25285:25332  interfaceId == type(IAccessControl).interfaceId */\n      not(0xffffffffffffffffffffffffffffffffffffffffffffffffffffffff)\n      and\n        /* \"contracts/vitalsContract_flattened.sol\":25285:25296  interfaceId */\n      dup3\n        /* \"contracts/vitalsContract_flattened.sol\":25285:25332  interfaceId == type(IAccessControl).interfaceId */\n      not(0xffffffffffffffffffffffffffffffffffffffffffffffffffffffff)\n      and\n      eq\n        /* \"contracts/vitalsContract_flattened.sol\":25285:25372  interfaceId == type(IAccessControl).interfaceId || super.supportsInterface(interfaceId) */\n      dup1\n      tag_90\n      jumpi\n      pop\n        /* \"contracts/vitalsContract_flattened.sol\":25336:25372  super.supportsInterface(interfaceId) */\n      tag_91\n        /* \"contracts/vitalsContract_flattened.sol\":25360:25371  interfaceId */\n      dup3\n        /* \"contracts/vitalsContract_flattened.sol\":25336:25359  super.supportsInterface */\n      tag_92\n        /* \"contracts/vitalsContract_flattened.sol\":25336:25372  super.supportsInterface(interfaceId) */\n      jump\t// in\n    tag_91:\n        /* \"contracts/vitalsContract_flattened.sol\":25285:25372  interfaceId == type(IAccessControl).interfaceId || super.supportsInterface(interfaceId) */\n    tag_90:\n        /* \"contracts/vitalsContract_flattened.sol\":25278:25372  return interfaceId == type(IAccessControl).interfaceId || super.supportsInterface(interfaceId) */\n      swap1\n      pop\n        /* \"contracts/vitalsContract_flattened.sol\":25177:25379  function supportsInterface(bytes4 interfaceId) public view virtual override returns (bool) {... */\n      swap2\n      swap1\n      pop\n      jump\t// out\n        /* \"contracts/vitalsContract_flattened.sol\":36137:36369  function getPatientRecords (address patientAddress) public view returns(Records memory) {... */\n    tag_32:\n        /* \"contracts/vitalsContract_flattened.sol\":36209:36223  Records memory */\n      tag_93\n      tag_94\n      jump\t// in\n    tag_93:\n        /* \"contracts/vitalsContract_flattened.sol\":36257:36271  patientAddress */\n      dup2\n        /* \"contracts/vitalsContract_flattened.sol\":36243:36271  msg.sender == patientAddress */\n      0xffffffffffffffffffffffffffffffffffffffff\n      and\n        /* \"contracts/vitalsContract_flattened.sol\":36243:36253  msg.sender */\n      caller\n        /* \"contracts/vitalsContract_flattened.sol\":36243:36271  msg.sender == patientAddress */\n      0xffffffffffffffffffffffffffffffffffffffff\n      and\n      eq\n        /* \"contracts/vitalsContract_flattened.sol\":36243:36296  msg.sender == patientAddress || msg.sender == owner() */\n      dup1\n      tag_96\n      jumpi\n      pop\n        /* \"contracts/vitalsContract_flattened.sol\":36289:36296  owner() */\n      tag_97\n        /* \"contracts/vitalsContract_flattened.sol\":36289:36294  owner */\n      tag_66\n        /* \"contracts/vitalsContract_flattened.sol\":36289:36296  owner() */\n      jump\t// in\n    tag_97:\n        /* \"contracts/vitalsContract_flattened.sol\":36275:36296  msg.sender == owner() */\n      0xffffffffffffffffffffffffffffffffffffffff\n      and\n        /* \"contracts/vitalsContract_flattened.sol\":36275:36285  msg.sender */\n      caller\n        /* \"contracts/vitalsContract_flattened.sol\":36275:36296  msg.sender == owner() */\n      0xffffffffffffffffffffffffffffffffffffffff\n      and\n      eq\n        /* \"contracts/vitalsContract_flattened.sol\":36243:36296  msg.sender == patientAddress || msg.sender == owner() */\n    tag_96:\n        /* \"contracts/vitalsContract_flattened.sol\":36235:36314  require(msg.sender == patientAddress || msg.sender == owner(), \"Access Denied\") */\n      tag_98\n      jumpi\n      mload(0x40)\n      0x08c379a000000000000000000000000000000000000000000000000000000000\n      dup2\n      mstore\n      0x04\n      add\n      tag_99\n      swap1\n      tag_100\n      jump\t// in\n    tag_99:\n      mload(0x40)\n      dup1\n      swap2\n      sub\n      swap1\n      revert\n    tag_98:\n        /* \"contracts/vitalsContract_flattened.sol\":36331:36345  patientRecords */\n      0x02\n        /* \"contracts/vitalsContract_flattened.sol\":36331:36361  patientRecords[patientAddress] */\n      0x00\n        /* \"contracts/vitalsContract_flattened.sol\":36346:36360  patientAddress */\n      dup4\n        /* \"contracts/vitalsContract_flattened.sol\":36331:36361  patientRecords[patientAddress] */\n      0xffffffffffffffffffffffffffffffffffffffff\n      and\n      0xffffffffffffffffffffffffffffffffffffffff\n      and\n      dup2\n      mstore\n      0x20\n      add\n      swap1\n      dup2\n      mstore\n      0x20\n      add\n      0x00\n      keccak256\n        /* \"contracts/vitalsContract_flattened.sol\":36324:36361  return patientRecords[patientAddress] */\n      mload(0x40)\n      dup1\n      0xa0\n      add\n      0x40\n      mstore\n      swap1\n      dup2\n      0x00\n      dup3\n      add\n      0x06\n      dup1\n      0x20\n      mul\n      mload(0x40)\n      swap1\n      dup2\n      add\n      0x40\n      mstore\n      dup1\n      swap3\n      swap2\n      swap1\n      0x00\n      swap1\n    tag_101:\n      dup3\n      dup3\n      lt\n      iszero\n      tag_102\n      jumpi\n      dup4\n      dup3\n      add\n      dup1\n      sload\n      tag_104\n      swap1\n      tag_105\n      jump\t// in\n    tag_104:\n      dup1\n      0x1f\n      add\n      0x20\n      dup1\n      swap2\n      div\n      mul\n      0x20\n      add\n      mload(0x40)\n      swap1\n      dup2\n      add\n      0x40\n      mstore\n      dup1\n      swap3\n      swap2\n      swap1\n      dup2\n      dup2\n      mstore\n      0x20\n      add\n      dup3\n      dup1\n      sload\n      tag_106\n      swap1\n      tag_105\n      jump\t// in\n    tag_106:\n      dup1\n      iszero\n      tag_107\n      jumpi\n      dup1\n      0x1f\n      lt\n      tag_108\n      jumpi\n      0x0100\n      dup1\n      dup4\n      sload\n      div\n      mul\n      dup4\n      mstore\n      swap2\n      0x20\n      add\n      swap2\n      jump(tag_107)\n    tag_108:\n      dup3\n      add\n      swap2\n      swap1\n      0x00\n      mstore\n      keccak256(0x00, 0x20)\n      swap1\n    tag_109:\n      dup2\n      sload\n      dup2\n      mstore\n      swap1\n      0x01\n      add\n      swap1\n      0x20\n      add\n      dup1\n      dup4\n      gt\n      tag_109\n      jumpi\n      dup3\n      swap1\n      sub\n      0x1f\n      and\n      dup3\n      add\n      swap2\n    tag_107:\n      pop\n      pop\n      pop\n      pop\n      pop\n      dup2\n      mstore\n      0x20\n      add\n      swap1\n      0x01\n      add\n      swap1\n      jump(tag_101)\n    tag_102:\n      pop\n      pop\n      pop\n      pop\n      dup2\n      mstore\n      0x20\n      add\n      0x06\n      dup3\n      add\n      0x07\n      dup1\n      0x20\n      mul\n      mload(0x40)\n      swap1\n      dup2\n      add\n      0x40\n      mstore\n      dup1\n      swap3\n      swap2\n      swap1\n      0x00\n      swap1\n    tag_110:\n      dup3\n      dup3\n      lt\n      iszero\n      tag_111\n      jumpi\n      dup4\n      dup3\n      add\n      dup1\n      sload\n      tag_113\n      swap1\n      tag_105\n      jump\t// in\n    tag_113:\n      dup1\n      0x1f\n      add\n      0x20\n      dup1\n      swap2\n      div\n      mul\n      0x20\n      add\n      mload(0x40)\n      swap1\n      dup2\n      add\n      0x40\n      mstore\n      dup1\n      swap3\n      swap2\n      swap1\n      dup2\n      dup2\n      mstore\n      0x20\n      add\n      dup3\n      dup1\n      sload\n      tag_114\n      swap1\n      tag_105\n      jump\t// in\n    tag_114:\n      dup1\n      iszero\n      tag_115\n      jumpi\n      dup1\n      0x1f\n      lt\n      tag_116\n      jumpi\n      0x0100\n      dup1\n      dup4\n      sload\n      div\n      mul\n      dup4\n      mstore\n      swap2\n      0x20\n      add\n      swap2\n      jump(tag_115)\n    tag_116:\n      dup3\n      add\n      swap2\n      swap1\n      0x00\n      mstore\n      keccak256(0x00, 0x20)\n      swap1\n    tag_117:\n      dup2\n      sload\n      dup2\n      mstore\n      swap1\n      0x01\n      add\n      swap1\n      0x20\n      add\n      dup1\n      dup4\n      gt\n      tag_117\n      jumpi\n      dup3\n      swap1\n      sub\n      0x1f\n      and\n      dup3\n      add\n      swap2\n    tag_115:\n      pop\n      pop\n      pop\n      pop\n      pop\n      dup2\n      mstore\n      0x20\n      add\n      swap1\n      0x01\n      add\n      swap1\n      jump(tag_110)\n    tag_111:\n      pop\n      pop\n      pop\n      pop\n      dup2\n      mstore\n      0x20\n      add\n      0x0d\n      dup3\n      add\n      0x03\n      dup1\n      0x20\n      mul\n      mload(0x40)\n      swap1\n      dup2\n      add\n      0x40\n      mstore\n      dup1\n      swap3\n      swap2\n      swap1\n      0x00\n      swap1\n    tag_118:\n      dup3\n      dup3\n      lt\n      iszero\n      tag_119\n      jumpi\n      dup4\n      dup3\n      add\n      dup1\n      sload\n      tag_121\n      swap1\n      tag_105\n      jump\t// in\n    tag_121:\n      dup1\n      0x1f\n      add\n      0x20\n      dup1\n      swap2\n      div\n      mul\n      0x20\n      add\n      mload(0x40)\n      swap1\n      dup2\n      add\n      0x40\n      mstore\n      dup1\n      swap3\n      swap2\n      swap1\n      dup2\n      dup2\n      mstore\n      0x20\n      add\n      dup3\n      dup1\n      sload\n      tag_122\n      swap1\n      tag_105\n      jump\t// in\n    tag_122:\n      dup1\n      iszero\n      tag_123\n      jumpi\n      dup1\n      0x1f\n      lt\n      tag_124\n      jumpi\n      0x0100\n      dup1\n      dup4\n      sload\n      div\n      mul\n      dup4\n      mstore\n      swap2\n      0x20\n      add\n      swap2\n      jump(tag_123)\n    tag_124:\n      dup3\n      add\n      swap2\n      swap1\n      0x00\n      mstore\n      keccak256(0x00, 0x20)\n      swap1\n    tag_125:\n      dup2\n      sload\n      dup2\n      mstore\n      swap1\n      0x01\n      add\n      swap1\n      0x20\n      add\n      dup1\n      dup4\n      gt\n      tag_125\n      jumpi\n      dup3\n      swap1\n      sub\n      0x1f\n      and\n      dup3\n      add\n      swap2\n    tag_123:\n      pop\n      pop\n      pop\n      pop\n      pop\n      dup2\n      mstore\n      0x20\n      add\n      swap1\n      0x01\n      add\n      swap1\n      jump(tag_118)\n    tag_119:\n      pop\n      pop\n      pop\n      pop\n      dup2\n      mstore\n      0x20\n      add\n      0x10\n      dup3\n      add\n      0x02\n      dup1\n      0x20\n      mul\n      mload(0x40)\n      swap1\n      dup2\n      add\n      0x40\n      mstore\n      dup1\n      swap3\n      swap2\n      swap1\n      0x00\n      swap1\n    tag_126:\n      dup3\n      dup3\n      lt\n      iszero\n      tag_127\n      jumpi\n      dup4\n      dup3\n      add\n      dup1\n      sload\n      tag_129\n      swap1\n      tag_105\n      jump\t// in\n    tag_129:\n      dup1\n      0x1f\n      add\n      0x20\n      dup1\n      swap2\n      div\n      mul\n      0x20\n      add\n      mload(0x40)\n      swap1\n      dup2\n      add\n      0x40\n      mstore\n      dup1\n      swap3\n      swap2\n      swap1\n      dup2\n      dup2\n      mstore\n      0x20\n      add\n      dup3\n      dup1\n      sload\n      tag_130\n      swap1\n      tag_105\n      jump\t// in\n    tag_130:\n      dup1\n      iszero\n      tag_131\n      jumpi\n      dup1\n      0x1f\n      lt\n      tag_132\n      jumpi\n      0x0100\n      dup1\n      dup4\n      sload\n      div\n      mul\n      dup4\n      mstore\n      swap2\n      0x20\n      add\n      swap2\n      jump(tag_131)\n    tag_132:\n      dup3\n      add\n      swap2\n      swap1\n      0x00\n      mstore\n      keccak256(0x00, 0x20)\n      swap1\n    tag_133:\n      dup2\n      sload\n      dup2\n      mstore\n      swap1\n      0x01\n      add\n      swap1\n      0x20\n      add\n      dup1\n      dup4\n      gt\n      tag_133\n      jumpi\n      dup3\n      swap1\n      sub\n      0x1f\n      and\n      dup3\n      add\n      swap2\n    tag_131:\n      pop\n      pop\n      pop\n      pop\n      pop\n      dup2\n      mstore\n      0x20\n      add\n      swap1\n      0x01\n      add\n      swap1\n      jump(tag_126)\n    tag_127:\n      pop\n      pop\n      pop\n      pop\n      dup2\n      mstore\n      0x20\n      add\n      0x12\n      dup3\n      add\n      0x02\n      dup1\n      0x20\n      mul\n      mload(0x40)\n      swap1\n      dup2\n      add\n      0x40\n      mstore\n      dup1\n      swap3\n      swap2\n      swap1\n      0x00\n      swap1\n    tag_134:\n      dup3\n      dup3\n      lt\n      iszero\n      tag_135\n      jumpi\n      dup4\n      dup3\n      add\n      dup1\n      sload\n      tag_137\n      swap1\n      tag_105\n      jump\t// in\n    tag_137:\n      dup1\n      0x1f\n      add\n      0x20\n      dup1\n      swap2\n      div\n      mul\n      0x20\n      add\n      mload(0x40)\n      swap1\n      dup2\n      add\n      0x40\n      mstore\n      dup1\n      swap3\n      swap2\n      swap1\n      dup2\n      dup2\n      mstore\n      0x20\n      add\n      dup3\n      dup1\n      sload\n      tag_138\n      swap1\n      tag_105\n      jump\t// in\n    tag_138:\n      dup1\n      iszero\n      tag_139\n      jumpi\n      dup1\n      0x1f\n      lt\n      tag_140\n      jumpi\n      0x0100\n      dup1\n      dup4\n      sload\n      div\n      mul\n      dup4\n      mstore\n      swap2\n      0x20\n      add\n      swap2\n      jump(tag_139)\n    tag_140:\n      dup3\n      add\n      swap2\n      swap1\n      0x00\n      mstore\n      keccak256(0x00, 0x20)\n      swap1\n    tag_141:\n      dup2\n      sload\n      dup2\n      mstore\n      swap1\n      0x01\n      add\n      swap1\n      0x20\n      add\n      dup1\n      dup4\n      gt\n      tag_141\n      jumpi\n      dup3\n      swap1\n      sub\n      0x1f\n      and\n      dup3\n      add\n      swap2\n    tag_139:\n      pop\n      pop\n      pop\n      pop\n      pop\n      dup2\n      mstore\n      0x20\n      add\n      swap1\n      0x01\n      add\n      swap1\n      jump(tag_134)\n    tag_135:\n      pop\n      pop\n      pop\n      pop\n      dup2\n      mstore\n      pop\n      pop\n      swap1\n      pop\n        /* \"contracts/vitalsContract_flattened.sol\":36137:36369  function getPatientRecords (address patientAddress) public view returns(Records memory) {... */\n      swap2\n      swap1\n      pop\n      jump\t// out\n        /* \"contracts/vitalsContract_flattened.sol\":35790:36096  function updateLabResults(... */\n    tag_38:\n        /* \"contracts/vitalsContract_flattened.sol\":33447:33470  keccak256(\"onlyDoctor\") */\n      0xff4ed198c18ce05e59ff2bcb2e277f2554623dcb9ab1d05e463e435a930cc469\n        /* \"contracts/vitalsContract_flattened.sol\":25076:25092  _checkRole(role) */\n      tag_143\n        /* \"contracts/vitalsContract_flattened.sol\":25087:25091  role */\n      dup2\n        /* \"contracts/vitalsContract_flattened.sol\":25076:25086  _checkRole */\n      tag_144\n        /* \"contracts/vitalsContract_flattened.sol\":25076:25092  _checkRole(role) */\n      jump\t// in\n    tag_143:\n        /* \"contracts/vitalsContract_flattened.sol\":35930:35953  Records storage records */\n      0x00\n        /* \"contracts/vitalsContract_flattened.sol\":35956:35970  patientRecords */\n      0x02\n        /* \"contracts/vitalsContract_flattened.sol\":35956:35986  patientRecords[patientAddress] */\n      0x00\n        /* \"contracts/vitalsContract_flattened.sol\":35971:35985  patientAddress */\n      dup6\n        /* \"contracts/vitalsContract_flattened.sol\":35956:35986  patientRecords[patientAddress] */\n      0xffffffffffffffffffffffffffffffffffffffff\n      and\n      0xffffffffffffffffffffffffffffffffffffffff\n      and\n      dup2\n      mstore\n      0x20\n      add\n      swap1\n      dup2\n      mstore\n      0x20\n      add\n      0x00\n      keccak256\n        /* \"contracts/vitalsContract_flattened.sol\":35930:35986  Records storage records = patientRecords[patientAddress] */\n      swap1\n      pop\n        /* \"contracts/vitalsContract_flattened.sol\":36017:36028  _labResults */\n      dup3\n        /* \"contracts/vitalsContract_flattened.sol\":35996:36003  records */\n      dup2\n        /* \"contracts/vitalsContract_flattened.sol\":35996:36014  records.labResults */\n      0x12\n      add\n        /* \"contracts/vitalsContract_flattened.sol\":35996:36028  records.labResults = _labResults */\n      swap1\n      0x02\n      tag_146\n      swap3\n      swap2\n      swap1\n      tag_147\n      jump\t// in\n    tag_146:\n      pop\n        /* \"contracts/vitalsContract_flattened.sol\":36061:36075  patientAddress */\n      dup4\n        /* \"contracts/vitalsContract_flattened.sol\":36043:36089  LabResultsUpdated(patientAddress, _labResults) */\n      0xffffffffffffffffffffffffffffffffffffffff\n      and\n      0xf82228d2fccbf51a6865c7ec1126d175433bfb90f6b576906c867f35a715d27b\n        /* \"contracts/vitalsContract_flattened.sol\":36077:36088  _labResults */\n      dup5\n        /* \"contracts/vitalsContract_flattened.sol\":36043:36089  LabResultsUpdated(patientAddress, _labResults) */\n      mload(0x40)\n      tag_148\n      swap2\n      swap1\n      tag_149\n      jump\t// in\n    tag_148:\n      mload(0x40)\n      dup1\n      swap2\n      sub\n      swap1\n      log2\n        /* \"contracts/vitalsContract_flattened.sol\":35920:36096  {... */\n      pop\n        /* \"contracts/vitalsContract_flattened.sol\":35790:36096  function updateLabResults(... */\n      pop\n      pop\n      pop\n      jump\t// out\n        /* \"contracts/vitalsContract_flattened.sol\":26949:27078  function getRoleAdmin(bytes32 role) public view virtual override returns (bytes32) {... */\n    tag_42:\n        /* \"contracts/vitalsContract_flattened.sol\":27023:27030  bytes32 */\n      0x00\n        /* \"contracts/vitalsContract_flattened.sol\":27049:27055  _roles */\n      0x01\n        /* \"contracts/vitalsContract_flattened.sol\":27049:27061  _roles[role] */\n      0x00\n        /* \"contracts/vitalsContract_flattened.sol\":27056:27060  role */\n      dup4\n        /* \"contracts/vitalsContract_flattened.sol\":27049:27061  _roles[role] */\n      dup2\n      mstore\n      0x20\n      add\n      swap1\n      dup2\n      mstore\n      0x20\n      add\n      0x00\n      keccak256\n        /* \"contracts/vitalsContract_flattened.sol\":27049:27071  _roles[role].adminRole */\n      0x01\n      add\n      sload\n        /* \"contracts/vitalsContract_flattened.sol\":27042:27071  return _roles[role].adminRole */\n      swap1\n      pop\n        /* \"contracts/vitalsContract_flattened.sol\":26949:27078  function getRoleAdmin(bytes32 role) public view virtual override returns (bytes32) {... */\n      swap2\n      swap1\n      pop\n      jump\t// out\n        /* \"contracts/vitalsContract_flattened.sol\":27374:27519  function grantRole(bytes32 role, address account) public virtual override onlyRole(getRoleAdmin(role)) {... */\n    tag_48:\n        /* \"contracts/vitalsContract_flattened.sol\":27457:27475  getRoleAdmin(role) */\n      tag_151\n        /* \"contracts/vitalsContract_flattened.sol\":27470:27474  role */\n      dup3\n        /* \"contracts/vitalsContract_flattened.sol\":27457:27469  getRoleAdmin */\n      tag_42\n        /* \"contracts/vitalsContract_flattened.sol\":27457:27475  getRoleAdmin(role) */\n      jump\t// in\n    tag_151:\n        /* \"contracts/vitalsContract_flattened.sol\":25076:25092  _checkRole(role) */\n      tag_153\n        /* \"contracts/vitalsContract_flattened.sol\":25087:25091  role */\n      dup2\n        /* \"contracts/vitalsContract_flattened.sol\":25076:25086  _checkRole */\n      tag_144\n        /* \"contracts/vitalsContract_flattened.sol\":25076:25092  _checkRole(role) */\n      jump\t// in\n    tag_153:\n        /* \"contracts/vitalsContract_flattened.sol\":27487:27512  _grantRole(role, account) */\n      tag_155\n        /* \"contracts/vitalsContract_flattened.sol\":27498:27502  role */\n      dup4\n        /* \"contracts/vitalsContract_flattened.sol\":27504:27511  account */\n      dup4\n        /* \"contracts/vitalsContract_flattened.sol\":27487:27497  _grantRole */\n      tag_156\n        /* \"contracts/vitalsContract_flattened.sol\":27487:27512  _grantRole(role, account) */\n      jump\t// in\n    tag_155:\n        /* \"contracts/vitalsContract_flattened.sol\":27374:27519  function grantRole(bytes32 role, address account) public virtual override onlyRole(getRoleAdmin(role)) {... */\n      pop\n      pop\n      pop\n      jump\t// out\n        /* \"contracts/vitalsContract_flattened.sol\":33410:33470  bytes32 public constant onlyDoctor = keccak256(\"onlyDoctor\") */\n    tag_50:\n        /* \"contracts/vitalsContract_flattened.sol\":33447:33470  keccak256(\"onlyDoctor\") */\n      0xff4ed198c18ce05e59ff2bcb2e277f2554623dcb9ab1d05e463e435a930cc469\n        /* \"contracts/vitalsContract_flattened.sol\":33410:33470  bytes32 public constant onlyDoctor = keccak256(\"onlyDoctor\") */\n      dup2\n      jump\t// out\n        /* \"contracts/vitalsContract_flattened.sol\":28483:28697  function renounceRole(bytes32 role, address account) public virtual override {... */\n    tag_54:\n        /* \"contracts/vitalsContract_flattened.sol\":28589:28601  _msgSender() */\n      tag_158\n        /* \"contracts/vitalsContract_flattened.sol\":28589:28599  _msgSender */\n      tag_159\n        /* \"contracts/vitalsContract_flattened.sol\":28589:28601  _msgSender() */\n      jump\t// in\n    tag_158:\n        /* \"contracts/vitalsContract_flattened.sol\":28578:28601  account == _msgSender() */\n      0xffffffffffffffffffffffffffffffffffffffff\n      and\n        /* \"contracts/vitalsContract_flattened.sol\":28578:28585  account */\n      dup2\n        /* \"contracts/vitalsContract_flattened.sol\":28578:28601  account == _msgSender() */\n      0xffffffffffffffffffffffffffffffffffffffff\n      and\n      eq\n        /* \"contracts/vitalsContract_flattened.sol\":28570:28653  require(account == _msgSender(), \"AccessControl: can only renounce roles for self\") */\n      tag_160\n      jumpi\n      mload(0x40)\n      0x08c379a000000000000000000000000000000000000000000000000000000000\n      dup2\n      mstore\n      0x04\n      add\n      tag_161\n      swap1\n      tag_162\n      jump\t// in\n    tag_161:\n      mload(0x40)\n      dup1\n      swap2\n      sub\n      swap1\n      revert\n    tag_160:\n        /* \"contracts/vitalsContract_flattened.sol\":28664:28690  _revokeRole(role, account) */\n      tag_163\n        /* \"contracts/vitalsContract_flattened.sol\":28676:28680  role */\n      dup3\n        /* \"contracts/vitalsContract_flattened.sol\":28682:28689  account */\n      dup3\n        /* \"contracts/vitalsContract_flattened.sol\":28664:28675  _revokeRole */\n      tag_164\n        /* \"contracts/vitalsContract_flattened.sol\":28664:28690  _revokeRole(role, account) */\n      jump\t// in\n    tag_163:\n        /* \"contracts/vitalsContract_flattened.sol\":28483:28697  function renounceRole(bytes32 role, address account) public virtual override {... */\n      pop\n      pop\n      jump\t// out\n        /* \"contracts/vitalsContract_flattened.sol\":34371:34690  function updateDiseaseInfo(... */\n    tag_58:\n        /* \"contracts/vitalsContract_flattened.sol\":33447:33470  keccak256(\"onlyDoctor\") */\n      0xff4ed198c18ce05e59ff2bcb2e277f2554623dcb9ab1d05e463e435a930cc469\n        /* \"contracts/vitalsContract_flattened.sol\":25076:25092  _checkRole(role) */\n      tag_166\n        /* \"contracts/vitalsContract_flattened.sol\":25087:25091  role */\n      dup2\n        /* \"contracts/vitalsContract_flattened.sol\":25076:25086  _checkRole */\n      tag_144\n        /* \"contracts/vitalsContract_flattened.sol\":25076:25092  _checkRole(role) */\n      jump\t// in\n    tag_166:\n        /* \"contracts/vitalsContract_flattened.sol\":34513:34536  Records storage records */\n      0x00\n        /* \"contracts/vitalsContract_flattened.sol\":34539:34553  patientRecords */\n      0x02\n        /* \"contracts/vitalsContract_flattened.sol\":34539:34569  patientRecords[patientAddress] */\n      0x00\n        /* \"contracts/vitalsContract_flattened.sol\":34554:34568  patientAddress */\n      dup6\n        /* \"contracts/vitalsContract_flattened.sol\":34539:34569  patientRecords[patientAddress] */\n      0xffffffffffffffffffffffffffffffffffffffff\n      and\n      0xffffffffffffffffffffffffffffffffffffffff\n      and\n      dup2\n      mstore\n      0x20\n      add\n      swap1\n      dup2\n      mstore\n      0x20\n      add\n      0x00\n      keccak256\n        /* \"contracts/vitalsContract_flattened.sol\":34513:34569  Records storage records = patientRecords[patientAddress] */\n      swap1\n      pop\n        /* \"contracts/vitalsContract_flattened.sol\":34601:34613  _diseaseInfo */\n      dup3\n        /* \"contracts/vitalsContract_flattened.sol\":34579:34586  records */\n      dup2\n        /* \"contracts/vitalsContract_flattened.sol\":34579:34598  records.diseaseInfo */\n      0x00\n      add\n        /* \"contracts/vitalsContract_flattened.sol\":34579:34613  records.diseaseInfo = _diseaseInfo */\n      swap1\n      0x06\n      tag_168\n      swap3\n      swap2\n      swap1\n      tag_169\n      jump\t// in\n    tag_168:\n      pop\n        /* \"contracts/vitalsContract_flattened.sol\":34654:34668  patientAddress */\n      dup4\n        /* \"contracts/vitalsContract_flattened.sol\":34628:34683  DiseaseInformationUpdated(patientAddress, _diseaseInfo) */\n      0xffffffffffffffffffffffffffffffffffffffff\n      and\n      0x12acbe46024a8132d84ea43e496a038ec0f837db140c6ce73470800455432d41\n        /* \"contracts/vitalsContract_flattened.sol\":34670:34682  _diseaseInfo */\n      dup5\n        /* \"contracts/vitalsContract_flattened.sol\":34628:34683  DiseaseInformationUpdated(patientAddress, _diseaseInfo) */\n      mload(0x40)\n      tag_170\n      swap2\n      swap1\n      tag_171\n      jump\t// in\n    tag_170:\n      mload(0x40)\n      dup1\n      swap2\n      sub\n      swap1\n      log2\n        /* \"contracts/vitalsContract_flattened.sol\":34503:34690  {... */\n      pop\n        /* \"contracts/vitalsContract_flattened.sol\":34371:34690  function updateDiseaseInfo(... */\n      pop\n      pop\n      pop\n      jump\t// out\n        /* \"contracts/vitalsContract_flattened.sol\":32489:32590  function renounceOwnership() public virtual onlyOwner {... */\n    tag_60:\n        /* \"contracts/vitalsContract_flattened.sol\":31759:31772  _checkOwner() */\n      tag_173\n        /* \"contracts/vitalsContract_flattened.sol\":31759:31770  _checkOwner */\n      tag_174\n        /* \"contracts/vitalsContract_flattened.sol\":31759:31772  _checkOwner() */\n      jump\t// in\n    tag_173:\n        /* \"contracts/vitalsContract_flattened.sol\":32553:32583  _transferOwnership(address(0)) */\n      tag_176\n        /* \"contracts/vitalsContract_flattened.sol\":32580:32581  0 */\n      0x00\n        /* \"contracts/vitalsContract_flattened.sol\":32553:32571  _transferOwnership */\n      tag_177\n        /* \"contracts/vitalsContract_flattened.sol\":32553:32583  _transferOwnership(address(0)) */\n      jump\t// in\n    tag_176:\n        /* \"contracts/vitalsContract_flattened.sol\":32489:32590  function renounceOwnership() public virtual onlyOwner {... */\n      jump\t// out\n        /* \"contracts/vitalsContract_flattened.sol\":34727:35034  function updateVitalSigns(... */\n    tag_64:\n        /* \"contracts/vitalsContract_flattened.sol\":33447:33470  keccak256(\"onlyDoctor\") */\n      0xff4ed198c18ce05e59ff2bcb2e277f2554623dcb9ab1d05e463e435a930cc469\n        /* \"contracts/vitalsContract_flattened.sol\":25076:25092  _checkRole(role) */\n      tag_179\n        /* \"contracts/vitalsContract_flattened.sol\":25087:25091  role */\n      dup2\n        /* \"contracts/vitalsContract_flattened.sol\":25076:25086  _checkRole */\n      tag_144\n        /* \"contracts/vitalsContract_flattened.sol\":25076:25092  _checkRole(role) */\n      jump\t// in\n    tag_179:\n        /* \"contracts/vitalsContract_flattened.sol\":34867:34890  Records storage records */\n      0x00\n        /* \"contracts/vitalsContract_flattened.sol\":34893:34907  patientRecords */\n      0x02\n        /* \"contracts/vitalsContract_flattened.sol\":34893:34923  patientRecords[patientAddress] */\n      0x00\n        /* \"contracts/vitalsContract_flattened.sol\":34908:34922  patientAddress */\n      dup6\n        /* \"contracts/vitalsContract_flattened.sol\":34893:34923  patientRecords[patientAddress] */\n      0xffffffffffffffffffffffffffffffffffffffff\n      and\n      0xffffffffffffffffffffffffffffffffffffffff\n      and\n      dup2\n      mstore\n      0x20\n      add\n      swap1\n      dup2\n      mstore\n      0x20\n      add\n      0x00\n      keccak256\n        /* \"contracts/vitalsContract_flattened.sol\":34867:34923  Records storage records = patientRecords[patientAddress] */\n      swap1\n      pop\n        /* \"contracts/vitalsContract_flattened.sol\":34954:34965  _vitalSigns */\n      dup3\n        /* \"contracts/vitalsContract_flattened.sol\":34933:34940  records */\n      dup2\n        /* \"contracts/vitalsContract_flattened.sol\":34933:34951  records.vitalSigns */\n      0x06\n      add\n        /* \"contracts/vitalsContract_flattened.sol\":34933:34965  records.vitalSigns = _vitalSigns */\n      swap1\n      0x07\n      tag_181\n      swap3\n      swap2\n      swap1\n      tag_182\n      jump\t// in\n    tag_181:\n      pop\n        /* \"contracts/vitalsContract_flattened.sol\":34999:35013  patientAddress */\n      dup4\n        /* \"contracts/vitalsContract_flattened.sol\":34981:35027  VitalSignsUpdated(patientAddress, _vitalSigns) */\n      0xffffffffffffffffffffffffffffffffffffffff\n      and\n      0xb8ea6d593dbf23af71cbf2ff48cf51834c051fa257185e2ba78199b004491cc8\n        /* \"contracts/vitalsContract_flattened.sol\":35015:35026  _vitalSigns */\n      dup5\n        /* \"contracts/vitalsContract_flattened.sol\":34981:35027  VitalSignsUpdated(patientAddress, _vitalSigns) */\n      mload(0x40)\n      tag_183\n      swap2\n      swap1\n      tag_184\n      jump\t// in\n    tag_183:\n      mload(0x40)\n      dup1\n      swap2\n      sub\n      swap1\n      log2\n        /* \"contracts/vitalsContract_flattened.sol\":34857:35034  {... */\n      pop\n        /* \"contracts/vitalsContract_flattened.sol\":34727:35034  function updateVitalSigns(... */\n      pop\n      pop\n      pop\n      jump\t// out\n        /* \"contracts/vitalsContract_flattened.sol\":31866:31951  function owner() public view virtual returns (address) {... */\n    tag_66:\n        /* \"contracts/vitalsContract_flattened.sol\":31912:31919  address */\n      0x00\n        /* \"contracts/vitalsContract_flattened.sol\":31938:31944  _owner */\n      dup1\n      0x00\n      swap1\n      sload\n      swap1\n      0x0100\n      exp\n      swap1\n      div\n      0xffffffffffffffffffffffffffffffffffffffff\n      and\n        /* \"contracts/vitalsContract_flattened.sol\":31931:31944  return _owner */\n      swap1\n      pop\n        /* \"contracts/vitalsContract_flattened.sol\":31866:31951  function owner() public view virtual returns (address) {... */\n      swap1\n      jump\t// out\n        /* \"contracts/vitalsContract_flattened.sol\":25466:25611  function hasRole(bytes32 role, address account) public view virtual override returns (bool) {... */\n    tag_71:\n        /* \"contracts/vitalsContract_flattened.sol\":25552:25556  bool */\n      0x00\n        /* \"contracts/vitalsContract_flattened.sol\":25575:25581  _roles */\n      0x01\n        /* \"contracts/vitalsContract_flattened.sol\":25575:25587  _roles[role] */\n      0x00\n        /* \"contracts/vitalsContract_flattened.sol\":25582:25586  role */\n      dup5\n        /* \"contracts/vitalsContract_flattened.sol\":25575:25587  _roles[role] */\n      dup2\n      mstore\n      0x20\n      add\n      swap1\n      dup2\n      mstore\n      0x20\n      add\n      0x00\n      keccak256\n        /* \"contracts/vitalsContract_flattened.sol\":25575:25595  _roles[role].members */\n      0x00\n      add\n        /* \"contracts/vitalsContract_flattened.sol\":25575:25604  _roles[role].members[account] */\n      0x00\n        /* \"contracts/vitalsContract_flattened.sol\":25596:25603  account */\n      dup4\n        /* \"contracts/vitalsContract_flattened.sol\":25575:25604  _roles[role].members[account] */\n      0xffffffffffffffffffffffffffffffffffffffff\n      and\n      0xffffffffffffffffffffffffffffffffffffffff\n      and\n      dup2\n      mstore\n      0x20\n      add\n      swap1\n      dup2\n      mstore\n      0x20\n      add\n      0x00\n      keccak256\n      0x00\n      swap1\n      sload\n      swap1\n      0x0100\n      exp\n      swap1\n      div\n      0xff\n      and\n        /* \"contracts/vitalsContract_flattened.sol\":25568:25604  return _roles[role].members[account] */\n      swap1\n      pop\n        /* \"contracts/vitalsContract_flattened.sol\":25466:25611  function hasRole(bytes32 role, address account) public view virtual override returns (bool) {... */\n      swap3\n      swap2\n      pop\n      pop\n      jump\t// out\n        /* \"contracts/vitalsContract_flattened.sol\":35081:35418  function updateMedicationInfo(... */\n    tag_76:\n        /* \"contracts/vitalsContract_flattened.sol\":33447:33470  keccak256(\"onlyDoctor\") */\n      0xff4ed198c18ce05e59ff2bcb2e277f2554623dcb9ab1d05e463e435a930cc469\n        /* \"contracts/vitalsContract_flattened.sol\":25076:25092  _checkRole(role) */\n      tag_188\n        /* \"contracts/vitalsContract_flattened.sol\":25087:25091  role */\n      dup2\n        /* \"contracts/vitalsContract_flattened.sol\":25076:25086  _checkRole */\n      tag_144\n        /* \"contracts/vitalsContract_flattened.sol\":25076:25092  _checkRole(role) */\n      jump\t// in\n    tag_188:\n        /* \"contracts/vitalsContract_flattened.sol\":35229:35252  Records storage records */\n      0x00\n        /* \"contracts/vitalsContract_flattened.sol\":35255:35269  patientRecords */\n      0x02\n        /* \"contracts/vitalsContract_flattened.sol\":35255:35285  patientRecords[patientAddress] */\n      0x00\n        /* \"contracts/vitalsContract_flattened.sol\":35270:35284  patientAddress */\n      dup6\n        /* \"contracts/vitalsContract_flattened.sol\":35255:35285  patientRecords[patientAddress] */\n      0xffffffffffffffffffffffffffffffffffffffff\n      and\n      0xffffffffffffffffffffffffffffffffffffffff\n      and\n      dup2\n      mstore\n      0x20\n      add\n      swap1\n      dup2\n      mstore\n      0x20\n      add\n      0x00\n      keccak256\n        /* \"contracts/vitalsContract_flattened.sol\":35229:35285  Records storage records = patientRecords[patientAddress] */\n      swap1\n      pop\n        /* \"contracts/vitalsContract_flattened.sol\":35320:35335  _medicationInfo */\n      dup3\n        /* \"contracts/vitalsContract_flattened.sol\":35295:35302  records */\n      dup2\n        /* \"contracts/vitalsContract_flattened.sol\":35295:35317  records.medicationInfo */\n      0x0d\n      add\n        /* \"contracts/vitalsContract_flattened.sol\":35295:35335  records.medicationInfo = _medicationInfo */\n      swap1\n      0x03\n      tag_190\n      swap3\n      swap2\n      swap1\n      tag_191\n      jump\t// in\n    tag_190:\n      pop\n        /* \"contracts/vitalsContract_flattened.sol\":35379:35393  patientAddress */\n      dup4\n        /* \"contracts/vitalsContract_flattened.sol\":35350:35411  MedicationInformationUpdated(patientAddress, _medicationInfo) */\n      0xffffffffffffffffffffffffffffffffffffffff\n      and\n      0xd6134f67b184a56f52cf6cc3429f33dc966b42c82cf5e243dac53b4366aa01ae\n        /* \"contracts/vitalsContract_flattened.sol\":35395:35410  _medicationInfo */\n      dup5\n        /* \"contracts/vitalsContract_flattened.sol\":35350:35411  MedicationInformationUpdated(patientAddress, _medicationInfo) */\n      mload(0x40)\n      tag_192\n      swap2\n      swap1\n      tag_193\n      jump\t// in\n    tag_192:\n      mload(0x40)\n      dup1\n      swap2\n      sub\n      swap1\n      log2\n        /* \"contracts/vitalsContract_flattened.sol\":35219:35418  {... */\n      pop\n        /* \"contracts/vitalsContract_flattened.sol\":35081:35418  function updateMedicationInfo(... */\n      pop\n      pop\n      pop\n      jump\t// out\n        /* \"contracts/vitalsContract_flattened.sol\":35459:35753  function updateLabTests(... */\n    tag_79:\n        /* \"contracts/vitalsContract_flattened.sol\":33447:33470  keccak256(\"onlyDoctor\") */\n      0xff4ed198c18ce05e59ff2bcb2e277f2554623dcb9ab1d05e463e435a930cc469\n        /* \"contracts/vitalsContract_flattened.sol\":25076:25092  _checkRole(role) */\n      tag_195\n        /* \"contracts/vitalsContract_flattened.sol\":25087:25091  role */\n      dup2\n        /* \"contracts/vitalsContract_flattened.sol\":25076:25086  _checkRole */\n      tag_144\n        /* \"contracts/vitalsContract_flattened.sol\":25076:25092  _checkRole(role) */\n      jump\t// in\n    tag_195:\n        /* \"contracts/vitalsContract_flattened.sol\":35595:35618  Records storage records */\n      0x00\n        /* \"contracts/vitalsContract_flattened.sol\":35621:35635  patientRecords */\n      0x02\n        /* \"contracts/vitalsContract_flattened.sol\":35621:35651  patientRecords[patientAddress] */\n      0x00\n        /* \"contracts/vitalsContract_flattened.sol\":35636:35650  patientAddress */\n      dup6\n        /* \"contracts/vitalsContract_flattened.sol\":35621:35651  patientRecords[patientAddress] */\n      0xffffffffffffffffffffffffffffffffffffffff\n      and\n      0xffffffffffffffffffffffffffffffffffffffff\n      and\n      dup2\n      mstore\n      0x20\n      add\n      swap1\n      dup2\n      mstore\n      0x20\n      add\n      0x00\n      keccak256\n        /* \"contracts/vitalsContract_flattened.sol\":35595:35651  Records storage records = patientRecords[patientAddress] */\n      swap1\n      pop\n        /* \"contracts/vitalsContract_flattened.sol\":35680:35689  _labTests */\n      dup3\n        /* \"contracts/vitalsContract_flattened.sol\":35661:35668  records */\n      dup2\n        /* \"contracts/vitalsContract_flattened.sol\":35661:35677  records.labTests */\n      0x10\n      add\n        /* \"contracts/vitalsContract_flattened.sol\":35661:35689  records.labTests = _labTests */\n      swap1\n      0x02\n      tag_197\n      swap3\n      swap2\n      swap1\n      tag_147\n      jump\t// in\n    tag_197:\n      pop\n        /* \"contracts/vitalsContract_flattened.sol\":35720:35734  patientAddress */\n      dup4\n        /* \"contracts/vitalsContract_flattened.sol\":35704:35746  LabTestsUpdated(patientAddress, _labTests) */\n      0xffffffffffffffffffffffffffffffffffffffff\n      and\n      0x541fd1a482c02c88b030e41f82afe680097ef4daabd80879eab1a9ff9c3b8776\n        /* \"contracts/vitalsContract_flattened.sol\":35736:35745  _labTests */\n      dup5\n        /* \"contracts/vitalsContract_flattened.sol\":35704:35746  LabTestsUpdated(patientAddress, _labTests) */\n      mload(0x40)\n      tag_198\n      swap2\n      swap1\n      tag_149\n      jump\t// in\n    tag_198:\n      mload(0x40)\n      dup1\n      swap2\n      sub\n      swap1\n      log2\n        /* \"contracts/vitalsContract_flattened.sol\":35585:35753  {... */\n      pop\n        /* \"contracts/vitalsContract_flattened.sol\":35459:35753  function updateLabTests(... */\n      pop\n      pop\n      pop\n      jump\t// out\n        /* \"contracts/vitalsContract_flattened.sol\":24598:24647  bytes32 public constant DEFAULT_ADMIN_ROLE = 0x00 */\n    tag_81:\n        /* \"contracts/vitalsContract_flattened.sol\":24643:24647  0x00 */\n      0x00\n        /* \"contracts/vitalsContract_flattened.sol\":24598:24647  bytes32 public constant DEFAULT_ADMIN_ROLE = 0x00 */\n      dup1\n      shl\n      dup2\n      jump\t// out\n        /* \"contracts/vitalsContract_flattened.sol\":27799:27946  function revokeRole(bytes32 role, address account) public virtual override onlyRole(getRoleAdmin(role)) {... */\n    tag_85:\n        /* \"contracts/vitalsContract_flattened.sol\":27883:27901  getRoleAdmin(role) */\n      tag_199\n        /* \"contracts/vitalsContract_flattened.sol\":27896:27900  role */\n      dup3\n        /* \"contracts/vitalsContract_flattened.sol\":27883:27895  getRoleAdmin */\n      tag_42\n        /* \"contracts/vitalsContract_flattened.sol\":27883:27901  getRoleAdmin(role) */\n      jump\t// in\n    tag_199:\n        /* \"contracts/vitalsContract_flattened.sol\":25076:25092  _checkRole(role) */\n      tag_201\n        /* \"contracts/vitalsContract_flattened.sol\":25087:25091  role */\n      dup2\n        /* \"contracts/vitalsContract_flattened.sol\":25076:25086  _checkRole */\n      tag_144\n        /* \"contracts/vitalsContract_flattened.sol\":25076:25092  _checkRole(role) */\n      jump\t// in\n    tag_201:\n        /* \"contracts/vitalsContract_flattened.sol\":27913:27939  _revokeRole(role, account) */\n      tag_203\n        /* \"contracts/vitalsContract_flattened.sol\":27925:27929  role */\n      dup4\n        /* \"contracts/vitalsContract_flattened.sol\":27931:27938  account */\n      dup4\n        /* \"contracts/vitalsContract_flattened.sol\":27913:27924  _revokeRole */\n      tag_164\n        /* \"contracts/vitalsContract_flattened.sol\":27913:27939  _revokeRole(role, account) */\n      jump\t// in\n    tag_203:\n        /* \"contracts/vitalsContract_flattened.sol\":27799:27946  function revokeRole(bytes32 role, address account) public virtual override onlyRole(getRoleAdmin(role)) {... */\n      pop\n      pop\n      pop\n      jump\t// out\n        /* \"contracts/vitalsContract_flattened.sol\":32739:32937  function transferOwnership(address newOwner) public virtual onlyOwner {... */\n    tag_88:\n        /* \"contracts/vitalsContract_flattened.sol\":31759:31772  _checkOwner() */\n      tag_205\n        /* \"contracts/vitalsContract_flattened.sol\":31759:31770  _checkOwner */\n      tag_174\n        /* \"contracts/vitalsContract_flattened.sol\":31759:31772  _checkOwner() */\n      jump\t// in\n    tag_205:\n        /* \"contracts/vitalsContract_flattened.sol\":32847:32848  0 */\n      0x00\n        /* \"contracts/vitalsContract_flattened.sol\":32827:32849  newOwner != address(0) */\n      0xffffffffffffffffffffffffffffffffffffffff\n      and\n        /* \"contracts/vitalsContract_flattened.sol\":32827:32835  newOwner */\n      dup2\n        /* \"contracts/vitalsContract_flattened.sol\":32827:32849  newOwner != address(0) */\n      0xffffffffffffffffffffffffffffffffffffffff\n      and\n      sub\n        /* \"contracts/vitalsContract_flattened.sol\":32819:32892  require(newOwner != address(0), \"Ownable: new owner is the zero address\") */\n      tag_207\n      jumpi\n      mload(0x40)\n      0x08c379a000000000000000000000000000000000000000000000000000000000\n      dup2\n      mstore\n      0x04\n      add\n      tag_208\n      swap1\n      tag_209\n      jump\t// in\n    tag_208:\n      mload(0x40)\n      dup1\n      swap2\n      sub\n      swap1\n      revert\n    tag_207:\n        /* \"contracts/vitalsContract_flattened.sol\":32902:32930  _transferOwnership(newOwner) */\n      tag_210\n        /* \"contracts/vitalsContract_flattened.sol\":32921:32929  newOwner */\n      dup2\n        /* \"contracts/vitalsContract_flattened.sol\":32902:32920  _transferOwnership */\n      tag_177\n        /* \"contracts/vitalsContract_flattened.sol\":32902:32930  _transferOwnership(newOwner) */\n      jump\t// in\n    tag_210:\n        /* \"contracts/vitalsContract_flattened.sol\":32739:32937  function transferOwnership(address newOwner) public virtual onlyOwner {... */\n      pop\n      jump\t// out\n        /* \"contracts/vitalsContract_flattened.sol\":1729:1884  function supportsInterface(bytes4 interfaceId) public view virtual override returns (bool) {... */\n    tag_92:\n        /* \"contracts/vitalsContract_flattened.sol\":1814:1818  bool */\n      0x00\n        /* \"contracts/vitalsContract_flattened.sol\":1852:1877  type(IERC165).interfaceId */\n      0x01ffc9a700000000000000000000000000000000000000000000000000000000\n        /* \"contracts/vitalsContract_flattened.sol\":1837:1877  interfaceId == type(IERC165).interfaceId */\n      not(0xffffffffffffffffffffffffffffffffffffffffffffffffffffffff)\n      and\n        /* \"contracts/vitalsContract_flattened.sol\":1837:1848  interfaceId */\n      dup3\n        /* \"contracts/vitalsContract_flattened.sol\":1837:1877  interfaceId == type(IERC165).interfaceId */\n      not(0xffffffffffffffffffffffffffffffffffffffffffffffffffffffff)\n      and\n      eq\n        /* \"contracts/vitalsContract_flattened.sol\":1830:1877  return interfaceId == type(IERC165).interfaceId */\n      swap1\n      pop\n        /* \"contracts/vitalsContract_flattened.sol\":1729:1884  function supportsInterface(bytes4 interfaceId) public view virtual override returns (bool) {... */\n      swap2\n      swap1\n      pop\n      jump\t// out\n        /* \"contracts/vitalsContract_flattened.sol\":25905:26008  function _checkRole(bytes32 role) internal view virtual {... */\n    tag_144:\n        /* \"contracts/vitalsContract_flattened.sol\":25971:26001  _checkRole(role, _msgSender()) */\n      tag_213\n        /* \"contracts/vitalsContract_flattened.sol\":25982:25986  role */\n      dup2\n        /* \"contracts/vitalsContract_flattened.sol\":25988:26000  _msgSender() */\n      tag_214\n        /* \"contracts/vitalsContract_flattened.sol\":25988:25998  _msgSender */\n      tag_159\n        /* \"contracts/vitalsContract_flattened.sol\":25988:26000  _msgSender() */\n      jump\t// in\n    tag_214:\n        /* \"contracts/vitalsContract_flattened.sol\":25971:25981  _checkRole */\n      tag_215\n        /* \"contracts/vitalsContract_flattened.sol\":25971:26001  _checkRole(role, _msgSender()) */\n      jump\t// in\n    tag_213:\n        /* \"contracts/vitalsContract_flattened.sol\":25905:26008  function _checkRole(bytes32 role) internal view virtual {... */\n      pop\n      jump\t// out\n        /* \"contracts/vitalsContract_flattened.sol\":30032:30265  function _grantRole(bytes32 role, address account) internal virtual {... */\n    tag_156:\n        /* \"contracts/vitalsContract_flattened.sol\":30115:30137  hasRole(role, account) */\n      tag_217\n        /* \"contracts/vitalsContract_flattened.sol\":30123:30127  role */\n      dup3\n        /* \"contracts/vitalsContract_flattened.sol\":30129:30136  account */\n      dup3\n        /* \"contracts/vitalsContract_flattened.sol\":30115:30122  hasRole */\n      tag_71\n        /* \"contracts/vitalsContract_flattened.sol\":30115:30137  hasRole(role, account) */\n      jump\t// in\n    tag_217:\n        /* \"contracts/vitalsContract_flattened.sol\":30110:30259  if (!hasRole(role, account)) {... */\n      tag_218\n      jumpi\n        /* \"contracts/vitalsContract_flattened.sol\":30185:30189  true */\n      0x01\n        /* \"contracts/vitalsContract_flattened.sol\":30153:30159  _roles */\n      dup1\n        /* \"contracts/vitalsContract_flattened.sol\":30153:30165  _roles[role] */\n      0x00\n        /* \"contracts/vitalsContract_flattened.sol\":30160:30164  role */\n      dup5\n        /* \"contracts/vitalsContract_flattened.sol\":30153:30165  _roles[role] */\n      dup2\n      mstore\n      0x20\n      add\n      swap1\n      dup2\n      mstore\n      0x20\n      add\n      0x00\n      keccak256\n        /* \"contracts/vitalsContract_flattened.sol\":30153:30173  _roles[role].members */\n      0x00\n      add\n        /* \"contracts/vitalsContract_flattened.sol\":30153:30182  _roles[role].members[account] */\n      0x00\n        /* \"contracts/vitalsContract_flattened.sol\":30174:30181  account */\n      dup4\n        /* \"contracts/vitalsContract_flattened.sol\":30153:30182  _roles[role].members[account] */\n      0xffffffffffffffffffffffffffffffffffffffff\n      and\n      0xffffffffffffffffffffffffffffffffffffffff\n      and\n      dup2\n      mstore\n      0x20\n      add\n      swap1\n      dup2\n      mstore\n      0x20\n      add\n      0x00\n      keccak256\n      0x00\n        /* \"contracts/vitalsContract_flattened.sol\":30153:30189  _roles[role].members[account] = true */\n      0x0100\n      exp\n      dup2\n      sload\n      dup2\n      0xff\n      mul\n      not\n      and\n      swap1\n      dup4\n      iszero\n      iszero\n      mul\n      or\n      swap1\n      sstore\n      pop\n        /* \"contracts/vitalsContract_flattened.sol\":30235:30247  _msgSender() */\n      tag_219\n        /* \"contracts/vitalsContract_flattened.sol\":30235:30245  _msgSender */\n      tag_159\n        /* \"contracts/vitalsContract_flattened.sol\":30235:30247  _msgSender() */\n      jump\t// in\n    tag_219:\n        /* \"contracts/vitalsContract_flattened.sol\":30208:30248  RoleGranted(role, account, _msgSender()) */\n      0xffffffffffffffffffffffffffffffffffffffff\n      and\n        /* \"contracts/vitalsContract_flattened.sol\":30226:30233  account */\n      dup2\n        /* \"contracts/vitalsContract_flattened.sol\":30208:30248  RoleGranted(role, account, _msgSender()) */\n      0xffffffffffffffffffffffffffffffffffffffff\n      and\n        /* \"contracts/vitalsContract_flattened.sol\":30220:30224  role */\n      dup4\n        /* \"contracts/vitalsContract_flattened.sol\":30208:30248  RoleGranted(role, account, _msgSender()) */\n      0x2f8788117e7eff1d82e926ec794901d17c78024a50270940304540a733656f0d\n      mload(0x40)\n      mload(0x40)\n      dup1\n      swap2\n      sub\n      swap1\n      log4\n        /* \"contracts/vitalsContract_flattened.sol\":30110:30259  if (!hasRole(role, account)) {... */\n    tag_218:\n        /* \"contracts/vitalsContract_flattened.sol\":30032:30265  function _grantRole(bytes32 role, address account) internal virtual {... */\n      pop\n      pop\n      jump\t// out\n        /* \"contracts/vitalsContract_flattened.sol\":22346:22442  function _msgSender() internal view virtual returns (address) {... */\n    tag_159:\n        /* \"contracts/vitalsContract_flattened.sol\":22399:22406  address */\n      0x00\n        /* \"contracts/vitalsContract_flattened.sol\":22425:22435  msg.sender */\n      caller\n        /* \"contracts/vitalsContract_flattened.sol\":22418:22435  return msg.sender */\n      swap1\n      pop\n        /* \"contracts/vitalsContract_flattened.sol\":22346:22442  function _msgSender() internal view virtual returns (address) {... */\n      swap1\n      jump\t// out\n        /* \"contracts/vitalsContract_flattened.sol\":30436:30670  function _revokeRole(bytes32 role, address account) internal virtual {... */\n    tag_164:\n        /* \"contracts/vitalsContract_flattened.sol\":30519:30541  hasRole(role, account) */\n      tag_222\n        /* \"contracts/vitalsContract_flattened.sol\":30527:30531  role */\n      dup3\n        /* \"contracts/vitalsContract_flattened.sol\":30533:30540  account */\n      dup3\n        /* \"contracts/vitalsContract_flattened.sol\":30519:30526  hasRole */\n      tag_71\n        /* \"contracts/vitalsContract_flattened.sol\":30519:30541  hasRole(role, account) */\n      jump\t// in\n    tag_222:\n        /* \"contracts/vitalsContract_flattened.sol\":30515:30664  if (hasRole(role, account)) {... */\n      iszero\n      tag_223\n      jumpi\n        /* \"contracts/vitalsContract_flattened.sol\":30589:30594  false */\n      0x00\n        /* \"contracts/vitalsContract_flattened.sol\":30557:30563  _roles */\n      0x01\n        /* \"contracts/vitalsContract_flattened.sol\":30557:30569  _roles[role] */\n      0x00\n        /* \"contracts/vitalsContract_flattened.sol\":30564:30568  role */\n      dup5\n        /* \"contracts/vitalsContract_flattened.sol\":30557:30569  _roles[role] */\n      dup2\n      mstore\n      0x20\n      add\n      swap1\n      dup2\n      mstore\n      0x20\n      add\n      0x00\n      keccak256\n        /* \"contracts/vitalsContract_flattened.sol\":30557:30577  _roles[role].members */\n      0x00\n      add\n        /* \"contracts/vitalsContract_flattened.sol\":30557:30586  _roles[role].members[account] */\n      0x00\n        /* \"contracts/vitalsContract_flattened.sol\":30578:30585  account */\n      dup4\n        /* \"contracts/vitalsContract_flattened.sol\":30557:30586  _roles[role].members[account] */\n      0xffffffffffffffffffffffffffffffffffffffff\n      and\n      0xffffffffffffffffffffffffffffffffffffffff\n      and\n      dup2\n      mstore\n      0x20\n      add\n      swap1\n      dup2\n      mstore\n      0x20\n      add\n      0x00\n      keccak256\n      0x00\n        /* \"contracts/vitalsContract_flattened.sol\":30557:30594  _roles[role].members[account] = false */\n      0x0100\n      exp\n      dup2\n      sload\n      dup2\n      0xff\n      mul\n      not\n      and\n      swap1\n      dup4\n      iszero\n      iszero\n      mul\n      or\n      swap1\n      sstore\n      pop\n        /* \"contracts/vitalsContract_flattened.sol\":30640:30652  _msgSender() */\n      tag_224\n        /* \"contracts/vitalsContract_flattened.sol\":30640:30650  _msgSender */\n      tag_159\n        /* \"contracts/vitalsContract_flattened.sol\":30640:30652  _msgSender() */\n      jump\t// in\n    tag_224:\n        /* \"contracts/vitalsContract_flattened.sol\":30613:30653  RoleRevoked(role, account, _msgSender()) */\n      0xffffffffffffffffffffffffffffffffffffffff\n      and\n        /* \"contracts/vitalsContract_flattened.sol\":30631:30638  account */\n      dup2\n        /* \"contracts/vitalsContract_flattened.sol\":30613:30653  RoleRevoked(role, account, _msgSender()) */\n      0xffffffffffffffffffffffffffffffffffffffff\n      and\n        /* \"contracts/vitalsContract_flattened.sol\":30625:30629  role */\n      dup4\n        /* \"contracts/vitalsContract_flattened.sol\":30613:30653  RoleRevoked(role, account, _msgSender()) */\n      0xf6391f5c32d9c69d2a47ea670b442974b53935d1edc7fd64eb21e047a839171b\n      mload(0x40)\n      mload(0x40)\n      dup1\n      swap2\n      sub\n      swap1\n      log4\n        /* \"contracts/vitalsContract_flattened.sol\":30515:30664  if (hasRole(role, account)) {... */\n    tag_223:\n        /* \"contracts/vitalsContract_flattened.sol\":30436:30670  function _revokeRole(bytes32 role, address account) internal virtual {... */\n      pop\n      pop\n      jump\t// out\n        /* \"contracts/vitalsContract_flattened.sol\":32024:32154  function _checkOwner() internal view virtual {... */\n    tag_174:\n        /* \"contracts/vitalsContract_flattened.sol\":32098:32110  _msgSender() */\n      tag_226\n        /* \"contracts/vitalsContract_flattened.sol\":32098:32108  _msgSender */\n      tag_159\n        /* \"contracts/vitalsContract_flattened.sol\":32098:32110  _msgSender() */\n      jump\t// in\n    tag_226:\n        /* \"contracts/vitalsContract_flattened.sol\":32087:32110  owner() == _msgSender() */\n      0xffffffffffffffffffffffffffffffffffffffff\n      and\n        /* \"contracts/vitalsContract_flattened.sol\":32087:32094  owner() */\n      tag_227\n        /* \"contracts/vitalsContract_flattened.sol\":32087:32092  owner */\n      tag_66\n        /* \"contracts/vitalsContract_flattened.sol\":32087:32094  owner() */\n      jump\t// in\n    tag_227:\n        /* \"contracts/vitalsContract_flattened.sol\":32087:32110  owner() == _msgSender() */\n      0xffffffffffffffffffffffffffffffffffffffff\n      and\n      eq\n        /* \"contracts/vitalsContract_flattened.sol\":32079:32147  require(owner() == _msgSender(), \"Ownable: caller is not the owner\") */\n      tag_228\n      jumpi\n      mload(0x40)\n      0x08c379a000000000000000000000000000000000000000000000000000000000\n      dup2\n      mstore\n      0x04\n      add\n      tag_229\n      swap1\n      tag_230\n      jump\t// in\n    tag_229:\n      mload(0x40)\n      dup1\n      swap2\n      sub\n      swap1\n      revert\n    tag_228:\n        /* \"contracts/vitalsContract_flattened.sol\":32024:32154  function _checkOwner() internal view virtual {... */\n      jump\t// out\n        /* \"contracts/vitalsContract_flattened.sol\":33091:33278  function _transferOwnership(address newOwner) internal virtual {... */\n    tag_177:\n        /* \"contracts/vitalsContract_flattened.sol\":33164:33180  address oldOwner */\n      0x00\n        /* \"contracts/vitalsContract_flattened.sol\":33183:33189  _owner */\n      dup1\n      0x00\n      swap1\n      sload\n      swap1\n      0x0100\n      exp\n      swap1\n      div\n      0xffffffffffffffffffffffffffffffffffffffff\n      and\n        /* \"contracts/vitalsContract_flattened.sol\":33164:33189  address oldOwner = _owner */\n      swap1\n      pop\n        /* \"contracts/vitalsContract_flattened.sol\":33208:33216  newOwner */\n      dup2\n        /* \"contracts/vitalsContract_flattened.sol\":33199:33205  _owner */\n      0x00\n      dup1\n        /* \"contracts/vitalsContract_flattened.sol\":33199:33216  _owner = newOwner */\n      0x0100\n      exp\n      dup2\n      sload\n      dup2\n      0xffffffffffffffffffffffffffffffffffffffff\n      mul\n      not\n      and\n      swap1\n      dup4\n      0xffffffffffffffffffffffffffffffffffffffff\n      and\n      mul\n      or\n      swap1\n      sstore\n      pop\n        /* \"contracts/vitalsContract_flattened.sol\":33262:33270  newOwner */\n      dup2\n        /* \"contracts/vitalsContract_flattened.sol\":33231:33271  OwnershipTransferred(oldOwner, newOwner) */\n      0xffffffffffffffffffffffffffffffffffffffff\n      and\n        /* \"contracts/vitalsContract_flattened.sol\":33252:33260  oldOwner */\n      dup2\n        /* \"contracts/vitalsContract_flattened.sol\":33231:33271  OwnershipTransferred(oldOwner, newOwner) */\n      0xffffffffffffffffffffffffffffffffffffffff\n      and\n      0x8be0079c531659141344cd1fd0a4f28419497f9722a3daafe3b4186f6b6457e0\n      mload(0x40)\n      mload(0x40)\n      dup1\n      swap2\n      sub\n      swap1\n      log3\n        /* \"contracts/vitalsContract_flattened.sol\":33154:33278  {... */\n      pop\n        /* \"contracts/vitalsContract_flattened.sol\":33091:33278  function _transferOwnership(address newOwner) internal virtual {... */\n      pop\n      jump\t// out\n        /* \"contracts/vitalsContract_flattened.sol\":26289:26768  function _checkRole(bytes32 role, address account) internal view virtual {... */\n    tag_215:\n        /* \"contracts/vitalsContract_flattened.sol\":26377:26399  hasRole(role, account) */\n      tag_233\n        /* \"contracts/vitalsContract_flattened.sol\":26385:26389  role */\n      dup3\n        /* \"contracts/vitalsContract_flattened.sol\":26391:26398  account */\n      dup3\n        /* \"contracts/vitalsContract_flattened.sol\":26377:26384  hasRole */\n      tag_71\n        /* \"contracts/vitalsContract_flattened.sol\":26377:26399  hasRole(role, account) */\n      jump\t// in\n    tag_233:\n        /* \"contracts/vitalsContract_flattened.sol\":26372:26762  if (!hasRole(role, account)) {... */\n      tag_234\n      jumpi\n        /* \"contracts/vitalsContract_flattened.sol\":26560:26588  Strings.toHexString(account) */\n      tag_235\n        /* \"contracts/vitalsContract_flattened.sol\":26580:26587  account */\n      dup2\n        /* \"contracts/vitalsContract_flattened.sol\":26560:26579  Strings.toHexString */\n      tag_236\n        /* \"contracts/vitalsContract_flattened.sol\":26560:26588  Strings.toHexString(account) */\n      jump\t// in\n    tag_235:\n        /* \"contracts/vitalsContract_flattened.sol\":26659:26697  Strings.toHexString(uint256(role), 32) */\n      tag_237\n        /* \"contracts/vitalsContract_flattened.sol\":26687:26691  role */\n      dup4\n        /* \"contracts/vitalsContract_flattened.sol\":26679:26692  uint256(role) */\n      0x00\n      shr\n        /* \"contracts/vitalsContract_flattened.sol\":26694:26696  32 */\n      0x20\n        /* \"contracts/vitalsContract_flattened.sol\":26659:26678  Strings.toHexString */\n      tag_238\n        /* \"contracts/vitalsContract_flattened.sol\":26659:26697  Strings.toHexString(uint256(role), 32) */\n      jump\t// in\n    tag_237:\n        /* \"contracts/vitalsContract_flattened.sol\":26467:26719  abi.encodePacked(... */\n      add(0x20, mload(0x40))\n      tag_239\n      swap3\n      swap2\n      swap1\n      tag_240\n      jump\t// in\n    tag_239:\n      mload(0x40)\n      0x20\n      dup2\n      dup4\n      sub\n      sub\n      dup2\n      mstore\n      swap1\n      0x40\n      mstore\n        /* \"contracts/vitalsContract_flattened.sol\":26415:26751  revert(... */\n      mload(0x40)\n      0x08c379a000000000000000000000000000000000000000000000000000000000\n      dup2\n      mstore\n      0x04\n      add\n      tag_241\n      swap2\n      swap1\n      tag_242\n      jump\t// in\n    tag_241:\n      mload(0x40)\n      dup1\n      swap2\n      sub\n      swap1\n      revert\n        /* \"contracts/vitalsContract_flattened.sol\":26372:26762  if (!hasRole(role, account)) {... */\n    tag_234:\n        /* \"contracts/vitalsContract_flattened.sol\":26289:26768  function _checkRole(bytes32 role, address account) internal view virtual {... */\n      pop\n      pop\n      jump\t// out\n        /* \"contracts/vitalsContract_flattened.sol\":18361:18510  function toHexString(address addr) internal pure returns (string memory) {... */\n    tag_236:\n        /* \"contracts/vitalsContract_flattened.sol\":18419:18432  string memory */\n      0x60\n        /* \"contracts/vitalsContract_flattened.sol\":18451:18503  toHexString(uint256(uint160(addr)), _ADDRESS_LENGTH) */\n      tag_244\n        /* \"contracts/vitalsContract_flattened.sol\":18479:18483  addr */\n      dup3\n        /* \"contracts/vitalsContract_flattened.sol\":18463:18485  uint256(uint160(addr)) */\n      0xffffffffffffffffffffffffffffffffffffffff\n      and\n        /* \"contracts/vitalsContract_flattened.sol\":16297:16299  20 */\n      0x14\n        /* \"contracts/vitalsContract_flattened.sol\":18451:18503  toHexString(uint256(uint160(addr)), _ADDRESS_LENGTH) */\n      0xff\n      and\n        /* \"contracts/vitalsContract_flattened.sol\":18451:18462  toHexString */\n      tag_238\n        /* \"contracts/vitalsContract_flattened.sol\":18451:18503  toHexString(uint256(uint160(addr)), _ADDRESS_LENGTH) */\n      jump\t// in\n    tag_244:\n        /* \"contracts/vitalsContract_flattened.sol\":18444:18503  return toHexString(uint256(uint160(addr)), _ADDRESS_LENGTH) */\n      swap1\n      pop\n        /* \"contracts/vitalsContract_flattened.sol\":18361:18510  function toHexString(address addr) internal pure returns (string memory) {... */\n      swap2\n      swap1\n      pop\n      jump\t// out\n        /* \"contracts/vitalsContract_flattened.sol\":17772:18209  function toHexString(uint256 value, uint256 length) internal pure returns (string memory) {... */\n    tag_238:\n        /* \"contracts/vitalsContract_flattened.sol\":17847:17860  string memory */\n      0x60\n        /* \"contracts/vitalsContract_flattened.sol\":17872:17891  bytes memory buffer */\n      0x00\n        /* \"contracts/vitalsContract_flattened.sol\":17917:17918  2 */\n      0x02\n        /* \"contracts/vitalsContract_flattened.sol\":17908:17914  length */\n      dup4\n        /* \"contracts/vitalsContract_flattened.sol\":17904:17905  2 */\n      0x02\n        /* \"contracts/vitalsContract_flattened.sol\":17904:17914  2 * length */\n      tag_246\n      swap2\n      swap1\n      tag_247\n      jump\t// in\n    tag_246:\n        /* \"contracts/vitalsContract_flattened.sol\":17904:17918  2 * length + 2 */\n      tag_248\n      swap2\n      swap1\n      tag_249\n      jump\t// in\n    tag_248:\n        /* \"contracts/vitalsContract_flattened.sol\":17894:17919  new bytes(2 * length + 2) */\n      0xffffffffffffffff\n      dup2\n      gt\n      iszero\n      tag_250\n      jumpi\n      tag_251\n      tag_252\n      jump\t// in\n    tag_251:\n    tag_250:\n      mload(0x40)\n      swap1\n      dup1\n      dup3\n      mstore\n      dup1\n      0x1f\n      add\n      not(0x1f)\n      and\n      0x20\n      add\n      dup3\n      add\n      0x40\n      mstore\n      dup1\n      iszero\n      tag_253\n      jumpi\n      dup2\n      0x20\n      add\n      0x01\n      dup3\n      mul\n      dup1\n      calldatasize\n      dup4\n      calldatacopy\n      dup1\n      dup3\n      add\n      swap2\n      pop\n      pop\n      swap1\n      pop\n    tag_253:\n      pop\n        /* \"contracts/vitalsContract_flattened.sol\":17872:17919  bytes memory buffer = new bytes(2 * length + 2) */\n      swap1\n      pop\n        /* \"contracts/vitalsContract_flattened.sol\":17929:17944  buffer[0] = \"0\" */\n      0x3000000000000000000000000000000000000000000000000000000000000000\n        /* \"contracts/vitalsContract_flattened.sol\":17929:17935  buffer */\n      dup2\n        /* \"contracts/vitalsContract_flattened.sol\":17936:17937  0 */\n      0x00\n        /* \"contracts/vitalsContract_flattened.sol\":17929:17938  buffer[0] */\n      dup2\n      mload\n      dup2\n      lt\n      tag_254\n      jumpi\n      tag_255\n      tag_256\n      jump\t// in\n    tag_255:\n    tag_254:\n      0x20\n      add\n      add\n        /* \"contracts/vitalsContract_flattened.sol\":17929:17944  buffer[0] = \"0\" */\n      swap1\n      not(0xffffffffffffffffffffffffffffffffffffffffffffffffffffffffffffff)\n      and\n      swap1\n      dup2\n      0x00\n      byte\n      swap1\n      mstore8\n      pop\n        /* \"contracts/vitalsContract_flattened.sol\":17954:17969  buffer[1] = \"x\" */\n      0x7800000000000000000000000000000000000000000000000000000000000000\n        /* \"contracts/vitalsContract_flattened.sol\":17954:17960  buffer */\n      dup2\n        /* \"contracts/vitalsContract_flattened.sol\":17961:17962  1 */\n      0x01\n        /* \"contracts/vitalsContract_flattened.sol\":17954:17963  buffer[1] */\n      dup2\n      mload\n      dup2\n      lt\n      tag_257\n      jumpi\n      tag_258\n      tag_256\n      jump\t// in\n    tag_258:\n    tag_257:\n      0x20\n      add\n      add\n        /* \"contracts/vitalsContract_flattened.sol\":17954:17969  buffer[1] = \"x\" */\n      swap1\n      not(0xffffffffffffffffffffffffffffffffffffffffffffffffffffffffffffff)\n      and\n      swap1\n      dup2\n      0x00\n      byte\n      swap1\n      mstore8\n      pop\n        /* \"contracts/vitalsContract_flattened.sol\":17984:17993  uint256 i */\n      0x00\n        /* \"contracts/vitalsContract_flattened.sol\":18009:18010  1 */\n      0x01\n        /* \"contracts/vitalsContract_flattened.sol\":18000:18006  length */\n      dup5\n        /* \"contracts/vitalsContract_flattened.sol\":17996:17997  2 */\n      0x02\n        /* \"contracts/vitalsContract_flattened.sol\":17996:18006  2 * length */\n      tag_262\n      swap2\n      swap1\n      tag_247\n      jump\t// in\n    tag_262:\n        /* \"contracts/vitalsContract_flattened.sol\":17996:18010  2 * length + 1 */\n      tag_263\n      swap2\n      swap1\n      tag_249\n      jump\t// in\n    tag_263:\n        /* \"contracts/vitalsContract_flattened.sol\":17984:18010  uint256 i = 2 * length + 1 */\n      swap1\n      pop\n        /* \"contracts/vitalsContract_flattened.sol\":17979:18107  for (uint256 i = 2 * length + 1; i > 1; --i) {... */\n    tag_259:\n        /* \"contracts/vitalsContract_flattened.sol\":18016:18017  1 */\n      0x01\n        /* \"contracts/vitalsContract_flattened.sol\":18012:18013  i */\n      dup2\n        /* \"contracts/vitalsContract_flattened.sol\":18012:18017  i > 1 */\n      gt\n        /* \"contracts/vitalsContract_flattened.sol\":17979:18107  for (uint256 i = 2 * length + 1; i > 1; --i) {... */\n      iszero\n      tag_260\n      jumpi\n        /* \"contracts/vitalsContract_flattened.sol\":18050:18058  _SYMBOLS */\n      0x3031323334353637383961626364656600000000000000000000000000000000\n        /* \"contracts/vitalsContract_flattened.sol\":18067:18070  0xf */\n      0x0f\n        /* \"contracts/vitalsContract_flattened.sol\":18059:18064  value */\n      dup7\n        /* \"contracts/vitalsContract_flattened.sol\":18059:18070  value & 0xf */\n      and\n        /* \"contracts/vitalsContract_flattened.sol\":18050:18071  _SYMBOLS[value & 0xf] */\n      0x10\n      dup2\n      lt\n      tag_264\n      jumpi\n      tag_265\n      tag_256\n      jump\t// in\n    tag_265:\n    tag_264:\n      byte\n      0xf8\n      shl\n        /* \"contracts/vitalsContract_flattened.sol\":18038:18044  buffer */\n      dup3\n        /* \"contracts/vitalsContract_flattened.sol\":18045:18046  i */\n      dup3\n        /* \"contracts/vitalsContract_flattened.sol\":18038:18047  buffer[i] */\n      dup2\n      mload\n      dup2\n      lt\n      tag_266\n      jumpi\n      tag_267\n      tag_256\n      jump\t// in\n    tag_267:\n    tag_266:\n      0x20\n      add\n      add\n        /* \"contracts/vitalsContract_flattened.sol\":18038:18071  buffer[i] = _SYMBOLS[value & 0xf] */\n      swap1\n      not(0xffffffffffffffffffffffffffffffffffffffffffffffffffffffffffffff)\n      and\n      swap1\n      dup2\n      0x00\n      byte\n      swap1\n      mstore8\n      pop\n        /* \"contracts/vitalsContract_flattened.sol\":18095:18096  4 */\n      0x04\n        /* \"contracts/vitalsContract_flattened.sol\":18085:18096  value >>= 4 */\n      dup6\n      swap1\n      shr\n      swap5\n      pop\n        /* \"contracts/vitalsContract_flattened.sol\":18019:18022  --i */\n      dup1\n      tag_268\n      swap1\n      tag_269\n      jump\t// in\n    tag_268:\n      swap1\n      pop\n        /* \"contracts/vitalsContract_flattened.sol\":17979:18107  for (uint256 i = 2 * length + 1; i > 1; --i) {... */\n      jump(tag_259)\n    tag_260:\n      pop\n        /* \"contracts/vitalsContract_flattened.sol\":18133:18134  0 */\n      0x00\n        /* \"contracts/vitalsContract_flattened.sol\":18124:18129  value */\n      dup5\n        /* \"contracts/vitalsContract_flattened.sol\":18124:18134  value == 0 */\n      eq\n        /* \"contracts/vitalsContract_flattened.sol\":18116:18171  require(value == 0, \"Strings: hex length insufficient\") */\n      tag_270\n      jumpi\n      mload(0x40)\n      0x08c379a000000000000000000000000000000000000000000000000000000000\n      dup2\n      mstore\n      0x04\n      add\n      tag_271\n      swap1\n      tag_272\n      jump\t// in\n    tag_271:\n      mload(0x40)\n      dup1\n      swap2\n      sub\n      swap1\n      revert\n    tag_270:\n        /* \"contracts/vitalsContract_flattened.sol\":18195:18201  buffer */\n      dup1\n        /* \"contracts/vitalsContract_flattened.sol\":18181:18202  return string(buffer) */\n      swap2\n      pop\n      pop\n        /* \"contracts/vitalsContract_flattened.sol\":17772:18209  function toHexString(uint256 value, uint256 length) internal pure returns (string memory) {... */\n      swap3\n      swap2\n      pop\n      pop\n      jump\t// out\n    tag_94:\n      mload(0x40)\n      dup1\n      0xa0\n      add\n      0x40\n      mstore\n      dup1\n      tag_273\n      tag_274\n      jump\t// in\n    tag_273:\n      dup2\n      mstore\n      0x20\n      add\n      tag_275\n      tag_276\n      jump\t// in\n    tag_275:\n      dup2\n      mstore\n      0x20\n      add\n      tag_277\n      tag_278\n      jump\t// in\n    tag_277:\n      dup2\n      mstore\n      0x20\n      add\n      tag_279\n      tag_280\n      jump\t// in\n    tag_279:\n      dup2\n      mstore\n      0x20\n      add\n      tag_281\n      tag_280\n      jump\t// in\n    tag_281:\n      dup2\n      mstore\n      pop\n      swap1\n      jump\t// out\n    tag_147:\n      dup3\n      0x02\n      dup2\n      add\n      swap3\n      dup3\n      iszero\n      tag_282\n      jumpi\n      swap2\n      0x20\n      mul\n      dup3\n      add\n    tag_283:\n      dup3\n      dup2\n      gt\n      iszero\n      tag_284\n      jumpi\n      dup3\n      mload\n      dup3\n      swap1\n      dup1\n      mload\n      swap1\n      0x20\n      add\n      swap1\n      tag_285\n      swap3\n      swap2\n      swap1\n      tag_286\n      jump\t// in\n    tag_285:\n      pop\n      swap2\n      0x20\n      add\n      swap2\n      swap1\n      0x01\n      add\n      swap1\n      jump(tag_283)\n    tag_284:\n    tag_282:\n      pop\n      swap1\n      pop\n      tag_287\n      swap2\n      swap1\n      tag_288\n      jump\t// in\n    tag_287:\n      pop\n      swap1\n      jump\t// out\n    tag_169:\n      dup3\n      0x06\n      dup2\n      add\n      swap3\n      dup3\n      iszero\n      tag_289\n      jumpi\n      swap2\n      0x20\n      mul\n      dup3\n      add\n    tag_290:\n      dup3\n      dup2\n      gt\n      iszero\n      tag_291\n      jumpi\n      dup3\n      mload\n      dup3\n      swap1\n      dup1\n      mload\n      swap1\n      0x20\n      add\n      swap1\n      tag_292\n      swap3\n      swap2\n      swap1\n      tag_286\n      jump\t// in\n    tag_292:\n      pop\n      swap2\n      0x20\n      add\n      swap2\n      swap1\n      0x01\n      add\n      swap1\n      jump(tag_290)\n    tag_291:\n    tag_289:\n      pop\n      swap1\n      pop\n      tag_293\n      swap2\n      swap1\n      tag_288\n      jump\t// in\n    tag_293:\n      pop\n      swap1\n      jump\t// out\n    tag_182:\n      dup3\n      0x07\n      dup2\n      add\n      swap3\n      dup3\n      iszero\n      tag_294\n      jumpi\n      swap2\n      0x20\n      mul\n      dup3\n      add\n    tag_295:\n      dup3\n      dup2\n      gt\n      iszero\n      tag_296\n      jumpi\n      dup3\n      mload\n      dup3\n      swap1\n      dup1\n      mload\n      swap1\n      0x20\n      add\n      swap1\n      tag_297\n      swap3\n      swap2\n      swap1\n      tag_286\n      jump\t// in\n    tag_297:\n      pop\n      swap2\n      0x20\n      add\n      swap2\n      swap1\n      0x01\n      add\n      swap1\n      jump(tag_295)\n    tag_296:\n    tag_294:\n      pop\n      swap1\n      pop\n      tag_298\n      swap2\n      swap1\n      tag_288\n      jump\t// in\n    tag_298:\n      pop\n      swap1\n      jump\t// out\n    tag_191:\n      dup3\n      0x03\n      dup2\n      add\n      swap3\n      dup3\n      iszero\n      tag_299\n      jumpi\n      swap2\n      0x20\n      mul\n      dup3\n      add\n    tag_300:\n      dup3\n      dup2\n      gt\n      iszero\n      tag_301\n      jumpi\n      dup3\n      mload\n      dup3\n      swap1\n      dup1\n      mload\n      swap1\n      0x20\n      add\n      swap1\n      tag_302\n      swap3\n      swap2\n      swap1\n      tag_286\n      jump\t// in\n    tag_302:\n      pop\n      swap2\n      0x20\n      add\n      swap2\n      swap1\n      0x01\n      add\n      swap1\n      jump(tag_300)\n    tag_301:\n    tag_299:\n      pop\n      swap1\n      pop\n      tag_303\n      swap2\n      swap1\n      tag_288\n      jump\t// in\n    tag_303:\n      pop\n      swap1\n      jump\t// out\n    tag_274:\n      mload(0x40)\n      dup1\n      0xc0\n      add\n      0x40\n      mstore\n      dup1\n      0x06\n      swap1\n    tag_304:\n      0x60\n      dup2\n      mstore\n      0x20\n      add\n      swap1\n      0x01\n      swap1\n      sub\n      swap1\n      dup2\n      tag_304\n      jumpi\n      swap1\n      pop\n      pop\n      swap1\n      jump\t// out\n    tag_276:\n      mload(0x40)\n      dup1\n      0xe0\n      add\n      0x40\n      mstore\n      dup1\n      0x07\n      swap1\n    tag_305:\n      0x60\n      dup2\n      mstore\n      0x20\n      add\n      swap1\n      0x01\n      swap1\n      sub\n      swap1\n      dup2\n      tag_305\n      jumpi\n      swap1\n      pop\n      pop\n      swap1\n      jump\t// out\n    tag_278:\n      mload(0x40)\n      dup1\n      0x60\n      add\n      0x40\n      mstore\n      dup1\n      0x03\n      swap1\n    tag_306:\n      0x60\n      dup2\n      mstore\n      0x20\n      add\n      swap1\n      0x01\n      swap1\n      sub\n      swap1\n      dup2\n      tag_306\n      jumpi\n      swap1\n      pop\n      pop\n      swap1\n      jump\t// out\n    tag_280:\n      mload(0x40)\n      dup1\n      0x40\n      add\n      0x40\n      mstore\n      dup1\n      0x02\n      swap1\n    tag_307:\n      0x60\n      dup2\n      mstore\n      0x20\n      add\n      swap1\n      0x01\n      swap1\n      sub\n      swap1\n      dup2\n      tag_307\n      jumpi\n      swap1\n      pop\n      pop\n      swap1\n      jump\t// out\n    tag_286:\n      dup3\n      dup1\n      sload\n      tag_308\n      swap1\n      tag_105\n      jump\t// in\n    tag_308:\n      swap1\n      0x00\n      mstore\n      keccak256(0x00, 0x20)\n      swap1\n      0x1f\n      add\n      0x20\n      swap1\n      div\n      dup2\n      add\n      swap3\n      dup3\n      tag_310\n      jumpi\n      0x00\n      dup6\n      sstore\n      jump(tag_309)\n    tag_310:\n      dup3\n      0x1f\n      lt\n      tag_311\n      jumpi\n      dup1\n      mload\n      not(0xff)\n      and\n      dup4\n      dup1\n      add\n      or\n      dup6\n      sstore\n      jump(tag_309)\n    tag_311:\n      dup3\n      dup1\n      add\n      0x01\n      add\n      dup6\n      sstore\n      dup3\n      iszero\n      tag_309\n      jumpi\n      swap2\n      dup3\n      add\n    tag_312:\n      dup3\n      dup2\n      gt\n      iszero\n      tag_313\n      jumpi\n      dup3\n      mload\n      dup3\n      sstore\n      swap2\n      0x20\n      add\n      swap2\n      swap1\n      0x01\n      add\n      swap1\n      jump(tag_312)\n    tag_313:\n    tag_309:\n      pop\n      swap1\n      pop\n      tag_314\n      swap2\n      swap1\n      tag_315\n      jump\t// in\n    tag_314:\n      pop\n      swap1\n      jump\t// out\n    tag_288:\n    tag_316:\n      dup1\n      dup3\n      gt\n      iszero\n      tag_317\n      jumpi\n      0x00\n      dup2\n      dup2\n      tag_318\n      swap2\n      swap1\n      tag_319\n      jump\t// in\n    tag_318:\n      pop\n      0x01\n      add\n      jump(tag_316)\n    tag_317:\n      pop\n      swap1\n      jump\t// out\n    tag_315:\n    tag_320:\n      dup1\n      dup3\n      gt\n      iszero\n      tag_321\n      jumpi\n      0x00\n      dup2\n      0x00\n      swap1\n      sstore\n      pop\n      0x01\n      add\n      jump(tag_320)\n    tag_321:\n      pop\n      swap1\n      jump\t// out\n    tag_319:\n      pop\n      dup1\n      sload\n      tag_322\n      swap1\n      tag_105\n      jump\t// in\n    tag_322:\n      0x00\n      dup3\n      sstore\n      dup1\n      0x1f\n      lt\n      tag_324\n      jumpi\n      pop\n      jump(tag_323)\n    tag_324:\n      0x1f\n      add\n      0x20\n      swap1\n      div\n      swap1\n      0x00\n      mstore\n      keccak256(0x00, 0x20)\n      swap1\n      dup2\n      add\n      swap1\n      tag_325\n      swap2\n      swap1\n      tag_315\n      jump\t// in\n    tag_325:\n    tag_323:\n      pop\n      jump\t// out\n        /* \"#utility.yul\":7:82   */\n    tag_326:\n        /* \"#utility.yul\":40:46   */\n      0x00\n        /* \"#utility.yul\":73:75   */\n      0x40\n        /* \"#utility.yul\":67:76   */\n      mload\n        /* \"#utility.yul\":57:76   */\n      swap1\n      pop\n        /* \"#utility.yul\":7:82   */\n      swap1\n      jump\t// out\n        /* \"#utility.yul\":88:205   */\n    tag_327:\n        /* \"#utility.yul\":197:198   */\n      0x00\n        /* \"#utility.yul\":194:195   */\n      dup1\n        /* \"#utility.yul\":187:199   */\n      revert\n        /* \"#utility.yul\":211:328   */\n    tag_328:\n        /* \"#utility.yul\":320:321   */\n      0x00\n        /* \"#utility.yul\":317:318   */\n      dup1\n        /* \"#utility.yul\":310:322   */\n      revert\n        /* \"#utility.yul\":334:483   */\n    tag_329:\n        /* \"#utility.yul\":370:377   */\n      0x00\n        /* \"#utility.yul\":410:476   */\n      0xffffffff00000000000000000000000000000000000000000000000000000000\n        /* \"#utility.yul\":403:408   */\n      dup3\n        /* \"#utility.yul\":399:477   */\n      and\n        /* \"#utility.yul\":388:477   */\n      swap1\n      pop\n        /* \"#utility.yul\":334:483   */\n      swap2\n      swap1\n      pop\n      jump\t// out\n        /* \"#utility.yul\":489:609   */\n    tag_330:\n        /* \"#utility.yul\":561:584   */\n      tag_426\n        /* \"#utility.yul\":578:583   */\n      dup2\n        /* \"#utility.yul\":561:584   */\n      tag_329\n      jump\t// in\n    tag_426:\n        /* \"#utility.yul\":554:559   */\n      dup2\n        /* \"#utility.yul\":551:585   */\n      eq\n        /* \"#utility.yul\":541:603   */\n      tag_427\n      jumpi\n        /* \"#utility.yul\":599:600   */\n      0x00\n        /* \"#utility.yul\":596:597   */\n      dup1\n        /* \"#utility.yul\":589:601   */\n      revert\n        /* \"#utility.yul\":541:603   */\n    tag_427:\n        /* \"#utility.yul\":489:609   */\n      pop\n      jump\t// out\n        /* \"#utility.yul\":615:752   */\n    tag_331:\n        /* \"#utility.yul\":660:665   */\n      0x00\n        /* \"#utility.yul\":698:704   */\n      dup2\n        /* \"#utility.yul\":685:705   */\n      calldataload\n        /* \"#utility.yul\":676:705   */\n      swap1\n      pop\n        /* \"#utility.yul\":714:746   */\n      tag_429\n        /* \"#utility.yul\":740:745   */\n      dup2\n        /* \"#utility.yul\":714:746   */\n      tag_330\n      jump\t// in\n    tag_429:\n        /* \"#utility.yul\":615:752   */\n      swap3\n      swap2\n      pop\n      pop\n      jump\t// out\n        /* \"#utility.yul\":758:1085   */\n    tag_25:\n        /* \"#utility.yul\":816:822   */\n      0x00\n        /* \"#utility.yul\":865:867   */\n      0x20\n        /* \"#utility.yul\":853:862   */\n      dup3\n        /* \"#utility.yul\":844:851   */\n      dup5\n        /* \"#utility.yul\":840:863   */\n      sub\n        /* \"#utility.yul\":836:868   */\n      slt\n        /* \"#utility.yul\":833:952   */\n      iszero\n      tag_431\n      jumpi\n        /* \"#utility.yul\":871:950   */\n      tag_432\n      tag_327\n      jump\t// in\n    tag_432:\n        /* \"#utility.yul\":833:952   */\n    tag_431:\n        /* \"#utility.yul\":991:992   */\n      0x00\n        /* \"#utility.yul\":1016:1068   */\n      tag_433\n        /* \"#utility.yul\":1060:1067   */\n      dup5\n        /* \"#utility.yul\":1051:1057   */\n      dup3\n        /* \"#utility.yul\":1040:1049   */\n      dup6\n        /* \"#utility.yul\":1036:1058   */\n      add\n        /* \"#utility.yul\":1016:1068   */\n      tag_331\n      jump\t// in\n    tag_433:\n        /* \"#utility.yul\":1006:1068   */\n      swap2\n      pop\n        /* \"#utility.yul\":962:1078   */\n      pop\n        /* \"#utility.yul\":758:1085   */\n      swap3\n      swap2\n      pop\n      pop\n      jump\t// out\n        /* \"#utility.yul\":1091:1181   */\n    tag_332:\n        /* \"#utility.yul\":1125:1132   */\n      0x00\n        /* \"#utility.yul\":1168:1173   */\n      dup2\n        /* \"#utility.yul\":1161:1174   */\n      iszero\n        /* \"#utility.yul\":1154:1175   */\n      iszero\n        /* \"#utility.yul\":1143:1175   */\n      swap1\n      pop\n        /* \"#utility.yul\":1091:1181   */\n      swap2\n      swap1\n      pop\n      jump\t// out\n        /* \"#utility.yul\":1187:1296   */\n    tag_333:\n        /* \"#utility.yul\":1268:1289   */\n      tag_436\n        /* \"#utility.yul\":1283:1288   */\n      dup2\n        /* \"#utility.yul\":1268:1289   */\n      tag_332\n      jump\t// in\n    tag_436:\n        /* \"#utility.yul\":1263:1266   */\n      dup3\n        /* \"#utility.yul\":1256:1290   */\n      mstore\n        /* \"#utility.yul\":1187:1296   */\n      pop\n      pop\n      jump\t// out\n        /* \"#utility.yul\":1302:1512   */\n    tag_28:\n        /* \"#utility.yul\":1389:1393   */\n      0x00\n        /* \"#utility.yul\":1427:1429   */\n      0x20\n        /* \"#utility.yul\":1416:1425   */\n      dup3\n        /* \"#utility.yul\":1412:1430   */\n      add\n        /* \"#utility.yul\":1404:1430   */\n      swap1\n      pop\n        /* \"#utility.yul\":1440:1505   */\n      tag_438\n        /* \"#utility.yul\":1502:1503   */\n      0x00\n        /* \"#utility.yul\":1491:1500   */\n      dup4\n        /* \"#utility.yul\":1487:1504   */\n      add\n        /* \"#utility.yul\":1478:1484   */\n      dup5\n        /* \"#utility.yul\":1440:1505   */\n      tag_333\n      jump\t// in\n    tag_438:\n        /* \"#utility.yul\":1302:1512   */\n      swap3\n      swap2\n      pop\n      pop\n      jump\t// out\n        /* \"#utility.yul\":1518:1644   */\n    tag_334:\n        /* \"#utility.yul\":1555:1562   */\n      0x00\n        /* \"#utility.yul\":1595:1637   */\n      0xffffffffffffffffffffffffffffffffffffffff\n        /* \"#utility.yul\":1588:1593   */\n      dup3\n        /* \"#utility.yul\":1584:1638   */\n      and\n        /* \"#utility.yul\":1573:1638   */\n      swap1\n      pop\n        /* \"#utility.yul\":1518:1644   */\n      swap2\n      swap1\n      pop\n      jump\t// out\n        /* \"#utility.yul\":1650:1746   */\n    tag_335:\n        /* \"#utility.yul\":1687:1694   */\n      0x00\n        /* \"#utility.yul\":1716:1740   */\n      tag_441\n        /* \"#utility.yul\":1734:1739   */\n      dup3\n        /* \"#utility.yul\":1716:1740   */\n      tag_334\n      jump\t// in\n    tag_441:\n        /* \"#utility.yul\":1705:1740   */\n      swap1\n      pop\n        /* \"#utility.yul\":1650:1746   */\n      swap2\n      swap1\n      pop\n      jump\t// out\n        /* \"#utility.yul\":1752:1874   */\n    tag_336:\n        /* \"#utility.yul\":1825:1849   */\n      tag_443\n        /* \"#utility.yul\":1843:1848   */\n      dup2\n        /* \"#utility.yul\":1825:1849   */\n      tag_335\n      jump\t// in\n    tag_443:\n        /* \"#utility.yul\":1818:1823   */\n      dup2\n        /* \"#utility.yul\":1815:1850   */\n      eq\n        /* \"#utility.yul\":1805:1868   */\n      tag_444\n      jumpi\n        /* \"#utility.yul\":1864:1865   */\n      0x00\n        /* \"#utility.yul\":1861:1862   */\n      dup1\n        /* \"#utility.yul\":1854:1866   */\n      revert\n        /* \"#utility.yul\":1805:1868   */\n    tag_444:\n        /* \"#utility.yul\":1752:1874   */\n      pop\n      jump\t// out\n        /* \"#utility.yul\":1880:2019   */\n    tag_337:\n        /* \"#utility.yul\":1926:1931   */\n      0x00\n        /* \"#utility.yul\":1964:1970   */\n      dup2\n        /* \"#utility.yul\":1951:1971   */\n      calldataload\n        /* \"#utility.yul\":1942:1971   */\n      swap1\n      pop\n        /* \"#utility.yul\":1980:2013   */\n      tag_446\n        /* \"#utility.yul\":2007:2012   */\n      dup2\n        /* \"#utility.yul\":1980:2013   */\n      tag_336\n      jump\t// in\n    tag_446:\n        /* \"#utility.yul\":1880:2019   */\n      swap3\n      swap2\n      pop\n      pop\n      jump\t// out\n        /* \"#utility.yul\":2025:2354   */\n    tag_31:\n        /* \"#utility.yul\":2084:2090   */\n      0x00\n        /* \"#utility.yul\":2133:2135   */\n      0x20\n        /* \"#utility.yul\":2121:2130   */\n      dup3\n        /* \"#utility.yul\":2112:2119   */\n      dup5\n        /* \"#utility.yul\":2108:2131   */\n      sub\n        /* \"#utility.yul\":2104:2136   */\n      slt\n        /* \"#utility.yul\":2101:2220   */\n      iszero\n      tag_448\n      jumpi\n        /* \"#utility.yul\":2139:2218   */\n      tag_449\n      tag_327\n      jump\t// in\n    tag_449:\n        /* \"#utility.yul\":2101:2220   */\n    tag_448:\n        /* \"#utility.yul\":2259:2260   */\n      0x00\n        /* \"#utility.yul\":2284:2337   */\n      tag_450\n        /* \"#utility.yul\":2329:2336   */\n      dup5\n        /* \"#utility.yul\":2320:2326   */\n      dup3\n        /* \"#utility.yul\":2309:2318   */\n      dup6\n        /* \"#utility.yul\":2305:2327   */\n      add\n        /* \"#utility.yul\":2284:2337   */\n      tag_337\n      jump\t// in\n    tag_450:\n        /* \"#utility.yul\":2274:2337   */\n      swap2\n      pop\n        /* \"#utility.yul\":2230:2347   */\n      pop\n        /* \"#utility.yul\":2025:2354   */\n      swap3\n      swap2\n      pop\n      pop\n      jump\t// out\n        /* \"#utility.yul\":2360:2474   */\n    tag_338:\n        /* \"#utility.yul\":2435:2441   */\n      0x00\n        /* \"#utility.yul\":2463:2467   */\n      0x06\n        /* \"#utility.yul\":2453:2467   */\n      swap1\n      pop\n        /* \"#utility.yul\":2360:2474   */\n      swap2\n      swap1\n      pop\n      jump\t// out\n        /* \"#utility.yul\":2480:2623   */\n    tag_339:\n        /* \"#utility.yul\":2577:2588   */\n      0x00\n        /* \"#utility.yul\":2614:2617   */\n      dup2\n        /* \"#utility.yul\":2599:2617   */\n      swap1\n      pop\n        /* \"#utility.yul\":2480:2623   */\n      swap3\n      swap2\n      pop\n      pop\n      jump\t// out\n        /* \"#utility.yul\":2629:2737   */\n    tag_340:\n        /* \"#utility.yul\":2704:2708   */\n      0x00\n        /* \"#utility.yul\":2727:2730   */\n      dup2\n        /* \"#utility.yul\":2719:2730   */\n      swap1\n      pop\n        /* \"#utility.yul\":2629:2737   */\n      swap2\n      swap1\n      pop\n      jump\t// out\n        /* \"#utility.yul\":2743:2842   */\n    tag_341:\n        /* \"#utility.yul\":2795:2801   */\n      0x00\n        /* \"#utility.yul\":2829:2834   */\n      dup2\n        /* \"#utility.yul\":2823:2835   */\n      mload\n        /* \"#utility.yul\":2813:2835   */\n      swap1\n      pop\n        /* \"#utility.yul\":2743:2842   */\n      swap2\n      swap1\n      pop\n      jump\t// out\n        /* \"#utility.yul\":2848:3007   */\n    tag_342:\n        /* \"#utility.yul\":2922:2933   */\n      0x00\n        /* \"#utility.yul\":2956:2962   */\n      dup3\n        /* \"#utility.yul\":2951:2954   */\n      dup3\n        /* \"#utility.yul\":2944:2963   */\n      mstore\n        /* \"#utility.yul\":2996:3000   */\n      0x20\n        /* \"#utility.yul\":2991:2994   */\n      dup3\n        /* \"#utility.yul\":2987:3001   */\n      add\n        /* \"#utility.yul\":2972:3001   */\n      swap1\n      pop\n        /* \"#utility.yul\":2848:3007   */\n      swap3\n      swap2\n      pop\n      pop\n      jump\t// out\n        /* \"#utility.yul\":3013:3320   */\n    tag_343:\n        /* \"#utility.yul\":3081:3082   */\n      0x00\n        /* \"#utility.yul\":3091:3204   */\n    tag_457:\n        /* \"#utility.yul\":3105:3111   */\n      dup4\n        /* \"#utility.yul\":3102:3103   */\n      dup2\n        /* \"#utility.yul\":3099:3112   */\n      lt\n        /* \"#utility.yul\":3091:3204   */\n      iszero\n      tag_459\n      jumpi\n        /* \"#utility.yul\":3190:3191   */\n      dup1\n        /* \"#utility.yul\":3185:3188   */\n      dup3\n        /* \"#utility.yul\":3181:3192   */\n      add\n        /* \"#utility.yul\":3175:3193   */\n      mload\n        /* \"#utility.yul\":3171:3172   */\n      dup2\n        /* \"#utility.yul\":3166:3169   */\n      dup5\n        /* \"#utility.yul\":3162:3173   */\n      add\n        /* \"#utility.yul\":3155:3194   */\n      mstore\n        /* \"#utility.yul\":3127:3129   */\n      0x20\n        /* \"#utility.yul\":3124:3125   */\n      dup2\n        /* \"#utility.yul\":3120:3130   */\n      add\n        /* \"#utility.yul\":3115:3130   */\n      swap1\n      pop\n        /* \"#utility.yul\":3091:3204   */\n      jump(tag_457)\n    tag_459:\n        /* \"#utility.yul\":3222:3228   */\n      dup4\n        /* \"#utility.yul\":3219:3220   */\n      dup2\n        /* \"#utility.yul\":3216:3229   */\n      gt\n        /* \"#utility.yul\":3213:3314   */\n      iszero\n      tag_460\n      jumpi\n        /* \"#utility.yul\":3302:3303   */\n      0x00\n        /* \"#utility.yul\":3293:3299   */\n      dup5\n        /* \"#utility.yul\":3288:3291   */\n      dup5\n        /* \"#utility.yul\":3284:3300   */\n      add\n        /* \"#utility.yul\":3277:3304   */\n      mstore\n        /* \"#utility.yul\":3213:3314   */\n    tag_460:\n        /* \"#utility.yul\":3062:3320   */\n      pop\n        /* \"#utility.yul\":3013:3320   */\n      pop\n      pop\n      pop\n      jump\t// out\n        /* \"#utility.yul\":3326:3428   */\n    tag_344:\n        /* \"#utility.yul\":3367:3373   */\n      0x00\n        /* \"#utility.yul\":3418:3420   */\n      0x1f\n        /* \"#utility.yul\":3414:3421   */\n      not\n        /* \"#utility.yul\":3409:3411   */\n      0x1f\n        /* \"#utility.yul\":3402:3407   */\n      dup4\n        /* \"#utility.yul\":3398:3412   */\n      add\n        /* \"#utility.yul\":3394:3422   */\n      and\n        /* \"#utility.yul\":3384:3422   */\n      swap1\n      pop\n        /* \"#utility.yul\":3326:3428   */\n      swap2\n      swap1\n      pop\n      jump\t// out\n        /* \"#utility.yul\":3434:3778   */\n    tag_345:\n        /* \"#utility.yul\":3512:3515   */\n      0x00\n        /* \"#utility.yul\":3540:3579   */\n      tag_463\n        /* \"#utility.yul\":3573:3578   */\n      dup3\n        /* \"#utility.yul\":3540:3579   */\n      tag_341\n      jump\t// in\n    tag_463:\n        /* \"#utility.yul\":3595:3656   */\n      tag_464\n        /* \"#utility.yul\":3649:3655   */\n      dup2\n        /* \"#utility.yul\":3644:3647   */\n      dup6\n        /* \"#utility.yul\":3595:3656   */\n      tag_342\n      jump\t// in\n    tag_464:\n        /* \"#utility.yul\":3588:3656   */\n      swap4\n      pop\n        /* \"#utility.yul\":3665:3717   */\n      tag_465\n        /* \"#utility.yul\":3710:3716   */\n      dup2\n        /* \"#utility.yul\":3705:3708   */\n      dup6\n        /* \"#utility.yul\":3698:3702   */\n      0x20\n        /* \"#utility.yul\":3691:3696   */\n      dup7\n        /* \"#utility.yul\":3687:3703   */\n      add\n        /* \"#utility.yul\":3665:3717   */\n      tag_343\n      jump\t// in\n    tag_465:\n        /* \"#utility.yul\":3742:3771   */\n      tag_466\n        /* \"#utility.yul\":3764:3770   */\n      dup2\n        /* \"#utility.yul\":3742:3771   */\n      tag_344\n      jump\t// in\n    tag_466:\n        /* \"#utility.yul\":3737:3740   */\n      dup5\n        /* \"#utility.yul\":3733:3772   */\n      add\n        /* \"#utility.yul\":3726:3772   */\n      swap2\n      pop\n        /* \"#utility.yul\":3516:3778   */\n      pop\n        /* \"#utility.yul\":3434:3778   */\n      swap3\n      swap2\n      pop\n      pop\n      jump\t// out\n        /* \"#utility.yul\":3784:3980   */\n    tag_346:\n        /* \"#utility.yul\":3873:3883   */\n      0x00\n        /* \"#utility.yul\":3908:3974   */\n      tag_468\n        /* \"#utility.yul\":3970:3973   */\n      dup4\n        /* \"#utility.yul\":3962:3968   */\n      dup4\n        /* \"#utility.yul\":3908:3974   */\n      tag_345\n      jump\t// in\n    tag_468:\n        /* \"#utility.yul\":3894:3974   */\n      swap1\n      pop\n        /* \"#utility.yul\":3784:3980   */\n      swap3\n      swap2\n      pop\n      pop\n      jump\t// out\n        /* \"#utility.yul\":3986:4107   */\n    tag_347:\n        /* \"#utility.yul\":4064:4068   */\n      0x00\n        /* \"#utility.yul\":4096:4100   */\n      0x20\n        /* \"#utility.yul\":4091:4094   */\n      dup3\n        /* \"#utility.yul\":4087:4101   */\n      add\n        /* \"#utility.yul\":4079:4101   */\n      swap1\n      pop\n        /* \"#utility.yul\":3986:4107   */\n      swap2\n      swap1\n      pop\n      jump\t// out\n        /* \"#utility.yul\":4143:5102   */\n    tag_348:\n        /* \"#utility.yul\":4268:4271   */\n      0x00\n        /* \"#utility.yul\":4297:4359   */\n      tag_471\n        /* \"#utility.yul\":4353:4358   */\n      dup3\n        /* \"#utility.yul\":4297:4359   */\n      tag_338\n      jump\t// in\n    tag_471:\n        /* \"#utility.yul\":4375:4459   */\n      tag_472\n        /* \"#utility.yul\":4452:4458   */\n      dup2\n        /* \"#utility.yul\":4447:4450   */\n      dup6\n        /* \"#utility.yul\":4375:4459   */\n      tag_339\n      jump\t// in\n    tag_472:\n        /* \"#utility.yul\":4368:4459   */\n      swap4\n      pop\n        /* \"#utility.yul\":4485:4488   */\n      dup4\n        /* \"#utility.yul\":4530:4534   */\n      0x20\n        /* \"#utility.yul\":4522:4528   */\n      dup3\n        /* \"#utility.yul\":4518:4535   */\n      mul\n        /* \"#utility.yul\":4513:4516   */\n      dup6\n        /* \"#utility.yul\":4509:4536   */\n      add\n        /* \"#utility.yul\":4560:4624   */\n      tag_473\n        /* \"#utility.yul\":4618:4623   */\n      dup6\n        /* \"#utility.yul\":4560:4624   */\n      tag_340\n      jump\t// in\n    tag_473:\n        /* \"#utility.yul\":4647:4654   */\n      dup1\n        /* \"#utility.yul\":4678:4679   */\n      0x00\n        /* \"#utility.yul\":4663:5057   */\n    tag_474:\n        /* \"#utility.yul\":4688:4694   */\n      dup6\n        /* \"#utility.yul\":4685:4686   */\n      dup2\n        /* \"#utility.yul\":4682:4695   */\n      lt\n        /* \"#utility.yul\":4663:5057   */\n      iszero\n      tag_476\n      jumpi\n        /* \"#utility.yul\":4759:4768   */\n      dup5\n        /* \"#utility.yul\":4753:4757   */\n      dup5\n        /* \"#utility.yul\":4749:4769   */\n      sub\n        /* \"#utility.yul\":4744:4747   */\n      dup10\n        /* \"#utility.yul\":4737:4770   */\n      mstore\n        /* \"#utility.yul\":4810:4816   */\n      dup2\n        /* \"#utility.yul\":4804:4817   */\n      mload\n        /* \"#utility.yul\":4838:4922   */\n      tag_477\n        /* \"#utility.yul\":4917:4921   */\n      dup6\n        /* \"#utility.yul\":4902:4915   */\n      dup3\n        /* \"#utility.yul\":4838:4922   */\n      tag_346\n      jump\t// in\n    tag_477:\n        /* \"#utility.yul\":4830:4922   */\n      swap5\n      pop\n        /* \"#utility.yul\":4945:5013   */\n      tag_478\n        /* \"#utility.yul\":5006:5012   */\n      dup4\n        /* \"#utility.yul\":4945:5013   */\n      tag_347\n      jump\t// in\n    tag_478:\n        /* \"#utility.yul\":4935:5013   */\n      swap3\n      pop\n        /* \"#utility.yul\":5042:5046   */\n      0x20\n        /* \"#utility.yul\":5037:5040   */\n      dup11\n        /* \"#utility.yul\":5033:5047   */\n      add\n        /* \"#utility.yul\":5026:5047   */\n      swap10\n      pop\n        /* \"#utility.yul\":4723:5057   */\n      pop\n        /* \"#utility.yul\":4710:4711   */\n      0x01\n        /* \"#utility.yul\":4707:4708   */\n      dup2\n        /* \"#utility.yul\":4703:4712   */\n      add\n        /* \"#utility.yul\":4698:4712   */\n      swap1\n      pop\n        /* \"#utility.yul\":4663:5057   */\n      jump(tag_474)\n    tag_476:\n        /* \"#utility.yul\":4667:4681   */\n      pop\n        /* \"#utility.yul\":5073:5077   */\n      dup3\n        /* \"#utility.yul\":5066:5077   */\n      swap8\n      pop\n        /* \"#utility.yul\":5093:5096   */\n      dup8\n        /* \"#utility.yul\":5086:5096   */\n      swap6\n      pop\n        /* \"#utility.yul\":4273:5102   */\n      pop\n      pop\n      pop\n      pop\n      pop\n        /* \"#utility.yul\":4143:5102   */\n      swap3\n      swap2\n      pop\n      pop\n      jump\t// out\n        /* \"#utility.yul\":5108:5222   */\n    tag_349:\n        /* \"#utility.yul\":5183:5189   */\n      0x00\n        /* \"#utility.yul\":5211:5215   */\n      0x07\n        /* \"#utility.yul\":5201:5215   */\n      swap1\n      pop\n        /* \"#utility.yul\":5108:5222   */\n      swap2\n      swap1\n      pop\n      jump\t// out\n        /* \"#utility.yul\":5228:5371   */\n    tag_350:\n        /* \"#utility.yul\":5325:5336   */\n      0x00\n        /* \"#utility.yul\":5362:5365   */\n      dup2\n        /* \"#utility.yul\":5347:5365   */\n      swap1\n      pop\n        /* \"#utility.yul\":5228:5371   */\n      swap3\n      swap2\n      pop\n      pop\n      jump\t// out\n        /* \"#utility.yul\":5377:5485   */\n    tag_351:\n        /* \"#utility.yul\":5452:5456   */\n      0x00\n        /* \"#utility.yul\":5475:5478   */\n      dup2\n        /* \"#utility.yul\":5467:5478   */\n      swap1\n      pop\n        /* \"#utility.yul\":5377:5485   */\n      swap2\n      swap1\n      pop\n      jump\t// out\n        /* \"#utility.yul\":5491:5612   */\n    tag_352:\n        /* \"#utility.yul\":5569:5573   */\n      0x00\n        /* \"#utility.yul\":5601:5605   */\n      0x20\n        /* \"#utility.yul\":5596:5599   */\n      dup3\n        /* \"#utility.yul\":5592:5606   */\n      add\n        /* \"#utility.yul\":5584:5606   */\n      swap1\n      pop\n        /* \"#utility.yul\":5491:5612   */\n      swap2\n      swap1\n      pop\n      jump\t// out\n        /* \"#utility.yul\":5648:6607   */\n    tag_353:\n        /* \"#utility.yul\":5773:5776   */\n      0x00\n        /* \"#utility.yul\":5802:5864   */\n      tag_484\n        /* \"#utility.yul\":5858:5863   */\n      dup3\n        /* \"#utility.yul\":5802:5864   */\n      tag_349\n      jump\t// in\n    tag_484:\n        /* \"#utility.yul\":5880:5964   */\n      tag_485\n        /* \"#utility.yul\":5957:5963   */\n      dup2\n        /* \"#utility.yul\":5952:5955   */\n      dup6\n        /* \"#utility.yul\":5880:5964   */\n      tag_350\n      jump\t// in\n    tag_485:\n        /* \"#utility.yul\":5873:5964   */\n      swap4\n      pop\n        /* \"#utility.yul\":5990:5993   */\n      dup4\n        /* \"#utility.yul\":6035:6039   */\n      0x20\n        /* \"#utility.yul\":6027:6033   */\n      dup3\n        /* \"#utility.yul\":6023:6040   */\n      mul\n        /* \"#utility.yul\":6018:6021   */\n      dup6\n        /* \"#utility.yul\":6014:6041   */\n      add\n        /* \"#utility.yul\":6065:6129   */\n      tag_486\n        /* \"#utility.yul\":6123:6128   */\n      dup6\n        /* \"#utility.yul\":6065:6129   */\n      tag_351\n      jump\t// in\n    tag_486:\n        /* \"#utility.yul\":6152:6159   */\n      dup1\n        /* \"#utility.yul\":6183:6184   */\n      0x00\n        /* \"#utility.yul\":6168:6562   */\n    tag_487:\n        /* \"#utility.yul\":6193:6199   */\n      dup6\n        /* \"#utility.yul\":6190:6191   */\n      dup2\n        /* \"#utility.yul\":6187:6200   */\n      lt\n        /* \"#utility.yul\":6168:6562   */\n      iszero\n      tag_489\n      jumpi\n        /* \"#utility.yul\":6264:6273   */\n      dup5\n        /* \"#utility.yul\":6258:6262   */\n      dup5\n        /* \"#utility.yul\":6254:6274   */\n      sub\n        /* \"#utility.yul\":6249:6252   */\n      dup10\n        /* \"#utility.yul\":6242:6275   */\n      mstore\n        /* \"#utility.yul\":6315:6321   */\n      dup2\n        /* \"#utility.yul\":6309:6322   */\n      mload\n        /* \"#utility.yul\":6343:6427   */\n      tag_490\n        /* \"#utility.yul\":6422:6426   */\n      dup6\n        /* \"#utility.yul\":6407:6420   */\n      dup3\n        /* \"#utility.yul\":6343:6427   */\n      tag_346\n      jump\t// in\n    tag_490:\n        /* \"#utility.yul\":6335:6427   */\n      swap5\n      pop\n        /* \"#utility.yul\":6450:6518   */\n      tag_491\n        /* \"#utility.yul\":6511:6517   */\n      dup4\n        /* \"#utility.yul\":6450:6518   */\n      tag_352\n      jump\t// in\n    tag_491:\n        /* \"#utility.yul\":6440:6518   */\n      swap3\n      pop\n        /* \"#utility.yul\":6547:6551   */\n      0x20\n        /* \"#utility.yul\":6542:6545   */\n      dup11\n        /* \"#utility.yul\":6538:6552   */\n      add\n        /* \"#utility.yul\":6531:6552   */\n      swap10\n      pop\n        /* \"#utility.yul\":6228:6562   */\n      pop\n        /* \"#utility.yul\":6215:6216   */\n      0x01\n        /* \"#utility.yul\":6212:6213   */\n      dup2\n        /* \"#utility.yul\":6208:6217   */\n      add\n        /* \"#utility.yul\":6203:6217   */\n      swap1\n      pop\n        /* \"#utility.yul\":6168:6562   */\n      jump(tag_487)\n    tag_489:\n        /* \"#utility.yul\":6172:6186   */\n      pop\n        /* \"#utility.yul\":6578:6582   */\n      dup3\n        /* \"#utility.yul\":6571:6582   */\n      swap8\n      pop\n        /* \"#utility.yul\":6598:6601   */\n      dup8\n        /* \"#utility.yul\":6591:6601   */\n      swap6\n      pop\n        /* \"#utility.yul\":5778:6607   */\n      pop\n      pop\n      pop\n      pop\n      pop\n        /* \"#utility.yul\":5648:6607   */\n      swap3\n      swap2\n      pop\n      pop\n      jump\t// out\n        /* \"#utility.yul\":6613:6727   */\n    tag_354:\n        /* \"#utility.yul\":6688:6694   */\n      0x00\n        /* \"#utility.yul\":6716:6720   */\n      0x03\n        /* \"#utility.yul\":6706:6720   */\n      swap1\n      pop\n        /* \"#utility.yul\":6613:6727   */\n      swap2\n      swap1\n      pop\n      jump\t// out\n        /* \"#utility.yul\":6733:6876   */\n    tag_355:\n        /* \"#utility.yul\":6830:6841   */\n      0x00\n        /* \"#utility.yul\":6867:6870   */\n      dup2\n        /* \"#utility.yul\":6852:6870   */\n      swap1\n      pop\n        /* \"#utility.yul\":6733:6876   */\n      swap3\n      swap2\n      pop\n      pop\n      jump\t// out\n        /* \"#utility.yul\":6882:6990   */\n    tag_356:\n        /* \"#utility.yul\":6957:6961   */\n      0x00\n        /* \"#utility.yul\":6980:6983   */\n      dup2\n        /* \"#utility.yul\":6972:6983   */\n      swap1\n      pop\n        /* \"#utility.yul\":6882:6990   */\n      swap2\n      swap1\n      pop\n      jump\t// out\n        /* \"#utility.yul\":6996:7117   */\n    tag_357:\n        /* \"#utility.yul\":7074:7078   */\n      0x00\n        /* \"#utility.yul\":7106:7110   */\n      0x20\n        /* \"#utility.yul\":7101:7104   */\n      dup3\n        /* \"#utility.yul\":7097:7111   */\n      add\n        /* \"#utility.yul\":7089:7111   */\n      swap1\n      pop\n        /* \"#utility.yul\":6996:7117   */\n      swap2\n      swap1\n      pop\n      jump\t// out\n        /* \"#utility.yul\":7153:8112   */\n    tag_358:\n        /* \"#utility.yul\":7278:7281   */\n      0x00\n        /* \"#utility.yul\":7307:7369   */\n      tag_497\n        /* \"#utility.yul\":7363:7368   */\n      dup3\n        /* \"#utility.yul\":7307:7369   */\n      tag_354\n      jump\t// in\n    tag_497:\n        /* \"#utility.yul\":7385:7469   */\n      tag_498\n        /* \"#utility.yul\":7462:7468   */\n      dup2\n        /* \"#utility.yul\":7457:7460   */\n      dup6\n        /* \"#utility.yul\":7385:7469   */\n      tag_355\n      jump\t// in\n    tag_498:\n        /* \"#utility.yul\":7378:7469   */\n      swap4\n      pop\n        /* \"#utility.yul\":7495:7498   */\n      dup4\n        /* \"#utility.yul\":7540:7544   */\n      0x20\n        /* \"#utility.yul\":7532:7538   */\n      dup3\n        /* \"#utility.yul\":7528:7545   */\n      mul\n        /* \"#utility.yul\":7523:7526   */\n      dup6\n        /* \"#utility.yul\":7519:7546   */\n      add\n        /* \"#utility.yul\":7570:7634   */\n      tag_499\n        /* \"#utility.yul\":7628:7633   */\n      dup6\n        /* \"#utility.yul\":7570:7634   */\n      tag_356\n      jump\t// in\n    tag_499:\n        /* \"#utility.yul\":7657:7664   */\n      dup1\n        /* \"#utility.yul\":7688:7689   */\n      0x00\n        /* \"#utility.yul\":7673:8067   */\n    tag_500:\n        /* \"#utility.yul\":7698:7704   */\n      dup6\n        /* \"#utility.yul\":7695:7696   */\n      dup2\n        /* \"#utility.yul\":7692:7705   */\n      lt\n        /* \"#utility.yul\":7673:8067   */\n      iszero\n      tag_502\n      jumpi\n        /* \"#utility.yul\":7769:7778   */\n      dup5\n        /* \"#utility.yul\":7763:7767   */\n      dup5\n        /* \"#utility.yul\":7759:7779   */\n      sub\n        /* \"#utility.yul\":7754:7757   */\n      dup10\n        /* \"#utility.yul\":7747:7780   */\n      mstore\n        /* \"#utility.yul\":7820:7826   */\n      dup2\n        /* \"#utility.yul\":7814:7827   */\n      mload\n        /* \"#utility.yul\":7848:7932   */\n      tag_503\n        /* \"#utility.yul\":7927:7931   */\n      dup6\n        /* \"#utility.yul\":7912:7925   */\n      dup3\n        /* \"#utility.yul\":7848:7932   */\n      tag_346\n      jump\t// in\n    tag_503:\n        /* \"#utility.yul\":7840:7932   */\n      swap5\n      pop\n        /* \"#utility.yul\":7955:8023   */\n      tag_504\n        /* \"#utility.yul\":8016:8022   */\n      dup4\n        /* \"#utility.yul\":7955:8023   */\n      tag_357\n      jump\t// in\n    tag_504:\n        /* \"#utility.yul\":7945:8023   */\n      swap3\n      pop\n        /* \"#utility.yul\":8052:8056   */\n      0x20\n        /* \"#utility.yul\":8047:8050   */\n      dup11\n        /* \"#utility.yul\":8043:8057   */\n      add\n        /* \"#utility.yul\":8036:8057   */\n      swap10\n      pop\n        /* \"#utility.yul\":7733:8067   */\n      pop\n        /* \"#utility.yul\":7720:7721   */\n      0x01\n        /* \"#utility.yul\":7717:7718   */\n      dup2\n        /* \"#utility.yul\":7713:7722   */\n      add\n        /* \"#utility.yul\":7708:7722   */\n      swap1\n      pop\n        /* \"#utility.yul\":7673:8067   */\n      jump(tag_500)\n    tag_502:\n        /* \"#utility.yul\":7677:7691   */\n      pop\n        /* \"#utility.yul\":8083:8087   */\n      dup3\n        /* \"#utility.yul\":8076:8087   */\n      swap8\n      pop\n        /* \"#utility.yul\":8103:8106   */\n      dup8\n        /* \"#utility.yul\":8096:8106   */\n      swap6\n      pop\n        /* \"#utility.yul\":7283:8112   */\n      pop\n      pop\n      pop\n      pop\n      pop\n        /* \"#utility.yul\":7153:8112   */\n      swap3\n      swap2\n      pop\n      pop\n      jump\t// out\n        /* \"#utility.yul\":8118:8232   */\n    tag_359:\n        /* \"#utility.yul\":8193:8199   */\n      0x00\n        /* \"#utility.yul\":8221:8225   */\n      0x02\n        /* \"#utility.yul\":8211:8225   */\n      swap1\n      pop\n        /* \"#utility.yul\":8118:8232   */\n      swap2\n      swap1\n      pop\n      jump\t// out\n        /* \"#utility.yul\":8238:8381   */\n    tag_360:\n        /* \"#utility.yul\":8335:8346   */\n      0x00\n        /* \"#utility.yul\":8372:8375   */\n      dup2\n        /* \"#utility.yul\":8357:8375   */\n      swap1\n      pop\n        /* \"#utility.yul\":8238:8381   */\n      swap3\n      swap2\n      pop\n      pop\n      jump\t// out\n        /* \"#utility.yul\":8387:8495   */\n    tag_361:\n        /* \"#utility.yul\":8462:8466   */\n      0x00\n        /* \"#utility.yul\":8485:8488   */\n      dup2\n        /* \"#utility.yul\":8477:8488   */\n      swap1\n      pop\n        /* \"#utility.yul\":8387:8495   */\n      swap2\n      swap1\n      pop\n      jump\t// out\n        /* \"#utility.yul\":8501:8622   */\n    tag_362:\n        /* \"#utility.yul\":8579:8583   */\n      0x00\n        /* \"#utility.yul\":8611:8615   */\n      0x20\n        /* \"#utility.yul\":8606:8609   */\n      dup3\n        /* \"#utility.yul\":8602:8616   */\n      add\n        /* \"#utility.yul\":8594:8616   */\n      swap1\n      pop\n        /* \"#utility.yul\":8501:8622   */\n      swap2\n      swap1\n      pop\n      jump\t// out\n        /* \"#utility.yul\":8658:9617   */\n    tag_363:\n        /* \"#utility.yul\":8783:8786   */\n      0x00\n        /* \"#utility.yul\":8812:8874   */\n      tag_510\n        /* \"#utility.yul\":8868:8873   */\n      dup3\n        /* \"#utility.yul\":8812:8874   */\n      tag_359\n      jump\t// in\n    tag_510:\n        /* \"#utility.yul\":8890:8974   */\n      tag_511\n        /* \"#utility.yul\":8967:8973   */\n      dup2\n        /* \"#utility.yul\":8962:8965   */\n      dup6\n        /* \"#utility.yul\":8890:8974   */\n      tag_360\n      jump\t// in\n    tag_511:\n        /* \"#utility.yul\":8883:8974   */\n      swap4\n      pop\n        /* \"#utility.yul\":9000:9003   */\n      dup4\n        /* \"#utility.yul\":9045:9049   */\n      0x20\n        /* \"#utility.yul\":9037:9043   */\n      dup3\n        /* \"#utility.yul\":9033:9050   */\n      mul\n        /* \"#utility.yul\":9028:9031   */\n      dup6\n        /* \"#utility.yul\":9024:9051   */\n      add\n        /* \"#utility.yul\":9075:9139   */\n      tag_512\n        /* \"#utility.yul\":9133:9138   */\n      dup6\n        /* \"#utility.yul\":9075:9139   */\n      tag_361\n      jump\t// in\n    tag_512:\n        /* \"#utility.yul\":9162:9169   */\n      dup1\n        /* \"#utility.yul\":9193:9194   */\n      0x00\n        /* \"#utility.yul\":9178:9572   */\n    tag_513:\n        /* \"#utility.yul\":9203:9209   */\n      dup6\n        /* \"#utility.yul\":9200:9201   */\n      dup2\n        /* \"#utility.yul\":9197:9210   */\n      lt\n        /* \"#utility.yul\":9178:9572   */\n      iszero\n      tag_515\n      jumpi\n        /* \"#utility.yul\":9274:9283   */\n      dup5\n        /* \"#utility.yul\":9268:9272   */\n      dup5\n        /* \"#utility.yul\":9264:9284   */\n      sub\n        /* \"#utility.yul\":9259:9262   */\n      dup10\n        /* \"#utility.yul\":9252:9285   */\n      mstore\n        /* \"#utility.yul\":9325:9331   */\n      dup2\n        /* \"#utility.yul\":9319:9332   */\n      mload\n        /* \"#utility.yul\":9353:9437   */\n      tag_516\n        /* \"#utility.yul\":9432:9436   */\n      dup6\n        /* \"#utility.yul\":9417:9430   */\n      dup3\n        /* \"#utility.yul\":9353:9437   */\n      tag_346\n      jump\t// in\n    tag_516:\n        /* \"#utility.yul\":9345:9437   */\n      swap5\n      pop\n        /* \"#utility.yul\":9460:9528   */\n      tag_517\n        /* \"#utility.yul\":9521:9527   */\n      dup4\n        /* \"#utility.yul\":9460:9528   */\n      tag_362\n      jump\t// in\n    tag_517:\n        /* \"#utility.yul\":9450:9528   */\n      swap3\n      pop\n        /* \"#utility.yul\":9557:9561   */\n      0x20\n        /* \"#utility.yul\":9552:9555   */\n      dup11\n        /* \"#utility.yul\":9548:9562   */\n      add\n        /* \"#utility.yul\":9541:9562   */\n      swap10\n      pop\n        /* \"#utility.yul\":9238:9572   */\n      pop\n        /* \"#utility.yul\":9225:9226   */\n      0x01\n        /* \"#utility.yul\":9222:9223   */\n      dup2\n        /* \"#utility.yul\":9218:9227   */\n      add\n        /* \"#utility.yul\":9213:9227   */\n      swap1\n      pop\n        /* \"#utility.yul\":9178:9572   */\n      jump(tag_513)\n    tag_515:\n        /* \"#utility.yul\":9182:9196   */\n      pop\n        /* \"#utility.yul\":9588:9592   */\n      dup3\n        /* \"#utility.yul\":9581:9592   */\n      swap8\n      pop\n        /* \"#utility.yul\":9608:9611   */\n      dup8\n        /* \"#utility.yul\":9601:9611   */\n      swap6\n      pop\n        /* \"#utility.yul\":8788:9617   */\n      pop\n      pop\n      pop\n      pop\n      pop\n        /* \"#utility.yul\":8658:9617   */\n      swap3\n      swap2\n      pop\n      pop\n      jump\t// out\n        /* \"#utility.yul\":9691:11366   */\n    tag_364:\n        /* \"#utility.yul\":9810:9813   */\n      0x00\n        /* \"#utility.yul\":9846:9850   */\n      0xa0\n        /* \"#utility.yul\":9841:9844   */\n      dup4\n        /* \"#utility.yul\":9837:9851   */\n      add\n        /* \"#utility.yul\":9940:9944   */\n      0x00\n        /* \"#utility.yul\":9933:9938   */\n      dup4\n        /* \"#utility.yul\":9929:9945   */\n      add\n        /* \"#utility.yul\":9923:9946   */\n      mload\n        /* \"#utility.yul\":9993:9996   */\n      dup5\n        /* \"#utility.yul\":9987:9991   */\n      dup3\n        /* \"#utility.yul\":9983:9997   */\n      sub\n        /* \"#utility.yul\":9976:9980   */\n      0x00\n        /* \"#utility.yul\":9971:9974   */\n      dup7\n        /* \"#utility.yul\":9967:9981   */\n      add\n        /* \"#utility.yul\":9960:9998   */\n      mstore\n        /* \"#utility.yul\":10019:10138   */\n      tag_519\n        /* \"#utility.yul\":10133:10137   */\n      dup3\n        /* \"#utility.yul\":10119:10131   */\n      dup3\n        /* \"#utility.yul\":10019:10138   */\n      tag_348\n      jump\t// in\n    tag_519:\n        /* \"#utility.yul\":10011:10138   */\n      swap2\n      pop\n        /* \"#utility.yul\":9861:10149   */\n      pop\n        /* \"#utility.yul\":10237:10241   */\n      0x20\n        /* \"#utility.yul\":10230:10235   */\n      dup4\n        /* \"#utility.yul\":10226:10242   */\n      add\n        /* \"#utility.yul\":10220:10243   */\n      mload\n        /* \"#utility.yul\":10290:10293   */\n      dup5\n        /* \"#utility.yul\":10284:10288   */\n      dup3\n        /* \"#utility.yul\":10280:10294   */\n      sub\n        /* \"#utility.yul\":10273:10277   */\n      0x20\n        /* \"#utility.yul\":10268:10271   */\n      dup7\n        /* \"#utility.yul\":10264:10278   */\n      add\n        /* \"#utility.yul\":10257:10295   */\n      mstore\n        /* \"#utility.yul\":10316:10435   */\n      tag_520\n        /* \"#utility.yul\":10430:10434   */\n      dup3\n        /* \"#utility.yul\":10416:10428   */\n      dup3\n        /* \"#utility.yul\":10316:10435   */\n      tag_353\n      jump\t// in\n    tag_520:\n        /* \"#utility.yul\":10308:10435   */\n      swap2\n      pop\n        /* \"#utility.yul\":10159:10446   */\n      pop\n        /* \"#utility.yul\":10538:10542   */\n      0x40\n        /* \"#utility.yul\":10531:10536   */\n      dup4\n        /* \"#utility.yul\":10527:10543   */\n      add\n        /* \"#utility.yul\":10521:10544   */\n      mload\n        /* \"#utility.yul\":10591:10594   */\n      dup5\n        /* \"#utility.yul\":10585:10589   */\n      dup3\n        /* \"#utility.yul\":10581:10595   */\n      sub\n        /* \"#utility.yul\":10574:10578   */\n      0x40\n        /* \"#utility.yul\":10569:10572   */\n      dup7\n        /* \"#utility.yul\":10565:10579   */\n      add\n        /* \"#utility.yul\":10558:10596   */\n      mstore\n        /* \"#utility.yul\":10617:10736   */\n      tag_521\n        /* \"#utility.yul\":10731:10735   */\n      dup3\n        /* \"#utility.yul\":10717:10729   */\n      dup3\n        /* \"#utility.yul\":10617:10736   */\n      tag_358\n      jump\t// in\n    tag_521:\n        /* \"#utility.yul\":10609:10736   */\n      swap2\n      pop\n        /* \"#utility.yul\":10456:10747   */\n      pop\n        /* \"#utility.yul\":10833:10837   */\n      0x60\n        /* \"#utility.yul\":10826:10831   */\n      dup4\n        /* \"#utility.yul\":10822:10838   */\n      add\n        /* \"#utility.yul\":10816:10839   */\n      mload\n        /* \"#utility.yul\":10886:10889   */\n      dup5\n        /* \"#utility.yul\":10880:10884   */\n      dup3\n        /* \"#utility.yul\":10876:10890   */\n      sub\n        /* \"#utility.yul\":10869:10873   */\n      0x60\n        /* \"#utility.yul\":10864:10867   */\n      dup7\n        /* \"#utility.yul\":10860:10874   */\n      add\n        /* \"#utility.yul\":10853:10891   */\n      mstore\n        /* \"#utility.yul\":10912:11031   */\n      tag_522\n        /* \"#utility.yul\":11026:11030   */\n      dup3\n        /* \"#utility.yul\":11012:11024   */\n      dup3\n        /* \"#utility.yul\":10912:11031   */\n      tag_363\n      jump\t// in\n    tag_522:\n        /* \"#utility.yul\":10904:11031   */\n      swap2\n      pop\n        /* \"#utility.yul\":10757:11042   */\n      pop\n        /* \"#utility.yul\":11130:11134   */\n      0x80\n        /* \"#utility.yul\":11123:11128   */\n      dup4\n        /* \"#utility.yul\":11119:11135   */\n      add\n        /* \"#utility.yul\":11113:11136   */\n      mload\n        /* \"#utility.yul\":11183:11186   */\n      dup5\n        /* \"#utility.yul\":11177:11181   */\n      dup3\n        /* \"#utility.yul\":11173:11187   */\n      sub\n        /* \"#utility.yul\":11166:11170   */\n      0x80\n        /* \"#utility.yul\":11161:11164   */\n      dup7\n        /* \"#utility.yul\":11157:11171   */\n      add\n        /* \"#utility.yul\":11150:11188   */\n      mstore\n        /* \"#utility.yul\":11209:11328   */\n      tag_523\n        /* \"#utility.yul\":11323:11327   */\n      dup3\n        /* \"#utility.yul\":11309:11321   */\n      dup3\n        /* \"#utility.yul\":11209:11328   */\n      tag_363\n      jump\t// in\n    tag_523:\n        /* \"#utility.yul\":11201:11328   */\n      swap2\n      pop\n        /* \"#utility.yul\":11052:11339   */\n      pop\n        /* \"#utility.yul\":11356:11360   */\n      dup1\n        /* \"#utility.yul\":11349:11360   */\n      swap2\n      pop\n        /* \"#utility.yul\":9815:11366   */\n      pop\n        /* \"#utility.yul\":9691:11366   */\n      swap3\n      swap2\n      pop\n      pop\n      jump\t// out\n        /* \"#utility.yul\":11372:11745   */\n    tag_34:\n        /* \"#utility.yul\":11515:11519   */\n      0x00\n        /* \"#utility.yul\":11553:11555   */\n      0x20\n        /* \"#utility.yul\":11542:11551   */\n      dup3\n        /* \"#utility.yul\":11538:11556   */\n      add\n        /* \"#utility.yul\":11530:11556   */\n      swap1\n      pop\n        /* \"#utility.yul\":11602:11611   */\n      dup2\n        /* \"#utility.yul\":11596:11600   */\n      dup2\n        /* \"#utility.yul\":11592:11612   */\n      sub\n        /* \"#utility.yul\":11588:11589   */\n      0x00\n        /* \"#utility.yul\":11577:11586   */\n      dup4\n        /* \"#utility.yul\":11573:11590   */\n      add\n        /* \"#utility.yul\":11566:11613   */\n      mstore\n        /* \"#utility.yul\":11630:11738   */\n      tag_525\n        /* \"#utility.yul\":11733:11737   */\n      dup2\n        /* \"#utility.yul\":11724:11730   */\n      dup5\n        /* \"#utility.yul\":11630:11738   */\n      tag_364\n      jump\t// in\n    tag_525:\n        /* \"#utility.yul\":11622:11738   */\n      swap1\n      pop\n        /* \"#utility.yul\":11372:11745   */\n      swap3\n      swap2\n      pop\n      pop\n      jump\t// out\n        /* \"#utility.yul\":11751:11868   */\n    tag_365:\n        /* \"#utility.yul\":11860:11861   */\n      0x00\n        /* \"#utility.yul\":11857:11858   */\n      dup1\n        /* \"#utility.yul\":11850:11862   */\n      revert\n        /* \"#utility.yul\":11874:12054   */\n    tag_252:\n        /* \"#utility.yul\":11922:11999   */\n      0x4e487b7100000000000000000000000000000000000000000000000000000000\n        /* \"#utility.yul\":11919:11920   */\n      0x00\n        /* \"#utility.yul\":11912:12000   */\n      mstore\n        /* \"#utility.yul\":12019:12023   */\n      0x41\n        /* \"#utility.yul\":12016:12017   */\n      0x04\n        /* \"#utility.yul\":12009:12024   */\n      mstore\n        /* \"#utility.yul\":12043:12047   */\n      0x24\n        /* \"#utility.yul\":12040:12041   */\n      0x00\n        /* \"#utility.yul\":12033:12048   */\n      revert\n        /* \"#utility.yul\":12060:12341   */\n    tag_366:\n        /* \"#utility.yul\":12143:12170   */\n      tag_529\n        /* \"#utility.yul\":12165:12169   */\n      dup3\n        /* \"#utility.yul\":12143:12170   */\n      tag_344\n      jump\t// in\n    tag_529:\n        /* \"#utility.yul\":12135:12141   */\n      dup2\n        /* \"#utility.yul\":12131:12171   */\n      add\n        /* \"#utility.yul\":12273:12279   */\n      dup2\n        /* \"#utility.yul\":12261:12271   */\n      dup2\n        /* \"#utility.yul\":12258:12280   */\n      lt\n        /* \"#utility.yul\":12237:12255   */\n      0xffffffffffffffff\n        /* \"#utility.yul\":12225:12235   */\n      dup3\n        /* \"#utility.yul\":12222:12256   */\n      gt\n        /* \"#utility.yul\":12219:12281   */\n      or\n        /* \"#utility.yul\":12216:12304   */\n      iszero\n      tag_530\n      jumpi\n        /* \"#utility.yul\":12284:12302   */\n      tag_531\n      tag_252\n      jump\t// in\n    tag_531:\n        /* \"#utility.yul\":12216:12304   */\n    tag_530:\n        /* \"#utility.yul\":12324:12334   */\n      dup1\n        /* \"#utility.yul\":12320:12322   */\n      0x40\n        /* \"#utility.yul\":12313:12335   */\n      mstore\n        /* \"#utility.yul\":12103:12341   */\n      pop\n        /* \"#utility.yul\":12060:12341   */\n      pop\n      pop\n      jump\t// out\n        /* \"#utility.yul\":12347:12476   */\n    tag_367:\n        /* \"#utility.yul\":12381:12387   */\n      0x00\n        /* \"#utility.yul\":12408:12428   */\n      tag_533\n      tag_326\n      jump\t// in\n    tag_533:\n        /* \"#utility.yul\":12398:12428   */\n      swap1\n      pop\n        /* \"#utility.yul\":12437:12470   */\n      tag_534\n        /* \"#utility.yul\":12465:12469   */\n      dup3\n        /* \"#utility.yul\":12457:12463   */\n      dup3\n        /* \"#utility.yul\":12437:12470   */\n      tag_366\n      jump\t// in\n    tag_534:\n        /* \"#utility.yul\":12347:12476   */\n      swap2\n      swap1\n      pop\n      jump\t// out\n        /* \"#utility.yul\":12482:12741   */\n    tag_368:\n        /* \"#utility.yul\":12567:12571   */\n      0x00\n        /* \"#utility.yul\":12657:12675   */\n      0xffffffffffffffff\n        /* \"#utility.yul\":12649:12655   */\n      dup3\n        /* \"#utility.yul\":12646:12676   */\n      gt\n        /* \"#utility.yul\":12643:12699   */\n      iszero\n      tag_536\n      jumpi\n        /* \"#utility.yul\":12679:12697   */\n      tag_537\n      tag_252\n      jump\t// in\n    tag_537:\n        /* \"#utility.yul\":12643:12699   */\n    tag_536:\n        /* \"#utility.yul\":12729:12733   */\n      0x20\n        /* \"#utility.yul\":12721:12727   */\n      dup3\n        /* \"#utility.yul\":12717:12734   */\n      mul\n        /* \"#utility.yul\":12709:12734   */\n      swap1\n      pop\n        /* \"#utility.yul\":12482:12741   */\n      swap2\n      swap1\n      pop\n      jump\t// out\n        /* \"#utility.yul\":12747:12864   */\n    tag_369:\n        /* \"#utility.yul\":12856:12857   */\n      0x00\n        /* \"#utility.yul\":12853:12854   */\n      dup1\n        /* \"#utility.yul\":12846:12858   */\n      revert\n        /* \"#utility.yul\":12870:12987   */\n    tag_370:\n        /* \"#utility.yul\":12979:12980   */\n      0x00\n        /* \"#utility.yul\":12976:12977   */\n      dup1\n        /* \"#utility.yul\":12969:12981   */\n      revert\n        /* \"#utility.yul\":12993:13301   */\n    tag_371:\n        /* \"#utility.yul\":13055:13059   */\n      0x00\n        /* \"#utility.yul\":13145:13163   */\n      0xffffffffffffffff\n        /* \"#utility.yul\":13137:13143   */\n      dup3\n        /* \"#utility.yul\":13134:13164   */\n      gt\n        /* \"#utility.yul\":13131:13187   */\n      iszero\n      tag_541\n      jumpi\n        /* \"#utility.yul\":13167:13185   */\n      tag_542\n      tag_252\n      jump\t// in\n    tag_542:\n        /* \"#utility.yul\":13131:13187   */\n    tag_541:\n        /* \"#utility.yul\":13205:13234   */\n      tag_543\n        /* \"#utility.yul\":13227:13233   */\n      dup3\n        /* \"#utility.yul\":13205:13234   */\n      tag_344\n      jump\t// in\n    tag_543:\n        /* \"#utility.yul\":13197:13234   */\n      swap1\n      pop\n        /* \"#utility.yul\":13289:13293   */\n      0x20\n        /* \"#utility.yul\":13283:13287   */\n      dup2\n        /* \"#utility.yul\":13279:13294   */\n      add\n        /* \"#utility.yul\":13271:13294   */\n      swap1\n      pop\n        /* \"#utility.yul\":12993:13301   */\n      swap2\n      swap1\n      pop\n      jump\t// out\n        /* \"#utility.yul\":13307:13461   */\n    tag_372:\n        /* \"#utility.yul\":13391:13397   */\n      dup3\n        /* \"#utility.yul\":13386:13389   */\n      dup2\n        /* \"#utility.yul\":13381:13384   */\n      dup4\n        /* \"#utility.yul\":13368:13398   */\n      calldatacopy\n        /* \"#utility.yul\":13453:13454   */\n      0x00\n        /* \"#utility.yul\":13444:13450   */\n      dup4\n        /* \"#utility.yul\":13439:13442   */\n      dup4\n        /* \"#utility.yul\":13435:13451   */\n      add\n        /* \"#utility.yul\":13428:13455   */\n      mstore\n        /* \"#utility.yul\":13307:13461   */\n      pop\n      pop\n      pop\n      jump\t// out\n        /* \"#utility.yul\":13467:13879   */\n    tag_373:\n        /* \"#utility.yul\":13545:13550   */\n      0x00\n        /* \"#utility.yul\":13570:13636   */\n      tag_546\n        /* \"#utility.yul\":13586:13635   */\n      tag_547\n        /* \"#utility.yul\":13628:13634   */\n      dup5\n        /* \"#utility.yul\":13586:13635   */\n      tag_371\n      jump\t// in\n    tag_547:\n        /* \"#utility.yul\":13570:13636   */\n      tag_367\n      jump\t// in\n    tag_546:\n        /* \"#utility.yul\":13561:13636   */\n      swap1\n      pop\n        /* \"#utility.yul\":13659:13665   */\n      dup3\n        /* \"#utility.yul\":13652:13657   */\n      dup2\n        /* \"#utility.yul\":13645:13666   */\n      mstore\n        /* \"#utility.yul\":13697:13701   */\n      0x20\n        /* \"#utility.yul\":13690:13695   */\n      dup2\n        /* \"#utility.yul\":13686:13702   */\n      add\n        /* \"#utility.yul\":13735:13738   */\n      dup5\n        /* \"#utility.yul\":13726:13732   */\n      dup5\n        /* \"#utility.yul\":13721:13724   */\n      dup5\n        /* \"#utility.yul\":13717:13733   */\n      add\n        /* \"#utility.yul\":13714:13739   */\n      gt\n        /* \"#utility.yul\":13711:13823   */\n      iszero\n      tag_548\n      jumpi\n        /* \"#utility.yul\":13742:13821   */\n      tag_549\n      tag_370\n      jump\t// in\n    tag_549:\n        /* \"#utility.yul\":13711:13823   */\n    tag_548:\n        /* \"#utility.yul\":13832:13873   */\n      tag_550\n        /* \"#utility.yul\":13866:13872   */\n      dup5\n        /* \"#utility.yul\":13861:13864   */\n      dup3\n        /* \"#utility.yul\":13856:13859   */\n      dup6\n        /* \"#utility.yul\":13832:13873   */\n      tag_372\n      jump\t// in\n    tag_550:\n        /* \"#utility.yul\":13551:13879   */\n      pop\n        /* \"#utility.yul\":13467:13879   */\n      swap4\n      swap3\n      pop\n      pop\n      pop\n      jump\t// out\n        /* \"#utility.yul\":13899:14239   */\n    tag_374:\n        /* \"#utility.yul\":13955:13960   */\n      0x00\n        /* \"#utility.yul\":14004:14007   */\n      dup3\n        /* \"#utility.yul\":13997:14001   */\n      0x1f\n        /* \"#utility.yul\":13989:13995   */\n      dup4\n        /* \"#utility.yul\":13985:14002   */\n      add\n        /* \"#utility.yul\":13981:14008   */\n      slt\n        /* \"#utility.yul\":13971:14093   */\n      tag_552\n      jumpi\n        /* \"#utility.yul\":14012:14091   */\n      tag_553\n      tag_365\n      jump\t// in\n    tag_553:\n        /* \"#utility.yul\":13971:14093   */\n    tag_552:\n        /* \"#utility.yul\":14129:14135   */\n      dup2\n        /* \"#utility.yul\":14116:14136   */\n      calldataload\n        /* \"#utility.yul\":14154:14233   */\n      tag_554\n        /* \"#utility.yul\":14229:14232   */\n      dup5\n        /* \"#utility.yul\":14221:14227   */\n      dup3\n        /* \"#utility.yul\":14214:14218   */\n      0x20\n        /* \"#utility.yul\":14206:14212   */\n      dup7\n        /* \"#utility.yul\":14202:14219   */\n      add\n        /* \"#utility.yul\":14154:14233   */\n      tag_373\n      jump\t// in\n    tag_554:\n        /* \"#utility.yul\":14145:14233   */\n      swap2\n      pop\n        /* \"#utility.yul\":13961:14239   */\n      pop\n        /* \"#utility.yul\":13899:14239   */\n      swap3\n      swap2\n      pop\n      pop\n      jump\t// out\n        /* \"#utility.yul\":14262:15140   */\n    tag_375:\n        /* \"#utility.yul\":14366:14371   */\n      0x00\n        /* \"#utility.yul\":14391:14480   */\n      tag_556\n        /* \"#utility.yul\":14407:14479   */\n      tag_557\n        /* \"#utility.yul\":14472:14478   */\n      dup5\n        /* \"#utility.yul\":14407:14479   */\n      tag_368\n      jump\t// in\n    tag_557:\n        /* \"#utility.yul\":14391:14480   */\n      tag_367\n      jump\t// in\n    tag_556:\n        /* \"#utility.yul\":14382:14480   */\n      swap1\n      pop\n        /* \"#utility.yul\":14500:14505   */\n      dup1\n        /* \"#utility.yul\":14553:14557   */\n      0x20\n        /* \"#utility.yul\":14545:14551   */\n      dup5\n        /* \"#utility.yul\":14541:14558   */\n      mul\n        /* \"#utility.yul\":14533:14539   */\n      dup4\n        /* \"#utility.yul\":14529:14559   */\n      add\n        /* \"#utility.yul\":14582:14585   */\n      dup6\n        /* \"#utility.yul\":14574:14580   */\n      dup2\n        /* \"#utility.yul\":14571:14586   */\n      gt\n        /* \"#utility.yul\":14568:14690   */\n      iszero\n      tag_558\n      jumpi\n        /* \"#utility.yul\":14601:14680   */\n      tag_559\n      tag_369\n      jump\t// in\n    tag_559:\n        /* \"#utility.yul\":14568:14690   */\n    tag_558:\n        /* \"#utility.yul\":14716:14722   */\n      dup4\n        /* \"#utility.yul\":14699:15134   */\n    tag_560:\n        /* \"#utility.yul\":14733:14739   */\n      dup2\n        /* \"#utility.yul\":14728:14731   */\n      dup2\n        /* \"#utility.yul\":14725:14740   */\n      lt\n        /* \"#utility.yul\":14699:15134   */\n      iszero\n      tag_562\n      jumpi\n        /* \"#utility.yul\":14822:14825   */\n      dup1\n        /* \"#utility.yul\":14809:14826   */\n      calldataload\n        /* \"#utility.yul\":14858:14876   */\n      0xffffffffffffffff\n        /* \"#utility.yul\":14845:14856   */\n      dup2\n        /* \"#utility.yul\":14842:14877   */\n      gt\n        /* \"#utility.yul\":14839:14961   */\n      iszero\n      tag_563\n      jumpi\n        /* \"#utility.yul\":14880:14959   */\n      tag_564\n      tag_365\n      jump\t// in\n    tag_564:\n        /* \"#utility.yul\":14839:14961   */\n    tag_563:\n        /* \"#utility.yul\":15004:15015   */\n      dup1\n        /* \"#utility.yul\":14996:15002   */\n      dup7\n        /* \"#utility.yul\":14992:15016   */\n      add\n        /* \"#utility.yul\":15042:15089   */\n      tag_565\n        /* \"#utility.yul\":15085:15088   */\n      dup10\n        /* \"#utility.yul\":15073:15083   */\n      dup3\n        /* \"#utility.yul\":15042:15089   */\n      tag_374\n      jump\t// in\n    tag_565:\n        /* \"#utility.yul\":15037:15040   */\n      dup6\n        /* \"#utility.yul\":15030:15090   */\n      mstore\n        /* \"#utility.yul\":15119:15123   */\n      0x20\n        /* \"#utility.yul\":15114:15117   */\n      dup6\n        /* \"#utility.yul\":15110:15124   */\n      add\n        /* \"#utility.yul\":15103:15124   */\n      swap5\n      pop\n        /* \"#utility.yul\":14775:15134   */\n      pop\n      pop\n        /* \"#utility.yul\":14759:14763   */\n      0x20\n        /* \"#utility.yul\":14754:14757   */\n      dup2\n        /* \"#utility.yul\":14750:14764   */\n      add\n        /* \"#utility.yul\":14743:14764   */\n      swap1\n      pop\n        /* \"#utility.yul\":14699:15134   */\n      jump(tag_560)\n    tag_562:\n        /* \"#utility.yul\":14703:14724   */\n      pop\n        /* \"#utility.yul\":14372:15140   */\n      pop\n      pop\n        /* \"#utility.yul\":14262:15140   */\n      swap4\n      swap3\n      pop\n      pop\n      pop\n      jump\t// out\n        /* \"#utility.yul\":15163:15522   */\n    tag_376:\n        /* \"#utility.yul\":15242:15247   */\n      0x00\n        /* \"#utility.yul\":15291:15294   */\n      dup3\n        /* \"#utility.yul\":15284:15288   */\n      0x1f\n        /* \"#utility.yul\":15276:15282   */\n      dup4\n        /* \"#utility.yul\":15272:15289   */\n      add\n        /* \"#utility.yul\":15268:15295   */\n      slt\n        /* \"#utility.yul\":15258:15380   */\n      tag_567\n      jumpi\n        /* \"#utility.yul\":15299:15378   */\n      tag_568\n      tag_365\n      jump\t// in\n    tag_568:\n        /* \"#utility.yul\":15258:15380   */\n    tag_567:\n        /* \"#utility.yul\":15403:15407   */\n      0x02\n        /* \"#utility.yul\":15425:15516   */\n      tag_569\n        /* \"#utility.yul\":15512:15515   */\n      dup5\n        /* \"#utility.yul\":15504:15510   */\n      dup3\n        /* \"#utility.yul\":15496:15502   */\n      dup6\n        /* \"#utility.yul\":15425:15516   */\n      tag_375\n      jump\t// in\n    tag_569:\n        /* \"#utility.yul\":15416:15516   */\n      swap2\n      pop\n        /* \"#utility.yul\":15248:15522   */\n      pop\n        /* \"#utility.yul\":15163:15522   */\n      swap3\n      swap2\n      pop\n      pop\n      jump\t// out\n        /* \"#utility.yul\":15528:16228   */\n    tag_37:\n        /* \"#utility.yul\":15629:15635   */\n      0x00\n        /* \"#utility.yul\":15637:15643   */\n      dup1\n        /* \"#utility.yul\":15686:15688   */\n      0x40\n        /* \"#utility.yul\":15674:15683   */\n      dup4\n        /* \"#utility.yul\":15665:15672   */\n      dup6\n        /* \"#utility.yul\":15661:15684   */\n      sub\n        /* \"#utility.yul\":15657:15689   */\n      slt\n        /* \"#utility.yul\":15654:15773   */\n      iszero\n      tag_571\n      jumpi\n        /* \"#utility.yul\":15692:15771   */\n      tag_572\n      tag_327\n      jump\t// in\n    tag_572:\n        /* \"#utility.yul\":15654:15773   */\n    tag_571:\n        /* \"#utility.yul\":15812:15813   */\n      0x00\n        /* \"#utility.yul\":15837:15890   */\n      tag_573\n        /* \"#utility.yul\":15882:15889   */\n      dup6\n        /* \"#utility.yul\":15873:15879   */\n      dup3\n        /* \"#utility.yul\":15862:15871   */\n      dup7\n        /* \"#utility.yul\":15858:15880   */\n      add\n        /* \"#utility.yul\":15837:15890   */\n      tag_337\n      jump\t// in\n    tag_573:\n        /* \"#utility.yul\":15827:15890   */\n      swap3\n      pop\n        /* \"#utility.yul\":15783:15900   */\n      pop\n        /* \"#utility.yul\":15967:15969   */\n      0x20\n        /* \"#utility.yul\":15956:15965   */\n      dup4\n        /* \"#utility.yul\":15952:15970   */\n      add\n        /* \"#utility.yul\":15939:15971   */\n      calldataload\n        /* \"#utility.yul\":15998:16016   */\n      0xffffffffffffffff\n        /* \"#utility.yul\":15990:15996   */\n      dup2\n        /* \"#utility.yul\":15987:16017   */\n      gt\n        /* \"#utility.yul\":15984:16101   */\n      iszero\n      tag_574\n      jumpi\n        /* \"#utility.yul\":16020:16099   */\n      tag_575\n      tag_328\n      jump\t// in\n    tag_575:\n        /* \"#utility.yul\":15984:16101   */\n    tag_574:\n        /* \"#utility.yul\":16125:16211   */\n      tag_576\n        /* \"#utility.yul\":16203:16210   */\n      dup6\n        /* \"#utility.yul\":16194:16200   */\n      dup3\n        /* \"#utility.yul\":16183:16192   */\n      dup7\n        /* \"#utility.yul\":16179:16201   */\n      add\n        /* \"#utility.yul\":16125:16211   */\n      tag_376\n      jump\t// in\n    tag_576:\n        /* \"#utility.yul\":16115:16211   */\n      swap2\n      pop\n        /* \"#utility.yul\":15910:16221   */\n      pop\n        /* \"#utility.yul\":15528:16228   */\n      swap3\n      pop\n      swap3\n      swap1\n      pop\n      jump\t// out\n        /* \"#utility.yul\":16234:16311   */\n    tag_377:\n        /* \"#utility.yul\":16271:16278   */\n      0x00\n        /* \"#utility.yul\":16300:16305   */\n      dup2\n        /* \"#utility.yul\":16289:16305   */\n      swap1\n      pop\n        /* \"#utility.yul\":16234:16311   */\n      swap2\n      swap1\n      pop\n      jump\t// out\n        /* \"#utility.yul\":16317:16439   */\n    tag_378:\n        /* \"#utility.yul\":16390:16414   */\n      tag_579\n        /* \"#utility.yul\":16408:16413   */\n      dup2\n        /* \"#utility.yul\":16390:16414   */\n      tag_377\n      jump\t// in\n    tag_579:\n        /* \"#utility.yul\":16383:16388   */\n      dup2\n        /* \"#utility.yul\":16380:16415   */\n      eq\n        /* \"#utility.yul\":16370:16433   */\n      tag_580\n      jumpi\n        /* \"#utility.yul\":16429:16430   */\n      0x00\n        /* \"#utility.yul\":16426:16427   */\n      dup1\n        /* \"#utility.yul\":16419:16431   */\n      revert\n        /* \"#utility.yul\":16370:16433   */\n    tag_580:\n        /* \"#utility.yul\":16317:16439   */\n      pop\n      jump\t// out\n        /* \"#utility.yul\":16445:16584   */\n    tag_379:\n        /* \"#utility.yul\":16491:16496   */\n      0x00\n        /* \"#utility.yul\":16529:16535   */\n      dup2\n        /* \"#utility.yul\":16516:16536   */\n      calldataload\n        /* \"#utility.yul\":16507:16536   */\n      swap1\n      pop\n        /* \"#utility.yul\":16545:16578   */\n      tag_582\n        /* \"#utility.yul\":16572:16577   */\n      dup2\n        /* \"#utility.yul\":16545:16578   */\n      tag_378\n      jump\t// in\n    tag_582:\n        /* \"#utility.yul\":16445:16584   */\n      swap3\n      swap2\n      pop\n      pop\n      jump\t// out\n        /* \"#utility.yul\":16590:16919   */\n    tag_41:\n        /* \"#utility.yul\":16649:16655   */\n      0x00\n        /* \"#utility.yul\":16698:16700   */\n      0x20\n        /* \"#utility.yul\":16686:16695   */\n      dup3\n        /* \"#utility.yul\":16677:16684   */\n      dup5\n        /* \"#utility.yul\":16673:16696   */\n      sub\n        /* \"#utility.yul\":16669:16701   */\n      slt\n        /* \"#utility.yul\":16666:16785   */\n      iszero\n      tag_584\n      jumpi\n        /* \"#utility.yul\":16704:16783   */\n      tag_585\n      tag_327\n      jump\t// in\n    tag_585:\n        /* \"#utility.yul\":16666:16785   */\n    tag_584:\n        /* \"#utility.yul\":16824:16825   */\n      0x00\n        /* \"#utility.yul\":16849:16902   */\n      tag_586\n        /* \"#utility.yul\":16894:16901   */\n      dup5\n        /* \"#utility.yul\":16885:16891   */\n      dup3\n        /* \"#utility.yul\":16874:16883   */\n      dup6\n        /* \"#utility.yul\":16870:16892   */\n      add\n        /* \"#utility.yul\":16849:16902   */\n      tag_379\n      jump\t// in\n    tag_586:\n        /* \"#utility.yul\":16839:16902   */\n      swap2\n      pop\n        /* \"#utility.yul\":16795:16912   */\n      pop\n        /* \"#utility.yul\":16590:16919   */\n      swap3\n      swap2\n      pop\n      pop\n      jump\t// out\n        /* \"#utility.yul\":16925:17043   */\n    tag_380:\n        /* \"#utility.yul\":17012:17036   */\n      tag_588\n        /* \"#utility.yul\":17030:17035   */\n      dup2\n        /* \"#utility.yul\":17012:17036   */\n      tag_377\n      jump\t// in\n    tag_588:\n        /* \"#utility.yul\":17007:17010   */\n      dup3\n        /* \"#utility.yul\":17000:17037   */\n      mstore\n        /* \"#utility.yul\":16925:17043   */\n      pop\n      pop\n      jump\t// out\n        /* \"#utility.yul\":17049:17271   */\n    tag_44:\n        /* \"#utility.yul\":17142:17146   */\n      0x00\n        /* \"#utility.yul\":17180:17182   */\n      0x20\n        /* \"#utility.yul\":17169:17178   */\n      dup3\n        /* \"#utility.yul\":17165:17183   */\n      add\n        /* \"#utility.yul\":17157:17183   */\n      swap1\n      pop\n        /* \"#utility.yul\":17193:17264   */\n      tag_590\n        /* \"#utility.yul\":17261:17262   */\n      0x00\n        /* \"#utility.yul\":17250:17259   */\n      dup4\n        /* \"#utility.yul\":17246:17263   */\n      add\n        /* \"#utility.yul\":17237:17243   */\n      dup5\n        /* \"#utility.yul\":17193:17264   */\n      tag_380\n      jump\t// in\n    tag_590:\n        /* \"#utility.yul\":17049:17271   */\n      swap3\n      swap2\n      pop\n      pop\n      jump\t// out\n        /* \"#utility.yul\":17277:17751   */\n    tag_47:\n        /* \"#utility.yul\":17345:17351   */\n      0x00\n        /* \"#utility.yul\":17353:17359   */\n      dup1\n        /* \"#utility.yul\":17402:17404   */\n      0x40\n        /* \"#utility.yul\":17390:17399   */\n      dup4\n        /* \"#utility.yul\":17381:17388   */\n      dup6\n        /* \"#utility.yul\":17377:17400   */\n      sub\n        /* \"#utility.yul\":17373:17405   */\n      slt\n        /* \"#utility.yul\":17370:17489   */\n      iszero\n      tag_592\n      jumpi\n        /* \"#utility.yul\":17408:17487   */\n      tag_593\n      tag_327\n      jump\t// in\n    tag_593:\n        /* \"#utility.yul\":17370:17489   */\n    tag_592:\n        /* \"#utility.yul\":17528:17529   */\n      0x00\n        /* \"#utility.yul\":17553:17606   */\n      tag_594\n        /* \"#utility.yul\":17598:17605   */\n      dup6\n        /* \"#utility.yul\":17589:17595   */\n      dup3\n        /* \"#utility.yul\":17578:17587   */\n      dup7\n        /* \"#utility.yul\":17574:17596   */\n      add\n        /* \"#utility.yul\":17553:17606   */\n      tag_379\n      jump\t// in\n    tag_594:\n        /* \"#utility.yul\":17543:17606   */\n      swap3\n      pop\n        /* \"#utility.yul\":17499:17616   */\n      pop\n        /* \"#utility.yul\":17655:17657   */\n      0x20\n        /* \"#utility.yul\":17681:17734   */\n      tag_595\n        /* \"#utility.yul\":17726:17733   */\n      dup6\n        /* \"#utility.yul\":17717:17723   */\n      dup3\n        /* \"#utility.yul\":17706:17715   */\n      dup7\n        /* \"#utility.yul\":17702:17724   */\n      add\n        /* \"#utility.yul\":17681:17734   */\n      tag_337\n      jump\t// in\n    tag_595:\n        /* \"#utility.yul\":17671:17734   */\n      swap2\n      pop\n        /* \"#utility.yul\":17626:17744   */\n      pop\n        /* \"#utility.yul\":17277:17751   */\n      swap3\n      pop\n      swap3\n      swap1\n      pop\n      jump\t// out\n        /* \"#utility.yul\":17757:18016   */\n    tag_381:\n        /* \"#utility.yul\":17842:17846   */\n      0x00\n        /* \"#utility.yul\":17932:17950   */\n      0xffffffffffffffff\n        /* \"#utility.yul\":17924:17930   */\n      dup3\n        /* \"#utility.yul\":17921:17951   */\n      gt\n        /* \"#utility.yul\":17918:17974   */\n      iszero\n      tag_597\n      jumpi\n        /* \"#utility.yul\":17954:17972   */\n      tag_598\n      tag_252\n      jump\t// in\n    tag_598:\n        /* \"#utility.yul\":17918:17974   */\n    tag_597:\n        /* \"#utility.yul\":18004:18008   */\n      0x20\n        /* \"#utility.yul\":17996:18002   */\n      dup3\n        /* \"#utility.yul\":17992:18009   */\n      mul\n        /* \"#utility.yul\":17984:18009   */\n      swap1\n      pop\n        /* \"#utility.yul\":17757:18016   */\n      swap2\n      swap1\n      pop\n      jump\t// out\n        /* \"#utility.yul\":18039:18917   */\n    tag_382:\n        /* \"#utility.yul\":18143:18148   */\n      0x00\n        /* \"#utility.yul\":18168:18257   */\n      tag_600\n        /* \"#utility.yul\":18184:18256   */\n      tag_601\n        /* \"#utility.yul\":18249:18255   */\n      dup5\n        /* \"#utility.yul\":18184:18256   */\n      tag_381\n      jump\t// in\n    tag_601:\n        /* \"#utility.yul\":18168:18257   */\n      tag_367\n      jump\t// in\n    tag_600:\n        /* \"#utility.yul\":18159:18257   */\n      swap1\n      pop\n        /* \"#utility.yul\":18277:18282   */\n      dup1\n        /* \"#utility.yul\":18330:18334   */\n      0x20\n        /* \"#utility.yul\":18322:18328   */\n      dup5\n        /* \"#utility.yul\":18318:18335   */\n      mul\n        /* \"#utility.yul\":18310:18316   */\n      dup4\n        /* \"#utility.yul\":18306:18336   */\n      add\n        /* \"#utility.yul\":18359:18362   */\n      dup6\n        /* \"#utility.yul\":18351:18357   */\n      dup2\n        /* \"#utility.yul\":18348:18363   */\n      gt\n        /* \"#utility.yul\":18345:18467   */\n      iszero\n      tag_602\n      jumpi\n        /* \"#utility.yul\":18378:18457   */\n      tag_603\n      tag_369\n      jump\t// in\n    tag_603:\n        /* \"#utility.yul\":18345:18467   */\n    tag_602:\n        /* \"#utility.yul\":18493:18499   */\n      dup4\n        /* \"#utility.yul\":18476:18911   */\n    tag_604:\n        /* \"#utility.yul\":18510:18516   */\n      dup2\n        /* \"#utility.yul\":18505:18508   */\n      dup2\n        /* \"#utility.yul\":18502:18517   */\n      lt\n        /* \"#utility.yul\":18476:18911   */\n      iszero\n      tag_606\n      jumpi\n        /* \"#utility.yul\":18599:18602   */\n      dup1\n        /* \"#utility.yul\":18586:18603   */\n      calldataload\n        /* \"#utility.yul\":18635:18653   */\n      0xffffffffffffffff\n        /* \"#utility.yul\":18622:18633   */\n      dup2\n        /* \"#utility.yul\":18619:18654   */\n      gt\n        /* \"#utility.yul\":18616:18738   */\n      iszero\n      tag_607\n      jumpi\n        /* \"#utility.yul\":18657:18736   */\n      tag_608\n      tag_365\n      jump\t// in\n    tag_608:\n        /* \"#utility.yul\":18616:18738   */\n    tag_607:\n        /* \"#utility.yul\":18781:18792   */\n      dup1\n        /* \"#utility.yul\":18773:18779   */\n      dup7\n        /* \"#utility.yul\":18769:18793   */\n      add\n        /* \"#utility.yul\":18819:18866   */\n      tag_609\n        /* \"#utility.yul\":18862:18865   */\n      dup10\n        /* \"#utility.yul\":18850:18860   */\n      dup3\n        /* \"#utility.yul\":18819:18866   */\n      tag_374\n      jump\t// in\n    tag_609:\n        /* \"#utility.yul\":18814:18817   */\n      dup6\n        /* \"#utility.yul\":18807:18867   */\n      mstore\n        /* \"#utility.yul\":18896:18900   */\n      0x20\n        /* \"#utility.yul\":18891:18894   */\n      dup6\n        /* \"#utility.yul\":18887:18901   */\n      add\n        /* \"#utility.yul\":18880:18901   */\n      swap5\n      pop\n        /* \"#utility.yul\":18552:18911   */\n      pop\n      pop\n        /* \"#utility.yul\":18536:18540   */\n      0x20\n        /* \"#utility.yul\":18531:18534   */\n      dup2\n        /* \"#utility.yul\":18527:18541   */\n      add\n        /* \"#utility.yul\":18520:18541   */\n      swap1\n      pop\n        /* \"#utility.yul\":18476:18911   */\n      jump(tag_604)\n    tag_606:\n        /* \"#utility.yul\":18480:18501   */\n      pop\n        /* \"#utility.yul\":18149:18917   */\n      pop\n      pop\n        /* \"#utility.yul\":18039:18917   */\n      swap4\n      swap3\n      pop\n      pop\n      pop\n      jump\t// out\n        /* \"#utility.yul\":18940:19299   */\n    tag_383:\n        /* \"#utility.yul\":19019:19024   */\n      0x00\n        /* \"#utility.yul\":19068:19071   */\n      dup3\n        /* \"#utility.yul\":19061:19065   */\n      0x1f\n        /* \"#utility.yul\":19053:19059   */\n      dup4\n        /* \"#utility.yul\":19049:19066   */\n      add\n        /* \"#utility.yul\":19045:19072   */\n      slt\n        /* \"#utility.yul\":19035:19157   */\n      tag_611\n      jumpi\n        /* \"#utility.yul\":19076:19155   */\n      tag_612\n      tag_365\n      jump\t// in\n    tag_612:\n        /* \"#utility.yul\":19035:19157   */\n    tag_611:\n        /* \"#utility.yul\":19180:19184   */\n      0x06\n        /* \"#utility.yul\":19202:19293   */\n      tag_613\n        /* \"#utility.yul\":19289:19292   */\n      dup5\n        /* \"#utility.yul\":19281:19287   */\n      dup3\n        /* \"#utility.yul\":19273:19279   */\n      dup6\n        /* \"#utility.yul\":19202:19293   */\n      tag_382\n      jump\t// in\n    tag_613:\n        /* \"#utility.yul\":19193:19293   */\n      swap2\n      pop\n        /* \"#utility.yul\":19025:19299   */\n      pop\n        /* \"#utility.yul\":18940:19299   */\n      swap3\n      swap2\n      pop\n      pop\n      jump\t// out\n        /* \"#utility.yul\":19305:20005   */\n    tag_57:\n        /* \"#utility.yul\":19406:19412   */\n      0x00\n        /* \"#utility.yul\":19414:19420   */\n      dup1\n        /* \"#utility.yul\":19463:19465   */\n      0x40\n        /* \"#utility.yul\":19451:19460   */\n      dup4\n        /* \"#utility.yul\":19442:19449   */\n      dup6\n        /* \"#utility.yul\":19438:19461   */\n      sub\n        /* \"#utility.yul\":19434:19466   */\n      slt\n        /* \"#utility.yul\":19431:19550   */\n      iszero\n      tag_615\n      jumpi\n        /* \"#utility.yul\":19469:19548   */\n      tag_616\n      tag_327\n      jump\t// in\n    tag_616:\n        /* \"#utility.yul\":19431:19550   */\n    tag_615:\n        /* \"#utility.yul\":19589:19590   */\n      0x00\n        /* \"#utility.yul\":19614:19667   */\n      tag_617\n        /* \"#utility.yul\":19659:19666   */\n      dup6\n        /* \"#utility.yul\":19650:19656   */\n      dup3\n        /* \"#utility.yul\":19639:19648   */\n      dup7\n        /* \"#utility.yul\":19635:19657   */\n      add\n        /* \"#utility.yul\":19614:19667   */\n      tag_337\n      jump\t// in\n    tag_617:\n        /* \"#utility.yul\":19604:19667   */\n      swap3\n      pop\n        /* \"#utility.yul\":19560:19677   */\n      pop\n        /* \"#utility.yul\":19744:19746   */\n      0x20\n        /* \"#utility.yul\":19733:19742   */\n      dup4\n        /* \"#utility.yul\":19729:19747   */\n      add\n        /* \"#utility.yul\":19716:19748   */\n      calldataload\n        /* \"#utility.yul\":19775:19793   */\n      0xffffffffffffffff\n        /* \"#utility.yul\":19767:19773   */\n      dup2\n        /* \"#utility.yul\":19764:19794   */\n      gt\n        /* \"#utility.yul\":19761:19878   */\n      iszero\n      tag_618\n      jumpi\n        /* \"#utility.yul\":19797:19876   */\n      tag_619\n      tag_328\n      jump\t// in\n    tag_619:\n        /* \"#utility.yul\":19761:19878   */\n    tag_618:\n        /* \"#utility.yul\":19902:19988   */\n      tag_620\n        /* \"#utility.yul\":19980:19987   */\n      dup6\n        /* \"#utility.yul\":19971:19977   */\n      dup3\n        /* \"#utility.yul\":19960:19969   */\n      dup7\n        /* \"#utility.yul\":19956:19978   */\n      add\n        /* \"#utility.yul\":19902:19988   */\n      tag_383\n      jump\t// in\n    tag_620:\n        /* \"#utility.yul\":19892:19988   */\n      swap2\n      pop\n        /* \"#utility.yul\":19687:19998   */\n      pop\n        /* \"#utility.yul\":19305:20005   */\n      swap3\n      pop\n      swap3\n      swap1\n      pop\n      jump\t// out\n        /* \"#utility.yul\":20011:20270   */\n    tag_384:\n        /* \"#utility.yul\":20096:20100   */\n      0x00\n        /* \"#utility.yul\":20186:20204   */\n      0xffffffffffffffff\n        /* \"#utility.yul\":20178:20184   */\n      dup3\n        /* \"#utility.yul\":20175:20205   */\n      gt\n        /* \"#utility.yul\":20172:20228   */\n      iszero\n      tag_622\n      jumpi\n        /* \"#utility.yul\":20208:20226   */\n      tag_623\n      tag_252\n      jump\t// in\n    tag_623:\n        /* \"#utility.yul\":20172:20228   */\n    tag_622:\n        /* \"#utility.yul\":20258:20262   */\n      0x20\n        /* \"#utility.yul\":20250:20256   */\n      dup3\n        /* \"#utility.yul\":20246:20263   */\n      mul\n        /* \"#utility.yul\":20238:20263   */\n      swap1\n      pop\n        /* \"#utility.yul\":20011:20270   */\n      swap2\n      swap1\n      pop\n      jump\t// out\n        /* \"#utility.yul\":20293:21171   */\n    tag_385:\n        /* \"#utility.yul\":20397:20402   */\n      0x00\n        /* \"#utility.yul\":20422:20511   */\n      tag_625\n        /* \"#utility.yul\":20438:20510   */\n      tag_626\n        /* \"#utility.yul\":20503:20509   */\n      dup5\n        /* \"#utility.yul\":20438:20510   */\n      tag_384\n      jump\t// in\n    tag_626:\n        /* \"#utility.yul\":20422:20511   */\n      tag_367\n      jump\t// in\n    tag_625:\n        /* \"#utility.yul\":20413:20511   */\n      swap1\n      pop\n        /* \"#utility.yul\":20531:20536   */\n      dup1\n        /* \"#utility.yul\":20584:20588   */\n      0x20\n        /* \"#utility.yul\":20576:20582   */\n      dup5\n        /* \"#utility.yul\":20572:20589   */\n      mul\n        /* \"#utility.yul\":20564:20570   */\n      dup4\n        /* \"#utility.yul\":20560:20590   */\n      add\n        /* \"#utility.yul\":20613:20616   */\n      dup6\n        /* \"#utility.yul\":20605:20611   */\n      dup2\n        /* \"#utility.yul\":20602:20617   */\n      gt\n        /* \"#utility.yul\":20599:20721   */\n      iszero\n      tag_627\n      jumpi\n        /* \"#utility.yul\":20632:20711   */\n      tag_628\n      tag_369\n      jump\t// in\n    tag_628:\n        /* \"#utility.yul\":20599:20721   */\n    tag_627:\n        /* \"#utility.yul\":20747:20753   */\n      dup4\n        /* \"#utility.yul\":20730:21165   */\n    tag_629:\n        /* \"#utility.yul\":20764:20770   */\n      dup2\n        /* \"#utility.yul\":20759:20762   */\n      dup2\n        /* \"#utility.yul\":20756:20771   */\n      lt\n        /* \"#utility.yul\":20730:21165   */\n      iszero\n      tag_631\n      jumpi\n        /* \"#utility.yul\":20853:20856   */\n      dup1\n        /* \"#utility.yul\":20840:20857   */\n      calldataload\n        /* \"#utility.yul\":20889:20907   */\n      0xffffffffffffffff\n        /* \"#utility.yul\":20876:20887   */\n      dup2\n        /* \"#utility.yul\":20873:20908   */\n      gt\n        /* \"#utility.yul\":20870:20992   */\n      iszero\n      tag_632\n      jumpi\n        /* \"#utility.yul\":20911:20990   */\n      tag_633\n      tag_365\n      jump\t// in\n    tag_633:\n        /* \"#utility.yul\":20870:20992   */\n    tag_632:\n        /* \"#utility.yul\":21035:21046   */\n      dup1\n        /* \"#utility.yul\":21027:21033   */\n      dup7\n        /* \"#utility.yul\":21023:21047   */\n      add\n        /* \"#utility.yul\":21073:21120   */\n      tag_634\n        /* \"#utility.yul\":21116:21119   */\n      dup10\n        /* \"#utility.yul\":21104:21114   */\n      dup3\n        /* \"#utility.yul\":21073:21120   */\n      tag_374\n      jump\t// in\n    tag_634:\n        /* \"#utility.yul\":21068:21071   */\n      dup6\n        /* \"#utility.yul\":21061:21121   */\n      mstore\n        /* \"#utility.yul\":21150:21154   */\n      0x20\n        /* \"#utility.yul\":21145:21148   */\n      dup6\n        /* \"#utility.yul\":21141:21155   */\n      add\n        /* \"#utility.yul\":21134:21155   */\n      swap5\n      pop\n        /* \"#utility.yul\":20806:21165   */\n      pop\n      pop\n        /* \"#utility.yul\":20790:20794   */\n      0x20\n        /* \"#utility.yul\":20785:20788   */\n      dup2\n        /* \"#utility.yul\":20781:20795   */\n      add\n        /* \"#utility.yul\":20774:20795   */\n      swap1\n      pop\n        /* \"#utility.yul\":20730:21165   */\n      jump(tag_629)\n    tag_631:\n        /* \"#utility.yul\":20734:20755   */\n      pop\n        /* \"#utility.yul\":20403:21171   */\n      pop\n      pop\n        /* \"#utility.yul\":20293:21171   */\n      swap4\n      swap3\n      pop\n      pop\n      pop\n      jump\t// out\n        /* \"#utility.yul\":21194:21553   */\n    tag_386:\n        /* \"#utility.yul\":21273:21278   */\n      0x00\n        /* \"#utility.yul\":21322:21325   */\n      dup3\n        /* \"#utility.yul\":21315:21319   */\n      0x1f\n        /* \"#utility.yul\":21307:21313   */\n      dup4\n        /* \"#utility.yul\":21303:21320   */\n      add\n        /* \"#utility.yul\":21299:21326   */\n      slt\n        /* \"#utility.yul\":21289:21411   */\n      tag_636\n      jumpi\n        /* \"#utility.yul\":21330:21409   */\n      tag_637\n      tag_365\n      jump\t// in\n    tag_637:\n        /* \"#utility.yul\":21289:21411   */\n    tag_636:\n        /* \"#utility.yul\":21434:21438   */\n      0x07\n        /* \"#utility.yul\":21456:21547   */\n      tag_638\n        /* \"#utility.yul\":21543:21546   */\n      dup5\n        /* \"#utility.yul\":21535:21541   */\n      dup3\n        /* \"#utility.yul\":21527:21533   */\n      dup6\n        /* \"#utility.yul\":21456:21547   */\n      tag_385\n      jump\t// in\n    tag_638:\n        /* \"#utility.yul\":21447:21547   */\n      swap2\n      pop\n        /* \"#utility.yul\":21279:21553   */\n      pop\n        /* \"#utility.yul\":21194:21553   */\n      swap3\n      swap2\n      pop\n      pop\n      jump\t// out\n        /* \"#utility.yul\":21559:22259   */\n    tag_63:\n        /* \"#utility.yul\":21660:21666   */\n      0x00\n        /* \"#utility.yul\":21668:21674   */\n      dup1\n        /* \"#utility.yul\":21717:21719   */\n      0x40\n        /* \"#utility.yul\":21705:21714   */\n      dup4\n        /* \"#utility.yul\":21696:21703   */\n      dup6\n        /* \"#utility.yul\":21692:21715   */\n      sub\n        /* \"#utility.yul\":21688:21720   */\n      slt\n        /* \"#utility.yul\":21685:21804   */\n      iszero\n      tag_640\n      jumpi\n        /* \"#utility.yul\":21723:21802   */\n      tag_641\n      tag_327\n      jump\t// in\n    tag_641:\n        /* \"#utility.yul\":21685:21804   */\n    tag_640:\n        /* \"#utility.yul\":21843:21844   */\n      0x00\n        /* \"#utility.yul\":21868:21921   */\n      tag_642\n        /* \"#utility.yul\":21913:21920   */\n      dup6\n        /* \"#utility.yul\":21904:21910   */\n      dup3\n        /* \"#utility.yul\":21893:21902   */\n      dup7\n        /* \"#utility.yul\":21889:21911   */\n      add\n        /* \"#utility.yul\":21868:21921   */\n      tag_337\n      jump\t// in\n    tag_642:\n        /* \"#utility.yul\":21858:21921   */\n      swap3\n      pop\n        /* \"#utility.yul\":21814:21931   */\n      pop\n        /* \"#utility.yul\":21998:22000   */\n      0x20\n        /* \"#utility.yul\":21987:21996   */\n      dup4\n        /* \"#utility.yul\":21983:22001   */\n      add\n        /* \"#utility.yul\":21970:22002   */\n      calldataload\n        /* \"#utility.yul\":22029:22047   */\n      0xffffffffffffffff\n        /* \"#utility.yul\":22021:22027   */\n      dup2\n        /* \"#utility.yul\":22018:22048   */\n      gt\n        /* \"#utility.yul\":22015:22132   */\n      iszero\n      tag_643\n      jumpi\n        /* \"#utility.yul\":22051:22130   */\n      tag_644\n      tag_328\n      jump\t// in\n    tag_644:\n        /* \"#utility.yul\":22015:22132   */\n    tag_643:\n        /* \"#utility.yul\":22156:22242   */\n      tag_645\n        /* \"#utility.yul\":22234:22241   */\n      dup6\n        /* \"#utility.yul\":22225:22231   */\n      dup3\n        /* \"#utility.yul\":22214:22223   */\n      dup7\n        /* \"#utility.yul\":22210:22232   */\n      add\n        /* \"#utility.yul\":22156:22242   */\n      tag_386\n      jump\t// in\n    tag_645:\n        /* \"#utility.yul\":22146:22242   */\n      swap2\n      pop\n        /* \"#utility.yul\":21941:22252   */\n      pop\n        /* \"#utility.yul\":21559:22259   */\n      swap3\n      pop\n      swap3\n      swap1\n      pop\n      jump\t// out\n        /* \"#utility.yul\":22265:22383   */\n    tag_387:\n        /* \"#utility.yul\":22352:22376   */\n      tag_647\n        /* \"#utility.yul\":22370:22375   */\n      dup2\n        /* \"#utility.yul\":22352:22376   */\n      tag_335\n      jump\t// in\n    tag_647:\n        /* \"#utility.yul\":22347:22350   */\n      dup3\n        /* \"#utility.yul\":22340:22377   */\n      mstore\n        /* \"#utility.yul\":22265:22383   */\n      pop\n      pop\n      jump\t// out\n        /* \"#utility.yul\":22389:22611   */\n    tag_68:\n        /* \"#utility.yul\":22482:22486   */\n      0x00\n        /* \"#utility.yul\":22520:22522   */\n      0x20\n        /* \"#utility.yul\":22509:22518   */\n      dup3\n        /* \"#utility.yul\":22505:22523   */\n      add\n        /* \"#utility.yul\":22497:22523   */\n      swap1\n      pop\n        /* \"#utility.yul\":22533:22604   */\n      tag_649\n        /* \"#utility.yul\":22601:22602   */\n      0x00\n        /* \"#utility.yul\":22590:22599   */\n      dup4\n        /* \"#utility.yul\":22586:22603   */\n      add\n        /* \"#utility.yul\":22577:22583   */\n      dup5\n        /* \"#utility.yul\":22533:22604   */\n      tag_387\n      jump\t// in\n    tag_649:\n        /* \"#utility.yul\":22389:22611   */\n      swap3\n      swap2\n      pop\n      pop\n      jump\t// out\n        /* \"#utility.yul\":22617:22876   */\n    tag_388:\n        /* \"#utility.yul\":22702:22706   */\n      0x00\n        /* \"#utility.yul\":22792:22810   */\n      0xffffffffffffffff\n        /* \"#utility.yul\":22784:22790   */\n      dup3\n        /* \"#utility.yul\":22781:22811   */\n      gt\n        /* \"#utility.yul\":22778:22834   */\n      iszero\n      tag_651\n      jumpi\n        /* \"#utility.yul\":22814:22832   */\n      tag_652\n      tag_252\n      jump\t// in\n    tag_652:\n        /* \"#utility.yul\":22778:22834   */\n    tag_651:\n        /* \"#utility.yul\":22864:22868   */\n      0x20\n        /* \"#utility.yul\":22856:22862   */\n      dup3\n        /* \"#utility.yul\":22852:22869   */\n      mul\n        /* \"#utility.yul\":22844:22869   */\n      swap1\n      pop\n        /* \"#utility.yul\":22617:22876   */\n      swap2\n      swap1\n      pop\n      jump\t// out\n        /* \"#utility.yul\":22899:23777   */\n    tag_389:\n        /* \"#utility.yul\":23003:23008   */\n      0x00\n        /* \"#utility.yul\":23028:23117   */\n      tag_654\n        /* \"#utility.yul\":23044:23116   */\n      tag_655\n        /* \"#utility.yul\":23109:23115   */\n      dup5\n        /* \"#utility.yul\":23044:23116   */\n      tag_388\n      jump\t// in\n    tag_655:\n        /* \"#utility.yul\":23028:23117   */\n      tag_367\n      jump\t// in\n    tag_654:\n        /* \"#utility.yul\":23019:23117   */\n      swap1\n      pop\n        /* \"#utility.yul\":23137:23142   */\n      dup1\n        /* \"#utility.yul\":23190:23194   */\n      0x20\n        /* \"#utility.yul\":23182:23188   */\n      dup5\n        /* \"#utility.yul\":23178:23195   */\n      mul\n        /* \"#utility.yul\":23170:23176   */\n      dup4\n        /* \"#utility.yul\":23166:23196   */\n      add\n        /* \"#utility.yul\":23219:23222   */\n      dup6\n        /* \"#utility.yul\":23211:23217   */\n      dup2\n        /* \"#utility.yul\":23208:23223   */\n      gt\n        /* \"#utility.yul\":23205:23327   */\n      iszero\n      tag_656\n      jumpi\n        /* \"#utility.yul\":23238:23317   */\n      tag_657\n      tag_369\n      jump\t// in\n    tag_657:\n        /* \"#utility.yul\":23205:23327   */\n    tag_656:\n        /* \"#utility.yul\":23353:23359   */\n      dup4\n        /* \"#utility.yul\":23336:23771   */\n    tag_658:\n        /* \"#utility.yul\":23370:23376   */\n      dup2\n        /* \"#utility.yul\":23365:23368   */\n      dup2\n        /* \"#utility.yul\":23362:23377   */\n      lt\n        /* \"#utility.yul\":23336:23771   */\n      iszero\n      tag_660\n      jumpi\n        /* \"#utility.yul\":23459:23462   */\n      dup1\n        /* \"#utility.yul\":23446:23463   */\n      calldataload\n        /* \"#utility.yul\":23495:23513   */\n      0xffffffffffffffff\n        /* \"#utility.yul\":23482:23493   */\n      dup2\n        /* \"#utility.yul\":23479:23514   */\n      gt\n        /* \"#utility.yul\":23476:23598   */\n      iszero\n      tag_661\n      jumpi\n        /* \"#utility.yul\":23517:23596   */\n      tag_662\n      tag_365\n      jump\t// in\n    tag_662:\n        /* \"#utility.yul\":23476:23598   */\n    tag_661:\n        /* \"#utility.yul\":23641:23652   */\n      dup1\n        /* \"#utility.yul\":23633:23639   */\n      dup7\n        /* \"#utility.yul\":23629:23653   */\n      add\n        /* \"#utility.yul\":23679:23726   */\n      tag_663\n        /* \"#utility.yul\":23722:23725   */\n      dup10\n        /* \"#utility.yul\":23710:23720   */\n      dup3\n        /* \"#utility.yul\":23679:23726   */\n      tag_374\n      jump\t// in\n    tag_663:\n        /* \"#utility.yul\":23674:23677   */\n      dup6\n        /* \"#utility.yul\":23667:23727   */\n      mstore\n        /* \"#utility.yul\":23756:23760   */\n      0x20\n        /* \"#utility.yul\":23751:23754   */\n      dup6\n        /* \"#utility.yul\":23747:23761   */\n      add\n        /* \"#utility.yul\":23740:23761   */\n      swap5\n      pop\n        /* \"#utility.yul\":23412:23771   */\n      pop\n      pop\n        /* \"#utility.yul\":23396:23400   */\n      0x20\n        /* \"#utility.yul\":23391:23394   */\n      dup2\n        /* \"#utility.yul\":23387:23401   */\n      add\n        /* \"#utility.yul\":23380:23401   */\n      swap1\n      pop\n        /* \"#utility.yul\":23336:23771   */\n      jump(tag_658)\n    tag_660:\n        /* \"#utility.yul\":23340:23361   */\n      pop\n        /* \"#utility.yul\":23009:23777   */\n      pop\n      pop\n        /* \"#utility.yul\":22899:23777   */\n      swap4\n      swap3\n      pop\n      pop\n      pop\n      jump\t// out\n        /* \"#utility.yul\":23800:24159   */\n    tag_390:\n        /* \"#utility.yul\":23879:23884   */\n      0x00\n        /* \"#utility.yul\":23928:23931   */\n      dup3\n        /* \"#utility.yul\":23921:23925   */\n      0x1f\n        /* \"#utility.yul\":23913:23919   */\n      dup4\n        /* \"#utility.yul\":23909:23926   */\n      add\n        /* \"#utility.yul\":23905:23932   */\n      slt\n        /* \"#utility.yul\":23895:24017   */\n      tag_665\n      jumpi\n        /* \"#utility.yul\":23936:24015   */\n      tag_666\n      tag_365\n      jump\t// in\n    tag_666:\n        /* \"#utility.yul\":23895:24017   */\n    tag_665:\n        /* \"#utility.yul\":24040:24044   */\n      0x03\n        /* \"#utility.yul\":24062:24153   */\n      tag_667\n        /* \"#utility.yul\":24149:24152   */\n      dup5\n        /* \"#utility.yul\":24141:24147   */\n      dup3\n        /* \"#utility.yul\":24133:24139   */\n      dup6\n        /* \"#utility.yul\":24062:24153   */\n      tag_389\n      jump\t// in\n    tag_667:\n        /* \"#utility.yul\":24053:24153   */\n      swap2\n      pop\n        /* \"#utility.yul\":23885:24159   */\n      pop\n        /* \"#utility.yul\":23800:24159   */\n      swap3\n      swap2\n      pop\n      pop\n      jump\t// out\n        /* \"#utility.yul\":24165:24865   */\n    tag_75:\n        /* \"#utility.yul\":24266:24272   */\n      0x00\n        /* \"#utility.yul\":24274:24280   */\n      dup1\n        /* \"#utility.yul\":24323:24325   */\n      0x40\n        /* \"#utility.yul\":24311:24320   */\n      dup4\n        /* \"#utility.yul\":24302:24309   */\n      dup6\n        /* \"#utility.yul\":24298:24321   */\n      sub\n        /* \"#utility.yul\":24294:24326   */\n      slt\n        /* \"#utility.yul\":24291:24410   */\n      iszero\n      tag_669\n      jumpi\n        /* \"#utility.yul\":24329:24408   */\n      tag_670\n      tag_327\n      jump\t// in\n    tag_670:\n        /* \"#utility.yul\":24291:24410   */\n    tag_669:\n        /* \"#utility.yul\":24449:24450   */\n      0x00\n        /* \"#utility.yul\":24474:24527   */\n      tag_671\n        /* \"#utility.yul\":24519:24526   */\n      dup6\n        /* \"#utility.yul\":24510:24516   */\n      dup3\n        /* \"#utility.yul\":24499:24508   */\n      dup7\n        /* \"#utility.yul\":24495:24517   */\n      add\n        /* \"#utility.yul\":24474:24527   */\n      tag_337\n      jump\t// in\n    tag_671:\n        /* \"#utility.yul\":24464:24527   */\n      swap3\n      pop\n        /* \"#utility.yul\":24420:24537   */\n      pop\n        /* \"#utility.yul\":24604:24606   */\n      0x20\n        /* \"#utility.yul\":24593:24602   */\n      dup4\n        /* \"#utility.yul\":24589:24607   */\n      add\n        /* \"#utility.yul\":24576:24608   */\n      calldataload\n        /* \"#utility.yul\":24635:24653   */\n      0xffffffffffffffff\n        /* \"#utility.yul\":24627:24633   */\n      dup2\n        /* \"#utility.yul\":24624:24654   */\n      gt\n        /* \"#utility.yul\":24621:24738   */\n      iszero\n      tag_672\n      jumpi\n        /* \"#utility.yul\":24657:24736   */\n      tag_673\n      tag_328\n      jump\t// in\n    tag_673:\n        /* \"#utility.yul\":24621:24738   */\n    tag_672:\n        /* \"#utility.yul\":24762:24848   */\n      tag_674\n        /* \"#utility.yul\":24840:24847   */\n      dup6\n        /* \"#utility.yul\":24831:24837   */\n      dup3\n        /* \"#utility.yul\":24820:24829   */\n      dup7\n        /* \"#utility.yul\":24816:24838   */\n      add\n        /* \"#utility.yul\":24762:24848   */\n      tag_390\n      jump\t// in\n    tag_674:\n        /* \"#utility.yul\":24752:24848   */\n      swap2\n      pop\n        /* \"#utility.yul\":24547:24858   */\n      pop\n        /* \"#utility.yul\":24165:24865   */\n      swap3\n      pop\n      swap3\n      swap1\n      pop\n      jump\t// out\n        /* \"#utility.yul\":24871:25040   */\n    tag_391:\n        /* \"#utility.yul\":24955:24966   */\n      0x00\n        /* \"#utility.yul\":24989:24995   */\n      dup3\n        /* \"#utility.yul\":24984:24987   */\n      dup3\n        /* \"#utility.yul\":24977:24996   */\n      mstore\n        /* \"#utility.yul\":25029:25033   */\n      0x20\n        /* \"#utility.yul\":25024:25027   */\n      dup3\n        /* \"#utility.yul\":25020:25034   */\n      add\n        /* \"#utility.yul\":25005:25034   */\n      swap1\n      pop\n        /* \"#utility.yul\":24871:25040   */\n      swap3\n      swap2\n      pop\n      pop\n      jump\t// out\n        /* \"#utility.yul\":25046:25209   */\n    tag_392:\n        /* \"#utility.yul\":25186:25201   */\n      0x4163636573732044656e69656400000000000000000000000000000000000000\n        /* \"#utility.yul\":25182:25183   */\n      0x00\n        /* \"#utility.yul\":25174:25180   */\n      dup3\n        /* \"#utility.yul\":25170:25184   */\n      add\n        /* \"#utility.yul\":25163:25202   */\n      mstore\n        /* \"#utility.yul\":25046:25209   */\n      pop\n      jump\t// out\n        /* \"#utility.yul\":25215:25581   */\n    tag_393:\n        /* \"#utility.yul\":25357:25360   */\n      0x00\n        /* \"#utility.yul\":25378:25445   */\n      tag_678\n        /* \"#utility.yul\":25442:25444   */\n      0x0d\n        /* \"#utility.yul\":25437:25440   */\n      dup4\n        /* \"#utility.yul\":25378:25445   */\n      tag_391\n      jump\t// in\n    tag_678:\n        /* \"#utility.yul\":25371:25445   */\n      swap2\n      pop\n        /* \"#utility.yul\":25454:25547   */\n      tag_679\n        /* \"#utility.yul\":25543:25546   */\n      dup3\n        /* \"#utility.yul\":25454:25547   */\n      tag_392\n      jump\t// in\n    tag_679:\n        /* \"#utility.yul\":25572:25574   */\n      0x20\n        /* \"#utility.yul\":25567:25570   */\n      dup3\n        /* \"#utility.yul\":25563:25575   */\n      add\n        /* \"#utility.yul\":25556:25575   */\n      swap1\n      pop\n        /* \"#utility.yul\":25215:25581   */\n      swap2\n      swap1\n      pop\n      jump\t// out\n        /* \"#utility.yul\":25587:26006   */\n    tag_100:\n        /* \"#utility.yul\":25753:25757   */\n      0x00\n        /* \"#utility.yul\":25791:25793   */\n      0x20\n        /* \"#utility.yul\":25780:25789   */\n      dup3\n        /* \"#utility.yul\":25776:25794   */\n      add\n        /* \"#utility.yul\":25768:25794   */\n      swap1\n      pop\n        /* \"#utility.yul\":25840:25849   */\n      dup2\n        /* \"#utility.yul\":25834:25838   */\n      dup2\n        /* \"#utility.yul\":25830:25850   */\n      sub\n        /* \"#utility.yul\":25826:25827   */\n      0x00\n        /* \"#utility.yul\":25815:25824   */\n      dup4\n        /* \"#utility.yul\":25811:25828   */\n      add\n        /* \"#utility.yul\":25804:25851   */\n      mstore\n        /* \"#utility.yul\":25868:25999   */\n      tag_681\n        /* \"#utility.yul\":25994:25998   */\n      dup2\n        /* \"#utility.yul\":25868:25999   */\n      tag_393\n      jump\t// in\n    tag_681:\n        /* \"#utility.yul\":25860:25999   */\n      swap1\n      pop\n        /* \"#utility.yul\":25587:26006   */\n      swap2\n      swap1\n      pop\n      jump\t// out\n        /* \"#utility.yul\":26012:26192   */\n    tag_394:\n        /* \"#utility.yul\":26060:26137   */\n      0x4e487b7100000000000000000000000000000000000000000000000000000000\n        /* \"#utility.yul\":26057:26058   */\n      0x00\n        /* \"#utility.yul\":26050:26138   */\n      mstore\n        /* \"#utility.yul\":26157:26161   */\n      0x22\n        /* \"#utility.yul\":26154:26155   */\n      0x04\n        /* \"#utility.yul\":26147:26162   */\n      mstore\n        /* \"#utility.yul\":26181:26185   */\n      0x24\n        /* \"#utility.yul\":26178:26179   */\n      0x00\n        /* \"#utility.yul\":26171:26186   */\n      revert\n        /* \"#utility.yul\":26198:26518   */\n    tag_105:\n        /* \"#utility.yul\":26242:26248   */\n      0x00\n        /* \"#utility.yul\":26279:26280   */\n      0x02\n        /* \"#utility.yul\":26273:26277   */\n      dup3\n        /* \"#utility.yul\":26269:26281   */\n      div\n        /* \"#utility.yul\":26259:26281   */\n      swap1\n      pop\n        /* \"#utility.yul\":26326:26327   */\n      0x01\n        /* \"#utility.yul\":26320:26324   */\n      dup3\n        /* \"#utility.yul\":26316:26328   */\n      and\n        /* \"#utility.yul\":26347:26365   */\n      dup1\n        /* \"#utility.yul\":26337:26418   */\n      tag_684\n      jumpi\n        /* \"#utility.yul\":26403:26407   */\n      0x7f\n        /* \"#utility.yul\":26395:26401   */\n      dup3\n        /* \"#utility.yul\":26391:26408   */\n      and\n        /* \"#utility.yul\":26381:26408   */\n      swap2\n      pop\n        /* \"#utility.yul\":26337:26418   */\n    tag_684:\n        /* \"#utility.yul\":26465:26467   */\n      0x20\n        /* \"#utility.yul\":26457:26463   */\n      dup3\n        /* \"#utility.yul\":26454:26468   */\n      lt\n        /* \"#utility.yul\":26434:26452   */\n      dup2\n        /* \"#utility.yul\":26431:26469   */\n      sub\n        /* \"#utility.yul\":26428:26512   */\n      tag_685\n      jumpi\n        /* \"#utility.yul\":26484:26502   */\n      tag_686\n      tag_394\n      jump\t// in\n    tag_686:\n        /* \"#utility.yul\":26428:26512   */\n    tag_685:\n        /* \"#utility.yul\":26249:26518   */\n      pop\n        /* \"#utility.yul\":26198:26518   */\n      swap2\n      swap1\n      pop\n      jump\t// out\n        /* \"#utility.yul\":26524:26677   */\n    tag_395:\n        /* \"#utility.yul\":26631:26642   */\n      0x00\n        /* \"#utility.yul\":26668:26671   */\n      dup2\n        /* \"#utility.yul\":26653:26671   */\n      swap1\n      pop\n        /* \"#utility.yul\":26524:26677   */\n      swap3\n      swap2\n      pop\n      pop\n      jump\t// out\n        /* \"#utility.yul\":26713:27692   */\n    tag_396:\n        /* \"#utility.yul\":26848:26851   */\n      0x00\n        /* \"#utility.yul\":26877:26939   */\n      tag_689\n        /* \"#utility.yul\":26933:26938   */\n      dup3\n        /* \"#utility.yul\":26877:26939   */\n      tag_359\n      jump\t// in\n    tag_689:\n        /* \"#utility.yul\":26955:27049   */\n      tag_690\n        /* \"#utility.yul\":27042:27048   */\n      dup2\n        /* \"#utility.yul\":27037:27040   */\n      dup6\n        /* \"#utility.yul\":26955:27049   */\n      tag_395\n      jump\t// in\n    tag_690:\n        /* \"#utility.yul\":26948:27049   */\n      swap4\n      pop\n        /* \"#utility.yul\":27075:27078   */\n      dup4\n        /* \"#utility.yul\":27120:27124   */\n      0x20\n        /* \"#utility.yul\":27112:27118   */\n      dup3\n        /* \"#utility.yul\":27108:27125   */\n      mul\n        /* \"#utility.yul\":27103:27106   */\n      dup6\n        /* \"#utility.yul\":27099:27126   */\n      add\n        /* \"#utility.yul\":27150:27214   */\n      tag_691\n        /* \"#utility.yul\":27208:27213   */\n      dup6\n        /* \"#utility.yul\":27150:27214   */\n      tag_361\n      jump\t// in\n    tag_691:\n        /* \"#utility.yul\":27237:27244   */\n      dup1\n        /* \"#utility.yul\":27268:27269   */\n      0x00\n        /* \"#utility.yul\":27253:27647   */\n    tag_692:\n        /* \"#utility.yul\":27278:27284   */\n      dup6\n        /* \"#utility.yul\":27275:27276   */\n      dup2\n        /* \"#utility.yul\":27272:27285   */\n      lt\n        /* \"#utility.yul\":27253:27647   */\n      iszero\n      tag_694\n      jumpi\n        /* \"#utility.yul\":27349:27358   */\n      dup5\n        /* \"#utility.yul\":27343:27347   */\n      dup5\n        /* \"#utility.yul\":27339:27359   */\n      sub\n        /* \"#utility.yul\":27334:27337   */\n      dup10\n        /* \"#utility.yul\":27327:27360   */\n      mstore\n        /* \"#utility.yul\":27400:27406   */\n      dup2\n        /* \"#utility.yul\":27394:27407   */\n      mload\n        /* \"#utility.yul\":27428:27512   */\n      tag_695\n        /* \"#utility.yul\":27507:27511   */\n      dup6\n        /* \"#utility.yul\":27492:27505   */\n      dup3\n        /* \"#utility.yul\":27428:27512   */\n      tag_346\n      jump\t// in\n    tag_695:\n        /* \"#utility.yul\":27420:27512   */\n      swap5\n      pop\n        /* \"#utility.yul\":27535:27603   */\n      tag_696\n        /* \"#utility.yul\":27596:27602   */\n      dup4\n        /* \"#utility.yul\":27535:27603   */\n      tag_362\n      jump\t// in\n    tag_696:\n        /* \"#utility.yul\":27525:27603   */\n      swap3\n      pop\n        /* \"#utility.yul\":27632:27636   */\n      0x20\n        /* \"#utility.yul\":27627:27630   */\n      dup11\n        /* \"#utility.yul\":27623:27637   */\n      add\n        /* \"#utility.yul\":27616:27637   */\n      swap10\n      pop\n        /* \"#utility.yul\":27313:27647   */\n      pop\n        /* \"#utility.yul\":27300:27301   */\n      0x01\n        /* \"#utility.yul\":27297:27298   */\n      dup2\n        /* \"#utility.yul\":27293:27302   */\n      add\n        /* \"#utility.yul\":27288:27302   */\n      swap1\n      pop\n        /* \"#utility.yul\":27253:27647   */\n      jump(tag_692)\n    tag_694:\n        /* \"#utility.yul\":27257:27271   */\n      pop\n        /* \"#utility.yul\":27663:27667   */\n      dup3\n        /* \"#utility.yul\":27656:27667   */\n      swap8\n      pop\n        /* \"#utility.yul\":27683:27686   */\n      dup8\n        /* \"#utility.yul\":27676:27686   */\n      swap6\n      pop\n        /* \"#utility.yul\":26853:27692   */\n      pop\n      pop\n      pop\n      pop\n      pop\n        /* \"#utility.yul\":26713:27692   */\n      swap3\n      swap2\n      pop\n      pop\n      jump\t// out\n        /* \"#utility.yul\":27698:28103   */\n    tag_149:\n        /* \"#utility.yul\":27857:27861   */\n      0x00\n        /* \"#utility.yul\":27895:27897   */\n      0x20\n        /* \"#utility.yul\":27884:27893   */\n      dup3\n        /* \"#utility.yul\":27880:27898   */\n      add\n        /* \"#utility.yul\":27872:27898   */\n      swap1\n      pop\n        /* \"#utility.yul\":27944:27953   */\n      dup2\n        /* \"#utility.yul\":27938:27942   */\n      dup2\n        /* \"#utility.yul\":27934:27954   */\n      sub\n        /* \"#utility.yul\":27930:27931   */\n      0x00\n        /* \"#utility.yul\":27919:27928   */\n      dup4\n        /* \"#utility.yul\":27915:27932   */\n      add\n        /* \"#utility.yul\":27908:27955   */\n      mstore\n        /* \"#utility.yul\":27972:28096   */\n      tag_698\n        /* \"#utility.yul\":28091:28095   */\n      dup2\n        /* \"#utility.yul\":28082:28088   */\n      dup5\n        /* \"#utility.yul\":27972:28096   */\n      tag_396\n      jump\t// in\n    tag_698:\n        /* \"#utility.yul\":27964:28096   */\n      swap1\n      pop\n        /* \"#utility.yul\":27698:28103   */\n      swap3\n      swap2\n      pop\n      pop\n      jump\t// out\n        /* \"#utility.yul\":28109:28343   */\n    tag_397:\n        /* \"#utility.yul\":28249:28283   */\n      0x416363657373436f6e74726f6c3a2063616e206f6e6c792072656e6f756e6365\n        /* \"#utility.yul\":28245:28246   */\n      0x00\n        /* \"#utility.yul\":28237:28243   */\n      dup3\n        /* \"#utility.yul\":28233:28247   */\n      add\n        /* \"#utility.yul\":28226:28284   */\n      mstore\n        /* \"#utility.yul\":28318:28335   */\n      0x20726f6c657320666f722073656c660000000000000000000000000000000000\n        /* \"#utility.yul\":28313:28315   */\n      0x20\n        /* \"#utility.yul\":28305:28311   */\n      dup3\n        /* \"#utility.yul\":28301:28316   */\n      add\n        /* \"#utility.yul\":28294:28336   */\n      mstore\n        /* \"#utility.yul\":28109:28343   */\n      pop\n      jump\t// out\n        /* \"#utility.yul\":28349:28715   */\n    tag_398:\n        /* \"#utility.yul\":28491:28494   */\n      0x00\n        /* \"#utility.yul\":28512:28579   */\n      tag_701\n        /* \"#utility.yul\":28576:28578   */\n      0x2f\n        /* \"#utility.yul\":28571:28574   */\n      dup4\n        /* \"#utility.yul\":28512:28579   */\n      tag_391\n      jump\t// in\n    tag_701:\n        /* \"#utility.yul\":28505:28579   */\n      swap2\n      pop\n        /* \"#utility.yul\":28588:28681   */\n      tag_702\n        /* \"#utility.yul\":28677:28680   */\n      dup3\n        /* \"#utility.yul\":28588:28681   */\n      tag_397\n      jump\t// in\n    tag_702:\n        /* \"#utility.yul\":28706:28708   */\n      0x40\n        /* \"#utility.yul\":28701:28704   */\n      dup3\n        /* \"#utility.yul\":28697:28709   */\n      add\n        /* \"#utility.yul\":28690:28709   */\n      swap1\n      pop\n        /* \"#utility.yul\":28349:28715   */\n      swap2\n      swap1\n      pop\n      jump\t// out\n        /* \"#utility.yul\":28721:29140   */\n    tag_162:\n        /* \"#utility.yul\":28887:28891   */\n      0x00\n        /* \"#utility.yul\":28925:28927   */\n      0x20\n        /* \"#utility.yul\":28914:28923   */\n      dup3\n        /* \"#utility.yul\":28910:28928   */\n      add\n        /* \"#utility.yul\":28902:28928   */\n      swap1\n      pop\n        /* \"#utility.yul\":28974:28983   */\n      dup2\n        /* \"#utility.yul\":28968:28972   */\n      dup2\n        /* \"#utility.yul\":28964:28984   */\n      sub\n        /* \"#utility.yul\":28960:28961   */\n      0x00\n        /* \"#utility.yul\":28949:28958   */\n      dup4\n        /* \"#utility.yul\":28945:28962   */\n      add\n        /* \"#utility.yul\":28938:28985   */\n      mstore\n        /* \"#utility.yul\":29002:29133   */\n      tag_704\n        /* \"#utility.yul\":29128:29132   */\n      dup2\n        /* \"#utility.yul\":29002:29133   */\n      tag_398\n      jump\t// in\n    tag_704:\n        /* \"#utility.yul\":28994:29133   */\n      swap1\n      pop\n        /* \"#utility.yul\":28721:29140   */\n      swap2\n      swap1\n      pop\n      jump\t// out\n        /* \"#utility.yul\":29146:29299   */\n    tag_399:\n        /* \"#utility.yul\":29253:29264   */\n      0x00\n        /* \"#utility.yul\":29290:29293   */\n      dup2\n        /* \"#utility.yul\":29275:29293   */\n      swap1\n      pop\n        /* \"#utility.yul\":29146:29299   */\n      swap3\n      swap2\n      pop\n      pop\n      jump\t// out\n        /* \"#utility.yul\":29335:30314   */\n    tag_400:\n        /* \"#utility.yul\":29470:29473   */\n      0x00\n        /* \"#utility.yul\":29499:29561   */\n      tag_707\n        /* \"#utility.yul\":29555:29560   */\n      dup3\n        /* \"#utility.yul\":29499:29561   */\n      tag_338\n      jump\t// in\n    tag_707:\n        /* \"#utility.yul\":29577:29671   */\n      tag_708\n        /* \"#utility.yul\":29664:29670   */\n      dup2\n        /* \"#utility.yul\":29659:29662   */\n      dup6\n        /* \"#utility.yul\":29577:29671   */\n      tag_399\n      jump\t// in\n    tag_708:\n        /* \"#utility.yul\":29570:29671   */\n      swap4\n      pop\n        /* \"#utility.yul\":29697:29700   */\n      dup4\n        /* \"#utility.yul\":29742:29746   */\n      0x20\n        /* \"#utility.yul\":29734:29740   */\n      dup3\n        /* \"#utility.yul\":29730:29747   */\n      mul\n        /* \"#utility.yul\":29725:29728   */\n      dup6\n        /* \"#utility.yul\":29721:29748   */\n      add\n        /* \"#utility.yul\":29772:29836   */\n      tag_709\n        /* \"#utility.yul\":29830:29835   */\n      dup6\n        /* \"#utility.yul\":29772:29836   */\n      tag_340\n      jump\t// in\n    tag_709:\n        /* \"#utility.yul\":29859:29866   */\n      dup1\n        /* \"#utility.yul\":29890:29891   */\n      0x00\n        /* \"#utility.yul\":29875:30269   */\n    tag_710:\n        /* \"#utility.yul\":29900:29906   */\n      dup6\n        /* \"#utility.yul\":29897:29898   */\n      dup2\n        /* \"#utility.yul\":29894:29907   */\n      lt\n        /* \"#utility.yul\":29875:30269   */\n      iszero\n      tag_712\n      jumpi\n        /* \"#utility.yul\":29971:29980   */\n      dup5\n        /* \"#utility.yul\":29965:29969   */\n      dup5\n        /* \"#utility.yul\":29961:29981   */\n      sub\n        /* \"#utility.yul\":29956:29959   */\n      dup10\n        /* \"#utility.yul\":29949:29982   */\n      mstore\n        /* \"#utility.yul\":30022:30028   */\n      dup2\n        /* \"#utility.yul\":30016:30029   */\n      mload\n        /* \"#utility.yul\":30050:30134   */\n      tag_713\n        /* \"#utility.yul\":30129:30133   */\n      dup6\n        /* \"#utility.yul\":30114:30127   */\n      dup3\n        /* \"#utility.yul\":30050:30134   */\n      tag_346\n      jump\t// in\n    tag_713:\n        /* \"#utility.yul\":30042:30134   */\n      swap5\n      pop\n        /* \"#utility.yul\":30157:30225   */\n      tag_714\n        /* \"#utility.yul\":30218:30224   */\n      dup4\n        /* \"#utility.yul\":30157:30225   */\n      tag_347\n      jump\t// in\n    tag_714:\n        /* \"#utility.yul\":30147:30225   */\n      swap3\n      pop\n        /* \"#utility.yul\":30254:30258   */\n      0x20\n        /* \"#utility.yul\":30249:30252   */\n      dup11\n        /* \"#utility.yul\":30245:30259   */\n      add\n        /* \"#utility.yul\":30238:30259   */\n      swap10\n      pop\n        /* \"#utility.yul\":29935:30269   */\n      pop\n        /* \"#utility.yul\":29922:29923   */\n      0x01\n        /* \"#utility.yul\":29919:29920   */\n      dup2\n        /* \"#utility.yul\":29915:29924   */\n      add\n        /* \"#utility.yul\":29910:29924   */\n      swap1\n      pop\n        /* \"#utility.yul\":29875:30269   */\n      jump(tag_710)\n    tag_712:\n        /* \"#utility.yul\":29879:29893   */\n      pop\n        /* \"#utility.yul\":30285:30289   */\n      dup3\n        /* \"#utility.yul\":30278:30289   */\n      swap8\n      pop\n        /* \"#utility.yul\":30305:30308   */\n      dup8\n        /* \"#utility.yul\":30298:30308   */\n      swap6\n      pop\n        /* \"#utility.yul\":29475:30314   */\n      pop\n      pop\n      pop\n      pop\n      pop\n        /* \"#utility.yul\":29335:30314   */\n      swap3\n      swap2\n      pop\n      pop\n      jump\t// out\n        /* \"#utility.yul\":30320:30725   */\n    tag_171:\n        /* \"#utility.yul\":30479:30483   */\n      0x00\n        /* \"#utility.yul\":30517:30519   */\n      0x20\n        /* \"#utility.yul\":30506:30515   */\n      dup3\n        /* \"#utility.yul\":30502:30520   */\n      add\n        /* \"#utility.yul\":30494:30520   */\n      swap1\n      pop\n        /* \"#utility.yul\":30566:30575   */\n      dup2\n        /* \"#utility.yul\":30560:30564   */\n      dup2\n        /* \"#utility.yul\":30556:30576   */\n      sub\n        /* \"#utility.yul\":30552:30553   */\n      0x00\n        /* \"#utility.yul\":30541:30550   */\n      dup4\n        /* \"#utility.yul\":30537:30554   */\n      add\n        /* \"#utility.yul\":30530:30577   */\n      mstore\n        /* \"#utility.yul\":30594:30718   */\n      tag_716\n        /* \"#utility.yul\":30713:30717   */\n      dup2\n        /* \"#utility.yul\":30704:30710   */\n      dup5\n        /* \"#utility.yul\":30594:30718   */\n      tag_400\n      jump\t// in\n    tag_716:\n        /* \"#utility.yul\":30586:30718   */\n      swap1\n      pop\n        /* \"#utility.yul\":30320:30725   */\n      swap3\n      swap2\n      pop\n      pop\n      jump\t// out\n        /* \"#utility.yul\":30731:30884   */\n    tag_401:\n        /* \"#utility.yul\":30838:30849   */\n      0x00\n        /* \"#utility.yul\":30875:30878   */\n      dup2\n        /* \"#utility.yul\":30860:30878   */\n      swap1\n      pop\n        /* \"#utility.yul\":30731:30884   */\n      swap3\n      swap2\n      pop\n      pop\n      jump\t// out\n        /* \"#utility.yul\":30920:31899   */\n    tag_402:\n        /* \"#utility.yul\":31055:31058   */\n      0x00\n        /* \"#utility.yul\":31084:31146   */\n      tag_719\n        /* \"#utility.yul\":31140:31145   */\n      dup3\n        /* \"#utility.yul\":31084:31146   */\n      tag_349\n      jump\t// in\n    tag_719:\n        /* \"#utility.yul\":31162:31256   */\n      tag_720\n        /* \"#utility.yul\":31249:31255   */\n      dup2\n        /* \"#utility.yul\":31244:31247   */\n      dup6\n        /* \"#utility.yul\":31162:31256   */\n      tag_401\n      jump\t// in\n    tag_720:\n        /* \"#utility.yul\":31155:31256   */\n      swap4\n      pop\n        /* \"#utility.yul\":31282:31285   */\n      dup4\n        /* \"#utility.yul\":31327:31331   */\n      0x20\n        /* \"#utility.yul\":31319:31325   */\n      dup3\n        /* \"#utility.yul\":31315:31332   */\n      mul\n        /* \"#utility.yul\":31310:31313   */\n      dup6\n        /* \"#utility.yul\":31306:31333   */\n      add\n        /* \"#utility.yul\":31357:31421   */\n      tag_721\n        /* \"#utility.yul\":31415:31420   */\n      dup6\n        /* \"#utility.yul\":31357:31421   */\n      tag_351\n      jump\t// in\n    tag_721:\n        /* \"#utility.yul\":31444:31451   */\n      dup1\n        /* \"#utility.yul\":31475:31476   */\n      0x00\n        /* \"#utility.yul\":31460:31854   */\n    tag_722:\n        /* \"#utility.yul\":31485:31491   */\n      dup6\n        /* \"#utility.yul\":31482:31483   */\n      dup2\n        /* \"#utility.yul\":31479:31492   */\n      lt\n        /* \"#utility.yul\":31460:31854   */\n      iszero\n      tag_724\n      jumpi\n        /* \"#utility.yul\":31556:31565   */\n      dup5\n        /* \"#utility.yul\":31550:31554   */\n      dup5\n        /* \"#utility.yul\":31546:31566   */\n      sub\n        /* \"#utility.yul\":31541:31544   */\n      dup10\n        /* \"#utility.yul\":31534:31567   */\n      mstore\n        /* \"#utility.yul\":31607:31613   */\n      dup2\n        /* \"#utility.yul\":31601:31614   */\n      mload\n        /* \"#utility.yul\":31635:31719   */\n      tag_725\n        /* \"#utility.yul\":31714:31718   */\n      dup6\n        /* \"#utility.yul\":31699:31712   */\n      dup3\n        /* \"#utility.yul\":31635:31719   */\n      tag_346\n      jump\t// in\n    tag_725:\n        /* \"#utility.yul\":31627:31719   */\n      swap5\n      pop\n        /* \"#utility.yul\":31742:31810   */\n      tag_726\n        /* \"#utility.yul\":31803:31809   */\n      dup4\n        /* \"#utility.yul\":31742:31810   */\n      tag_352\n      jump\t// in\n    tag_726:\n        /* \"#utility.yul\":31732:31810   */\n      swap3\n      pop\n        /* \"#utility.yul\":31839:31843   */\n      0x20\n        /* \"#utility.yul\":31834:31837   */\n      dup11\n        /* \"#utility.yul\":31830:31844   */\n      add\n        /* \"#utility.yul\":31823:31844   */\n      swap10\n      pop\n        /* \"#utility.yul\":31520:31854   */\n      pop\n        /* \"#utility.yul\":31507:31508   */\n      0x01\n        /* \"#utility.yul\":31504:31505   */\n      dup2\n        /* \"#utility.yul\":31500:31509   */\n      add\n        /* \"#utility.yul\":31495:31509   */\n      swap1\n      pop\n        /* \"#utility.yul\":31460:31854   */\n      jump(tag_722)\n    tag_724:\n        /* \"#utility.yul\":31464:31478   */\n      pop\n        /* \"#utility.yul\":31870:31874   */\n      dup3\n        /* \"#utility.yul\":31863:31874   */\n      swap8\n      pop\n        /* \"#utility.yul\":31890:31893   */\n      dup8\n        /* \"#utility.yul\":31883:31893   */\n      swap6\n      pop\n        /* \"#utility.yul\":31060:31899   */\n      pop\n      pop\n      pop\n      pop\n      pop\n        /* \"#utility.yul\":30920:31899   */\n      swap3\n      swap2\n      pop\n      pop\n      jump\t// out\n        /* \"#utility.yul\":31905:32310   */\n    tag_184:\n        /* \"#utility.yul\":32064:32068   */\n      0x00\n        /* \"#utility.yul\":32102:32104   */\n      0x20\n        /* \"#utility.yul\":32091:32100   */\n      dup3\n        /* \"#utility.yul\":32087:32105   */\n      add\n        /* \"#utility.yul\":32079:32105   */\n      swap1\n      pop\n        /* \"#utility.yul\":32151:32160   */\n      dup2\n        /* \"#utility.yul\":32145:32149   */\n      dup2\n        /* \"#utility.yul\":32141:32161   */\n      sub\n        /* \"#utility.yul\":32137:32138   */\n      0x00\n        /* \"#utility.yul\":32126:32135   */\n      dup4\n        /* \"#utility.yul\":32122:32139   */\n      add\n        /* \"#utility.yul\":32115:32162   */\n      mstore\n        /* \"#utility.yul\":32179:32303   */\n      tag_728\n        /* \"#utility.yul\":32298:32302   */\n      dup2\n        /* \"#utility.yul\":32289:32295   */\n      dup5\n        /* \"#utility.yul\":32179:32303   */\n      tag_402\n      jump\t// in\n    tag_728:\n        /* \"#utility.yul\":32171:32303   */\n      swap1\n      pop\n        /* \"#utility.yul\":31905:32310   */\n      swap3\n      swap2\n      pop\n      pop\n      jump\t// out\n        /* \"#utility.yul\":32316:32469   */\n    tag_403:\n        /* \"#utility.yul\":32423:32434   */\n      0x00\n        /* \"#utility.yul\":32460:32463   */\n      dup2\n        /* \"#utility.yul\":32445:32463   */\n      swap1\n      pop\n        /* \"#utility.yul\":32316:32469   */\n      swap3\n      swap2\n      pop\n      pop\n      jump\t// out\n        /* \"#utility.yul\":32505:33484   */\n    tag_404:\n        /* \"#utility.yul\":32640:32643   */\n      0x00\n        /* \"#utility.yul\":32669:32731   */\n      tag_731\n        /* \"#utility.yul\":32725:32730   */\n      dup3\n        /* \"#utility.yul\":32669:32731   */\n      tag_354\n      jump\t// in\n    tag_731:\n        /* \"#utility.yul\":32747:32841   */\n      tag_732\n        /* \"#utility.yul\":32834:32840   */\n      dup2\n        /* \"#utility.yul\":32829:32832   */\n      dup6\n        /* \"#utility.yul\":32747:32841   */\n      tag_403\n      jump\t// in\n    tag_732:\n        /* \"#utility.yul\":32740:32841   */\n      swap4\n      pop\n        /* \"#utility.yul\":32867:32870   */\n      dup4\n        /* \"#utility.yul\":32912:32916   */\n      0x20\n        /* \"#utility.yul\":32904:32910   */\n      dup3\n        /* \"#utility.yul\":32900:32917   */\n      mul\n        /* \"#utility.yul\":32895:32898   */\n      dup6\n        /* \"#utility.yul\":32891:32918   */\n      add\n        /* \"#utility.yul\":32942:33006   */\n      tag_733\n        /* \"#utility.yul\":33000:33005   */\n      dup6\n        /* \"#utility.yul\":32942:33006   */\n      tag_356\n      jump\t// in\n    tag_733:\n        /* \"#utility.yul\":33029:33036   */\n      dup1\n        /* \"#utility.yul\":33060:33061   */\n      0x00\n        /* \"#utility.yul\":33045:33439   */\n    tag_734:\n        /* \"#utility.yul\":33070:33076   */\n      dup6\n        /* \"#utility.yul\":33067:33068   */\n      dup2\n        /* \"#utility.yul\":33064:33077   */\n      lt\n        /* \"#utility.yul\":33045:33439   */\n      iszero\n      tag_736\n      jumpi\n        /* \"#utility.yul\":33141:33150   */\n      dup5\n        /* \"#utility.yul\":33135:33139   */\n      dup5\n        /* \"#utility.yul\":33131:33151   */\n      sub\n        /* \"#utility.yul\":33126:33129   */\n      dup10\n        /* \"#utility.yul\":33119:33152   */\n      mstore\n        /* \"#utility.yul\":33192:33198   */\n      dup2\n        /* \"#utility.yul\":33186:33199   */\n      mload\n        /* \"#utility.yul\":33220:33304   */\n      tag_737\n        /* \"#utility.yul\":33299:33303   */\n      dup6\n        /* \"#utility.yul\":33284:33297   */\n      dup3\n        /* \"#utility.yul\":33220:33304   */\n      tag_346\n      jump\t// in\n    tag_737:\n        /* \"#utility.yul\":33212:33304   */\n      swap5\n      pop\n        /* \"#utility.yul\":33327:33395   */\n      tag_738\n        /* \"#utility.yul\":33388:33394   */\n      dup4\n        /* \"#utility.yul\":33327:33395   */\n      tag_357\n      jump\t// in\n    tag_738:\n        /* \"#utility.yul\":33317:33395   */\n      swap3\n      pop\n        /* \"#utility.yul\":33424:33428   */\n      0x20\n        /* \"#utility.yul\":33419:33422   */\n      dup11\n        /* \"#utility.yul\":33415:33429   */\n      add\n        /* \"#utility.yul\":33408:33429   */\n      swap10\n      pop\n        /* \"#utility.yul\":33105:33439   */\n      pop\n        /* \"#utility.yul\":33092:33093   */\n      0x01\n        /* \"#utility.yul\":33089:33090   */\n      dup2\n        /* \"#utility.yul\":33085:33094   */\n      add\n        /* \"#utility.yul\":33080:33094   */\n      swap1\n      pop\n        /* \"#utility.yul\":33045:33439   */\n      jump(tag_734)\n    tag_736:\n        /* \"#utility.yul\":33049:33063   */\n      pop\n        /* \"#utility.yul\":33455:33459   */\n      dup3\n        /* \"#utility.yul\":33448:33459   */\n      swap8\n      pop\n        /* \"#utility.yul\":33475:33478   */\n      dup8\n        /* \"#utility.yul\":33468:33478   */\n      swap6\n      pop\n        /* \"#utility.yul\":32645:33484   */\n      pop\n      pop\n      pop\n      pop\n      pop\n        /* \"#utility.yul\":32505:33484   */\n      swap3\n      swap2\n      pop\n      pop\n      jump\t// out\n        /* \"#utility.yul\":33490:33895   */\n    tag_193:\n        /* \"#utility.yul\":33649:33653   */\n      0x00\n        /* \"#utility.yul\":33687:33689   */\n      0x20\n        /* \"#utility.yul\":33676:33685   */\n      dup3\n        /* \"#utility.yul\":33672:33690   */\n      add\n        /* \"#utility.yul\":33664:33690   */\n      swap1\n      pop\n        /* \"#utility.yul\":33736:33745   */\n      dup2\n        /* \"#utility.yul\":33730:33734   */\n      dup2\n        /* \"#utility.yul\":33726:33746   */\n      sub\n        /* \"#utility.yul\":33722:33723   */\n      0x00\n        /* \"#utility.yul\":33711:33720   */\n      dup4\n        /* \"#utility.yul\":33707:33724   */\n      add\n        /* \"#utility.yul\":33700:33747   */\n      mstore\n        /* \"#utility.yul\":33764:33888   */\n      tag_740\n        /* \"#utility.yul\":33883:33887   */\n      dup2\n        /* \"#utility.yul\":33874:33880   */\n      dup5\n        /* \"#utility.yul\":33764:33888   */\n      tag_404\n      jump\t// in\n    tag_740:\n        /* \"#utility.yul\":33756:33888   */\n      swap1\n      pop\n        /* \"#utility.yul\":33490:33895   */\n      swap3\n      swap2\n      pop\n      pop\n      jump\t// out\n        /* \"#utility.yul\":33901:34126   */\n    tag_405:\n        /* \"#utility.yul\":34041:34075   */\n      0x4f776e61626c653a206e6577206f776e657220697320746865207a65726f2061\n        /* \"#utility.yul\":34037:34038   */\n      0x00\n        /* \"#utility.yul\":34029:34035   */\n      dup3\n        /* \"#utility.yul\":34025:34039   */\n      add\n        /* \"#utility.yul\":34018:34076   */\n      mstore\n        /* \"#utility.yul\":34110:34118   */\n      0x6464726573730000000000000000000000000000000000000000000000000000\n        /* \"#utility.yul\":34105:34107   */\n      0x20\n        /* \"#utility.yul\":34097:34103   */\n      dup3\n        /* \"#utility.yul\":34093:34108   */\n      add\n        /* \"#utility.yul\":34086:34119   */\n      mstore\n        /* \"#utility.yul\":33901:34126   */\n      pop\n      jump\t// out\n        /* \"#utility.yul\":34132:34498   */\n    tag_406:\n        /* \"#utility.yul\":34274:34277   */\n      0x00\n        /* \"#utility.yul\":34295:34362   */\n      tag_743\n        /* \"#utility.yul\":34359:34361   */\n      0x26\n        /* \"#utility.yul\":34354:34357   */\n      dup4\n        /* \"#utility.yul\":34295:34362   */\n      tag_391\n      jump\t// in\n    tag_743:\n        /* \"#utility.yul\":34288:34362   */\n      swap2\n      pop\n        /* \"#utility.yul\":34371:34464   */\n      tag_744\n        /* \"#utility.yul\":34460:34463   */\n      dup3\n        /* \"#utility.yul\":34371:34464   */\n      tag_405\n      jump\t// in\n    tag_744:\n        /* \"#utility.yul\":34489:34491   */\n      0x40\n        /* \"#utility.yul\":34484:34487   */\n      dup3\n        /* \"#utility.yul\":34480:34492   */\n      add\n        /* \"#utility.yul\":34473:34492   */\n      swap1\n      pop\n        /* \"#utility.yul\":34132:34498   */\n      swap2\n      swap1\n      pop\n      jump\t// out\n        /* \"#utility.yul\":34504:34923   */\n    tag_209:\n        /* \"#utility.yul\":34670:34674   */\n      0x00\n        /* \"#utility.yul\":34708:34710   */\n      0x20\n        /* \"#utility.yul\":34697:34706   */\n      dup3\n        /* \"#utility.yul\":34693:34711   */\n      add\n        /* \"#utility.yul\":34685:34711   */\n      swap1\n      pop\n        /* \"#utility.yul\":34757:34766   */\n      dup2\n        /* \"#utility.yul\":34751:34755   */\n      dup2\n        /* \"#utility.yul\":34747:34767   */\n      sub\n        /* \"#utility.yul\":34743:34744   */\n      0x00\n        /* \"#utility.yul\":34732:34741   */\n      dup4\n        /* \"#utility.yul\":34728:34745   */\n      add\n        /* \"#utility.yul\":34721:34768   */\n      mstore\n        /* \"#utility.yul\":34785:34916   */\n      tag_746\n        /* \"#utility.yul\":34911:34915   */\n      dup2\n        /* \"#utility.yul\":34785:34916   */\n      tag_406\n      jump\t// in\n    tag_746:\n        /* \"#utility.yul\":34777:34916   */\n      swap1\n      pop\n        /* \"#utility.yul\":34504:34923   */\n      swap2\n      swap1\n      pop\n      jump\t// out\n        /* \"#utility.yul\":34929:35111   */\n    tag_407:\n        /* \"#utility.yul\":35069:35103   */\n      0x4f776e61626c653a2063616c6c6572206973206e6f7420746865206f776e6572\n        /* \"#utility.yul\":35065:35066   */\n      0x00\n        /* \"#utility.yul\":35057:35063   */\n      dup3\n        /* \"#utility.yul\":35053:35067   */\n      add\n        /* \"#utility.yul\":35046:35104   */\n      mstore\n        /* \"#utility.yul\":34929:35111   */\n      pop\n      jump\t// out\n        /* \"#utility.yul\":35117:35483   */\n    tag_408:\n        /* \"#utility.yul\":35259:35262   */\n      0x00\n        /* \"#utility.yul\":35280:35347   */\n      tag_749\n        /* \"#utility.yul\":35344:35346   */\n      0x20\n        /* \"#utility.yul\":35339:35342   */\n      dup4\n        /* \"#utility.yul\":35280:35347   */\n      tag_391\n      jump\t// in\n    tag_749:\n        /* \"#utility.yul\":35273:35347   */\n      swap2\n      pop\n        /* \"#utility.yul\":35356:35449   */\n      tag_750\n        /* \"#utility.yul\":35445:35448   */\n      dup3\n        /* \"#utility.yul\":35356:35449   */\n      tag_407\n      jump\t// in\n    tag_750:\n        /* \"#utility.yul\":35474:35476   */\n      0x20\n        /* \"#utility.yul\":35469:35472   */\n      dup3\n        /* \"#utility.yul\":35465:35477   */\n      add\n        /* \"#utility.yul\":35458:35477   */\n      swap1\n      pop\n        /* \"#utility.yul\":35117:35483   */\n      swap2\n      swap1\n      pop\n      jump\t// out\n        /* \"#utility.yul\":35489:35908   */\n    tag_230:\n        /* \"#utility.yul\":35655:35659   */\n      0x00\n        /* \"#utility.yul\":35693:35695   */\n      0x20\n        /* \"#utility.yul\":35682:35691   */\n      dup3\n        /* \"#utility.yul\":35678:35696   */\n      add\n        /* \"#utility.yul\":35670:35696   */\n      swap1\n      pop\n        /* \"#utility.yul\":35742:35751   */\n      dup2\n        /* \"#utility.yul\":35736:35740   */\n      dup2\n        /* \"#utility.yul\":35732:35752   */\n      sub\n        /* \"#utility.yul\":35728:35729   */\n      0x00\n        /* \"#utility.yul\":35717:35726   */\n      dup4\n        /* \"#utility.yul\":35713:35730   */\n      add\n        /* \"#utility.yul\":35706:35753   */\n      mstore\n        /* \"#utility.yul\":35770:35901   */\n      tag_752\n        /* \"#utility.yul\":35896:35900   */\n      dup2\n        /* \"#utility.yul\":35770:35901   */\n      tag_408\n      jump\t// in\n    tag_752:\n        /* \"#utility.yul\":35762:35901   */\n      swap1\n      pop\n        /* \"#utility.yul\":35489:35908   */\n      swap2\n      swap1\n      pop\n      jump\t// out\n        /* \"#utility.yul\":35914:36062   */\n    tag_409:\n        /* \"#utility.yul\":36016:36027   */\n      0x00\n        /* \"#utility.yul\":36053:36056   */\n      dup2\n        /* \"#utility.yul\":36038:36056   */\n      swap1\n      pop\n        /* \"#utility.yul\":35914:36062   */\n      swap3\n      swap2\n      pop\n      pop\n      jump\t// out\n        /* \"#utility.yul\":36068:36241   */\n    tag_410:\n        /* \"#utility.yul\":36208:36233   */\n      0x416363657373436f6e74726f6c3a206163636f756e7420000000000000000000\n        /* \"#utility.yul\":36204:36205   */\n      0x00\n        /* \"#utility.yul\":36196:36202   */\n      dup3\n        /* \"#utility.yul\":36192:36206   */\n      add\n        /* \"#utility.yul\":36185:36234   */\n      mstore\n        /* \"#utility.yul\":36068:36241   */\n      pop\n      jump\t// out\n        /* \"#utility.yul\":36247:36649   */\n    tag_411:\n        /* \"#utility.yul\":36407:36410   */\n      0x00\n        /* \"#utility.yul\":36428:36513   */\n      tag_756\n        /* \"#utility.yul\":36510:36512   */\n      0x17\n        /* \"#utility.yul\":36505:36508   */\n      dup4\n        /* \"#utility.yul\":36428:36513   */\n      tag_409\n      jump\t// in\n    tag_756:\n        /* \"#utility.yul\":36421:36513   */\n      swap2\n      pop\n        /* \"#utility.yul\":36522:36615   */\n      tag_757\n        /* \"#utility.yul\":36611:36614   */\n      dup3\n        /* \"#utility.yul\":36522:36615   */\n      tag_410\n      jump\t// in\n    tag_757:\n        /* \"#utility.yul\":36640:36642   */\n      0x17\n        /* \"#utility.yul\":36635:36638   */\n      dup3\n        /* \"#utility.yul\":36631:36643   */\n      add\n        /* \"#utility.yul\":36624:36643   */\n      swap1\n      pop\n        /* \"#utility.yul\":36247:36649   */\n      swap2\n      swap1\n      pop\n      jump\t// out\n        /* \"#utility.yul\":36655:37032   */\n    tag_412:\n        /* \"#utility.yul\":36761:36764   */\n      0x00\n        /* \"#utility.yul\":36789:36828   */\n      tag_759\n        /* \"#utility.yul\":36822:36827   */\n      dup3\n        /* \"#utility.yul\":36789:36828   */\n      tag_341\n      jump\t// in\n    tag_759:\n        /* \"#utility.yul\":36844:36933   */\n      tag_760\n        /* \"#utility.yul\":36926:36932   */\n      dup2\n        /* \"#utility.yul\":36921:36924   */\n      dup6\n        /* \"#utility.yul\":36844:36933   */\n      tag_409\n      jump\t// in\n    tag_760:\n        /* \"#utility.yul\":36837:36933   */\n      swap4\n      pop\n        /* \"#utility.yul\":36942:36994   */\n      tag_761\n        /* \"#utility.yul\":36987:36993   */\n      dup2\n        /* \"#utility.yul\":36982:36985   */\n      dup6\n        /* \"#utility.yul\":36975:36979   */\n      0x20\n        /* \"#utility.yul\":36968:36973   */\n      dup7\n        /* \"#utility.yul\":36964:36980   */\n      add\n        /* \"#utility.yul\":36942:36994   */\n      tag_343\n      jump\t// in\n    tag_761:\n        /* \"#utility.yul\":37019:37025   */\n      dup1\n        /* \"#utility.yul\":37014:37017   */\n      dup5\n        /* \"#utility.yul\":37010:37026   */\n      add\n        /* \"#utility.yul\":37003:37026   */\n      swap2\n      pop\n        /* \"#utility.yul\":36765:37032   */\n      pop\n        /* \"#utility.yul\":36655:37032   */\n      swap3\n      swap2\n      pop\n      pop\n      jump\t// out\n        /* \"#utility.yul\":37038:37205   */\n    tag_413:\n        /* \"#utility.yul\":37178:37197   */\n      0x206973206d697373696e6720726f6c6520000000000000000000000000000000\n        /* \"#utility.yul\":37174:37175   */\n      0x00\n        /* \"#utility.yul\":37166:37172   */\n      dup3\n        /* \"#utility.yul\":37162:37176   */\n      add\n        /* \"#utility.yul\":37155:37198   */\n      mstore\n        /* \"#utility.yul\":37038:37205   */\n      pop\n      jump\t// out\n        /* \"#utility.yul\":37211:37613   */\n    tag_414:\n        /* \"#utility.yul\":37371:37374   */\n      0x00\n        /* \"#utility.yul\":37392:37477   */\n      tag_764\n        /* \"#utility.yul\":37474:37476   */\n      0x11\n        /* \"#utility.yul\":37469:37472   */\n      dup4\n        /* \"#utility.yul\":37392:37477   */\n      tag_409\n      jump\t// in\n    tag_764:\n        /* \"#utility.yul\":37385:37477   */\n      swap2\n      pop\n        /* \"#utility.yul\":37486:37579   */\n      tag_765\n        /* \"#utility.yul\":37575:37578   */\n      dup3\n        /* \"#utility.yul\":37486:37579   */\n      tag_413\n      jump\t// in\n    tag_765:\n        /* \"#utility.yul\":37604:37606   */\n      0x11\n        /* \"#utility.yul\":37599:37602   */\n      dup3\n        /* \"#utility.yul\":37595:37607   */\n      add\n        /* \"#utility.yul\":37588:37607   */\n      swap1\n      pop\n        /* \"#utility.yul\":37211:37613   */\n      swap2\n      swap1\n      pop\n      jump\t// out\n        /* \"#utility.yul\":37619:38586   */\n    tag_240:\n        /* \"#utility.yul\":38001:38004   */\n      0x00\n        /* \"#utility.yul\":38023:38171   */\n      tag_767\n        /* \"#utility.yul\":38167:38170   */\n      dup3\n        /* \"#utility.yul\":38023:38171   */\n      tag_411\n      jump\t// in\n    tag_767:\n        /* \"#utility.yul\":38016:38171   */\n      swap2\n      pop\n        /* \"#utility.yul\":38188:38283   */\n      tag_768\n        /* \"#utility.yul\":38279:38282   */\n      dup3\n        /* \"#utility.yul\":38270:38276   */\n      dup6\n        /* \"#utility.yul\":38188:38283   */\n      tag_412\n      jump\t// in\n    tag_768:\n        /* \"#utility.yul\":38181:38283   */\n      swap2\n      pop\n        /* \"#utility.yul\":38300:38448   */\n      tag_769\n        /* \"#utility.yul\":38444:38447   */\n      dup3\n        /* \"#utility.yul\":38300:38448   */\n      tag_414\n      jump\t// in\n    tag_769:\n        /* \"#utility.yul\":38293:38448   */\n      swap2\n      pop\n        /* \"#utility.yul\":38465:38560   */\n      tag_770\n        /* \"#utility.yul\":38556:38559   */\n      dup3\n        /* \"#utility.yul\":38547:38553   */\n      dup5\n        /* \"#utility.yul\":38465:38560   */\n      tag_412\n      jump\t// in\n    tag_770:\n        /* \"#utility.yul\":38458:38560   */\n      swap2\n      pop\n        /* \"#utility.yul\":38577:38580   */\n      dup2\n        /* \"#utility.yul\":38570:38580   */\n      swap1\n      pop\n        /* \"#utility.yul\":37619:38586   */\n      swap4\n      swap3\n      pop\n      pop\n      pop\n      jump\t// out\n        /* \"#utility.yul\":38592:38956   */\n    tag_415:\n        /* \"#utility.yul\":38680:38683   */\n      0x00\n        /* \"#utility.yul\":38708:38747   */\n      tag_772\n        /* \"#utility.yul\":38741:38746   */\n      dup3\n        /* \"#utility.yul\":38708:38747   */\n      tag_341\n      jump\t// in\n    tag_772:\n        /* \"#utility.yul\":38763:38834   */\n      tag_773\n        /* \"#utility.yul\":38827:38833   */\n      dup2\n        /* \"#utility.yul\":38822:38825   */\n      dup6\n        /* \"#utility.yul\":38763:38834   */\n      tag_391\n      jump\t// in\n    tag_773:\n        /* \"#utility.yul\":38756:38834   */\n      swap4\n      pop\n        /* \"#utility.yul\":38843:38895   */\n      tag_774\n        /* \"#utility.yul\":38888:38894   */\n      dup2\n        /* \"#utility.yul\":38883:38886   */\n      dup6\n        /* \"#utility.yul\":38876:38880   */\n      0x20\n        /* \"#utility.yul\":38869:38874   */\n      dup7\n        /* \"#utility.yul\":38865:38881   */\n      add\n        /* \"#utility.yul\":38843:38895   */\n      tag_343\n      jump\t// in\n    tag_774:\n        /* \"#utility.yul\":38920:38949   */\n      tag_775\n        /* \"#utility.yul\":38942:38948   */\n      dup2\n        /* \"#utility.yul\":38920:38949   */\n      tag_344\n      jump\t// in\n    tag_775:\n        /* \"#utility.yul\":38915:38918   */\n      dup5\n        /* \"#utility.yul\":38911:38950   */\n      add\n        /* \"#utility.yul\":38904:38950   */\n      swap2\n      pop\n        /* \"#utility.yul\":38684:38956   */\n      pop\n        /* \"#utility.yul\":38592:38956   */\n      swap3\n      swap2\n      pop\n      pop\n      jump\t// out\n        /* \"#utility.yul\":38962:39275   */\n    tag_242:\n        /* \"#utility.yul\":39075:39079   */\n      0x00\n        /* \"#utility.yul\":39113:39115   */\n      0x20\n        /* \"#utility.yul\":39102:39111   */\n      dup3\n        /* \"#utility.yul\":39098:39116   */\n      add\n        /* \"#utility.yul\":39090:39116   */\n      swap1\n      pop\n        /* \"#utility.yul\":39162:39171   */\n      dup2\n        /* \"#utility.yul\":39156:39160   */\n      dup2\n        /* \"#utility.yul\":39152:39172   */\n      sub\n        /* \"#utility.yul\":39148:39149   */\n      0x00\n        /* \"#utility.yul\":39137:39146   */\n      dup4\n        /* \"#utility.yul\":39133:39150   */\n      add\n        /* \"#utility.yul\":39126:39173   */\n      mstore\n        /* \"#utility.yul\":39190:39268   */\n      tag_777\n        /* \"#utility.yul\":39263:39267   */\n      dup2\n        /* \"#utility.yul\":39254:39260   */\n      dup5\n        /* \"#utility.yul\":39190:39268   */\n      tag_415\n      jump\t// in\n    tag_777:\n        /* \"#utility.yul\":39182:39268   */\n      swap1\n      pop\n        /* \"#utility.yul\":38962:39275   */\n      swap3\n      swap2\n      pop\n      pop\n      jump\t// out\n        /* \"#utility.yul\":39281:39358   */\n    tag_416:\n        /* \"#utility.yul\":39318:39325   */\n      0x00\n        /* \"#utility.yul\":39347:39352   */\n      dup2\n        /* \"#utility.yul\":39336:39352   */\n      swap1\n      pop\n        /* \"#utility.yul\":39281:39358   */\n      swap2\n      swap1\n      pop\n      jump\t// out\n        /* \"#utility.yul\":39364:39544   */\n    tag_417:\n        /* \"#utility.yul\":39412:39489   */\n      0x4e487b7100000000000000000000000000000000000000000000000000000000\n        /* \"#utility.yul\":39409:39410   */\n      0x00\n        /* \"#utility.yul\":39402:39490   */\n      mstore\n        /* \"#utility.yul\":39509:39513   */\n      0x11\n        /* \"#utility.yul\":39506:39507   */\n      0x04\n        /* \"#utility.yul\":39499:39514   */\n      mstore\n        /* \"#utility.yul\":39533:39537   */\n      0x24\n        /* \"#utility.yul\":39530:39531   */\n      0x00\n        /* \"#utility.yul\":39523:39538   */\n      revert\n        /* \"#utility.yul\":39550:39898   */\n    tag_247:\n        /* \"#utility.yul\":39590:39597   */\n      0x00\n        /* \"#utility.yul\":39613:39633   */\n      tag_781\n        /* \"#utility.yul\":39631:39632   */\n      dup3\n        /* \"#utility.yul\":39613:39633   */\n      tag_416\n      jump\t// in\n    tag_781:\n        /* \"#utility.yul\":39608:39633   */\n      swap2\n      pop\n        /* \"#utility.yul\":39647:39667   */\n      tag_782\n        /* \"#utility.yul\":39665:39666   */\n      dup4\n        /* \"#utility.yul\":39647:39667   */\n      tag_416\n      jump\t// in\n    tag_782:\n        /* \"#utility.yul\":39642:39667   */\n      swap3\n      pop\n        /* \"#utility.yul\":39835:39836   */\n      dup2\n        /* \"#utility.yul\":39767:39833   */\n      0xffffffffffffffffffffffffffffffffffffffffffffffffffffffffffffffff\n        /* \"#utility.yul\":39763:39837   */\n      div\n        /* \"#utility.yul\":39760:39761   */\n      dup4\n        /* \"#utility.yul\":39757:39838   */\n      gt\n        /* \"#utility.yul\":39752:39753   */\n      dup3\n        /* \"#utility.yul\":39745:39754   */\n      iszero\n        /* \"#utility.yul\":39738:39755   */\n      iszero\n        /* \"#utility.yul\":39734:39839   */\n      and\n        /* \"#utility.yul\":39731:39862   */\n      iszero\n      tag_783\n      jumpi\n        /* \"#utility.yul\":39842:39860   */\n      tag_784\n      tag_417\n      jump\t// in\n    tag_784:\n        /* \"#utility.yul\":39731:39862   */\n    tag_783:\n        /* \"#utility.yul\":39890:39891   */\n      dup3\n        /* \"#utility.yul\":39887:39888   */\n      dup3\n        /* \"#utility.yul\":39883:39892   */\n      mul\n        /* \"#utility.yul\":39872:39892   */\n      swap1\n      pop\n        /* \"#utility.yul\":39550:39898   */\n      swap3\n      swap2\n      pop\n      pop\n      jump\t// out\n        /* \"#utility.yul\":39904:40209   */\n    tag_249:\n        /* \"#utility.yul\":39944:39947   */\n      0x00\n        /* \"#utility.yul\":39963:39983   */\n      tag_786\n        /* \"#utility.yul\":39981:39982   */\n      dup3\n        /* \"#utility.yul\":39963:39983   */\n      tag_416\n      jump\t// in\n    tag_786:\n        /* \"#utility.yul\":39958:39983   */\n      swap2\n      pop\n        /* \"#utility.yul\":39997:40017   */\n      tag_787\n        /* \"#utility.yul\":40015:40016   */\n      dup4\n        /* \"#utility.yul\":39997:40017   */\n      tag_416\n      jump\t// in\n    tag_787:\n        /* \"#utility.yul\":39992:40017   */\n      swap3\n      pop\n        /* \"#utility.yul\":40151:40152   */\n      dup3\n        /* \"#utility.yul\":40083:40149   */\n      0xffffffffffffffffffffffffffffffffffffffffffffffffffffffffffffffff\n        /* \"#utility.yul\":40079:40153   */\n      sub\n        /* \"#utility.yul\":40076:40077   */\n      dup3\n        /* \"#utility.yul\":40073:40154   */\n      gt\n        /* \"#utility.yul\":40070:40177   */\n      iszero\n      tag_788\n      jumpi\n        /* \"#utility.yul\":40157:40175   */\n      tag_789\n      tag_417\n      jump\t// in\n    tag_789:\n        /* \"#utility.yul\":40070:40177   */\n    tag_788:\n        /* \"#utility.yul\":40201:40202   */\n      dup3\n        /* \"#utility.yul\":40198:40199   */\n      dup3\n        /* \"#utility.yul\":40194:40203   */\n      add\n        /* \"#utility.yul\":40187:40203   */\n      swap1\n      pop\n        /* \"#utility.yul\":39904:40209   */\n      swap3\n      swap2\n      pop\n      pop\n      jump\t// out\n        /* \"#utility.yul\":40215:40395   */\n    tag_256:\n        /* \"#utility.yul\":40263:40340   */\n      0x4e487b7100000000000000000000000000000000000000000000000000000000\n        /* \"#utility.yul\":40260:40261   */\n      0x00\n        /* \"#utility.yul\":40253:40341   */\n      mstore\n        /* \"#utility.yul\":40360:40364   */\n      0x32\n        /* \"#utility.yul\":40357:40358   */\n      0x04\n        /* \"#utility.yul\":40350:40365   */\n      mstore\n        /* \"#utility.yul\":40384:40388   */\n      0x24\n        /* \"#utility.yul\":40381:40382   */\n      0x00\n        /* \"#utility.yul\":40374:40389   */\n      revert\n        /* \"#utility.yul\":40401:40572   */\n    tag_269:\n        /* \"#utility.yul\":40440:40443   */\n      0x00\n        /* \"#utility.yul\":40463:40487   */\n      tag_792\n        /* \"#utility.yul\":40481:40486   */\n      dup3\n        /* \"#utility.yul\":40463:40487   */\n      tag_416\n      jump\t// in\n    tag_792:\n        /* \"#utility.yul\":40454:40487   */\n      swap2\n      pop\n        /* \"#utility.yul\":40509:40513   */\n      0x00\n        /* \"#utility.yul\":40502:40507   */\n      dup3\n        /* \"#utility.yul\":40499:40514   */\n      sub\n        /* \"#utility.yul\":40496:40537   */\n      tag_793\n      jumpi\n        /* \"#utility.yul\":40517:40535   */\n      tag_794\n      tag_417\n      jump\t// in\n    tag_794:\n        /* \"#utility.yul\":40496:40537   */\n    tag_793:\n        /* \"#utility.yul\":40564:40565   */\n      0x01\n        /* \"#utility.yul\":40557:40562   */\n      dup3\n        /* \"#utility.yul\":40553:40566   */\n      sub\n        /* \"#utility.yul\":40546:40566   */\n      swap1\n      pop\n        /* \"#utility.yul\":40401:40572   */\n      swap2\n      swap1\n      pop\n      jump\t// out\n        /* \"#utility.yul\":40578:40760   */\n    tag_418:\n        /* \"#utility.yul\":40718:40752   */\n      0x537472696e67733a20686578206c656e67746820696e73756666696369656e74\n        /* \"#utility.yul\":40714:40715   */\n      0x00\n        /* \"#utility.yul\":40706:40712   */\n      dup3\n        /* \"#utility.yul\":40702:40716   */\n      add\n        /* \"#utility.yul\":40695:40753   */\n      mstore\n        /* \"#utility.yul\":40578:40760   */\n      pop\n      jump\t// out\n        /* \"#utility.yul\":40766:41132   */\n    tag_419:\n        /* \"#utility.yul\":40908:40911   */\n      0x00\n        /* \"#utility.yul\":40929:40996   */\n      tag_797\n        /* \"#utility.yul\":40993:40995   */\n      0x20\n        /* \"#utility.yul\":40988:40991   */\n      dup4\n        /* \"#utility.yul\":40929:40996   */\n      tag_391\n      jump\t// in\n    tag_797:\n        /* \"#utility.yul\":40922:40996   */\n      swap2\n      pop\n        /* \"#utility.yul\":41005:41098   */\n      tag_798\n        /* \"#utility.yul\":41094:41097   */\n      dup3\n        /* \"#utility.yul\":41005:41098   */\n      tag_418\n      jump\t// in\n    tag_798:\n        /* \"#utility.yul\":41123:41125   */\n      0x20\n        /* \"#utility.yul\":41118:41121   */\n      dup3\n        /* \"#utility.yul\":41114:41126   */\n      add\n        /* \"#utility.yul\":41107:41126   */\n      swap1\n      pop\n        /* \"#utility.yul\":40766:41132   */\n      swap2\n      swap1\n      pop\n      jump\t// out\n        /* \"#utility.yul\":41138:41557   */\n    tag_272:\n        /* \"#utility.yul\":41304:41308   */\n      0x00\n        /* \"#utility.yul\":41342:41344   */\n      0x20\n        /* \"#utility.yul\":41331:41340   */\n      dup3\n        /* \"#utility.yul\":41327:41345   */\n      add\n        /* \"#utility.yul\":41319:41345   */\n      swap1\n      pop\n        /* \"#utility.yul\":41391:41400   */\n      dup2\n        /* \"#utility.yul\":41385:41389   */\n      dup2\n        /* \"#utility.yul\":41381:41401   */\n      sub\n        /* \"#utility.yul\":41377:41378   */\n      0x00\n        /* \"#utility.yul\":41366:41375   */\n      dup4\n        /* \"#utility.yul\":41362:41379   */\n      add\n        /* \"#utility.yul\":41355:41402   */\n      mstore\n        /* \"#utility.yul\":41419:41550   */\n      tag_800\n        /* \"#utility.yul\":41545:41549   */\n      dup2\n        /* \"#utility.yul\":41419:41550   */\n      tag_419\n      jump\t// in\n    tag_800:\n        /* \"#utility.yul\":41411:41550   */\n      swap1\n      pop\n        /* \"#utility.yul\":41138:41557   */\n      swap2\n      swap1\n      pop\n      jump\t// out\n\n    auxdata: 0xa2646970667358221220dc1028c70ce6482aa476cc3da09f29a6fd98c2b8364069fe8c103a2a8206641164736f6c634300080e0033\n}\n",
				"bytecode": {
					"linkReferences": {},
					"object": "60806040523480156200001157600080fd5b5062000032620000266200006a60201b60201c565b6200007260201b60201c565b620000647fff4ed198c18ce05e59ff2bcb2e277f2554623dcb9ab1d05e463e435a930cc469336200013660201b60201c565b620002a8565b600033905090565b60008060009054906101000a900473ffffffffffffffffffffffffffffffffffffffff169050816000806101000a81548173ffffffffffffffffffffffffffffffffffffffff021916908373ffffffffffffffffffffffffffffffffffffffff1602179055508173ffffffffffffffffffffffffffffffffffffffff168173ffffffffffffffffffffffffffffffffffffffff167f8be0079c531659141344cd1fd0a4f28419497f9722a3daafe3b4186f6b6457e060405160405180910390a35050565b6200014882826200014c60201b60201c565b5050565b6200015e82826200023d60201b60201c565b6200023957600180600084815260200190815260200160002060000160008373ffffffffffffffffffffffffffffffffffffffff1673ffffffffffffffffffffffffffffffffffffffff16815260200190815260200160002060006101000a81548160ff021916908315150217905550620001de6200006a60201b60201c565b73ffffffffffffffffffffffffffffffffffffffff168173ffffffffffffffffffffffffffffffffffffffff16837f2f8788117e7eff1d82e926ec794901d17c78024a50270940304540a733656f0d60405160405180910390a45b5050565b60006001600084815260200190815260200160002060000160008373ffffffffffffffffffffffffffffffffffffffff1673ffffffffffffffffffffffffffffffffffffffff16815260200190815260200160002060009054906101000a900460ff16905092915050565b612d0a80620002b86000396000f3fe608060405234801561001057600080fd5b506004361061010b5760003560e01c8063715018a6116100a2578063942af88a11610071578063942af88a146102a257806394b31219146102be578063a217fddf146102da578063d547741f146102f8578063f2fde38b146103145761010b565b8063715018a61461022e57806379abb058146102385780638da5cb5b1461025457806391d14854146102725761010b565b80632f2ff15d116100de5780632f2ff15d146101bc57806333a300e5146101d857806336568abe146101f657806347453643146102125761010b565b806301ffc9a71461011057806318bd4847146101405780631dbb554514610170578063248a9ca31461018c575b600080fd5b61012a60048036038101906101259190611915565b610330565b604051610137919061195d565b60405180910390f35b61015a600480360381019061015591906119d6565b6103aa565b6040516101679190611dca565b60405180910390f35b61018a60048036038101906101859190611ff5565b610891565b005b6101a660048036038101906101a19190612087565b610966565b6040516101b391906120c3565b60405180910390f35b6101d660048036038101906101d191906120de565b610986565b005b6101e06109a7565b6040516101ed91906120c3565b60405180910390f35b610210600480360381019061020b91906120de565b6109cb565b005b61022c600480360381019061022791906121ed565b610a4e565b005b610236610b23565b005b610252600480360381019061024d9190612318565b610b37565b005b61025c610c0c565b6040516102699190612383565b60405180910390f35b61028c600480360381019061028791906120de565b610c35565b604051610299919061195d565b60405180910390f35b6102bc60048036038101906102b7919061246d565b610ca0565b005b6102d860048036038101906102d39190611ff5565b610d75565b005b6102e2610e4a565b6040516102ef91906120c3565b60405180910390f35b610312600480360381019061030d91906120de565b610e51565b005b61032e600480360381019061032991906119d6565b610e72565b005b60007f7965db0b000000000000000000000000000000000000000000000000000000007bffffffffffffffffffffffffffffffffffffffffffffffffffffffff1916827bffffffffffffffffffffffffffffffffffffffffffffffffffffffff191614806103a357506103a282610ef5565b5b9050919050565b6103b261156d565b8173ffffffffffffffffffffffffffffffffffffffff163373ffffffffffffffffffffffffffffffffffffffff16148061041e57506103ef610c0c565b73ffffffffffffffffffffffffffffffffffffffff163373ffffffffffffffffffffffffffffffffffffffff16145b61045d576040517f08c379a000000000000000000000000000000000000000000000000000000000815260040161045490612526565b60405180910390fd5b600260008373ffffffffffffffffffffffffffffffffffffffff1673ffffffffffffffffffffffffffffffffffffffff1681526020019081526020016000206040518060a001604052908160008201600680602002604051908101604052809291906000905b828210156105665783820180546104d990612575565b80601f016020809104026020016040519081016040528092919081815260200182805461050590612575565b80156105525780601f1061052757610100808354040283529160200191610552565b820191906000526020600020905b81548152906001019060200180831161053557829003601f168201915b5050505050815260200190600101906104c3565b50505050815260200160068201600780602002604051908101604052809291906000905b8282101561062d5783820180546105a090612575565b80601f01602080910402602001604051908101604052809291908181526020018280546105cc90612575565b80156106195780601f106105ee57610100808354040283529160200191610619565b820191906000526020600020905b8154815290600101906020018083116105fc57829003601f168201915b50505050508152602001906001019061058a565b505050508152602001600d8201600380602002604051908101604052809291906000905b828210156106f457838201805461066790612575565b80601f016020809104026020016040519081016040528092919081815260200182805461069390612575565b80156106e05780601f106106b5576101008083540402835291602001916106e0565b820191906000526020600020905b8154815290600101906020018083116106c357829003601f168201915b505050505081526020019060010190610651565b50505050815260200160108201600280602002604051908101604052809291906000905b828210156107bb57838201805461072e90612575565b80601f016020809104026020016040519081016040528092919081815260200182805461075a90612575565b80156107a75780601f1061077c576101008083540402835291602001916107a7565b820191906000526020600020905b81548152906001019060200180831161078a57829003601f168201915b505050505081526020019060010190610718565b50505050815260200160128201600280602002604051908101604052809291906000905b828210156108825783820180546107f590612575565b80601f016020809104026020016040519081016040528092919081815260200182805461082190612575565b801561086e5780601f106108435761010080835404028352916020019161086e565b820191906000526020600020905b81548152906001019060200180831161085157829003601f168201915b5050505050815260200190600101906107df565b50505050815250509050919050565b7fff4ed198c18ce05e59ff2bcb2e277f2554623dcb9ab1d05e463e435a930cc4696108bb81610f5f565b6000600260008573ffffffffffffffffffffffffffffffffffffffff1673ffffffffffffffffffffffffffffffffffffffff168152602001908152602001600020905082816012019060026109119291906115ba565b508373ffffffffffffffffffffffffffffffffffffffff167ff82228d2fccbf51a6865c7ec1126d175433bfb90f6b576906c867f35a715d27b846040516109589190612626565b60405180910390a250505050565b600060016000838152602001908152602001600020600101549050919050565b61098f82610966565b61099881610f5f565b6109a28383610f73565b505050565b7fff4ed198c18ce05e59ff2bcb2e277f2554623dcb9ab1d05e463e435a930cc46981565b6109d3611053565b73ffffffffffffffffffffffffffffffffffffffff168173ffffffffffffffffffffffffffffffffffffffff1614610a40576040517f08c379a0000000000000000000000000000000000000000000000000000000008152600401610a37906126ba565b60405180910390fd5b610a4a828261105b565b5050565b7fff4ed198c18ce05e59ff2bcb2e277f2554623dcb9ab1d05e463e435a930cc469610a7881610f5f565b6000600260008573ffffffffffffffffffffffffffffffffffffffff1673ffffffffffffffffffffffffffffffffffffffff16815260200190815260200160002090508281600001906006610ace92919061160d565b508373ffffffffffffffffffffffffffffffffffffffff167f12acbe46024a8132d84ea43e496a038ec0f837db140c6ce73470800455432d4184604051610b15919061275a565b60405180910390a250505050565b610b2b61113d565b610b3560006111bb565b565b7fff4ed198c18ce05e59ff2bcb2e277f2554623dcb9ab1d05e463e435a930cc469610b6181610f5f565b6000600260008573ffffffffffffffffffffffffffffffffffffffff1673ffffffffffffffffffffffffffffffffffffffff16815260200190815260200160002090508281600601906007610bb7929190611660565b508373ffffffffffffffffffffffffffffffffffffffff167fb8ea6d593dbf23af71cbf2ff48cf51834c051fa257185e2ba78199b004491cc884604051610bfe91906127fc565b60405180910390a250505050565b60008060009054906101000a900473ffffffffffffffffffffffffffffffffffffffff16905090565b60006001600084815260200190815260200160002060000160008373ffffffffffffffffffffffffffffffffffffffff1673ffffffffffffffffffffffffffffffffffffffff16815260200190815260200160002060009054906101000a900460ff16905092915050565b7fff4ed198c18ce05e59ff2bcb2e277f2554623dcb9ab1d05e463e435a930cc469610cca81610f5f565b6000600260008573ffffffffffffffffffffffffffffffffffffffff1673ffffffffffffffffffffffffffffffffffffffff16815260200190815260200160002090508281600d01906003610d209291906116b3565b508373ffffffffffffffffffffffffffffffffffffffff167fd6134f67b184a56f52cf6cc3429f33dc966b42c82cf5e243dac53b4366aa01ae84604051610d67919061289e565b60405180910390a250505050565b7fff4ed198c18ce05e59ff2bcb2e277f2554623dcb9ab1d05e463e435a930cc469610d9f81610f5f565b6000600260008573ffffffffffffffffffffffffffffffffffffffff1673ffffffffffffffffffffffffffffffffffffffff16815260200190815260200160002090508281601001906002610df59291906115ba565b508373ffffffffffffffffffffffffffffffffffffffff167f541fd1a482c02c88b030e41f82afe680097ef4daabd80879eab1a9ff9c3b877684604051610e3c9190612626565b60405180910390a250505050565b6000801b81565b610e5a82610966565b610e6381610f5f565b610e6d838361105b565b505050565b610e7a61113d565b600073ffffffffffffffffffffffffffffffffffffffff168173ffffffffffffffffffffffffffffffffffffffff1603610ee9576040517f08c379a0000000000000000000000000000000000000000000000000000000008152600401610ee090612932565b60405180910390fd5b610ef2816111bb565b50565b60007f01ffc9a7000000000000000000000000000000000000000000000000000000007bffffffffffffffffffffffffffffffffffffffffffffffffffffffff1916827bffffffffffffffffffffffffffffffffffffffffffffffffffffffff1916149050919050565b610f7081610f6b611053565b61127f565b50565b610f7d8282610c35565b61104f57600180600084815260200190815260200160002060000160008373ffffffffffffffffffffffffffffffffffffffff1673ffffffffffffffffffffffffffffffffffffffff16815260200190815260200160002060006101000a81548160ff021916908315150217905550610ff4611053565b73ffffffffffffffffffffffffffffffffffffffff168173ffffffffffffffffffffffffffffffffffffffff16837f2f8788117e7eff1d82e926ec794901d17c78024a50270940304540a733656f0d60405160405180910390a45b5050565b600033905090565b6110658282610c35565b156111395760006001600084815260200190815260200160002060000160008373ffffffffffffffffffffffffffffffffffffffff1673ffffffffffffffffffffffffffffffffffffffff16815260200190815260200160002060006101000a81548160ff0219169083151502179055506110de611053565b73ffffffffffffffffffffffffffffffffffffffff168173ffffffffffffffffffffffffffffffffffffffff16837ff6391f5c32d9c69d2a47ea670b442974b53935d1edc7fd64eb21e047a839171b60405160405180910390a45b5050565b611145611053565b73ffffffffffffffffffffffffffffffffffffffff16611163610c0c565b73ffffffffffffffffffffffffffffffffffffffff16146111b9576040517f08c379a00000000000000000000000000000000000000000000000000000000081526004016111b09061299e565b60405180910390fd5b565b60008060009054906101000a900473ffffffffffffffffffffffffffffffffffffffff169050816000806101000a81548173ffffffffffffffffffffffffffffffffffffffff021916908373ffffffffffffffffffffffffffffffffffffffff1602179055508173ffffffffffffffffffffffffffffffffffffffff168173ffffffffffffffffffffffffffffffffffffffff167f8be0079c531659141344cd1fd0a4f28419497f9722a3daafe3b4186f6b6457e060405160405180910390a35050565b6112898282610c35565b6113005761129681611304565b6112a48360001c6020611331565b6040516020016112b5929190612a92565b6040516020818303038152906040526040517f08c379a00000000000000000000000000000000000000000000000000000000081526004016112f79190612b05565b60405180910390fd5b5050565b606061132a8273ffffffffffffffffffffffffffffffffffffffff16601460ff16611331565b9050919050565b6060600060028360026113449190612b60565b61134e9190612bba565b67ffffffffffffffff81111561136757611366611df1565b5b6040519080825280601f01601f1916602001820160405280156113995781602001600182028036833780820191505090505b5090507f3000000000000000000000000000000000000000000000000000000000000000816000815181106113d1576113d0612c10565b5b60200101907effffffffffffffffffffffffffffffffffffffffffffffffffffffffffffff1916908160001a9053507f78000000000000000000000000000000000000000000000000000000000000008160018151811061143557611434612c10565b5b60200101907effffffffffffffffffffffffffffffffffffffffffffffffffffffffffffff1916908160001a905350600060018460026114759190612b60565b61147f9190612bba565b90505b600181111561151f577f3031323334353637383961626364656600000000000000000000000000000000600f8616601081106114c1576114c0612c10565b5b1a60f81b8282815181106114d8576114d7612c10565b5b60200101907effffffffffffffffffffffffffffffffffffffffffffffffffffffffffffff1916908160001a905350600485901c94508061151890612c3f565b9050611482565b5060008414611563576040517f08c379a000000000000000000000000000000000000000000000000000000000815260040161155a90612cb4565b60405180910390fd5b8091505092915050565b6040518060a00160405280611580611706565b815260200161158d61172d565b815260200161159a611754565b81526020016115a761177b565b81526020016115b461177b565b81525090565b82600281019282156115fc579160200282015b828111156115fb5782518290805190602001906115eb9291906117a2565b50916020019190600101906115cd565b5b5090506116099190611828565b5090565b826006810192821561164f579160200282015b8281111561164e57825182908051906020019061163e9291906117a2565b5091602001919060010190611620565b5b50905061165c9190611828565b5090565b82600781019282156116a2579160200282015b828111156116a15782518290805190602001906116919291906117a2565b5091602001919060010190611673565b5b5090506116af9190611828565b5090565b82600381019282156116f5579160200282015b828111156116f45782518290805190602001906116e49291906117a2565b50916020019190600101906116c6565b5b5090506117029190611828565b5090565b6040518060c001604052806006905b60608152602001906001900390816117155790505090565b6040518060e001604052806007905b606081526020019060019003908161173c5790505090565b60405180606001604052806003905b60608152602001906001900390816117635790505090565b60405180604001604052806002905b606081526020019060019003908161178a5790505090565b8280546117ae90612575565b90600052602060002090601f0160209004810192826117d05760008555611817565b82601f106117e957805160ff1916838001178555611817565b82800160010185558215611817579182015b828111156118165782518255916020019190600101906117fb565b5b509050611824919061184c565b5090565b5b80821115611848576000818161183f9190611869565b50600101611829565b5090565b5b8082111561186557600081600090555060010161184d565b5090565b50805461187590612575565b6000825580601f1061188757506118a6565b601f0160209004906000526020600020908101906118a5919061184c565b5b50565b6000604051905090565b600080fd5b600080fd5b60007fffffffff0000000000000000000000000000000000000000000000000000000082169050919050565b6118f2816118bd565b81146118fd57600080fd5b50565b60008135905061190f816118e9565b92915050565b60006020828403121561192b5761192a6118b3565b5b600061193984828501611900565b91505092915050565b60008115159050919050565b61195781611942565b82525050565b6000602082019050611972600083018461194e565b92915050565b600073ffffffffffffffffffffffffffffffffffffffff82169050919050565b60006119a382611978565b9050919050565b6119b381611998565b81146119be57600080fd5b50565b6000813590506119d0816119aa565b92915050565b6000602082840312156119ec576119eb6118b3565b5b60006119fa848285016119c1565b91505092915050565b600060069050919050565b600081905092915050565b6000819050919050565b600081519050919050565b600082825260208201905092915050565b60005b83811015611a5d578082015181840152602081019050611a42565b83811115611a6c576000848401525b50505050565b6000601f19601f8301169050919050565b6000611a8e82611a23565b611a988185611a2e565b9350611aa8818560208601611a3f565b611ab181611a72565b840191505092915050565b6000611ac88383611a83565b905092915050565b6000602082019050919050565b6000611ae882611a03565b611af28185611a0e565b935083602082028501611b0485611a19565b8060005b85811015611b405784840389528151611b218582611abc565b9450611b2c83611ad0565b925060208a01995050600181019050611b08565b50829750879550505050505092915050565b600060079050919050565b600081905092915050565b6000819050919050565b6000602082019050919050565b6000611b8a82611b52565b611b948185611b5d565b935083602082028501611ba685611b68565b8060005b85811015611be25784840389528151611bc38582611abc565b9450611bce83611b72565b925060208a01995050600181019050611baa565b50829750879550505050505092915050565b600060039050919050565b600081905092915050565b6000819050919050565b6000602082019050919050565b6000611c2c82611bf4565b611c368185611bff565b935083602082028501611c4885611c0a565b8060005b85811015611c845784840389528151611c658582611abc565b9450611c7083611c14565b925060208a01995050600181019050611c4c565b50829750879550505050505092915050565b600060029050919050565b600081905092915050565b6000819050919050565b6000602082019050919050565b6000611cce82611c96565b611cd88185611ca1565b935083602082028501611cea85611cac565b8060005b85811015611d265784840389528151611d078582611abc565b9450611d1283611cb6565b925060208a01995050600181019050611cee565b50829750879550505050505092915050565b600060a0830160008301518482036000860152611d558282611add565b91505060208301518482036020860152611d6f8282611b7f565b91505060408301518482036040860152611d898282611c21565b91505060608301518482036060860152611da38282611cc3565b91505060808301518482036080860152611dbd8282611cc3565b9150508091505092915050565b60006020820190508181036000830152611de48184611d38565b905092915050565b600080fd5b7f4e487b7100000000000000000000000000000000000000000000000000000000600052604160045260246000fd5b611e2982611a72565b810181811067ffffffffffffffff82111715611e4857611e47611df1565b5b80604052505050565b6000611e5b6118a9565b9050611e678282611e20565b919050565b600067ffffffffffffffff821115611e8757611e86611df1565b5b602082029050919050565b600080fd5b600080fd5b600067ffffffffffffffff821115611eb757611eb6611df1565b5b611ec082611a72565b9050602081019050919050565b82818337600083830152505050565b6000611eef611eea84611e9c565b611e51565b905082815260208101848484011115611f0b57611f0a611e97565b5b611f16848285611ecd565b509392505050565b600082601f830112611f3357611f32611dec565b5b8135611f43848260208601611edc565b91505092915050565b6000611f5f611f5a84611e6c565b611e51565b90508060208402830185811115611f7957611f78611e92565b5b835b81811015611fc057803567ffffffffffffffff811115611f9e57611f9d611dec565b5b808601611fab8982611f1e565b85526020850194505050602081019050611f7b565b5050509392505050565b600082601f830112611fdf57611fde611dec565b5b6002611fec848285611f4c565b91505092915050565b6000806040838503121561200c5761200b6118b3565b5b600061201a858286016119c1565b925050602083013567ffffffffffffffff81111561203b5761203a6118b8565b5b61204785828601611fca565b9150509250929050565b6000819050919050565b61206481612051565b811461206f57600080fd5b50565b6000813590506120818161205b565b92915050565b60006020828403121561209d5761209c6118b3565b5b60006120ab84828501612072565b91505092915050565b6120bd81612051565b82525050565b60006020820190506120d860008301846120b4565b92915050565b600080604083850312156120f5576120f46118b3565b5b600061210385828601612072565b9250506020612114858286016119c1565b9150509250929050565b600067ffffffffffffffff82111561213957612138611df1565b5b602082029050919050565b60006121576121528461211e565b611e51565b9050806020840283018581111561217157612170611e92565b5b835b818110156121b857803567ffffffffffffffff81111561219657612195611dec565b5b8086016121a38982611f1e565b85526020850194505050602081019050612173565b5050509392505050565b600082601f8301126121d7576121d6611dec565b5b60066121e4848285612144565b91505092915050565b60008060408385031215612204576122036118b3565b5b6000612212858286016119c1565b925050602083013567ffffffffffffffff811115612233576122326118b8565b5b61223f858286016121c2565b9150509250929050565b600067ffffffffffffffff82111561226457612263611df1565b5b602082029050919050565b600061228261227d84612249565b611e51565b9050806020840283018581111561229c5761229b611e92565b5b835b818110156122e357803567ffffffffffffffff8111156122c1576122c0611dec565b5b8086016122ce8982611f1e565b8552602085019450505060208101905061229e565b5050509392505050565b600082601f83011261230257612301611dec565b5b600761230f84828561226f565b91505092915050565b6000806040838503121561232f5761232e6118b3565b5b600061233d858286016119c1565b925050602083013567ffffffffffffffff81111561235e5761235d6118b8565b5b61236a858286016122ed565b9150509250929050565b61237d81611998565b82525050565b60006020820190506123986000830184612374565b92915050565b600067ffffffffffffffff8211156123b9576123b8611df1565b5b602082029050919050565b60006123d76123d28461239e565b611e51565b905080602084028301858111156123f1576123f0611e92565b5b835b8181101561243857803567ffffffffffffffff81111561241657612415611dec565b5b8086016124238982611f1e565b855260208501945050506020810190506123f3565b5050509392505050565b600082601f83011261245757612456611dec565b5b60036124648482856123c4565b91505092915050565b60008060408385031215612484576124836118b3565b5b6000612492858286016119c1565b925050602083013567ffffffffffffffff8111156124b3576124b26118b8565b5b6124bf85828601612442565b9150509250929050565b600082825260208201905092915050565b7f4163636573732044656e69656400000000000000000000000000000000000000600082015250565b6000612510600d836124c9565b915061251b826124da565b602082019050919050565b6000602082019050818103600083015261253f81612503565b9050919050565b7f4e487b7100000000000000000000000000000000000000000000000000000000600052602260045260246000fd5b6000600282049050600182168061258d57607f821691505b6020821081036125a05761259f612546565b5b50919050565b600081905092915050565b60006125bc82611c96565b6125c681856125a6565b9350836020820285016125d885611cac565b8060005b8581101561261457848403895281516125f58582611abc565b945061260083611cb6565b925060208a019950506001810190506125dc565b50829750879550505050505092915050565b6000602082019050818103600083015261264081846125b1565b905092915050565b7f416363657373436f6e74726f6c3a2063616e206f6e6c792072656e6f756e636560008201527f20726f6c657320666f722073656c660000000000000000000000000000000000602082015250565b60006126a4602f836124c9565b91506126af82612648565b604082019050919050565b600060208201905081810360008301526126d381612697565b9050919050565b600081905092915050565b60006126f082611a03565b6126fa81856126da565b93508360208202850161270c85611a19565b8060005b8581101561274857848403895281516127298582611abc565b945061273483611ad0565b925060208a01995050600181019050612710565b50829750879550505050505092915050565b6000602082019050818103600083015261277481846126e5565b905092915050565b600081905092915050565b600061279282611b52565b61279c818561277c565b9350836020820285016127ae85611b68565b8060005b858110156127ea57848403895281516127cb8582611abc565b94506127d683611b72565b925060208a019950506001810190506127b2565b50829750879550505050505092915050565b600060208201905081810360008301526128168184612787565b905092915050565b600081905092915050565b600061283482611bf4565b61283e818561281e565b93508360208202850161285085611c0a565b8060005b8581101561288c578484038952815161286d8582611abc565b945061287883611c14565b925060208a01995050600181019050612854565b50829750879550505050505092915050565b600060208201905081810360008301526128b88184612829565b905092915050565b7f4f776e61626c653a206e6577206f776e657220697320746865207a65726f206160008201527f6464726573730000000000000000000000000000000000000000000000000000602082015250565b600061291c6026836124c9565b9150612927826128c0565b604082019050919050565b6000602082019050818103600083015261294b8161290f565b9050919050565b7f4f776e61626c653a2063616c6c6572206973206e6f7420746865206f776e6572600082015250565b60006129886020836124c9565b915061299382612952565b602082019050919050565b600060208201905081810360008301526129b78161297b565b9050919050565b600081905092915050565b7f416363657373436f6e74726f6c3a206163636f756e7420000000000000000000600082015250565b60006129ff6017836129be565b9150612a0a826129c9565b601782019050919050565b6000612a2082611a23565b612a2a81856129be565b9350612a3a818560208601611a3f565b80840191505092915050565b7f206973206d697373696e6720726f6c6520000000000000000000000000000000600082015250565b6000612a7c6011836129be565b9150612a8782612a46565b601182019050919050565b6000612a9d826129f2565b9150612aa98285612a15565b9150612ab482612a6f565b9150612ac08284612a15565b91508190509392505050565b6000612ad782611a23565b612ae181856124c9565b9350612af1818560208601611a3f565b612afa81611a72565b840191505092915050565b60006020820190508181036000830152612b1f8184612acc565b905092915050565b6000819050919050565b7f4e487b7100000000000000000000000000000000000000000000000000000000600052601160045260246000fd5b6000612b6b82612b27565b9150612b7683612b27565b9250817fffffffffffffffffffffffffffffffffffffffffffffffffffffffffffffffff0483118215151615612baf57612bae612b31565b5b828202905092915050565b6000612bc582612b27565b9150612bd083612b27565b9250827fffffffffffffffffffffffffffffffffffffffffffffffffffffffffffffffff03821115612c0557612c04612b31565b5b828201905092915050565b7f4e487b7100000000000000000000000000000000000000000000000000000000600052603260045260246000fd5b6000612c4a82612b27565b915060008203612c5d57612c5c612b31565b5b600182039050919050565b7f537472696e67733a20686578206c656e67746820696e73756666696369656e74600082015250565b6000612c9e6020836124c9565b9150612ca982612c68565b602082019050919050565b60006020820190508181036000830152612ccd81612c91565b905091905056fea2646970667358221220dc1028c70ce6482aa476cc3da09f29a6fd98c2b8364069fe8c103a2a8206641164736f6c634300080e0033",
					"opcodes": "PUSH1 0x80 PUSH1 0x40 MSTORE CALLVALUE DUP1 ISZERO PUSH3 0x11 JUMPI PUSH1 0x0 DUP1 REVERT JUMPDEST POP PUSH3 0x32 PUSH3 0x26 PUSH3 0x6A PUSH1 0x20 SHL PUSH1 0x20 SHR JUMP JUMPDEST PUSH3 0x72 PUSH1 0x20 SHL PUSH1 0x20 SHR JUMP JUMPDEST PUSH3 0x64 PUSH32 0xFF4ED198C18CE05E59FF2BCB2E277F2554623DCB9AB1D05E463E435A930CC469 CALLER PUSH3 0x136 PUSH1 0x20 SHL PUSH1 0x20 SHR JUMP JUMPDEST PUSH3 0x2A8 JUMP JUMPDEST PUSH1 0x0 CALLER SWAP1 POP SWAP1 JUMP JUMPDEST PUSH1 0x0 DUP1 PUSH1 0x0 SWAP1 SLOAD SWAP1 PUSH2 0x100 EXP SWAP1 DIV PUSH20 0xFFFFFFFFFFFFFFFFFFFFFFFFFFFFFFFFFFFFFFFF AND SWAP1 POP DUP2 PUSH1 0x0 DUP1 PUSH2 0x100 EXP DUP2 SLOAD DUP2 PUSH20 0xFFFFFFFFFFFFFFFFFFFFFFFFFFFFFFFFFFFFFFFF MUL NOT AND SWAP1 DUP4 PUSH20 0xFFFFFFFFFFFFFFFFFFFFFFFFFFFFFFFFFFFFFFFF AND MUL OR SWAP1 SSTORE POP DUP2 PUSH20 0xFFFFFFFFFFFFFFFFFFFFFFFFFFFFFFFFFFFFFFFF AND DUP2 PUSH20 0xFFFFFFFFFFFFFFFFFFFFFFFFFFFFFFFFFFFFFFFF AND PUSH32 0x8BE0079C531659141344CD1FD0A4F28419497F9722A3DAAFE3B4186F6B6457E0 PUSH1 0x40 MLOAD PUSH1 0x40 MLOAD DUP1 SWAP2 SUB SWAP1 LOG3 POP POP JUMP JUMPDEST PUSH3 0x148 DUP3 DUP3 PUSH3 0x14C PUSH1 0x20 SHL PUSH1 0x20 SHR JUMP JUMPDEST POP POP JUMP JUMPDEST PUSH3 0x15E DUP3 DUP3 PUSH3 0x23D PUSH1 0x20 SHL PUSH1 0x20 SHR JUMP JUMPDEST PUSH3 0x239 JUMPI PUSH1 0x1 DUP1 PUSH1 0x0 DUP5 DUP2 MSTORE PUSH1 0x20 ADD SWAP1 DUP2 MSTORE PUSH1 0x20 ADD PUSH1 0x0 KECCAK256 PUSH1 0x0 ADD PUSH1 0x0 DUP4 PUSH20 0xFFFFFFFFFFFFFFFFFFFFFFFFFFFFFFFFFFFFFFFF AND PUSH20 0xFFFFFFFFFFFFFFFFFFFFFFFFFFFFFFFFFFFFFFFF AND DUP2 MSTORE PUSH1 0x20 ADD SWAP1 DUP2 MSTORE PUSH1 0x20 ADD PUSH1 0x0 KECCAK256 PUSH1 0x0 PUSH2 0x100 EXP DUP2 SLOAD DUP2 PUSH1 0xFF MUL NOT AND SWAP1 DUP4 ISZERO ISZERO MUL OR SWAP1 SSTORE POP PUSH3 0x1DE PUSH3 0x6A PUSH1 0x20 SHL PUSH1 0x20 SHR JUMP JUMPDEST PUSH20 0xFFFFFFFFFFFFFFFFFFFFFFFFFFFFFFFFFFFFFFFF AND DUP2 PUSH20 0xFFFFFFFFFFFFFFFFFFFFFFFFFFFFFFFFFFFFFFFF AND DUP4 PUSH32 0x2F8788117E7EFF1D82E926EC794901D17C78024A50270940304540A733656F0D PUSH1 0x40 MLOAD PUSH1 0x40 MLOAD DUP1 SWAP2 SUB SWAP1 LOG4 JUMPDEST POP POP JUMP JUMPDEST PUSH1 0x0 PUSH1 0x1 PUSH1 0x0 DUP5 DUP2 MSTORE PUSH1 0x20 ADD SWAP1 DUP2 MSTORE PUSH1 0x20 ADD PUSH1 0x0 KECCAK256 PUSH1 0x0 ADD PUSH1 0x0 DUP4 PUSH20 0xFFFFFFFFFFFFFFFFFFFFFFFFFFFFFFFFFFFFFFFF AND PUSH20 0xFFFFFFFFFFFFFFFFFFFFFFFFFFFFFFFFFFFFFFFF AND DUP2 MSTORE PUSH1 0x20 ADD SWAP1 DUP2 MSTORE PUSH1 0x20 ADD PUSH1 0x0 KECCAK256 PUSH1 0x0 SWAP1 SLOAD SWAP1 PUSH2 0x100 EXP SWAP1 DIV PUSH1 0xFF AND SWAP1 POP SWAP3 SWAP2 POP POP JUMP JUMPDEST PUSH2 0x2D0A DUP1 PUSH3 0x2B8 PUSH1 0x0 CODECOPY PUSH1 0x0 RETURN INVALID PUSH1 0x80 PUSH1 0x40 MSTORE CALLVALUE DUP1 ISZERO PUSH2 0x10 JUMPI PUSH1 0x0 DUP1 REVERT JUMPDEST POP PUSH1 0x4 CALLDATASIZE LT PUSH2 0x10B JUMPI PUSH1 0x0 CALLDATALOAD PUSH1 0xE0 SHR DUP1 PUSH4 0x715018A6 GT PUSH2 0xA2 JUMPI DUP1 PUSH4 0x942AF88A GT PUSH2 0x71 JUMPI DUP1 PUSH4 0x942AF88A EQ PUSH2 0x2A2 JUMPI DUP1 PUSH4 0x94B31219 EQ PUSH2 0x2BE JUMPI DUP1 PUSH4 0xA217FDDF EQ PUSH2 0x2DA JUMPI DUP1 PUSH4 0xD547741F EQ PUSH2 0x2F8 JUMPI DUP1 PUSH4 0xF2FDE38B EQ PUSH2 0x314 JUMPI PUSH2 0x10B JUMP JUMPDEST DUP1 PUSH4 0x715018A6 EQ PUSH2 0x22E JUMPI DUP1 PUSH4 0x79ABB058 EQ PUSH2 0x238 JUMPI DUP1 PUSH4 0x8DA5CB5B EQ PUSH2 0x254 JUMPI DUP1 PUSH4 0x91D14854 EQ PUSH2 0x272 JUMPI PUSH2 0x10B JUMP JUMPDEST DUP1 PUSH4 0x2F2FF15D GT PUSH2 0xDE JUMPI DUP1 PUSH4 0x2F2FF15D EQ PUSH2 0x1BC JUMPI DUP1 PUSH4 0x33A300E5 EQ PUSH2 0x1D8 JUMPI DUP1 PUSH4 0x36568ABE EQ PUSH2 0x1F6 JUMPI DUP1 PUSH4 0x47453643 EQ PUSH2 0x212 JUMPI PUSH2 0x10B JUMP JUMPDEST DUP1 PUSH4 0x1FFC9A7 EQ PUSH2 0x110 JUMPI DUP1 PUSH4 0x18BD4847 EQ PUSH2 0x140 JUMPI DUP1 PUSH4 0x1DBB5545 EQ PUSH2 0x170 JUMPI DUP1 PUSH4 0x248A9CA3 EQ PUSH2 0x18C JUMPI JUMPDEST PUSH1 0x0 DUP1 REVERT JUMPDEST PUSH2 0x12A PUSH1 0x4 DUP1 CALLDATASIZE SUB DUP2 ADD SWAP1 PUSH2 0x125 SWAP2 SWAP1 PUSH2 0x1915 JUMP JUMPDEST PUSH2 0x330 JUMP JUMPDEST PUSH1 0x40 MLOAD PUSH2 0x137 SWAP2 SWAP1 PUSH2 0x195D JUMP JUMPDEST PUSH1 0x40 MLOAD DUP1 SWAP2 SUB SWAP1 RETURN JUMPDEST PUSH2 0x15A PUSH1 0x4 DUP1 CALLDATASIZE SUB DUP2 ADD SWAP1 PUSH2 0x155 SWAP2 SWAP1 PUSH2 0x19D6 JUMP JUMPDEST PUSH2 0x3AA JUMP JUMPDEST PUSH1 0x40 MLOAD PUSH2 0x167 SWAP2 SWAP1 PUSH2 0x1DCA JUMP JUMPDEST PUSH1 0x40 MLOAD DUP1 SWAP2 SUB SWAP1 RETURN JUMPDEST PUSH2 0x18A PUSH1 0x4 DUP1 CALLDATASIZE SUB DUP2 ADD SWAP1 PUSH2 0x185 SWAP2 SWAP1 PUSH2 0x1FF5 JUMP JUMPDEST PUSH2 0x891 JUMP JUMPDEST STOP JUMPDEST PUSH2 0x1A6 PUSH1 0x4 DUP1 CALLDATASIZE SUB DUP2 ADD SWAP1 PUSH2 0x1A1 SWAP2 SWAP1 PUSH2 0x2087 JUMP JUMPDEST PUSH2 0x966 JUMP JUMPDEST PUSH1 0x40 MLOAD PUSH2 0x1B3 SWAP2 SWAP1 PUSH2 0x20C3 JUMP JUMPDEST PUSH1 0x40 MLOAD DUP1 SWAP2 SUB SWAP1 RETURN JUMPDEST PUSH2 0x1D6 PUSH1 0x4 DUP1 CALLDATASIZE SUB DUP2 ADD SWAP1 PUSH2 0x1D1 SWAP2 SWAP1 PUSH2 0x20DE JUMP JUMPDEST PUSH2 0x986 JUMP JUMPDEST STOP JUMPDEST PUSH2 0x1E0 PUSH2 0x9A7 JUMP JUMPDEST PUSH1 0x40 MLOAD PUSH2 0x1ED SWAP2 SWAP1 PUSH2 0x20C3 JUMP JUMPDEST PUSH1 0x40 MLOAD DUP1 SWAP2 SUB SWAP1 RETURN JUMPDEST PUSH2 0x210 PUSH1 0x4 DUP1 CALLDATASIZE SUB DUP2 ADD SWAP1 PUSH2 0x20B SWAP2 SWAP1 PUSH2 0x20DE JUMP JUMPDEST PUSH2 0x9CB JUMP JUMPDEST STOP JUMPDEST PUSH2 0x22C PUSH1 0x4 DUP1 CALLDATASIZE SUB DUP2 ADD SWAP1 PUSH2 0x227 SWAP2 SWAP1 PUSH2 0x21ED JUMP JUMPDEST PUSH2 0xA4E JUMP JUMPDEST STOP JUMPDEST PUSH2 0x236 PUSH2 0xB23 JUMP JUMPDEST STOP JUMPDEST PUSH2 0x252 PUSH1 0x4 DUP1 CALLDATASIZE SUB DUP2 ADD SWAP1 PUSH2 0x24D SWAP2 SWAP1 PUSH2 0x2318 JUMP JUMPDEST PUSH2 0xB37 JUMP JUMPDEST STOP JUMPDEST PUSH2 0x25C PUSH2 0xC0C JUMP JUMPDEST PUSH1 0x40 MLOAD PUSH2 0x269 SWAP2 SWAP1 PUSH2 0x2383 JUMP JUMPDEST PUSH1 0x40 MLOAD DUP1 SWAP2 SUB SWAP1 RETURN JUMPDEST PUSH2 0x28C PUSH1 0x4 DUP1 CALLDATASIZE SUB DUP2 ADD SWAP1 PUSH2 0x287 SWAP2 SWAP1 PUSH2 0x20DE JUMP JUMPDEST PUSH2 0xC35 JUMP JUMPDEST PUSH1 0x40 MLOAD PUSH2 0x299 SWAP2 SWAP1 PUSH2 0x195D JUMP JUMPDEST PUSH1 0x40 MLOAD DUP1 SWAP2 SUB SWAP1 RETURN JUMPDEST PUSH2 0x2BC PUSH1 0x4 DUP1 CALLDATASIZE SUB DUP2 ADD SWAP1 PUSH2 0x2B7 SWAP2 SWAP1 PUSH2 0x246D JUMP JUMPDEST PUSH2 0xCA0 JUMP JUMPDEST STOP JUMPDEST PUSH2 0x2D8 PUSH1 0x4 DUP1 CALLDATASIZE SUB DUP2 ADD SWAP1 PUSH2 0x2D3 SWAP2 SWAP1 PUSH2 0x1FF5 JUMP JUMPDEST PUSH2 0xD75 JUMP JUMPDEST STOP JUMPDEST PUSH2 0x2E2 PUSH2 0xE4A JUMP JUMPDEST PUSH1 0x40 MLOAD PUSH2 0x2EF SWAP2 SWAP1 PUSH2 0x20C3 JUMP JUMPDEST PUSH1 0x40 MLOAD DUP1 SWAP2 SUB SWAP1 RETURN JUMPDEST PUSH2 0x312 PUSH1 0x4 DUP1 CALLDATASIZE SUB DUP2 ADD SWAP1 PUSH2 0x30D SWAP2 SWAP1 PUSH2 0x20DE JUMP JUMPDEST PUSH2 0xE51 JUMP JUMPDEST STOP JUMPDEST PUSH2 0x32E PUSH1 0x4 DUP1 CALLDATASIZE SUB DUP2 ADD SWAP1 PUSH2 0x329 SWAP2 SWAP1 PUSH2 0x19D6 JUMP JUMPDEST PUSH2 0xE72 JUMP JUMPDEST STOP JUMPDEST PUSH1 0x0 PUSH32 0x7965DB0B00000000000000000000000000000000000000000000000000000000 PUSH28 0xFFFFFFFFFFFFFFFFFFFFFFFFFFFFFFFFFFFFFFFFFFFFFFFFFFFFFFFF NOT AND DUP3 PUSH28 0xFFFFFFFFFFFFFFFFFFFFFFFFFFFFFFFFFFFFFFFFFFFFFFFFFFFFFFFF NOT AND EQ DUP1 PUSH2 0x3A3 JUMPI POP PUSH2 0x3A2 DUP3 PUSH2 0xEF5 JUMP JUMPDEST JUMPDEST SWAP1 POP SWAP2 SWAP1 POP JUMP JUMPDEST PUSH2 0x3B2 PUSH2 0x156D JUMP JUMPDEST DUP2 PUSH20 0xFFFFFFFFFFFFFFFFFFFFFFFFFFFFFFFFFFFFFFFF AND CALLER PUSH20 0xFFFFFFFFFFFFFFFFFFFFFFFFFFFFFFFFFFFFFFFF AND EQ DUP1 PUSH2 0x41E JUMPI POP PUSH2 0x3EF PUSH2 0xC0C JUMP JUMPDEST PUSH20 0xFFFFFFFFFFFFFFFFFFFFFFFFFFFFFFFFFFFFFFFF AND CALLER PUSH20 0xFFFFFFFFFFFFFFFFFFFFFFFFFFFFFFFFFFFFFFFF AND EQ JUMPDEST PUSH2 0x45D JUMPI PUSH1 0x40 MLOAD PUSH32 0x8C379A000000000000000000000000000000000000000000000000000000000 DUP2 MSTORE PUSH1 0x4 ADD PUSH2 0x454 SWAP1 PUSH2 0x2526 JUMP JUMPDEST PUSH1 0x40 MLOAD DUP1 SWAP2 SUB SWAP1 REVERT JUMPDEST PUSH1 0x2 PUSH1 0x0 DUP4 PUSH20 0xFFFFFFFFFFFFFFFFFFFFFFFFFFFFFFFFFFFFFFFF AND PUSH20 0xFFFFFFFFFFFFFFFFFFFFFFFFFFFFFFFFFFFFFFFF AND DUP2 MSTORE PUSH1 0x20 ADD SWAP1 DUP2 MSTORE PUSH1 0x20 ADD PUSH1 0x0 KECCAK256 PUSH1 0x40 MLOAD DUP1 PUSH1 0xA0 ADD PUSH1 0x40 MSTORE SWAP1 DUP2 PUSH1 0x0 DUP3 ADD PUSH1 0x6 DUP1 PUSH1 0x20 MUL PUSH1 0x40 MLOAD SWAP1 DUP2 ADD PUSH1 0x40 MSTORE DUP1 SWAP3 SWAP2 SWAP1 PUSH1 0x0 SWAP1 JUMPDEST DUP3 DUP3 LT ISZERO PUSH2 0x566 JUMPI DUP4 DUP3 ADD DUP1 SLOAD PUSH2 0x4D9 SWAP1 PUSH2 0x2575 JUMP JUMPDEST DUP1 PUSH1 0x1F ADD PUSH1 0x20 DUP1 SWAP2 DIV MUL PUSH1 0x20 ADD PUSH1 0x40 MLOAD SWAP1 DUP2 ADD PUSH1 0x40 MSTORE DUP1 SWAP3 SWAP2 SWAP1 DUP2 DUP2 MSTORE PUSH1 0x20 ADD DUP3 DUP1 SLOAD PUSH2 0x505 SWAP1 PUSH2 0x2575 JUMP JUMPDEST DUP1 ISZERO PUSH2 0x552 JUMPI DUP1 PUSH1 0x1F LT PUSH2 0x527 JUMPI PUSH2 0x100 DUP1 DUP4 SLOAD DIV MUL DUP4 MSTORE SWAP2 PUSH1 0x20 ADD SWAP2 PUSH2 0x552 JUMP JUMPDEST DUP3 ADD SWAP2 SWAP1 PUSH1 0x0 MSTORE PUSH1 0x20 PUSH1 0x0 KECCAK256 SWAP1 JUMPDEST DUP2 SLOAD DUP2 MSTORE SWAP1 PUSH1 0x1 ADD SWAP1 PUSH1 0x20 ADD DUP1 DUP4 GT PUSH2 0x535 JUMPI DUP3 SWAP1 SUB PUSH1 0x1F AND DUP3 ADD SWAP2 JUMPDEST POP POP POP POP POP DUP2 MSTORE PUSH1 0x20 ADD SWAP1 PUSH1 0x1 ADD SWAP1 PUSH2 0x4C3 JUMP JUMPDEST POP POP POP POP DUP2 MSTORE PUSH1 0x20 ADD PUSH1 0x6 DUP3 ADD PUSH1 0x7 DUP1 PUSH1 0x20 MUL PUSH1 0x40 MLOAD SWAP1 DUP2 ADD PUSH1 0x40 MSTORE DUP1 SWAP3 SWAP2 SWAP1 PUSH1 0x0 SWAP1 JUMPDEST DUP3 DUP3 LT ISZERO PUSH2 0x62D JUMPI DUP4 DUP3 ADD DUP1 SLOAD PUSH2 0x5A0 SWAP1 PUSH2 0x2575 JUMP JUMPDEST DUP1 PUSH1 0x1F ADD PUSH1 0x20 DUP1 SWAP2 DIV MUL PUSH1 0x20 ADD PUSH1 0x40 MLOAD SWAP1 DUP2 ADD PUSH1 0x40 MSTORE DUP1 SWAP3 SWAP2 SWAP1 DUP2 DUP2 MSTORE PUSH1 0x20 ADD DUP3 DUP1 SLOAD PUSH2 0x5CC SWAP1 PUSH2 0x2575 JUMP JUMPDEST DUP1 ISZERO PUSH2 0x619 JUMPI DUP1 PUSH1 0x1F LT PUSH2 0x5EE JUMPI PUSH2 0x100 DUP1 DUP4 SLOAD DIV MUL DUP4 MSTORE SWAP2 PUSH1 0x20 ADD SWAP2 PUSH2 0x619 JUMP JUMPDEST DUP3 ADD SWAP2 SWAP1 PUSH1 0x0 MSTORE PUSH1 0x20 PUSH1 0x0 KECCAK256 SWAP1 JUMPDEST DUP2 SLOAD DUP2 MSTORE SWAP1 PUSH1 0x1 ADD SWAP1 PUSH1 0x20 ADD DUP1 DUP4 GT PUSH2 0x5FC JUMPI DUP3 SWAP1 SUB PUSH1 0x1F AND DUP3 ADD SWAP2 JUMPDEST POP POP POP POP POP DUP2 MSTORE PUSH1 0x20 ADD SWAP1 PUSH1 0x1 ADD SWAP1 PUSH2 0x58A JUMP JUMPDEST POP POP POP POP DUP2 MSTORE PUSH1 0x20 ADD PUSH1 0xD DUP3 ADD PUSH1 0x3 DUP1 PUSH1 0x20 MUL PUSH1 0x40 MLOAD SWAP1 DUP2 ADD PUSH1 0x40 MSTORE DUP1 SWAP3 SWAP2 SWAP1 PUSH1 0x0 SWAP1 JUMPDEST DUP3 DUP3 LT ISZERO PUSH2 0x6F4 JUMPI DUP4 DUP3 ADD DUP1 SLOAD PUSH2 0x667 SWAP1 PUSH2 0x2575 JUMP JUMPDEST DUP1 PUSH1 0x1F ADD PUSH1 0x20 DUP1 SWAP2 DIV MUL PUSH1 0x20 ADD PUSH1 0x40 MLOAD SWAP1 DUP2 ADD PUSH1 0x40 MSTORE DUP1 SWAP3 SWAP2 SWAP1 DUP2 DUP2 MSTORE PUSH1 0x20 ADD DUP3 DUP1 SLOAD PUSH2 0x693 SWAP1 PUSH2 0x2575 JUMP JUMPDEST DUP1 ISZERO PUSH2 0x6E0 JUMPI DUP1 PUSH1 0x1F LT PUSH2 0x6B5 JUMPI PUSH2 0x100 DUP1 DUP4 SLOAD DIV MUL DUP4 MSTORE SWAP2 PUSH1 0x20 ADD SWAP2 PUSH2 0x6E0 JUMP JUMPDEST DUP3 ADD SWAP2 SWAP1 PUSH1 0x0 MSTORE PUSH1 0x20 PUSH1 0x0 KECCAK256 SWAP1 JUMPDEST DUP2 SLOAD DUP2 MSTORE SWAP1 PUSH1 0x1 ADD SWAP1 PUSH1 0x20 ADD DUP1 DUP4 GT PUSH2 0x6C3 JUMPI DUP3 SWAP1 SUB PUSH1 0x1F AND DUP3 ADD SWAP2 JUMPDEST POP POP POP POP POP DUP2 MSTORE PUSH1 0x20 ADD SWAP1 PUSH1 0x1 ADD SWAP1 PUSH2 0x651 JUMP JUMPDEST POP POP POP POP DUP2 MSTORE PUSH1 0x20 ADD PUSH1 0x10 DUP3 ADD PUSH1 0x2 DUP1 PUSH1 0x20 MUL PUSH1 0x40 MLOAD SWAP1 DUP2 ADD PUSH1 0x40 MSTORE DUP1 SWAP3 SWAP2 SWAP1 PUSH1 0x0 SWAP1 JUMPDEST DUP3 DUP3 LT ISZERO PUSH2 0x7BB JUMPI DUP4 DUP3 ADD DUP1 SLOAD PUSH2 0x72E SWAP1 PUSH2 0x2575 JUMP JUMPDEST DUP1 PUSH1 0x1F ADD PUSH1 0x20 DUP1 SWAP2 DIV MUL PUSH1 0x20 ADD PUSH1 0x40 MLOAD SWAP1 DUP2 ADD PUSH1 0x40 MSTORE DUP1 SWAP3 SWAP2 SWAP1 DUP2 DUP2 MSTORE PUSH1 0x20 ADD DUP3 DUP1 SLOAD PUSH2 0x75A SWAP1 PUSH2 0x2575 JUMP JUMPDEST DUP1 ISZERO PUSH2 0x7A7 JUMPI DUP1 PUSH1 0x1F LT PUSH2 0x77C JUMPI PUSH2 0x100 DUP1 DUP4 SLOAD DIV MUL DUP4 MSTORE SWAP2 PUSH1 0x20 ADD SWAP2 PUSH2 0x7A7 JUMP JUMPDEST DUP3 ADD SWAP2 SWAP1 PUSH1 0x0 MSTORE PUSH1 0x20 PUSH1 0x0 KECCAK256 SWAP1 JUMPDEST DUP2 SLOAD DUP2 MSTORE SWAP1 PUSH1 0x1 ADD SWAP1 PUSH1 0x20 ADD DUP1 DUP4 GT PUSH2 0x78A JUMPI DUP3 SWAP1 SUB PUSH1 0x1F AND DUP3 ADD SWAP2 JUMPDEST POP POP POP POP POP DUP2 MSTORE PUSH1 0x20 ADD SWAP1 PUSH1 0x1 ADD SWAP1 PUSH2 0x718 JUMP JUMPDEST POP POP POP POP DUP2 MSTORE PUSH1 0x20 ADD PUSH1 0x12 DUP3 ADD PUSH1 0x2 DUP1 PUSH1 0x20 MUL PUSH1 0x40 MLOAD SWAP1 DUP2 ADD PUSH1 0x40 MSTORE DUP1 SWAP3 SWAP2 SWAP1 PUSH1 0x0 SWAP1 JUMPDEST DUP3 DUP3 LT ISZERO PUSH2 0x882 JUMPI DUP4 DUP3 ADD DUP1 SLOAD PUSH2 0x7F5 SWAP1 PUSH2 0x2575 JUMP JUMPDEST DUP1 PUSH1 0x1F ADD PUSH1 0x20 DUP1 SWAP2 DIV MUL PUSH1 0x20 ADD PUSH1 0x40 MLOAD SWAP1 DUP2 ADD PUSH1 0x40 MSTORE DUP1 SWAP3 SWAP2 SWAP1 DUP2 DUP2 MSTORE PUSH1 0x20 ADD DUP3 DUP1 SLOAD PUSH2 0x821 SWAP1 PUSH2 0x2575 JUMP JUMPDEST DUP1 ISZERO PUSH2 0x86E JUMPI DUP1 PUSH1 0x1F LT PUSH2 0x843 JUMPI PUSH2 0x100 DUP1 DUP4 SLOAD DIV MUL DUP4 MSTORE SWAP2 PUSH1 0x20 ADD SWAP2 PUSH2 0x86E JUMP JUMPDEST DUP3 ADD SWAP2 SWAP1 PUSH1 0x0 MSTORE PUSH1 0x20 PUSH1 0x0 KECCAK256 SWAP1 JUMPDEST DUP2 SLOAD DUP2 MSTORE SWAP1 PUSH1 0x1 ADD SWAP1 PUSH1 0x20 ADD DUP1 DUP4 GT PUSH2 0x851 JUMPI DUP3 SWAP1 SUB PUSH1 0x1F AND DUP3 ADD SWAP2 JUMPDEST POP POP POP POP POP DUP2 MSTORE PUSH1 0x20 ADD SWAP1 PUSH1 0x1 ADD SWAP1 PUSH2 0x7DF JUMP JUMPDEST POP POP POP POP DUP2 MSTORE POP POP SWAP1 POP SWAP2 SWAP1 POP JUMP JUMPDEST PUSH32 0xFF4ED198C18CE05E59FF2BCB2E277F2554623DCB9AB1D05E463E435A930CC469 PUSH2 0x8BB DUP2 PUSH2 0xF5F JUMP JUMPDEST PUSH1 0x0 PUSH1 0x2 PUSH1 0x0 DUP6 PUSH20 0xFFFFFFFFFFFFFFFFFFFFFFFFFFFFFFFFFFFFFFFF AND PUSH20 0xFFFFFFFFFFFFFFFFFFFFFFFFFFFFFFFFFFFFFFFF AND DUP2 MSTORE PUSH1 0x20 ADD SWAP1 DUP2 MSTORE PUSH1 0x20 ADD PUSH1 0x0 KECCAK256 SWAP1 POP DUP3 DUP2 PUSH1 0x12 ADD SWAP1 PUSH1 0x2 PUSH2 0x911 SWAP3 SWAP2 SWAP1 PUSH2 0x15BA JUMP JUMPDEST POP DUP4 PUSH20 0xFFFFFFFFFFFFFFFFFFFFFFFFFFFFFFFFFFFFFFFF AND PUSH32 0xF82228D2FCCBF51A6865C7EC1126D175433BFB90F6B576906C867F35A715D27B DUP5 PUSH1 0x40 MLOAD PUSH2 0x958 SWAP2 SWAP1 PUSH2 0x2626 JUMP JUMPDEST PUSH1 0x40 MLOAD DUP1 SWAP2 SUB SWAP1 LOG2 POP POP POP POP JUMP JUMPDEST PUSH1 0x0 PUSH1 0x1 PUSH1 0x0 DUP4 DUP2 MSTORE PUSH1 0x20 ADD SWAP1 DUP2 MSTORE PUSH1 0x20 ADD PUSH1 0x0 KECCAK256 PUSH1 0x1 ADD SLOAD SWAP1 POP SWAP2 SWAP1 POP JUMP JUMPDEST PUSH2 0x98F DUP3 PUSH2 0x966 JUMP JUMPDEST PUSH2 0x998 DUP2 PUSH2 0xF5F JUMP JUMPDEST PUSH2 0x9A2 DUP4 DUP4 PUSH2 0xF73 JUMP JUMPDEST POP POP POP JUMP JUMPDEST PUSH32 0xFF4ED198C18CE05E59FF2BCB2E277F2554623DCB9AB1D05E463E435A930CC469 DUP2 JUMP JUMPDEST PUSH2 0x9D3 PUSH2 0x1053 JUMP JUMPDEST PUSH20 0xFFFFFFFFFFFFFFFFFFFFFFFFFFFFFFFFFFFFFFFF AND DUP2 PUSH20 0xFFFFFFFFFFFFFFFFFFFFFFFFFFFFFFFFFFFFFFFF AND EQ PUSH2 0xA40 JUMPI PUSH1 0x40 MLOAD PUSH32 0x8C379A000000000000000000000000000000000000000000000000000000000 DUP2 MSTORE PUSH1 0x4 ADD PUSH2 0xA37 SWAP1 PUSH2 0x26BA JUMP JUMPDEST PUSH1 0x40 MLOAD DUP1 SWAP2 SUB SWAP1 REVERT JUMPDEST PUSH2 0xA4A DUP3 DUP3 PUSH2 0x105B JUMP JUMPDEST POP POP JUMP JUMPDEST PUSH32 0xFF4ED198C18CE05E59FF2BCB2E277F2554623DCB9AB1D05E463E435A930CC469 PUSH2 0xA78 DUP2 PUSH2 0xF5F JUMP JUMPDEST PUSH1 0x0 PUSH1 0x2 PUSH1 0x0 DUP6 PUSH20 0xFFFFFFFFFFFFFFFFFFFFFFFFFFFFFFFFFFFFFFFF AND PUSH20 0xFFFFFFFFFFFFFFFFFFFFFFFFFFFFFFFFFFFFFFFF AND DUP2 MSTORE PUSH1 0x20 ADD SWAP1 DUP2 MSTORE PUSH1 0x20 ADD PUSH1 0x0 KECCAK256 SWAP1 POP DUP3 DUP2 PUSH1 0x0 ADD SWAP1 PUSH1 0x6 PUSH2 0xACE SWAP3 SWAP2 SWAP1 PUSH2 0x160D JUMP JUMPDEST POP DUP4 PUSH20 0xFFFFFFFFFFFFFFFFFFFFFFFFFFFFFFFFFFFFFFFF AND PUSH32 0x12ACBE46024A8132D84EA43E496A038EC0F837DB140C6CE73470800455432D41 DUP5 PUSH1 0x40 MLOAD PUSH2 0xB15 SWAP2 SWAP1 PUSH2 0x275A JUMP JUMPDEST PUSH1 0x40 MLOAD DUP1 SWAP2 SUB SWAP1 LOG2 POP POP POP POP JUMP JUMPDEST PUSH2 0xB2B PUSH2 0x113D JUMP JUMPDEST PUSH2 0xB35 PUSH1 0x0 PUSH2 0x11BB JUMP JUMPDEST JUMP JUMPDEST PUSH32 0xFF4ED198C18CE05E59FF2BCB2E277F2554623DCB9AB1D05E463E435A930CC469 PUSH2 0xB61 DUP2 PUSH2 0xF5F JUMP JUMPDEST PUSH1 0x0 PUSH1 0x2 PUSH1 0x0 DUP6 PUSH20 0xFFFFFFFFFFFFFFFFFFFFFFFFFFFFFFFFFFFFFFFF AND PUSH20 0xFFFFFFFFFFFFFFFFFFFFFFFFFFFFFFFFFFFFFFFF AND DUP2 MSTORE PUSH1 0x20 ADD SWAP1 DUP2 MSTORE PUSH1 0x20 ADD PUSH1 0x0 KECCAK256 SWAP1 POP DUP3 DUP2 PUSH1 0x6 ADD SWAP1 PUSH1 0x7 PUSH2 0xBB7 SWAP3 SWAP2 SWAP1 PUSH2 0x1660 JUMP JUMPDEST POP DUP4 PUSH20 0xFFFFFFFFFFFFFFFFFFFFFFFFFFFFFFFFFFFFFFFF AND PUSH32 0xB8EA6D593DBF23AF71CBF2FF48CF51834C051FA257185E2BA78199B004491CC8 DUP5 PUSH1 0x40 MLOAD PUSH2 0xBFE SWAP2 SWAP1 PUSH2 0x27FC JUMP JUMPDEST PUSH1 0x40 MLOAD DUP1 SWAP2 SUB SWAP1 LOG2 POP POP POP POP JUMP JUMPDEST PUSH1 0x0 DUP1 PUSH1 0x0 SWAP1 SLOAD SWAP1 PUSH2 0x100 EXP SWAP1 DIV PUSH20 0xFFFFFFFFFFFFFFFFFFFFFFFFFFFFFFFFFFFFFFFF AND SWAP1 POP SWAP1 JUMP JUMPDEST PUSH1 0x0 PUSH1 0x1 PUSH1 0x0 DUP5 DUP2 MSTORE PUSH1 0x20 ADD SWAP1 DUP2 MSTORE PUSH1 0x20 ADD PUSH1 0x0 KECCAK256 PUSH1 0x0 ADD PUSH1 0x0 DUP4 PUSH20 0xFFFFFFFFFFFFFFFFFFFFFFFFFFFFFFFFFFFFFFFF AND PUSH20 0xFFFFFFFFFFFFFFFFFFFFFFFFFFFFFFFFFFFFFFFF AND DUP2 MSTORE PUSH1 0x20 ADD SWAP1 DUP2 MSTORE PUSH1 0x20 ADD PUSH1 0x0 KECCAK256 PUSH1 0x0 SWAP1 SLOAD SWAP1 PUSH2 0x100 EXP SWAP1 DIV PUSH1 0xFF AND SWAP1 POP SWAP3 SWAP2 POP POP JUMP JUMPDEST PUSH32 0xFF4ED198C18CE05E59FF2BCB2E277F2554623DCB9AB1D05E463E435A930CC469 PUSH2 0xCCA DUP2 PUSH2 0xF5F JUMP JUMPDEST PUSH1 0x0 PUSH1 0x2 PUSH1 0x0 DUP6 PUSH20 0xFFFFFFFFFFFFFFFFFFFFFFFFFFFFFFFFFFFFFFFF AND PUSH20 0xFFFFFFFFFFFFFFFFFFFFFFFFFFFFFFFFFFFFFFFF AND DUP2 MSTORE PUSH1 0x20 ADD SWAP1 DUP2 MSTORE PUSH1 0x20 ADD PUSH1 0x0 KECCAK256 SWAP1 POP DUP3 DUP2 PUSH1 0xD ADD SWAP1 PUSH1 0x3 PUSH2 0xD20 SWAP3 SWAP2 SWAP1 PUSH2 0x16B3 JUMP JUMPDEST POP DUP4 PUSH20 0xFFFFFFFFFFFFFFFFFFFFFFFFFFFFFFFFFFFFFFFF AND PUSH32 0xD6134F67B184A56F52CF6CC3429F33DC966B42C82CF5E243DAC53B4366AA01AE DUP5 PUSH1 0x40 MLOAD PUSH2 0xD67 SWAP2 SWAP1 PUSH2 0x289E JUMP JUMPDEST PUSH1 0x40 MLOAD DUP1 SWAP2 SUB SWAP1 LOG2 POP POP POP POP JUMP JUMPDEST PUSH32 0xFF4ED198C18CE05E59FF2BCB2E277F2554623DCB9AB1D05E463E435A930CC469 PUSH2 0xD9F DUP2 PUSH2 0xF5F JUMP JUMPDEST PUSH1 0x0 PUSH1 0x2 PUSH1 0x0 DUP6 PUSH20 0xFFFFFFFFFFFFFFFFFFFFFFFFFFFFFFFFFFFFFFFF AND PUSH20 0xFFFFFFFFFFFFFFFFFFFFFFFFFFFFFFFFFFFFFFFF AND DUP2 MSTORE PUSH1 0x20 ADD SWAP1 DUP2 MSTORE PUSH1 0x20 ADD PUSH1 0x0 KECCAK256 SWAP1 POP DUP3 DUP2 PUSH1 0x10 ADD SWAP1 PUSH1 0x2 PUSH2 0xDF5 SWAP3 SWAP2 SWAP1 PUSH2 0x15BA JUMP JUMPDEST POP DUP4 PUSH20 0xFFFFFFFFFFFFFFFFFFFFFFFFFFFFFFFFFFFFFFFF AND PUSH32 0x541FD1A482C02C88B030E41F82AFE680097EF4DAABD80879EAB1A9FF9C3B8776 DUP5 PUSH1 0x40 MLOAD PUSH2 0xE3C SWAP2 SWAP1 PUSH2 0x2626 JUMP JUMPDEST PUSH1 0x40 MLOAD DUP1 SWAP2 SUB SWAP1 LOG2 POP POP POP POP JUMP JUMPDEST PUSH1 0x0 DUP1 SHL DUP2 JUMP JUMPDEST PUSH2 0xE5A DUP3 PUSH2 0x966 JUMP JUMPDEST PUSH2 0xE63 DUP2 PUSH2 0xF5F JUMP JUMPDEST PUSH2 0xE6D DUP4 DUP4 PUSH2 0x105B JUMP JUMPDEST POP POP POP JUMP JUMPDEST PUSH2 0xE7A PUSH2 0x113D JUMP JUMPDEST PUSH1 0x0 PUSH20 0xFFFFFFFFFFFFFFFFFFFFFFFFFFFFFFFFFFFFFFFF AND DUP2 PUSH20 0xFFFFFFFFFFFFFFFFFFFFFFFFFFFFFFFFFFFFFFFF AND SUB PUSH2 0xEE9 JUMPI PUSH1 0x40 MLOAD PUSH32 0x8C379A000000000000000000000000000000000000000000000000000000000 DUP2 MSTORE PUSH1 0x4 ADD PUSH2 0xEE0 SWAP1 PUSH2 0x2932 JUMP JUMPDEST PUSH1 0x40 MLOAD DUP1 SWAP2 SUB SWAP1 REVERT JUMPDEST PUSH2 0xEF2 DUP2 PUSH2 0x11BB JUMP JUMPDEST POP JUMP JUMPDEST PUSH1 0x0 PUSH32 0x1FFC9A700000000000000000000000000000000000000000000000000000000 PUSH28 0xFFFFFFFFFFFFFFFFFFFFFFFFFFFFFFFFFFFFFFFFFFFFFFFFFFFFFFFF NOT AND DUP3 PUSH28 0xFFFFFFFFFFFFFFFFFFFFFFFFFFFFFFFFFFFFFFFFFFFFFFFFFFFFFFFF NOT AND EQ SWAP1 POP SWAP2 SWAP1 POP JUMP JUMPDEST PUSH2 0xF70 DUP2 PUSH2 0xF6B PUSH2 0x1053 JUMP JUMPDEST PUSH2 0x127F JUMP JUMPDEST POP JUMP JUMPDEST PUSH2 0xF7D DUP3 DUP3 PUSH2 0xC35 JUMP JUMPDEST PUSH2 0x104F JUMPI PUSH1 0x1 DUP1 PUSH1 0x0 DUP5 DUP2 MSTORE PUSH1 0x20 ADD SWAP1 DUP2 MSTORE PUSH1 0x20 ADD PUSH1 0x0 KECCAK256 PUSH1 0x0 ADD PUSH1 0x0 DUP4 PUSH20 0xFFFFFFFFFFFFFFFFFFFFFFFFFFFFFFFFFFFFFFFF AND PUSH20 0xFFFFFFFFFFFFFFFFFFFFFFFFFFFFFFFFFFFFFFFF AND DUP2 MSTORE PUSH1 0x20 ADD SWAP1 DUP2 MSTORE PUSH1 0x20 ADD PUSH1 0x0 KECCAK256 PUSH1 0x0 PUSH2 0x100 EXP DUP2 SLOAD DUP2 PUSH1 0xFF MUL NOT AND SWAP1 DUP4 ISZERO ISZERO MUL OR SWAP1 SSTORE POP PUSH2 0xFF4 PUSH2 0x1053 JUMP JUMPDEST PUSH20 0xFFFFFFFFFFFFFFFFFFFFFFFFFFFFFFFFFFFFFFFF AND DUP2 PUSH20 0xFFFFFFFFFFFFFFFFFFFFFFFFFFFFFFFFFFFFFFFF AND DUP4 PUSH32 0x2F8788117E7EFF1D82E926EC794901D17C78024A50270940304540A733656F0D PUSH1 0x40 MLOAD PUSH1 0x40 MLOAD DUP1 SWAP2 SUB SWAP1 LOG4 JUMPDEST POP POP JUMP JUMPDEST PUSH1 0x0 CALLER SWAP1 POP SWAP1 JUMP JUMPDEST PUSH2 0x1065 DUP3 DUP3 PUSH2 0xC35 JUMP JUMPDEST ISZERO PUSH2 0x1139 JUMPI PUSH1 0x0 PUSH1 0x1 PUSH1 0x0 DUP5 DUP2 MSTORE PUSH1 0x20 ADD SWAP1 DUP2 MSTORE PUSH1 0x20 ADD PUSH1 0x0 KECCAK256 PUSH1 0x0 ADD PUSH1 0x0 DUP4 PUSH20 0xFFFFFFFFFFFFFFFFFFFFFFFFFFFFFFFFFFFFFFFF AND PUSH20 0xFFFFFFFFFFFFFFFFFFFFFFFFFFFFFFFFFFFFFFFF AND DUP2 MSTORE PUSH1 0x20 ADD SWAP1 DUP2 MSTORE PUSH1 0x20 ADD PUSH1 0x0 KECCAK256 PUSH1 0x0 PUSH2 0x100 EXP DUP2 SLOAD DUP2 PUSH1 0xFF MUL NOT AND SWAP1 DUP4 ISZERO ISZERO MUL OR SWAP1 SSTORE POP PUSH2 0x10DE PUSH2 0x1053 JUMP JUMPDEST PUSH20 0xFFFFFFFFFFFFFFFFFFFFFFFFFFFFFFFFFFFFFFFF AND DUP2 PUSH20 0xFFFFFFFFFFFFFFFFFFFFFFFFFFFFFFFFFFFFFFFF AND DUP4 PUSH32 0xF6391F5C32D9C69D2A47EA670B442974B53935D1EDC7FD64EB21E047A839171B PUSH1 0x40 MLOAD PUSH1 0x40 MLOAD DUP1 SWAP2 SUB SWAP1 LOG4 JUMPDEST POP POP JUMP JUMPDEST PUSH2 0x1145 PUSH2 0x1053 JUMP JUMPDEST PUSH20 0xFFFFFFFFFFFFFFFFFFFFFFFFFFFFFFFFFFFFFFFF AND PUSH2 0x1163 PUSH2 0xC0C JUMP JUMPDEST PUSH20 0xFFFFFFFFFFFFFFFFFFFFFFFFFFFFFFFFFFFFFFFF AND EQ PUSH2 0x11B9 JUMPI PUSH1 0x40 MLOAD PUSH32 0x8C379A000000000000000000000000000000000000000000000000000000000 DUP2 MSTORE PUSH1 0x4 ADD PUSH2 0x11B0 SWAP1 PUSH2 0x299E JUMP JUMPDEST PUSH1 0x40 MLOAD DUP1 SWAP2 SUB SWAP1 REVERT JUMPDEST JUMP JUMPDEST PUSH1 0x0 DUP1 PUSH1 0x0 SWAP1 SLOAD SWAP1 PUSH2 0x100 EXP SWAP1 DIV PUSH20 0xFFFFFFFFFFFFFFFFFFFFFFFFFFFFFFFFFFFFFFFF AND SWAP1 POP DUP2 PUSH1 0x0 DUP1 PUSH2 0x100 EXP DUP2 SLOAD DUP2 PUSH20 0xFFFFFFFFFFFFFFFFFFFFFFFFFFFFFFFFFFFFFFFF MUL NOT AND SWAP1 DUP4 PUSH20 0xFFFFFFFFFFFFFFFFFFFFFFFFFFFFFFFFFFFFFFFF AND MUL OR SWAP1 SSTORE POP DUP2 PUSH20 0xFFFFFFFFFFFFFFFFFFFFFFFFFFFFFFFFFFFFFFFF AND DUP2 PUSH20 0xFFFFFFFFFFFFFFFFFFFFFFFFFFFFFFFFFFFFFFFF AND PUSH32 0x8BE0079C531659141344CD1FD0A4F28419497F9722A3DAAFE3B4186F6B6457E0 PUSH1 0x40 MLOAD PUSH1 0x40 MLOAD DUP1 SWAP2 SUB SWAP1 LOG3 POP POP JUMP JUMPDEST PUSH2 0x1289 DUP3 DUP3 PUSH2 0xC35 JUMP JUMPDEST PUSH2 0x1300 JUMPI PUSH2 0x1296 DUP2 PUSH2 0x1304 JUMP JUMPDEST PUSH2 0x12A4 DUP4 PUSH1 0x0 SHR PUSH1 0x20 PUSH2 0x1331 JUMP JUMPDEST PUSH1 0x40 MLOAD PUSH1 0x20 ADD PUSH2 0x12B5 SWAP3 SWAP2 SWAP1 PUSH2 0x2A92 JUMP JUMPDEST PUSH1 0x40 MLOAD PUSH1 0x20 DUP2 DUP4 SUB SUB DUP2 MSTORE SWAP1 PUSH1 0x40 MSTORE PUSH1 0x40 MLOAD PUSH32 0x8C379A000000000000000000000000000000000000000000000000000000000 DUP2 MSTORE PUSH1 0x4 ADD PUSH2 0x12F7 SWAP2 SWAP1 PUSH2 0x2B05 JUMP JUMPDEST PUSH1 0x40 MLOAD DUP1 SWAP2 SUB SWAP1 REVERT JUMPDEST POP POP JUMP JUMPDEST PUSH1 0x60 PUSH2 0x132A DUP3 PUSH20 0xFFFFFFFFFFFFFFFFFFFFFFFFFFFFFFFFFFFFFFFF AND PUSH1 0x14 PUSH1 0xFF AND PUSH2 0x1331 JUMP JUMPDEST SWAP1 POP SWAP2 SWAP1 POP JUMP JUMPDEST PUSH1 0x60 PUSH1 0x0 PUSH1 0x2 DUP4 PUSH1 0x2 PUSH2 0x1344 SWAP2 SWAP1 PUSH2 0x2B60 JUMP JUMPDEST PUSH2 0x134E SWAP2 SWAP1 PUSH2 0x2BBA JUMP JUMPDEST PUSH8 0xFFFFFFFFFFFFFFFF DUP2 GT ISZERO PUSH2 0x1367 JUMPI PUSH2 0x1366 PUSH2 0x1DF1 JUMP JUMPDEST JUMPDEST PUSH1 0x40 MLOAD SWAP1 DUP1 DUP3 MSTORE DUP1 PUSH1 0x1F ADD PUSH1 0x1F NOT AND PUSH1 0x20 ADD DUP3 ADD PUSH1 0x40 MSTORE DUP1 ISZERO PUSH2 0x1399 JUMPI DUP2 PUSH1 0x20 ADD PUSH1 0x1 DUP3 MUL DUP1 CALLDATASIZE DUP4 CALLDATACOPY DUP1 DUP3 ADD SWAP2 POP POP SWAP1 POP JUMPDEST POP SWAP1 POP PUSH32 0x3000000000000000000000000000000000000000000000000000000000000000 DUP2 PUSH1 0x0 DUP2 MLOAD DUP2 LT PUSH2 0x13D1 JUMPI PUSH2 0x13D0 PUSH2 0x2C10 JUMP JUMPDEST JUMPDEST PUSH1 0x20 ADD ADD SWAP1 PUSH31 0xFFFFFFFFFFFFFFFFFFFFFFFFFFFFFFFFFFFFFFFFFFFFFFFFFFFFFFFFFFFFFF NOT AND SWAP1 DUP2 PUSH1 0x0 BYTE SWAP1 MSTORE8 POP PUSH32 0x7800000000000000000000000000000000000000000000000000000000000000 DUP2 PUSH1 0x1 DUP2 MLOAD DUP2 LT PUSH2 0x1435 JUMPI PUSH2 0x1434 PUSH2 0x2C10 JUMP JUMPDEST JUMPDEST PUSH1 0x20 ADD ADD SWAP1 PUSH31 0xFFFFFFFFFFFFFFFFFFFFFFFFFFFFFFFFFFFFFFFFFFFFFFFFFFFFFFFFFFFFFF NOT AND SWAP1 DUP2 PUSH1 0x0 BYTE SWAP1 MSTORE8 POP PUSH1 0x0 PUSH1 0x1 DUP5 PUSH1 0x2 PUSH2 0x1475 SWAP2 SWAP1 PUSH2 0x2B60 JUMP JUMPDEST PUSH2 0x147F SWAP2 SWAP1 PUSH2 0x2BBA JUMP JUMPDEST SWAP1 POP JUMPDEST PUSH1 0x1 DUP2 GT ISZERO PUSH2 0x151F JUMPI PUSH32 0x3031323334353637383961626364656600000000000000000000000000000000 PUSH1 0xF DUP7 AND PUSH1 0x10 DUP2 LT PUSH2 0x14C1 JUMPI PUSH2 0x14C0 PUSH2 0x2C10 JUMP JUMPDEST JUMPDEST BYTE PUSH1 0xF8 SHL DUP3 DUP3 DUP2 MLOAD DUP2 LT PUSH2 0x14D8 JUMPI PUSH2 0x14D7 PUSH2 0x2C10 JUMP JUMPDEST JUMPDEST PUSH1 0x20 ADD ADD SWAP1 PUSH31 0xFFFFFFFFFFFFFFFFFFFFFFFFFFFFFFFFFFFFFFFFFFFFFFFFFFFFFFFFFFFFFF NOT AND SWAP1 DUP2 PUSH1 0x0 BYTE SWAP1 MSTORE8 POP PUSH1 0x4 DUP6 SWAP1 SHR SWAP5 POP DUP1 PUSH2 0x1518 SWAP1 PUSH2 0x2C3F JUMP JUMPDEST SWAP1 POP PUSH2 0x1482 JUMP JUMPDEST POP PUSH1 0x0 DUP5 EQ PUSH2 0x1563 JUMPI PUSH1 0x40 MLOAD PUSH32 0x8C379A000000000000000000000000000000000000000000000000000000000 DUP2 MSTORE PUSH1 0x4 ADD PUSH2 0x155A SWAP1 PUSH2 0x2CB4 JUMP JUMPDEST PUSH1 0x40 MLOAD DUP1 SWAP2 SUB SWAP1 REVERT JUMPDEST DUP1 SWAP2 POP POP SWAP3 SWAP2 POP POP JUMP JUMPDEST PUSH1 0x40 MLOAD DUP1 PUSH1 0xA0 ADD PUSH1 0x40 MSTORE DUP1 PUSH2 0x1580 PUSH2 0x1706 JUMP JUMPDEST DUP2 MSTORE PUSH1 0x20 ADD PUSH2 0x158D PUSH2 0x172D JUMP JUMPDEST DUP2 MSTORE PUSH1 0x20 ADD PUSH2 0x159A PUSH2 0x1754 JUMP JUMPDEST DUP2 MSTORE PUSH1 0x20 ADD PUSH2 0x15A7 PUSH2 0x177B JUMP JUMPDEST DUP2 MSTORE PUSH1 0x20 ADD PUSH2 0x15B4 PUSH2 0x177B JUMP JUMPDEST DUP2 MSTORE POP SWAP1 JUMP JUMPDEST DUP3 PUSH1 0x2 DUP2 ADD SWAP3 DUP3 ISZERO PUSH2 0x15FC JUMPI SWAP2 PUSH1 0x20 MUL DUP3 ADD JUMPDEST DUP3 DUP2 GT ISZERO PUSH2 0x15FB JUMPI DUP3 MLOAD DUP3 SWAP1 DUP1 MLOAD SWAP1 PUSH1 0x20 ADD SWAP1 PUSH2 0x15EB SWAP3 SWAP2 SWAP1 PUSH2 0x17A2 JUMP JUMPDEST POP SWAP2 PUSH1 0x20 ADD SWAP2 SWAP1 PUSH1 0x1 ADD SWAP1 PUSH2 0x15CD JUMP JUMPDEST JUMPDEST POP SWAP1 POP PUSH2 0x1609 SWAP2 SWAP1 PUSH2 0x1828 JUMP JUMPDEST POP SWAP1 JUMP JUMPDEST DUP3 PUSH1 0x6 DUP2 ADD SWAP3 DUP3 ISZERO PUSH2 0x164F JUMPI SWAP2 PUSH1 0x20 MUL DUP3 ADD JUMPDEST DUP3 DUP2 GT ISZERO PUSH2 0x164E JUMPI DUP3 MLOAD DUP3 SWAP1 DUP1 MLOAD SWAP1 PUSH1 0x20 ADD SWAP1 PUSH2 0x163E SWAP3 SWAP2 SWAP1 PUSH2 0x17A2 JUMP JUMPDEST POP SWAP2 PUSH1 0x20 ADD SWAP2 SWAP1 PUSH1 0x1 ADD SWAP1 PUSH2 0x1620 JUMP JUMPDEST JUMPDEST POP SWAP1 POP PUSH2 0x165C SWAP2 SWAP1 PUSH2 0x1828 JUMP JUMPDEST POP SWAP1 JUMP JUMPDEST DUP3 PUSH1 0x7 DUP2 ADD SWAP3 DUP3 ISZERO PUSH2 0x16A2 JUMPI SWAP2 PUSH1 0x20 MUL DUP3 ADD JUMPDEST DUP3 DUP2 GT ISZERO PUSH2 0x16A1 JUMPI DUP3 MLOAD DUP3 SWAP1 DUP1 MLOAD SWAP1 PUSH1 0x20 ADD SWAP1 PUSH2 0x1691 SWAP3 SWAP2 SWAP1 PUSH2 0x17A2 JUMP JUMPDEST POP SWAP2 PUSH1 0x20 ADD SWAP2 SWAP1 PUSH1 0x1 ADD SWAP1 PUSH2 0x1673 JUMP JUMPDEST JUMPDEST POP SWAP1 POP PUSH2 0x16AF SWAP2 SWAP1 PUSH2 0x1828 JUMP JUMPDEST POP SWAP1 JUMP JUMPDEST DUP3 PUSH1 0x3 DUP2 ADD SWAP3 DUP3 ISZERO PUSH2 0x16F5 JUMPI SWAP2 PUSH1 0x20 MUL DUP3 ADD JUMPDEST DUP3 DUP2 GT ISZERO PUSH2 0x16F4 JUMPI DUP3 MLOAD DUP3 SWAP1 DUP1 MLOAD SWAP1 PUSH1 0x20 ADD SWAP1 PUSH2 0x16E4 SWAP3 SWAP2 SWAP1 PUSH2 0x17A2 JUMP JUMPDEST POP SWAP2 PUSH1 0x20 ADD SWAP2 SWAP1 PUSH1 0x1 ADD SWAP1 PUSH2 0x16C6 JUMP JUMPDEST JUMPDEST POP SWAP1 POP PUSH2 0x1702 SWAP2 SWAP1 PUSH2 0x1828 JUMP JUMPDEST POP SWAP1 JUMP JUMPDEST PUSH1 0x40 MLOAD DUP1 PUSH1 0xC0 ADD PUSH1 0x40 MSTORE DUP1 PUSH1 0x6 SWAP1 JUMPDEST PUSH1 0x60 DUP2 MSTORE PUSH1 0x20 ADD SWAP1 PUSH1 0x1 SWAP1 SUB SWAP1 DUP2 PUSH2 0x1715 JUMPI SWAP1 POP POP SWAP1 JUMP JUMPDEST PUSH1 0x40 MLOAD DUP1 PUSH1 0xE0 ADD PUSH1 0x40 MSTORE DUP1 PUSH1 0x7 SWAP1 JUMPDEST PUSH1 0x60 DUP2 MSTORE PUSH1 0x20 ADD SWAP1 PUSH1 0x1 SWAP1 SUB SWAP1 DUP2 PUSH2 0x173C JUMPI SWAP1 POP POP SWAP1 JUMP JUMPDEST PUSH1 0x40 MLOAD DUP1 PUSH1 0x60 ADD PUSH1 0x40 MSTORE DUP1 PUSH1 0x3 SWAP1 JUMPDEST PUSH1 0x60 DUP2 MSTORE PUSH1 0x20 ADD SWAP1 PUSH1 0x1 SWAP1 SUB SWAP1 DUP2 PUSH2 0x1763 JUMPI SWAP1 POP POP SWAP1 JUMP JUMPDEST PUSH1 0x40 MLOAD DUP1 PUSH1 0x40 ADD PUSH1 0x40 MSTORE DUP1 PUSH1 0x2 SWAP1 JUMPDEST PUSH1 0x60 DUP2 MSTORE PUSH1 0x20 ADD SWAP1 PUSH1 0x1 SWAP1 SUB SWAP1 DUP2 PUSH2 0x178A JUMPI SWAP1 POP POP SWAP1 JUMP JUMPDEST DUP3 DUP1 SLOAD PUSH2 0x17AE SWAP1 PUSH2 0x2575 JUMP JUMPDEST SWAP1 PUSH1 0x0 MSTORE PUSH1 0x20 PUSH1 0x0 KECCAK256 SWAP1 PUSH1 0x1F ADD PUSH1 0x20 SWAP1 DIV DUP2 ADD SWAP3 DUP3 PUSH2 0x17D0 JUMPI PUSH1 0x0 DUP6 SSTORE PUSH2 0x1817 JUMP JUMPDEST DUP3 PUSH1 0x1F LT PUSH2 0x17E9 JUMPI DUP1 MLOAD PUSH1 0xFF NOT AND DUP4 DUP1 ADD OR DUP6 SSTORE PUSH2 0x1817 JUMP JUMPDEST DUP3 DUP1 ADD PUSH1 0x1 ADD DUP6 SSTORE DUP3 ISZERO PUSH2 0x1817 JUMPI SWAP2 DUP3 ADD JUMPDEST DUP3 DUP2 GT ISZERO PUSH2 0x1816 JUMPI DUP3 MLOAD DUP3 SSTORE SWAP2 PUSH1 0x20 ADD SWAP2 SWAP1 PUSH1 0x1 ADD SWAP1 PUSH2 0x17FB JUMP JUMPDEST JUMPDEST POP SWAP1 POP PUSH2 0x1824 SWAP2 SWAP1 PUSH2 0x184C JUMP JUMPDEST POP SWAP1 JUMP JUMPDEST JUMPDEST DUP1 DUP3 GT ISZERO PUSH2 0x1848 JUMPI PUSH1 0x0 DUP2 DUP2 PUSH2 0x183F SWAP2 SWAP1 PUSH2 0x1869 JUMP JUMPDEST POP PUSH1 0x1 ADD PUSH2 0x1829 JUMP JUMPDEST POP SWAP1 JUMP JUMPDEST JUMPDEST DUP1 DUP3 GT ISZERO PUSH2 0x1865 JUMPI PUSH1 0x0 DUP2 PUSH1 0x0 SWAP1 SSTORE POP PUSH1 0x1 ADD PUSH2 0x184D JUMP JUMPDEST POP SWAP1 JUMP JUMPDEST POP DUP1 SLOAD PUSH2 0x1875 SWAP1 PUSH2 0x2575 JUMP JUMPDEST PUSH1 0x0 DUP3 SSTORE DUP1 PUSH1 0x1F LT PUSH2 0x1887 JUMPI POP PUSH2 0x18A6 JUMP JUMPDEST PUSH1 0x1F ADD PUSH1 0x20 SWAP1 DIV SWAP1 PUSH1 0x0 MSTORE PUSH1 0x20 PUSH1 0x0 KECCAK256 SWAP1 DUP2 ADD SWAP1 PUSH2 0x18A5 SWAP2 SWAP1 PUSH2 0x184C JUMP JUMPDEST JUMPDEST POP JUMP JUMPDEST PUSH1 0x0 PUSH1 0x40 MLOAD SWAP1 POP SWAP1 JUMP JUMPDEST PUSH1 0x0 DUP1 REVERT JUMPDEST PUSH1 0x0 DUP1 REVERT JUMPDEST PUSH1 0x0 PUSH32 0xFFFFFFFF00000000000000000000000000000000000000000000000000000000 DUP3 AND SWAP1 POP SWAP2 SWAP1 POP JUMP JUMPDEST PUSH2 0x18F2 DUP2 PUSH2 0x18BD JUMP JUMPDEST DUP2 EQ PUSH2 0x18FD JUMPI PUSH1 0x0 DUP1 REVERT JUMPDEST POP JUMP JUMPDEST PUSH1 0x0 DUP2 CALLDATALOAD SWAP1 POP PUSH2 0x190F DUP2 PUSH2 0x18E9 JUMP JUMPDEST SWAP3 SWAP2 POP POP JUMP JUMPDEST PUSH1 0x0 PUSH1 0x20 DUP3 DUP5 SUB SLT ISZERO PUSH2 0x192B JUMPI PUSH2 0x192A PUSH2 0x18B3 JUMP JUMPDEST JUMPDEST PUSH1 0x0 PUSH2 0x1939 DUP5 DUP3 DUP6 ADD PUSH2 0x1900 JUMP JUMPDEST SWAP2 POP POP SWAP3 SWAP2 POP POP JUMP JUMPDEST PUSH1 0x0 DUP2 ISZERO ISZERO SWAP1 POP SWAP2 SWAP1 POP JUMP JUMPDEST PUSH2 0x1957 DUP2 PUSH2 0x1942 JUMP JUMPDEST DUP3 MSTORE POP POP JUMP JUMPDEST PUSH1 0x0 PUSH1 0x20 DUP3 ADD SWAP1 POP PUSH2 0x1972 PUSH1 0x0 DUP4 ADD DUP5 PUSH2 0x194E JUMP JUMPDEST SWAP3 SWAP2 POP POP JUMP JUMPDEST PUSH1 0x0 PUSH20 0xFFFFFFFFFFFFFFFFFFFFFFFFFFFFFFFFFFFFFFFF DUP3 AND SWAP1 POP SWAP2 SWAP1 POP JUMP JUMPDEST PUSH1 0x0 PUSH2 0x19A3 DUP3 PUSH2 0x1978 JUMP JUMPDEST SWAP1 POP SWAP2 SWAP1 POP JUMP JUMPDEST PUSH2 0x19B3 DUP2 PUSH2 0x1998 JUMP JUMPDEST DUP2 EQ PUSH2 0x19BE JUMPI PUSH1 0x0 DUP1 REVERT JUMPDEST POP JUMP JUMPDEST PUSH1 0x0 DUP2 CALLDATALOAD SWAP1 POP PUSH2 0x19D0 DUP2 PUSH2 0x19AA JUMP JUMPDEST SWAP3 SWAP2 POP POP JUMP JUMPDEST PUSH1 0x0 PUSH1 0x20 DUP3 DUP5 SUB SLT ISZERO PUSH2 0x19EC JUMPI PUSH2 0x19EB PUSH2 0x18B3 JUMP JUMPDEST JUMPDEST PUSH1 0x0 PUSH2 0x19FA DUP5 DUP3 DUP6 ADD PUSH2 0x19C1 JUMP JUMPDEST SWAP2 POP POP SWAP3 SWAP2 POP POP JUMP JUMPDEST PUSH1 0x0 PUSH1 0x6 SWAP1 POP SWAP2 SWAP1 POP JUMP JUMPDEST PUSH1 0x0 DUP2 SWAP1 POP SWAP3 SWAP2 POP POP JUMP JUMPDEST PUSH1 0x0 DUP2 SWAP1 POP SWAP2 SWAP1 POP JUMP JUMPDEST PUSH1 0x0 DUP2 MLOAD SWAP1 POP SWAP2 SWAP1 POP JUMP JUMPDEST PUSH1 0x0 DUP3 DUP3 MSTORE PUSH1 0x20 DUP3 ADD SWAP1 POP SWAP3 SWAP2 POP POP JUMP JUMPDEST PUSH1 0x0 JUMPDEST DUP4 DUP2 LT ISZERO PUSH2 0x1A5D JUMPI DUP1 DUP3 ADD MLOAD DUP2 DUP5 ADD MSTORE PUSH1 0x20 DUP2 ADD SWAP1 POP PUSH2 0x1A42 JUMP JUMPDEST DUP4 DUP2 GT ISZERO PUSH2 0x1A6C JUMPI PUSH1 0x0 DUP5 DUP5 ADD MSTORE JUMPDEST POP POP POP POP JUMP JUMPDEST PUSH1 0x0 PUSH1 0x1F NOT PUSH1 0x1F DUP4 ADD AND SWAP1 POP SWAP2 SWAP1 POP JUMP JUMPDEST PUSH1 0x0 PUSH2 0x1A8E DUP3 PUSH2 0x1A23 JUMP JUMPDEST PUSH2 0x1A98 DUP2 DUP6 PUSH2 0x1A2E JUMP JUMPDEST SWAP4 POP PUSH2 0x1AA8 DUP2 DUP6 PUSH1 0x20 DUP7 ADD PUSH2 0x1A3F JUMP JUMPDEST PUSH2 0x1AB1 DUP2 PUSH2 0x1A72 JUMP JUMPDEST DUP5 ADD SWAP2 POP POP SWAP3 SWAP2 POP POP JUMP JUMPDEST PUSH1 0x0 PUSH2 0x1AC8 DUP4 DUP4 PUSH2 0x1A83 JUMP JUMPDEST SWAP1 POP SWAP3 SWAP2 POP POP JUMP JUMPDEST PUSH1 0x0 PUSH1 0x20 DUP3 ADD SWAP1 POP SWAP2 SWAP1 POP JUMP JUMPDEST PUSH1 0x0 PUSH2 0x1AE8 DUP3 PUSH2 0x1A03 JUMP JUMPDEST PUSH2 0x1AF2 DUP2 DUP6 PUSH2 0x1A0E JUMP JUMPDEST SWAP4 POP DUP4 PUSH1 0x20 DUP3 MUL DUP6 ADD PUSH2 0x1B04 DUP6 PUSH2 0x1A19 JUMP JUMPDEST DUP1 PUSH1 0x0 JUMPDEST DUP6 DUP2 LT ISZERO PUSH2 0x1B40 JUMPI DUP5 DUP5 SUB DUP10 MSTORE DUP2 MLOAD PUSH2 0x1B21 DUP6 DUP3 PUSH2 0x1ABC JUMP JUMPDEST SWAP5 POP PUSH2 0x1B2C DUP4 PUSH2 0x1AD0 JUMP JUMPDEST SWAP3 POP PUSH1 0x20 DUP11 ADD SWAP10 POP POP PUSH1 0x1 DUP2 ADD SWAP1 POP PUSH2 0x1B08 JUMP JUMPDEST POP DUP3 SWAP8 POP DUP8 SWAP6 POP POP POP POP POP POP SWAP3 SWAP2 POP POP JUMP JUMPDEST PUSH1 0x0 PUSH1 0x7 SWAP1 POP SWAP2 SWAP1 POP JUMP JUMPDEST PUSH1 0x0 DUP2 SWAP1 POP SWAP3 SWAP2 POP POP JUMP JUMPDEST PUSH1 0x0 DUP2 SWAP1 POP SWAP2 SWAP1 POP JUMP JUMPDEST PUSH1 0x0 PUSH1 0x20 DUP3 ADD SWAP1 POP SWAP2 SWAP1 POP JUMP JUMPDEST PUSH1 0x0 PUSH2 0x1B8A DUP3 PUSH2 0x1B52 JUMP JUMPDEST PUSH2 0x1B94 DUP2 DUP6 PUSH2 0x1B5D JUMP JUMPDEST SWAP4 POP DUP4 PUSH1 0x20 DUP3 MUL DUP6 ADD PUSH2 0x1BA6 DUP6 PUSH2 0x1B68 JUMP JUMPDEST DUP1 PUSH1 0x0 JUMPDEST DUP6 DUP2 LT ISZERO PUSH2 0x1BE2 JUMPI DUP5 DUP5 SUB DUP10 MSTORE DUP2 MLOAD PUSH2 0x1BC3 DUP6 DUP3 PUSH2 0x1ABC JUMP JUMPDEST SWAP5 POP PUSH2 0x1BCE DUP4 PUSH2 0x1B72 JUMP JUMPDEST SWAP3 POP PUSH1 0x20 DUP11 ADD SWAP10 POP POP PUSH1 0x1 DUP2 ADD SWAP1 POP PUSH2 0x1BAA JUMP JUMPDEST POP DUP3 SWAP8 POP DUP8 SWAP6 POP POP POP POP POP POP SWAP3 SWAP2 POP POP JUMP JUMPDEST PUSH1 0x0 PUSH1 0x3 SWAP1 POP SWAP2 SWAP1 POP JUMP JUMPDEST PUSH1 0x0 DUP2 SWAP1 POP SWAP3 SWAP2 POP POP JUMP JUMPDEST PUSH1 0x0 DUP2 SWAP1 POP SWAP2 SWAP1 POP JUMP JUMPDEST PUSH1 0x0 PUSH1 0x20 DUP3 ADD SWAP1 POP SWAP2 SWAP1 POP JUMP JUMPDEST PUSH1 0x0 PUSH2 0x1C2C DUP3 PUSH2 0x1BF4 JUMP JUMPDEST PUSH2 0x1C36 DUP2 DUP6 PUSH2 0x1BFF JUMP JUMPDEST SWAP4 POP DUP4 PUSH1 0x20 DUP3 MUL DUP6 ADD PUSH2 0x1C48 DUP6 PUSH2 0x1C0A JUMP JUMPDEST DUP1 PUSH1 0x0 JUMPDEST DUP6 DUP2 LT ISZERO PUSH2 0x1C84 JUMPI DUP5 DUP5 SUB DUP10 MSTORE DUP2 MLOAD PUSH2 0x1C65 DUP6 DUP3 PUSH2 0x1ABC JUMP JUMPDEST SWAP5 POP PUSH2 0x1C70 DUP4 PUSH2 0x1C14 JUMP JUMPDEST SWAP3 POP PUSH1 0x20 DUP11 ADD SWAP10 POP POP PUSH1 0x1 DUP2 ADD SWAP1 POP PUSH2 0x1C4C JUMP JUMPDEST POP DUP3 SWAP8 POP DUP8 SWAP6 POP POP POP POP POP POP SWAP3 SWAP2 POP POP JUMP JUMPDEST PUSH1 0x0 PUSH1 0x2 SWAP1 POP SWAP2 SWAP1 POP JUMP JUMPDEST PUSH1 0x0 DUP2 SWAP1 POP SWAP3 SWAP2 POP POP JUMP JUMPDEST PUSH1 0x0 DUP2 SWAP1 POP SWAP2 SWAP1 POP JUMP JUMPDEST PUSH1 0x0 PUSH1 0x20 DUP3 ADD SWAP1 POP SWAP2 SWAP1 POP JUMP JUMPDEST PUSH1 0x0 PUSH2 0x1CCE DUP3 PUSH2 0x1C96 JUMP JUMPDEST PUSH2 0x1CD8 DUP2 DUP6 PUSH2 0x1CA1 JUMP JUMPDEST SWAP4 POP DUP4 PUSH1 0x20 DUP3 MUL DUP6 ADD PUSH2 0x1CEA DUP6 PUSH2 0x1CAC JUMP JUMPDEST DUP1 PUSH1 0x0 JUMPDEST DUP6 DUP2 LT ISZERO PUSH2 0x1D26 JUMPI DUP5 DUP5 SUB DUP10 MSTORE DUP2 MLOAD PUSH2 0x1D07 DUP6 DUP3 PUSH2 0x1ABC JUMP JUMPDEST SWAP5 POP PUSH2 0x1D12 DUP4 PUSH2 0x1CB6 JUMP JUMPDEST SWAP3 POP PUSH1 0x20 DUP11 ADD SWAP10 POP POP PUSH1 0x1 DUP2 ADD SWAP1 POP PUSH2 0x1CEE JUMP JUMPDEST POP DUP3 SWAP8 POP DUP8 SWAP6 POP POP POP POP POP POP SWAP3 SWAP2 POP POP JUMP JUMPDEST PUSH1 0x0 PUSH1 0xA0 DUP4 ADD PUSH1 0x0 DUP4 ADD MLOAD DUP5 DUP3 SUB PUSH1 0x0 DUP7 ADD MSTORE PUSH2 0x1D55 DUP3 DUP3 PUSH2 0x1ADD JUMP JUMPDEST SWAP2 POP POP PUSH1 0x20 DUP4 ADD MLOAD DUP5 DUP3 SUB PUSH1 0x20 DUP7 ADD MSTORE PUSH2 0x1D6F DUP3 DUP3 PUSH2 0x1B7F JUMP JUMPDEST SWAP2 POP POP PUSH1 0x40 DUP4 ADD MLOAD DUP5 DUP3 SUB PUSH1 0x40 DUP7 ADD MSTORE PUSH2 0x1D89 DUP3 DUP3 PUSH2 0x1C21 JUMP JUMPDEST SWAP2 POP POP PUSH1 0x60 DUP4 ADD MLOAD DUP5 DUP3 SUB PUSH1 0x60 DUP7 ADD MSTORE PUSH2 0x1DA3 DUP3 DUP3 PUSH2 0x1CC3 JUMP JUMPDEST SWAP2 POP POP PUSH1 0x80 DUP4 ADD MLOAD DUP5 DUP3 SUB PUSH1 0x80 DUP7 ADD MSTORE PUSH2 0x1DBD DUP3 DUP3 PUSH2 0x1CC3 JUMP JUMPDEST SWAP2 POP POP DUP1 SWAP2 POP POP SWAP3 SWAP2 POP POP JUMP JUMPDEST PUSH1 0x0 PUSH1 0x20 DUP3 ADD SWAP1 POP DUP2 DUP2 SUB PUSH1 0x0 DUP4 ADD MSTORE PUSH2 0x1DE4 DUP2 DUP5 PUSH2 0x1D38 JUMP JUMPDEST SWAP1 POP SWAP3 SWAP2 POP POP JUMP JUMPDEST PUSH1 0x0 DUP1 REVERT JUMPDEST PUSH32 0x4E487B7100000000000000000000000000000000000000000000000000000000 PUSH1 0x0 MSTORE PUSH1 0x41 PUSH1 0x4 MSTORE PUSH1 0x24 PUSH1 0x0 REVERT JUMPDEST PUSH2 0x1E29 DUP3 PUSH2 0x1A72 JUMP JUMPDEST DUP2 ADD DUP2 DUP2 LT PUSH8 0xFFFFFFFFFFFFFFFF DUP3 GT OR ISZERO PUSH2 0x1E48 JUMPI PUSH2 0x1E47 PUSH2 0x1DF1 JUMP JUMPDEST JUMPDEST DUP1 PUSH1 0x40 MSTORE POP POP POP JUMP JUMPDEST PUSH1 0x0 PUSH2 0x1E5B PUSH2 0x18A9 JUMP JUMPDEST SWAP1 POP PUSH2 0x1E67 DUP3 DUP3 PUSH2 0x1E20 JUMP JUMPDEST SWAP2 SWAP1 POP JUMP JUMPDEST PUSH1 0x0 PUSH8 0xFFFFFFFFFFFFFFFF DUP3 GT ISZERO PUSH2 0x1E87 JUMPI PUSH2 0x1E86 PUSH2 0x1DF1 JUMP JUMPDEST JUMPDEST PUSH1 0x20 DUP3 MUL SWAP1 POP SWAP2 SWAP1 POP JUMP JUMPDEST PUSH1 0x0 DUP1 REVERT JUMPDEST PUSH1 0x0 DUP1 REVERT JUMPDEST PUSH1 0x0 PUSH8 0xFFFFFFFFFFFFFFFF DUP3 GT ISZERO PUSH2 0x1EB7 JUMPI PUSH2 0x1EB6 PUSH2 0x1DF1 JUMP JUMPDEST JUMPDEST PUSH2 0x1EC0 DUP3 PUSH2 0x1A72 JUMP JUMPDEST SWAP1 POP PUSH1 0x20 DUP2 ADD SWAP1 POP SWAP2 SWAP1 POP JUMP JUMPDEST DUP3 DUP2 DUP4 CALLDATACOPY PUSH1 0x0 DUP4 DUP4 ADD MSTORE POP POP POP JUMP JUMPDEST PUSH1 0x0 PUSH2 0x1EEF PUSH2 0x1EEA DUP5 PUSH2 0x1E9C JUMP JUMPDEST PUSH2 0x1E51 JUMP JUMPDEST SWAP1 POP DUP3 DUP2 MSTORE PUSH1 0x20 DUP2 ADD DUP5 DUP5 DUP5 ADD GT ISZERO PUSH2 0x1F0B JUMPI PUSH2 0x1F0A PUSH2 0x1E97 JUMP JUMPDEST JUMPDEST PUSH2 0x1F16 DUP5 DUP3 DUP6 PUSH2 0x1ECD JUMP JUMPDEST POP SWAP4 SWAP3 POP POP POP JUMP JUMPDEST PUSH1 0x0 DUP3 PUSH1 0x1F DUP4 ADD SLT PUSH2 0x1F33 JUMPI PUSH2 0x1F32 PUSH2 0x1DEC JUMP JUMPDEST JUMPDEST DUP2 CALLDATALOAD PUSH2 0x1F43 DUP5 DUP3 PUSH1 0x20 DUP7 ADD PUSH2 0x1EDC JUMP JUMPDEST SWAP2 POP POP SWAP3 SWAP2 POP POP JUMP JUMPDEST PUSH1 0x0 PUSH2 0x1F5F PUSH2 0x1F5A DUP5 PUSH2 0x1E6C JUMP JUMPDEST PUSH2 0x1E51 JUMP JUMPDEST SWAP1 POP DUP1 PUSH1 0x20 DUP5 MUL DUP4 ADD DUP6 DUP2 GT ISZERO PUSH2 0x1F79 JUMPI PUSH2 0x1F78 PUSH2 0x1E92 JUMP JUMPDEST JUMPDEST DUP4 JUMPDEST DUP2 DUP2 LT ISZERO PUSH2 0x1FC0 JUMPI DUP1 CALLDATALOAD PUSH8 0xFFFFFFFFFFFFFFFF DUP2 GT ISZERO PUSH2 0x1F9E JUMPI PUSH2 0x1F9D PUSH2 0x1DEC JUMP JUMPDEST JUMPDEST DUP1 DUP7 ADD PUSH2 0x1FAB DUP10 DUP3 PUSH2 0x1F1E JUMP JUMPDEST DUP6 MSTORE PUSH1 0x20 DUP6 ADD SWAP5 POP POP POP PUSH1 0x20 DUP2 ADD SWAP1 POP PUSH2 0x1F7B JUMP JUMPDEST POP POP POP SWAP4 SWAP3 POP POP POP JUMP JUMPDEST PUSH1 0x0 DUP3 PUSH1 0x1F DUP4 ADD SLT PUSH2 0x1FDF JUMPI PUSH2 0x1FDE PUSH2 0x1DEC JUMP JUMPDEST JUMPDEST PUSH1 0x2 PUSH2 0x1FEC DUP5 DUP3 DUP6 PUSH2 0x1F4C JUMP JUMPDEST SWAP2 POP POP SWAP3 SWAP2 POP POP JUMP JUMPDEST PUSH1 0x0 DUP1 PUSH1 0x40 DUP4 DUP6 SUB SLT ISZERO PUSH2 0x200C JUMPI PUSH2 0x200B PUSH2 0x18B3 JUMP JUMPDEST JUMPDEST PUSH1 0x0 PUSH2 0x201A DUP6 DUP3 DUP7 ADD PUSH2 0x19C1 JUMP JUMPDEST SWAP3 POP POP PUSH1 0x20 DUP4 ADD CALLDATALOAD PUSH8 0xFFFFFFFFFFFFFFFF DUP2 GT ISZERO PUSH2 0x203B JUMPI PUSH2 0x203A PUSH2 0x18B8 JUMP JUMPDEST JUMPDEST PUSH2 0x2047 DUP6 DUP3 DUP7 ADD PUSH2 0x1FCA JUMP JUMPDEST SWAP2 POP POP SWAP3 POP SWAP3 SWAP1 POP JUMP JUMPDEST PUSH1 0x0 DUP2 SWAP1 POP SWAP2 SWAP1 POP JUMP JUMPDEST PUSH2 0x2064 DUP2 PUSH2 0x2051 JUMP JUMPDEST DUP2 EQ PUSH2 0x206F JUMPI PUSH1 0x0 DUP1 REVERT JUMPDEST POP JUMP JUMPDEST PUSH1 0x0 DUP2 CALLDATALOAD SWAP1 POP PUSH2 0x2081 DUP2 PUSH2 0x205B JUMP JUMPDEST SWAP3 SWAP2 POP POP JUMP JUMPDEST PUSH1 0x0 PUSH1 0x20 DUP3 DUP5 SUB SLT ISZERO PUSH2 0x209D JUMPI PUSH2 0x209C PUSH2 0x18B3 JUMP JUMPDEST JUMPDEST PUSH1 0x0 PUSH2 0x20AB DUP5 DUP3 DUP6 ADD PUSH2 0x2072 JUMP JUMPDEST SWAP2 POP POP SWAP3 SWAP2 POP POP JUMP JUMPDEST PUSH2 0x20BD DUP2 PUSH2 0x2051 JUMP JUMPDEST DUP3 MSTORE POP POP JUMP JUMPDEST PUSH1 0x0 PUSH1 0x20 DUP3 ADD SWAP1 POP PUSH2 0x20D8 PUSH1 0x0 DUP4 ADD DUP5 PUSH2 0x20B4 JUMP JUMPDEST SWAP3 SWAP2 POP POP JUMP JUMPDEST PUSH1 0x0 DUP1 PUSH1 0x40 DUP4 DUP6 SUB SLT ISZERO PUSH2 0x20F5 JUMPI PUSH2 0x20F4 PUSH2 0x18B3 JUMP JUMPDEST JUMPDEST PUSH1 0x0 PUSH2 0x2103 DUP6 DUP3 DUP7 ADD PUSH2 0x2072 JUMP JUMPDEST SWAP3 POP POP PUSH1 0x20 PUSH2 0x2114 DUP6 DUP3 DUP7 ADD PUSH2 0x19C1 JUMP JUMPDEST SWAP2 POP POP SWAP3 POP SWAP3 SWAP1 POP JUMP JUMPDEST PUSH1 0x0 PUSH8 0xFFFFFFFFFFFFFFFF DUP3 GT ISZERO PUSH2 0x2139 JUMPI PUSH2 0x2138 PUSH2 0x1DF1 JUMP JUMPDEST JUMPDEST PUSH1 0x20 DUP3 MUL SWAP1 POP SWAP2 SWAP1 POP JUMP JUMPDEST PUSH1 0x0 PUSH2 0x2157 PUSH2 0x2152 DUP5 PUSH2 0x211E JUMP JUMPDEST PUSH2 0x1E51 JUMP JUMPDEST SWAP1 POP DUP1 PUSH1 0x20 DUP5 MUL DUP4 ADD DUP6 DUP2 GT ISZERO PUSH2 0x2171 JUMPI PUSH2 0x2170 PUSH2 0x1E92 JUMP JUMPDEST JUMPDEST DUP4 JUMPDEST DUP2 DUP2 LT ISZERO PUSH2 0x21B8 JUMPI DUP1 CALLDATALOAD PUSH8 0xFFFFFFFFFFFFFFFF DUP2 GT ISZERO PUSH2 0x2196 JUMPI PUSH2 0x2195 PUSH2 0x1DEC JUMP JUMPDEST JUMPDEST DUP1 DUP7 ADD PUSH2 0x21A3 DUP10 DUP3 PUSH2 0x1F1E JUMP JUMPDEST DUP6 MSTORE PUSH1 0x20 DUP6 ADD SWAP5 POP POP POP PUSH1 0x20 DUP2 ADD SWAP1 POP PUSH2 0x2173 JUMP JUMPDEST POP POP POP SWAP4 SWAP3 POP POP POP JUMP JUMPDEST PUSH1 0x0 DUP3 PUSH1 0x1F DUP4 ADD SLT PUSH2 0x21D7 JUMPI PUSH2 0x21D6 PUSH2 0x1DEC JUMP JUMPDEST JUMPDEST PUSH1 0x6 PUSH2 0x21E4 DUP5 DUP3 DUP6 PUSH2 0x2144 JUMP JUMPDEST SWAP2 POP POP SWAP3 SWAP2 POP POP JUMP JUMPDEST PUSH1 0x0 DUP1 PUSH1 0x40 DUP4 DUP6 SUB SLT ISZERO PUSH2 0x2204 JUMPI PUSH2 0x2203 PUSH2 0x18B3 JUMP JUMPDEST JUMPDEST PUSH1 0x0 PUSH2 0x2212 DUP6 DUP3 DUP7 ADD PUSH2 0x19C1 JUMP JUMPDEST SWAP3 POP POP PUSH1 0x20 DUP4 ADD CALLDATALOAD PUSH8 0xFFFFFFFFFFFFFFFF DUP2 GT ISZERO PUSH2 0x2233 JUMPI PUSH2 0x2232 PUSH2 0x18B8 JUMP JUMPDEST JUMPDEST PUSH2 0x223F DUP6 DUP3 DUP7 ADD PUSH2 0x21C2 JUMP JUMPDEST SWAP2 POP POP SWAP3 POP SWAP3 SWAP1 POP JUMP JUMPDEST PUSH1 0x0 PUSH8 0xFFFFFFFFFFFFFFFF DUP3 GT ISZERO PUSH2 0x2264 JUMPI PUSH2 0x2263 PUSH2 0x1DF1 JUMP JUMPDEST JUMPDEST PUSH1 0x20 DUP3 MUL SWAP1 POP SWAP2 SWAP1 POP JUMP JUMPDEST PUSH1 0x0 PUSH2 0x2282 PUSH2 0x227D DUP5 PUSH2 0x2249 JUMP JUMPDEST PUSH2 0x1E51 JUMP JUMPDEST SWAP1 POP DUP1 PUSH1 0x20 DUP5 MUL DUP4 ADD DUP6 DUP2 GT ISZERO PUSH2 0x229C JUMPI PUSH2 0x229B PUSH2 0x1E92 JUMP JUMPDEST JUMPDEST DUP4 JUMPDEST DUP2 DUP2 LT ISZERO PUSH2 0x22E3 JUMPI DUP1 CALLDATALOAD PUSH8 0xFFFFFFFFFFFFFFFF DUP2 GT ISZERO PUSH2 0x22C1 JUMPI PUSH2 0x22C0 PUSH2 0x1DEC JUMP JUMPDEST JUMPDEST DUP1 DUP7 ADD PUSH2 0x22CE DUP10 DUP3 PUSH2 0x1F1E JUMP JUMPDEST DUP6 MSTORE PUSH1 0x20 DUP6 ADD SWAP5 POP POP POP PUSH1 0x20 DUP2 ADD SWAP1 POP PUSH2 0x229E JUMP JUMPDEST POP POP POP SWAP4 SWAP3 POP POP POP JUMP JUMPDEST PUSH1 0x0 DUP3 PUSH1 0x1F DUP4 ADD SLT PUSH2 0x2302 JUMPI PUSH2 0x2301 PUSH2 0x1DEC JUMP JUMPDEST JUMPDEST PUSH1 0x7 PUSH2 0x230F DUP5 DUP3 DUP6 PUSH2 0x226F JUMP JUMPDEST SWAP2 POP POP SWAP3 SWAP2 POP POP JUMP JUMPDEST PUSH1 0x0 DUP1 PUSH1 0x40 DUP4 DUP6 SUB SLT ISZERO PUSH2 0x232F JUMPI PUSH2 0x232E PUSH2 0x18B3 JUMP JUMPDEST JUMPDEST PUSH1 0x0 PUSH2 0x233D DUP6 DUP3 DUP7 ADD PUSH2 0x19C1 JUMP JUMPDEST SWAP3 POP POP PUSH1 0x20 DUP4 ADD CALLDATALOAD PUSH8 0xFFFFFFFFFFFFFFFF DUP2 GT ISZERO PUSH2 0x235E JUMPI PUSH2 0x235D PUSH2 0x18B8 JUMP JUMPDEST JUMPDEST PUSH2 0x236A DUP6 DUP3 DUP7 ADD PUSH2 0x22ED JUMP JUMPDEST SWAP2 POP POP SWAP3 POP SWAP3 SWAP1 POP JUMP JUMPDEST PUSH2 0x237D DUP2 PUSH2 0x1998 JUMP JUMPDEST DUP3 MSTORE POP POP JUMP JUMPDEST PUSH1 0x0 PUSH1 0x20 DUP3 ADD SWAP1 POP PUSH2 0x2398 PUSH1 0x0 DUP4 ADD DUP5 PUSH2 0x2374 JUMP JUMPDEST SWAP3 SWAP2 POP POP JUMP JUMPDEST PUSH1 0x0 PUSH8 0xFFFFFFFFFFFFFFFF DUP3 GT ISZERO PUSH2 0x23B9 JUMPI PUSH2 0x23B8 PUSH2 0x1DF1 JUMP JUMPDEST JUMPDEST PUSH1 0x20 DUP3 MUL SWAP1 POP SWAP2 SWAP1 POP JUMP JUMPDEST PUSH1 0x0 PUSH2 0x23D7 PUSH2 0x23D2 DUP5 PUSH2 0x239E JUMP JUMPDEST PUSH2 0x1E51 JUMP JUMPDEST SWAP1 POP DUP1 PUSH1 0x20 DUP5 MUL DUP4 ADD DUP6 DUP2 GT ISZERO PUSH2 0x23F1 JUMPI PUSH2 0x23F0 PUSH2 0x1E92 JUMP JUMPDEST JUMPDEST DUP4 JUMPDEST DUP2 DUP2 LT ISZERO PUSH2 0x2438 JUMPI DUP1 CALLDATALOAD PUSH8 0xFFFFFFFFFFFFFFFF DUP2 GT ISZERO PUSH2 0x2416 JUMPI PUSH2 0x2415 PUSH2 0x1DEC JUMP JUMPDEST JUMPDEST DUP1 DUP7 ADD PUSH2 0x2423 DUP10 DUP3 PUSH2 0x1F1E JUMP JUMPDEST DUP6 MSTORE PUSH1 0x20 DUP6 ADD SWAP5 POP POP POP PUSH1 0x20 DUP2 ADD SWAP1 POP PUSH2 0x23F3 JUMP JUMPDEST POP POP POP SWAP4 SWAP3 POP POP POP JUMP JUMPDEST PUSH1 0x0 DUP3 PUSH1 0x1F DUP4 ADD SLT PUSH2 0x2457 JUMPI PUSH2 0x2456 PUSH2 0x1DEC JUMP JUMPDEST JUMPDEST PUSH1 0x3 PUSH2 0x2464 DUP5 DUP3 DUP6 PUSH2 0x23C4 JUMP JUMPDEST SWAP2 POP POP SWAP3 SWAP2 POP POP JUMP JUMPDEST PUSH1 0x0 DUP1 PUSH1 0x40 DUP4 DUP6 SUB SLT ISZERO PUSH2 0x2484 JUMPI PUSH2 0x2483 PUSH2 0x18B3 JUMP JUMPDEST JUMPDEST PUSH1 0x0 PUSH2 0x2492 DUP6 DUP3 DUP7 ADD PUSH2 0x19C1 JUMP JUMPDEST SWAP3 POP POP PUSH1 0x20 DUP4 ADD CALLDATALOAD PUSH8 0xFFFFFFFFFFFFFFFF DUP2 GT ISZERO PUSH2 0x24B3 JUMPI PUSH2 0x24B2 PUSH2 0x18B8 JUMP JUMPDEST JUMPDEST PUSH2 0x24BF DUP6 DUP3 DUP7 ADD PUSH2 0x2442 JUMP JUMPDEST SWAP2 POP POP SWAP3 POP SWAP3 SWAP1 POP JUMP JUMPDEST PUSH1 0x0 DUP3 DUP3 MSTORE PUSH1 0x20 DUP3 ADD SWAP1 POP SWAP3 SWAP2 POP POP JUMP JUMPDEST PUSH32 0x4163636573732044656E69656400000000000000000000000000000000000000 PUSH1 0x0 DUP3 ADD MSTORE POP JUMP JUMPDEST PUSH1 0x0 PUSH2 0x2510 PUSH1 0xD DUP4 PUSH2 0x24C9 JUMP JUMPDEST SWAP2 POP PUSH2 0x251B DUP3 PUSH2 0x24DA JUMP JUMPDEST PUSH1 0x20 DUP3 ADD SWAP1 POP SWAP2 SWAP1 POP JUMP JUMPDEST PUSH1 0x0 PUSH1 0x20 DUP3 ADD SWAP1 POP DUP2 DUP2 SUB PUSH1 0x0 DUP4 ADD MSTORE PUSH2 0x253F DUP2 PUSH2 0x2503 JUMP JUMPDEST SWAP1 POP SWAP2 SWAP1 POP JUMP JUMPDEST PUSH32 0x4E487B7100000000000000000000000000000000000000000000000000000000 PUSH1 0x0 MSTORE PUSH1 0x22 PUSH1 0x4 MSTORE PUSH1 0x24 PUSH1 0x0 REVERT JUMPDEST PUSH1 0x0 PUSH1 0x2 DUP3 DIV SWAP1 POP PUSH1 0x1 DUP3 AND DUP1 PUSH2 0x258D JUMPI PUSH1 0x7F DUP3 AND SWAP2 POP JUMPDEST PUSH1 0x20 DUP3 LT DUP2 SUB PUSH2 0x25A0 JUMPI PUSH2 0x259F PUSH2 0x2546 JUMP JUMPDEST JUMPDEST POP SWAP2 SWAP1 POP JUMP JUMPDEST PUSH1 0x0 DUP2 SWAP1 POP SWAP3 SWAP2 POP POP JUMP JUMPDEST PUSH1 0x0 PUSH2 0x25BC DUP3 PUSH2 0x1C96 JUMP JUMPDEST PUSH2 0x25C6 DUP2 DUP6 PUSH2 0x25A6 JUMP JUMPDEST SWAP4 POP DUP4 PUSH1 0x20 DUP3 MUL DUP6 ADD PUSH2 0x25D8 DUP6 PUSH2 0x1CAC JUMP JUMPDEST DUP1 PUSH1 0x0 JUMPDEST DUP6 DUP2 LT ISZERO PUSH2 0x2614 JUMPI DUP5 DUP5 SUB DUP10 MSTORE DUP2 MLOAD PUSH2 0x25F5 DUP6 DUP3 PUSH2 0x1ABC JUMP JUMPDEST SWAP5 POP PUSH2 0x2600 DUP4 PUSH2 0x1CB6 JUMP JUMPDEST SWAP3 POP PUSH1 0x20 DUP11 ADD SWAP10 POP POP PUSH1 0x1 DUP2 ADD SWAP1 POP PUSH2 0x25DC JUMP JUMPDEST POP DUP3 SWAP8 POP DUP8 SWAP6 POP POP POP POP POP POP SWAP3 SWAP2 POP POP JUMP JUMPDEST PUSH1 0x0 PUSH1 0x20 DUP3 ADD SWAP1 POP DUP2 DUP2 SUB PUSH1 0x0 DUP4 ADD MSTORE PUSH2 0x2640 DUP2 DUP5 PUSH2 0x25B1 JUMP JUMPDEST SWAP1 POP SWAP3 SWAP2 POP POP JUMP JUMPDEST PUSH32 0x416363657373436F6E74726F6C3A2063616E206F6E6C792072656E6F756E6365 PUSH1 0x0 DUP3 ADD MSTORE PUSH32 0x20726F6C657320666F722073656C660000000000000000000000000000000000 PUSH1 0x20 DUP3 ADD MSTORE POP JUMP JUMPDEST PUSH1 0x0 PUSH2 0x26A4 PUSH1 0x2F DUP4 PUSH2 0x24C9 JUMP JUMPDEST SWAP2 POP PUSH2 0x26AF DUP3 PUSH2 0x2648 JUMP JUMPDEST PUSH1 0x40 DUP3 ADD SWAP1 POP SWAP2 SWAP1 POP JUMP JUMPDEST PUSH1 0x0 PUSH1 0x20 DUP3 ADD SWAP1 POP DUP2 DUP2 SUB PUSH1 0x0 DUP4 ADD MSTORE PUSH2 0x26D3 DUP2 PUSH2 0x2697 JUMP JUMPDEST SWAP1 POP SWAP2 SWAP1 POP JUMP JUMPDEST PUSH1 0x0 DUP2 SWAP1 POP SWAP3 SWAP2 POP POP JUMP JUMPDEST PUSH1 0x0 PUSH2 0x26F0 DUP3 PUSH2 0x1A03 JUMP JUMPDEST PUSH2 0x26FA DUP2 DUP6 PUSH2 0x26DA JUMP JUMPDEST SWAP4 POP DUP4 PUSH1 0x20 DUP3 MUL DUP6 ADD PUSH2 0x270C DUP6 PUSH2 0x1A19 JUMP JUMPDEST DUP1 PUSH1 0x0 JUMPDEST DUP6 DUP2 LT ISZERO PUSH2 0x2748 JUMPI DUP5 DUP5 SUB DUP10 MSTORE DUP2 MLOAD PUSH2 0x2729 DUP6 DUP3 PUSH2 0x1ABC JUMP JUMPDEST SWAP5 POP PUSH2 0x2734 DUP4 PUSH2 0x1AD0 JUMP JUMPDEST SWAP3 POP PUSH1 0x20 DUP11 ADD SWAP10 POP POP PUSH1 0x1 DUP2 ADD SWAP1 POP PUSH2 0x2710 JUMP JUMPDEST POP DUP3 SWAP8 POP DUP8 SWAP6 POP POP POP POP POP POP SWAP3 SWAP2 POP POP JUMP JUMPDEST PUSH1 0x0 PUSH1 0x20 DUP3 ADD SWAP1 POP DUP2 DUP2 SUB PUSH1 0x0 DUP4 ADD MSTORE PUSH2 0x2774 DUP2 DUP5 PUSH2 0x26E5 JUMP JUMPDEST SWAP1 POP SWAP3 SWAP2 POP POP JUMP JUMPDEST PUSH1 0x0 DUP2 SWAP1 POP SWAP3 SWAP2 POP POP JUMP JUMPDEST PUSH1 0x0 PUSH2 0x2792 DUP3 PUSH2 0x1B52 JUMP JUMPDEST PUSH2 0x279C DUP2 DUP6 PUSH2 0x277C JUMP JUMPDEST SWAP4 POP DUP4 PUSH1 0x20 DUP3 MUL DUP6 ADD PUSH2 0x27AE DUP6 PUSH2 0x1B68 JUMP JUMPDEST DUP1 PUSH1 0x0 JUMPDEST DUP6 DUP2 LT ISZERO PUSH2 0x27EA JUMPI DUP5 DUP5 SUB DUP10 MSTORE DUP2 MLOAD PUSH2 0x27CB DUP6 DUP3 PUSH2 0x1ABC JUMP JUMPDEST SWAP5 POP PUSH2 0x27D6 DUP4 PUSH2 0x1B72 JUMP JUMPDEST SWAP3 POP PUSH1 0x20 DUP11 ADD SWAP10 POP POP PUSH1 0x1 DUP2 ADD SWAP1 POP PUSH2 0x27B2 JUMP JUMPDEST POP DUP3 SWAP8 POP DUP8 SWAP6 POP POP POP POP POP POP SWAP3 SWAP2 POP POP JUMP JUMPDEST PUSH1 0x0 PUSH1 0x20 DUP3 ADD SWAP1 POP DUP2 DUP2 SUB PUSH1 0x0 DUP4 ADD MSTORE PUSH2 0x2816 DUP2 DUP5 PUSH2 0x2787 JUMP JUMPDEST SWAP1 POP SWAP3 SWAP2 POP POP JUMP JUMPDEST PUSH1 0x0 DUP2 SWAP1 POP SWAP3 SWAP2 POP POP JUMP JUMPDEST PUSH1 0x0 PUSH2 0x2834 DUP3 PUSH2 0x1BF4 JUMP JUMPDEST PUSH2 0x283E DUP2 DUP6 PUSH2 0x281E JUMP JUMPDEST SWAP4 POP DUP4 PUSH1 0x20 DUP3 MUL DUP6 ADD PUSH2 0x2850 DUP6 PUSH2 0x1C0A JUMP JUMPDEST DUP1 PUSH1 0x0 JUMPDEST DUP6 DUP2 LT ISZERO PUSH2 0x288C JUMPI DUP5 DUP5 SUB DUP10 MSTORE DUP2 MLOAD PUSH2 0x286D DUP6 DUP3 PUSH2 0x1ABC JUMP JUMPDEST SWAP5 POP PUSH2 0x2878 DUP4 PUSH2 0x1C14 JUMP JUMPDEST SWAP3 POP PUSH1 0x20 DUP11 ADD SWAP10 POP POP PUSH1 0x1 DUP2 ADD SWAP1 POP PUSH2 0x2854 JUMP JUMPDEST POP DUP3 SWAP8 POP DUP8 SWAP6 POP POP POP POP POP POP SWAP3 SWAP2 POP POP JUMP JUMPDEST PUSH1 0x0 PUSH1 0x20 DUP3 ADD SWAP1 POP DUP2 DUP2 SUB PUSH1 0x0 DUP4 ADD MSTORE PUSH2 0x28B8 DUP2 DUP5 PUSH2 0x2829 JUMP JUMPDEST SWAP1 POP SWAP3 SWAP2 POP POP JUMP JUMPDEST PUSH32 0x4F776E61626C653A206E6577206F776E657220697320746865207A65726F2061 PUSH1 0x0 DUP3 ADD MSTORE PUSH32 0x6464726573730000000000000000000000000000000000000000000000000000 PUSH1 0x20 DUP3 ADD MSTORE POP JUMP JUMPDEST PUSH1 0x0 PUSH2 0x291C PUSH1 0x26 DUP4 PUSH2 0x24C9 JUMP JUMPDEST SWAP2 POP PUSH2 0x2927 DUP3 PUSH2 0x28C0 JUMP JUMPDEST PUSH1 0x40 DUP3 ADD SWAP1 POP SWAP2 SWAP1 POP JUMP JUMPDEST PUSH1 0x0 PUSH1 0x20 DUP3 ADD SWAP1 POP DUP2 DUP2 SUB PUSH1 0x0 DUP4 ADD MSTORE PUSH2 0x294B DUP2 PUSH2 0x290F JUMP JUMPDEST SWAP1 POP SWAP2 SWAP1 POP JUMP JUMPDEST PUSH32 0x4F776E61626C653A2063616C6C6572206973206E6F7420746865206F776E6572 PUSH1 0x0 DUP3 ADD MSTORE POP JUMP JUMPDEST PUSH1 0x0 PUSH2 0x2988 PUSH1 0x20 DUP4 PUSH2 0x24C9 JUMP JUMPDEST SWAP2 POP PUSH2 0x2993 DUP3 PUSH2 0x2952 JUMP JUMPDEST PUSH1 0x20 DUP3 ADD SWAP1 POP SWAP2 SWAP1 POP JUMP JUMPDEST PUSH1 0x0 PUSH1 0x20 DUP3 ADD SWAP1 POP DUP2 DUP2 SUB PUSH1 0x0 DUP4 ADD MSTORE PUSH2 0x29B7 DUP2 PUSH2 0x297B JUMP JUMPDEST SWAP1 POP SWAP2 SWAP1 POP JUMP JUMPDEST PUSH1 0x0 DUP2 SWAP1 POP SWAP3 SWAP2 POP POP JUMP JUMPDEST PUSH32 0x416363657373436F6E74726F6C3A206163636F756E7420000000000000000000 PUSH1 0x0 DUP3 ADD MSTORE POP JUMP JUMPDEST PUSH1 0x0 PUSH2 0x29FF PUSH1 0x17 DUP4 PUSH2 0x29BE JUMP JUMPDEST SWAP2 POP PUSH2 0x2A0A DUP3 PUSH2 0x29C9 JUMP JUMPDEST PUSH1 0x17 DUP3 ADD SWAP1 POP SWAP2 SWAP1 POP JUMP JUMPDEST PUSH1 0x0 PUSH2 0x2A20 DUP3 PUSH2 0x1A23 JUMP JUMPDEST PUSH2 0x2A2A DUP2 DUP6 PUSH2 0x29BE JUMP JUMPDEST SWAP4 POP PUSH2 0x2A3A DUP2 DUP6 PUSH1 0x20 DUP7 ADD PUSH2 0x1A3F JUMP JUMPDEST DUP1 DUP5 ADD SWAP2 POP POP SWAP3 SWAP2 POP POP JUMP JUMPDEST PUSH32 0x206973206D697373696E6720726F6C6520000000000000000000000000000000 PUSH1 0x0 DUP3 ADD MSTORE POP JUMP JUMPDEST PUSH1 0x0 PUSH2 0x2A7C PUSH1 0x11 DUP4 PUSH2 0x29BE JUMP JUMPDEST SWAP2 POP PUSH2 0x2A87 DUP3 PUSH2 0x2A46 JUMP JUMPDEST PUSH1 0x11 DUP3 ADD SWAP1 POP SWAP2 SWAP1 POP JUMP JUMPDEST PUSH1 0x0 PUSH2 0x2A9D DUP3 PUSH2 0x29F2 JUMP JUMPDEST SWAP2 POP PUSH2 0x2AA9 DUP3 DUP6 PUSH2 0x2A15 JUMP JUMPDEST SWAP2 POP PUSH2 0x2AB4 DUP3 PUSH2 0x2A6F JUMP JUMPDEST SWAP2 POP PUSH2 0x2AC0 DUP3 DUP5 PUSH2 0x2A15 JUMP JUMPDEST SWAP2 POP DUP2 SWAP1 POP SWAP4 SWAP3 POP POP POP JUMP JUMPDEST PUSH1 0x0 PUSH2 0x2AD7 DUP3 PUSH2 0x1A23 JUMP JUMPDEST PUSH2 0x2AE1 DUP2 DUP6 PUSH2 0x24C9 JUMP JUMPDEST SWAP4 POP PUSH2 0x2AF1 DUP2 DUP6 PUSH1 0x20 DUP7 ADD PUSH2 0x1A3F JUMP JUMPDEST PUSH2 0x2AFA DUP2 PUSH2 0x1A72 JUMP JUMPDEST DUP5 ADD SWAP2 POP POP SWAP3 SWAP2 POP POP JUMP JUMPDEST PUSH1 0x0 PUSH1 0x20 DUP3 ADD SWAP1 POP DUP2 DUP2 SUB PUSH1 0x0 DUP4 ADD MSTORE PUSH2 0x2B1F DUP2 DUP5 PUSH2 0x2ACC JUMP JUMPDEST SWAP1 POP SWAP3 SWAP2 POP POP JUMP JUMPDEST PUSH1 0x0 DUP2 SWAP1 POP SWAP2 SWAP1 POP JUMP JUMPDEST PUSH32 0x4E487B7100000000000000000000000000000000000000000000000000000000 PUSH1 0x0 MSTORE PUSH1 0x11 PUSH1 0x4 MSTORE PUSH1 0x24 PUSH1 0x0 REVERT JUMPDEST PUSH1 0x0 PUSH2 0x2B6B DUP3 PUSH2 0x2B27 JUMP JUMPDEST SWAP2 POP PUSH2 0x2B76 DUP4 PUSH2 0x2B27 JUMP JUMPDEST SWAP3 POP DUP2 PUSH32 0xFFFFFFFFFFFFFFFFFFFFFFFFFFFFFFFFFFFFFFFFFFFFFFFFFFFFFFFFFFFFFFFF DIV DUP4 GT DUP3 ISZERO ISZERO AND ISZERO PUSH2 0x2BAF JUMPI PUSH2 0x2BAE PUSH2 0x2B31 JUMP JUMPDEST JUMPDEST DUP3 DUP3 MUL SWAP1 POP SWAP3 SWAP2 POP POP JUMP JUMPDEST PUSH1 0x0 PUSH2 0x2BC5 DUP3 PUSH2 0x2B27 JUMP JUMPDEST SWAP2 POP PUSH2 0x2BD0 DUP4 PUSH2 0x2B27 JUMP JUMPDEST SWAP3 POP DUP3 PUSH32 0xFFFFFFFFFFFFFFFFFFFFFFFFFFFFFFFFFFFFFFFFFFFFFFFFFFFFFFFFFFFFFFFF SUB DUP3 GT ISZERO PUSH2 0x2C05 JUMPI PUSH2 0x2C04 PUSH2 0x2B31 JUMP JUMPDEST JUMPDEST DUP3 DUP3 ADD SWAP1 POP SWAP3 SWAP2 POP POP JUMP JUMPDEST PUSH32 0x4E487B7100000000000000000000000000000000000000000000000000000000 PUSH1 0x0 MSTORE PUSH1 0x32 PUSH1 0x4 MSTORE PUSH1 0x24 PUSH1 0x0 REVERT JUMPDEST PUSH1 0x0 PUSH2 0x2C4A DUP3 PUSH2 0x2B27 JUMP JUMPDEST SWAP2 POP PUSH1 0x0 DUP3 SUB PUSH2 0x2C5D JUMPI PUSH2 0x2C5C PUSH2 0x2B31 JUMP JUMPDEST JUMPDEST PUSH1 0x1 DUP3 SUB SWAP1 POP SWAP2 SWAP1 POP JUMP JUMPDEST PUSH32 0x537472696E67733A20686578206C656E67746820696E73756666696369656E74 PUSH1 0x0 DUP3 ADD MSTORE POP JUMP JUMPDEST PUSH1 0x0 PUSH2 0x2C9E PUSH1 0x20 DUP4 PUSH2 0x24C9 JUMP JUMPDEST SWAP2 POP PUSH2 0x2CA9 DUP3 PUSH2 0x2C68 JUMP JUMPDEST PUSH1 0x20 DUP3 ADD SWAP1 POP SWAP2 SWAP1 POP JUMP JUMPDEST PUSH1 0x0 PUSH1 0x20 DUP3 ADD SWAP1 POP DUP2 DUP2 SUB PUSH1 0x0 DUP4 ADD MSTORE PUSH2 0x2CCD DUP2 PUSH2 0x2C91 JUMP JUMPDEST SWAP1 POP SWAP2 SWAP1 POP JUMP INVALID LOG2 PUSH5 0x6970667358 0x22 SLT KECCAK256 0xDC LT 0x28 0xC7 0xC 0xE6 BASEFEE 0x2A LOG4 PUSH23 0xCC3DA09F29A6FD98C2B8364069FE8C103A2A8206641164 PUSH20 0x6F6C634300080E00330000000000000000000000 "
				},
				"gasEstimates": {
					"creation": {
						"codeDepositCost": "2306000",
						"executionCost": "infinite",
						"totalCost": "infinite"
					},
					"external": {
						"DEFAULT_ADMIN_ROLE()": "401",
						"getPatientRecords(address)": "infinite",
						"getRoleAdmin(bytes32)": "infinite",
						"grantRole(bytes32,address)": "infinite",
						"hasRole(bytes32,address)": "3229",
						"onlyDoctor()": "374",
						"owner()": "2589",
						"renounceOwnership()": "30421",
						"renounceRole(bytes32,address)": "infinite",
						"revokeRole(bytes32,address)": "infinite",
						"supportsInterface(bytes4)": "751",
						"transferOwnership(address)": "30854",
						"updateDiseaseInfo(address,string[6])": "infinite",
						"updateLabResults(address,string[2])": "infinite",
						"updateLabTests(address,string[2])": "infinite",
						"updateMedicationInfo(address,string[3])": "infinite",
						"updateVitalSigns(address,string[7])": "infinite"
					}
				},
				"methodIdentifiers": {
					"DEFAULT_ADMIN_ROLE()": "a217fddf",
					"getPatientRecords(address)": "18bd4847",
					"getRoleAdmin(bytes32)": "248a9ca3",
					"grantRole(bytes32,address)": "2f2ff15d",
					"hasRole(bytes32,address)": "91d14854",
					"onlyDoctor()": "33a300e5",
					"owner()": "8da5cb5b",
					"renounceOwnership()": "715018a6",
					"renounceRole(bytes32,address)": "36568abe",
					"revokeRole(bytes32,address)": "d547741f",
					"supportsInterface(bytes4)": "01ffc9a7",
					"transferOwnership(address)": "f2fde38b",
					"updateDiseaseInfo(address,string[6])": "47453643",
					"updateLabResults(address,string[2])": "1dbb5545",
					"updateLabTests(address,string[2])": "94b31219",
					"updateMedicationInfo(address,string[3])": "942af88a",
					"updateVitalSigns(address,string[7])": "79abb058"
				}
			},
			"storageLayout": {
				"storage": [
					{
						"astId": 1638,
						"contract": "contracts/vitalsContract_flattened.sol:PatientRecord",
						"label": "_owner",
						"offset": 0,
						"slot": "0",
						"type": "t_address"
					},
					{
						"astId": 1341,
						"contract": "contracts/vitalsContract_flattened.sol:PatientRecord",
						"label": "_roles",
						"offset": 0,
						"slot": "1",
						"type": "t_mapping(t_bytes32,t_struct(RoleData)1336_storage)"
					},
					{
						"astId": 1758,
						"contract": "contracts/vitalsContract_flattened.sol:PatientRecord",
						"label": "patientRecords",
						"offset": 0,
						"slot": "2",
						"type": "t_mapping(t_address,t_struct(Records)1779_storage)"
					}
				],
				"types": {
					"t_address": {
						"encoding": "inplace",
						"label": "address",
						"numberOfBytes": "20"
					},
					"t_array(t_string_storage)2_storage": {
						"base": "t_string_storage",
						"encoding": "inplace",
						"label": "string[2]",
						"numberOfBytes": "64"
					},
					"t_array(t_string_storage)3_storage": {
						"base": "t_string_storage",
						"encoding": "inplace",
						"label": "string[3]",
						"numberOfBytes": "96"
					},
					"t_array(t_string_storage)6_storage": {
						"base": "t_string_storage",
						"encoding": "inplace",
						"label": "string[6]",
						"numberOfBytes": "192"
					},
					"t_array(t_string_storage)7_storage": {
						"base": "t_string_storage",
						"encoding": "inplace",
						"label": "string[7]",
						"numberOfBytes": "224"
					},
					"t_bool": {
						"encoding": "inplace",
						"label": "bool",
						"numberOfBytes": "1"
					},
					"t_bytes32": {
						"encoding": "inplace",
						"label": "bytes32",
						"numberOfBytes": "32"
					},
					"t_mapping(t_address,t_bool)": {
						"encoding": "mapping",
						"key": "t_address",
						"label": "mapping(address => bool)",
						"numberOfBytes": "32",
						"value": "t_bool"
					},
					"t_mapping(t_address,t_struct(Records)1779_storage)": {
						"encoding": "mapping",
						"key": "t_address",
						"label": "mapping(address => struct PatientRecord.Records)",
						"numberOfBytes": "32",
						"value": "t_struct(Records)1779_storage"
					},
					"t_mapping(t_bytes32,t_struct(RoleData)1336_storage)": {
						"encoding": "mapping",
						"key": "t_bytes32",
						"label": "mapping(bytes32 => struct AccessControl.RoleData)",
						"numberOfBytes": "32",
						"value": "t_struct(RoleData)1336_storage"
					},
					"t_string_storage": {
						"encoding": "bytes",
						"label": "string",
						"numberOfBytes": "32"
					},
					"t_struct(Records)1779_storage": {
						"encoding": "inplace",
						"label": "struct PatientRecord.Records",
						"members": [
							{
								"astId": 1762,
								"contract": "contracts/vitalsContract_flattened.sol:PatientRecord",
								"label": "diseaseInfo",
								"offset": 0,
								"slot": "0",
								"type": "t_array(t_string_storage)6_storage"
							},
							{
								"astId": 1766,
								"contract": "contracts/vitalsContract_flattened.sol:PatientRecord",
								"label": "vitalSigns",
								"offset": 0,
								"slot": "6",
								"type": "t_array(t_string_storage)7_storage"
							},
							{
								"astId": 1770,
								"contract": "contracts/vitalsContract_flattened.sol:PatientRecord",
								"label": "medicationInfo",
								"offset": 0,
								"slot": "13",
								"type": "t_array(t_string_storage)3_storage"
							},
							{
								"astId": 1774,
								"contract": "contracts/vitalsContract_flattened.sol:PatientRecord",
								"label": "labTests",
								"offset": 0,
								"slot": "16",
								"type": "t_array(t_string_storage)2_storage"
							},
							{
								"astId": 1778,
								"contract": "contracts/vitalsContract_flattened.sol:PatientRecord",
								"label": "labResults",
								"offset": 0,
								"slot": "18",
								"type": "t_array(t_string_storage)2_storage"
							}
						],
						"numberOfBytes": "640"
					},
					"t_struct(RoleData)1336_storage": {
						"encoding": "inplace",
						"label": "struct AccessControl.RoleData",
						"members": [
							{
								"astId": 1333,
								"contract": "contracts/vitalsContract_flattened.sol:PatientRecord",
								"label": "members",
								"offset": 0,
								"slot": "0",
								"type": "t_mapping(t_address,t_bool)"
							},
							{
								"astId": 1335,
								"contract": "contracts/vitalsContract_flattened.sol:PatientRecord",
								"label": "adminRole",
								"offset": 0,
								"slot": "1",
								"type": "t_bytes32"
							}
						],
						"numberOfBytes": "64"
					}
				}
			},
			"userdoc": {
				"kind": "user",
				"methods": {},
				"version": 1
			}
		}
	}
}